:020000040000FA
:100000000100980000000000430000000000018192
:100010005400FF000000000000000000000000008D
:1000200000000000000000003A5D022DFD02607635
:100030001A347FB8822D1C1613111010220263A9E6
:10004000EF90181F93901900730A20364CE574FF47
:1000500022EFF5742202569E000DFA20000DDC708E
:1000600000000000020C00013F3F3F040404639CB9
:1000700036681A3E2202503BC2D5E830E70FB2D5AF
:10008000E4C39BFBE49AFAE499F9E498F8EC30E7CE
:1000900017B2D512188412246CE4C39BFBE49AFABD
:1000A000E499F9E498F8800312246C30D50DE4C388
:1000B0009FFFE49EFEE49DFDE49CFC22788CE4F628
:1000C000D8FD9000007F007E10E4F0A3DFFCDEFA94
:1000D000904FFFA3E583C394204011FEAF82902090
:1000E000000E0FE48002F0A3DFFCDEFA12192002FA
:1000F0002E0F22321B421B971B9C1BBF1BF11C287F
:100100001C2D200102030405060708090A0B0C0D2B
:100110000E0F101112131415161718191A1B1C1D87
:100120001E1F7A061A571A5C1A61C0747419C0E04F
:10013000C082C08375740AE5FF54CF4490F5FF2256
:10014000C0747419C0E0C082C083757420E5FF5488
:10015000CF4490F5FF22C0747419C0E0C082C08300
:10016000757436E5FF54CF44A0F5FF22C0747419AE
:10017000C0E0C082C08375744CE5FF54CF44B0F535
:10018000FF2290800021169098032116909FFD2158
:100190001690A000211690A80121169088552116CE
:1001A00090852F211690AFED211690AFF821169073
:1001B000963321169097CC211690B018211690BF37
:1001C000F6211690BFF7211690C827211690A5E3B7
:1001D000211690CA5D211690CA75211690CA7B21FE
:1001E0001690CBFF211690D0D7211690B93D21163D
:1001F00090D38B211690D3A0211690D3B2211690C4
:10020000D4DC211690D575211690AB64211690A9E7
:1002100068211690A97F211690A8CC211690D2AA09
:10022000211690CF79211690CF50211690CF7721AB
:100230001690D663211690CB97211690AA3D2116D1
:1002400090A9B1211690D699211690AA82211690D4
:10025000A87C211690A81F211690AACE211690D90D
:10026000B0211690ACBC211690DA54211690CDDF47
:10027000211690D4D5211690D471211690D48521C1
:100280001690C15F211690CD55211690DBA3211643
:1002900090DD77211690DFEA211690DE4621169038
:1002A000C43D2116908046211690E001211690E071
:1002B00068211690823B21169086DB211690888B50
:1002C0002116908536211690E280211690E2AD210C
:1002D0001690E2C4211690E2D1211690DFCC2116AF
:1002E00090C6C92116908B7A212C90AC49212C9074
:1002F000BC3B212C90C753212C90CABB212C90D001
:100300006C212C90B563212C90B576212C90D68A47
:10031000212C909624212C90D7B6212C90D95D21A8
:100320002C90ADE9212C90E144212C90E17E212CF0
:10033000909A1E212C9083C2212C908A26212C90E9
:100340008000212C90A3AC212C90E092212C90E1F4
:10035000F8212C90E20E212C90E22A212C90D94FEA
:10036000212C90DBF9212C909E80212C90E28D2174
:100370002C90E2AC212C909645212C90A8C6212CE3
:1003800090DCC4212C90E2D3212C90E301212C900D
:10039000DB3A212C90D911212C90DD66212C90E3A1
:1003A00023212C90DA66212C90987F212C90D9DA89
:1003B000212C90E33D212C90E352212C90D8272131
:1003C0002C90E351212C90C8B1212C90DA48212C9B
:1003D00090BEA2212C90DA57212C9096DE212C90F1
:1003E000E36D212C90D87C212C90A3A1212C90C0CE
:1003F0004D212C90D887212C90E3B4212C90E3D56B
:10040000212C90E3FA212C90E407212C90C1272184
:100410002C90E533212C90E539212C90A29E212CA3
:1004200090A857212C90D328212C90AE4F212C90AE
:10043000E79D212C908E0E212C90E7D2212C90E765
:10044000D8212C90A650212C90A92C212C90E7F19A
:10045000212C90D0E2212C90E844212C90E84521D9
:100460002C908AF1212C90A0F5212C90E846212C8B
:1004700090A240212C90E88C212C90E8CE212C9049
:10048000E904212C90E938212C90EC6F212C9081EB
:1004900041212C90C838212C90ECF9212C90ED00B2
:1004A000212C90ED09212C90D488212C90D4D1219D
:1004B0002C90D388212C90D3E9212C90B699212C13
:1004C00090B34F212C9083E9212C9083EF212C9025
:1004D0008508212C90DD46212C90EDD4212C90DC38
:1004E00013212C90DC8C212C90DCE7212C90DBA8B4
:1004F000212C90DD0B212C90D8C7212C908AA5218E
:100500002C90DC62212C90869921429088432142D4
:100510009093102142908CBA214290818A2142907E
:100520009445214290948E21429094BE2142908F16
:100530008021429094EC214290868621429094FC46
:100540002142908EB42142908B812142908B6C216C
:100550004290868E2142909580214290959621422C
:10056000908D53214290881F2142908D16214290F8
:10057000961B21429087E12142908DF32142909673
:1005800042214290828721429086AE21429088E4A7
:1005900021429089002142908917214290800021B8
:1005A00042908FD621429088C921429086F2214202
:1005B000908DB1214290892E214290832321429037
:1005C000846D21429095C62142000220E8E86480B3
:1005D000F8E933E83360110460F0ED33EC3370096F
:1005E000E8FCE9FDEAFEEBFF220460DED3EB9FEAC4
:1005F0009EE99DE8C2E78CF0C2F795F0400CE8CC8C
:10060000F8E9CDF9EACEFAEBCFFB1220B385D0F0B2
:100610005804700320D5B3E80470075002B2D50225
:1006200020F292D5EC0460F7E4CCC0E0C398F86007
:100630003B94186008400DD0E0FB0220CAE4FBFAAE
:10064000C9FC8028E830E406E4C9FBE4CAFCE830D1
:10065000E305E4C9CACBFCE854076010F8C3E9130A
:10066000F9EA13FAEB13FBEC13FCD8F130F52FC3C6
:10067000E49CFCEF9BFFEE9AFEED99FDD0E0FBEFD2
:100680004E4D4C701222DB030220EFEC2CFCEF33BA
:10069000FFEE33FEED33FDED30E7EB0220CAEF2B2A
:1006A000FFEE3AFEED39FDD0E0FB50130BBB00032B
:1006B0000220F2ED13FDEE13FEEF13FFEC13FC022C
:1006C00020CAEC4D6011E8497017ED33EC3304603B
:1006D0000DE4FCFFFEFD22E933E8330470F802204C
:1006E000E81220B358046009E4CC24815006285055
:1006F000090220F22840030220EFC0E0EB4A7044D8
:10070000B98006D0E0FB0220DEEF4E701CBD8008F1
:10071000EBFFEAFEE9FD80EBE98DF0A4FEE5F002D7
:100720001F81E9CDF9EAFEEBFFEF89F0A4FCE5F0CB
:10073000CE89F0A42EFFE435F0CD89F0A42DFEE49F
:1007400035F08067EF4E7005BD80D780C3EF8BF02A
:10075000A4ACF0EE8BF0A42CFCE435F0F8EF8AF0BA
:10076000A42CE5F038FCE433CB8DF0A42CFCE5F0B0
:100770003BF8EE8AF0A42CFCE5F038F8E433CF899E
:10078000F0A42CFCE5F038CF3400CE89F0A42FFF84
:10079000E5F03EFEE433C98DF0A42EFEE5F039CD40
:1007A0008AF0A42FFFE5F03EFEE43DFD33D0E0FBF0
:1007B00050070BBB000F0220F2EC2CFCEF33FFEED6
:1007C00033FEED33FD0220CA0220F2EC5D04600529
:1007D000E8590470030220E81220B3580460F6ECD4
:1007E0004860F2EC7004FDFEFF22C860DB2481C883
:1007F0005009C398600250060220EF9850CAF58253
:10080000E9294B4A7005AB820220DE75F0007C1AA4
:100810007880C3EF9BEE9AED99400DC3EF9BFFEEFE
:100820009AFEED99FDE842F0DC23ACF0D0E0FFD079
:10083000E0FED0E0FDAB8220E7101BEB60BAEC2CB1
:10084000FCEF33FFEE33FEED33FD0220CAE803F880
:1008500030E705C0F075F000EF2FFFEE33FEED330B
:10086000FD40B830E7C280AA75F020800E75F01008
:10087000800575F0087D007E007F003392D530D56D
:1008800003122525EC334010EF33FFEE33FEED333A
:10089000FDEC33FCD5F0ED22E5F0247EA2D513CC9F
:1008A00092E7CDCEFF22EDD2E7CD33EC3392D524C3
:1008B000814006E4FFFEFDFC22FCE4CFCECDCC243B
:1008C000E0501174FF80EDC3CC13CCCD13CDCE130B
:1008D000CECF13CF0470F030D5DE022525E9D2E764
:1008E000C933E833F892D5EDD2E7CD33EC33FC5081
:1008F00002B2D522EC30E7100FBF000C0EBE00088C
:100900000DBD00040BEB6014A2D5EB13FCED92E7D8
:10091000FD2274FFFCFDFEFF22E480F8A2D574FFE7
:1009200013FC7D80E480EFE709F608DFFA8046E7F4
:1009300009F208DFFA803E88828C83E709F0A3DFA2
:10094000FA8032E309F608DFFA8078E309F208DF7B
:10095000FA807088828C83E309F0A3DFFA806489CF
:10096000828A83E0A3F608DFFA805889828A83E0CE
:10097000A3F208DFFA804C80D280FA80C680D4804F
:100980006980F28033801080A680EA809A80A880F7
:10099000DA80E280CA803389828A83ECFAE493A306
:1009A000C8C582C8CCC583CCF0A3C8C582C8CCC595
:1009B00083CCDFE9DEE7800D89828A83E493A3F6A6
:1009C00008DFF9ECFAA9F0EDFB2289828A83ECFAC0
:1009D000E0A3C8C582C8CCC583CCF0A3C8C582C873
:1009E000CCC583CCDFEADEE880DB89828A83E493AE
:1009F000A3F208DFF980CC88F0EF60010E4E60C3EF
:100A000088F0ED2402B4040050B9F582EB2402B45E
:100A1000040050AF232345822390214D73C2D5306B
:100A2000F707B2D563F0FF05F030E70CB2D5F40458
:100A30008463F0FF05F080018430D502F40422BB0A
:100A4000010689828A83E0225002E722BBFE02E38C
:100A50002289828A83E49322BB010CE58229F582F4
:100A6000E5833AF583E0225006E92582F8E622BBC9
:100A7000FE06E92582F8E222E58229F582E5833A3D
:100A8000F583E49322BB010989828A83F8E028F088
:100A900022500327F722BBFE05F8E328F3228A83BE
:100AA0008982F8E4932822BB010689828A83F02296
:100AB0005002F722BBFE01F322F8BB010DE58229AB
:100AC000F582E5833AF583E8F0225006E92582C8ED
:100AD000F622BBFE05E92582C8F222EF8DF0A4A81C
:100AE000F0CF8CF0A428CE8DF0A42EFE22BC000BFB
:100AF000BE0029EF8DF084FFADF022E4CCF875F054
:100B000008EF2FFFEE33FEEC33FCEE9DEC98400532
:100B1000FCEE9DFE0FD5F0E9E4CEFD22EDF8F5F0F8
:100B2000EE8420D21CFEADF075F008EF2FFFED3300
:100B3000FD4007985006D5F0F222C398FD0FD5F07E
:100B4000EA22C5F0F8A3E028F0C5F0F8E5821582A6
:100B500070021583E038F022A3F8E0C5F025F0F02C
:100B6000E582158270021583E0C838F0E822BB01E7
:100B70000A89828A83E0F5F0A3E022500687F00913
:100B8000E71922BBFE07E3F5F009E3192289828AFF
:100B900083E493F5F074019322BB0110E58229F5FB
:100BA00082E5833AF583E0F5F0A3E0225009E925D8
:100BB00082F886F008E622BBFE0AE92582F8E2F513
:100BC000F008E222E5832AF583E993F5F0A3E9939F
:100BD00022BB010A89828A83F0E5F0A3F022500645
:100BE000F709A7F01922BBFE06F3E5F009F3192275
:100BF000EF2BFFEE3AFEED39FDEC38FC22C3EF9B04
:100C0000FFEE9AFEED99FDEC98FC22E88FF0A4CC63
:100C10008BF0A42CFCE98EF0A42CFC8AF0EDA42C23
:100C2000FCEA8EF0A4CDA8F08BF0A42DCC3825F0F2
:100C3000FDE98FF0A42CCD35F0FCEB8EF0A4FEA9DD
:100C4000F0EB8FF0A4CFC5F02ECD39FEE43CFCEAEA
:100C5000A42DCE35F0FDE43CFC2275F00875820031
:100C6000EF2FFFEE33FECD33CDCC33CCC58233C571
:100C7000829BED9AEC99E58298400CF582EE9BFE02
:100C8000ED9AFDEC99FC0FD5F0D6E4CEFBE4CDFA5D
:100C9000E4CCF9A88222B800C1B90059BA002DEC01
:100CA0008BF084CFCECDFCE5F0CBF97818EF2FFF99
:100CB000EE33FEED33FDEC33FCEB33FB10D7039941
:100CC0004004EB99FB0FD8E5E4F9FA227818EF2FEE
:100CD000FFEE33FEED33FDEC33FCC933C910D7050D
:100CE0009BE99A4007EC9BFCE99AF90FD8E0E4C92C
:100CF000FAE4CCFB2275F010EF2FFFEE33FEED335C
:100D0000FDCC33CCC833C810D7079BEC9AE8994088
:100D10000AED9BFDEC9AFCE899F80FD5F0DAE4CDEA
:100D2000FBE4CCFAE4C8F922EF5BFFEE5AFEED5982
:100D3000FDEC58FC22EF4BFFEE4AFEED49FDEC487E
:100D4000FC22CFF4CFCEF4CECDF4CDCCF4CC22C364
:100D5000E49FFFE49EFEE49DFDE49CFC22EB9FF5F6
:100D6000F0EA9E42F0E99D42F0E89C45F022E860FE
:100D70000FECC313FCED13FDEE13FEEF13FFD8F1E0
:100D800022E8600FEFC333FFEE33FEED33FDEC33AB
:100D9000FCD8F122BB010DE58229F582E5833AF505
:100DA000830225B45007E92582F8022981BBFE079A
:100DB000E92582F802298DE58229F582E5833AF555
:100DC000830225C0BB010789828A83022641500520
:100DD000E9F80229C3BBFE05E9F80229CF22E0FCAD
:100DE000A3E0FDA3E0FEA3E0FF22E493FC740193E3
:100DF000FD740293FE740393FF22E0F8A3E0F9A3CD
:100E0000E0FAA3E0FB22BB010DE58229F582E58330
:100E10003AF5830225D05007E92582F8022999BBCB
:100E2000FE07E92582F80229A6E58229F582E583F5
:100E30003AF5830229B37401FF3395E0FEFDFCA36C
:100E4000A3A3E0CF2FF0E582158270021583E0CED8
:100E50003EF0E582158270021583E0CD3DF0E5821B
:100E6000158270021583E0CC3CF022ECF0A3EDF08B
:100E7000A3EEF0A3EFF022A8828583F0D083D08286
:100E8000122664122664122664122664E473E49324
:100E9000A3C583C5F0C583C8C582C8F0A3C583C5F3
:100EA000F0C583C8C582C822A42582F582E5F03545
:100EB00083F58322E0FBA3E0FAA3E0F922F8E0FB4C
:100EC000A3A3E0F925F0F0E582158270021583E016
:100ED000FA38F022EBF0A3EAF0A3E9F022BB010715
:100EE00089828A8302268A5005E9F80229DBBBFE43
:100EF00005E9F80229ED89828A830229FFBB011ADC
:100F000089828A83D0F0D0E0F8D0E0F9D0E0FAD03E
:100F1000E0FBE8C0E0C0F00226AA5016E9F8D08352
:100F2000D082D0E0F9D0E0FAD0E0FBC082C08302EA
:100F300029E4BBFE16E9F8D083D082D0E0F9D0E0F6
:100F4000FAD0E0FBC082C0830229F622BB010DE586
:100F50008229F582E5833AF58302268A5007E9253E
:100F600082F80229DBBBFE07E92582F80229EDE5BC
:100F70008229F582E5833AF5830229FFD083D08266
:100F8000F8E4937012740193700DA3A393F87401A5
:100F900093F5828883E4737402936860EFA3A3A33C
:100FA00080DF8A838982E473EC8EF0A4CCC5F0CC18
:100FB000CDF8EFA4CEC5F02DFDE43CFCE8A42EC88E
:100FC000C5F03DFDE43CFCEFA4FFE5F028FEE43D68
:100FD000FDE43CFC22E3F5F009E208B5F06BDFF537
:100FE0008067E3F5F009E608B5F05EDFF5805A8723
:100FF000F009E608B5F052DFF6804E87F009E20806
:10100000B5F046DFF6804288828C8387F009E0A342
:10101000B5F036DFF6803288828C8387F009E4935E
:10102000A3B5F025DFF5802188828C83E3F5F009F4
:10103000E0A3B5F014DFF5801088828C83E3F5F02F
:1010400009E493A3B5F002DFF40228DA808780E98F
:10105000809080D4803E8015806E807E809D80B799
:10106000808D80A380518074803C0228E689828A2A
:1010700083ECFAE493F5F0A3C8C582C8CCC583CC51
:10108000E493A3C8C582C8CCC583CCB5F076DFE3B2
:10109000DEE1807089828A83E493F5F0A3E208B5EB
:1010A000F062DFF4805E89828A83E0F5F0A3E608CF
:1010B000B5F051DFF5804D89828A83E0F5F0A3E237
:1010C00008B5F040DFF5803C89828A83E493F5F02F
:1010D000A3E608B5F02EDFF4802A800280578982CB
:1010E0008A83ECFAE493F5F0A3C8C582C8CCC58323
:1010F000CCE0A3C8C582C8CCC583CCB5F006DFE47C
:10110000DEE280007FFFB5F0020F2240027F012265
:1011100089828A83ECFAE0F5F0A3C8C582C8CCC501
:1011200083CCE0A3C8C582C8CCC583CCB5F0D5DFDD
:10113000E5DEE380CF89828A83ECFAE0F5F0A3C88C
:10114000C582C8CCC583CCE493A3C8C582C8CCC52E
:1011500083CCB5F0AFDFE4DEE280A988F0EF600178
:101160000E4E60ABED2402B404005098F582EB24DF
:1011700002B40400508E232345822390282273EF6B
:101180004E6012EF60010EEDBB010B89828A83F085
:10119000A3DFFCDEFA2289F05007F709DFFCA9F093
:1011A00022BBFEFCF309DFFCA9F022E6FC08E6FD09
:1011B00008E6FE08E6FF22E2FC08E2FD08E2FE087F
:1011C000E2FF22E6FB08E6F908E6FA08E6CBF82299
:1011D000E2FB08E2F908E2FA08E2CBF822E493F82D
:1011E000740193F9740293FA740393FB22ECF608EA
:1011F000EDF608EEF608EFF622ECF208EDF208EE56
:10120000F208EFF222E6FB08E6FA08E6F922EBF62E
:1012100008EAF608E9F622E2FB08E2FA08E2F92217
:10122000EBF208EAF208E9F222E493FB740193FA84
:10123000740293F9224102B20041348E00C139C1D7
:101240002941041306013400410412014104110133
:10125000C11F013A000137004134360041343500E6
:101260004134380041343700C100C105C107C10114
:10127000016A00016D01016900016C00016B00C190
:1012800004C103C106C10241234100412340004182
:1012900022BF004321BC000000016800016500017D
:1012A0006600016700016400C122016300C121C121
:1012B00020C130C1114126EE00412754FF41274C87
:1012C00000C110C10F412755004127560041274D4D
:1012D00001C1134126ED00C125C11C014000C11907
:1012E000C11A4332570000004132560041325A00C1
:1012F000412A4200412A0100412A00004129DC0024
:101300004229BC00004129F9004129F8004129F790
:1013100000412EC800412EC700432ECC00000041E2
:101320002ECF00412ECB00412ECA00412EC50041D8
:101330002EC600412EC9004127E20041280C004181
:1013400027F3004128030A4127F700412802004102
:1013500027FA004128210041280E004127D20041F0
:1013600027ED0041281E004127FC0041280D0041C7
:1013700027E00041281700412822004127E10041D1
:1013800027E6004127DF004127C900412826004108
:1013900027F8004127CF01412808FE4128130041CA
:1013A00023580041235700C131C1B24223551ACA04
:1013B000412A430041304300413044FF413047005F
:1013C0004125D9004125720041254700412575007E
:1013D0004125E9004125DF004125E70041253B008B
:1013E000412506004425370000000044253C00004C
:1013F00000004424EB000000004125460041250781
:101400007D41250A0041260900C1144125C1004142
:101410002540004125C000C1184125420041254119
:1014200000412573004125E6004125FE00412503CA
:10143000004125FD004125FC0041254500412536A0
:10144000004125EB00412504004125090041256D9F
:10145000004124B7004125740042260100004125C7
:10146000D700412606004125CA0241253304412503
:1014700034004124E8024125D6FF4425C631855970
:101480005E4125C20C4226070000C1154225FA0024
:10149000984625E00043004300434624FD012A22EC
:1014A000A22A214125D5FF4924F24C6966656C6961
:1014B0006E65004925CC48756D6964697479004C86
:1014C00025ED54656D706572617475726500442C0C
:1014D0003900000000412AE200412AD500412ACB10
:1014E00000442AC5000001FF442AEA0000026C43C0
:1014F0002ABE000000412AD201412AE3034130C73D
:10150000004130CA004130C6004130CB004130C5F7
:1015100000C1594130CD004230C800004130C40004
:101520004130CC004132A2004132A30044329E003F
:10153000000000412EB500C135C136412EBD00412D
:101540002EB400412EB600412EBE00412EBF0041F8
:101550002EC000412EB200412EB300432EB7000032
:1015600014432EBA00645A412D3C00412D460041DF
:101570002D3D01412D3700412D4A00412D3A0141B9
:101580002D4500412D3F00412D4E01412D4D004183
:101590002D3801412D4B00452D300008102040E032
:1015A0000C02600000980043000200020A070405D4
:1015B00000902A0BE47E0193700122A3FF543F3078
:1015C000E509541FFEE493A360010ECF54E0B4E09C
:1015D0003AEFFAEEF9E493FBA3E493FEA3E493FF5E
:1015E000A3E493FDC083C082C001C002C006C0074F
:1015F000121976D007D006D002D001D082D083A3B2
:101600000FEF70010EDADAD9D880A954C025E06056
:10161000105005A3DFFD809CA3A3A3DFFDDEFB80AC
:1016200093A3A3DFFD808D75818C75FF03759E02EA
:1016300012192002411E0218C8902A0BE47E019361
:1016400060F4A3FF543F30E509541FFEE493A36008
:10165000010ECF54E0B4E00EEFFAEEF9A3A3A3A37A
:10166000DAFDD9FB80D654C025E0604B5026E493C8
:10167000A3F85407240CC8C333C4540F4420C883B0
:101680004004F456800146F6DFE480B0010204080D
:1016900010204080E493A3FAE493A3F8E493A3C852
:1016A000C582C8CAC583CAF0A3C8C582C8CAC583D3
:1016B000CADFE9DEE78085E493A3F8E493A340035F
:1016C000F68001F208DFF4022E120200000300008F
:1016D00000000000001100000E0000000F000000DC
:1016E00000000000000000000000000000000000FA
:1016F00000000000000000000000000000000000EA
:101700000C00001400001000001255AA16554613D4
:1017100000005399813F241E16110E0B0907050482
:10172000030201F0C8A7917767604638353230244C
:101730002220140001010202030304040505060629
:10174000070704645A2D5761766500000000000009
:101750000000000000000000000000000000000089
:101760000000000000000000FFFFFF0097010203DF
:101770000405060708090A0B0C0D0E0F10111213B1
:101780001415161718191A1B1C1D1E1F1AD4FFFF3B
:10179000FFFFFFFFFFFFFFFFFFFFFFFFFFFFFFFF59
:1017A0000119DF19E419E919EE19F319F81A021AE7
:1017B00011A9AB1C7D1C821C871C8C1C911C961CC7
:1017C000871C8C5A2D5761766520342E30350019D0
:1017D0009419A319A819AD19B219BCFFFFFFFFFF97
:1017E000FFFFFF000000001CEB1CF51CFA1CFF1D96
:1017F000311D451A701AAC902FDCE01227522FF0E1
:10180000042FF8142FFD1530021730123030173422
:10181000301C363021370000300A531CEF851C8005
:10182000802F531DEF8008531DDF8003531D7F85DC
:101830001D90801D531EDF851EA08015531FFE8046
:101840000D531FEF8008531FBF8003531F7F851F59
:10185000B07F0CDFFE22125676EF70FA902FDEE09A
:10186000F4600A90348B7406F0B18D70FC902FDC1C
:10187000E0122752306604306E143073153078173A
:10188000308830308D3430923630973700003080D9
:10189000431C10851C80802F431D108008431D2091
:1018A0008003431D80851D90801D431E20851EA042
:1018B0008015431F01800D431F108008431F408087
:1018C00003431F80851FB090348B740CF0B18D7072
:1018D000FC227F0131F990348C7401F090348CE05B
:1018E000600E314090348CEFF05401F0112C80ECFC
:1018F000122FCD7F9F3145902FDAEFF03147902F97
:10190000DEEFF03147902FDFEFF0112CE4FF21F9EB
:101910001225B47808122544E4E5C820E2FB8FEBD9
:10192000229032A912264151F231539032ADE06F2C
:10193000603651D65105EF600451C180F751E51171
:101940002C122FCD902FDBE0FF51B8600651F278BA
:101950001011EB9032A911E651F2E411EF9032AD83
:10196000E0FF11EF31F5D322C322122FCD7F0511F5
:10197000EF7FFF11EFE5C820E2FBAFEB229032A42E
:1019800012264151D65105EF600451C180F751AF85
:10199000600A9032A41225B4781011EB9032A41191
:1019A000E69032A41225B4E431459032A831F39088
:1019B00032A8E0FF229028DFE0FF9030DEE4F0A3C1
:1019C000EFF09028D81225B49030D71226419030ED
:1019D000DB1226AA51D65105EF600451C180F751A0
:1019E000AF600A9030D71225B4781011EB9030D741
:1019F00011E69030D71225B4E411EF9030DE126575
:101A00001D601431479030DB12584D9030DCE47586
:101A1000F00112231880E4112CE4FF8006EFF0118E
:101A20002CE4FFEFB4010443FE202253FEDF2230FA
:101A300037147F0131F9314090348D31F390348D7A
:101A4000E020E002C237A237E433FF229030CE120A
:101A500026419030D21226AA51D65105EF6004518A
:101A6000C180F751E5112C122FCD902FDBE0FF51F3
:101A7000B8600A9030CE1225B4781011EB9030CEB9
:101A800011E69030CE1225B4E480249030D5126552
:101A90001D60209030D212268AEA494B600F9030A8
:101AA000D2E475F0011226931222158001E4FF1191
:101AB000EF80D8112CE4FF21F951D65105EF6004D5
:101AC00051C180F751E5112C122FCD7F0111EF7F0D
:101AD0000311EF112CE4FF21F97F0131F9122FCD11
:101AE0007F0311EF902FDDE0640222E53530E20F35
:101AF000E53520E50AE53530E0057F0112458A220B
:101B000075FF02E5E430E10675E40675E403227F23
:101B10000131F9D237122FCD7F0601EF9032A902A1
:101B200025B475F002A42480F9740F35F07B02FE11
:101B3000AF01AD62AB05E4FCFD9032ADEBF001F717
:101B4000902FCF122641902FD31226AA9122902FA8
:101B5000D612410C902FCF1225B41240845002614E
:101B6000DC902FE1E024FFFF902FE0E034FFFEE463
:101B7000FCFD902FCF1225D01224FE902FD8EEF02E
:101B8000A3EFF04E60369128FFC3902FE1E09FFF56
:101B9000902FE0E09EFE902FD8F0A3EFF0902FD68C
:101BA0001265D35006A3ECF0A3EDF071DEE94A60B4
:101BB000059128FF80437E007F00803D902FD61244
:101BC00055D16040902FE0E0FCA3E0FDD3EF9DEE07
:101BD0009C400A902FD8ECF0A3EDF0800D902FD60A
:101BE000E0FFA3E0A3CFF0A3EFF071DEE94A6005C8
:101BF0009128FF80047E007F00902FD4EE8FF0129A
:101C0000231880B8D322C322902FD312268A902F74
:101C1000D8E0FFA3E09030D5CFF0A3EFF0902FCF26
:101C20001225B45122902FD8E0FEA3E0FFC3902FDD
:101C3000D7E09FF0902FD6E09EF0902FCF1225D0C6
:101C4000E4FCFD1223C6902FCF122641902FD30221
:101C5000268A902FD8E0FEA3E0227A2F79DC7F033A
:101C60001264E77A2F79E47F0812656E7A2F79E2A1
:101C70007F09B1867A2F79E07F0BB186902FE01231
:101C800055D16006BEFF1BBFFF18902FE4E024FD76
:101C90006003047004B1958009902FE0E4F0A37410
:101CA00040F0902FE4E024FD6003047008902FDDE5
:101CB0007403F08006902FDD7402F0902FDCE012A8
:101CC000275234B40434BF1434C71534CF1734E565
:101CD0003034ED3434F53634FD37000034DA75FF36
:101CE000015318EF8518FD804775FF015319EF80E8
:101CF0000E75FF015319DF800675FF0153197F85AB
:101D000019C9802C75FF01531ADF851ACA80217505
:101D1000FF01531BFE801675FF01531BEF800E75EC
:101D2000FF01531BBF800675FF01531B7F851BCB33
:101D3000112C7F11B18011A8902FDEE02480701447
:101D40007F10B180902FDB740AF0902FDD7403F0C8
:101D5000B1958006902FDB7402F0902FDFE0F470D5
:101D600047902FE2E0FEA3E0FF640A4E7006902F3A
:101D7000DF740AF0EF64104E7006902FDF7410F0DD
:101D8000EF64804E7006902FDF7411F0E4B5070AFF
:101D9000EEB40106902FDF7412F0E4B5070AEEB43A
:101DA0000206902FDF7413F0418FEF4420F5FE22DE
:101DB0007B017D020219D590348BE014F0E0229073
:101DC0002FE07401F0A3E4F02251D65105EF600436
:101DD00051C180F72275F002A42480F9740F35F008
:101DE0007B02FEAF01E4FCFD2153900000E0605453
:101DF000E014F0E4F570E570C3940C50EDD11BE0F5
:101E0000FEA3E04E603AD11B1254B445F07031D1BC
:101E10002BE0FF6008F46005D12BE014F0D12BE03B
:101E2000600FE570126490D148FFD11BEEF0A3EF74
:101E3000F0D13B4E6008D13BAA06F912277851C178
:101E4000057080B222E57075F007A42429F582E4BC
:101E50003428F58322E57075F007A4242FF582E479
:101E60003428F58322E57075F007A4242DF582E46B
:101E70003428F583E0FEA3E0221257E850111264E3
:101E80008FF583E4F0A3F0EFD11DE4F0A3F00EAFE3
:101E90000622D5630F126319D221902341F10790D6
:101EA0002341F022E56375F00584E5F0902341704D
:101EB00012F107902341F0531FEFF12F7E367F6818
:101EC000026589F107902341F07B017A2279C0AD48
:101ED0006890339D124E3FE4FFEFC39D5016903340
:101EE0009DF1BC8F82124106FE743F2F1262A8EE54
:101EF000F00F80E58D65E4F566F567E566C39565E9
:101F0000501B1262A4E0F56CE4F56AF56DE56C30E7
:101F1000E705431F208003531FDF851FB01260D8E1
:101F2000125B8AD205A20192001261750566AF05A7
:101F300022E0FFD14FE422903438E0FF6007D14F18
:101F4000E4903438F0903437F107903437F0C20120
:101F5000C205C200C207431F10851FB075FF0143B1
:101F60001B20431F20851FB0851BCB22E0FDD246DE
:101F700090332B124E3FA3EDF0126423EF64026006
:101F8000037F002212642150037F0022C202756386
:101F90001AC207E4FF90332EE0FEEFC39E5017F104
:101FA000B98F82124106FD74C02FF582E43422F508
:101FB00083EDF00F80DFA246B392018E689023403C
:101FC000E07019901844126601FB7DFFF1E990233F
:101FD00040EFF0BFFF06F107902340F0F1B9A3E016
:101FE000FDC1A790332BE0FBA3E0FAA3E0F922E1C7
:101FF0000DC205C200D207F12C902341E07013906E
:102000001846126601126589BFFF07F1C5D16875D0
:10201000631A229032B77402F09032B31249B67F3D
:10202000FFA3E0F9E9C3940C5027E912361DE0FC48
:10203000A3E04C7019AF019032B3E0FCA3E0FDA324
:10204000E0FBA3E09032B2F01128E904FF220980FE
:10205000D3229032AFECF0A3EDF0AA07AF03EF70FC
:10206000010FEF75F00AA4FFAEF0EA12649011734D
:10207000F0EA12361DEEF0A3EFF09032B2E0FFEA84
:1020800012362DEFF09032AFE0FEA3E0FFEA75F0DC
:1020900007A4242DF582E434281173F022F583EE91
:1020A000F0A3EF22902DB6122641E4F5FF75BB0593
:1020B00075BB8575FF0175D502203C05D1A0124C7A
:1020C0000275FF0143D520303C022145E4F5FF5362
:1020D0008EF7438E077D04E4F5FF8DBCF5FF43B119
:1020E00002E5B130E2FBE4F5FFAFDFEFFEACDEEC82
:1020F000FBEBFFED25E024B4F582E4342DF58312EB
:1021000064B3F5FFF5FF53B1FD0DEDB40CC9902D8F
:10211000B6317FFF7809122544A31264B3FDED2583
:10212000E024BEF582E4342DF583E0C313FAA3E086
:1021300013FB1264F8F583E0C313FEA3E0132BFF37
:10214000EE3AFE1264F81173F0ED240490120DF0D3
:10215000EDC394075019CFEDCF0DEF1264F912368D
:1021600048FFC3902DBBE09F902DBAE09E50AFE496
:10217000F5FF758EC8F5FF90120DE0F5BCE4F5FF94
:1021800075BB8075FF01F5D522E0FB25E025E02435
:1021900001F582E43412F583122641EB25E025E0B7
:1021A0002401F582E43412F583E0FCA3E0FDA3E012
:1021B000FEA3E0229018321225C0902D6E12264107
:1021C0009018361225C0902D7212264190183AE4CC
:1021D00093902D76F090183BE493902D77F0901823
:1021E0003CE493902D78F090183DE493902D79F095
:1021F000D23F90182E1225C0902D6A122641F186EA
:10220000902D7F12264D002DC6C0E4F5FFF5A49059
:10221000120EF0A3F0902D7A7402F075FF03902D4A
:102220007AE0FFF595EF14601314601C2402702708
:10223000902D6A317FF1D8902D768016902D6E31D9
:102240007FF1D8902D77800A902D72317FF1D89050
:102250002D78E0902D83F0125E10902D83E07005B4
:10226000126549805690120EE004F0902D7A1265A6
:1022700065902D7F317FFF902D7B1264BAC31225AC
:1022800033500A902D7B317FFFA3122641902D837E
:10229000E0FF125C91902D79E0FFA3E0FDA23F9258
:1022A0003D125DBEA3317F126619902D7AE0FF9139
:1022B000B1902D7AE03172FF124D9C1265F86002E8
:1022C00021F17402F075FF03902D7A126664701884
:1022D000FF7E04FDFC902D7F918C780112254490A7
:1022E0002D7A315FFF124D9C1265F870D8124FABFA
:1022F000400343F420A23F923E125CF0902D7F31C8
:102300007F2420FFEE344E91A9E4FB7A04F9F89182
:10231000977801122544C23C126527124E48D322F9
:10232000902CF1122641902D0112659CF18675FFCB
:1023300002E5E630E00E902D027401F0FB7A2D7973
:1023400002124D62902D0C12264D002DC6C0E4F5F0
:10235000FFF5A490120FF0902D037402F075FF03A7
:10236000902D03E0FFF595EF14601314601C240218
:102370007027902CF1317FF1DF902CFD8016902C8E
:10238000F5317FF1DF902CFE800A902CF9317FF13E
:10239000DF902CFFE0902D10F0125E10902D10E0D9
:1023A0007005126549806690120EE004F0902D03CE
:1023B000126565902D02E0701C902D0C317FFF900E
:1023C0002D081264BAC3122533500A902D08317FAC
:1023D000FFA3122641902D10E0FF125C91902D007A
:1023E000E0FF902D03E0FDA240923D125DBE902DD6
:1023F00002E0700F902D08317F126619902D03E0D6
:10240000FF91B1902D03E03172FF124D9C1265EFE8
:1024100060026133902D02E07047A37402F075FFF3
:1024200003902D031266647013902D0C9187780130
:10243000122544902D03315FFF124D9C1265EF7001
:10244000DD902D0C317F2420FFEE344E91A9E4FB6A
:102450007A04F9F891977801122544902D041226F8
:1024600041124FAB400343F420A240923E125CF075
:10247000902D02E024FF923C902D04317FFF1265E5
:1024800027124F91E59B30E7FB124BFCD193124E84
:1024900048D1A77B017A2D7901124DD890120EE018
:1024A000B40102F1F3902D01E0B40103D38001C324
:1024B00022FF7E04FDFCE0F8A3E0F9A3E0FAA3E02C
:1024C000FB1223E1E47B7DFAF9F812246CEF24017E
:1024D000FFE43EFEE43DFDE43CFC229032B8EFF028
:1024E000E4A3918778011225449032B8E0FB12648E
:1024F000CFF583122641901210E0FF64806074EFE4
:10250000C3947F503BEB1264CFF583C083C082310C
:102510007FFFEEC0E0EFC0E0901210E075F004A481
:10252000AEF0FBCAEECAEA3395E0F9F8D0E0FFD08E
:10253000E0FEC3EF9BFFEE9AFEED99FDEC98802B39
:102540009032B8E01264CFF583C083C0821264BABF
:10255000901210E0F40475F004A4FFAEF01265953B
:10256000EB2FFFEA3EFEE93DFDE83CFCD082D08344
:1025700012264122902FE5124E3F902FEB12264D4E
:1025800000000001902FEF7401F0F5FFE5D554C075
:1025900070051247D15002C322E4F5FF53967F75B0
:1025A000FF0175D504D1A075FF0143D508E4F5FFFF
:1025B0005394FBF5FF53847FF5FF7598FF902FE947
:1025C000E5F4F075F49C75FF01A3E5E4F075E425EE
:1025D0007B017A2F79EF124D62902FEFE06401605A
:1025E00002C171F5FF902FE87414F0902FEB317F4A
:1025F000FF7801122557902FEB122641E5A730E115
:10260000FB43A702902FEB317FFFE5A730E005E405
:102610007B018002E4FBFAF9F8EF4BFFEE4AFEED96
:1026200049FDEC48FC902FEB122641902FE8E01476
:10263000F070B8902FEB317FFF78101225447B6D3E
:102640007A4E79C678411223E1EF2439FFEE343017
:1026500091A9E4FBFA7901F812246CEE547FFEE4B0
:10266000FDFC125FA2902FEB317FFFEB6FFFEA6E54
:10267000FEE8CDEFCDCCEECCECFF902FE51237BCD1
:10268000EF12227D902FE51237BCED12401190120F
:102690000FE030E606E4F5FF75968075FF01E4F57E
:1026A000D5902FE9E0F5F475FF01A3E0F5E4125CA5
:1026B000DF902FEFE0B40103D38001C3227FC87EF7
:1026C00000D1B075FF03439180227F3FFED1B0D18E
:1026D0009975FF03E59120E7FB2275FF03D3EF9483
:1026E00002EE9400400874FE2FFF74FF3EFEEFF5EB
:1026F00092EE540FF59122C22BE490339AF0C22C43
:10270000A3F0A3F075FF01E5D520E702C322C24381
:102710001259E6202B02E17653F4DF90339AE0FF62
:10272000124748F1F3302C0543F440800353F4BFC3
:10273000E4F5FF53F5F090339B12651642F5EBF587
:10274000F6D2431259E6D193E4F5FFE59320E6046F
:10275000F1E640F4302C57E5F430E3047D28801096
:10276000E5F430E2047D288007E5F430E1027D28BD
:10277000F1CA7F28D195F1E640FC7F78D195F1E64A
:10278000502CF1D150F8124F6AEFC39D50F0F1D1A7
:1027900050ECE5F720E5E7C2431259E6F1CA80DEC6
:1027A00053F4BF124FB1400643F420124E30D322EF
:1027B00075FF0243E180F1AD1265DD53DB7F75FFEC
:1027C0000175D5027F14D195D1A71265DD43DB8059
:1027D00075FF01E4F5D522E5FA30E1FB75FC807563
:1027E000FF0153D5EFE4F5FC75FC40F1CAE5FC2090
:1027F000E6FBD32275FF03E4F5912275FF01E5E4C2
:102800003322FF902D7B022641FF902D08022641A6
:1028100075FF03E591C330E701D32280BA75FF014C
:1028200043D81022902FDAE012227D902FDEE011A3
:1028300011902FDFE090000202228F90000102220F
:102840008FFEAF017B007A0079829032317404F000
:1028500090322E1145C00790322E12268A903231C6
:10286000E0FF9030DEE4F0A3EFF0D00702319E12DB
:1028700026AAE4FCFD2290319B1145C00790319BB4
:1028800012268A90319E1163D007023316E0FFA30F
:10289000E0902FD6CFF0A3EFF0229031A21145C0E7
:1028A000079031A212268A9031A5310CD007902CC6
:1028B000A6122641902CAA1226AAE4902CCDF0D381
:1028C000902CAEE0941E902CADE094004001227B51
:1028D000017A2C79AF902CADE0FFA3E0CF11FB90F3
:1028E0002CA61225B412319E902CAA12268AE94AEF
:1028F0006008902CCD3103FF80027F00902CCDE04A
:1029000024AFF582E4342CF583E06F6002C322909B
:102910002CCDE004FFF0D3902CAEE09F902CADE0E6
:10292000940050C4229030DEF0A3EFF022E0F58254
:1029300075830002222EE0FFA3E0902CADCFF0A320
:10294000EFF022E4FF0231F975FF0275E404E4F5CB
:10295000E4C21E75FF02901215E0603CE5E65403E8
:1029600064017034121A4812598A4020901222E0F1
:10297000600DE014F07008121892E4901215F090B7
:102980001215E0700221E412497021E4121892D26B
:102990001EE4901215F08076121892125BD4900209
:1029A000B3EFF0901200E0B47A14901214E0B49CEB
:1029B0000D9002B3E0FF64056004EFB4032EE490D1
:1029C00002BCF09002BCE0FFC394405013E42FF52A
:1029D00082E43412F583E4F09002BCE004F080E37A
:1029E000901200747AF0901214749CF01219DA7A32
:1029F0001279107F0112656E7B017A1279117D01C7
:102A00007F211219D57A1279127F221264E7121AE5
:102A10004D125BD41256359002B3EFF01219D0125A
:102A200055F09002B3E0FFB40602800C301E047F24
:102A30000280059002B3E0FF121C14EF24FFB39252
:102A40003975FF0253E6BF9002B3E064016005E40C
:102A5000901215F0125682121A5212482390121533
:102A6000E0700F20390C121C197B017A277958125B
:102A70001A0790121DE030E0028003301E047F012F
:102A8000B18AD2AF20390241EE1255D81235C012A8
:102A90001C3230303143FA08AF72126010E4F5FF97
:102AA00053B1FDF5FF43B102E5B130E2FBE4F5FFC0
:102AB000E5B120E3D443FC047F017E0012556B1284
:102AC000556040C580F99002B2E06026E53470FCA4
:102AD000E53520E502D126121962EF70FAB161B432
:102AE0000204E4FF80099002B2E0B403057F011202
:102AF000498D71A7E53530E190B1714002E4F0E510
:102B00003520E50671957D01B1A0F1C0719F90025D
:102B1000B5E0FD1219C1415F124FF61248AA5002EA
:102B2000D1919002B2E060429026EEE0703CE53434
:102B300070FCE53520E50990121DE020E002D12669
:102B4000121962EF70FAB161B40203E480189002C6
:102B5000B2E0B403047F01800E9002B2E0B4050A33
:102B60009012157401F0FF12498D1255D81235C01C
:102B7000121C379002B0E0700471A7801512503219
:102B8000FF9002B0E0FEC3EF9EC394064002E4F063
:102B9000D2AD121812E53530E11DB1714002E4F0FA
:102BA000E53520E50671957D01B1A0F1C0719F90DA
:102BB00002B5E0FD1219C1121A391255C041EE904A
:102BC00002B4E075F0AA9002BD12267EAF82AE83F9
:102BD00022E4900448125ABA75F0E5E571B15BE061
:102BE00054F064407002A114E4FE75F0E5EEB15BB0
:102BF000E0FDB40109900449EEF0E4FF8023EDB458
:102C0000020B900449E0B4FF04EEF0800F75F0E58C
:102C1000EEB15BE054F0FDBD80027F010EEEB40327
:102C2000C9EF600690044974FFF0900449E0F47025
:102C300002A1141258545002A114E53530E102A14A
:102C400014900449E0900004F1A530E40E75F0E51D
:102C5000EF90000612267EE0549FF0900449E09029
:102C600000B8F1A5540FFEBE050E75F0E5EF90001B
:102C7000BC12267EE030E11A900449E0900003F196
:102C8000B720E52775F0E5EF9000BB12267EE0B493
:102C9000FF19900449E0F1AEC083C082E04401FF17
:102CA000A3E0D082D083CFF0A3EFF0900449E0FD01
:102CB000F1AEE0FEA3E0FFC006C007ED75F0E5A4AD
:102CC00024B3F9740035F0FA7B01C002C00190040E
:102CD00049E09000D9F1B790042AF0EF75F0E5A42F
:102CE0002409F9740035F0FAA31226AA900449E0E9
:102CF000FF75F0E59000B212267EE090042EF0758C
:102D0000F0E5EF9000DA12267EE090042FF0E4A3C5
:102D1000F0D001D002D007D0061251BD502090044F
:102D200049E0F57175F0E5B15BE04440F09004488E
:102D30007401F090200EF0E53530E202D322E53543
:102D400030E2377F04B16875F0E5E571B15BE0FF13
:102D500054F06440702075F0E5E571B15BEF540FFD
:102D6000F075F0E5E571B15BE04480F0E571125A71
:102D7000AB12199980047F01B18A900448E024FFC6
:102D80002275F0E5EF90000102267E31199002B223
:102D9000E022C2AFEFF45235D2AF227F02B1689089
:102DA00002B4E09002BCF09002B404F0C39402229A
:102DB000EFF07F01EF60087195E4FDB1A08008F1AC
:102DC0003DD126E433FF227F0122900431EEF0A3AF
:102DD000EFF0E5347079F1C95004C242D14D90044E
:102DE00031E0FEA3E08E31F532AE31AF327DAA1272
:102DF000551BE4F5FF75D901F530E53554216038F0
:102E0000E53530E504E4FFF148E4900433F0900444
:102E100033E004F0124C25900434EFF030E307D196
:102E2000FD5003123FF1900434E06004D1FD40DE18
:102E30007F02121C0F5335DE900411E07F00B403B3
:102E4000027F01F186D242D14DD2EBA21D92ED223A
:102E5000E5347021F1C95004C242D14D125A07F134
:102E600099E5D120E0FB4335205335FEE4F530A24F
:102E70001D92EDD322C32290348FE5F4F0E0547F0D
:102E8000F5F47F827E00F109123FE65005E5FC2053
:102E9000E6F630420890348FE04480F5F4F10512F4
:102EA0003FE65005E5FC20E6F675FF01E5D520E795
:102EB00002C322E5F4D330E601C322E4FFB18AEF76
:102EC00060437B017A0279B6D1DC9002B6E0C3940C
:102ED000C040EF7B017A0279B8D1DC1248865FFFEF
:102EE000A3E05FFFA3E05FF460E990121DE030E033
:102EF000047F01B18AE490121CF07B017A0279B65A
:102F0000E0FD12196C2290043E1226AAC23AE4FF98
:102F1000B18ABF010B90043E12268A123D4A923AB2
:102F20007F01B18AA23A22900433E0C39410227F39
:102F3000E87E03F10E023E999033171264AA7A33A9
:102F40007919124AFD5014903319E0FEA3E0FF9066
:102F50003318E09F903317E09E400B903317E0FE4C
:102F6000A3E0FF123EB022125AD5EF700471A78081
:102F7000F62275FF01E5D530E602C322E4F5FF43F2
:102F80009A80EF126566E4F5FF539A7FD322F1959C
:102F9000E5D120E0FBE4F5FF75D901900411E07F55
:102FA00000B403027F01F186D242D14DE4F5302214
:102FB000F14843FA04E4F5FF53D1FD43D10122C2A5
:102FC00042D14DE4F5FFE5D154FE4402F5D122FF94
:102FD00075F0E512267EE02275F0E59000050226E8
:102FE0007EFF75F0E512267EE0229002BCE075F0CF
:102FF000AAA322C2EBA2ED921DC2EDE5F4C330E715
:1030000001D322E53520E507F195E5D120E0FBE489
:10301000F53022E4F97D0CAC0109EC902F9993FC7A
:103020000FEFAA0670010E14F5828A83ECF0DDE73B
:103030007F03228F828E83E4F0A37404111B04119A
:103040001BA3E4F022F08F828E83A3A322123430DC
:10305000119A1219C611809002B3E064017F0060DA
:10306000027F01121A20121A2512199E118E7A025D
:1030700079B61219671186FE4FFDA3E0FC4DFDA342
:10308000E0FB4D600BEE5FFFEC5FFFEB5FF4700366
:1030900012469190121CE0FF540324B6F582E434EA
:1030A00002F583E06F9002B1F022E4F56FC22A22AC
:1030B0009002B6E0FFA3E0227B017A12791C9032E5
:1030C0003B0226AAE4FF124557E4F00FEFB403F6E3
:1030D000E4F5712290121CE0701011864FFFA3E0FE
:1030E0004FFFA3E04F7003D38001C32275FF027529
:1030F000E40475E40175E4022275FF0275E404E45A
:10310000F5E42290043531B990121DE05430600688
:1031100031B35002C322900435E0B4040BA331351F
:103120009004357403F08025900435E06405701830
:1031300090121DE090043630E50631357F1F800483
:10314000313DE4FF31AB8005900436313D900435CC
:10315000E09002B2F0900437E0901222F0D322E027
:10316000FB7D017F018006E0FB7D01E4FFEB600851
:1031700075FF0153CDFD800675FF0143CD02ED6063
:103180000553FBDF800343FB20EF600775FF02431D
:10319000E1402275FF0253E1BF2290121DE07B0245
:1031A0007D0130E5087F0131437F1F8006E4FF3158
:1031B00043E4FF31AB7F0143FB1075FF0243E64060
:1031C000EF600D75FF02E5E120E7FB43FB0D800397
:1031D00043FB0E80FE75FF028FE32280F8A21E22C1
:1031E000EEF0A3EFF0A3EDF0A3EBF0229031B531B8
:1031F000B99031BB7401F0C241124705123FE6504D
:1032000005E5FC20E6F651D1BF0108E4F5FC75FCAC
:1032100040800751D1BF0202D322D1309031B6E0B5
:10322000FF125FDB75FF0153D5DF53FAFB9031B519
:10323000E0FF1247489031B6E09031B5B4080BE09A
:103240001239722452123CA68005E0123972FFB185
:103250009C9031B7E0FFF14B75FF0175FF03759B43
:103260000412470575FC42E5FC20E105123FE640EB
:10327000F39031B8E0F075FF03E59B20E705123FBE
:10328000E640F3E59B20E70D75FF03759B1F123F9A
:10329000ADD241804B51CAB1629031B6E0FD90127F
:1032A0000FE05D701C9031B5E0FF51CA125E1D90B9
:1032B000120FE0FF9031B6E0FEEF4E90120FF0D10A
:1032C0004891027B017A3179B951FD500FC3903199
:1032D000BAE094209031B9E0940340E751CAB1D8E4
:1032E000123EA730410221C79031BBE0B40103D3A5
:1032F0008001C3227B017A3179BB227FFA123E958D
:10330000E5FC30E605123FE640F6E5FC30E6037FDB
:10331000032275FF01E5D530E6037F0222E5D57F64
:103320000030E7027F01227112AD94EF4DD1378F4B
:10333000F01223A7E591C330E701D32275FF03AF55
:1033400093EF75F010A4FF22CDEFCDCCEECC71122F
:10335000AB94EF4BD137CBEFCBFAE59130E71D7152
:1033600015A994E9F582EF4582FFEB2DF582EA3C41
:10337000F583C3EF9582E5F0958340DEE59120E784
:1033800009CEECCECFEDCF123EA322903327EFF043
:10339000A3D13F75FF0151D1EF64016002C322E563
:1033A000F430E602C3227FE87E03123EB0123E995B
:1033B00071E5400122C24212464D903327E0FF12D0
:1033C000474853F4DFD24212464D7F787E00711E8B
:1033D00075FF0153E4BFE5E430E7FBF1607F8A91BC
:1033E0001D30E6099033281237BCE4800B75FF01CD
:1033F0009033281237BCE5D912227D75FF0143E4D2
:1034000040F1B1400343F42071E5400122D322E5AD
:10341000F730E510E5F754C07005123FE640F012B2
:103420003FCAC322D322E4F5FF758EC8E4F5FF75C9
:10343000C2E17F1E911D30E707E4F5FF75C2A122AE
:10344000E4F5FF75C28122FE711E90120FE022E4A6
:1034500090331FF0A304F0E4903322F0E5F4540716
:1034600070037F012275FF0143E440E5FA30E1FB80
:1034700075FF01E5D530E7037F0022D130E5D53077
:10348000E62975FF01903321E5DAF0E4F5DA7B01F6
:10349000B1917F0070027F0290331FEFF075FF0142
:1034A000E5D630E3FB9033227401F0F191E59B30D7
:1034B000E7FB75FF0153E4F8E4FB75FF038B9512FE
:1034C0003971FFB19C0BEBB403F075FF0375958068
:1034D00071FC903322E070277FC8FE123EB0123E8E
:1034E000999033207401F0FBB19190331F7006E086
:1034F0004402FF8002E0FF90331FEFF0123EA77BF3
:10350000017A337920B1D8903320E090331F7006D0
:10351000E04404FF8002E0FF90331FEFF0B15A70E7
:103520004A75FF0153D5FEE04420F07F14123E950A
:10353000123EA7B15A702E75FF0153D5FB75FF01DE
:1035400043D5047F14123EA2B15A701275FF015385
:10355000E4B875FF0143E405E04408F080079033C8
:103560001FE04410F075FF0143D50190120EE0B446
:103570000103123FF375FF01903321E0F5DA903338
:103580001FE0FF2275FF01E5E4540722903397D135
:103590003F7F017C127D01E4FEED2EF582E43CF5D7
:1035A00083E02FFF0EEEB412F0901213E06F600A6A
:1035B0009033971237BCE412227D227A337920B1FE
:1035C00062903320E02290331B12264175FF019058
:1035D000331BA3E0FDA3A3E4FFFEE4FC7810122557
:1035E000448FE190331BA3A3E0FEA3E4FFE4FDFCC2
:1035F00078081225448FE290331BA3A3A3E0FF8F2A
:10360000E322C23B75FF03759B1F75FF0390120FEA
:10361000E0FF20E71BE59A540FC394024012EF44E9
:1036200080F0E4F5FF75C2A143FC0475FF03D23BB3
:10363000E5FC30E609E59A540FC3940540CCE5FC5F
:1036400030E611E412227D75FC80F5FC75FC40E546
:10365000FC20E6FB303B02D1482275FF0153D8EF36
:103660002224FBFFE5F034FF22EBF0A3EAF0A3E90C
:10367000F0229012137401F07E127F01E4FDEF2D11
:10368000F582E43EF583E0FC901213E02CF00DEDA2
:10369000B412EB22900439EFF0900412E024FD60A4
:1036A00011047007D1B07404F08012D1B07408F026
:1036B000800BE490043AF09004387402F07F011219
:1036C0001C0F90043AE0FF900438E0FDA3E0FBE417
:1036D0009031B8F031C250EAD32290043A7401F02C
:1036E000900438224335015335DFD1D2D16A4004EA
:1036F000E4F534225335FB124788D322EF30E3033D
:10370000AF3322AD3B201F04EE30E00BE537C3940E
:10371000F05020F11D8018E53A6006FDE4F53A808E
:1037200012E537C394F0500BE537540FFF6004F1F6
:103730000CAD07AF0522F19EFFC3940E40027F0D32
:10374000EF902EEB93FF22900413E0FDFFC3740E65
:10375000F159EFC4F8540FC868FFEEC454F048FEA6
:10376000E53754F0C39FEEF1D67F005002AF05223B
:1037700090121021B975FF018FDA229021BCC13F50
:10378000FFE0C39FFFE49400FE2275FF01E4F5EA29
:1037900075EAFF22F160AFD922E4FFE5F754C0607B
:1037A0000280F175FF01E5D530E30F123FD150F3F0
:1037B000F16AEF60EE123FD150E92275FF03759B6D
:1037C0000475FC4175FF0322E537C4540FFEEF90EA
:1037D0002F09932E2275FF0375958090120EE0D36A
:1037E000940122122215FF90042EE0FD90042AE09D
:1037F0002DFDE433FCED2401FDE43CFCD3EF9DEC16
:103800006480F8748098229002B1E064AA2411FFC9
:10381000F022AE07F1DDEE04FEEF8EF084AFF02271
:1038200030380C9026EEE07006FF121A2FC23811C5
:103830000A0219CB301E241134FF900422E0FEEF5F
:10384000C39E400AEF9ED394024010C21E229004F1
:1038500022E0F42FD394014002C21E22C2AD902870
:103860007DE0A3E022C0E0C0F0C083C082C0D0757C
:10387000D008C0FF124AD18F38E53864027052E593
:103880003424F8604224076002218F90042391B40D
:1038900045F07028AB3CAA3DA93E31B1AD36AF3FF3
:1038A000910AE4FB7D01FF717E75FF00911743FAD9
:1038B0000475FF0012478E753408218F43FA047592
:1038C000FF0012478E218FC2EB753400433504216F
:1038D0008FE53864016002218F91AD4002218FE5B0
:1038E00030702A853282853183E090044AF0E0FF0F
:1038F00064556004EFB4540AD21E1134900422F0CF
:10390000215E75300275FF0075D908218FE530649E
:1039100002705431A5E090044AF0B13C91EB900460
:1039200011EFF090044AE0FFD39409402590041170
:10393000E0D39402400CEFD394AA7F0040027F01B1
:10394000800D90044AE0D394407F0040027F01EF55
:103950006004319C803290044AE0FFF53675FF0028
:103960008FD97530038052E5306403704C319C75FB
:10397000FF00900411E0C39403E5D350055402FF07
:1039800080035401FFEF6005124764802CC242128D
:10399000464D75FF0012479CE5D120E0FBC2EB438A
:1039A0003502753000900411E0B40307153631A5D7
:1039B000E536F09002B5E536F0D0FFD0D0D082D019
:1039C00083D0F0D0E032301E05C21E123ECD22E57B
:1039D000322407F582E43531F58322E4F5FFE991DD
:1039E000CBEA540F42D62290042591C2C2EBE534B3
:1039F00060026165E53530E202C3221247D150050D
:103A0000C24212464D124799E5D120E0FBE4F53061
:103A1000C21E900426E05407C39403E4940050228D
:103A200090042EE0FF90042AE02FFFE433FED3EF52
:103A30009440EE648094804009433504A21D92EDC9
:103A4000D32290042B12268ACFE9CF8A318F32906D
:103A5000042EE0F536AE3191FF90042712268A8BB2
:103A60003C8A3D893E90042AE0F53F900425E0FC25
:103A7000A3E0FD5460603190042FE0FF71BA7170D3
:103A8000122215FB7A00900423E0FEA3E0FF7C00E5
:103A90007D171222B1EF2BFFEA3EFEEF2414FBE468
:103AA0003EFA7D027F01614D900425A3E05407900A
:103AB0000412F075340890042712268A31B190045C
:103AC0002AE0FFAD36910A900412E0640370277B70
:103AD00001FD716D124FB950077170740112225BB4
:103AE000E4F5FF911771701222152428FBE433FAD4
:103AF0007D03E4FF614D900412E064027024FB7DBD
:103B000001716D124FB94007717074FF12225B9101
:103B10002071701222152414FBE433FA7D027F0118
:103B20008055E4FB7D01716D124FB94007717074CF
:103B3000FF12225BE4F5FF71B244104E7F05600274
:103B40007F0AEF547FFFE5D254804FF5D2E4F5FFB2
:103B500043D2807170122215FD7C0071B244104E68
:103B60007E0060047F0A80027F0591BBFEEF2DFB83
:103B7000EE3CFA7D017F01912C71B2FF124EBA40EA
:103B800006A21D92EDC322A21D92EDD2EBD322A27A
:103B90001D92EDD2EBC322FF717E90042712268A7C
:103BA000E92407F9E43AFA22E4F5FF75D102E5D1F8
:103BB00020E0FBE4F5FFF5D1EF6008E4F5FF43D228
:103BC000808006E4F5FF53D27FEB6006E4F5FF4307
:103BD000D104ED6006E4F5FF43D10822900425E00E
:103BE000FEA3E02290043BEFF0A3ECF0A3EDF07510
:103BF0003401E4FBFDFF717E7B017A04791431B15D
:103C0000E4FD7F02910A91209004147455F0900411
:103C10003BE0900415F09004127402F090043DE033
:103C200090042330E507E4F0A3743CF022E4F0A311
:103C300074F0F022E4F5FF8FD4F5FFCFEDCF8FD5F0
:103C400022E5D254804414F5D222E4F5FFE5D254A3
:103C500080440AF5D222900441EFF0ED24FE601971
:103C60001460282402703FEB2402FFE43AFE7C003B
:103C70007D501222B17D60802291A47803C333CE9F
:103C800033CED8F9FF7C007D28801091A47803C33F
:103C900033CE33CED8F9FF7C007D641222C390046A
:103CA00042EEF0A3EFF0900441E091D4C083C082D3
:103CB0001225D0900443E02401FF900442E0340038
:103CC000FEE4FCFD1223C6D082D083022641EB2401
:103CD00001FFE43AFEEF22E5F754C024FF2274FF0F
:103CE000F5F0022318EF25E0FFEE3322EEF0A3EF0C
:103CF000F0A30226AAF5D7E4F5FF53D6F02225E07B
:103D000025E02416F582E43404F58322EF91D412E1
:103D100025B402259AEF24FE600C24FE6005800085
:103D20007F01227F02227F0322E4F5FFEFF5D8E432
:103D3000F5FF53D60FEE540FC4F854F0C8E4C45442
:103D40000F4842D622E4F5FF75D102E5D120E0FB11
:103D5000E4F5D1F5FFEF91CBEE540F42D6E4F5FF39
:103D6000CFEDCF8FD422E5F75406FFBF06037F08BF
:103D700022E5F75406FFBF04037F0422E5F754064B
:103D8000FFBF02037F02227F012275FF01E5A4C36A
:103D900030E401D32275FF017C0C7D3512277EE4CF
:103DA0007B64FAF9F812246C788BEEF608EFF618BB
:103DB000E6FC08E6FDCEECCEEEF5A9CFEDCFEFF5B3
:103DC000A775FF0175A41075FF0275F60275FF0156
:103DD00075A415229002BAE0FCA3E04C700A900290
:103DE000BAEEF0A3EFF0D322C3229002BAB1D160B1
:103DF00009CAEECAC9EFC912277822E0FEA3E0FF84
:103E00004E22302A14E56F6010156F903433B1D113
:103E10006007AA06A90712277822E4F51CF51DF50C
:103E20001EF51F75FF0185FD1875FF0185C9197500
:103E3000FF0185CA1A75FF0185CB1B22EFD119F04E
:103E4000020000901221F090348E22901221E0FFA7
:103E5000F4600590348EEFF074FFD119E0FF2290EA
:103E60001221E0FE640690348E6004EFF08008EECC
:103E7000F090122174FFF090348EE0FF22EFB40135
:103E800009D2AD75FF0143AE4022C2AD75FF0153AB
:103E9000AEBF2275C80122E5C85402FF75C80222D0
:103EA000E5C85404FF22E5C85401FF2275FF02D281
:103EB000ADD2BD75FF02758E71756E0975FF02E595
:103EC0008E546F4480F58E22C0E0C0F0C083C08263
:103ED000C0D075D008C0FF75FF02E58E30E42C75A8
:103EE000FF02E58E54EF4410F58E900000E004F0E0
:103EF000E56E30E0020541E56E700E756E099028A2
:103F00007D75F0011223188002156E75FF02E5859C
:103F100030E404D1FA056FD0FFD0D0D082D083D066
:103F2000F0D0E03275FF0243851022F19CD1FAC235
:103F300029E4F56FC22A22AB07AA06F19CD1FAED5B
:103F40004C70050DBD00010CD3ED94FFEC940350B3
:103F50000AEDF586EC4430F5858052D3ED94FCEC07
:103F6000940F5017EDAE047802CEC313CE13D8F9D8
:103F7000AC06F586EC4434F5858032D3ED94F0EC54
:103F8000943F5016ECC4F854F0C868FCEDC4540FCC
:103F900048F586EC4438F5858013EDAE047806CEFE
:103FA000C313CE13D8F9F586EE443CF5859034332F
:103FB000F1B6D22AE4F56F75FF0243854075FF0222
:103FC000438580D2292275FF0253857F2230290F35
:103FD000F19CD1FAE4F56FD22A75FF024385802265
:103FE000AF03EAF0A3EFF022E4FB7D01E49032B7E7
:103FF000F00237EFF1E8501712648FF583E0FCA36D
:10400000E0FD4C600AEF12361DECF0A3EDF00EAFB0
:104010000622E4FE1FEFC3940C22A2AFE433FFC2DA
:10402000AF90287DE0FCA3E0FBAA04EF24FF92AF51
:10403000AE02AF0322122215FF12364FE402227D98
:104040009031A71226AA1147110BAE04AF0590318B
:10405000ACE0FDA3E0FB1257C29031A7114D114710
:10406000122215B4FF04E412227D1147122215FF1B
:10407000229031A702268A12268AEF02227D124759
:10408000D1500411654003301E03D38001C322E5E3
:10409000F754E024FF22AF34EFC36001D322EFC313
:1040A000940E5005900413EFF022E537540FFF22D1
:1040B000901268E0FFE537C394F050205337F012B8
:1040C0004F9EFE740FC39F4005EE940E400543378C
:1040D0000D8003EF4237E537540FFF227F0022E5C2
:1040E0003754F0C4540F2FFFC3941040027F0FEFDA
:1040F000902EF993FF227E10EE60091EEE902EF9AD
:1041000093B507F4EEC3940E40027E0DEE902EEBB5
:1041100093FF22E4F534024626C2AFEF4235D2AF18
:1041200022900444EFF0C24331E6D22B900444E0E5
:1041300090339AF0D22CA3E4F0A3740DF0123EDA7F
:10414000E4900445F01247D15038900445E07032B5
:10415000E5F754C060EF316F3182BF551131829065
:10416000121CE06F90044570147402F080D7900424
:1041700045E0B454057433F080CB9004457401F0ED
:1041800080C3900445E0B40207C24212464D80004D
:10419000123ECD900445E0FF22E5F720E008E5F768
:1041A00054C070F5FF2243F701AFF922316F90043C
:1041B00045EFF0225335FEE53530E5057F01124726
:1041C00048124C25EF70FA7F02121C0F7F0111F785
:1041D00090044BEFF0BF0202801390044BE0B43325
:1041E00011E4F07F0111F7BF020D90044B7401F050
:1041F0008005E490044BF090044BE0700C1247D122
:104200005005C24212464D510790044BE024FF2254
:10421000AFF4EF547FF5F4304305EF4480F5F475C7
:10422000FF01E5D520E702C322E5F4D330E601C360
:1042300022123FAD7F08021C0F900423E0A3E0FF91
:1042400022E4FF9004165130E4FF90041A5136E442
:10425000FFFEFDFC90041E022641FEFDFC022641ED
:10426000FEFDFC022641900446EF51BAFEFD75F0BA
:10427000E5ED12455BE0FC700C900447E0B4FF02F2
:10428000EDF00F8006EC30E0027E010DEDB403DEB0
:10429000900446E06401600DEFC394025007EE7095
:1042A00004A374FFF0900447E0FFC39403501FEF92
:1042B00051AB7DE5E4FF12195D900446E04410FF28
:1042C000A3E0FE75F0E512455BEFF0EE80077B00A2
:1042D0007A0079002275F0E5A42401F9740035F024
:1042E000FA7B0122F0A374FFF0E4FF22E4FF124501
:1042F00057E060037F00220FEFB403F27F0122E456
:10430000FF124557E054F0FEBE40037F00220FEF3E
:10431000B403EE7F0122E402227D122215540F0223
:10432000227D80F6EF7011ED600775FF0143AE014D
:104330002275FF0153AEFE22EFB40110ED60077548
:10434000FF0143AE022275FF0153AEFD229034906F
:10435000EFF0531FDF851FB0718A431F10851FB018
:1043600075FF01531BEF851BCB75FF01431B4043BA
:104370001F4012373B71A5C2AFC2A8C2AAC288C2F1
:104380008AC2B8C2BAC2AC7D01E4FF51FAE4FD7F33
:104390000151FAD2AFD2AAE4F56DC203C206C2023D
:1043A000903490E0FF600864056004EFB403047F7C
:1043B0000271942275FF01531BDF851BCB229034C1
:1043C00092EFF012370D903492E0901272F0227555
:1043D000FF01431901431D01851D908519C975FF12
:1043E00001431902431D02851D908519C92271A53B
:1043F00075FF01431B10431F1002373B80F075FF10
:1044000002E5E630E2037F0322E5E630E3037F00C6
:1044100022E5E630E1037F0422E5E67F0530E00295
:104420007F0122EF600775FF0253E6BF2275FF028E
:1044300043E64022EF14600F146014240270188BBE
:104440008075FF018DFD228B9075FF018DC9228B38
:10445000A075FF018DCA22AF038FB075FF01AF05B4
:104460008FCB229031AF1226AAEF1460111460187E
:104470002402701E9173E5809179E5FD801C917393
:10448000E5909179E5C980129173E5A09179E5CA2B
:1044900080089173E5B09179E5CB02227D9031B22D
:1044A00002268A12227D75FF019031AF02268AE42E
:1044B000F5FFAF9122E4F5FFAF9222EF30E00E431B
:1044C000F401E4F5FF43A404F5FF759624EF30E111
:1044D0000E43F401E4F5FF43A408F5FF759624EFBD
:1044E00030E20943F402E4F5FF75961EEF30E3096C
:1044F00043F404E4F5FF75961075FF01EF54036073
:104500000475D7122275D72D22E4F5FF7584E6F5E0
:10451000FF439404F5FF75981422E4F5FF75933F6B
:1045200075FF03759A4091DFE4F5FF759C93F5FFE5
:1045300075A1A3F5FF758531F5FF758628E5FA5459
:10454000304480F5FA75FF0175E74A75FF0275DFA3
:104550004975FF0143D30475FF0153D367E4F5FFA9
:1045600053E6BF75FF0175D825F5FF75B503F5FF57
:1045700075B215F5FF75BA02F5FF75AFB3F5FF75A6
:10458000CD0AF5FF75CB08F5FF75CA12F5FF75BFAB
:104590000EF5FF75CC96F5FFF5BDF5FF75C281F5FB
:1045A000FF75AEE1F5FF75DA55F5FF75F580F5FF9E
:1045B00075E903F5FF75E933F5FF75972A75FF0176
:1045C000759B42759CA4759D29759E48759F2475A1
:1045D000A11275A312759AF8203E0CF5FF43968040
:1045E00090120FE04440F022CCEFCCCFEDCF74011D
:1045F0007E00C8EFC8088005C333CE33CED8F9FF9C
:10460000CDECCDEF5D601B303D1875FF0175DCAD65
:1046100075FF0175DDCDE4F5FF759A74F5FF7594AE
:10462000842275FF0175DC5375FF0175DD33E4F5F8
:10463000FF759A14F5FF7594042275FF0175E46502
:1046400075FF0175D64722903323EDF0901211E0EB
:10465000FEF46006A3E0FDB4FF0C9033257418F05F
:10466000A37413F08008903325EEF0A3EDF012222E
:104670001564016002E17C903323E0FE640860046D
:10468000EEB404089033247428F080069033247428
:104690003AF0EF123972FF122525E4F17DEF24D8AC
:1046A000FFEE343FFEED3493FDEC3416FC7B007AD4
:1046B000807903780012184EF1A2903326E09033EF
:1046C00025124F56E4FCFD1223E1ECC0E0EDC0E002
:1046D000EEC0E0EFC0E0903326E0FFE4FCFDFEF129
:1046E0007DD0E0FBD0E0FAD0E0F9D0E0F8EB2FFB92
:1046F000EA3EFAE93DF9E83CF8903324E0FFE4FCB7
:10470000FDFE1223E1EF2454FFEE340B123CA9E42A
:104710007BA87A16F9F812184ECBEFCB903323E032
:1047200014605E14601B24FE600C24FC7078E4F5B9
:10473000FF75CE318006E4F5FF75CE21F5FF8BCFF6
:1047400022E4FAE4F5FFEA2440F5CEE4F5FFEAFFBF
:10475000C37407124F59740A2FF58274183EF583FB
:10476000E4F185C39DF5CFE4F5FFEA2448F5CEE4F6
:10477000F5FFEA90180AF1852DF5CF0AEAB408C3CF
:1047800022E4F5FF75CE01F5FF8BCFF5FF75CE0E58
:10479000F5FFEB25E0F5CFE4F5FF75CE0FF5FFEB68
:1047A00075F003A4F5CF227B64FAF9F80223E193B4
:1047B00025E0FDE433FCEB75F010A4FFAEF012220F
:1047C000C3CDEFCDEBFFE4C313EF1322C8ECC8C990
:1047D000EDC9CAEECACBEFCB22E5FA5430FFBF30A9
:1047E000037F0822E5FA5430FFBF20037F0422E54F
:1047F000FA5430FFBF10037F0222E5FA54307F00E5
:1048000070027F012275FF01E5D530E602C3225315
:10481000FACFEFB4080543FA308012EFB404054331
:10482000FA208009EFB4020543FA108000D322E594
:10483000F45418131313541FFF2275FF01E5D520FC
:10484000E602C322E5FA540360FA75FF018FC3D371
:1048500022CEEFCE75FF01E5D520E602C32243FA52
:1048600004E4FDEDC39E50077F5511100D80F4E563
:10487000FA543070047F0F80027FF01110D322E5CC
:10488000F71322E4F5FF8FD422E4F5FFE5D15401BC
:1048900033333354F8FFE4F5FFE5D354074FFF22D9
:1048A000C0E0C0D075D01030904EC2AF7F0030B69F
:1048B000027F018F6BE56C30E704D2B58002C2B590
:1048C000056AE56A20E31FE569601B75690711D871
:1048D000E56B25E0F56B209003D569FA7F0030B6D3
:1048E000027F01EF426BE56A20E304E56970C6E5EB
:1048F000696003756D01D2B4756907D2AFD0D0D0AD
:10490000E032E56C25E0F56C22903494EFF0ED6434
:1049100001600BE064FA6006EDB40202D22290342A
:1049200094E064FE701C202222200008E565240229
:1049300065666009300014E56504B5660ED2220292
:1049400037C7903494E0B4FD02C222E566C3956592
:10495000501951A4E0F56C056630E705431F20802F
:1049600003531FDF851FB011D88020E56504B566AD
:104970000712373205668013200012E5652402FF16
:10498000E566C39F500712373205668012C20512D2
:1049900037322000026119E4F56522F583EFF05308
:1049A0001FEF851FB02290343AEDF0903439EFF0CC
:1049B000C245BFF905E4F565805B903439E0FFB48A
:1049C000FA0C756401517712373BC2008047EFB48F
:1049D000FD04C222803FEF64FE700A20220751715D
:1049E00012373B802A90343AE064016028517112FA
:1049F000373B300014719E50107FA6121B0B903471
:104A00003AE0FF121B0B121B7490343974FEF0C293
:104A100000D222D245903439E0FF64FD6005EF6496
:104A2000FE70150567E567D3940A400CE4F56751FD
:104A30007112373BC200D24520454CE565602B24FE
:104A4000BEF582E43421F583E064FB701D20201A5A
:104A5000E5647016D220903439E024E0FF74BE255E
:104A600065F582E434213171801DC220903439E033
:104A7000FFAE65056571933171E565D3948040079C
:104A800012372CC200D24530451030010D90234121
:104A9000123707902341F01237C722431F10851F9A
:104AA000B075FF01431B20531FDF22903493EFF0BA
:104AB000901272E0B4020E300504519C01DF300008
:104AC00004519C317C22903493E0FDAF6B22743F03
:104AD0002566F582E43422F58322E59020E002D2B7
:104AE000A8E59030E104D2A8D2AA20062530030F11
:104AF0002005083175D200D2028002C202C2032012
:104B00000503300009E59020E004D2A8D2AFC2032B
:104B1000D206E59030E12B9034917401F0E56A60A3
:104B20000D64086009756A08756D017402F0E56D21
:104B3000B4010FE56AB4080AE4F56A903491E0FF25
:104B40005181221237C575631A22E564606EE4FF55
:104B50007E01E56524FEFDEEC39D500A7193F58349
:104B6000E02FFF0E80EC74BD2565F582E43421F55D
:104B700083E06F702DF56471199021BC1237BCEA87
:104B8000494B60387B017A2179BFC002E565FD7C25
:104B9000009021BCA3E0FAA3E0F5828A83D0020250
:104BA000277CE4F5643001030237C730020EC202ED
:104BB000E49025D8F09024B8F0121B922274BF2EF6
:104BC000F582E43421226119200303300403D380E9
:104BD00001C322C2AFC2AA209119D204756A003063
:104BE000060F2005083175D200D2028006C202806D
:104BF00002D203D2A8D2AF32C2AFC2AAE59020E15E
:104C000019D204E4F56A30060F2005083175D20088
:104C1000D2028006C2028002D203D2A8D2AF2220E2
:104C200000092005062007033003067E007F01806F
:104C3000047E007F00EE4F24FFB3222000062005F3
:104C400003300703D38001C32280F080EE901272FC
:104C5000E0FF22A20522A3F0A3EFF090260AE0FFD6
:104C600090304C229025777470F0A37406F02212D5
:104C7000268AE92403F9E43AFA227B01E0FFE4FC06
:104C8000FDFE90302C0226411225B4EF24FFFFEEEA
:104C900034FFFEED229025777431F0A37405F0A364
:104CA00022A3F0E4A3F0A3F022FFEEF0A3EFF022A2
:104CB0009024FBE0FCA3E0FD22EF75F007A4242B79
:104CC000F582E4342822FFEEF0A3EFF022E493FF14
:104CD00074019322EEF0A3EFF07B0122FFEEF0A32C
:104CE000EFF0E422E0F8A3E0F9A3E0FAA3E0FB226E
:104CF000FAF9F81225B402246C25E025E02401F528
:104D000082E4341222EFF0A3EDF0A3EAF0A3EBF07B
:104D1000227B017D010219D5902577745AF0A37486
:104D20000122ED25E024BCF582E4342D22902813E5
:104D30007403F0C24C7F2D22902577F0A3740222D9
:104D4000E0FAA3E0FBEA2274FFF5F012232E45F00F
:104D50002212387AE4F5FFE5BD54F84404F5BD228B
:104D6000AC06AD07E0FEA3E0FF22FF74017E00A8C1
:104D7000070822F5FFF59675FF0175D70975F41838
:104D8000229030DEE4F0A322FFEEF0A3EFF022E069
:104D900033333354F8F5F4227B017D010219D53405
:104DA000FFFDEC34FFFC22902577F0A37403F0A301
:104DB000EFF022FB7D011237E9902341EFF022EE64
:104DC0003395E0FDFC227401F0E4A3F02212268A60
:104DD000E9240922E0FEA3E0FFA322F0A37401F07E
:104DE000A322FFC4135407F02212268AA801AC02A2
:104DF000AD0322E06410F0A3E06421F022E0FCA304
:104E0000E0FDD39FEC9E2275FF01438E1075FF01DC
:104E100022E0FEA3E0FF02277E902D03E0FF14F0C6
:104E2000EF22902D7AE0FF14F0EF2293FE740193AD
:104E3000FFE4227405F0A37425F022AF03EAF0A387
:104E4000EFF022FF9032B90226417A007900022663
:104E5000AA7401F0A3742AF022E0FCA3E0FD7F0114
:104E600022E493FC740193FD221225B4EC4D4E4FC5
:104E70002289828A8302277CE090000202228F7BB3
:104E800001E4F0A304F0228E83E4FF02277CE0F526
:104E900095E5F4540722FFFFFFFFFFFFFFFFFFFF31
:104EA000FFFFFFFFFFFFFFFFFFFFFFFFFFFFFFFF12
:104EB000FFFFFFFFFFFFFFFFFFFFFFFFFFFFFFFF02
:104EC000FFFFFFFFFFFFFFFFFFFFFFFFFFFFFFFFF2
:104ED000FFFFFFFFFFFFFFFFFFFFFFFFFFFFFFFFE2
:1067D000FFFFFFFFFFFFFFFFFFFFFFFF2A2A2A1B2C
:1067E0001B1B7FC667C071551954009800434A0AA5
:1067F000FFFFFFFFFFFFFFFFFFFFFFFFFFFFFFFFA9
:10680000FFFFFFFFFFFFFFFFFFFFFFFFFFFFFFFF98
:10681000FFFFFFFFFFFFFFFFFFFFFFFFFFFFFFFF88
:10682000FFFFFFFFFFFFFFFFFFFF90323212CFE3BA
:106830001140EA494B70037F01221140903237E04A
:106840009032E4F07F04121AE31140746012227D4A
:106850001140740D12401190323212664E90323354
:10686000E090000312228F7F002290323402268AA9
:1068700090315BEBF0EFD39401400122E490315E64
:10688000F0A3F09029BEEDF0EF600714903160F0B6
:106890008002C32290315DE064857054748512E5F6
:1068A000C712E6D6A3F0F57390315CE0717BF583F7
:1068B000C083C082903160E0D082D08375F00451F3
:1068C00030E0FF600612E34212E6E50573E573B4BB
:1068D00002D690315EE0240512E682AA0612E05F3D
:1068E00012C7BF9029BEE0FF121B15500221F922EA
:1068F00090315DE0648E600221F9748E12DFE2F067
:1069000012E6D6A3F0F57390315CE0FF717BF5835E
:10691000C083C082903160E0FED082D08375F004E5
:106920005130E0602DEF12887775F004EE5130E0C1
:10693000F4701F90315CE0717BF583C083C082905E
:106940003160E0D082D08375F004513012E3401200
:10695000E6E512904D70B0E4F57390315CE0FF71A4
:106960007BF583C083C082903160E0FED082D0830B
:1069700075F0045130E0700221D2EF12887775F083
:1069800004EE5130E0F4607490315FE070199031A2
:106990005EE07E007B01247CF9EE3425FAE41222CD
:1069A0007D90315FE004F090315CE0717BF583C055
:1069B00083C082903160E0D082D08375F004513082
:1069C00012E340A3E029F9EC12970C90315FE00448
:1069D000F090315C128876C083C082903160E0D044
:1069E00082D08375F0045130E0FF90315EE012E315
:1069F0004AA3E029F9EC12970C12E6E912904D60D7
:106A000002213090315EE02405FEA3E02E12E682E2
:106A1000AA0612E05F12C7BF9029BEE0FF121B1545
:106A2000400122D322903166E0FE75F007A424DDF8
:106A3000F582E43429F58375F004EF12267E75F0B3
:106A400002E57312267EE4F0EE75F007A424DEF56D
:106A500082E43429F58375F004EF12267E75F00286
:106A6000E57302267E9031621226AAEFD39401408C
:106A70000122EF60031F8002C322903165E07002A3
:106A80006108903167E06485702FA3F012E75640EB
:106A9000026137E4F5737163512AE06E7011ED51B4
:106AA0001FE0F4700A31FB128858E014F0800512E0
:106AB000904D70E212E77A80D3E4903168F012E7EB
:106AC000621241036026E4F5737163512AE06E702F
:106AD00011ED511FE0F4700A31FB128858E014F0F8
:106AE000800512904D70E212E77A80D212E77A1296
:106AF000E756506DE4F5737163512AE06E7025120C
:106B0000E762E075830029F9E5833AFA9000011203
:106B1000222EFEED511FE06E700A31FB128858E004
:106B200014F0800512904D70CE903168E02402F090
:106B300080BD757302903166E0FE75F007A424DB1A
:106B4000F582E43429512AE4F0EE75F007A424DC40
:106B5000F582E43429512AE4F0D573D912885AE435
:106B6000F0C24AE4F57312885AE06004D24A800702
:106B70000573E573B402EF204A0A903166E0FF1214
:106B8000E262E4F0903166E0FF7187D322903162D7
:106B900012268A903168E0F58275830012222EFE5B
:106BA000903166E0FD75F007A424DDF582E4342918
:106BB000229031E6EF12E6BB9031EBF0A3F0BF017B
:106BC000089031E712DD70800A9031E6E0B40203EC
:106BD00012E6B2E49031EBF09031EBE0FFC39401A8
:106BE000400281F59031E612885DE4F09031ECF0DE
:106BF0009031ECE0FDC3940250379031EBE075F03A
:106C000004A4FBAAF0ED75F002A42BFFE5F03AFE18
:106C10009031E8E02FFF9031E7E03EFE9031E9123D
:106C2000E62612D56812E6A9E4FDB12F12E77380BB
:106C3000BFE49031ECF012E79450579031E6E0FE5B
:106C4000128877C083C0829031EBE0FDD082D08380
:106C500012E20912267EE0F47033EE717B12E76CCB
:106C600012267EC083C0829031ECE0D082D08312A5
:106C70008885E0F9601712E66212886E12D541121B
:106C8000E6A97DFF12E74A12885DE004F012E7737F
:106C900080A4E49031ECF012E794507B9031E6E070
:106CA000FE128877C083C0829031EBE0FDD082D0A5
:106CB0008312E20912267EE0F46057EE717B12E740
:106CC0006C12267EC083C0829031ECE0D082D083EB
:106CD000128885E0F9603B12E66212886E12D54197
:106CE0009031E6128876C083C0829031EBE0D0828A
:106CF000D0831297ACC083C0829031ECE0D082D0B8
:106D000083128885E0FD12E6A912E74A12885DE049
:106D100004F012E77380809031EBE004F061AE90F4
:106D200031E6E0FF64017014EF12E256F5837F64F0
:106D300012E73E12E272E0FD7F6580189031E6E0D6
:106D4000B4021512E256F5837F6B12E73E12E2722F
:106D5000E0FD7F6C7E60B12F2212330AE433FF2204
:106D600012E736740212E6BB902F74F0A312903C27
:106D7000902F76F0902F76E0FFC394034002C1DBA2
:106D8000EFB4010C12E736741DF0A312DD70800D14
:106D9000EFB4020912E7367422F012E6B2E4902F43
:106DA00074F0902F74E0FFC394014002C173902FE0
:106DB0007612885DE4F0902F77F0902F75F0902F89
:106DC00075E0F9C394024002C16B902F74E0FD7C22
:106DD0000025E0FFEC33FEE97A002FFFEA3EFE904B
:106DE0002F6DE02FFF902F6CE03E902F70F0A3EFFF
:106DF000F0ED75F004A4FFE912E64C902F6EE03E32
:106E0000902F72F0A3EFF012E6F0128855EF604970
:106E1000902F78E0700912888B902F787401F0120F
:106E2000E6F0128855AD07902F72E0FEA3E0FFB1A7
:106E30002F902F77E004F0902F7412E5DBA3E07C15
:106E40000012E64C902F6EE03EFE902F7212E62666
:106E5000B12F12E6F0E4FDB12F902F76E0FF717BA9
:106E6000F583C083C082902F74E0FED082D083125D
:106E700097ACC083C082902F75E0FDD082D0831282
:106E80008885E4F0EF12887712C759E4F0902F75E7
:106E9000E004F0A194902F74E004F0A1787F201218
:106EA00097F260117F2012D6D87F64129046FD7F42
:106EB000207E60B12F7F211297F260117F2112D6C0
:106EC000D87F65129046FD7F217E60B12F7F25120D
:106ED00097F260117F2512D6D87F6B129046FD7F06
:106EE000257E60B12F7F261297F260117F2612D681
:106EF000D87F6C129046FD7F267E60B12F902F7652
:106F0000E004F0A14A90325C7460F0A3745A1264F9
:106F100078A3F0A3F09029BCF0A3F09029F9F090A9
:106F200029F8F09029F7F09029BEF0903260F090A7
:106F30003260E0FFC394034003028854EFB40108B9
:106F400090325C12DD70800AEFB4020690325C125F
:106F5000E6B3E490325EF090325EE0FFC39401400D
:106F600002E1EC90326012885DE4F0903261F090C2
:106F7000325FF090325FE0FDC394024002E1E490A2
:106F8000325EE012B7D290326112E5EC717BF5838C
:106F9000C083C08290325EE0FED082D0831297AC74
:106FA000C083C08290325FE0FDD082D0831288859A
:106FB000EFF0903261E004F0EE12B7D212E5ECFE91
:106FC000128877C083C08290325EE0FDD082D08389
:106FD0001297ACC083C08290325FE0FCD082D08335
:106FE000128885EFF0EE717B12E76C12267E75F049
:106FF00002EC12267EE0600E90325EE0FF9032607E
:1070000012885DE004F090325FE004F0E1499032D4
:107010005EE004F0E12DE490325FF090325FE0FF3B
:10702000C3941D501474BF2FF582E43429F583E412
:10703000F090325FE004F080E2903260E0FF700890
:10704000EF12E262E4F0802DEFB4010D7F6412E2F2
:107050004DF583EFF07F658012903260E0B4021549
:107060007F6B12E24DF583EFF07F6C7E6012E5FEE0
:1070700012E272EFF0903260E004F0028705220223
:1070800035BBE4F0903166E075F007A424E1F582A9
:10709000E43429F583E5822FF582E43583F58322F4
:1070A000E075F007A424DEF582E43429F583227527
:1070B000F00202267E90316912E6BD90316D129089
:1070C0003C90316FF090316FE0FFC3940340022198
:1070D0005FEFB4010890316912DD70800AEFB402ED
:1070E0000690316912E6B3E490316DF090316DE0B5
:1070F000FFC394015074E4903170F090316F115DD2
:10710000E4F090316EF090316EE0F9C39402505289
:1071100012E5D8E912E60612852F903170E004F0EE
:1071200012E5D8A3E012E60612E5D0FF12837BF544
:1071300083C083C08290316DE0FED082D0831297ED
:10714000ACC083C08290316EE0FDD082D0831185C7
:10715000E4F0EF117712C759E4F090316EE004F0DB
:1071600080A490316DE004F08082E4FD7F64129091
:1071700046FD7F65129046FD7F6B129046FD7F6C49
:107180007E6012E5D004F0019B229032CCEEF0A399
:10719000EFF020240D902002E0B4010912AF8D2001
:1071A000E7037FFF2212D3697B01240412AF9812F8
:1071B000A7976002800B12D3697B01240812AF9855
:1071C000FFAD0712AFAE9032D0EFF0F4705012D98D
:1071D0004A5036E004F0E49032D0F09032D0E0FF34
:1071E000C39402501074192F12D95260089032D0F3
:1071F000E004F080E69032D0E0B402037401F09035
:1072000032D0E024FF9223801520250CB223A22344
:10721000E4339032D0F080069032D07401F0903296
:10722000D0E0241912D95B12D368FF12AF9420E783
:107230000241A0EF240912AF9830E31F9032CCA393
:10724000E0240A12AF9812E698EC3AFAE9240171A8
:107250001D5418FF12D6CAEFF0800512D6CAE4F00A
:1072600012D3697B01240A12AF98C4540FFF9032E5
:10727000D012A5BEEFF09032CCE0FCA3E0240BF9D5
:10728000E43CAD01A3F0A3EDF09032CCA3E02409DF
:10729000F9E43CFA12221520E013AE071FEE604518
:1072A00012D939FE12D9291169EEF080EDE4FEAD54
:1072B000071FED603012D939FDAC060E12D929F541
:1072C00083E5822C116EEDF080E59032D0E0FF1264
:1072D000A5BFE4F074172F12D6D0E4F0EF12D92D29
:1072E000F58374FEF09032D012A5BEC083C082E058
:1072F000FF902002E012C7D1D082D08312D368FF62
:1073000012AF9430E709EF240912AF9820E4061277
:10731000AF8D30E40F12E5E212C4248002C333D8EB
:10732000FC4F800E12E5E212C4248002C333D8FC65
:10733000F45F90121BF0D2249032D0E0FF22903004
:107340007E12268AE92407F9E43AFA022215D127A7
:107350004AC36001D34002C124E924B7711DFF7BF9
:10736000017A34799912CA3230090BD1272402717B
:107370001D30E50281B2D12724B6711D12A7977086
:1073800044D12724B7711D30E73BD127F1DAFFAE96
:10739000F054076403702ED12724B9711DD3944093
:1073A0005023D12712905BEF54F84402FF12C2061B
:1073B00012C8C8EF4404F1ED12918CD12724BB719F
:1073C0001D441081ADD12724B7711D30E721540F22
