:1000000000800020D9B2000005B3000005B3000055
:1000100005B3000005B3000005B3000005B3000000
:1000200005B3000005B3000005B3000005B30000F0
:1000300005B3000004B3000005B3000005B30000E1
:1000400005B3000005B3000005B3000005B30000D0
:1000500005B3000005B30000C1890000C589000098
:1000600005B3000005B3000005B3000005B30000B0
:1000700031880000E5AB000005B3000005B30000C7
:1000800005B3000005B3000005B3000005B3000090
:1000900005B300008984000005B3000005B300002B
:1000A00005B30000898500006185000005B30000EC
:1000B00005B3000005B3000005B30000C94401000A
:1000C0007944010075440100C53B0100C5440100AD
:1000D0007D4401009D44010081440100254501004B
:1000E000CD2401009D2701000D45010005B300004E
:1000F00005B3000005B3000005B3000005B3000020
:1001000005B3000005B3000005B3000005B300000F
:1001100005B3000005B3000005B3000005B30000FF
:1001200005B3000005B3000005B3000005B30000EF
:1001300005B3000005B3000005B3000005B30000DF
:1001400010B5054C237833B9044B13B1044800E0D3
:1001500000BF0123237010BDE81300200000000041
:100160004C40020008B5034B1BB10349034800E0B3
:1001700000BF08BD00000000EC1300204C4002004E
:10018000154B002B08BF134B9D46A3F5803A002169
:100190008B460F461348144A121A15F086F80F4B77
:1001A000002B00D098470E4B002B00D09847002022
:1001B000002104000D000D48002802D00C4800E08A
:1001C00000BF15F01BF82000290006F04DFB14F0CD
:1001D000EFFF00BF000008000080002000000000CA
:1001E00000000000E81300203C4B0020000000004D
:1001F0000000000070B501208EB00C46096807F0C1
:10020000FDFC002843D0424A04AB106851680AAE96
:1002100003C390684FF42872ADF8222040F2022206
:100220001860ADF82420ADF8262004AA07CA86E895
:1002300007000B220023012566688DF8342035491C
:100240000422304607938DF820508DF835308DF814
:10025000363014F0F7FF70B98DF824508DF8265021
:10026000A06808F091F843F2C82580B2A84210D9DE
:10027000294A212108E002222849304614F0E2FFF1
:100280000028EDD02021264A20680BF087F90EB017
:1002900070BDADF82C00ADF82800E06808F074F8E7
:1002A00080B2A84202D91F4A2221EDE7ADF82E0004
:1002B0000A38ADF82A00206908F066F8ADF8220087
:1002C000052004F003FB184B07A918680CF07AFE10
:1002D000014608B1154AD7E79DF82600246807F0C3
:1002E00081FC05469DF8240007F07CFCBDF8223017
:1002F0000F4A0393BDF82E300E490293BDF82C30FF
:10030000CDE900032B4620460BF0F0F8BFE700BF15
:10031000F06E0100846F0100A96F010027A20100A7
:10032000896F0100BE6F0100D04A0020D86F010024
:100330007BF0010007700100F8B507460D4601206B
:10034000096807F05BFC002836D0052004F0BEFAEF
:10035000012F1A4C2CDD686808F016F8022F0646AB
:1003600024D0A86808F010F80346D6B1A8B12068D8
:100370000CF060FE044628B90122114B0B201A70C4
:1003800005F0F0FF0F4B104A2868002C18BF1A46E2
:10039000BDE8F8400D490BF0A9B820680CF046FE06
:1003A000E8E7206823B10CF049FEE3E70028F4D128
:1003B00020680CF037FEDDE7F8BD00BFD04A002012
:1003C00000000020FC6E01007BF00100056F0100C1
:1003D00038B501200C46096807F010FCC8B10520AB
:1003E00004F074FA0B4B18680CF02CFE054628B983
:1003F0000222094B80201A7005F0B4FF074B084A0F
:100400002068002D08BF1A46BDE8384005490BF0AA
:100410006DB838BDD04A0020000000207BF00100FC
:10042000FC6E0100056F010038B501200C4609681B
:1004300007F0E4FBC8B1052004F048FA0B4B18683C
:100440000CF002FE054628B90222094BE0201A7082
:1004500005F088FF074B084A2068002D08BF1A46A0
:10046000BDE8384005490BF041B838BDD04A0020FE
:10047000000000207BF00100FC6E0100056F010010
:100480002DE9F043814685B048680C4607F07CFFB3
:100490000746A06807F078FF8046E06807F074FF21
:1004A0000546206907F070FFB9F1050F064628DD03
:1004B000606907F069FF10F1000918BF4FF00109EA
:1004C000002F0CBF00210821B8F1000F01D041F02E
:1004D00004010DB141F002010EB141F00101B9F189
:1004E000000F01D041F02001184B18680CF01CFEE1
:1004F00050B12321164A206805B0BDE8F0430BF047
:100500004DB84FF00009DBE71249134A2068B9F1F2
:10051000000F14BF0B461346002D14BF0D461546A1
:10052000002E14BF0E4616460095CDE90163B8F1C2
:10053000000F14BF0B461346002F18BF0A46074989
:100540000AF0D4FF05B0BDE8F08300BFD04A002018
:10055000116F01007BF00100FC6E0100376F01009C
:1005600038B548680C4607F00FFF0D4B011C0546D7
:1005700018BF012118680CF0ADFD30B12068094AA0
:100580002421BDE838400BF009B8074B074A206822
:10059000002D08BF1A46BDE8384005490AF0A6BF3D
:1005A000D04A002075710100FC6E01007BF0010053
:1005B0009971010038B548680C4607F0E5FE0D4B0F
:1005C000011C054618BF012118680CF070FD30B100
:1005D0002068094A2421BDE838400AF0DFBF074BF4
:1005E000074A2068002D08BF1A46BDE83840054973
:1005F0000AF07CBFD04A00202F710100FC6E010080
:100600007BF001005271010070B5064648680C4647
:1006100007F0BAFE022E85B212DDA06807F0B4FE24
:10062000C2B2084B294618680CF029FD246802F074
:1006300035FA054902462046BDE870400AF056BF2B
:100640000022EEE7D04A00206471010070B5064632
:1006500048680C4607F098FE022E85B212DDA068AD
:1006600007F092FEC2B2084B294618680CF00FFD45
:10067000246802F013FA054902462046BDE870409E
:100680000AF034BF0022EEE7D04A0020AC7101002E
:10069000F7B507460D460E46002456F8040F07F03E
:1006A00073FE0DF804000134082CF6D1092F12DD79
:1006B000686A07F069FEC2B2084B694618680CF018
:1006C000EEFC2C6802F0EAF90549024620460AF0E1
:1006D0000DFF03B0F0BD0022EEE700BFD04A0020BE
:1006E000187101002DE9F04789468AB0804618222A
:1006F000002104A814F0D9FD4FF0FF3301AE4D46A0
:1007000034464FF0010ACDE9013303930DF102079E
:10071000D04533DD686807F037FE0AF101039845DC
:1007200027F8020F2ADDA86807F02EFE0AF102035F
:100730009845F88022DD002255F80C0F114615F07F
:10074000B5F9A31BC3F1200CA3F12002D84001FA94
:100750000CFC40EA0C0021FA02F210430AF1030AF1
:10076000C0B2BAF10A0F20736073A073E0732074F3
:100770006074A074E07404F10804C9D1084B3146D8
:1007800018680CF078FCD9F8004002F087F90549A8
:10079000024620460AF0AAFE0AB0BDE8F08700BF74
:1007A000D04A00206570010010B548680C4607F07B
:1007B000EBFD044B0246186003492068BDE8104079
:1007C0000AF094BE041400207A70010073B54868E2
:1007D0000D4607F0D9FD164B044602464FF0FF3197
:1007E00018680CF08AFC38B11F21124A286802B040
:1007F000BDE870400AF0D2BE0F4BC4F340021A703D
:100800000E490F4B14F0010F14BF0A461A4614F09C
:10081000040F04F0020614BF0C461C462868002E84
:1008200018BF0B46009407490AF060FE02B070BD85
:10083000D04A00208C700100081400203499010077
:10084000CE9801009D70010038B548680D4607F04C
:100850009BFD114B044602464FF0FF3118680CF027
:1008600061FC30B128680D4A1F21BDE838400AF00C
:1008700095BE04F00104002C14BF02220122084B93
:1008800008491A70084B094A286808BF1A46BDE88B
:1008900038400AF02BBE00BFD04A0020F87001009B
:1008A0000000002009710100CE9801003499010078
:1008B0002DE9F04748680E4607F066FD8046B068AF
:1008C00007F062FD144D10F1000918BF4FF0010947
:1008D00018F10001074618BF012128680CF037FC09
:1008E000B0B90E4C0E4AB8F1000F08BF1446494685
:1008F00028680CF03FFC68B9084B094A002F08BF74
:100900001346224630680749BDE8F0470AF0EEBDBD
:10091000054CECE7044BF4E7D04A00207BF00100E3
:10092000FC6E0100E3700100D77001002DE9F04F6B
:10093000884B0746186897B008B10CF09FF8864BB3
:100940001D78002D00F03682844B0BA91E783846A6
:100950000BF0B2FFBDF82E30B41CA34204D2804A83
:10096000936A01339362A1E1192B0AD91923BDF8C7
:100970003020ADF82E30182A82BFADF83030002379
:100980000E93BDF830800D9942460FA814F069FC13
:100990000E9949B1BDF82E200FABA2EB080292B21E
:1009A00003EB080014F05DFC16AB711C1E4416F836
:1009B0001C3CC9B203F00702052A40F085801E07DF
:1009C00043BF16AA891811F81C2C9BB248BF43EAF2
:1009D000022364484FEA831200EA032002F44062D3
:1009E00042EA00024FEA931000F4027042EA000269
:1009F0004FEAD31000F0100042EA00024FEA532001
:100A000000F020004FEA930342EA000203F4A073CF
:100A100042EA030292B248BFE1B242F4005312F438
:100A20004C4043F005030BD002F44844B4F5084FA2
:100A300006D0B0F5484F03D082F4015383F005038C
:100A40009A0A580A00F0060002F038020243C3F383
:100A500080100243444830F812204FF6FF70824263
:100A60003FF47DAF03F44054B4F5005F01D1D805E5
:100A700032D416AE481CB4F5005F3144C0B211F850
:100A80001CAC40F0708102F00F04BDF82EE021187C
:100A900071453FF764AF1CB316AE0644411C16F80F
:100AA0001C9C16AE56FA81F111F81C1C0230C0B223
:100AB0000191C2F303118DF8141001448E45FFF625
:100AC0004EAF4FF0000816E016AA114411F81C2C86
:100AD000E1B243EA0223B3E708464FF0000AD2E747
:100AE0000194A146E5E70DF1580C614411F81C1C76
:100AF000664406F8441C5FFA88F14E1C9DF814C049
:100B0000F6B20144B445C9B208F10108EBD2C2F310
:100B1000032808EB01008645FFF621AFB8F1000F6E
:100B20000DD016AE0E4416F81C6C481C029616AE7C
:100B300056FA80F010F81C0C0231C9B20390120B67
:100B40008DF820200A449645FFF609AF4FF0000EBD
:100B500013E000BF0414002008140020000000204F
:100B6000F821002000C0FFFFC471010016A8064450
:100B7000024416F81C0C02F8380C5FFA8EF28E183C
:100B80009DF820000132D2B29042F6B20EF1010E71
:100B9000ECD2944A03F4A07102EA03120A43190941
:100BA00001F440610A4392B242F4005141F0020163
:100BB00000287ED09DF82160AA2E7AD142F40051FF
:100BC00041F01201884A0DF1580B167816AA3244EA
:100BD00006F1010E02F81C1C5BFA8EFEB21C4FEAF5
:100BE000112BDB05D2B20EF81CBC06D40DF1580E49
:100BF0007244F31C02F81CACDAB24FEA912E4B0A95
:100C00000EF0380E03F00603C1F380114EEA030321
:100C10000B43764931F813304FF6FF718B423FF4A6
:100C20009EAE190714D0B8F1000F44D00DF1580E44
:100C30009DF808A09644511C0EF81CAC0DF1580EFE
:100C400002325EFA81F19DF80CE0D2B201F81CECA0
:100C500013F0F00F54D113F4706F0FD0002C53D059
:100C600016A81044511C00F81C9C16A8023250FA19
:100C700081F19DF80400D2B201F81C0C13F4704FFE
:100C800063D1022E64D118238DF83C3092FAA2F37E
:100C90001B0E8DF83D300FA938460CF083FA002862
:100CA0005AD11DB1524A136A0133136217B0BDE81D
:100CB000F08F002586E7002C3FF451AE0DF1580E61
:100CC0009644511C0EF81C9C02320DF1580E5EFA2F
:100CD00081F1D2B29DF804E0B8E70DF1580BDE4483
:100CE00011F80AB00EF81CBC02EB010E01315FFADC
:100CF00081FB58455FFA8EFEEFD20244D2B2AAE7DA
:100D000000210DF1200AEFE7B8F1000F3FF427AE04
:100D100016A89DF808401044511C00F81C4C0232E3
:100D200016A850FA81F1D2B29DF80C00A4E716A8DB
:100D30000144185D01F81C0CD1180133D8B2844568
:100D4000C9B2F4D26244D2B29BE7002305ACF3E708
:100D5000531C8DF83C309EE7002DA7D0244A536ADF
:100D600001335362A2E7110B3FF4F9AD02F00F0417
:100D7000C2F3031320441844C2F3032252FA80F250
:100D8000D2B28B18BDF82E108B423FF7E8AD16ABF0
:100D90001A4412F81C3CA3F1AA0253425341002BFF
:100DA00084D038460CF0F9F9114BB8B91A6A0132FF
:100DB0001A627BE70FA938460CF0F1F900287FF49E
:100DC000CEAD9DF84430032B03D19DF83C30AA2BC7
:100DD00002D09DF83C30DEE70123E0E75A6A013299
:100DE0005A6263E700C0FFFF00000020C4710100E9
:100DF000F8210020084B10B518680C460BF002FED5
:100E0000064A074B0749002808BF1A462068BDE874
:100E100010400AF06BBB00BFD04A00207BF00100FD
:100E2000FC6E01006672010010B548680C4607F0C0
:100E3000ABFA064B011C18BF012118680BF0DAFD54
:100E40002146BDE810400120FFF7D4BFD04A002062
:100E50000B462DE9F04F4FF0000887B0264918687F
:100E60000AF000FB4746254DDFF8A89000264FEA20
:100E7000471B2B78002B38D00024214BA2460DE0D5
:100E8000204A1946524409EB040012F80B2005933E
:100E900014F084FB059B05340AF1010A2A785245B7
:100EA000EEDC1CB100234C4404F8013C164A174800
:100EB000324412F80840164A2978002C08BF02462E
:100EC0000091CDE9019215F8023C324639460A48B4
:100ED00001360AF0EBFA042E0BF1080BC9D108F128
:100EE0000408013527B90127C0E789F80030DDE79C
:100EF00007B0BDE8F08F00BF7A72010086140020B1
:100F0000B37201004114002009140020FC6E01009E
:100F10007BF00100111400202DE9F8434022044623
:100F20000F461E48002114F0C0F900221C4B00257A
:100F30001A605A60786807F027FA052CC8BF0424A5
:100F4000184ED8BF023C706007F10409A5420BDBC4
:100F5000154B144918680BF051FDB8B93946BDE876
:100F6000F8430120FFF774BFEB074FEA650859F813
:100F7000040F05D407F008FA06F808000135E5E784
:100F800007F002FAB04488F80200F7E73868074A29
:100F90003021BDE8F8430AF001BB00BF4114002036
:100FA0000914002084140020D04A00201B73010083
:100FB0002DE9FF41804648680C4607F0E5F9C7B2C5
:100FC000A06807F0E1F9012F02D8C5B2032D07D9B7
:100FD00031211D4A20680AF0E1FA04B0BDE8F08131
:100FE000B8F10B0F02DD194A3221F3E70023032683
:100FF000CDE9023346450FDB154BBE0033445B5D44
:10100000144800932A4602AB394600680BF0E4FC12
:1010100060B1114A3321DDE754F8260007F0B4F936
:1010200002AB334403F8030C0136E3E70B4A3544C3
:1010300002EBC50602AB03CB42F83500716001201C
:101040002146FFF705FFC8E7BB720100E07201000F
:1010500009140020D04A0020FE7201004114002033
:101060002DE9FF4148680E4607F08EF90446B06846
:1010700007F08AF90546F06807F086F9C7B217F15C
:10108000000818BF4FF001081648EDB2E4B22B4635
:101090002246414600680BF0A9FC38B13421124ABF
:1010A000306804B0BDE8F0410AF078BA0F4B306800
:1010B00003EB840303F805800D4B0E4E1A5D2344A9
:1010C00099780D4B0092002F08BF334603930B4BCA
:1010D0002246CDE901132B4609490AF007FA04B06C
:1010E000BDE8F081D04A00204472010009140020BC
:1010F00084140020FC6E01007BF00100111400201C
:101100007A720100F0B50126384C89B00D463046A0
:101110000968267006F072FD30B36F680422344906
:10112000384614F08FF880B92671A6710026A86899
:10113000CDE90566079607F027F943F2C82780B284
:10114000B84213D92B4A21210BE002222A49384602
:1011500014F078F818B902232371A371E6E720216F
:10116000264A28680AF01AFA09B0F0BDADF818004E
:10117000ADF81400E86807F007F980B2B84202D968
:101180001F4A2221EDE70A28ADF81A0084BF0A3869
:10119000ADF81600286998BFADF8166007F0F4F8AE
:1011A000184E608005A930680AF0D2FE0F493068F9
:1011B0000BF042FB014608B1134AD2E720792D68B3
:1011C00006F010FD0646A07906F00CFD6388324655
:1011D0000293BDF81A300D490193BDF81830009301
:1011E000034628460AF082F9BEE700BF8C140020AF
:1011F000846F0100A96F010027A20100896F01001F
:10120000BE6F0100D04A002044730100137001003A
:10121000F7B5114C0F4620680BF012FB054620680D
:101220000BF026FB064620680BF02AFB0B490C4B03
:101230003C68002814BF184608460A4A002E08BF1A
:101240000B4609490090002D08BF0A462046074971
:101250000AF04CF903B0F0BDD04A002090730100B1
:10126000897301007BF00100FC6E0100997301009D
:10127000002313B58DF80030ADF8023040F20113B1
:10128000ADF80430ADF80630084B0C4618686946D6
:101290000BF0D2FA014618B1054A20680AF07EF92F
:1012A00021460120FFF7B4FF02B010BDD04A002054
:1012B0007173010070B548680C4607F065F8064682
:1012C000A06807F061F80546F1B20A4E003118BF78
:1012D000012130680BF0C8FAE9B20031306818BF5C
:1012E00001210BF0C9FA2146BDE870400120FFF74B
:1012F0008FBF00BFD04A002070B548680C4607F089
:1013000043F8C5B2A06807F03FF8291C18BF0121B7
:101310000B4AC3B21170191C18BF0121094A206879
:1013200011700949094A002B14BF13460B46002DC2
:1013300008BF0A46BDE8704005490AF0D7B800BFAB
:10134000C8200020C9200020CE9801003499010057
:10135000CA730100084B10B518680C460BF06FFFFC
:10136000064A074B0749002808BF1A462068BDE80F
:1013700010400AF0BBB800BFD04A00207BF001004B
:10138000FC6E0100C174010038B548680C4606F0D7
:10139000FBFF094D58B1032003F098FA28680BF0C1
:1013A00039FF2146BDE838400120FFF7D3BF286848
:1013B0000BF041FFF5E700BFD04A0020022838B506
:1013C0000C460B4D10D1486806F0DEFF60B128686E
:1013D0000BF03EFF246801F061FB064902462046FF
:1013E000BDE838400AF082B828680BF037FFF1E713
:1013F000D04A0020A9720100022838B50C460B4DD6
:1014000010D1486806F0C0FF60B128680BF02CFFCF
:10141000246801F043FB064902462046BDE83840F7
:101420000AF064B828680BF025FFF1E7D04A0020E5
:10143000A972010038B50F4D0C4628680BF0FFFE6D
:1014400030B920680C4A3121BDE838400AF0A6B80E
:10145000606806F099FFC1B228680BF011FF24689C
:1014600001F01CFB054902462046BDE838400AF061
:101470003DB800BFD04A0020AC740100A972010041
:101480002DE9F347294D814628680C460BF0D7FE1D
:10149000A84638B93121264A206802B0BDE8F04795
:1014A0000AF07CB8B9F1010F35DD606806F06CFF19
:1014B000B9F1020F5FFA80FA2FD0A06806F064FF3E
:1014C000B9F1030F07462CD0E06806F05DFFB9F1D3
:1014D000040F064623D0206906F056FF051C18BFEE
:1014E0000125009553463A463146D8F800000BF0E6
:1014F000F4FEC0B90F4B104A2068002D14BF1D46E2
:1015000015460E49CDE900653B46524609F0EEFF0F
:1015100002B0BDE8F0874FF0250A094E094F0025BB
:10152000DFE7074EFBE7084A3221B5E7D04A002043
:10153000AC740100FC6E01007BF0010045740100F9
:1015400055555500D6BE898E8A74010073B548681A
:101550000D4606F019FF224E044630680BF06FFE70
:1015600038B931211F4A286802B0BDE870400AF03E
:1015700015B8E4B2A4F12503022B02D91A4A30218E
:10158000F1E70023194A00931949234630680BF00C
:10159000A4FE10B1174A3221E5E7252C1AD104F038
:1015A000E1FE22461449286809F0A0FF134B144AB3
:1015B00003F11C0153F8040B8B4242F8040BF9D1E0
:1015C0001C22294601200F4B1A8002B0BDE8704052
:1015D00002F078B8262C0CBF0C202720DFE700BFD4
:1015E000D04A0020AC740100E6730100D6BE898E9B
:1015F000555555008A7401000274010018740100E9
:101600005C0F00205411002070B5064648680D4656
:1016100006F0BAFE002814BF01230023264C2370D5
:1016200006D1264A28682649BDE8704009F05EBF09
:101630004FF47A724FF414110023C4E901122148C7
:10164000214A022EA370C4E90302637031DDA86849
:1016500006F09AFE032EA07024D0E86806F094FEEF
:10166000042EA0601ED0286906F08EFE052EA080F4
:1016700018D0686906F088FE062EE08012D0A869AE
:1016800006F082FE072E20610CD0E86906F07CFE91
:10169000082EE06006D0286A06F076FE003018BFFB
:1016A000012060702178094A044B002908BF1A46BE
:1016B000B8E7064AB6E700BFA03D0020FC6E010077
:1016C0003474010055555500D6BE898E7BF001005B
:1016D0002DE9F04F814685B00D460120096806F0DE
:1016E0008DFA08B301244FF0000A2B4B2B4F1B68D7
:1016F000DFF8C0803B6026B2B9EB860F17DC284BC1
:10170000013C26491868BC710BF094F9254A26491A
:101710002D6800280CBF104608463B682246009002
:101720002249284609F0E2FE05B0BDE8F08F3601F7
:10173000A6F10C0B55F80B0006F026FEB0F5803F25
:1017400007D316211A4A286805B0BDE8F04F09F002
:1017500025BF55F80B0006F017FE631E1B0108EBB2
:10176000030B28F80300AB1953F8080C039306F099
:101770000BFE039B8BF8020053F8040C06F004FEEA
:10178000CBF80400A85906F0FFFD0134CBF808009F
:101790008BF80CA0E4B2AEE7840000200400002027
:1017A000D04A002034990100CE980100FC74010059
:1017B000DC740100B43D002070B501200C460968BE
:1017C00006F01CFA90B1606806F0DEFD0546A068E0
:1017D00006F0DAFD0649EAB201EB0211487303464E
:1017E00004492068BDE8704009F080BE70BD00BFAC
:1017F000B43D0020C874010070B506460C460120B7
:10180000096806F0FBF9F8B1606806F0BDFD051C3B
:1018100018BF0125022E15DDA06806F0B5FD021CDB
:1018200018BF0122094B294618680BF007F9084A2E
:10183000084B0949002818BF1A462068BDE87040C7
:1018400009F054BE0022EDE770BD00BFD04A002071
:1018500034990100CE9801001C7501001FB548683D
:101860000C4606F091FD0F4BC1B218680BF0EAF878
:1018700010F5007F06D10C4A0821206809F08EFE81
:1018800004B010BD00EE100A0222BAEECF0A0A21FF
:1018900001A809F0B5FE01AA0449206809F026FE56
:1018A000EEE700BFD04A0020507501001576010018
:1018B00010B5012086B00C46096806F09FF920B3E8
:1018C000606806F061FD8DF80800A06806F05CFD18
:1018D0000390E06806F058FD00238DF814300C4B9F
:1018E000049002A918680BF0B1F8049A24680192D8
:1018F000039A08490092084A9DF80830002808BF5A
:101900000A460649204609F0F1FD06B010BD00BFA9
:10191000D04A002034990100CE98010027750100BB
:1019200010B501200C46096806F068F9A0B160689E
:1019300006F02AFD094B011C18BF012118680BF0A5
:1019400089F8074A074B0849002818BF1A4620683B
:10195000BDE8104009F0CABD10BD00BFD04A00204C
:1019600034990100CE9801001C7501002DE9F04F5B
:101970002DED028B064689B00C460120096806F061
:101980003DF900B30423022EADF80A3020DDA06833
:1019900006F0FAFC032E87B21BD0E06806F0F4FCD8
:1019A00080B2824D00903B460DF10A0280492868C2
:1019B0000AF0A2FDBDF80A3007466BB901217D4A45
:1019C000206809F0EBFD09B0BDEC028BBDE8F08F9B
:1019D00000274FF6FF70E4E7012E0CDD606806F08B
:1019E000D3FC10F1000A18BF4FF0010A022F05D1F5
:1019F000714A2021E4E74FF0000AF7E70022BDF822
:101A00000A004FF0010E0428844642F2107828BFE5
:101A10004FF0040C1146694B654F96B2B44503F183
:101A200010034FD8664B67491B68887128680B60A4
:101A30000BF000F80122286811460AF0FFFF00228F
:101A4000398828680AF0EBF928680AF02FF902288B
:101A5000FAD142F21070BDF80A304FF00008053399
:101A600058430BF00BF82068574909F0FBFC47F688
:101A7000FF76B5EE008A554C0DF1140BBDF80A2027
:101A80001FFA88F39A42286828D8012203210AF015
:101A90000FF9BAF1000F96D00A2013F027FC4C483A
:101AA00013F094FC4B4813F091FC494813F08EFC62
:101AB0001423A61B96FBF3FA0025DFF824B14FF0A0
:101AC000000950E037F8326003F80EEC23F8106C90
:101AD00043E9038103F8041C01329EE75FFA88F1B1
:101AE0000AF0B0FF8442B8BF04468642A8BF06464B
:101AF0001FFA88F908AB03EB490310F5007F23F8C0
:101B0000140C24B236B215D007EE900AB8EEE70AEC
:101B100002220A2120EE080A584609F071FD07EB5F
:101B2000C90337F83920CDF800B05B68494626482C
:101B300009F0BCFC08F10108A0E7142D30D04FF0EB
:101B4000040808AB03EB460636F9143C08F1FF38ED
:101B5000A342ACBF23202E2013F0C8FB18F0FF08CF
:101B6000F2D109F10109BDF80A305FFA89F69E4207
:101B7000E3D300EE104A0222BAEECF0A0A2105A8EA
:101B8000013509F03DFDEDB205A9584613F096FB6D
:101B9000152DA4EB0A0492D10F4813F017FC12E79D
:101BA00037F836100D4813F089FBDAE7D04A0020E9
:101BB000F43D002098750100B3750100B43D00208C
:101BC0008400002004000020ED7501000080FFFF6C
:101BD0001D7601003C760100697601005B7601000C
:101BE0006076010007B5084BCDE900230B4602469D
:101BF0000649074809F07AFC0120064A13680133B8
:101C0000136003B05DF804FBEE7601008C760100F2
:101C1000E0760100281A002070B548680C4606F0EE
:101C2000B3FB21680546012005F0E8FF00B3114E23
:101C300030680AF00DFCC30713D5294630680AF056
:101C400004F930B92A4620680B49BDE8704009F014
:101C50004DBC2B462068094A1421BDE8704009F0AC
:101C60009DBC2068064A1321BDE8704009F096BC6F
:101C700070BD00BFD04A0020567A0100667A01008C
:101C80009F7A010030B1044B10F0010F034808BFE8
:101C90001846704702487047DAA30100AD7801008A
:101CA000FC6E010070B548680C4606F06DFB0C4BED
:101CB0000546014618680AF0B7FB48B92846FFF701
:101CC000E1FF084902462068BDE8704009F00EBCFB
:101CD0002B462068044A1521BDE8704009F05EBC1F
:101CE000D04A0020097901001679010070B5054637
:101CF00048680E4606F048FB022D04460DDDB0682C
:101D000006F042FB0546A307306808D02346BDE82D
:101D100070400B4AFF2109F041BC0125F3E7094956
:101D200009F0A0FB074E04EB8505AC4200D170BD65
:101D300022682146304609F0B9FB0434F5E700BFBC
:101D4000A8770100CC7701002DE9FF418046486863
:101D50000D4606F019FB10F0030406460FD12F1DA7
:101D6000A31C984514DC01AE22460D49304613F001
:101D700015FCAE6029460320FFF7B8FF05E00346D7
:101D8000084AFF21286809F009FC04B0BDE8F08189
:101D900057F8040F06F0F8FA46F824000134DFE79C
:101DA000FD8D0100A877010010B548680C4606F0CB
:101DB000EBFA011C226818BF0121BDE81040092080
:101DC00005F044B970B5054648680C4606F0DCFAE3
:101DD000061C18BF0126022D074D0ADDA06806F07B
:101DE000D3FA286022683146BDE87040082005F02B
:101DF0002DB9024B2B60F5E710000020809698006B
:101E000010B548680C4606F0BFFA00280CBF012246
:101E10000022064B20681A70054B064A064908BF87
:101E20001A46BDE8104009F061BB00BF0C2300203A
:101E3000FC6E01007BF00100F9780100F8B507465F
:101E400048680C4606F0A4FA094B0A4E18600023B5
:101E5000022F0546337003DDA06806F095FA307056
:101E6000E9432268C90F0A20BDE8F84005F0EEB842
:101E7000580F002018230020094B10B518680C4695
:101E80000AF064FE28B920680649BDE8104009F050
:101E90002DBB2068044AFF21BDE8104009F07EBB3D
:101EA000D04A0020E27A0100027B010013B50A4B00
:101EB0000C46186801A90AF04BFE30B9019A07498F
:101EC000206809F013FB02B010BD054AFF2120680D
:101ED00009F064FBF7E700BFD04A002069780100F1
:101EE0008978010010B4094B08681C780849094B2F
:101EF00014F0010F14BF0A461A4614F0020F18BF5F
:101F00000B465DF8044B044909F0F0BA9C0D002023
:101F10007BF00100FC6E01008877010038B548684D
:101F20000D4606F031FA0B4A0446137858B143F0D7
:101F30000103294601201370FFF7D4FF34B1BDE837
:101F4000384004F09FB803F0FE03F2E7BDE83840E4
:101F500004F044B89C0D002010B548680C4606F00B
:101F600013FA074A137840B143F002031370214675
:101F7000BDE810400120FFF7B5BF03F0FD03F5E712
:101F80009C0D002008B503F047FFBFF34F8F0549B4
:101F9000054BCA6802F4E0621343CB60BFF34F8F76
:101FA00000BFFDE700ED00E00400FA0570B5084C45
:101FB0000D68206809F0C4FF0646206809F0C4FFD8
:101FC0003246034603492846BDE8704009F08EBA00
:101FD000D04A0020C07801002DE9F14F044648683E
:101FE0000E4606F0D1F9022C804685B212DDB068AB
:101FF00006F0CAF9041C18BF0124B5F5806F0BD98F
:102000004FF480631021204A306801B0BDE8F04FE2
:1020100009F0C4BA0024F0E71C4B2A461C49186892
:1020200009F05CFE8542074604D01A4A1121306847
:1020300009F0B4FA1CBB2546DFF85490DFF858A02D
:10204000DFF860B01FFA88F3A3420DDDC5F5C97152
:102050000AEB0500023519F804305A46ADB213F008
:1020600069FAB5F5C97F08D13A460B4B0B49306880
:1020700001B0BDE8F04F09F039BA0134E2E7044B92
:102080003A460749F3E700BFF6770100D04A00203F
:102090009414002020780100941800203E7801005C
:1020A00050780100329B01002DE9F04F89B0824643
:1020B00004A80C4608F020FD804605A808F024FD81
:1020C000BAF1010F0746DDF8149013DDD4F804B01F
:1020D0007B49584613F082FA60B1002635464E45DA
:1020E00044D1002D50D15B465021764A206809F03A
:1020F00055FA21E0744D049E2B781BB1216873487A
:1021000013F0DCF82B7813B1714813F0D7F80024E2
:10211000DFF8ECA1DFF8ECB1A1452B780FD113B1BA
:102120006C4813F053F92B7813B16B4813F04EF948
:1021300000246A4FA64210D109B0BDE8F08F1CB14F
:1021400013B1504613F0BAF82B7823B157F8341076
:10215000584613F0B3F80134DEE72B7823B158F872
:102160003410384613F0AAF80134E3E707EBC6034E
:1021700057F836005946039313F030FA039B0136A3
:10218000002808BF1D46AAE7D4F80890544E4946D7
:10219000304613F023FA074660BBBAF1040F05D0AE
:1021A0005121504A206809F0F9F9C5E77721E06824
:1021B00006F0F2F80028F3D0E06806968DF81C705F
:1021C00006F0E2F8ADF81E0006AE01213A2006F056
:1021D00043FD0023E9791A46A87907F03DFB002F5B
:1021E00051D0287908F098FC2A683F49206809F006
:1021F0007DF9A1E73D4E4946304613F0EFF9074619
:1022000000BBBAF1050F02D0394A5321CAE7752144
:10221000E06806F0C1F80028F6D07521206906F0C4
:10222000BBF80028F0D00123E0688DF81C3006963A
:1022300006F0AAF88DF81F00206906F0A5F88DF8C1
:102240001E00C1E749462B4813F0C8F9B0B100277A
:102250003E46DDF810B0BB4504D196B94B46264A40
:10226000542143E758F83700494613F0B7F908EB13
:10227000C70A002808BF56460137ECE70127064683
:10228000A3E70027A1E7002E3FF456AF33794BB107
:10229000B779EB79AA79697928790197F779009765
:1022A00008F048FCE979A8790023042207F0D4FA61
:1022B00033682A681149206809F018F93CE700BF23
:1022C00033790100AA7901009E0D002038790100C0
:1022D000557901005F7901006A790100A479010054
:1022E000E2790100C5790100337A01000A7A010020
:1022F000ED790100417A0100157A0100457A01006B
:102300005C79010003F1010038B548680D4606F01C
:102310003BF8044602460549286809F0E7F8044BF3
:1023200021461868BDE8384003F034BF75770100D6
:10233000D04A002001282DE9F74F07460E4631D13B
:1023400030683A4909F08EF80024394D394E3A4F39
:102350002B78A34202D803B0BDE8F08F0123A4F18B
:102360002001C4F1200203FA01F923FA02F203FA70
:1023700004F849EA0209D7E9002302EA080003EA5F
:1023800009012E4A50EA01032D4B08BF1346CDE93F
:102390000083224656F824104B462A4809F086F856
:1023A0000134D5E7486805F0EFFF022F82464FF071
:1023B000000B07DDB06805F0E7FF00224BEA000BD9
:1023C0004AEA020A042F06D1F06805F0DDFF8046D4
:1023D0004FF0FF390CE025DD306905F0D5FF81466F
:1023E000F0684FF0000805F0CFFF48EA0003984678
:1023F000114FD7E900238AEA02048BEA030508EAB1
:10240000040009EA050180EA020481EA03052A467C
:1024100023460D493068C7E9004503B0BDE8F04FD9
:1024200009F064B84FF0FF38D2E700BFF37601003F
:102430009D0D0020FC0C0020A0220020CE98010061
:1024400034990100207701005A77010010B54868DF
:102450000C4605F099FF002814BF01220022064B0C
:1024600020681A70054B064A064908BF1A46BDE89F
:10247000104009F03BB800BFE5220020CE980100D3
:1024800034990100EA78010010B548680C4605F05F
:102490007BFF002814BF01220022064B20681A701F
:1024A000054B064A064908BF1A46BDE8104009F028
:1024B0001DB800BFE4220020CE980100349901002D
:1024C000D978010038B548680C4605F05DFF00304A
:1024D00018BF0120074D287008F0AAFF2978064B85
:1024E000064A2068002908BF1A46BDE8384004495A
:1024F00008F0FCBF9E0D0020CE9801003499010029
:10250000CF7A010010B50C6804F09AFD04F0E0FDEC
:10251000034902462046BDE8104008F0E7BF00BF6F
:102520007D770100074B10B518680C6809F0BEFBF9
:1025300005F058FB044902462046BDE8104008F06B
:10254000D5BF00BFD04A0020E87701002DE9F7434E
:1025500048680C4605F018FF0746A06805F014FF10
:102560000646E06805F010FF10F10009804620697A
:1025700018BF4FF0010905F007FF2F4B021C93F81D
:1025800000C0054618BF01222C482D49BCF1000FA0
:1025900007D190F800C0CC4503D191F800C0944514
:1025A0001DD04FF0000C80F8009083F800C00A7036
:1025B000B8F1000F09D0012222211A702068214AA7
:1025C00003B0BDE8F04308F0E9BF1F48002D1F4BE2
:1025D000424608BF00231E49006809F069FC16B195
:1025E00000221C4B1A600AF045FA321C18BF012267
:1025F00080463946164809F067FC06460AF03AFA62
:102600000346042E96BF144A144A52F82620206826
:10261000A3EB08035DB10F4909680091104908F068
:1026200065FF0EB90B4B1E6003B0BDE8F0830D498A
:1026300008F05CFFF5E700BF140000202D1A002011
:102640002C1A00208B7B0100D04A0020E51B0000E3
:10265000E8210020281A0020787601007B7B010009
:10266000B57B0100EA7B01002DE9F041074648688F
:102670000D4605F089FE0646A86805F085FE311C6A
:10268000044618BF01212A680C2005F005FA88B11C
:102690002946384600F070FC074B61081E60074B66
:1026A00019603EB1BDE8F0410548064B01220068C3
:1026B00009F03CBBBDE8F081183E0020143E00202C
:1026C000D04A0020D160000007EE900A0B68B8EEF7
:1026D000E77A0133012B0B6006D10023C1E9010029
:1026E00081ED037A0B617047D1ED035A07EE903A02
:1026F00037EE656AF8EE677AC6EE276A76EEA57A57
:1027000037EE677AC1ED037AD1ED047AE7EE067A07
:102710004A68C1ED047A8242D4BF4A6048608A6840
:102720008242ACBF8A608860704700002DE9F041AA
:10273000254C2DED028B94ED280AB5EE008A90B061
:10274000884620EE080A00220A2104A808F058FF53
:10275000D4ED267AB8EEE70A07AD20EE080A022289
:102760000A21284608F04CFFD4ED277AB8EEE70A94
:102770000AAE20EE080A02220A21304608F040FF85
:10278000D4F8943094ED297A013B07EE903AF8EEB4
:10279000677A87EE270ADFED0D7A0DAF20EE270A64
:1027A00000220A21384608F02BFFCDE90167009589
:1027B00004AB226E0649D8F8000008F097FE10B06E
:1027C000BDEC028BBDE8F081F82100200000803DC7
:1027D000FE7C01000022064B411EC3E90122DA60A3
:1027E000044A914288BF6FF060401860704700BF94
:1027F000341A0020FEFFFF1F012238B51A4C0D4687
:102800002068114609F054FA0122206811460AF0A6
:10281000BCF80023154920680B704B7001238B70A6
:10282000CB700AF031F8014618B1114A286808F057
:10283000B5FE642120680AF094F80021206809F0B0
:1028400046FE002120680AF0E4F8686805F09CFD67
:102850000446084B1860FFF7BDFF2246286806496A
:10286000BDE8384008F042BED04A0020E6220020F1
:102870000C7C0100301A00202D7C010070B506464A
:1028800048680C4605F080FD011C054618BF012173
:1028900022680D2005F000F910B32146304600F003
:1028A0006BFB01220F4C1146206809F001FA01224E
:1028B000206811460AF069F895B1002120680AF0F5
:1028C000A8F8094B1868FFF785FF0122074B20681D
:1028D0001A70074B0022BDE87040198809F09FBAB2
:1028E00070BD00BFD04A0020301A0020441A0020DA
:1028F000D02000202DE9F04F8DB00E4606F0F0FDFF
:10290000344BD3E90045D3F808A093F90C7006F0D6
:10291000EBFD002C3CD0284611F0B6FF8046204647
:10292000894611F0B1FF02460B464046494612F077
:102930004FF90022284B12F021F812F059FA00EE5C
:10294000100A45B350468DED050A11F09DFF8046F3
:10295000E800894611F098FF02460B46404649467A
:1029600012F036F900221C4B12F008F812F040FA6F
:102970009DED050A8346194BE4009B6C73B13B4601
:1029800022461749306808F0B1FD0DB0BDE8F08F60
:102990009FED140AD5E74FF0000BECE70DF1180896
:1029A0000DF1240902220A21404608F029FE0222E4
:1029B00000EE10BA0A21484608F022FECDE902A92D
:1029C000CDE90087EB0022460749306808F08EFD0C
:1029D000DBE700BF341A002000005940F821002036
:1029E000397C010000000000AB7C010003282DE9C8
:1029F000F0410D4605DC25492868BDE8F04108F0A6
:102A000075BD4A681478A3B2A3F1610103291AD8ED
:102A1000613CE4B244B3012C28D0022C28D0032C12
:102A20000CBF03260026A86805F0AEFCC7B246FA24
:102A300007F3DB071ED433466A6828681449BDE8EB
:102A4000F04108F053BDA3F14101032901D8413CF5
:102A5000DFE7303B032B01D8303CDAE728680D492B
:102A6000BDE8F04108F042BD7F26DCE70726DAE743
:102A70003F26D8E7E86805F087FC3946C3B2042250
:102A8000204606F0E9FE0449B6E700BF3F7D01009D
:102A9000767D0100587D0100EC7D010003289ABF7E
:102AA000024B53F820000248704700BFFC7D010034
:102AB000158101002DE9F041364C8AB0086808F014
:102AC000BDFCE36D21680893A36D33480793A36BA6
:102AD00000260693636BDFF8E0800593E3692F4FD0
:102AE0000493A36903936369029323690193E368E1
:102AF0000093D4E9012308F019FDA36A616E0093E5
:102B00002748D4E9082308F011FD264B186809F07E
:102B1000CDF8054605F066F80146234808F006FDA5
:102B200005F0010258F826103846013608F0FEFC80
:102B3000032E4FEA5505F3D11C4B1D8804F080FA93
:102B400004F0C6FA236D02460593E36C294604930C
:102B5000A36C17480393E36F0293636C0193D4F85B
:102B600084300093D4F8803008F0E0FCD4E92312DC
:102B7000E36A10480493E36E0393236F0293A36EFA
:102B80000193236B0093636D08F0ECFC0AB0BDE881
:102B9000F08100BFF82100202D7F01002D80010071
:102BA000E47F0100D04A002022800100D0200020D4
:102BB00033800100A9800100180000202DE9F041B8
:102BC000154C88B020680D4609F0D7FE06462068EF
:102BD00009F0D7FE074620682D6809F0C6FE80463A
:102BE000206809F0C6FE0D493246CB6907938B6910
:102BF00006938B6C0593CB6F04938B6F03934B6F92
:102C0000CDF80080CDE9010305493B46284608F090
:102C10006DFC08B0BDE8F081D04A0020F82100200A
:102C20000C7E010070B58AB00C4607A8002109F09F
:102C3000E7FB0D4D9DF825600C492068002E08BF6C
:102C400029469DF822409DF820209DF82130084D0E
:102C5000CDE90234CDE90415CDE90042054908F07B
:102C600045FC0AB070BD00BFCE9801003499010048
:102C7000819701001D81010038B50A4B48681D6825
:102C80000C4605F081FBC1B2284609F035F9064B28
:102C9000064A0749002808BF1A462068BDE83840A0
:102CA00008F024BCD04A0020C78A010065870100D3
:102CB0006B87010010B50C468AB007A8012109F006
:102CC0009FFB9DF822109DF820209DF821309DF853
:102CD0002300CDE90123CDE90310009120680649C6
:102CE00008F004FC9DF82430079A0449206808F095
:102CF000FDFB0AB010BD00BF5281010070810100D0
:102D000010B548680C4605F043FB00F1FF03B3F52E
:102D1000FF7F024606D92068064A0821BDE8104018
:102D200008F03CBC044B054918802068BDE8104001
:102D300008F0DCBB89810100D0220020B6810100AF
:102D400002287FB50D4614D1486805F01DFB011C13
:102D500018BF0121184E306809F069F810F5007F9E
:102D6000044608D1154A0821286808F017FC04B069
:102D700070BD0021EEE700EE100A0222BAEECF0A83
:102D80000A2101A808F03CFC30680AF070F960B133
:102D9000042094FBF0F040B20AF008FA01AA0346BE
:102DA0000749286808F0A2FBE1E701AA054928685D
:102DB00008F09CFBDBE700BFD04A0020F27E010058
:102DC0001C7F010015760100F8B5074648680C46DF
:102DD00005F0DAFA0F4B032F06461D7803D1A068E1
:102DE00005F0D2FAC5B20021012004F007FF30B986
:102DF000094A20680821BDE8F84008F0CFBB074821
:102E0000002332462946006809F015F808B1044A43
:102E1000EFE7F8BDD0200020D7870100D04A00207E
:102E2000038801001FB50F4B0C46186809F0F6FD2A
:102E300010F5007F06D10C4A0821206808F0AEFB8F
:102E400004B010BD00EE100A0222BAEECF0A0A2129
:102E500001A808F0D5FB01AA0449206808F046FB48
:102E6000EEE700BFD04A0020BB7E010015760100CE
:102E700038B548680C4605F08BFA0B4D41B228680E
:102E800009F0D0FD28B120680849BDE8384008F0B5
:102E90002DBB286809F0CAFD054902462068BDE837
:102EA000384008F023BB00BFD04A002072870100E1
:102EB0008F870100064B10B518680C4609F0B6FD67
:102EC000044902462068BDE8104008F00FBB00BF6F
:102ED000D04A00208F8701002DE9F84348680C464E
:102EE00005F052FA8046A06805F04EFA8146E06887
:102EF00005F04AFA022590FBF5F509F0BBFD1B4EE3
:102F00001B4C1C4F064409F0B5FDB042206803D3AA
:102F1000BDE8F84308F07EBF08F07CFF002220687F
:102F2000012108F0C5FE5FFA88F1206809F02BFB4B
:102F300039880022206808F06AFF284602F060FF06
:102F4000206808F067FF00222068012108F0B0FE29
:102F50005FFA89F1206809F016FB002239882068A1
:102F600008F055FF284602F04BFFCCE7404B4C00E1
:102F7000D04A0020D020002010B50C46A822002105
:102F8000044812F092F92146BDE810400120FFF7F5
:102F900091BD00BFF821002010B50C6809F06AFD52
:102FA000034902462046BDE8104008F09FBA00BF22
:102FB000E8F0010010B548680C4605F0E5F909F0A5
:102FC0005BFD246840B909F055FD024605492046DD
:102FD000BDE8104008F08ABA09F04CFD02490246EB
:102FE000F5E700BF9D870100BB8701000B4673B565
:102FF000AC4CAD49186808F035FA206809F0ABFD13
:10300000AA4DAB4EAB49002814BF2B46334632467F
:10301000A54808F04BFA206809F09FFD2A460028D1
:1030200014BF2B463346A4499F4808F03FFA206856
:1030300009F095FD3246002814BF2B4633469F49C0
:10304000994808F033FA206809F08BFD32460028D1
:1030500014BF2B4633469A49934808F027FA206854
:1030600009F081FD2A46002814BF2B4633469549B6
:103070008D4808F01BFA206809F077FD2A460028E1
:1030800014BF2B4633469049874808F00FFA206852
:1030900009F06DFD2A46002814BF2B4633468B49A4
:1030A000814808F003FA206809F063FD2A460028E9
:1030B00014BF2B46334686497B4808F0F7F9206851
:1030C00009F059FD2A46002814BF2B463346814992
:1030D000754808F0EBF9206809F04FFD2A460028F2
:1030E00014BF2B4633467C496F4808F0DFF920684F
:1030F00009F045FD2A46002814BF2B463346774980
:10310000694808F0D3F90DF107020221206809F09F
:1031100038FD002800F0B5819DF80730FF2B00F046
:10312000B0812A466E496F4808F0C0F90DF10702D8
:103130000021206809F025FD002800F0A7819DF8F6
:103140000730FF2B00F0A281584A6749654808F014
:10315000ADF9664B66491A46534808F0A7F90DF1D8
:1031600007020121206809F00CFD002800F093817E
:103170009DF80730FF2B00F08E814C4A5D4959487D
:1031800008F094F9594B5C491A46474808F08EF903
:10319000206809F0FAFC454E454D3246002814BF20
:1031A00033462B465549404808F080F9206809F01D
:1031B000EEFC2A46002814BF33462B4650493A48B5
:1031C00008F074F9206809F0E4FC3246002814BFC6
:1031D00033462B464B49344808F068F92668304698
:1031E00009F0D5FC002800F05B81304B2F4A46499E
:1031F0002D4808F05BF9206809F0CDFC2B4E2C4DD2
:103200004249002814BF33462B462A46264808F078
:103210004DF9206809F0C1FC3246002814BF33463E
:103220002B463B49204808F041F92668304609F012
:10323000B2FC002800F03C811C4B1C4A35491A485E
:1032400008F034F9206809F0AAFC184D184E2A46F7
:10325000002814BF2B4633462F49134808F026F99F
:10326000206809F09EFC2A46002814BF2B463346EE
:103270002A490D4808F01AF9206809F094FC2A46FA
:10328000002814BF2B4633462549074808F00EF99D
:10329000206809F08AFC2A46002814BF2B463346D2
:1032A00040E000BFD04A0020CA810100C381010074
:1032B000C7810100EF810100078201002182010026
:1032C0003B8201005C8201007C8201009A82010045
:1032D000B8820100DA820100F88201001483010043
:1032E000388301005A8301007F8301009C83010021
:1032F000A0830100BD830100DA830100F483010093
:103300000F84010033840100538401006B840100A9
:103310008F840100AF840100C7840100EB840100A9
:10332000078501006649674808F0C0F8206809F081
:103330003EFC2A46002814BF2B46334662496148AA
:1033400008F0B4F8206809F034FC2A46002814BFBD
:103350002B4633465D495B4808F0A8F8206809F021
:103360002AFC3246002814BF2B463346584955489C
:1033700008F09CF8206809F020FC2A46002814BFB9
:103380002B46334653494F4808F090F8206809F01F
:1033900016FC2A46002814BF2B4633464E4949489E
:1033A00008F084F8206809F00EFC4C4C002814BF8B
:1033B0002B46334632464A49424808F077F820689F
:1033C00009F003FC3246002814BF2B46334645491A
:1033D0003C4808F06BF8206809F0F9FB32460028F9
:1033E00014BF2B4633464049364808F05FF8206842
:1033F00009F0EFFB3246002814BF2B4633463B4909
:10340000304808F053F8206809F0E5FB2A46002808
:1034100014BF2B46334636492A4808F047F820683F
:1034200009F0DBFB2A46002814BF2B4633463149FE
:10343000244808F03BF8206809F0C3FB2A4600281E
:1034400014BF2B4633462C491E4808F02FF820683D
:1034500009F0C5FB3246002814BF2B4633462749E6
:10346000184808F023F8206809F0BBFB3246002812
:1034700014BF2B4633462249124808F017F802B011
:1034800070BD204B204A21490E484DE61D4B1E4A77
:103490001F490C485BE61B4B1B4A1E4909486FE657
:1034A000304609F076FB00287FF49FAE2B469DE660
:1034B000304609F072FB00287FF4BEAE2B46BCE616
:1034C0001D850100CA8101003B8501005E85010068
:1034D00080850100A2850100CA850100D04A002034
:1034E000F28501001A860100438601006C86010006
:1034F00091860100C6860100FA8601002987010035
:1035000046870100C7810100C381010038830100A3
:103510007F830100BD830100012838B50C4608DD1A
:103520004D6803221B49284611F08CFE50B91A4BF6
:103530001870194B1B7823BB18492068BDE8384028
:1035400007F0D4BF04221649284611F07BFE30B99B
:103550000122114B1A70134B134A1A60E9E7032238
:103560001249284611F06EFE20B902220A4B1A7049
:103570000F4BF1E720680F4A7021BDE8384008F092
:103580000DB8012B01D10C49D7E7022B01D10B4912
:10359000D3E738BDEB880100501A0020E388010012
:1035A000C2880100481A0020240000203BCA010004
:1035B0004C1A0020C7880100EF880100FC88010038
:1035C000084610B50A4986B08C684B780A7804948E
:1035D000CC8803948C88029491F9034001948978F3
:1035E00000910068034907F081FF06B010BD00BFDD
:1035F000240000207888010038B548680C4604F0A3
:10360000C3FE104D2870A06804F0BEFE6870E0682C
:1036100004F0BAFEA870206904F0BAFEE870606990
:1036200004F0B2FEA880A06904F0AEFEE880E06974
:1036300004F0AAFE2146A8600120BDE83840FFF74B
:10364000BFBF00BF240000202DE9F84307464868AB
:103650000D4604F099FE022486B2DFF86090A6F1D0
:103660000208BC420CDB124B9B783BB9114A124852
:10367000012312881149006809F00AF901200FE0BE
:1036800055F8240004F080FE08EB0403B3F5FC7F3A
:10369000C0B207D30A4A0521286807F07FFF00203F
:1036A000BDE8F88333194B4403F8020C0134D8E722
:1036B000E622002054110020D04A00205C0F002098
:1036C000558B01000846034A00231288024900680E
:1036D00002F0CCBF541100205C0F002010B50C4646
:1036E000FFF7B2FF28B12146BDE810400120FFF7E7
:1036F000E9BF10BD70B504460D46FFF7A5FF58B1F0
:10370000686804F041FE82B213192868023B03493D
:10371000BDE8704007F0EABE70BD00BF728B0100CB
:10372000022838B50C461EDD486804F02DFE05461B
:10373000A06804F029FE0F4B02469B783BB123683A
:103740000D4A1846BDE838400C4907F0CFBE0C4B77
:10375000E9B2186808F0BCFA0A4A07492368002849
:1037600018BF0A46EDE72068074A0521BDE8384042
:1037700007F014BFE6220020C38A0100CB8A0100B3
:10378000D04A0020C78A0100DE8A010070B548686F
:103790000D4604F0F9FDB0F5FC7F034606D9286814
:1037A0000C4A0621BDE8704007F0F8BE0A490B4CF0
:1037B000897882B2228029B9094801230949006821
:1037C00009F066F8228828680749BDE8704007F0CC
:1037D0008DBE00BF378B0100E6220020541100206F
:1037E000D04A00205C0F0020498B01000846034AA4
:1037F000002312780249006802F038BF7F000020E1
:103800003F0000202DE9F843074648680D4604F0C4
:10381000BBFD022486B2DFF85490A6F10208BC4238
:103820000CDB114B11491A78114B186809F00CF890
:103830002946BDE8F8430120FFF7D8BF55F824001A
:1038400004F0A2FD08EB04033F2BC0B206D92868A0
:10385000084A0521BDE8F84307F0A0BE33194B44E0
:1038600003F8020C0134DAE77F0000203F0000205B
:10387000D04A0020968A010070B548680C4604F0D2
:1038800083FD4028034606D920680A4A0621BDE880
:10389000704007F083BE084B084DC2B20849186853
:1038A0002A7008F0D1FF2A7820680649BDE87040E8
:1038B00007F01CBE378B0100D04A00207F0000209B
:1038C0003F000020498B010038B500200C460968F4
:1038D00004F0BAF8B0B12168012004F08FF988B182
:1038E000606804F051FD084B81B2186808F0EFFDE4
:1038F000054603F0D3FD2A4620680449BDE8384058
:1039000007F0F4BD38BD00BFD04A0020B48A0100E2
:1039100070B500200C46096804F096F800284DD0D8
:103920002168012004F06AF9002847D00023666866
:10393000234D0322234930462B706B7011F082FC1B
:10394000B0B9A870A66803221E49304611F07AFC6F
:10395000E8B9E8701C4B1A49186808F095FF03464F
:1039600020B32068194A5021BDE8704007F016BE08
:1039700004221749304611F065FC10B90123AB70E1
:10398000E0E7144A5021206807F008FEDAE7042235
:103990000F49304611F056FC10B90123EB70D9E7FE
:1039A0000C4A5021206807F0F9FDD3E7D4E9012340
:1039B00020680949BDE8704007F098BD70BD00BFA0
:1039C000E62200202C890100D04A00204F89010006
:1039D0005CBC0100308901007F89010013B50C46F1
:1039E0000120096804F00AF978B1606804F0CCFCA1
:1039F00080B2B0F5007FADF8060008D94FF400732F
:103A00000D4A5421206807F0C9FD02B010BD0B4BD0
:103A10000DF106020A49186808F042FF28B1094A68
:103A20005521206807F0BAFDEFE7BDF806200649EA
:103A3000206807F05BFDE8E7ED8A0100D04A00202E
:103A4000541A0020128B0100298B01004FF40073DF
:103A500007B502AA22F8023D044908F021FF022816
:103A600008BF002003B05DF804FB00BF541A00201B
:103A700037B5134B48680093124B0C46019304F082
:103A800083FC003018BF01200F4D2870A06804F09F
:103A90007BFC003018BF01200C4B2A78187002AB59
:103AA00003EB800003EB820252F8082C50F8083C2C
:103AB0000749206803B0BDE8304007F017BD00BFDC
:103AC000FC6E01007BF001006125002050250020E4
:103AD000978901002DE9F04F644B95B01B7804469F
:103AE0000E463BB9624A5121306807F057FD15B0C8
:103AF000BDE8F08F486804F047FC8346B06804F0E6
:103B000043FC032C074619DDF06804F03DFC10F17E
:103B1000000818BF4FF00108B8B2283004F086F949
:103B2000824604F0A3F9534D044650B90121286898
:103B300008F010FF504604F0B1F9D8E74FF0000844
:103B4000EAE701464FF0010901F8289B4162BAB249
:103B5000286808F0A9FEE083BBF1000F00F0818027
:103B600049460AAA286808F0A3FE9DF8283004F107
:103B7000080781462377B8F1000F63D040F2024373
:103B8000ADF8183006234FF000088DF81A303A4B84
:103B90000DF1380B93E8070007AB83E80700E38BD0
:103BA000E36006AB18F803204946227428683A46B9
:103BB000059308F088FEA268059B4BF8282008F1C1
:103BC0000108B8F1030FEDD13A464946286808F0DC
:103BD0007EFE4FF000080DF1400BA36828684BF8FB
:103BE000043F07AB53F828305A46E18B08F101082F
:103BF0009847B8F1030FF0D1139B20490393129B10
:103C000030680293119B4FF000080193109B0093C2
:103C1000DDE90E2307F06AFC4946286808F09AFEA1
:103C2000B8F1000F1DD014220021384611F03DFBE1
:103C30008023A375E38BA3B9114A5221306807F0A2
:103C4000ADFC77E701463A46286808F040FE80461A
:103C50000028E1D13A46E18B286808F04FFE804603
:103C6000DAE75146074804F060F940E750250020A4
:103C70000F8A0100D04A002008890100458A01000E
:103C80007A8A01001C3E002073B5134B48680093EC
:103C9000124B0E46019304F077FB041CB06818BF6A
:103CA000012404F071FB051C18BF01250C4B2A46AA
:103CB0002146186808F069FE02AB03EB840403EBAD
:103CC000850555F8083C54F8082C0649306802B0C0
:103CD000BDE8704007F00ABC828B010030BC0100D7
:103CE000D04A0020B78901000E4B10B51B780C4656
:103CF00033B920680C4A5121BDE8104007F04EBC92
:103D000001210A4803F0A6FB094B0A48198801392A
:103D100089B203F09FFB20680749BDE8104007F017
:103D2000E5BB00BF612500208C8B01005C0F0020EB
:103D3000541100205D0F0020C28B010010B54868AF
:103D40000C4604F021FB044B02461860034920682E
:103D5000BDE8104007F0CABB3025002014890100DF
:103D600070B5064686B048680C4604F00DFB85B277
:103D70000A2D06D95221114A206807F00FFC06B01F
:103D800070BD022E10DDA06804F0FEFA80B2009033
:103D90000B482B4603AA0121006808F008FEA84240
:103DA00004D0084A5321E7E70020F0E700232A4621
:103DB00003A9206802F05AFCE1E700BFCB890100AB
:103DC000D04A0020E989010070B5002304240225AF
:103DD000012650F823201278542A15D007D8492AF2
:103DE0000BD0522A0ED001200BE00123F1E7722AFA
:103DF00008D0742A08D0692AF5D1CE54002BF4D00B
:103E0000002070BDCD54F9E7CC54F7E70B4B10B54B
:103E100018680C4608F01CFBC30706D52068084A42
:103E20001221BDE8104007F0B9BB064B20681A8884
:103E30000549BDE8104007F059BB00BFD04A00203B
:103E4000328C0100D0200020578C010070B54868EA
:103E50000D4604F099FA0C4B044681B2186808F03C
:103E60007BF8A3B230B12868084A1121BDE8704040
:103E700007F094BB184602F075FA2946BDE8704079
:103E80000120FFF7C3BF00BFD04A0020108D010002
:103E9000012837B50C4626DD486804F079FA43F668
:103EA000FF7347F6FE7205B2184480B290420AD9F9
:103EB0000193124B124A009301212B46206807F010
:103EC0006DFB03B030BD0F4B2946186808F00DFBA1
:103ED000014630B10C4A206803B0BDE8304007F01D
:103EE0005DBB0A4B1D80094B0949B3F900202068CE
:103EF00003B0BDE8304007F0F9BA00BF01C0FFFFD2
:103F0000598D0100D04A00207D8D0100541C0020F5
:103F10009C8D01001FB50C460D4B02A9186808F0D6
:103F200062FBBDF80C3024680193BDF80A309DF89F
:103F300008200093074B084953F82230074A00280D
:103F400008BF0A460649204607F0D0FA04B010BD63
:103F5000D04A0020008D0100EE760100868C010021
:103F60008C8C010070B548680C4604F00DFAC5B29F
:103F7000022D07D92B462068124A1321BDE8704054
:103F800007F00CBBA06804F0FFF90646E06804F0F7
:103F9000FBF90D490D4B888018680D704E8008F0B4
:103FA0000BFB38B90A4B21461D700120BDE870405B
:103FB000FFF7B0BF2068074A2621BDE8704007F030
:103FC000EDBA00BFDD8D010032000020D04A002094
:103FD000561C0020008E010070B5084C0D6820684A
:103FE00008F0E6FA0646206808F026FB324603464B
:103FF00003492846BDE8704007F078BAD04A00204F
:104000006F8C010073B504460D460120096803F06A
:10401000F5FD00283DD0022C6E681F4C1DDD1F49A8
:10402000A86811F006FBC0B9304604F0ADF9C6B27D
:104030003146206808F0A7FA30BB194B1E70206883
:1040400008F0B6FA0646206808F0F6FA324603464B
:104050001449286807F04AFA1BE0304604F098F942
:1040600006B23146206808F0C2FA68B9694620688D
:1040700008F0B9FA40B932469DF80010206807F000
:104080007DF8074B1870DAE7074A2321286807F004
:1040900085FA02B070BD00BFD04A0020C48D010077
:1040A000300000206F8C0100C88D01002DE9F7431E
:1040B0000F46264C2649386807F018FA69462068EA
:1040C00008F091FA9DF800307BB3012B25D10F2623
:1040D0000125DFF88C90DFF88C802A464946386845
:1040E00007F004FA01220321206807F0E1FDE9B29C
:1040F000206808F048FA0022B8F80010206807F09D
:1041000086FE11F069F8C0B20A2810D00D280ED032
:104110007128F6D10F4A202101E021210E4A38688A
:1041200007F03CFA03B0BDE8F0838026D0E7012217
:1041300003212068013507F0BBFDEBB29E42CCD2D3
:104140000649386807F0D2F9ECE700BFD04A0020F2
:10415000FF8E0100628F0100418F0100718F01000D
:10416000548F0100D0200020064B10B518680C4673
:1041700008F017FB044902462068BDE8104007F02C
:10418000B5B900BFD04A0020628C010038B50120CB
:104190000C46096803F032FD70B1084B60681D6879
:1041A00004F0F2F80146284608F0F7FA2146BDE887
:1041B00038400120FFF7D8BF38BD00BFD04A0020EB
:1041C00070B548680C4604F0DFF80546A06804F0B6
:1041D000DBF80C4BC6B2EDB229463246186808F03F
:1041E000E4FA014638B933462A4620680649BDE854
:1041F000704007F07BB92068044ABDE8704007F0C2
:10420000CDB900BFD04A0020AA8D0100658701000A
:1042100038B548680C4604F0B7F8C5B2281C18BF7A
:10422000012008F035FA054B054A2068002D08BF2B
:104230001A46BDE83840034907F058B9FC6E010042
:104240007BF00100298C010013B50C466946201D46
:10425000FFF7BAFD30B10F4A1621206807F09EF92A
:1042600002B010BD9DF8003001A98DF804309DF812
:1042700001308DF80530084B186808F004F9074B39
:10428000074A0849002808BF1A46206807F02EF997
:10429000E6E700BFC78E0100D04A0020C78A0100B0
:1042A00065870100D68E010013B50C460120096810
:1042B00003F0A4FC48B16946201DFFF785FD30B12D
:1042C000114A1621206807F069F902B010BD9DF867
:1042D000003001A98DF804309DF801308DF80530CB
:1042E0000A4B186808F0EBF818B99DF80020084B45
:1042F0001A70084B084A0949002808BF1A46206866
:1043000007F0F4F8E1E700BFC78E0100D04A0020B3
:10431000540F0020C78A0100658701002E8E01001E
:1043200037B50F4B0C46186801A908F0CCF880B9D6
:104330009DF8040003F056FC05469DF8050003F0C7
:1043400051FC2A4603460749206807F0CFF803B01E
:1043500030BD054A2821206807F020F9F7E700BFA3
:10436000D04A0020B68C0100CA8C010037B50F4B33
:104370000C46186801A908F09EF880B99DF8040061
:1043800003F030FC05469DF8050003F02BFC2A469F
:1043900003460749206807F0A9F803B030BD054A75
:1043A0002721206807F0FAF8F7E700BFD04A00207D
:1043B000B68C0100E48C0100002370B506460D4662
:1043C00001248AB0CDE904330693B44233DBBDF84F
:1043D000103007A9ADF81C30BDF81230ADF81E3012
:1043E000BDF81430ADF82030BDF81630ADF82230ED
:1043F000BDF81830ADF82430BDF81A30ADF82630CD
:10440000154B186807F0A4FD00BBBDF82610BDF8D9
:1044100022300391BDF82410BDF81C200291BDF894
:104420001E1028680191BDF8201000910B4907F07B
:104430005DF80AB070BD55F8240003F0A5FF04AB89
:1044400003EB440323F8020C0134BEE7044A1821AD
:10445000286807F0A3F8ECE7D04A00203F8E01005F
:10446000868E010010B50D4B0C469B78012B06D0B3
:1044700020680B4A1921BDE8104007F08FB8486842
:1044800003F082FF074B81B2186808F066FA06490C
:1044900002462068BDE8104007F028B8E622002058
:1044A0009D8E0100D04A0020B48E010010B54868EE
:1044B0000C4603F069FF064B81B2186808F051FA08
:1044C000044902462068BDE8104007F00FB800BF5D
:1044D000D04A00201B8E01002DE9F74F05464868A1
:1044E0000C4603F051FF0646A06803F04DFF042D73
:1044F0004FF0000780464FF000090EDDE06803F042
:1045000043FF074320694FF0000A03F03DFF46EAEE
:104510000A0648EA0A0849EA0009CDE900890E4975
:1045200032463B46086807F0D6FF042D0ADDCDE988
:10453000009833463A460949206806F0D7FF03B091
:10454000BDE8F08F434632460549206803B0BDE818
:10455000F04F06F0CBBF00BFD04A0020258D0100F0
:10456000438D01002DE9F04148680D4603F00CFF32
:10457000064604F0B5FF074608F07CFA04463046CC
:1045800008F07CFA064608F075FA041B384604F079
:10459000ABFF0649064A2346002E18BF0A46286884
:1045A0000449BDE8F04106F0A1BF00BFCE9801006C
:1045B00034990100D68B01000B46024A012118688C
:1045C00006F0ECBFF08B0100FFF7F6BF2DE9F041DC
:1045D00004460F4608F07CF8F8B9224B7A68224D61
:1045E0009A4294BF0326214B297888BF1E78B14296
:1045F00013D01F4B03291A7808BF3146204606F016
:104600001BFE1949804620462E7007F0D5FF024652
:10461000C8B94146204607F0EAFF002315491A466B
:10462000204607F045FC144B1B7893B101224FF054
:10463000FF31104807F048FC02280AD10F49104802
:1046400006F054FFFEE77B680E490F4806F04EFF68
:10465000E3E70E4AD2F888300133C2F88830BDE86B
:10466000F08100BFFFC99A3B32000020561C002099
:1046700030000020E8210020571C0020E58F0100B9
:10468000059001009B8F0100D98F0100F8210020C7
:1046900007B50DF1060107F078FC20B9BDF806005A
:1046A00003B05DF804FB0020FAE700001FB50446E4
:1046B0000C4A01AB1068516803C39068186020462B
:1046C00008F0A8FD204608F0C3FDFC21204607F0B5
:1046D0005AFF01A9204607F03BFC2046FFF7D8FF10
:1046E00004B010BD848F01002DE9F043002589B08E
:1046F000894608A941F8205D0446174608F0C4F829
:104700004FF42873ADF80A3040F20223ADF80C30B4
:10471000ADF80E306423ADF81030ADF81430C0237E
:10472000B6224FF00108ADF816300B2301AE31462A
:104730002046ADF812208DF81C3001958DF80880C8
:10474000ADF81850ADF81A508DF81D508DF81E5068
:1047500008F038FC4146204608F0BCFC2046B9F180
:10476000000F32D077B308F065FC0B221A4F1B4DB7
:10477000B9782A8021B901231949204608F088F820
:104780003346184A5168106803C31189927A198018
:104790009A700023124AF15C995401330B2BFAD121
:1047A000BB782BB901232A880D49204608F070F800
:1047B000FC21204607F0E7FE2046FFF769FF09B01D
:1047C000BDE8F08308F032FCCFE717B108F036FC03
:1047D000CBE708F027FCC8E7E622002054110020B0
:1047E0005C0F0020908F01000B46024A22211868BE
:1047F00006F0D4BE8B7B0100FFF7F6BF30B50D4647
:1048000085B02E4A0021044607F0E6FD092D0ED89A
:10481000DFE805F0050D0D112A3945484E51284AAB
:104820002221284806F0BAFE002005B030BD2046FF
:10483000FFF73CFFF9E7244A01AB1068516803C356
:1048400090681860204608F0E5FC204608F00CFD52
:10485000FC21204607F097FE01A9204607F078FBCF
:104860002046FFF715FFE0E7174A01AB10685168D3
:1048700003C390681860204608F0CCFC0021204655
:1048800008F0FEFCE4E7104A01AB1068516803C36E
:1048900090681860204608F0BDFC0221EFE7002276
:1048A000114601E0002201212046FFF71DFFBCE771
:1048B00001220021F8E70122F2E700BFCD45000008
:1048C0008B7B010011900100848F0100032838B513
:1048D00005460F4C09D1206808F0C9FB10B12068CB
:1048E00008F0B4FB062D09D138BD206808F0A7FCFC
:1048F00010B1206808F09FFC052DECD1206808F06D
:104900000BFD0028F0D02068BDE8384008F002BD5B
:10491000D04A002010B501200C46096803F06EF95A
:1049200070B1084B186807F0CFF9074A074B0849E0
:10493000002808BF1A462068BDE8104006F0D6BD22
:1049400010BD00BFD04A0020FC6E01007BF00100CA
:1049500025900100012873B50D46124E124C12DC51
:1049600034602378114A002B0F4B08BF1346104ABE
:10497000009328680F4B104918BF13460F4A06F0E2
:10498000B5FD02B070BD486803F0FEFC346000283D
:10499000E7D012210A4A286802B0BDE8704006F04C
:1049A000FDBD00BF38000020581C002065900100AC
:1049B000188801005D9001008A9001008690010036
:1049C0006C90010001282DE9F74F0F460BDD486878
:1049D00003F0DAFC38B11221334A386803B0BDE87D
:1049E000F04F06F0DBBD00244FF48062A3462F4B4E
:1049F0002F4DDFF8DC80DFF8DC901A802C7040F25D
:104A0000FE3AD34504D900232B703868294B38E08F
:104A100010F0E2FBC6B2731EDBB2FD2BF1D898F8A2
:104A200000300BF1010405F80B60A4B2002B38D064
:104A3000304610F05BFC0D2E0AD198F8003013B10F
:104A40000A2010F053FC0A232B550BF10204A4B2E8
:104A5000082C24D9A4F109060922A919484610F006
:104A6000FAFDE0B998F8003013B1134810F0AEFC2D
:104A700000230F48AB5510F0E6FD104B1880386846
:104A80000F4B2C780F490A4A002C08BF0A460E49E2
:104A900000920E4A06F02AFD03B0BDE8F08FA3464F
:104AA000ADE70D2ED4D1CEE76C9001005A20002046
:104AB000581C00205D9001005B90010058200020F0
:104AC00018880100659001008A900100869001001D
:104AD0009E0D002051900100012810B50C460ADD02
:104AE000486803F051FC30B12068094A1221BDE842
:104AF000104006F053BD0023064A07491370074AC9
:104B000020681380BDE81040054B064A06F0EEBC55
:104B10006C900100581C00203B90010058200020A0
:104B20001888010086900100012870B50C46154ECA
:104B3000154D17DC35602A780AB3134810F083FD51
:104B4000124B012218800023114920680B80114963
:104B5000114BBDE87040002A18BF0B460F4A1049A0
:104B600006F0C4BC486803F00FFC35600028E2D0B2
:104B700020680C4A1221BDE8704006F00FBD4FF4CA
:104B80008063E1E738000020581C002058200020F6
:104B90005A200020AA9001005D900100869001003B
:104BA0003B9001006C90010070470000012330B57C
:104BB000022885B00D468DF80F300CDD0DF10F0188
:104BC000A86800F00BFF30B90F4A0321286806F0EF
:104BD000E5FC05B030BD07F04DFF0C4C2060686867
:104BE00003F0D2FB0A4B9DF80F20186012B922681F
:104BF000801A18601B6822682868D118009105493E
:104C000006F074FCE5E700BFB290010060200020D0
:104C10005C200020C4900100F8B506462820174605
:104C200003F004F9054603F021F9044620B90B4AC4
:104C3000136801331360F8BD03230761037007F0A5
:104C400019FF0021A060304607F0C1F82946E06056
:104C50000348BDE8F84003F068B900BFA82200206F
:104C60001C3E00202DE9F341124D8846286807F0CC
:104C700080F80446286807F075F80746286807F0AA
:104C800063F8064607F0F6FE0B490C4AD8F80050C8
:104C9000002C14BF14460C46002F08BF0A463346AA
:104CA000CDE9004206490246284606F01FFC02B044
:104CB000BDE8F081D04A0020CE980100349901006F
:104CC000D5910100F8B500200C46096802F0BCFE41
:104CD00010B3606803F058FB10490646A06810F056
:104CE000A8FC07460E4D286807F035F83A1C18BF97
:104CF00001220C4B3146286807F018F830B12068C3
:104D0000094A4021BDE8F84006F048BC2146BDE80C
:104D1000F8400120FFF7A6BFF8BD00BF20920100B8
:104D2000D04A0020D16000002492010010B500207C
:104D30000C46096802F088FE48B1054B186807F078
:104D40000AF82146BDE810400120FFF78BBF10BDD7
:104D5000D04A00202DE9F043486885B00F4603F0A3
:104D600013FBC6B2022E08D903231021184A386853
:104D700005B0BDE8F04306F011BC1824154B04FB48
:104D80000634204607F011F80546204607F016F8CD
:104D900000218146204607F01AF8804607F06AFE97
:104DA0000D490E4A3C68002D0CBF15460D46B9F161
:104DB000000F18BF0A460095CDE90126434602467A
:104DC0000749204606F092FB05B0BDE8F08300BF1E
:104DD000479101006420002034990100CE98010021
:104DE0008C91010070B500200C46096802F02CFE81
:104DF000E0B1606803F0C8FA0546003018BF012032
:104E000006F070FF58B10A490A4A2068002D08BF11
:104E10000A46BDE870400323074906F067BB2068D7
:104E2000064A1021BDE8704006F0B8BB70BD00BF57
:104E300070D1010062A80100EA9001000691010012
:104E4000F7B50C460020096802F0FEFD002837D0B7
:104E5000606803F099FAC5B2022D08D90323102126
:104E6000184A206803B0BDE8F04006F097BBA06880
:104E700003F08AFA14490646E06810F0DAFB134B97
:104E80000746186806F067FF3146182610483A1C96
:104E900018BF012200950F4B06FB050006F070FFBE
:104EA00038B140210C4A206803B0BDE8F04006F05C
:104EB00075BB2146012003B0BDE8F040FFF74ABFB3
:104EC00003B0F0BD4791010020920100D04A0020BC
:104ED00064200020194C00000B92010010B5002046
:104EE0000C46096802F0B0FD08B3606803F04CFAA4
:104EF000C3B2022B07D920680323BDE810400C4A37
:104F0000102106F04BBB18200A4A00FB032006F0D4
:104F100043FF28B12146BDE810400120FFF71ABF2A
:104F20002068054A1021BDE8104006F037BB10BDCF
:104F300047910100642000202A910100034AD36DAB
:104F4000013308BF0123D365704700BFF82100205B
:104F500010B50C46486803F017FA2168BDE8104008
:104F600002F0EABDFFF7F4BFF0B5012887B00D46A7
:104F70001C4C03DD486803F007FA206021681A4BD7
:104F80001A4C11F0010F0CBF22461A4611F0020F05
:104F900008BF234601F01804082C2868C1F38007D5
:104FA0001ED0134D134E102C18BF35460E4C0F4E0D
:104FB00011F0200F14BFA446B44611F0400F14BFE7
:104FC000A646B64611F0800F08BF3446CDE9015C15
:104FD000CDE903E40097084906F088FA07B0F0BD70
:104FE000064DE3E72025002034990100CE9801000A
:104FF00041920100349201004A920100389201006E
:1050000010B548680C4603F0BFF9054B011C186049
:10501000226818BF0121BDE81040072002F016B831
:10502000142300200B46034A03491268186806F04F
:105030005DBA00BFF80C0020DF92010010B548688F
:105040000C4603F0A1F9044B2146BDE8104018605E
:105050000120FFF7E7BF00BFF80C002038B5486813
:105060000D4603F091F90B4C011C18BF012120687B
:1050700007F010FB20682D6807F010FB064B074A6D
:105080000749002808BF1A462846BDE8384006F000
:105090002DBA00BFD04A0020FC6E01007BF0010059
:1050A0002695010010B548680C4603F06DF9084BD1
:1050B00081B2186807F0F6FA064A074B074900283C
:1050C00018BF1A462068BDE8104006F00FBA00BFAE
:1050D000D04A0020188801005D9001001C95010055
:1050E0000C4B10B518680C4607F0E6FA236860B15F
:1050F00003280CD0084A0949022818BF0A46BDE80F
:1051000010400749184606F0F1B9064AF7E7064A83
:10511000F5E700BFD04A00203F9601005D900100F6
:105120001C9501001888010032960100002310B57B
:105130000C4686B0CDE9033305930B4B03A91868E1
:1051400007F0BEFA059A24680192049A0749009272
:10515000074A9DF80C30002808BF0A46054920463A
:1051600006F0C4F906B010BDD04A0020188801002E
:105170005D900100AC92010030B5054685B00C464B
:105180000120096802F03AFD00B300236068CDE910
:105190000133039303F0F8F88DF80400A06803F0DE
:1051A000F3F8032D029002DDE06803F0EDF8084B00
:1051B000039001A9186807F087FA064A064B0749C9
:1051C000002818BF1A46206806F090F905B030BDD7
:1051D000D04A0020188801005D9001001C95010054
:1051E000F7B548680C4603F0CFF8054601F028FFF4
:1051F0000E2808D13DB11D212A4A206803B0BDE820
:10520000F04006F0CBB901F01BFF04280AD1264E6E
:10521000306806F04BFD8DB90128244F20D80023BB
:105220003B702BE001F00CFF0E28F0D0216800202D
:1052300002F00AFC0028EAD103B0F0BD10F002022F
:1052400029D11B4B3068198806F0E9FD034610B3DD
:105250002821184A206803B0BDE8F04006F09EB946
:105260002A460121306806F023FD01F0E9FE0E28F0
:10527000D5D12A46294602F00FFC3D7026680E4D16
:105280000E4C07F0F7FB234600902A460C493046A7
:1052900006F02CF9D0E70122044B26681A70074D5E
:1052A000054CEEE75C930100D04A0020F522002077
:1052B000D02000209C930100FC6E01007BF00100D7
:1052C000869301002DE9F047012886B00C4615DDD4
:1052D000486803F059F8254B054602464FF0FF3168
:1052E000186807F013F938B11F21214A206806B069
:1052F000BDE8F04706F052B91E4B1D60DFF874A000
:105300001D49DAF8000025681C4C10F0010F0CBF95
:105310000E46264610F0020F0CBF0F46274610F02F
:10532000040F0CBF8846A04610F0080F0CBF89463A
:10533000A14610F0100F08BF0C4602F09DFCDAF8F1
:1053400000300F4913F0800F0E4BCDE9019408BFD8
:105350001946CDF80080CDE903013B4632460A49A3
:10536000284606F0C3F806B0BDE8F087D04A002012
:105370008E94010000230020CE9801003499010092
:10538000C5B501008B9401009F940100F8B5074654
:1053900048680C4602F0F8FF00230C4A0C4D022F1F
:1053A000C6B213702B6008DDA06802F0EDFFC0B23A
:1053B00001280CBF102308232B60311C226818BF62
:1053C0000121BDE8F840012001F040BE5711002046
:1053D00028250020F8B5074648680C4602F0D4FF9F
:1053E0000023144D032FC6B22B6015DDE06802F0D8
:1053F000CBFFC0B201280CBF102308232B60A0688C
:1054000002F0C2FFC0B2022808D920680A4A01216E
:10541000BDE8F84006F0C2B8F1D00120074B311CBE
:105420001870226818BF0121BDE8F840012001F082
:105430000DBE00BF28250020339501005711002024
:1054400010B548680C4602F09FFFC1B200312268D7
:1054500018BF0121BDE81040042001F0F7BD000095
:1054600070B548680C4602F08FFF054601F0E8FD74
:10547000042806D02068194A0721BDE8704006F0CC
:105480008DB8174E00220121306806F011FC15F08E
:10549000FF020FD0002313491A460988306806F02E
:1054A0009FFCC0B10346104A20680821BDE8704047
:1054B00006F074B80D4B1B7833B10A4B306819886D
:1054C00006F0ADFC0028EDD12068094A0949BDE885
:1054D000704006F00BB82068074AF7E746940100D1
:1054E000D04A0020D020002069940100F52200203D
:1054F000FC6E01005D9401007BF001002DE9F04F8E
:1055000007468BB048680C4602F03EFF00F07F056E
:10551000042D814600F262810CBFB44BB44B042FC2
:105520000493B44E40F38A80A06802F02DFF042853
:1055300000F28180A06802F027FF5FFA80FBE0683C
:1055400002F022FF8046206902F01EFF00F02300D7
:10555000307018B1BBF1000F40F099800027377010
:10556000012D0ED900F03AFD4FF04022D36E03F02A
:105570003003202B1FBFD36E23F0300343F0100302
:10558000D3669D4B9D4A9E49042D08BF1A46337829
:10559000C3F3401051F8201003F00303029199491E
:1055A000206851F823309849CDE90023049B2A460E
:1055B00005F09CFF00F030FC03F092FF012D8246C5
:1055C00005D9002201231146104604F045F9012FA8
:1055D0004FFA89F3DFF86C925BD0022F67D1002B72
:1055E0008A4BB8BF0023327807A9D9F800008DF89C
:1055F0001C208DF81DB0CDF82080099306F061FBCA
:1056000001220023CDE900221146184604F0D0F80B
:1056100000227F4B7F4E9B463270DFF82C821A703F
:105620006B1E0593059B032B51D8DFE813F049004F
:10563000C700CB00CF004FF0000B80E7022F03DC48
:105640004FF00008C34689E7A06802F09DFE724B48
:10565000042F18601F4605D1E06802F095FE00F0A7
:10566000230030703378002BEAD03B68002BE7D062
:105670004FF000080127C346226801210B2002F0E9
:105680000BFA00287FF46CAF0BB0BDE8F08F022757
:10569000F2E7614F002B3A685C4B3178B8BF0023CA
:1056A000D9F8000006F008FB38600028A8D101F006
:1056B000C7FC0B28A4D10022114601F0C7FC9FE7CC
:1056C000D8F8103023F00403C8F8103030BF50462B
:1056D00003F00AFF03F004FF8246D9F8000006F049
:1056E000FBFA074628B933781BB99BF80030002B2A
:1056F00098D0504603F0F8FE01F0A2FC0B2803D12D
:105700000022114601F0A2FC4FF0010A4FF0000800
:105710005246CDE900A843465146404604F048F8B9
:10572000554505D9534604224146404604F094F8B5
:1057300032783A499BF80000394B002A14BF1A46C8
:105740000A46002F14BF1F460F46002808BF0B460D
:10575000314934480968CDE90027CDE902312A46AC
:10576000049B314905F0C2FE337863B1012D30D975
:105770002E4800F045FB0FF02FFD0FF02DFD0FF030
:105780002BFD0FF029FD2A4B1B7863B1294B00221A
:105790001988D9F8000006F042FB20B1264A012101
:1057A000206805F0FBFE012D7FF66EAF234B1B78C2
:1057B000DB077FF569AF00F065FC65E7012003F0CA
:1057C000EDFE84E7012003F00BFF80E703F092FF7A
:1057D0007DE70FF001FD0028FBDBD4E72B46184ADC
:1057E0000121206805F0DAFE4EE700BF04F1010058
:1057F00054790100AC200020C5B501008B94010054
:1058000054930100FC920100799501003D4F000086
:1058100060250020C1200020B0200020C7810100A9
:10582000C3810100E5950100AD95010090D0030012
:10583000F5220020D0200020EF9501009C0D0020D3
:1058400013960100D04A002000ED00E02DE9F0435E
:10585000032887B004460D464EDD486802F094FDEB
:10586000042847D8686802F08FFDC7B2A86802F024
:105870008BFD0646E86802F087FD3B4B00F02304F1
:105880001C701CB1002F0CBF00240224211C18BF67
:1058900001212A680B2002F0FFF840B3012CDFF849
:1058A000C880DFF8DC9045D0022C50D198F8003049
:1058B00003A98DF80C302D4B8DF80D7005932C4BF2
:1058C0000496186806F0FDF998F80030294A03F0AC
:1058D0000301C3F3401352F82330274A009352F8D0
:1058E0002120D9F800302549286805F0FFFD07B0D0
:1058F000BDE8F0830027B9E7012817DD486802F00A
:1059000043FD1F4E032C3060174C05D1A86802F0F0
:105910003BFD00F02300207024781CB13468003473
:1059200018BF01240026E4B23746AFE70026374609
:105930003446ABE70E480D4BD9F8002098F800101C
:10594000006806F0B9F9C9F800000028BCD10024AD
:1059500088F8004001F074FB0B28B5D1224621469F
:1059600001F074FBB0E700BFAC2000203D4F000009
:10597000D04A002054930100FC9201000C930100D6
:10598000B020002010B501F05BFB0B28044618D1B5
:105990000C4B186806F0A0F998B100222046114679
:1059A00001F054FBBDE81040074B08491A78084B3A
:1059B00002F0030251F822201B680649064805F050
:1059C00095BD10BDD04A0020AC200020FC92010003
:1059D000B02000202F9301004393010038B5054605
:1059E0000C4601460D480FF0F9FD18B9022323704B
:1059F000012006E029460A480FF0F0FD10B9012009
:105A0000207038BD294607480FF0E8FD08B920701E
:105A1000EEE7022300202370F3E700BFF4920100B9
:105A2000F892010020920100002337B5054648682E
:105A30000C46CDE9003302F0A7FC022D009012DDE8
:105A400001A9A068FFF7CAFF30B90D4A1C212068E0
:105A500005F0A4FD03B030BD032D04D0E168094872
:105A60000FF0BCFD50B1002368468DF8053001F001
:105A7000A1FE2168062002F007F8EBE70123F3E717
:105A8000B2900100E09601002DE9F0410C460021A2
:105A900086B00646084601F0D7FF014658B90E20E9
:105AA00001F0D2FF38B91E21344A206805F076FD96
:105AB00006B0BDE8F081606802F066FC8046E068F0
:105AC00002F062FC0DF106010746A068FFF786FFB1
:105AD00010B92B4A1921E8E70DF107012069FFF7FA
