:100000000010002035510000315100003151000036
:1000100011950000315100003151000031510000B4
:1000200031510000315100003151000031510000C8
:1000300031510000315100003151000031510000B8
:10004000C1590000D9DD00003151000031510000DC
:1000500029D5000045DE0000E5DD0000FDDD0000E3
:10006000DDDD00003156000009570000315100006D
:10007000BD5000004D2300003151000031510000FF
:1000800031510000E52000003157000031510000DF
:100090003151000031510000315100003151000058
:1000A0003151000031510000315100003151000048
:1000B00049DE0000E1DD000055F400003151000090
:1000C00089DE00003151000059C9000031510000A3
:1000D0003151000031510000315100003151000018
:1000E000315100003151000010B5054C237833B96F
:1000F000044B13B10448AFF300800123237010BDFB
:10010000D014002000000000F831010008B5034BB6
:100110001BB103490348AFF3008008BD0000000095
:10012000D4140020F8310100154B002B08BF134BED
:100130009D46A3F5803A00218B460F461348144A8A
:10014000121A10F0BDF90F4B002B00D098470E4B40
:10015000002B00D098470020002104000D000D481E
:10016000002802D00C48AFF3008010F03DF92000C9
:10017000290002F025F910F023F900BF0000080063
:10018000001000200000000000000000D01400203B
:10019000F8410020000000000000000008B50B4BF3
:1001A000DA6C42F00102DA64094A4FF4005111603E
:1001B00001225A64196C074B1960074B1A70074BE0
:1001C0001A701421112003F069FA08BD00000140E3
:1001D00000E100E0DC1D0020F920002018210020B3
:1001E00070470000F8B5204B1B78204A1678B342C0
:1001F00007D000271E4AD36C23F00103D3640023E9
:100200000AE00127F6E7184C2278551C2570CD5CD2
:10021000184CA5540133DBB28342F4D3144AD36C97
:1002200043F00103D364144A92F8B132013382F8E7
:10023000B13207B9F8BD0C4B1B789E42FAD00C4C7A
:10024000E36C23F00103E364721C084B1A70094B42
:10025000995D204607F0A8FAE36C43F00103E364DC
:1002600001236364E6E700BF14210020E11D0020A4
:1002700000000140E81F0020DC30002008B500230A
:1002800004220C21032006F0B1FE08BD08B5134B73
:100290001B78022B10D0032B17D0012B00D008BDE8
:1002A000FA210B2003F0FAF90D4B4FF480521A603B
:1002B0000A4B02221A70F2E70B2003F0F7F900282C
:1002C000EDD0064B03221A70E9E7064B4FF480523B
:1002D0001A60024B00221A70E1E700BF9C21002047
:1002E0009CA000469CA000441D4B93F8AB30012B12
:1002F00000D070471A4B93F8A730012BF9D1194B56
:100300001B689978164A92F8AA209142F1D159783F
:10031000134A92F8A9209142EBD11A78104991F82A
:10032000A81002F00F029142E3D1DB780E4A127856
:10033000934210D00D4A012111700B4A13700849E5
:100340000A4652F8AC3F013309480360094802608D
:10035000C1F8AC30CDE7064A1268002AEAD0C8E7F7
:10036000DC300020443B0020892100209C2100201B
:10037000902100209821002008B5114B93F88400AB
:10038000104B93F88430984210D10D4B93F88500B0
:100390000C4B93F88530984207D002F02FFC084BA5
:1003A00093F88520074B83F8852008BD04F086F874
:1003B000034B93F88420034B83F88420E5E700BFC8
:1003C000DC300020B02A002008B5FFF75FFFFFF700
:1003D000D3FF08BD2DE900480C480AF061F90C4B29
:1003E000196C586C4FF0000B4BEA010203460948A8
:1003F0000AF056F9084B1B782BB9084908480AF04F
:100400004FF9BDE800880749F8E700BF040E010076
:10041000B081E00F0C0E010000100020000E010062
:10042000240E0100FC0D010008B5034B01221A70D7
:1004300002480AF035F908BDEC140020500E010006
:1004400008B58368C26853F822301B783BB1064B6D
:1004500001221A70054906480AF022F908BD024B2C
:1004600000221A700349F6E700100020FC0D01007D
:10047000380E0100000E010008B504F057FF0128F6
:1004800000D008BD014B01221A70FAE7EC140020DD
:1004900038B5134B012483F88641124A82F886410D
:1004A0000F2583F88551104B1C70104B1C70104B9E
:1004B00000221A70234622460721052006F096FDE9
:1004C000234602222946204606F090FD094B1C7067
:1004D000094B1C701021022004F0BAF838BD00BF8F
:1004E000DC300020B02A0020B3220020B9220020F6
:1004F000B7220020B4220020B622002008B52C4BE1
:100500001B78013B042B07D8DFE803F003070B2D12
:100510004000274B02221A7008BD254B03221A7097
:10052000FAE7244B93F88631012B0BD0224A92F83C
:100530008621934213D01E4A052111701E4A82F86B
:100540008631E9E71C4A92F88621934203D0184A83
:1005500004211170F2E7164A01211170EEE7144AE6
:1005600001211170EAE704F0B5F80128D4D1114B4C
:100570000F2283F885211021022004F069F80F4B27
:1005800000221A700A4B01221A70C5E704F0A2F883
:100590000128C1D1074B052283F8852110210220B3
:1005A00004F056F80123054A1370014A1370B3E7AB
:1005B000B3220020DC300020B02A0020B722002027
:1005C00008B52D4B1B78013B042B07D8DFE803F05F
:1005D000030720314200284B02221A7008BD274B26
:1005E00093F88531242B07D0042B09D0082B0BD08E
:1005F000214B01221A70F1E71F4B04221A70EDE71C
:100600001D4B03221A70E9E71B4B05221A70E5E720
:100610001B4B80221A60012302220721052006F0CD
:10062000E5FC164B052283F88521134B01221A7035
:10063000D4E7134B80221A600123042207210520EE
:1006400006F0D4FC0D4B252283F885210A4B0122AC
:100650001A70C3E70B4B80221A6000230422072183
:10066000052006F0C3FC054B092283F88521024BC7
:1006700001221A70B2E700BFB7220020DC30002050
:10068000FCA00046FCA0004408B50C4B08221A60F0
:1006900003F17E43F03380221A60002304220721F5
:1006A000052006F0A3FC064B4FF400421A6000231D
:1006B00004220F21012006F099FC08BD0CA0004681
:1006C0003CA0004408B5654B1B78013B082B0FD8B4
:1006D000DFE803F0050F1F2F58759AA2B200604B98
:1006E000002283F88A2183F88B215C4B02221A7046
:1006F00008BD5C4B19685C4A11701B68002BF7D170
:100700004FF4FA61192002F0C9FF544B03221A700A
:10071000EEE7192002F0CAFF38B9524B1B68012BD3
:10072000E6D14E4B01221A70E2E74C4B04221A70BC
:10073000DEE703F0CFFF0128DAD1494B93F8863189
:1007400033B9474B152283F88521484B01221A7093
:100750004FF4FA51192002F0A1FF414B012283F816
:100760008A2193F88631934207D04021022003F07A
:100770006FFF3A4B05221A70BAE7394B042283F80F
:100780008B21F2E7192002F091FF80B9354B1B68ED
:10079000012B10D0324B93F88B31052BA8D1304B65
:1007A00093F88631012BA3D1FFF76EFFA0E72B4B07
:1007B00006221A709CE7294B07221A7098E703F06B
:1007C00089FF012894D1264B93F886212AB9192153
:1007D00083F88511254B01211970214B022183F8E3
:1007E0008A1193F88B31043BDBB2012B07D94021EE
:1007F000022003F02DFF194B07221A7078E7012A17
:10080000F5D1FFF741FFF2E7C821192002F046FFBA
:10081000124B08221A706BE7124B1B6813B90F4B6F
:1008200007221A70192002F041FF00283FF460AF40
:100830000A4B09221A705BE703F04CFF01287FF492
:1008400057AF074B002283F88A214021022003F092
:10085000FFFE024B01221A704AE700BFB9220020B6
:10086000DC300020BC091442B8220020B522002050
:1008700008B5114B1B78012B02D0022B09D008BD03
:100880004FF47A711A2002F009FF0B4B02221A7002
:10089000F5E71A2002F00AFF0028F0D0074B93F882
:1008A0008731022B03D0054B022283F88721024BAC
:1008B00001221A70E3E700BFB4220020DC300020E0
:1008C00008B52A4B1B78022B0DD0032B32D0012BFD
:1008D00000D008BD43F698211B2002F0DFFE234B19
:1008E00002221A70F5E71B2002F0E0FEC8B1204B8F
:1008F00093F88831022B0CD01D4B93F88931022BD1
:1009000007D01B4B1D2283F88521032283F8882101
:1009100003E0174B012283F88821144B01221A703F
:10092000D7E7134B93F88831032BD2D10F4B032217
:100930001A70CEE70F4B1B6843B14FF4FA611C20CD
:1009400002F0ACFE094B02221A70C2E71C2002F032
:10095000ADFE0028F6D0084B80221A600123022247
:100960000721052006F042FBECE700BFB62200207D
:10097000DC300020BC091442FCA0004608B52C4B1A
:100980001B78013B032B18D8DFE803F0020F184E49
:10099000284B93F88931022B03D0254B02221A7081
:1009A0000BE0234B04221A7007E040F6B8311D20FB
:1009B00002F074FE1E4B03221A7008BD1D2002F0C7
:1009C00075FE30B31B4B93F88531152B05D0192BD1
:1009D00011D0174B04221A70EFE7164B172283F839
:1009E0008521154B80221A60012302220721052050
:1009F00006F0FCFAEDE70F4B1B2283F885210E4B26
:100A000080221A60012302220721052006F0EEFA57
:100A1000DFE7084B93F88531152BCED0192BCCD0BE
:100A2000034B04221A70C8E7014B00221A70C4E776
:100A3000B5220020DC300020FCA0004608B5FFF7FE
:100A40005DFDFFF73FFEFFF7BBFDFFF797FFFFF7E9
:100A50000FFFFFF735FF08BD08B5FFF7EFFF08BD33
:100A6000024A137818431070704700BFDC22002040
:100A7000024A137823EA000010707047DC2200203D
:100A80002DE9F041002301220621052006F0AEFAEF
:100A9000002304220321184606F0A8FA00230422AA
:100AA0000B21022006F0A2FA0127414B1F70414C96
:100AB000032384F83031404E002586F8305186F803
:100AC000313184F831318C2386F838314FF00A08FF
:100AD00086F8398184F8383184F83981C42286F85F
:100AE0003A21092386F83B3184F83A2184F83B31D6
:100AF00086F83E5184F83E5186F83F5184F83F51C4
:100B0000142386F8373184F8373186F83D5184F85C
:100B10003D510220FFF7ACFF284B1D80284B1F7072
:100B2000284B1F70284B1F70284B1D7086F83953B7
:100B300084F83953264B1D70264B1D7086F83853A8
:100B400084F83853244B1F70642386F8143384F8D8
:100B5000143386F8155384F815530C2386F817338D
:100B600084F817331D4A137086F8168384F81683A9
:100B70001B4A82F80080F22186F818130D2286F8AD
:100B8000192384F8181384F81923164A1770164A83
:100B90001570B375A37586F8BE3084F8BE3086F83C
:100BA0001A5384F81A53F575E575BDE8F08100BF56
:100BB000BC220020B02A0020DC300020D6220020F9
:100BC000E1220020D2220020E0220020CC220020BE
:100BD000ED140020C4220020E2220020D1220020B7
:100BE000D0220020BD220020D422002010B5574B77
:100BF0001B78013B082B0DD8DFE803F0050D16220A
:100C0000414D9689A30064211F2002F047FD4F4B00
:100C100002221A7010BD1F2002F048FD0028F9D0F2
:100C20004A4B03221A70F5E7494B93F886311BB9FA
:100C3000464B04221A70EDE7444B09221A70E9E78B
:100C4000434991F8722091F8733042EA0322414BF4
:100C50001A8091F8383191F8391143EA01233E495D
:100C60000B809A4207D83A4B012283F83E21374B3A
:100C700005221A70CEE7354B09221A70CAE703F035
:100C800029FD0128C6D18021022003F0E1FC2F4B71
:100C900006221A70BEE72E4B93F8722093F8731059
:100CA00042EA01222B490A8093F83A0193F83B115A
:100CB00040EA01202949088093F8384193F8391116
:100CC00044EA012424490C8093F8373103EB830371
:100CD000590089B2224B1980824214D91C4B93F8D7
:100CE0003F310A2B0FD01A4B93F88631012B02D0DB
:100CF00021448A428EDB164B002283F83E21134B9F
:100D000007221A7086E7114B08221A7082E7154BEA
:100D100080221A60002304220721052006F066F9CC
:100D20000A4B09221A7075E703F0D4FC01287FF4FE
:100D300071AF8021022003F08BFC044B09221A7052
:100D400068E7024B01221A7064E700BFE02200202E
:100D5000DC300020CE220020DA220020D822002021
:100D6000DE220020FCA000440223034A82F8323134
:100D7000024A82F832317047DC300020B02A00206D
:100D800008B5074B1B68DBB2064A1370012B03D072
:100D90000120FFF76DFE08BD0120FFF761FEFAE7B5
:100DA0008C031442CD22002008B5214B1B78013B57
:100DB000042B07D8DFE803F00307131C30001C4B9B
:100DC00002221A7008BD0521084602F067FCFFF7F1
:100DD000CBFFFFF7D5FF164B03221A70F2E7052071
:100DE00002F064FC0028EDD0114B04221A70E9E7F0
:100DF000104B1B68DBB2104A1370012B07D00F4B4E
:100E0000022283F831210A4B01221A70DAE70B4BD8
:100E1000032283F83121F6E703F05CFC0128D1D1ED
:100E20008021022003F014FC014B01221A70C9E753
:100E3000D222002098211442D3220020DC3000204E
:100E400008B5274B1B78013B062B0BD8DFE803F0D6
:100E5000121604403C0B4400224B08221A60204B1F
:100E600004221A7008BD204B08221A601C4B07226E
:100E70001A70F7E71A4B02221A70F3E71B4B93F82C
:100E800030311B4A92F83021934217D0012B0AD0FF
:100E90000223164A82F83031154A82F83031104B5D
:100EA00003221A70DEE70323104A82F83031104A19
:100EB00082F830310A4B05221A70D3E7FFF760FF42
:100EC000074B01221A70CDE7054B06221A70C9E7BD
:100ED000034B07221A70C5E7014B01221A70C1E7C4
:100EE000E12200200CA000440CA00046DC300020D1
:100EF000B02A002008B50C4B93F83D310B4A92F80C
:100F00003D2193420AD0012B09D00220FFF7B0FD0A
:100F1000054B93F83D21054B83F83D2108BD022088
:100F2000FFF79EFDF4E700BFDC300020B02A002070
:100F300008B54A4B1B78013B062B0CD8DFE803F0C1
:100F4000040C1C2535778A00454B002283F81523B5
:100F5000424B02221A7008BD414B93F81633414AA6
:100F600013704FF47A7101FB03F1292002F096FB14
:100F70003A4B03221A70EEE7292002F097FB002873
:100F8000E9D0364B04221A70E5E7354B93F88631E9
:100F90001BB9324B05221A70DDE7304B02221A7062
:100FA0002F4B002283F81523D5E72D4B93F87210B1
:100FB00093F8732041EA02212B4A118093F81823F9
:100FC00093F8190342EA00222848028093F8153367
:100FD000012B13D0914223D8214B93F81723244B94
:100FE0001B789A4202D9013321490B70204B1B78A0
:100FF0009A4211D8194B06221A70ACE7184B93F895
:1010000014331A44914203DD154B002283F8152353
:10101000124B02221A709EE7104B02221A709AE7B6
:10102000134B00221A700D4B02221A7093E703F043
:1010300051FB01288FD18021022003F009FB084BCE
:10104000012283F815230A4B00221A70034B072252
:101050001A7080E7014B02221A707CE7BD22002043
:10106000DC300020D0220020CE220020BE22002032
:10107000D1220020124B93F88631012B0BD0022392
:101080000F4A82F832310F4A82F832310E4B4FF458
:1010900000621A6070470D4B1B78002BEFD1084B94
:1010A00093F83D31002BEAD10323054A82F832310F
:1010B000044A82F83231064B4FF400621A607047DE
:1010C000DC300020B02A00206CA00044CD2200209B
:1010D0006CA0004670B5464B1B78013B062B0DD823
:1010E000DFE803F0040D153D497975004FF4FA610E
:1010F000052002F0D3FA3E4B02221A7070BD012186
:10110000062002F0CBFA3A4B03221A70F6E7394B6D
:101110001B6813F0FF0F1AD1374A1388013313806D
:10112000354B1A8841F287339A4214D9324B002248
:101130001A802F4B06221A7000F0B6FF0028DDD06F
:10114000002000F0B7FF2A4B06221A70D6E72A4B80
:1011500000221A80E4E7264B04221A70ECE70520EF
:1011600002F0A4FA18B1224B05221A70C6E7204BF0
:1011700002221A70C2E700F0A3FF204E306000F098
:10118000A5FF1F4D286000F0A7FF1E4C206000F057
:1011900085FF1D4B58723268C2F303419972110AE0
:1011A000D9721A73194A12785A732A68C2F3034122
:1011B0009973110AD9731A742268C2F303415974DE
:1011C000110A9974DA740A4B07221A7096E7084BD1
:1011D00001221A7092E70D4A1378013313700C48FC
:1011E00005F0C2FF00F0E8FE014B02221A7085E70D
:1011F000BC220020A8151442FC140020F01400208A
:10120000F4140020F8140020DC300020EE1400203C
:1012100000C0004008B5FFF76DFEFFF711FEFFF7B5
:10122000C3FDFFF7E3FCFFF725FFFFF753FFFFF7D1
:101230007FFE08BD10B400240FE05B00DBB2C1B23A
:101240004B40013AD2B22AB113F0800FF5D15B00C6
:10125000DBB2F6E7054A13550134FF2C02DCE3B29A
:101260000822F0E75DF8044B704700BFE426002039
:1012700010B4002410E05B009BB281B24B40013AF5
:10128000D2B22AB113F4004FF5D15B009BB2F6E75E
:10129000064A22F814300134FF2C04DCA3B21B02EE
:1012A0009BB20822EDE75DF8044B7047E422002072
:1012B00010B4002410E05B009BB281B24B40013AB5
:1012C000D2B22AB113F4004FF5D15B009BB2F6E71E
:1012D000064A22F814300134FF2C04DCA3B21B02AE
:1012E0009BB20822EDE75DF8044B7047E424002030
:1012F00000231A468B420DD210B4C45C6240064CE7
:10130000A256D2B20133DBB28B42F6D310465DF85F
:10131000044B704718467047E426002000231A4605
:101320008B4210D230B4C45C84EA1224074D35F9E4
:10133000144084EA022292B20133DBB28B42F2D330
:10134000104630BC70471846704700BFE4220020AA
:1013500000231A468B4210D230B4C45C84EA1224B3
:10136000074D35F9144084EA022292B20133DBB210
:101370008B42F2D3104630BC70471846704700BF0E
:10138000E424002070B59F4B1B78013B0B2B10D839
:10139000DFE813F00C00100024002D0035003E00A3
:1013A0005C006500EE00170164017801954B022294
:1013B0001A7070BD944B1B78012B03D0914B042203
:1013C0001A70F6E7904B00221A70904B19680320B0
:1013D00002F064F98B4B03221A70EAE7032002F053
:1013E00065F90028E5D0874B04221A70E1E7884BA5
:1013F0001968042002F052F9824B05221A70042069
:1014000002F054F90028D4D07E4B06221A70D0E79F
:10141000804A92F80813804B196092F8003392F8D2
:10142000042313437D4A136000237D4A13607D4AE1
:1014300013607D4A13607D4A13707D4B1968032049
:1014400002F02CF96F4B07221A70B2E7032002F06A
:101450002DF90028ADD06B4B08221A70A9E7734B09
:101460001B7801229A4070490A606B4909680A4258
:1014700062D003F138004400664911F810000134CD
:101480000C5D40EA04206B4C208003F118046500D9
:1014900011F8144001354D5D44EA0524664D2C8059
:1014A00003F12806750011F816600135495D46EA1A
:1014B0000121624D2980012B0CD0A04203D2584D4E
:1014C0002C6814432C60884236D9564801680A4378
:1014D000026031E04FF63775AC4237D804F1C805E9
:1014E000574E3580C82936D9A1F1C805554E3580EB
:1014F000A04207D3524C2488A04207D2524C246801
:10150000224203D0464D2C6814432C60444C25687D
:101510004D4C2560884207D84A490988884207D936
:101520004A4909680A4203D03E4801680A430260FA
:101530003C4A1168454A11600133DBB23B4A1370E3
:10154000072B0CD92F4B09221A7032E73C4D4FF66E
:10155000FF762E80C6E73B4D00262E80C8E7344B31
:101560001968032002F09AF8264B07221A7020E728
:101570002B4B1968274B93F800230A4383F8002369
:10158000284A106893F80423024383F8042311B90E
:1015900010B1012100E00121204B1B6823B909B9DA
:1015A000002302E0012300E00123DBB2284A13708C
:1015B000184A82F80C1382F80D33124B0A221A7063
:1015C000F7E6144B93F80C33224A92F80C2393421B
:1015D00005D0204A82F80C331F4B01221A700D4BA4
:1015E00093F80D331B4A92F80D23934205D0194A04
:1015F00082F80D33184B01221A70024B0B221A701D
:10160000D7E600BF0C280020F2270020E8270020A2
:10161000EC270020DC3000201C28002014280020AB
:101620001028002008280020F4270020E4270020AC
:10163000202800201828002004280020FC27002053
:10164000E6270020F027002000280020F8270020AF
:10165000FE140020B02A0020FF1400200B4B1B7842
:10166000012B03D00A4B0C221A70A2E603F032F8C9
:101670000128F7D1054B00221A702021022002F028
:10168000E7FFEFE7024B01221A7092E6FF140020F9
:101690000C280020014B1870704700BF0C28002058
:1016A00008B500238BB10D4B1A680D4B83F8082346
:1016B00001200C4B18700C4B42F210721A600B4B4D
:1016C00000221A70FFF7E6FF08BD03F542720849D1
:1016D000002088540133DBB2E4E700BF041000208F
:1016E000DC300020F2270020E8270020FF14002033
:1016F000B02A00202DE9F04F83B0994690F800A061
:1017000083F800A04378009389F80130837801932F
:1017100089F802300330033A52B200231F469C4638
:101720009E463FE013464CE07600F6B215F0800F7F
:1017300009D16D00EDB214F0800F07D16400E4B25E
:1017400084F01B040AE046F00106F2E745F00105CB
:10175000F4E746F001061BE06400E4B20132D2B2C5
:10176000072A1DD810F0010F09D08EEA040E5FFA87
:101770008EFE8CEA050C5FFA8CFC7740FFB24008C5
:1017800016F0800FD0D17600F6B215F0800FE0D1C0
:101790006D00EDB214F0800FDED045F00105DBE7FF
:1017A0004246584602F1FF384FFA88F8002A0DDD0C
:1017B0005A1ED2B2002BB5D10C784D788E780331F9
:1017C000022300F1010B00780022C9E78AEA0E0E1D
:1017D00089F800E0009B83EA0C0C89F801C0019BAA
:1017E0007B4089F8023003B0BDE8F08F08B504F003
:1017F00077F80B4B162283F83A23002283F83B2319
:10180000802183F8F8120C2283F8F92283F8FA1267
:1018100083F8FB220123034A1370034A137008BDA7
:10182000DC300020502800203828002008B5174B55
:101830001B78013B052B0CD8DFE803F0030C150BDC
:101840000B244FF47A71202001F028FF0F4B022265
:101850001A7008BD202001F029FF0028F9D00B4B99
:1018600003221A70F5E704F069F840B2084B1870CB
:10187000084B83F83A03001283F83B03034B012221
:101880001A70E6E7014B01221A70E2E738280020BF
:101890004C280020DC30002010B5914B1B78013B18
:1018A000062B10D8DFE813F00700100019008200A3
:1018B0008A00F300FB004FF47A71212001F0EEFE64
:1018C000874B02221A7010BD212001F0EFFE002884
:1018D000F9D0834B03221A70F5E7824C94F87A0012
:1018E00094F87B3040EA032000B27F4B18807F4B96
:1018F00040F6BC421A800EF093F86BA3D3E90023A4
:101900000DF042FF02460B4669A1D1E900010EF03D
:101910001BFA774BC3E900010022764B0DF032FF32
:1019200002460B4664A1D1E900010EF00DFA0EF05B
:10193000A3FB714A1060714AA2FB00239A0984F844
:10194000FC229B0B84F8FD320EF05AF85AA3D3E91F
:1019500000230EF0F9F90EF0D9FF59A3D3E90023C3
:101960000EF0C8F858A3D3E900230DF00DFF02468E
:101970000B4657A1D1E900010EF0E6F90EF054FB39
:1019800000B20EF04DF854A3D3E900230DF0FAFE97
:101990000EF04AFB00B25A4B188084F8F80200128D
:1019A00084F8F9024E4B04221A708CE70A21212098
:1019B00001F074FE4A4B05221A7084E7494C94F8F2
:1019C0007C0094F87D3040EA032000B2464B18803A
:1019D000464B40F6BC421A800EF022F832A3D3E9FF
:1019E00000230DF0D1FE02460B4631A1D1E90001E2
:1019F0000EF0AAF93E4BC3E9000100223D4B0DF069
:101A0000C1FE02460B462CA1D1E900010EF09CF963
:101A10000EF032FB384A1060384AA2FB00239A09C4
:101A200084F8FE229B0B84F8FF320DF0E9FF22A31D
:101A3000D3E900230EF088F90EF068FF20A3D3E964
:101A400000230EF057F820A3D3E900230DF09CFEED
:101A500002460B461EA1D1E900010EF075F90EF009
:101A6000E3FA00B20DF0DCFF1BA3D3E900230DF075
:101A700089FE0EF0D9FA00B2224B188084F8FA02DF
:101A8000001284F8FB02164B06221A701BE70A218B
:101A9000212001F003FE124B07221A7013E7104BAE
:101AA00001221A700FE700BF7B14AE47E17A843F32
:101AB000000000000078A94000000000006AF84023
:101AC0006666666666A2724000000000009AB0403A
:101AD00000000080C155334166666666661271403B
:101AE00050280020DC300020282800203A28002040
:101AF000402800200000F03F48280020D34D62100D
:101B00004E2800203C28002008B5FFF78FFEFFF785
:101B1000C3FE08BD08B5104B1B787BB10F2B0CD84A
:101B2000013B0E4A1278934207D00D4A92F8CD300D
:101B3000013382F8CD3002F00DF808BD074B1B7859
:101B40000F2BFAD0064A92F8CD30013382F8CD300F
:101B500002F000F8F1E700BF203C0020543F0020D5
:101B6000DC30002038B51E2001F0A0FD18B1774B05
:101B7000002283F8B520764B1B78013B032B00F243
:101B8000E480DFE813F004001500CF00DF006F4BA6
:101B900093F8863143B16D4B93F8B730012B03D0E6
:101BA0006B4B00221A70D0E0694B02221A70CCE015
:101BB000664B93F8B630002B40F0A580644B1B7841
:101BC000022B00F0A780614B93F82F33012B40F0DC
:101BD000BC80604B1B78022B40F0B7805C4B1B78BD
:101BE000032B00F09B805B4B04221A70ADE0574B37
:101BF000D3F8D830584A1360584A1268934259D0E3
:101C0000574B1B78FF2B03D0564A525D93425BD053
:101C1000534B1978534A5155FF221A700134E4B2DC
:101C20004A4B93F8B630A3426FD9254604F580732A
:101C3000464A52F82330494A1360002BEED04A4AF4
:101C400012685340C3F31303002BE7D13F4B93F8C3
:101C5000CF30012B4ED1424B1B78FF2BD0D0414AC5
:101C6000125D9342CCD040F6B8311E2001F016FD33
:101C7000374B03221A70354B93F8D730002BBFD067
:101C8000022BB4D0012BBBD1384A13680133136047
:101C90002E4AC2F8DC3001F03BFF354B1A78354B49
:101CA0001B789A42ACD0FFF735FF314B1A78314B95
:101CB0001A70A5E72D4A136801331360234AC2F84E
:101CC000DC3001F025FF9BE7294B1A78294B1B7864
:101CD0009A429DD0FFF71EFF254B1A78254B1A70AC
:101CE000224A136801331360184AC2F8DC3001F04D
:101CF0000FFF8DE740F6B8311E2001F0CFFC144BEA
:101D000003221A708AE700248AE7174B4FF6FF7206
:101D10001A6053E70E4B00221A7054E70D4B032252
:101D20001A7012E002F0D6FC01280ED1074B0122F6
:101D300083F8B5200821022002F08AFC044B04221B
:101D40001A7002E0024B00221A7038BDDC3000200D
:101D50008028002060280020782800207C2800208F
:101D600014290020842800207028002064280020E6
:101D7000203C0020543F0020002304E0044AFF21BF
:101D8000D1540133DBB213F0800FF7D0704700BF9E
:101D90008428002008B50022114B1A70D921114B5C
:101DA0001970114B83F8B8101C211048018083F87A
:101DB000BA1083F8BB200E480180062183F8BD10BD
:101DC000082183F8B1100B490A700B490A700122EF
:101DD00083F8CF2083F82F23FFF7CEFF08BD00BF85
:101DE0008028002068280020DC3000200C290020FA
:101DF0006E2800200E29002076280020454B93F8FD
:101E0000D730454A92F8D72093420CD0424A82F804
:101E1000D7300023414A1360414A13603D4A82F89B
:101E2000CC3082F8CD303B4B93F8BA203A4B93F844
:101E3000BA309A4208D03B490B8803F47F431343DE
:101E40000B80354B83F8BA20324B93F8BB30324AC3
:101E500092F8BB20934207D032490A7842EA032223
:101E60000A802D4A82F8BB302A4B93F8B2302A4AB6
:101E700092F8B220934204D0012B33D0264A82F844
:101E8000B230244B93F8B030234A92F8B0209342FA
:101E90000BD0012B2AD01F4B022283F8B0201D4B00
:101EA00093F8B0201C4B83F8B0201A4B93F8BD3048
:101EB000194A92F8BD20934202D0174A82F8BD30E9
:101EC000144B93F8BC30144A92F8BC20934208D0CB
:101ED000032B17D0042B19D0022B0FD00E4A82F8F7
:101EE000BC307047104A01211170C7E70E4B012228
:101EF0001A70084B032283F8B020D0E70B4A002168
:101F00001170EBE70A4A00211170E7E7094A002146
:101F10001170E3E7DC300020B02A002064280020A4
:101F2000583F00200C290020752800206928002037
:101F3000762800200E29002008B5FFF713FEFFF7D2
:101F40005DFF08BD08B5044B01224FF47A7108F01B
:101F500003FC01F0B5FB08BD451F000008B50121D9
:101F6000084803F06DFF0121074803F069FF0121D4
:101F7000064803F065FF01221146022004F086FAAC
:101F800008BD00BF0082040000250A0030053E00A5
:101F9000064A074BD363136C43F4803343F02403A6
:101FA0001364044B4FF400321A60704700C00040C5
:101FB0002400010000E100E030B585B01C4B6D4607
:101FC0000FCB85E80F001B4B029301230B220A2144
:101FD000032005F00BF801230B221146032005F026
:101FE00005F8154C03236364A36C23F01F0343F02F
:101FF0001303A364A36C23F4F85343F48853A3643A
:102000002946204605F094F800230C4A13700C4A28
:1020100013700C4A137068236361FE23A361236865
:1020200043F016032360FFF7B3FF05B030BD00BFD8
:10203000680E01001F100F0000C00040802A002021
:10204000812A00201829002000B587B06823ADF848
:1020500004300123ADF806300C4B02930C4B1B7877
:10206000ADF80C300B4B04930A23ADF8143001A9E2
:10207000094805F001FA02E0074805F087F8012851
:10208000FAD0FFF785FF07B05DF804FB08100020C9
:102090000E100020A42A002000C00040014B187838
:1020A000704700BF09150020014B1878704700BF2A
:1020B000742A0020014B1870704700BF742A00205A
:1020C000014B1868704700BF902A0020014B186828
:1020D000704700BFDC360020014B1868704700BF16
:1020E0007C2A002030B4844A536B84490B6090688A
:1020F00083490860D168834A1160834C2278834DFC
:1021000045F82230824D45F82200824D45F82210D4
:102110000132D2B22270092A02D922460024147058
:1021200011F4007F08D07C4A13607C4A10607C4A1E
:1021300011607C4A0121117013F0040F00F0B3808C
:102140006D4A0421D163D26912F0010F00F09C8026
:1021500069490A6C42F040020A64734A0021117016
:1021600013F0100F03D171490A7801320A70704AD6
:1021700012887049895C604AD16213F0400F0DD01B
:102180005D484022C26368490A780132D2B20A70BF
:10219000674909880A4467498A5CC26213F0100FD4
:1021A00002D0554A1021D16313F0010F02D0524AD8
:1021B0000121D16313F0020F02D04F4A0221D163F3
:1021C00013F0080F02D04C4A0821D16313F4807F2A
:1021D00003D0494A4FF48071D16313F4007F03D0D8
:1021E000454A4FF40071D16313F4806F03D0424A23
:1021F0004FF48061D16313F4006F03D03E4A4FF473
:102200000061D16313F4805F03D03B4A4FF48051E7
:10221000D16313F4005F03D0374A4FF40051D16308
:1022200013F4804F03D0344A4FF48041D16313F448
:10223000004F03D0304A4FF40041D16313F4003F04
:1022400003D02D4A4FF40031D16313F4802F03D013
:10225000294A4FF48021D16313F0800F02D0264A1F
:102260008021D16313F4803F0CD0234B4FF4803294
:10227000DA631A6C22F060021A6400232E4A13708B
:102280002E4A137030BC70471B4A116C41F020017C
:102290001164294901200870D169294A1170274A1F
:1022A0000021117069E713F0200F3FF466AF124A66
:1022B0002021D163D46921490A782248845401320B
:1022C000D2B20A7020490A70022A0CD0022A7FF684
:1022D00054AF501E033A164909880A441949085C4C
:1022E0001449885449E7014600784A7842EA0022B6
:1022F0000F490A8041E700BF00C00040702A00205B
:10230000782A00208C2A0020001500201C2900209B
:10231000442A0020B0300020902A0020DC36002023
:102320007C2A0020742A00200815002009150020AE
:102330009C2A0020DC300020802A00201829002060
:10234000882A0020A42A00209E2A002008B50B4AD3
:10235000136C0B490B60936413F0010F0DD0094B04
:102360001A78094B1B789A4207D0591C064A1170FB
:10237000064AD15C014805F017FA08BD000001408B
:10238000982A002014210020E11D0020E81F0020D1
:1023900008B505F055FB084B186000B9FEE74FF093
:1023A000011108F01BFD0022044B1968024B18684C
:1023B00008F0DAFB08BD00BF04150020C81000209B
:1023C00080B58AB007F0A8F80121614803F038FD14
:1023D0000121604803F034FD5F4B01265E641A68FA
:1023E00042F480721A605D4A136843F4F843136044
:1023F0005B4C06AD04F110030FCB85E80F002846B7
:1024000004F038FD0027574B1F70574B1E70FFF725
:10241000A5FDFFF7D1FD02F025F9FEF739F8FFF72A
:102420003FF902F099FCFEF72BFBFFF7B3FCFDF739
:1024300025FFFDF7B3FEFFF7D9F903F049F9FFF7E0
:10244000A7FF238C0AAE26F8143D484D3146286874
:1024500008F0CCFB3146286808F0B0FB3AA3D3E97A
:102460000023CDE900234FF0FF324FF0FF332868FF
:1024700008F0C0FB3A463946286808F07BF9243456
:1024800094E803000390ADF81010394B1B689B686B
:102490005A68384B9A4202D802238DF80C3003A9AF
:1024A000324B186808F0D3FB00B1FEE72F4CFC213B
:1024B000206808F0B6FB01F0EFF82A4B04221A70EE
:1024C00000F0A2FB2C4B01224FF47A71206808F037
:1024D00043F90FE0FFF7B8FD284B00221A7022E005
:1024E00000F038FE264A137801331370244B1B7812
:1024F000092BF5D907F01CF802F02CFA02F012F9BA
:10250000FEF7AAFAFEF73EFFFEF784FEFFF714FD82
:10251000FDF75AFFFFF7F8FA1A4B1B781BB9174B58
:102520001B78002BD6D1184B1B7813B1164B002209
:102530001A70164B1B7813B1144B00221A70104BF3
:1025400000221A70D2E700BF488D812A11010000D5
:102550004041050000250A0000000E40A4310E4055
:10256000680E0100DC300020BC4100200415002072
:10257000C8100020FFC99A3B451F0000812A002097
:102580005E3F0020802A002001150020101000204E
:1025900008B50121044B186808F0FCF800EBD07076
:1025A0004010D83000B208BD041500202DE9F041DC
:1025B00090B0064617469846254A92F8B432013341
:1025C00082F8B432002208F4807313431DD107F05F
:1025D0004002002313431DD107F0080200231343D8
:1025E00024D107F400020023134302D0194B012227
:1025F0001A7007F00054002554EA050302D0154B69
:1026000001221A7010B0BDE8F0810022114608F0D6
:10261000B3FBDCE7FFF7BCFF0F4B18800F4BB3F9A0
:102620000030002BD8D10D4B1880D5E740226946E9
:10263000304608F0F9FB684600F012F8044A92F8B8
:10264000B332013382F8B332024B01221A70C8E769
:10265000DC30002010100020A02A0020822A002058
:10266000F0B4194B1E883446184B1F887B1E9E42BF
:1026700004DA721C164909888A421FD09E4201D092
:1026800000230DE0124B1B88DBB1002308E0C55C82
:1026900004EB840291000F4A0A44D5540133DBB2A3
:1026A0000D4A12789A42F2D80136B6B2013F3FB2D3
:1026B0003E40054B1E800020F0BC70474FF0FF30BD
:1026C000FAE74FF0FF30F7E70E1500201210002058
:1026D00010150020443700200F1000200D4B1B88E0
:1026E0000D4A1288934211D003EB83018A000B49F3
:1026F0000A440B490A6001339BB20A4A1288013A24
:1027000012B21340034A1380002070474FF0FF308D
:10271000704700BF101500200E1500204437002020
:10272000443B00201210002010B50B4C55232370A1
:10273000AE2363700023A370D923E37007232371B2
:102740000A21601CFEF7D4FDE072022221460C2013
:10275000FDF748FD10BD00BFFC36002010B50E4C43
:1027600055232370AE2363700023A370D923E37035
:1027700008232371094B93F8D522627293F8D7325C
:10278000A3720A21601CFEF7B3FDE072022221460B
:102790000C20FDF727FD10BDFC360020DC300020AA
:1027A00010B5144C55232370AE2363700023A3701F
:1027B000D923E370092323710F4B93F89B20627197
:1027C00093F89C20A27193F8D622E27193F8D52257
:1027D000227293F8D822627293F8D732A3720A2138
:1027E000601CFEF785FDE072022221460C20FDF7F9
:1027F000F9FC10BDFC360020DC30002010B5144C74
:1028000055232370AE2363700023A370D923E37094
:102810000A2121710F4B93F89B20627193F89C2041
:10282000A27193F8D622E27193F8D522227293F81E
:10283000D822627293F8D732A372601CFEF758FD5B
:10284000E072022221460C20FDF7CCFC10BD00BF37
:10285000FC360020DC30002010B50B4C55232370D3
:10286000AE2363700023A370D923E3700B2323717D
:102870000A21601CFEF73CFDE072022221460C207A
:10288000FDF7B0FC10BD00BFFC36002008B54EF6C9
:102890006021142000F002FF0023044A1370044A50
:1028A0001370044A1370044A137008BD20150020E9
:1028B00014150020211500200A15002010B504462B
:1028C0000C2803D1164BDB78D92B24D0FFF7DEFF81
:1028D000144B1B78042B18D0134B1B88134A1288F7
:1028E000934202D39B1A104A13800D4B5B781F2B27
:1028F0000BD00F4B1B780F4A1278934202D2013350
:102900000B4A13700C4B00221A7002220449E0B2E9
:10291000FDF768FC10BD024B1B79082BD6D1D7E719
:10292000FC3600203E370020F2360020043B002019
:10293000E9360020063B0020E036002010B50B4CA5
:10294000552323701F2363701623A3700023E370A5
:1029500015222271EA226271A3710621601CFEF722
:10296000C7FCE0710820FFF7A9FF10BDFC3600206E
:1029700010B50A4C55232370572363700023A370AE
:10298000E37023716371A3710621601CFEF7B0FC34
:10299000E0710820FFF792FF10BD00BFFC36002059
:1029A00010B50A4C55232370752363700023A37060
:1029B000E37023716371A3710621601CFEF798FC1C
:1029C000E0710820FFF77AFF10BD00BFFC36002041
:1029D00008B5034B37221A700120FFF76FFF08BDBF
:1029E000FC36002010B50C4C552323701F23637058
:1029F000B723A3700023E370084A1288110A2171DB
:102A00006271A3710621601CFEF772FCE071082060
:102A1000FFF754FF10BD00BFFC360020F236002047
:102A200010B50C4C552323701F236370B823A3707B
:102A30000023E370084A12782271084A1278627102
:102A4000A3710621601CFEF753FCE0710820FFF71C
:102A500035FF10BDFC360020E9360020E0360020AE
:102A600008B5114B1B78012B04D00F4B1B78022BA0
:102A70000DD008BD0D4A138801339BB21380182B6B
:102A8000F3D9134600221A80FFF7ACFFEDE7074A9F
:102A9000138801339BB21380182BEAD91346002206
:102AA0001A80FFF7BDFFE4E7E1360020483B002035
:102AB00008B52E2000F0FAFD00B908BD42F6E0612D
:102AC0002E2000F0EBFD314B1B88B3F5E17F03D3E3
:102AD0002F4B1B78002B39D12E4B1B780E2B09D98D
:102AE0002D4B1B78002B39D12B4B1B7813B901339D
:102AF000294A1370274B1B780E2B02D80133254A25
:102B00001370264B1B78342B09D9254B1B78002BCF
:102B100034D1234B1B7813B90133214A13701F4B57
:102B20001B78342B02D801331C4A1370174B1B88B7
:102B3000B3F5E17F02D20133144A1380144B1B78A2
:102B4000002BBAD10133124A1370B6E7FDF748FBE8
:102B5000FFF7EAFD0D4B00221A80BDE700230D4A66
:102B600013700D4A1370FDF73BFBFFF7F7FD0D4A9D
:102B700092F8D932013382F8D932B5E70023074AF7
:102B80001370074A1370FFF767FEC2E712150020A3
:102B90001415002014100020211500201110002011
:102BA0000A150020DC30002010B5142000F07EFD56
:102BB00010B9FFF77DFF10BD4EF66021142000F024
:102BC0006DFD0B4A13780133DBB21370042B02D86E
:102BD00001F06CFAEDE7FDF703FB0024054B1C70D8
:102BE000FFF7F6FE024B1C70034B1C80F0E700BFA2
:102BF000201500201410002012150020014B187021
:102C0000704700BF343B002038B5304B30221A806B
:102C100000242F4B1C802F4B1C802F4B1C702F4BE4
:102C20001C702F4B1C702F4B1C7001F04FFC01F0DF
:102C30006DF840F20931162000F030FD01252A4BD5
:102C40001D702A4B1C702A4B1C702A4B4FF4A0722B
:102C50001A80294B1C80294B4FF42F721A80284B65
:102C60001C80284B03221A80274B70221A70274B96
:102C700060221A70264B0C221A80264B1C70264BA1
:102C80001C70264B14221A70254B06221A70254BF5
:102C90001C80254B1C80254B83F8D54283F8D642F7
:102CA00083F8D74283F8D8422946122000F0F6FC78
:102CB00048F25000FEF7DCFA48F20500FEF7F8FA99
:102CC0009720FEF7B7FA1A4B1D7038BD121000207E
:102CD0000E150020101500200C15002020150020D6
:102CE0000B1500201C150020213C0020223C002058
:102CF000C43D0020F6360020F23600204037002088
:102D0000363B0020083B0020EA360020E336002056
:102D1000043B0020E9360020E0360020063B00207E
:102D2000F8360020181500201E150020DC30002089
:102D30003C37002030B482B0214A13780133DBB233
:102D40001370042B02D9134600221A701C4B1B78F7
:102D50001C4A11781C4AD154002307E01A4AD15C5E
:102D600002AA1A4402F8081C0133DBB2042BF5D97D
:102D7000002419E00133DBB2032B13D85A1C02A93B
:102D8000114411F8080C02A9194411F8081C8842D2
:102D9000F0D202AD1D4405F8080C02A8024402F866
:102DA000081CE7E70134E4B2032C01D80023E3E771
:102DB0009DF80220054B1A7002B030BC704700BF6E
:102DC00015150020E2360020E43600203D370020B3
:102DD00030B482B0254A13780133DBB21370042B70
:102DE00002D9134600221A70204B1B78204A117812
:102DF000204AD154002307E01E4AD15C02AA1A449B
:102E000002F8081C0133DBB2042BF5D9002419E0C9
:102E10000133DBB2032B13D85A1C02A9114411F859
:102E2000080C02A9194411F8081C8842F0D202AD1E
:102E30001D4405F8080C02A8024402F8081CE7E744
:102E40000134E4B2032C01D80023E3E79DF80230FB
:102E5000094A1278934206D99B1ADBB2074A1370CB
:102E600002B030BC70470023F8E700BF1615002001
:102E7000F4360020EC360020343B0020423700209E
:102E800010B58D4B1B78013B032B1ED8DFE813F0E8
:102E900004001E00BE0008010621122000F0FEFB07
:102EA0004EF66021132000F0F9FB0023834A1370D3
:102EB000834A1370834A1380834A1380834A1370B2
:102EC000834A13707C4B02221A7010BD122000F04E
:102ED000EDFB0028F9D00621122000F0DFFBFFF700
:102EE00057FB7C4B18707C4A92F82E30013382F8E5
:102EF0002E30FFF76DFF794B1A78794B1A70794BAA
:102F000019788A4261D87048038801339BB20380E4
:102F100075480024048075480088834208D26B4BB2
:102F20001A78734B1B789A4224D2FFF799FDCCE7AD
:102F30006948012380F89A3080F89B1080F89C2023
:102F40006C4A138801339BB2138080F8D5321B0A78
:102F500080F8D632FFF724FCFFF70AFD0621122085
:102F600000F09CFB564A1470564A1480524B0322C0
:102F70001A70D4E7584A022382F89A30594B1B78CA
:102F800082F89B30554B1B7882F89C305A490B884D
:102F900001339BB20B8082F8D7321B0A82F8D832F9
:102FA000FFF72CFCFFF7E4FC0621122000F076FB73
:102FB0000023434A1370434A1380444A1370444A1F
:102FC00013703D4B03221A70AFE7474A1388013351
:102FD0009BB21380494A1288934208D3424B002285
:102FE0001A80394B1B8813B1013B374A1380384A8A
:102FF00013780133DBB21370414A1278934294D3B1
:103000000023334A1370314A13708EE7122000F008
:103010004DFB00283FF459AF0621122000F03EFB83
:10302000FFF7B6FA2B4B1870FFF7D2FE354B1B7823
:103030002B4A13702B4A1278934229D9204B1B78C4
:10304000632B02D801331E4A13701D4B1B78632B70
:1030500005D91C4B1A882C4B1B889A420BD2194B52
:103060001B88294A1288934202D80133154A1380DB
:10307000FFF7F6FC29E7FFF793FC0023124A1380C1
:10308000124A1370124A13700B4B01221A70E6E7B2
:103090000C4B1B88002BEBD0013B0A4A1380E7E75F
:1030A000122000F003FB00283FF40FAFFFF778FC7D
:1030B000014B01221A7008E70C1500200B150020A7
:1030C0001C1500204C3B0020F2360020E936002081
:1030D000E0360020F4360020DC300020EA36002004
:1030E000423B002042370020363B0020F6360020CD
:1030F000063B0020181500201E150020083B00206C
:10310000F8360020E33600204037002008B50121C2
:103110000D4B186807F03EFB0C4B18800C4B1B78CE
:10312000022B09D0032B01D0012B04D100EBD0706E
:103130004010D83000B208BD0346002802DB43F33C
:103140008F00F8E7C31CFAE7041500201A150020C9
:10315000C43D002010B54E4B1B78013B042B0CD80E
:10316000DFE803F0030C171E2400494B02221A70FB
:103170004FF4E171122000F091FA10BD122000F01E
:1031800095FA0028F9D0FFF7D9FB414B03221A70BA
:10319000F3E7404B01221A703D4B04221A70ECE712
:1031A000FFF76EFE3A4B05221A70E6E7FFF796FA34
:1031B00068B9394A92F8B232013382F8B23201F07A
:1031C0006DF8FFF7F1FC324B04221A70D5E701F0DD
:1031D0004FF910B901F062F8F3E7162000F066FA33
:1031E0000028EED040F20931162000F057FA2B4BA0
:1031F0001A78531EDBB2022BE3D8294B55211970E4
:10320000012A20D0264BAE225A70254B00229A70FC
:10321000DA701A7101225A71224B1B780A2B03D8DB
:10322000214B1A781F4B1A701E4B1A781E4B1A70BE
:10323000FFF780FD1D4B1B781D4A1278934205D97C
:103240009B1ADBB203E047225A70DEE70023144AE0
:103250009371FFF75BFF174BB3F900301A46002B51
:1032600014DB92100C4981F8E52003EBD3735B105B
:10327000283B81F8E6300A4CA0710621601CFEF75D
:1032800037F8E0710820FFF719FB9AE7DA1CE8E746
:103290003C3700200C150020DC300020C43D00200D
:1032A000FC360020E2360020171500203D370020B4
:1032B000343B00201A150020474B19684A6C474BD5
:1032C000A3FB0203D01A03EB50039B08C3EBC30319
:1032D000D31A243331F81300024421F813200023B9
:1032E000072B78D810B434E0591D484201F007018B
:1032F00000F0070058BF4142243132F81140191D37
:10330000484201F0070100F0070058BF4142243154
:1033100032F8111041EA044142F823102E4A116894
:1033200003F1240231F812405A1C504202F0070205
:1033300000F0070058BF4242243231F8122042EA1E
:10334000044203F1080041F820200133DBB2072BCF
:103350003ED8214A1068002140F82310126803F17A
:10336000080042F8201013F0010FBDD1591C48424B
:1033700001F0070100F0070058BF4142243132F844
:10338000110003F1240132F8111041EA004142F822
:103390002310114A11681A1D504202F0070200F072
:1033A000070058BF4242243231F812405A1D5042A1
:1033B00002F0070200F0070058BF4242243231F801
:1033C000122042EA044203F1080041F82020BCE741
:1033D0005DF8044B70477047503B0020254992240C
:1033E000C1F12001C84170470B4B1A6852F82030D8
:1033F000083052F8200003449AB2180C02FB02F184
:1034000000FB02F202EB514200FB00F000EBD23075
:1034100003FB03F358407047503B00202DE9F04771
:1034200088B000230CE0614A126803F1080152F8E9
:10343000211008AA02EB830242F8201C0133DBB200
:10344000072BF0D9594B1D682B6A286C0344584A46
:1034500013442B62686A00998B422CBF0346431CBD
:10346000544C23446B62A86A01998B422CBF0346DB
:10347000431C51490B44AB62E86A029EB3422CBF25
:103480000346431C1344EB62286B039EB3422CBFDC
:103490000346431C23442B63686B049EB3422CBF3A
:1034A0000346431C0B446B63A96B059883422CBFF6
:1034B0000B464B1C1344AB63EA6B06998B422CBF43
:1034C0001346531C2344EB63079A93422CBF0023FB
:1034D00001232B64002409E02046FFF785FF08AB99
:1034E00003EB840343F8200C0134E4B2072CF3D936
:1034F000DDF80090079E10213046FFF771FF09EBC1
:103500000004DDF8188010214046FFF769FF2044D1
:103510002860019D08214846FFF762FF2844234B9D
:103520001C6830446060DDF808A010212846FFF7D1
:1035300057FF0AEB000710214846FFF751FF3844B8
:10354000A060039F08215046FFF74AFF3844054416
:10355000E560DDF8109010213846FFF741FF09EBD8
:10356000000510215046FFF73BFF28442061059DD0
:1035700008214846FFF734FF2844074467611021BB
:103580002846FFF72DFF08EB000710214846FFF7FC
:1035900027FF3844A06108214046FFF721FF30444F
:1035A0000544E56108B0BDE8F08700BF503B00204E
:1035B0004DD3344DD3344DD3344DD3340022072A68
:1035C00019D830B40C4B196802F1080551F82500E0
:1035D000131D5C4203F0070304F0070458BF634265
:1035E00051F82330584041F825000132D2B2072A61
:1035F000E8D930BC70477047503B0020194B1B681E
:1036000093F8441001F00301032909D8DFE801F021
:1036100002141B221A68D98AD86841EA00414A403C
:1036200083F85820110A83F85910110C83F85A10A6
:10363000120E83F85B2070479A68D98B586941EA6B
:1036400000414A40ECE71A69D988D86941EA00414B
:103650004A40E5E79A69D989586841EA00414A40F9
:10366000DEE700BF503B002010B50A4B1B6800246A
:103670001C64FFF721FE03E0FFF7D0FE0134E4B243
:10368000032CF9D9FFF79AFFFFF7C8FEFFF7B6FF43
:1036900010BD00BF503B002070470000024B43F8B4
:1036A00020100020704700BF5C3B0020034B53F804
:1036B00020300BB100207047012070475C3B002098
:1036C0000A4B00221A7002E00133084A1370074BBC
:1036D0001B78302B09D8064A52F82320002AF3D051
:1036E000013A034941F82320EEE77047583B002098
:1036F0005C3B002008B5164B55221A70B4225A7054
:10370000F0229A700022DA7003221A715871114A5D
:103710001268526CC2F304419971110AD9711A727C
:103720000D4A12685169C1F304405872080A987230
:10373000D972517A1973D18901F00F015973D16887
:10374000090A9973D268DA731020FFF7B7F808BD39
:10375000FC360020503B0020243C0020054B1A681A
:1037600013781B0403F47023507843EA0023907805
:1037700018437047443B002010B4154B1A68137867
:103780001B0403F47023517843EA012394781C430B
:10379000104B114A1A6000234FF0FF3004E038321A
:1037A0000C490A600133DBB2032B0DD8094A1268B9
:1037B000517A0129F3D1D168A142F0D1B1F1FF3F93
:1037C000EDD058B20423EAE75DF8044B704700BF20
:1037D000443B0020243C0020E43C002010B4124B69
:1037E0001A6813781B0403F47023517803EB012348
:1037F00094781C440D4B0E4A1A6000234FF0FF30A2
:1038000004E0383209490A600133DBB2032B08D8DF
:10381000064A1268517A0029F3D158B2D4600423C1
:10382000EFE75DF8044B7047443B0020243C002048
:10383000E43C002008B5144B186802781209C378DC
:103840000E2A02D0114B187808BD03F0060103F0D0
:1038500001030229F6D1002BF4D1037903F02203EE
:10386000222BEFD10821FDF759FDC0F30F21064BA4
:103870001B681A7A9142E5D1C0B25B7A9842E1D1D5
:10388000024B06221A70DDE7443B00203E37002041
:1038900010B50B4C04212068FDF740FDC0F30F214B
:1038A00023681A79914202D0064B187810BDC0B235
:1038B0005B799842F8D1034B03221A70F4E700BFFA
:1038C000443B00203E37002010B50B4C04212068FB
:1038D000FDF73EFDC0F30F2123681A79914202D013
:1038E000064B187810BDC0B25B799842F8D1034BF3
:1038F00002221A70F4E700BF443B00203E3700204C
:1039000008B55C230D4A03FB00200D4B18600B2308
:103910004364002308E00B4A32F8131003F1240239
:1039200020F812100133DBB2072BF4D9FFF79CFE0D
:10393000034B1B680B225A6408BD00BFDC3D00200E
:10394000503B0020940E01000F4BDB7803F00F0377
:10395000012B00D070470C4B1B79232BFAD10A4B5B
:103960005B79493BDBB2012BF4D8074B9B78802B6A
:1039700005D0002BEED1054B00221A70EAE7034B6D
:1039800001221A70704700BFFC360020221500206B
:1039900010B5244B55221A70234B1B78022B35D0BF
:1039A000082B37D01F4BAE225A70204B1968CC78A9
:1039B0001C4A94700B78D3704878107189785171D3
:1039C0001B4A12788AB91B0403F4702343EA0023CC
:1039D0000B43184A1360184A1360184B93F8CF3002
:1039E000012B1BD0124B01221A700E4C144B1A885B
:1039F000A27100221A800621601CFDF779FCE0719B
:103A00000820FEF75BFFFFF79FFF10BD054BAF22BD
:103A10005A70CAE7034B43225A70C6E7094B1C7021
:103A2000E0E700BFFC3600203E370020443B00208A
:103A3000802800207028002004290020DC3000208D
:103A4000822A00201429002010B5294B55221A7013
:103A5000AE225A70274A1468E2789A702278DA7097
:103A600062781A71A2785A71042305E09A1CE05C0E
:103A70001F4988540133DBB2082BF7D91E4B1B7842
:103A8000A3B91B4A9179D3791B0443EA0163117AE4
:103A900043EA0123527A1343184A1360184B93F8F0
:103AA000CF30012B11D0144B01221A70104C154B42
:103AB0001A88E27200221A800B21601CFDF718FCA4
:103AC00020730D20FEF7FAFE10BD094B9B7803F022
:103AD000F8030D4A13700A4B93F8D730012BE2D14B
:103AE000034B1B7903F00F03084A1370DBE700BF99
:103AF000FC360020443B0020802800207028002055
:103B0000DC300020822A002014290020203C0020E4
:103B100010B50D4C55232370AE2363700B4B1B68FF
:103B2000DA78A270D622E2705A7822719B7863719B
:103B3000074B1B88A3720A21601CFDF7D9FBE072BA
:103B40000C20FEF7BBFE10BDFC360020443B0020DD
:103B5000822A002010B5134B55221A70AE225A70DB
:103B6000114A1268D1789970D521D970517819719C
:103B700091785971042305E0991CD45C0948445498
:103B80000133DBB2072BF7D9064C084B1B88A37215
:103B90000A21601CFDF7ACFBE0720C20FEF78EFEE4
:103BA00010BD00BFFC360020443B0020822A0020CC
:103BB00010B51C4B55221A70AE225A701A4A126860
:103BC000D17899701178D9705178197191785971AB
:103BD000042305E0991CD45C124844540133DBB241
:103BE000072BF7D9114B1B787BB90E4A9179D37902
:103BF0001B0443EA0163117A43EA0123527A134317
:103C00000B4A1360094B01221A70064C094B1B88A2
:103C1000A3720A21601CFDF76BFBE0720C20FEF71B
:103C20004DFE10BDFC360020443B002080280020C3
:103C300070280020822A002038B5174B55221A70B0
:103C4000AE225A70154A1268D17899701178D970DD
:103C500054781C719078587115799D715279DA7188
:103C60000F4B1B7853B9090401F4702141EA042178
:103C700001430C4B19600A4B01221A70064C0A4B87
:103C80001B8823720821601CFDF732FB60720A203A
:103C9000FEF714FE38BD00BFFC360020443B002078
:103CA0008028002070280020822A002010B5134BA5
:103CB00055221A70C4225A70114A1468E2789A7018
:103CC0002278DA7062781A71A2785A71042305E0BA
:103CD0009A1CE05C094988540133DBB2092BF7D9FF
:103CE000064C084B1B8823730C21601CFDF700FB5E
:103CF00060730E20FEF7E2FD10BD00BFFC36002011
:103D0000443B0020822A002000207047002301E06D
:103D10000133DBB2032BFBD970470000F8B50E4628
:103D2000C508FFF729FD0446B0F1FF3F16D0012D6D
:103D300033D0C4EBC403DA005B4B1A445B4B1A600C
:103D40005C215B4B01FB04345A4B1C6004F14803BB
:103D5000002D38D105EB450400232FE0FFF73EFD91
:103D60000446B0F1FF3FE2D14F4A137C0133DBB28E
:103D70001374032B02D9134600221A744A4B93F989
:103D80001040C4EBC402D7001F44484B1F600123FE
:103D90007B72FFF7E3FCF860C9E75C23444A03FB4E
:103DA0000423444A136000221A64E0B2FFF7A8FD1E
:103DB000BFE7E118F05C50540133DBB2022BF8D9B5
:103DC000082D4AD0F8BD022D10D805EB4507002379
:103DD000022BF5D8F15C374800685C1C204490F851
:103DE00058003B444140D154E3B2F1E7082DE7D8F5
:103DF000EA1E02EB4202991815F0010F11D07078FB
:103E000094F859406040985433782A4A126892F8DE
:103E1000580043404B70B37892F85A205340CB700F
:103E2000CEE7082D12D0337894F85820534001F88B
:103E3000013C73781F4A126892F8590043408B7016
:103E4000B37892F85A2053404B70B9E7337894F81E
:103E50005B20534001F8013CB2E7144B1868012382
:103E600043720B238361134A14686364124A13601C
:103E7000002304E0C15C114AD1540133DBB2082BAA
:103E8000F8D900230DE003F1240234F8121003F1F5
:103E90000C0200EB42029180094A22F81310013310
:103EA000DBB2072BEFD98DE7E43C0020243C002057
:103EB000DC3D0020503B0020543B0020D83C00203B
:103EC000C83D002010B5194B55221A70C4225A70F3
:103ED000174A1468E2789A702278DA7062781A7158
:103EE000A2785A7122799A71FFF70EFF012800D04B
:103EF00010BD611DE078FFF711FF0D4B1B685A796B
:103F00000A4CE2719A792272DB7963720023A37200
:103F1000E372084B1B8823730C21601CFDF7E8F942
:103F200060730E20FEF7CAFCE2E700BFFC360020FB
:103F3000443B0020822A002070B582B00646C0EBC8
:103F4000C003D900334B1944334B19605C22334B07
:103F500002FB0033324A1360324A1568A87993F89D
:103F60005840314A60401072E87993F859406040F7
:103F70005072287A93F85A4060409072687A93F8A9
:103F80005B304340D372FF231370FE235370002332
:103F900005E09A1CEC5C244884540133DBB2052B09
:103FA000F7D9214C01AB09222046FDF7A3FB9DF870
:103FB0000420637A9A4204D19DF80520A37A9A429C
:103FC00007D03046FFF796FB3046FFF793FB02B071
:103FD00070BD9DF80620E37A9A42F2D155232370F2
:103FE000AE236370237AA3700E4B1B681A7862F0BD
:103FF0000F02E2705A7822719B7863710B4B1B8819
:10400000A3710621601CFDF773F9E0710820FEF72B
:1040100055FCDCE7E43C0020243C0020DC3D002093
:10402000503B0020443B0020FC360020822A002028
:10403000C0EBC000C30008481844084B18600023B8
:1040400007E0074A1268D15CC21882F82C100133CD
:10405000DBB2092BF5D97047E43C0020243C00205A
:10406000443B002010B4C0EBC000C4000C4B1C4407
:104070000C4B1C600023184601E00133DBB2092B16
:104080000AD8E21892F82C10074A1268D25C9142C2
:10409000F3D00A230120F0E75DF8044B704700BF1E
:1040A000E43C0020243C0020443B0020044B1B88BF
:1040B000B3F5B46F02D3024B00221A80704700BFE1
:1040C000D43C002008B51520FFF7F0FA00B908BD70
:1040D0004EF660211520FFF7E1FA0A4B1B88B3F575
:1040E000346F0BD20133074A1380074B1B88B3F59B
:1040F000707FECD20133044A1380E8E7FFF7D6FF64
:10410000F3E700BFD43C0020283C0020F0B4194B5A
:104110001E883446184B1F887B1E9E4204DA721C90
:10412000164909888A421FD09E4201D000230DE023
:10413000124B1B88DBB1002308E0C55C04EB840252
:1041400091000F4A0A44D5540133DBB20D4A12786C
:104150009A42F2D80136B6B2013F3FB23E40054B1B
:104160001E800020F0BC70474FF0FF30FAE74FF0A0
:10417000FF30F7E7E23C0020DA3D0020563F002008
:104180002C3C00200F10002038B5C0EBC002D3003B
:10419000294A1344294A13605C23294A03FB00235C
:1041A000284A136045B22846FFF75CFF00283AD141
:1041B000002305E0FFF758FA01E0FFF71FFA234656
:1041C0005C1CE4B22F2B29D81E4B19684B6C1B4A80
:1041D00012685069834221D203F57A7398421DD246
:1041E000537A012B1AD19369013393614A6C0132DE
:1041F0004A6415490B6801330B60144BA3FB02138F
:10420000DB0803EB430399008A42D3D012F0030F7B
:10421000D3D1FFF703F9FFF7F1F9D0E72F2C06D838
:104220002846FFF789FE2846FFF702FF38BD084BF6
:104230001868FFF76BFFF6E7E43C0020243C002001
:10424000DC3D0020503B0020543B0020ABAAAAAA32
:10425000443B002010B50E4B1A68D3785B0303F47F
:10426000F813117943EA0123527942EA0304FFF774
:1042700083FA00280ADBC0EBC002D300054A1344CE
:10428000054A13605C61C0B2FFF77EFF10BD00BF3E
:10429000443B0020E43C0020243C002010B5FCF707
:1042A00023F8684B04221A70674B00221A70674B80
:1042B000186802781409C37813F0010301D1072CA0
:1042C00017D00BB90D2C45D00BB90E2C6ED0FFF7C3
:1042D000DFFA032840F092800F2C00F08880FFF76F
:1042E00057FBFFF7EFFE574B1B78042B00F08E8037
:1042F00010BD037A427A110941EA03118172120159
:10430000C27223F00F0303720921FDF707F84F4B28
:104310001B685A7912F00F0F03D19A790AB9DA792A
:1043200022B1C0F30F22997A8A4209D0FFF7B0FA7E
:104330000328D6D1434B08221A70FFF729FBD0E798
:10434000C0B2DB7A9842F1D13E4B05221A70FFF7DA
:104350007BFBC6E702F00F020A2A13D00821FCF704
:10436000DDFFC0F30F21394B1B681A7A9142B8D197
:10437000C0B25B7A9842B4D1324B05221A70FFF773
:1043800017FCAEE70621FCF7C9FFC0F30F212F4B46
:104390001B689A799142A4D1C0B2DB799842A0D12E
:1043A000284B07221A70FFF747FC9AE7264B012299
:1043B0001A70FFF73FFA06280CD0254B1B78012B0B
:1043C0000FD0224B1B68DB7813F0040F0CD0FFF7E3
:1043D0006DFC86E71F4B1B78012BEED1FFF772FDBA
:1043E0007FE7FFF763FC7CE7FFF734FF79E7FFF730
:1043F000C3F9B0F1FF3F7FF474AF70E7FFF764FAE1
:1044000002287FF46EAFFFF7C3FA6AE70E4B1B7802
:1044100053B9114B1B88114A1288934204D8104A91
:10442000128813440C4A13800E4B1B780E4A1278E4
:10443000934202D201330B4A13700C4B00221A70C4
:1044400056E700BF3E3700204C3F0020443B002091
:10445000223C0020213C0020F2360020F6360020CD
:10446000043B0020E9360020063B0020E036002017
:104470000D4B1B880D4A1288934211D003EB830128
:104480008A000B490A440B490A6001339BB20A4A6D
:104490001288013A12B21340034A13800020704779
:1044A0004FF0FF30704700BF563F0020E23C002035
:1044B0002C3C0020443B0020DA3D0020032801D89A
:1044C000014B1870704700BFC43D002008B50F4B6A
:1044D0000F4A1A60002307E00C490A680020507256
:1044E00038320A600133DBB2032BF5D9094B0622BF
:1044F0001A800020084B1880084B1880084B188041
:10450000084B1880FFF7FCF908BD00BF243C0020D1
:10451000E43C0020DA3D0020E23C0020563F002031
:10452000D43C0020283C00201D4A138801339BB254
:104530001380072B02D9134600221A80194B002240
:104540001A80184B1A88072A28D810B406E00132BE
:10455000144B1A80134B1A88072A1CD8104B1B883F
:10456000DB009BB210490B80981800F5D070440016
:104570000E4911F8100001340C5D40EA04200C4C87
:104580002080085C03F570731344C95C8842DED058
:104590000649C854DBE75DF8044B7047704700BF1D
:1045A000663F00205E3F0020643F0020DC3000209A
:1045B000623F002008B51D4B1B78023B032B08D837
:1045C000DFE803F002082330FFF7AEFF174B0322AA
:1045D0001A7008BD164B93F886314BB9154B1A78F3
:1045E000154B1B781A4203D1104B01221A70F0E7C9
:1045F0004FF496710220FFF751F8104B4FF48042B0
:104600001A600A4B04221A70E3E70220FFF74EF803
:104610000028DED00A4B4FF480421A60034B05227B
:104620001A70D6E7014B01221A70D2E7603F0020D2
:10463000DC300020682800205C3F00203CA00046C1
:104640003CA00044014B1870704700BF613F002040
:10465000024B1870024B1970704700BF603F00207A
:104660005C3F002010B50120FFF7ECFFFF21012087
:10467000FFF7EEFF00230BE003F5D0704200134973
:10468000042401F8104001320020885401339BB209
:104690003F2BF1D90D4A0023137153710DE00C4AE1
:1046A00052F8232003F5D0746100084800F8142064
:1046B000120A0131425401339BB21A2BEFD9002365
:1046C00004220E21012002F091FC10BDDC300020FC
:1046D000A40E0100014B1878704700BF603F002016
:1046E00008B50D4B93F8C8320C4A92F8C822934291
:1046F00007D0012B06D0084B93F8C822074B83F84C
:10470000C82208BD064B19780220FFF7A1FF024B13
:10471000002283F8C822EEE7DC300020B02A002017
:104720006828002010B5002404E0154B02221A70FE
:104730000134E4B2052C21D8114B1B78013B032B2B
:10474000F6D801A252F823F02B4700005947000089
:104750006547000071470000FFF72CFF084B03225C
:104760001A70E5E7FFF7E0FE054B04221A70DFE759
:10477000FFF7B6FF024B01221A70D9E710BD00BF48
:10478000613F0020F0B4274B1A782749885C431C0E
:10479000DBB28B5402EB82010144244804682448B4
:1047A00040F82140042B02D91F4B002199540024CA
:1047B0002646234601E00133DBB2032B11D81C4D02
:1047C00002EB8201C81855F820005F1C394455F8E7
:1047D0002110884200D9FEB28842ECD25C1CE4B2BF
:1047E000E9E700200546034601E00133DBB2032B75
:1047F0000DD8B342F9D0A342F7D002EB820119449D
:104800000B4F57F821100D440130C0B2EDE730B125
:10481000B5FBF0F0074B43F82200F0BC70470020D6
:10482000F8E700BF24150020A43C0020B841002078
:10483000F4400020CC3F0020F8B50121204801F0D1
:10484000FFFA00211F4801F0BBF91F4EF070002055
:1048500001F054FAB0701D4B00241C7402279F70A5
:104860000325DD705D70357023460122042120464A
:1048700002F0BCFB234601220E21284602F0B6FBC3
:10488000234601222946052002F0B0FB23460122DF
:104890000B21104602F0AAFB23460122394620468E
:1048A00002F0A4FB234601220521084602F09EFBEC
:1048B000234601220F21284602F098FBF8BD00BFD5
:1048C000009204000024F400381000204010002062
:1048D00003680A6802600B607047F8B505460F462A
:1048E000002613E00134BB1B013BA3420DDD05EBA9
:1048F000840055F82420631C05EB830155F8233010
:104900009A42EFD9FFF7E4FFECE701367B1EB34292
:1049100001DD0024E7E7F8BD024B5A78024B53F85B
:1049200022007047BC100020CC3F0020024B9A7937
:10493000024B53F822007047BC100020CC3F0020EF
:1049400010B5034C09212046FFF7C7FF206910BDB1
:10495000D0400020F8B5BD4B1B78013B0F2B16D87B
:10496000DFE813F01000160015004E005A00150085
:1049700015007D00B000B700C10063001F01680191
:10498000B701DE01FFF758FFB04B02221A70F8BDE5
:1049900064211120FEF782FEAD4D284601F090F80B
:1049A000AC4C204601F07AF953220021284601F050
:1049B00090F8A94E307066220121284601F089F84E
:1049C000F0706C220221284601F083F870709B225F
:1049D0000321284601F07DF8B070E36943F4A04359
:1049E000E3610123C4F890309C49204601F00AF9A4
:1049F0002946204601F08FF8944B04221A70C6E72E
:104A00001120FEF753FE0028C1D0924B04229A6079
:104A10008E4B0C221A70BAE71120FEF747FE0028D1
:104A2000B5D08A4B0C221A70B1E78A4BDB6813F4BD
:104A3000003FACD0002408E08949864801F0BAF86C
:104A4000884B43F824000134E4B2032CF4D96421E8
:104A50001120FEF723FE7D4B08221A7097E71120E4
:104A6000FEF724FE002892D0794D284601F028F860
:104A7000784C204601F012F955220021284601F019
:104A800028F8754E70716A220121284601F021F83C
:104A9000307187220221284601F01BF8B071E369CA
:104AA00043F48043E3610123C4F890306B4920460E
:104AB00001F0A8F82946204601F02DF8634B0922A1
:104AC0001A7064E7634B04229A60604B0B221A70E1
:104AD0005DE71120FEF7EAFD00283FF458AF5B4B7D
:104AE0000B221A7053E75B4BDB6813F4003F3FF473
:104AF0004EAF002409E0251D5949564801F05AF8E7
:104B0000584B43F825000134E4B2022CF3D94F4B43
:104B10000D221A703BE7534951F82450524B1B5D4C
:104B200003F598735A00514800F8135051F82410B7
:104B3000090A531CC1540134E4B2062C33D8042CA6
:104B4000E9D0484B53F8242040F6E44303FB02F33A
:104B50001B0C454E315D464A52F8212002FB03F3FF
:104B6000444D45F82430444B197055F82420434BEC
:104B70001A60FFF707FE45F8240055F82420404F3F
:104B8000A7FB02329209315D38314800374E06F8F2
:104B9000112055F82430A7FB03239B0B421CB35470
:104BA000B9E70024C9E7FFF7B7FE0446FFF7BEFEEA
:104BB0000546201A0BF000FC324B1B78324A82FB70
:104BC0000012C017C0EBE200304A42F82300072B66
:104BD0002AD801332B4A1370FFF7B2FE224B1A7901
:104BE000254B1A70254B1860FFF7CCFD78281FD98C
:104BF00078381D4E3279383251001C4B03F81200C0
:104C0000000A4A1C98542C441D4AA2FB0424E009C3
:104C1000F2793832510003F81200E40B4A1C9C541C
:104C20000A4B0E221A70B2E6164B00221A70D3E716
:104C30000020DEE7164B1B78022B2BD80133144AD9
:104C40001370024B0F221A70A1E600BFBC41002076
:104C50004010002000200040C03F002038100020FD
:104C6000A43F0020803F0020BC100020DC3000204A
:104C7000581000209441002024150020B841002045
:104C8000D34D62102315002067666666D040002071
:104C9000F63F0020244A92F8703092F8712043EADF
:104CA0000223224A1380224A1268934206D200232A
:104CB000204A13701C4A82F88631C2E7C8329342F8
:104CC000BFD91C4B00221A70174B012283F8862192
:104CD000B7E7154991F82C2091F82D3042EA0322CC
:104CE000154B1A80154B5B793833580011F8133087
:104CF0000130095C43EA012311490B809A420BD829
:104D0000104B00221A700F4B1A78074B83F82E2392
:104D10000D4B02221A703AE60A4B01221A70F2E792
:104D2000094B02221A7032E6DC300020B03F00202E
:104D300078100020F63F0020B8100020BC100020A2
:104D4000F43F002015100020BC410020014B1870DA
:104D5000704700BFB43F002070B500222FE0530021
:104D6000DBB2594951F8221003F16004574801554C
:104D7000C1F3072103F161040155554951F822108F
:104D800003F140040155C1F3072103F1410401552A
:104D9000504951F8221003F130040155C1F30721A5
:104DA00003F1310401554C4951F8221003F150042C
:104DB0000155C1F307215133C1540132D2B2072A40
:104DC000CDD90523454A1360404C84F82033002593
:104DD00084F82153424B4FF47A721A60E82384F826
:104DE0002233032384F8233384F8245384F825538F
:104DF00001263C4B1E6084F8266384F8275384F810
:104E0000285384F829530223374A136084F82A333D
:104E100084F82B53354B1E7084F82C63EF2384F8F1
:104E2000103384F8115384F8125384F8135384F820
:104E30002D632F4B1D802F4B1D8084F8205084F84C
:104E400021502D4B1E8084F8246084F825502B4B74
:104E50001D702B4B1D802B4B1D802B4B40F2D662BF
:104E60001A802A4B4EF660221A60602384F82230A2
:104E7000EA2384F8233040F6B8310F20FEF70EFC09
:104E80002823234A1380234A1570234A138084F869
:104E9000283084F829503C23204A136084F82A30B3
:104EA00084F82B501E4B1B7884F82E331D4B40F694
:104EB00098021A80982384F82C30082384F82D3027
:104EC0003046FFF743FF70BD58100020DC30002053
:104ED000981000207810002018100020B83F002003
:104EE000B041002000400020743F0020AA3F002075
:104EF000B23F0020B63F0020C83F0020A13F002065
:104F0000683F00209E3F00209C3F00206C3F002017
:104F10007C3F0020A03F002004400020783F00207C
:104F200015100020B81000200020704770470000C6
:104F300030B585B0094C2268094B1A60094D0A4BFF
:104F40002B600A4B019304F045F802902B68039301
:104F500001A9206802F0B6FE05B030BD04110020A2
:104F6000C4410020C0410020F81000208812010038
:104F700038B504F02FF80546064C2368D3F8AC0288
:104F800004F01CF8206802F0AFFE284604F016F882
:104F900038BD00BF0411002008B50421112001F024
:104FA000FFFA0121084800F04BFF0321074801F0F8
:104FB000F7FA0321064801F0F3FA0321054801F04E
:104FC000EFFA002008BD00BF30053E0002001E00C1
:104FD000030020000500240008B500F039F808BDE2
:104FE00008B50A4B01225A641A6842F480721A60AA
:104FF000074A136843F4F843136003F09DFF03F07E
:10500000BBFFFFF7C9FF03F0A7FF08BD00000E407C
:10501000A4310E4008B500F073F800F07DF808BD2B
:1050200008B5FFF7D9FF04F0DFF9FFF781FF08BDEE
:1050300008B502F0C7FC02F05DFD02F009FD08BDF5
:105040007047704708B5FFF793FF08BD704770477A
:1050500070B598B0144E11AC35460FCD0FC495E81D
:10506000070084E807002422002108A80BF028FA92
:105070000E4B06930E4B0793012309938DF8403096
:105080001F238DF8413002AC06F11C030FCB84E8DE
:105090000F00084B009306AB11AA2146064804F006
:1050A000C1F818B070BD00BFA0120100000001409F
:1050B00000320400DC1700202018002008B5024B45
:1050C000186804F049F908BD20180020704708B599
:1050D000FFF7FCFF08BD704708B5FFF7FCFF08BDF0
:1050E000704738B504460D4602F074FC2946204648
:1050F000FFF7F6FF38BD08B5FDF758FA08BD000008
:1051000008B5034800F00AF9024800F007F908BDA5
:10511000D0120100E012010008B5034800F0ACF91C
:10512000024800F0A9F908BDF012010008130100BF
:10513000FEE7000010B500F06FF8074B074C19466A
:10514000074A04E010680860043304310432A342C3
:10515000F8D3FAF7E9FF00BF00100020D0140020B8
:10516000003201000048704700F04902114BD3F8AB
:10517000943003F00703023B032B0DD8DFE803F064
:10518000050F02080C4B18680BE00C4B186808E080
:105190000B4B1868400804E0094B186801E04FF415
:1051A0000040044BD3F80031C3F304230133B0FBB8
:1051B000F3F0704700400E40341100202C11002005
:1051C0003011002008B5FFF7D1FF054BD3F80831A7
:1051D000C3F308230133B0FBF3F0024B186008BDA2
:1051E00000400E4028110020014B1868704700BF96
:1051F0002C11002008B5064B1860064BD3F89430EC
:1052000003F00703022B00D008BDFFF7DBFFFBE72D
:105210002C11002000400E40044B054A9A60D3F840
:10522000882042F47002C3F88820704700ED00E047
:10523000000000004FF4004070474FF47A70704750
:10524000014B1868704700BF341100200023036031
:10525000704703680B600160704790B130B404463A
:105260006AB161B1002003E004F8013B0132013072
:10527000137813B14D1E8542F6D80023237030BC3D
:1052800070477047034640B1002001E00133013010
:105290001A781AB18842F9D370470020704708B5D0
:1052A0004FF0FF31FFF7EEFF08BD80B170B5064645
:1052B00032B129B115460C46FFF7F1FF844200D800
:1052C00070BD2A46211A3044FFF7C7FFF8E7704740
:1052D00010B3F8B50F46064651B90120F8BD203489
:1052E0000FE0601BFAD13378002BF7D0013601377D
:1052F00034780BF0A1F82044437803F00303012B2A
:10530000EDD03D780BF098F82844437803F0030380
:10531000012BE6D12035E4E70120704708B543684A
:1053200013B10068984708BD2220FCE708B58368E0
:1053300013B10068984708BDFF20FCE70023144A1A
:1053400012789A4223D910B51C46124A52F82320EB
:1053500011684A79824206D00133DBB20C4A1278D6
:105360009A42F1D812E00B7903EB430318010A4B80
:10537000034402EBC30292001368B3FA83F35B09A0
:105380000B70044B53F82400FBF776F810BD704700
:10539000CC120100181100201CA0104210B582B0E0
:1053A00004460121164800F04BFD002301226179DB
:1053B000207901F01BFE2279637902EB4202110190
:1053C000104A0A4403EBC2039B001B68B3FA83F341
:1053D0005B092370A379022B02D0002002B010BD1C
:1053E00000F076F90849607900F080F96179207958
:1053F0000123019300930A4601F09AFDEDE700BFF7
:1054000000250A001CA010423D53000000787047A0
:1054100010B40279437902EB42021101154A0A44A1
:1054200003EBC2039B001A68141C18BF0124817986
:10543000012907D019B9B2FA82F2520902705DF857
:10544000044B704743885B009BB2234343F47F4384
:1054500043F0C0034FF6E072934205D04FF6DF727F
:10546000934204D04380EAE701220270F6E700226B
:105470000270F7E71CA0104208B54368006898471F
:1054800008BD000010B504460121094800F0D8FC11
:105490000121084800F0D4FCA378B3FA83F35B0938
:1054A00004226178207801F0A1FD002010BD00BF2A
:1054B0004041050000250A0083784BB1037840780D
:1054C00003EB4303190101228240064B5A507047F7
:1054D0000378407803EB4303190101228240024B19
:1054E0005A5070470CA000460CA0004483784BB182
:1054F0000378407803EB4303190101228240064BF5
:105500005A5070470378407803EB43031901012296
:105510008240024B5A5070470CA000440CA0004639
:10552000027843780121994002EB4202130103F112
:10553000804303F520439961704700000278437867
:1055400002EB42021101074A0A4403EBC2039B002B
:105550001B68DBB2827812B9B3FA83F35B09184691
:10556000704700BF0CA01042124B1B78F3B1F8B18A
:1055700010B5044601F051F90023072B12DC0E4A46
:1055800002EB0312127B0AB10133F6E723600A4AE9
:105590001B01D11801240C730024D45001F041F9EF
:1055A000204602E001F03DF9044810BD0448704770
:1055B00004487047B419002034180020048000F01B
:1055C000028000F0018000F000B583B0144B1B682E
:1055D000019300238DF8043001F01FF9114B1B7863
:1055E00033B9104B01221A7001F01BF9002309E0B6
:1055F00001F017F90C480FE00C4A02EB03120021EE
:1056000011730133072BF7DD04238DF807300DEB01
:10561000030001F06DFF002003B05DF804FB00BF44
:1056200020130100B4190020038000F0341800207A
:10563000F8B5194B1F6EDB6E1F4002D40126002403
:1056400002E0FEE701347600072C24D83E42F9D070
:10565000114B9E662301114AD358002BF2D002EB66
:105660000415A9680131A9606A682046984780F04E
:105670000103DBB26A7B012AE4D1002BE2D0084BA4
:1056800003EB4413197B6FF3410119731A7F6FF316
:1056900041021A77D6E7F8BD00200E4034180020EA
:1056A000B418002010B504467CB194FAA4F0B0FA06
:1056B00080F0C2B20123934024EA0304034B53F861
:1056C0002230002BF0D09847EEE710BDB81900202B
:1056D000054B4FF48022C3F880211A604FF480629A
:1056E000C3F880211A60704700E100E038B5044635
:1056F0000D4601F092F8034B43F8245001F091F865
:1057000038BD00BFB819002008B5084BD3F82804ED
:10571000D3F81C24104020F42A5020F02A00400422
:10572000400CC3F82404FFF7BDFF08BD00A00040F3
:1057300008B5084BD3F82804D3F81C24104020F4F3
:10574000AA4020F055000004000CC3F82404FFF721
:10575000A9FF08BD00A00040C000094BA3FB002327
:10576000084A1068A0EB930010F1800F03DB7F283C
:1057700003DD7F2001E06FF07F0040B2704700BF83
:10578000CDCCCCCC001A0020044B4FF04042DA6262
:105790001A6B22F040421A63704700BF00300E407F
:1057A000002305E0354A02EBC30235490A600133A4
:1057B000042B16DC314A52F83320002AF7D0304A45
:1057C00011680A68002AEDD02C4A02EBC302107956
:1057D0000A799042EBD9294A02EBC30228490A60B0
:1057E000E5E7002305E0274A02EBC30226490A60E9
:1057F0000133042B16DC234A52F83320002AF7D059
:10580000214A11680A68002AEDD01E4A02EBC30241
:1058100010790A799042EBD21A4A02EBC3021A4974
:105820000A60E5E7164B19680B68DBB1174AD369C4
:1058300023F0FF0309790B43D361136B43F08043DB
:105840001363114B19680B6893B1104AD36923F4A1
:105850007F43097943EA0123D361136B43F000438B
:1058600013637047094A136B23F080431363E8E71F
:10587000064A136B23F0004313637047141A002089
:10588000041A00203C1A0020081A002000300E40A4
:105890000F4B1A68C2F307425B6DDBB2FF2A10D0D0
:1058A000FF2B11D002EB820103EBD101094801600B
:1058B000DB000949A1FB031302EB9303074A1360C2
:1058C000704790231922EDE790231922EAE700BFE1
:1058D000B081E00FFC190020CDCCCCCC001A002008
:1058E00010B501240E4B1C70282200210D480AF02F
:1058F000E7FD282200210C480AF0E2FD0B4B0C4A80
:1059000013600C4A1360FFF7C3FFFFF73DFF0A4B1C
:10591000C3F880411C60FFF743FF002010BD00BFAB
:10592000F8190020141A00203C1A00200C1A00203C
:10593000041A0020081A002000E100E008B5054B19
:10594000186AC0B21B6ADBB29842F8D1FFF704FFB5
:1059500040B208BD00300E4010B5164A136B526AB3
:10596000134013D413F0804F20D0134B18680468F1
:105970003CB1082200210AF0A3FDFFF7DFFF01215F
:10598000A0470C4B4FF08042DA620FE00B4B1868D7
:1059900004683CB1082200210AF092FDFFF7CEFF17
:1059A0000021A047034B4FF00042DA62FFF7F8FEF8
:1059B00010BD00BF00300E40041A0020081A00205D
:1059C00008B5FFF7C9FF08BD30B442B11025364B0A
:1059D000446B1C40354B984204D030BC70470025C6
:1059E000334BF5E702292BD007D9062945D0812969
:1059F0004CD0032931D000231EE089B10129FAD10E
:105A00002C4A13681B0E1B0203F4FE431168C1F3FA
:105A100003410B431268120D1201D2B213430BE083
:105A2000244A136803F4FE43116801F00F010B438D
:105A3000126802F0F0021343AB4023434363CCE708
:105A40001D4A136803F4FE43116801F00F010B4374
:105A5000126802F0F0021343EEE717490A68120ECB
:105A6000120202F4FE420B68C3F303431A430B68AD
:105A70001B0D1B01DBB21343DEE7104B1A6802F06B
:105A80000F021B6803F0F0031343D5E70A490A68C5
:105A900002F4FE420B6803F00F031A430B6803F095
:105AA000F0031343C8E700BFFFFF00800020004061
:105AB0000080FFFF1082E00F1482E00F1882E00FD9
:105AC0004FF0FF3343600023836043F6E413C36069
:105AD000704730B400230374D3089D1E012D00D9F4
