:10000000007C002015630000416300004163000094
:100010004163000041630000416300004163000050
:100020004163000041630000416300004163000040
:100030004163000040630000416300004163000031
:10004000994400006598000041630000A5900000FD
:10005000D19800007198000089980000699800000C
:10006000A93F0000291700009D44000049610000DD
:1000700041630000416300004163000041630000F0
:10008000A1180000514000004163000041630000DE
:1000900041630000416300004163000041630000D0
:1000A000416300004163000041630000D5980000F7
:1000B0006D98000015430000159900004163000091
:1000C000498300004163000010B5054C237833B923
:1000D000044B13B10448AFF300800123237010BD1B
:1000E0000003002000000000DCD8000008B5034B2E
:1000F0001BB103490348AFF3008008BD00000000B6
:1001000004030020DCD80000154B002B08BF134B64
:100110009D46A3F5803A00218B460F461348144AAA
:10012000121A0BF06AF90F4B002B00D098470E4BB8
:10013000002B00D098470020002104000D000D483E
:10014000002802D00C48AFF300800BF027F9200004
:10015000290001F0D9FC0BF00DF900BF00000800E8
:10016000007C0020000000000000000000030020D0
:10017000305A00200000000000000000704700001E
:100180002DE9F34105460C4616460F463B1B9D42A2
:1001900029DC082D2CD0A5F10C03012B94BF0721DD
:1001A0000321635C1848184FDFF8748021441B0456
:1001B0004A7803F4702343EA02238A7813491343ED
:1001C000134A136032460BF0E3F9013C114E25440B
:1001D000A5420FD10C4A104B1049104602B0BDE8A1
:1001E000F0410BF0D5B917F8010B0BF00FF9CDE783
:1001F0000321D6E714F8013F00933A4633464146BF
:1002000001480BF0C5F9E3E72A3B002050C5000088
:1002100000270020ACD8000066C500006BC50000B8
:100220005DC50000134A144B10B5012482F88641C5
:100230000F2283F8864183F88521104B1C70104BE8
:100240001C70104B00221A70032123462246052001
:1002500005F0A8F9234607210520022205F0A2F99E
:10026000094B1C70094B10211C700220BDE8104086
:1002700003F00CBB2643002051490020753B0020B1
:100280007B3B0020793B0020763B0020783B002020
:1002900038B5234C2378013B042B06D8DFE803F064
:1002A0000306081D2F000223237038BD0323FBE73C
:1002B0001C4B93F886211C4B012A93F8861108D118
:1002C000012904D00421217083F88621EDE7012162
:1002D000F9E78A42FBD00521F5E703F0E1FA0128AE
:1002E0000546E2D10F4B0F221021022083F8852111
:1002F00003F0CCFA0D4B00221A702570D5E703F0FD
:10030000CFFA01280546D0D1064B05221021022044
:1003100083F8852103F0BAFA044B1D70EDE700BFA6
:10032000753B00205149002026430020793B0020E6
:1003300010B5214C2378013B042B06D8DFE803F0ED
:100340000306152430000223237010BD1B4B93F8C5
:100350008531242B01D10423F6E7042B01D103239B
:10036000F2E7082B0ED10523EEE7154B08221A60A1
:10037000032101230222052005F014F90F4B052269
:1003800083F885210123DFE70D4B08221A60032142
:1003900001230422052005F005F9084B2522EFE78B
:1003A000084B08221A60032100230422052005F0CF
:1003B000F9F8024B0922E3E7793B0020514900207C
:1003C000FCA00046FCA0004470B50A4B0A4C8025F6
:1003D0001D6008232360042200230321052005F06B
:1003E000E1F825600023042207210520BDE87040C4
:1003F00005F0D8B86CA00046FCA0004438B5564CB7
:100400002378013B082B0ED8DFE803F0050E1C27EC
:100410004C6583899600514B002283F88A2183F82A
:100420008B210223237038BD4D4B4E4A1968117041
:100430001B68002BF7D14FF4FA61192002F0D8FBAA
:100440000323EFE7192002F0DBFB08B10423E9E7FF
:10045000434B1B68012BE6D1E4E703F021FA0128A6
:10046000E1D13E4D95F8863123B9152385F88531C4
:100470003D4B18704FF4FA51192002F0B9FB0123DB
:1004800085F88A3195F88631012B08BF04234FF097
:1004900040014FF0020008BF85F88B3103F0F6F9F8
:1004A0000523BFE7192002F0ABFB08B10623B9E72B
:1004B0002B4B1B68012B01D10723B3E7274B93F884
:1004C0008B21052AAFD193F88631012BABD1BDE842
:1004D0003840FFF779BF03F0E3F90128A3D11F4BA0
:1004E00093F8862122B9192183F885111E490870D5
:1004F000022183F88A1193F88B31043B012B03D836
:10050000012A01D1FFF760FF4021022003F0BEF96C
:10051000D2E7C821192002F06BFB082382E7104BB9
:100520001B680BB907232370192002F069FB002810
:100530003FF479AF092375E703F0B2F901280546C6
:100540007FF471AF054B00224021022083F88A21FD
:1005500003F09CF9257066E77B3B002051490020A1
:100560009C2114427A3B0020773B002070B50F4D50
:100570002C78012C02D0022C08D070BD4FF47A7177
:100580001A2002F035FB02232B70F6E71A2002F046
:1005900037FB0028F1D0064B93F88721022A18BFB9
:1005A00083F8874101232B70E7E700BF763B0020EB
:1005B0005149002070B5234D2C78022C2E460BD0CB
:1005C000032C26D0012C23D143F698211B2002F0C6
:1005D0000FFB02232B701BE01B2002F011FB1A4BB8
:1005E00090B193F88821022A03D093F88921022A36
:1005F00005D1012283F888210123337008E01D22F0
:1006000083F885210322F5E793F88831032BE1D0A5
:1006100070BD0E4B1B6833B14FF4FA611C2002F021
:10062000E7FA0223E9E71C2002F0EAFA0028F8D0F2
:10063000074B08221A60214601230222052004F0FC
:10064000B1FFEEE7783B0020514900209C21144285
:10065000FCA0004610B51E4C2378013B032B34D878
:10066000DFE803F0020C13341A4B93F88931022BA4
:1006700002D10423237028E00223FBE740F6B831BF
:100680001D2002F0B5FA0323F4E71D2002F0B8FAAA
:10069000104BA0B193F88521152A0CD1172283F8AD
:1006A00085210D4B08221A60032101230222052017
:1006B00004F078FFDDE7192ADBD11B22EFE793F87E
:1006C0008531152B01D0192BD3D110BD0023D1E7D3
:1006D000773B002051490020FCA0004608B5FFF7F9
:1006E000D7FDFFF78BFEFFF723FEFFF7B3FFFFF702
:1006F0003DFFBDE80840FFF75DBFFFF7EFBF00001B
:10070000024A137818431070704700BF983B0020CE
:10071000024A137823EA000010707047983B0020CB
:100720000521F8B508460023012204F03BFF002311
:1007300004220721022004F035FF002304220821AF
:10074000022004F02FFF2F4B2F4C304D01271F703C
:10075000032384F8303185F8313184F83131802336
:1007600085F8383184F83831092300210C26C42259
:1007700085F83B3184F83B310220142385F837316A
:1007800084F8373185F8301185F8396184F839619A
:1007900085F83A2184F83A2185F83E1184F83E1113
:1007A00085F83F1184F83F1185F83D1184F83D111B
:1007B000FFF7AEFF164B85F839131980154B84F8F7
:1007C00039131F70144B85F838131F70134B84F8BE
:1007D00038131F70124BAE751970124BA675197035
:1007E000114B85F8BE601970104B84F8BE601F7005
:1007F0000F4B85F81A13197084F81A13E975E1750F
:10080000F8BD00BF7E3B0020264300205149002058
:10081000923B00209D3B00208E3B00209C3B002013
:100820008A3B00201C030020823B00209E3B0020CE
:10083000903B002070B5464C2378013B082B0CD828
:10084000DFE803F0050C131A323C7B70840064214E
:100850001F2002F0CDF90223237070BD1F2002F08B
:10086000CFF90028F9D00323F6E73A4B93F8863105
:10087000002B60D10423EFE7364B93F8732093F8F5
:10088000721093F8390141EA0221334A118093F83A
:10089000382142EA00223148914202804BD801229D
:1008A00083F83E210523D7E702F0FAFF0128D4D1CF
:1008B0008021022002F0EAFF0623CDE7254B284ED7
:1008C00093F8732093F8720093F83A5193F8381123
:1008D00040EA0220204A108093F83B2145EA022595
:1008E000204A158093F8392141EA02211B4A1180E0
:1008F00093F8372102EB82025200A842328003D9DA
:1009000093F83F510A2D01D10823A5E793F88651AA
:10091000012D02D00A4490429FDB002283F83E2141
:10092000072399E7104B08221A60032100230422B1
:10093000052004F037FE09238EE702F0B1FF0128FD
:100940008BD18021022002F0A1FFF4E7012383E78D
:100950009C3B0020514900208C3B0020963B00200E
:100960009A3B0020943B0020FCA00044034A022351
:1009700082F83231024A82F8323170475149002000
:1009800026430020054B1868054BC0B2012818709B
:1009900001D1FFF7B5BE0120FFF7BABE9C0F14428C
:1009A0008B3B002038B51B4C2378013B042B06D829
:1009B000DFE803F00306101725000223237038BD7B
:1009C0000521084602F014F9FFF7D0FFFFF7DAFF20
:1009D0000323F3E7052002F013F90028EFD00423E6
:1009E000ECE70D4B0D4A1B68DBB21370012B0C4B6F
:1009F0000CBF0322022283F831210123DEE702F03B
:100A00004FFF01280546DAD18021022002F03EFF87
:100A10002570D4E78E3B0020942114428F3B0020A8
:100A2000514900201B490B78013B10B5062B0AD811
:100A3000DFE803F00F11040D2D0A2B00164B802266
:100A40001A6004230B7010BD144B80221A60072318
:100A5000F8E70223F6E7124A124B92F8300193F8B6
:100A6000304184420FD001280BBF0320022083F8BD
:100A7000300183F8300107BF82F83001052382F886
:100A800030010323DEE7FFF77DFF0123DAE70623CA
:100A9000D8E700BF9D3B00206CA000446CA000463E
:100AA000514900202643002010B50B4B0B4C93F806
:100AB0003D1194F83D018142194609D001284FF0BB
:100AC000020006D1FFF71CFE94F83D3181F83D315C
:100AD00010BDFFF71DFEF7E7264300205149002017
:100AE0000E4B93F88621012A19460D4A0FD10D4865
:100AF000007860B993F83D0148B9032183F83211B9
:100B0000094B82F832114FF480721A607047022349
:100B100081F8323182F83231044BF4E75149002038
:100B2000264300208B3B00206CA000466CA00044B4
:100B300030B585B0124B01930123ADF80830114B4D
:100B40005A7A8DF80A209A7B8DF80B20DA7B8DF883
:100B50000C200A211A7C5B7B8DF80D200DF105001D
:100B60008DF80E3000F0FAF800248DF80F0001AD7A
:100B7000285D01340AF04AFC0C2CF9D105B030BDD7
:100B800055AE00DB51490020F8B53A4C2378013BC3
:100B9000062B12D8DFE803F0040B122F3664600036
:100BA0004FF4FA61052002F023F8022304E001214A
:100BB000062002F01DF803232370F8BD2E4B1B689E
:100BC00013F0FF0F2D4B0ABF1A88002201321A8042
:100BD000198841F28732914285BF00221A8004238E
:100BE0000623237000F03EFE0028E6D0002000F02F
:100BF0003FFE0623E0E7052002F002F80028D4D0EB
:100C00000523D9E700F03AFE1D4F1E4E386000F074
:100C10003BFE306000F03EFE1B4D286000F01CFEE5
:100C20003A681A4BC2F3034199721A73110A184AAF
:100C3000D97212785A7332681A74C2F303419973E5
:100C4000110A2A68D973C2F303415974110A587200
:100C50009974DA740723AFE7FFF76AFF0123ABE764
:100C60000B4A0C4813780133137004F035FD00F083
:100C700079FD9AE77E3B0020A80F14422C03002048
:100C800020030020240300202803002051490020D5
:100C90001D03002000C0004008B5FFF705FFFFF767
:100CA000C1FEFFF77FFEFFF7C5FDFFF719FFBDE8A7
:100CB0000840FFF769BF000030B50B4C0022D3B2EB
:100CC00008215DB25B00002DDBB2B8BF434001F1EB
:100CD000FF31B8BFDBB211F0FF01F2D11355013281
:100CE000B2F5807FEBD130BDA03F002030B50C4C79
:100CF000002213029BB208211DB25B00002D9BB2A3
:100D0000B8BF434001F1FF31B8BF9BB211F0FF0102
:100D1000F2D124F812300132B2F5807FE9D130BD32
:100D2000A03B002030B50C4C002213029BB20821DE
:100D30001DB25B00002D9BB2B8BF434001F1FF31F3
:100D4000B8BF9BB211F0FF01F2D124F8123001328A
:100D5000B2F5807FE9D130BDA03D002030B5074D10
:100D600004460023221AD2B2914201D8184630BD5F
:100D700014F8012B5340EB5CF4E700BFA03F0020C8
:100D800030B5094D04460023221AD2B2914201D84F
:100D9000184630BD14F8012B82EA132235F81220D0
:100DA00082EA03239BB2EFE7A03B002030B5094D58
:100DB00004460023221AD2B2914201D8184630BD0F
:100DC00014F8012B82EA132235F8122082EA032359
:100DD0009BB2EFE7A03D00200A4B002283F80823D6
:100DE000094B1968094B83F80813094901230B7053
:100DF000084942F21070086007490A70074A1370E8
:100E0000704700BF26430020000000205149002009
:100E1000AE400020A44000202F030020C840002046
:100E20002DE9F041914C2378013B0B2B24D8DFE8CE
:100E300013F00C000F001E0025002C0033004F00A3
:100E40005600CE00F1000B011B010223237013E0BA
:100E5000874B1A78012A08D100221A70854B03208B
:100E6000196801F0C5FE0323F0E70423EEE7032031
:100E700001F0C6FE0028F8D1BDE8F0817E4B0420C9
:100E8000196801F0B5FE05232370042001F0B8FEB7
:100E90000028F1D00623D9E7784A794B92F8081355
:100EA000196092F8003392F804231343754A1360D3
:100EB000754A00231360754A1360754A1360754ABA
:100EC0001370754B0320196801F092FE0723BDE7EC
:100ED000032001F095FE0028CED00823B6E76D4F21
:100EE0006B493A78012393400B60654909680B42CE
:100EF00059D0624802F1380500EB450610F815108C
:100F000096F801C0654816F8405C41EA0C21018062
:100F100016F83F0C16F81FCC45EA002560480580FE
:100F200016F8200C5F4E40EA0C20012A308041D197
:100F30004FF63776B542DFF884E1DFF8848194BF5D
:100F400005F1C8064FF6FF76AEF80060C828564E89
:100F50008CBFA0F1C80C4FF0000CA942A6F800C04D
:100F6000DFF824C107D3BEF800508D4208D9D8F865
:100F700000502B4204D0DCF800501D43CCF8005048
:100F8000DCF80050C8F800508142484D3F4805D871
:100F900036888E4205D229680B4202D001680B4385
:100FA000036003682B600132D2B2072A3A7088D9F5
:100FB00009234BE7A9423FBF334E35681D433560D7
:100FC000814281BF314801680B430360EBE72E4B40
:100FD00018682A4B93F8002393F80413024383F80C
:100FE00000232A4A1268114383F8041380B900329F
:100FF00018BF012223492E48096883F80C230029D1
:101000000CBF1146012183F80D1301700A231DE75F
:101010000122EFE7274B194A93F80C0392F80C13BF
:1010200092F80D2388421FBF83F80C132249012038
:10103000087093F80D1391421FBF83F80D231E4BC8
:1010400001221A700B2301E71B4D2B78012B09D1CC
:1010500002F026FC012805D10023202102202B705C
:1010600002F014FC0C23F1E60123EFE6C840002057
:10107000AE400020A4400020A8400020514900209C
:10108000D8400020D0400020CC400020C4400020A8
:10109000B0400020A0400020DC400020D4400020D0
:1010A000C0400020B8400020AC400020B4400020E8
:1010B0002E030020264300202F030020A240002002
:1010C000BC4000202DE9F04F85B0077800979DF8CF
:1010D00000701F70477801979DF804705F7090F85A
:1010E00002B083F802B0033A0330002750FA82F2CC
:1010F000BC46BE46B8460392039A121A52B2002A60
:1011000010DC009A82EA0808019A83F8008082EADB
:101110000E0E8BEA0C0C83F801E083F802C005B0D8
:10112000BDE8F08FB7B3013FFFB2082210F8019B72
:10113000029219F0010F0BD088EA04088EEA050E1E
:101140008CEA060C5FFA88F85FFA8EFE5FFA8CFC78
:1011500072B2002A4FEA46064FFA85FA4FEA590959
:10116000F6B24FEA45051BDABAF1000FB8BF46F0F8
:10117000010622064FEA4404EDB2E4B248BF45F04E
:10118000010584F01B04029A013A12F0FF02029258
:10119000CFD1B1E70C784D788E7802270331C4E7C0
:1011A000BAF1000FBCBF46F00106F6B2EDB222065E
:1011B0004FEA440448BF45F00105E4B2E3E700000C
:1011C0000B4B1B7833B10F2B10D80A4A1278013B16
:1011D000934202E0074B1B780F2B07D0064A92F888
:1011E000CD30013382F8CD3001F0FEBE704700BF34
:1011F00090540020C0570020514900202DE9F74F9E
:101200001E2001F0FDFC18B1694B002283F8B520C7
:10121000684C2378013B032B27D8DFE803F0020E4C
:10122000B9C7634B93F8862122B193F8B730012BED
:1012300040F0BC800223237017E05D4D95F8B63076
:10124000002B40F09F802378022B04BF00232370E3
:1012500095F82F33012B08D1574B1A78022A04D165
:101260002278032A18BF04221A7003B0BDE8F08F59
:1012700006F5807355F82330C9F80030002B52D0A2
:101280004E4A12685340C3F31303002B4BD195F819
:10129000CF30012B6ED13A78DFF834A1FF2A3DD050
:1012A0001AF8063093421ED040F6B8311E2001F0E5
:1012B0009FFC0323237095F8D7308BB1022B3FD1CD
:1012C0003F4AD5F8D8301360D9F80020934207D1AF
:1012D0003C4A136801331360C5F8DC3001F060FE4E
:1012E0003B78FF2B1AD01AF806209A4216D1364BBB
:1012F000DFF8E0B019789BF80020019391420DD0FF
:10130000FFF75EFF019B2F4A1B788BF800301368B4
:1013100001331360C5F8DC3001F042FE3B780AF877
:101320000630FF233B7008F1010895F8B6305FFAEC
:1013300088F6B3429CD8214B4FF6FF721A6082E7C1
:10134000012BCDD11F4ADFF88CB013680133136035
:10135000C5F8DC3001F024FE1B4B9BF80020197807
:1013600001939142BCD0FFF72BFF019B1B788BF8B8
:101370000030B5E740F6B8311E2001F039FC0323F8
:101380002370D0E74FF00008DFF84C900F4FCCE708
:1013900002F086FA01287FF468AF054B082183F834
:1013A000B500022002F072FA042344E7002342E76A
:1013B0005149002000410020E0400020F040002082
:1013C000F8400020E4400020905400209441002088
:1013D00004410020C0570020FC400020034A0023A5
:1013E000FF2199540133802BFBD170470441002029
:1013F000114B124800221A70114B59211970114BD0
:1014000083F8B8101C2101800F4883F8BA100180BE
:10141000062183F8BD10082183F8B1100B4983F829
:10142000BB200A700A490A70012283F8CF2083F892
:101430002F23FFF7D3BF00BF004100208C410020C5
:10144000E840002051490020EE4000208E4100205D
:10145000F640002010B5334A334B92F8D71093F87A
:10146000D70088420AD0314883F8D71000210160A4
:101470002F4882F8CC10016082F8CD1093F8BA00A2
:1014800092F8BA1088421EBF2A4883F8BA10017039
:1014900092F8BB1093F8BB00884206D0254C83F825
:1014A000BB10207840EA0120208092F8B21093F817
:1014B000B200884206D0012908BF1F4883F8B21045
:1014C00008BF017092F8B01093F8B00088420BD0BA
:1014D000012909BF184802210170032182F8B010C8
:1014E00092F8B01083F8B01092F8BD1093F8BD00D8
:1014F00092F8BC20884218BF83F8BD1093F8BC1046
:1015000091420AD0032A09D0042A09D0022A02D122
:101510000A490020087083F8BC2010BD0849F8E78C
:101520000849F6E75149002026430020E440002006
:10153000C45700208C410020F5400020E9400020E5
:10154000F64000208E41002008B5FFF757FEBDE8A9
:101550000840FFF77FBF704710B50B7814789C42A6
:1015600003D003700B78137010BD03789C42FBD03E
:101570000B700378F7E710B50B8814889C4203D0F2
:1015800003800B88138010BD03889C42FBD00B8026
:101590000388F7E738B5284D284C29482A462146C4
:1015A000FFF7E9FFAA1CA11C2648FFF7E4FF2A1D4C
:1015B000211D2548FFF7DFFFAA1DA11D2348FFF7C6
:1015C000DAFF05F1080204F108012148FFF7D3FF13
:1015D00005F10A0204F10A011E48FFF7CCFF05F1EC
:1015E0000C0204F10C011C48FFF7B6FF05F10D02D7
:1015F00004F10D011948FFF7AFFF05F10E0204F1E8
:101600000E011748FFF7A8FF05F10F0204F10F01C3
:101610001448FFF7A1FF05F1100204F11001124870
:10162000FFF79AFF05F1110204F111010F48BDE81F
:101630003840FFF791BF00BFAE430020D9490020DA
:101640006C4F0020B24F0020684F002076530020DE
:101650007A530020A6530020624F00205B4F0020E9
:1016600078530020614F00206E4F0020584F00201B
:10167000FFF790BF014B01221A7070473103002021
:1016800008B50122044B4FF47A7104F08BFEBDE8DB
:10169000084001F0BFBA00BF8116000008B5012163
:1016A000084803F01DF90121074803F019F9012149
:1016B000064803F015F9012211460020BDE8084054
:1016C00003F02ABB0072040000250A0030053E002A
:1016D000054B0649D9631A6C0A431A64044B4FF44C
:1016E00080321A60704700BF00C000402400010033
:1016F00000E100E0094B4FF48032C3F88020BFF3D3
:101700004F8FBFF36F8F064A136C23F4803323F09F
:1017100024031364034BD363704700BF00E100E070
:1017200000C00040240001000B4A08B5D2F828345C
:10173000D2F81C140B4023F42A5323F02A035B0431
:101740005B0CC2F82434054B1B7823B9FFF7D2FF9A
:10175000034B01221A7008BD00A000400043002086
:101760000143002030B51D4B1D4C0FCB85B06D469D
:1017700085E80F001B4B02930B2201230A21022054
:1017800003F010FF0B2211460123022003F00AFF91
:1017900003236364A36C23F01F0343F01003A364CB
:1017A000A36C23F4F85343F46063A36429462046F2
:1017B00003F076FF0C4A002313700C4A13700C4A96
:1017C000137068236361FE23A361236843F016034B
:1017D0002360FFF77DFF05B030BD00BF70C500007E
:1017E00000C000401F100F000043002001430020F4
:1017F0009841002010B5114B1148114C86B02022A1
:101800001A60104B0193104B0293104B1B78ADF8EC
:101810000C300F4B049301A90A23ADF8143004F0E7
:10182000F1F8012806D00B4B20221A60FFF750FF79
:1018300006B010BD204603F061FFF2E7FCA00046B1
:1018400000C0004068000100040000200A000020E1
:101850001C430020FCA00044014B1878704700BFD7
:1018600039030020014B1878704700BFF442002074
:10187000014B1870704700BFF4420020014B1868FC
:10188000704700BF10430020014B1868704700BF2D
:10189000544F0020014B1868704700BFFC420020E5
:1018A000754A7649536B906830B50B607449754C36
:1018B0000860D168744A754D1160227845F822306D
:1018C000734D45F82200734D45F822100132D2B213
:1018D000092A88BF002222708C0508D56E4A136041
:1018E0006E4A10606E4A11606E4A012111705907EC
:1018F00003F0100440F19B805F4A0421D163D16959
:1019000011F0010100F08680116C41F0400111647A
:10191000654A002111701CB964490A7801320A70C5
:10192000634A64491288895C534AD1625D060DD5C9
:1019300051485D494022C2630A780132D2B20A702E
:101940005B490D885B490A44525DC26214B14A4A40
:101950001021D163DC0742BF474A0121D1639807B8
:1019600042BF454A0221D163190742BF424A0821BA
:10197000D163DA0542BF404A4FF48071D1639D05BF
:1019800042BF3D4A4FF40071D1635C0542BF3A4A01
:101990004FF48061D163180542BF374A4FF40061AC
:1019A000D163D90442BF344A4FF48051D1639A04C1
:1019B00042BF314A4FF40051D1635D0442BF2E4A09
:1019C0004FF48041D1631C0442BF2B4A4FF40041C5
:1019D000D163980342BF284A4FF40031D1635903C1
:1019E00042BF254A4FF48021D1631A0642BF224AE2
:1019F0008021D163DB030CD51F4B4FF48032DA63B7
:101A00001A6C22F060021A642B4A002313702B4ACE
:101A1000137030BD106C40F0200010642648012582
:101A20000570D069264A1070244A11707EE79A0624
:101A30007FF57CAF104A23482021D1631F49D56927
:101A40000A7885540132D2B20A701F49022A0A70FC
:101A500004D10288164952BA0A8067E77FF666AF5A
:101A600013490D88134911440244294412F8012CEA
:101A700001F8032C5AE700BF00C00040F0420020EC
:101A8000F8420020300300200C4300209C4100203D
:101A9000C44200202849002010430020544F002059
:101AA000FC420020F44200203803002039030020CB
:101AB0001643002051490020004300209841002097
:101AC000084300201C4300201843002010B50021CB
:101AD00009480A4C04F04CFC206000B9FEE74FF0C6
:101AE000011104F03DFF064B206819680022BDE893
:101AF000104004F051BE00BF10000020340300204D
:101B000098010020000000002DE9F041844B0122E3
:101B10005A64844BDC6C8AB0240E06A804F03AF8B0
:101B20008E2C1CD88049D1F8B00040F00403C1F8D5
:101B3000B0307E4B4FF050121A601A631A66C3F829
:101B40009020C3F8C020C3F8F020C1F8B000764A56
:101B5000D36A23F07F0343F02003D36201E08F2C8C
:101B6000F5D99DF81930012B01BF714A136843F074
:101B7000040313606F4B00221A6004F06DFA012118
:101B80006D4802F0ADFE042004F030FA04F030FAA3
:101B9000012004F001FB694B03F1100506AC2E4651
:101BA00018685968224603C20833AB421446F7D17D
:101BB00006A803F0DBFB624B02251D70614B01247C
:101BC0001C7001F0B9FDFEF72DFBFFF705F901F0E0
:101BD000B3FEFEF7A5FDFFF70BFCFFF7BCFC2346A9
:101BE0002A460621052003F0DDFC23462A4607216C
:101BF000052003F0D7FC02F00FFA5349062002F04B
:101C000019FA5149072002F015FA06221146CDE9CA
:101C100000440023052003F079FC0722CDE90044AD
:101C20004A4C11460023052003F070FCFFF74EFFDD
:101C300033882068ADF80C3003A904F0EFFD03A948
:101C4000206804F0D3FD34A3D3E90023CDE90023B9
:101C50004FF0FF334FF0FF32206804F0E3FD002225
:101C60001146206804F0ACFB394B18689B88ADF82E
:101C70001430384B04901B6820689B685A68364BB8
:101C800004A99A4298BF8DF8105004F0F7FD00B1F6
:101C9000FEE7FC212068314D314E04F0DAFD00F002
:101CA000A6FF00F067FB2F4B206801224FF47A71EA
:101CB00004F078FBFFF7F2FCFFF754FD2C4601F02F
:101CC000AFFF01F017FEFEF718FDFFF7A9F8FEF7CA
:101CD000E3FFFFF739FCFFF7CBFC337803F0FF0895
:101CE00033B9214F3B781BB1FFF784FD87F80080A3
:101CF0001E4B1A780AB100221A701D4A117800236F
:101D000001B113702B702378092BD8D800F09AFDFD
:101D1000237801332370F6E748CD40958800000012
:101D200000000E40B081E00F00400E4000A00040D7
:101D300064310E40B40AC64300250A0080C5000085
:101D4000514900208C5900207516000034030020F2
:101D500092C5000098010020FFC99A3BCA57002095
:101D600000430020811600000143002031030020C1
:101D70000C00002008B5054B0121186804F024FB75
:101D8000022390FBF3F0D83000B208BD34030020EA
:101D90002DE9F04103F0800317460022134390B071
:101DA000064603D00022114604F012FB07F0400261
:101DB0000023134308D0FFF7DDFF184B1880184BA2
:101DC000B3F9002002B9188007F00802002313437A
:101DD0000DD040226946304604F0E8FD684600F028
:101DE00023F8012004F020F90E4B01221A7007F4A9
:101DF00080020023134305D0002004F015F9094B9D
:101E000001221A7007F08054002554EA05031EBF12
:101E1000044B01221A7010B0BDE8F0811A43002073
:101E2000024300200C000020134BF0B5134D1B881B
:101E30002A88013B9A4213DA114C2488511CA14292
:101E400013D010490F781049142404FB0214002108
:101E5000CEB2B7420CD801321A402A800020F0BD21
:101E6000EFD1074909880029EBD14FF0FF30F6E7A1
:101E7000465C66540131EBE78E0100203E030020F2
:101E8000400300200B000020B54F00200B490C4BF5
:101E90000A881B8893420DD00A48142303FB0203CF
:101EA00009480360094B1B880132013B13400B803A
:101EB000002070474FF0FF30704700BF4003002004
:101EC0003E030020B54F0020B45300208E010020B7
:101ED00010B50B4C55232370AE2363700023A37001
:101EE000D923E3700A210723601C2371FEF736FF14
:101EF0002146E07202220C20BDE81040FEF740B9F6
:101F00006F4F002010B50F4C55232370AE23637024
:101F10000023A370D923E370082323710A4B0A21FD
:101F200093F8D52293F8D7326272601CA372FEF741
:101F300015FF2146E07202220C20BDE81040FEF79A
:101F40001FB900BF6F4F00205149002010B5154C3C
:101F500055232370AE2363700023A370D923E3704D
:101F600009232371104B93F89B20627193F89C20F6
:101F7000A27193F8D622E27193F8D52222720A2137
:101F800093F8D82293F8D7326272601CA372FEF7DE
:101F9000E5FE2146E07202220C20BDE81040FEF76B
:101FA000EFB800BF6F4F00205149002010B5144C0E
:101FB00055232370AE2363700023A370D923E370ED
:101FC000104B93F89B20627193F89C20A27193F8B8
:101FD000D622E27193F8D52222720A2193F8D822F0
:101FE00093F8D7322171601C6272A372FEF7B6FEBD
:101FF0002146E07202220C20BDE81040FEF7C0B876
:102000006F4F00205149002010B50B4C5523237011
:10201000AE2363700023A370D923E3700A210B233E
:10202000601C2371FEF79AFE2146E07202220C200A
:10203000BDE81040FEF7A4B86F4F002008B54EF67B
:102040006021142000F0D4FD044A00231370044AD8
:102050001370044A1370044A137008BD4E03002025
:10206000440300204F0300203A0300200C2870B5E1
:10207000054606D1164BDA78D92A02D11B79082BEE
:1020800001D0FFF7DBFF134B1B78042B16D0124A4D
:102090001249138809888B4224BF5B1A13800C4BAA
:1020A0005B781F2B0AD00E4A0E49137809789942A3
:1020B00084BF013313700C4B00221A70044E0024AD
:1020C000A54200DC70BD305D09F0A0F90134F7E7EE
:1020D0006F4F0020B14F0020684F00207653002042
:1020E000614F002078530020584F002010B50C4C51
:1020F000552323701F23637015221623A3702271AA
:102100000023EA22601C0621E3706271A371FEF7CE
:1021100025FEE0710820BDE81040FFF7A7BF00BF13
:102120006F4F002010B50A4C55232370572363705E
:10213000601C00230621A370E37023716371A371F7
:10214000FEF70CFEE0710820BDE81040FFF78EBFDF
:102150006F4F002010B50A4C552323707523637010
:10216000601C00230621A370E37023716371A371C7
:10217000FEF7F4FDE0710820BDE81040FFF776BFE0
:102180006F4F0020024B372201201A70FFF76EBFFD
:102190006F4F00200C4A10B50C4C12886271552309
:1021A00023701F236370110AB723A37021710023CA
:1021B000601C0621E370A371FEF7D0FDE0710820DA
:1021C000BDE81040FFF752BF684F00206F4F00205E
:1021D00010B50D4A0D4C12782271552323700C4A0C
:1021E0001F236370B823A370127862710023601CF0
:1021F0000621E370A371FEF7B1FDE0710820BDE890
:102200001040FFF733BF00BF614F00206F4F002029
:10221000584F002010B50F4C2278012A0BD10E4ADE
:10222000138801339BB2182B01D8138010BD0023F3
:102230001380FFF7AFFF2378022BF7D1064A1388EC
:1022400001339BB2182BF0D90023BDE81040138056
:10225000FFF7BEBF594F0020B8530020F8B52E201D
:1022600000F0CEFC00284ED0274C284D42F6E0610D
:102270002E2000F0BDFC2388B3F5E17F07D32B7837
:102280002BB1FDF77BFFFFF723FE00232380204EB9
:1022900033780E2B16D91F4F3B7863B10023337070
:1022A0003B70FDF76BFFFFF72DFE1B4A92F8D9320A
:1022B000013382F8D9323B780BB901233B70337874
:1022C0000E2B01D801333370144E3378342B0ED9D2
:1022D000134F3B7823B1002333703B70FFF794FE1C
:1022E0003B780BB901233B703378342B01D8013391
:1022F00033702388B3F5E17F3CBF013323802B7813
:102300000BB901232B70F8BD4203002044030020C9
:10231000900100204F030020514900208C01002033
:102320003A03002038B5142000F06AFCB8B10E4D15
:102330004EF66021142000F05BFC2B780133DBB2F9
:10234000042B2B7009D9FDF719FF084B00241C70D2
:10235000FFF718FF064B2C701C8000F0F1FFBDE862
:102360003840FFF77BBF00BF4E03002090010020E4
:102370004203002038B5314B30221A80304B002404
:102380001C80304B1C80304B1C70304B1C70304B11
:102390001C70304B1C7001F0A7F900F0F9FE40F6FC
:1023A000C161162000F024FC2B4B01251D702B4B26
:1023B0001C702B4B02221A702A4B4FF4A0721A8009
:1023C000294B1C80294B4FF42F721A80284B1C80FC
:1023D000284B03221A80284B70221A70274B602248
:1023E0001A70274B0C221A80264B1C70264B1C702F
:1023F000264B14221A70264B06221A70254B1C807D
:10240000254B1C80254B2946122083F8D54283F8A2
:10241000D64283F8D74283F8D84200F0E9FB48F26D
:102420005000FEF763FC48F20500FEF77BFC9720A6
:10243000FEF742FC1A4B1D7038BD00BF8E01002014
:102440003E030020400300203C0300204E030020F8
:102450003B0300204A0300209154002092540020A6
:10246000305600206C4F0020684F0020B24F0020F3
:10247000A65300207A530020624F00205B4F0020BB
:1024800076530020614F0020584F002078530020E1
:102490006E4F0020480300204C03002051490020CB
:1024A000AF4F002013B5194A194913780978013341
:1024B000DBB2042B88BF002313701278154B99549C
:1024C0001A788DF800205A788DF8012002A99A78A0
:1024D0008DF80220DA781B7901F8043D8DF803208D
:1024E00004226B465C7813F8010B84423CBF03F86E
:1024F000014C18708B42F5D1013A12F0FF02F0D175
:102500009DF80220044B1A7002B010BD4503002054
:102510005A4F00205C4F0020B04F002013B51D4AD9
:102520001D49137809780133DBB2042B88BF0023DF
:1025300013701278194B99541A788DF800205A7834
:102540008DF8012002A99A788DF80220DA781B799B
:1025500001F8043D8DF8032004236A46547812F8EC
:10256000010B84423CBF02F8014C10708A42F5D145
:10257000013B13F0FF03F0D109499DF802200978CF
:102580008A4288BF531A074A88BFDBB2137002B071
:1025900010BD00BF460300206A4F0020634F00209B
:1025A000A4530020B44F00202DE9F041834D2B7837
:1025B000013B032B1DD8DFE813F004001E00BC0014
:1025C000F6000621122000F013FB4EF660211320C6
:1025D00000F00EFB7A4A002313707A4A13707A4A8D
:1025E00013807A4A13807A4A13707A4A137002234E
:1025F0002B70BDE8F081122000F002FB0028F8D01B
:102600000621122000F0F4FAFFF7B4FB724C734B72
:10261000734E187094F82E30724F013384F82E30B8
:10262000FFF77CFF317838786F4B704A1970814220
:1026300062D8DFF898C14FF00008BCF80030A2F86B
:1026400000806B4A013312889BB29A42ACF800308A
:1026500020D8684A84F89B00012384F89A301388B4
:1026600084F89C1001339BB2138084F8D5321B0A86
:1026700084F8D632FFF76AFCFFF754FD06211220DA
:1026800000F0B6FA4F4B83F800804F4BA3F8008060
:1026900003232B70DFF83881574B98F800201B7804
:1026A0009A4225D30223554A84F89A303B7884F81D
:1026B0009B30337884F89C30138801339BB21380AD
:1026C00084F8D7321B0A84F8D832FFF76FFCFFF783
:1026D00029FD0621122000F08BFA3A4A00231370DC
:1026E000394A88F8003013803A4A137003232B705C
:1026F000BDE8F041FFF78EBD1388414901330988D9
:102700009BB29942138006D8002313802F4A138866
:102710000BB1013B13802F4A3A49137809780133F2
:10272000DBB2994213709FBF00231370284A1370C5
:10273000DEE7122000F064FA00283FF45AAF0621C9
:10274000122000F055FAFFF7E9FE2F4B264A1B78BE
:102750001370244A1C4C12789A421FD2194B2B4EEC
:102760001A78632A9CBF01321A701B78632B0ED92A
:10277000228833889A420AD3FFF7ECFC134A0023DD
:102780001380134A1370134A137001232B7023888C
:1027900032889A42ACD301332380A9E72388002BE7
:1027A000A6D0013BF8E7122000F02AFA00283FF4F7
:1027B00020AFFFF7CFFC01231AE700BF3C03002046
:1027C0003B0300204A030020BC530020684F002038
:1027D000614F0020584F0020514900206A4F0020CF
:1027E000624F0020B44F0020B2530020A6530020B7
:1027F0006C4F002048030020785300204C03002039
:102800007A5300206E4F00205B4F0020B24F002013
:1028100008B50A4B0121186803F0D6FD084B1B7858
:10282000022B04D1042390FBF3F000B208BD032B6C
:10283000FCD1022390FBF3F0D830F6E734030020FC
:102840003056002038B5374D2B78013B042B15D876
:10285000DFE803F0030C151A1E0002232B704FF45F
:10286000E1711220BDE8384000F0C2B9122000F03A
:10287000C7F918B1FFF73AFC03232B7038BD2A4B78
:1028800001221A700423F8E7FFF78EFE0523F4E710
:10289000FFF7FCFA20B900F037FEFFF743FDF1E740
:1028A00000F000FF0028F6D0162000F0A9F900285B
:1028B000F3D040F6C161162000F09AF91B4B1B784B
:1028C0005A1E012AE9D81A4C012B0CBF4723AE230C
:1028D00063700023A370E370237101236371154BB0
:1028E000552222701A780A2A134A9CBF117819704F
:1028F0001B781370FFF7D6FD104B114A1B78127826
:10290000934286BF9B1ADBB20023A371FFF780FFBF
:102910000621A0710B48FEF721FAE0710820FFF7AD
:10292000A5FBBAE7AF4F00203C0300203056002043
:102930006F4F00205A4F002047030020B04F002067
:10294000A4530020704F0020204B19684A6C0723C5
:10295000B2FBF3F3C3EBC303D31A01EB4303F0B5AC
:10296000B3F848000244A3F8482001F148050B469B
:1029700001220026101DD41C00F0070004F00704FB
:102980002430243431F810C031F8140035F8027BBB
:102990001E6002F00704243412F0010F31F81440D5
:1029A0001E6219BF47EA04444CEA004040EA0C406A
:1029B00044EA074402F1010219BF1C601862186062
:1029C0001C62092A03F10403D4D1F0BDC0530020D6
:1029D0000A4B1B6803EB800253F82030106A034453
:1029E0009AB2180C02FB02F1424302EB51424043FF
:1029F00000EBD2305B435840704700BFC05300200B
:102A0000F0B5454B1C6889B004F12002002352F850
:102A1000041B4DF823100133082BF8D1256C236AD1
:102A20003E49626A3E4E3F4F606B2B445D189319DE
:102A3000009A2562954238BF0133A26A019D636204
:102A40003A44AB422CBF1346531CE56A029AA36278
:102A50000D4493422CBF2B466B1C256B039AE362FB
:102A60003544934238BF0135049A2563C319954212
:102A700038BF0133A26B63631144059A93422CBFA4
:102A80000B464B1CE26B0699A36332448B422CBF6E
:102A90001346531C079AE36393422CBF0023012380
:102AA00023640025E8B2FFF793FF4DF825000135B8
:102AB000082DF7D1DDE90601009B019E039D4FEA39
:102AC000304202EB31421A4422608A1902EB33622F
:102AD00062604FEA3343029A03EB364313442E44B9
:102AE00006EB3266A3604FEA3242049BE66002EBDB
:102AF00035421A442261059A154405EB33654FEAC5
:102B0000334303EB32431144034401EB306065610E
:102B1000A361E06109B0F0BDC05300204DD3344D36
:102B2000D3344DD3344DD334084B10B51868042337
:102B300000F11C0203F0070452F8041F50F824406F
:102B4000013361400C2B1160F4D110BDC053002043
:102B5000174B19684B6C03F00303022B1CD0032B9B
:102B600020D0012B18BFCA68486907BFCB8B8A6881
:102B700013040A6814BF43EA104343EA0043534076
:102B80001A0A81F8583081F859201A0C1B0E81F866
:102B90005A2081F85B307047CA69CB8843EA024308
:102BA0000A69ECE74A68CB8943EA02438A69E6E7A7
:102BB000C053002008B50B4B1B6800221A64FFF7B6
:102BC000C3FEFFF71DFFFFF71BFFFFF719FFFFF71E
:102BD00017FFFFF7A9FFFFF713FFBDE80840FFF756
:102BE000B7BF00BFC0530020002070477047704738
:102BF000024B43F820100020704700BFCC53002048
:102C0000034B53F82000B0FA80F04009704700BF32
:102C1000CC5300200649002351F8232012B1013A79
:102C200041F823200133312BF6D1024A137070474B
:102C3000CC530020C8530020154B55221A70B422E3
:102C40005A70F0229A700022DA7003221A71114A27
:102C500058711268526C1A72C2F304419971110AC8
:102C60000D4AD97112685169D972C1F30440587282
:102C7000080A9872517A1973D18901F00F015973BA
:102C8000D168090A9973D268DA731020FFF7EEB998
:102C90006F4F0020C05300209454002030B5114BDA
:102CA0001A68137851781B0403F4702343EA012354
:102CB00091780D4A19434FF0FF30002312F82F5C32
:102CC000012D144605D152F82C5C8D4204BF58B238
:102CD00004230133DBB2032B02F13802EED9034B9C
:102CE0001C6030BDB453002088550020945400204F
:102CF00038B5124D124C286803781B090E2B1AD1D7
:102D0000C37803F00602022A15D1DB0713D4037936
:102D100003F02203222B0ED10821FEF731F82B6895
:102D2000197AC0F30F22914205D15B7AC0B2834277
:102D300004BF06232370207838BD00BFB4530020A1
:102D4000B14F002010B50A4C04212068FEF718F896
:102D500022681179C0F30F239942064B05D15279AD
:102D6000C0B2824204BF03221A70187810BD00BF9F
:102D7000B4530020B14F002010B50A4C0421206844
:102D8000FEF714F822681179C0F30F239942064B1D
:102D900005D15279C0B2824204BF02221A7018785B
:102DA00010BD00BFB4530020B14F002038B5164B02
:102DB000164D5C2200FB023148F62423A1F848306E
:102DC0004BF26913A1F84A3043F62523A1F84C30A1
:102DD0004AF69B73A1F84E3044F6C203A1F8503076
:102DE0004BF2D133A1F8523048F62A630B24A1F8F4
:102DF000543047F61173A1F856304C642960FFF740
:102E0000D9FE2B685C6438BD48560020C0530020B2
:102E10000B4AD37803F00F03012B0FD1117923292B
:102E20000CD151794939012908D89278802A02D1E8
:102E3000044A137070470AB9024B1A70704700BFFA
:102E40006F4F002050030020F8B51F4C552323700E
:102E50001E4B1B78022B32D1AF2363701C4B1868BA
:102E6000C678A6700278E270457825718178194895
:102E70006171077897B9130403F47023164A41EA85
:102E800005210B431360154A1360154B93F8CF309F
:102E9000012B04BF134B1E7001230370124B134808
:102EA0001A88A271062100221A80FDF757FFE071EF
:102EB0000820FFF7DBF8BDE8F840FFF7A9BF082BB3
:102EC0000CBF4323AE23C8E76F4F0020B14F002053
:102ED000B453002000410020F04000208441002035
:102EE000514900209441002002430020704F0020EF
:102EF00010B5224C55232370AE236370204B1B6802
:102F0000D978A1701978E1705978217121469878A3
:102F100001F8050FD81C083310F8012F01F8012F14
:102F20009842F9D117490A78CAB9D4F80630164A36
:102F30001BBA1360154A92F8CF30012B0DD1A3783C
:102F4000134823F00703037092F8D730012B01BF19
:102F50002379104A03F00F03137001230B700E4BFB
:102F60000E481A88E2720B2100221A80FDF7F6FE45
:102F700020730D20BDE81040FFF778B86F4F002098
:102F8000B453002000410020F040002051490020AF
:102F9000944100209054002002430020704F0020F4
:102FA00010B50E4C55232370AE2363700C4B1B6879
:102FB000DA78A270D622E2705A7822719B78637117
:102FC000084B601C1B88A3720A21FDF7C7FEE07244
:102FD0000C20BDE81040FFF749B800BF6F4F00203C
:102FE000B45300200243002010B5124C5523237027
:102FF000AE236370104B1B68DA78A270D522E270A2
:103000005A7822719A7862711A79A2715A79E271AA
:103010009A792272DB796372084B601C1B88A37259
:103020000A21FDF79BFEE0720C20BDE81040FFF77F
:103030001DB800BF6F4F0020B45300200243002092
:1030400010B5174C55222270AE226270154A1268D4
:10305000D178A1701178E170517821719178617106
:103060001179A1715179E17191792172D2796272EC
:103070000D4A117831B9D4F806300C491BBA0B60EF
:10308000012313700A4B0B481B88A3720A21FDF71A
:1030900065FEE0720C20BDE81040FEF7E7BF00BF00
:1030A0006F4F0020B453002000410020F04000206A
:1030B00002430020704F0020174B552270B51A7044
:1030C000AE225A70154A1168CA789A700A78DA7076
:1030D0004D781D71887858710C799C714979D97136
:1030E0000F490E781C464EB912040E4B02F47022A2
:1030F00040EA052002431A6001230B700A4B0B487B
:103100001B8823720821FDF729FE6072BDE870401C
:103110000A20FEF7ABBF00BF6F4F0020B453002062
:1031200000410020F040002002430020704F0020AA
:1031300010B5134C55222270C4226270114A1268D5
:10314000D178A1701178E170517821712146907881
:1031500001F8050FD01C093210F8013F01F8013FBA
:103160009042F9D1084B09481B8823730C21FDF7C5
:10317000F5FD60730E20BDE81040FEF777BF00BF7D
:103180006F4F0020B453002002430020704F0020F6
:1031900070470000094B552200B51A70C4225A70BE
:1031A000074A1268D17899701178D97051781971DD
:1031B0009178597112799A715DF804FB6F4F002074
:1031C000B4530020F7B53649364A374CC0EBC0033C
:1031D00001EBC301354B5C261960354B054600FBFE
:1031E00006201860334806FB0522036892F85870E1
:1031F0009E797E402672DE7992F859707E40667222
:103200001E7A92F85A7092F85B207E40A6725E7A1F
:103210007240E272FF2222702246FE2602F8016FFF
:1032200007465E1E053316F8010F02F8010F9E4295
:10323000F9D101AB09221C48FDF744FF9DF8042099
:10324000637A9A4225D19DF80520A37A9A4220D12B
:103250009DF80620E37A9A421BD155232370AE23B2
:103260006370237AA3703B6813481A7862F00F02E8
:10327000E2705A7822719B786371104B06211B888B
:10328000A371FDF76BFDE0710820FEF7EFFE03B0C0
:10329000F0BD2846FFF7D0FC2846FFF7CDFCF6E747
:1032A00050550020485600206F4F002094540020B5
:1032B000C0530020B4530020704F00200243002070
:1032C00009490A4BC0EBC000C00042181A60084B05
:1032D0001B682B305A1E0844093312F8011F00F8EE
:1032E000011F9A42F9D17047505500209454002094
:1032F000B45300200F490246C0EBC0030E4801EB57
:10330000C30330B503600D4B38241D6800231846F5
:1033100004FB0212D11891F82C40E95C8C4218BFD2
:103320000A2303F10103DBB218BF0120092BF1D9F5
:1033300030BD00BF5055002094540020B4530020ED
:10334000034B1A88B2F5B46F24BF00221A8070476D
:103350004255002008B51520FFF752FC90B14EF6FB
:1033600060211520FFF744FC084A1388B3F5346F39
:1033700009D201331380064A1388B3F5707F3CBF2E
:103380000133138008BDFFF7DBFFF4E7425500204F
:1033900098540020134BF0B5134D1B882A88013B2D
:1033A0009A4213DA114C2488511CA14213D01049BF
:1033B0000F781049142404FB02140021CEB2B74246
:1033C0000CD801321A402A800020F0BDEFD1074905
:1033D00009880029EBD14FF0FF30F6E7465C6654D0
:1033E0000131EBE7445600204E550020C257002023
:1033F0000B0000209A5400202DE9F843284B294E59
:10340000294FC0EBC00203EBC203284A336045B228
:103410005C2300FB032328463B60FFF76BFF00287B
:1034200034D02846BDE8F843FFF74ABF916901311F
:103430009161D8F8002001330132C8F80020B3FBB5
:10344000F9F209FB12324364CAB9FFF7B3FB013446
:10345000E4B2312C0ED038683268436C51698B422B
:1034600006D203F57A7C614502D2517A0129DDD07A
:10347000302C11D10E4B1868FFF78CFFD1E79B075A
:1034800001D1FFF7BDFAFFF763FBE0E70446DFF881
:1034900024804FF00C09DAE72846FFF793FEC0E7D7
:1034A0005055002094540020C0530020485600205E
:1034B000B4530020C453002038B5104B1B68DD788E
:1034C0009C88FFF7EBFB002816DB03B20C4A0D4982
:1034D000C3EBC30302EBC3030B606D03382364BA71
:1034E00003FB002305F4F815A4B22C435C61C0B2C1
:1034F000BDE83840FFF780BF38BD00BFB45300209F
:1035000050550020945400202DE9F0415A4E5B4C58
:1035100030685B4DC2780423237000232B7003783E
:1035200012F0010F4FEA1317B04640F09580072FB5
:103530004AD1427A037A110941EA0311120123F0B8
:103540000F038172C27203720921FDF719FC3368FF
:103550005A79120704D19A7912B9DA79002A2AD055
:10356000997AC0F30F22914225D1DB7AC0B283420F
:1035700021D105232370FFF7BBFCFFF7EBFE237877
:10358000042B16D12B784BB93E4A3F491388098842
:10359000994221BF3D4909885B1813803C4A3D4947
:1035A00013780978994284BF013313703A4B002293
:1035B0001A70BDE8F081FFF7C5FB0328DDD10823B1
:1035C0002370FFF741FCD8E70D2F27D103F00F033D
:1035D0000A2B11D10621FDF7D3FB33689979C0F38B
:1035E0000F229142C9D1DB79C0B28342C5D10723F2
:1035F0002370FFF761FDC0E70821FDF7C1FB3368C9
:10360000197AC0F30F229142B7D15B7AC0B28342DC
:10361000B3D105232370FFF713FDAEE70E2F1BD1A7
:1036200001232B70FFF764FB062806D11B4B1B7888
:10363000012B02D1FFF7AEFD9FE7194B1B78012B41
:1036400002D1FFF775FD98E7D8F80030DB785B070B
:10365000F7D4FFF731FF90E7FFF774FB032806D19B
:103660000F2FAED1FFF71AFB013086D1A9E7FFF784
:1036700083FB0228F9E700BFB4530020B14F0020BC
:10368000B8570020684F00206C4F00207653002070
:10369000614F002078530020584F002091540020A3
:1036A000925400200B490C4B0A881B8893420DD082
:1036B0000A48142303FB020309480360094B1B88D3
:1036C0000132013B13400B80002070474FF0FF3068
:1036D000704700BFC25700204E5500209A5400206A
:1036E000B4530020445600200C4B0D4A0020587261
:1036F00083F8410083F8790083F8B100E033136068
:10370000084B06221A80084B1880084B1880084B7B
:103710001880084B1880FFF749BB00BF50550020A8
:1037200094540020445600204E550020C2570020DB
:103730004255002098540020164A012330B41370DB
:10374000154A1370154BFF221A70154A00230425E1
:103750001946144698180233802B80F8405380F89D
:103760004113F7D10F4811715171002350F8132004
:10377000E118023381F84023362B4FEA122281F8F8
:103780004123F3D1002304220321184630BC01F069
:1037900009BF00BFCD570020CC570020C8570020DC
:1037A0005149002080C70000154B16491A88013284
:1037B00092B2072A88BF0022F0B51A801B88DB006E
:1037C0009BB203F2BF320A445E00002435190D4457
:1037D000023495F8417395F8400340EA072012F847
:1037E000017F0D5CAF4218BF1570102CEED1064A58
:1037F00008211180054A1380054B1880F0BD00BFD9
:10380000D257002051490020CA570020D05700202D
:10381000CE57002010B5174C2378023B032B07D856
:10382000DFE803F002071D11FFF7BEFF032323703B
:1038300010BD114B93F886313BB9104B1A78104BE1
:103840001B781A4201D10123F1E74FF4967102204F
:10385000FFF7CEF90B4B08221A600423E7E702209A
:10386000FFF7CEF90028E3D0074B08221A600523A2
:10387000DDE700BFCC57002051490020E840002080
:10388000C85700200CA000460CA00044024B187042
:10389000024B1970704700BFCC570020C85700205A
:1038A000014B1878704700BFCC57002010B50C4B67
:1038B0000C4A93F8C81292F8C80288420FD0012926
:1038C00009D109490878094902240C70084908708F
:1038D000002183F8C81293F8C83282F8C83210BDAC
:1038E0005149002026430020E8400020CC5700200A
:1038F000C8570020F8B50F4E062435460127337807
:10390000013B032B05D8DFE803F002090D11022368
:103910002B70013C14F0FF04F1D1F8BDFFF77AFFE2
:103920000323F5E7FFF740FF0423F1E7FFF7BEFFAE
:103930002F70EEE7CD570020F8B5574B574F584D35
:103940005848594900261C4657F8262083F860201D
:10395000C2F3072283F8612055F8262083F840201F
:10396000C2F3072283F8412050F8262083F8302044
:10397000C2F3072283F8312051F8262083F8502023
:103980000136C2F30722082E83F8512003F1020307
:10399000DAD1464A0523136084F82033444B4FF4B0
:1039A0007A721A60E82384F82233032384F82333DD
:1039B000404B414A01271F600223136084F82A33D9
:1039C0003E4B3F4A1F70EF2384F810333D4B84F881
:1039D000267300251D80062313803B4A84F820307F
:1039E0000C23138084F82430384B84F821531D7045
:1039F000374B84F824531D80364B84F8255384F8C4
:103A0000275384F8285384F8295384F82B5384F8D7
:103A10002C7384F8115384F8125384F8135384F8E8
:103A20002D7384F8215084F825501D802A4B40F2D4
:103A3000D6621A80294B4EF660221A60602384F801
:103A4000223040F6B831EA230F2084F82330FFF704
:103A5000CFF8234A84F8295028231380214A84F878
:103A600028301570204A84F82B5013801F4A84F8A0
:103A70002D603C23136084F82A301D4B1B7884F89A
:103A80002E331C4B40F698021A80982384F82C3071
:103A9000194B1F70F8BD00BF51490020E401002000
:103AA0002402002004020020A40100202458002049
:103AB0008459002048580020E05700201658002064
:103AC000225800201E580020365800200D58002093
:103AD000D45700200A58002008580020D85700204A
:103AE000E85700200C5800204C580020E4570020D4
:103AF000A00100204402002020580020F0B51E4BF9
:103B00001E481B781E4AC55C691CC9B2042903EB18
:103B10008304C1542C4488BF00211A4D88BFC1546E
:103B200003EB83032D8822F8145002EB430300219A
:103B3000184601220D46078830F8026FD4B2B7420A
:103B400002F1010288BF254638BF2146052AF2D17D
:103B5000002210461446D6B2B54206D0B1421FBF6D
:103B600033F812600130A419C0B20132042AF2D134
:103B700008B1B4FBF0F0F0BD510300201255002055
:103B8000165900208A59002070B501212048214C87
:103B900000F0A6FE0021204800F06AFDE070002041
:103BA00000F002FE1D4BA0700325002402261C74A9
:103BB0009E70DC705D70042223460621052001F012
:103BC000F1FC234631462046042201F0EBFC04229E
:103BD00023461146052001F0E5FC23463046042229
:103BE000092101F0DFFC2346284604220D2101F0C3
:103BF000D9FC2346284604220E2101F0D3FC23469B
:103C0000284604220F21BDE8704001F0CBBC00BF64
:103C100000820400C40100200024F400CC01002034
:103C20002DE9F8439B4C2378013B0D2B48D8DFE866
:103C300013F00E00120047004900470047006A00D9
:103C40009A009F005300B100F50016011000FFF725
:103C50009BFF022333E0904D904E64211120FEF72C
:103C6000C7FF8F4800F090FC284600F06DFD34221D
:103C700000218B4800F091FC3622307000218848EA
:103C800000F08BFC492270700121854800F085FC12
:103C90006A22B0700221824800F07FFCF070EB696C
:103CA000804943F4A043EB610123C5F890302846D6
:103CB00000F0FCFC7A49284600F08BFC04232370BA
:103CC000BDE8F8831120FEF79BFF0028F8D0724B67
:103CD00004229A600A23F2E76F4EF3689B03EFD544
:103CE000DFF8C881704F00254146304600F0BAFC2D
:103CF00047F825000135042DF6D164211120FEF787
:103D000077FF0723DBE71120FEF77AFF0028D7D0E3
:103D1000614D6348614E00F037FC284600F014FD09
:103D2000662202215E4800F038FC85227071032172
:103D30005B4800F032FC872230710321584800F0C4
:103D40002CFCB071EB69574943F48043EB610123CC
:103D5000C5F89030284600F0A9FC5149284600F0EB
:103D600038FC0823ABE74C4B04229A600923A6E7F2
:103D70004E4949484C4D00F075FC4C492861464875
:103D800000F070FC49496861434800F06BFC0B236C
:103D9000A86194E7464FDFF81091DFF84481454D64
:103DA000002659F8262017F8011F40F6E443534334
:103DB0001A0B58F8213053434FF47A72B3FBF2F3E5
:103DC00045F826303C4B55F8262019703B4B1A809D
:103DD000FFF794FE3A7845F826003832384B55F80C
:103DE000261003F8121055F8261003EB4202013694
:103DF000090A072E5170D4D13249EA68C979A869F5
:103E000038310244520803F81120EA68A86903EB2C
:103E100041030244520A5A700C2350E72A490B7896
:103E2000022B03D801330B700D2348E7244A92F884
:103E3000710092F8703043EA00232448038024483C
:103E40000068834204D200230B7082F88631EBE7CE
:103E5000C8308342E8D900230B700123F5E7184BE3
:103E600093F82D2093F82C1093F87F0041EA02215B
:103E7000184A118093F87E2042EA002216489142A7
:103E80000280164A94BF002101211170127883F834
:103E90002E23DEE68C590020002000402C58002004
:103EA000CC010020C4010020EC5700201058002055
:103EB0004502002068590020510300208A59002043
:103EC0005149002046020020405800201C58002084
:103ED000040200204402002034580020A0010020E9
:103EE000E401002038B5104B1B780546BBB1C0B1CA
:103EF00001F0ADF80D49002301EB0312147B3CB92E
:103F00002B6001231373146001F0A5F8204638BD1F
:103F10000133082BF0D101F09EF80548F7E705487A
:103F2000F5E70548F3E700BFD40400205403002060
:103F3000048000F0028000F0018000F013B5164B01
:103F40001868019000238DF8043001F080F8134BBD
:103F50001C7824B101F07FF8114802B010BD012295
:103F60001A7001F078F80F4B1C731C7783F82C4003
:103F700083F83C4083F84C4083F85C4083F86C4005
:103F800083F87C4004230DEB03008DF8073001F02B
:103F90006DFD2046E1E700BFECC70000D40400201F
:103FA000038000F0540300202DE9F843174E326ED1
:103FB000F36E12EA030800D5FEE7154CDFF85490C3
:103FC0000127002518EA070F16D02368B7669BB1B2
:103FD000A16862680131A16028469847637B012B84
:103FE0000AD148B909EB4513197B1A7F60F34101E7
:103FF00060F3410219731A770135082D4FEA47071C
:1040000004F11004DED1BDE8F88300BF00200E40AB
:1040100054030020D4030020054B4FF40032C3F8B2
:1040200080211A604FF40072C3F880211A60704733
:1040300000E100E038B504460D4601F008F8034BF6
:1040400043F82450BDE8384001F005B8D8040020FA
:10405000104B70B5D3F82844D3F81C240E4E1440EE
:1040600024F4AA4424F055042404240CC3F8244462
:10407000012504B970BD94FAA4F0B0FA80F005FAF5
:1040800000F324EA030456F82030002BF1D09847BF
:10409000EFE700BF00A00040D8040020104A4161B3
:1040A000136830B51546ABB91060836011E0091B89
:1040B0009C6841611A467CB123465C698C42F6D902
:1040C000002CF4D052B19060836013B15A69511A38
:1040D000596130BD0022F0E72346F4E72860F3E79A
:1040E0002005002010B500F0C1F8094B094A1968F5
:1040F00031B11368C41A4B69A34203D31B1B4B6134
:10410000106003E0C01A002310604B6110BD00BFB7
:104110002005002018050020074B1B6810B55C69BE
:10412000064B1B6802201C4400F0CEF82046BDE878
:10413000104000F0A1B800BF2005002018050020A5
:104140000C4A136800217BB183420AD1836879B19C
:104150008B6083681BB15A6941690A445A61002027
:10416000704719469B68EEE70028EFD002207047A1
:104170001360EEE720050020C2072DE9F84F044642
:104180000BD5374A138801339BB21380FFF7AAFF80
:10419000344B1B680BB1FFF7BFFFA3075DD5324E51
:1041A000DFF8C09000F062F835680746451B00F064
:1041B0004EFF4FF0000A8046D9F80040002C48D04E
:1041C0006369AB4209D95D1B65613760FFF7A4FFE6
:1041D0004046BDE8F84F00F03EBF376023462A4610
:1041E0005969914209D8187994F804C0844588BF68
:1041F0001C469B68521A002BF2D1404600F02BFF60
:10420000D4F81480C4F814A000F021FF834620469F
:10421000FFF796FF584600F01EFF23694BB100F0F0
:1042200016FF216983462046FFF738FF584600F005
:1042300012FFE36813B121682046984700F016F892
:104240004744ED1B0446054400F001FF2746804625
:10425000B2E7022000F046F8BAE7BDE8F88F00BFE9
:104260001C0500202005002018050020014B98683F
:10427000704700BF00200440114A9368516D926955
:10428000520704D4CA1A022A01D899420DD1C21A7F
:10429000012A98BF981C0A4BB0F1FF3F28BF01309C
:1042A00058655A6A42F004025A62064A137833B1DA
:1042B00003490B6D43F002030B6500231370704735
:1042C000002004404E0200208207054A00F001034E
:1042D000516A48BF43F004030B435362704700BF69
:1042E00000200440830700F0010209D5074B01219B
:1042F000197007490B6D23F0030342F004020B65AC
:1043000003494B6A23EA02034B6270474E020020C6
:104310000020044010B500F09AFE094A9369044653
:10432000590703F0010003F0070348BF40F0020003
:104330001362FFF721FF2046BDE8104000F08BBE5E
:10434000002004402C48F0B5002203682B4D114694
:1043500054592CB11E68AC18002E36D123460121C9
:104360000832302AF4D101B103602549254E0B688B
:104370000022144695592DB11F68B518002F2BD176
:104380002B4601240832302AF4D104B10B600068B6
:104390001D4B026842B3DA69007922F0FF02024342
:1043A000DA611A6B42F0804209681A630A68164B98
:1043B000F2B1DA69097922F47F4242EA0122DA6134
:1043C0001A6B42F000421A63F0BD1E792779B7429A
:1043D00084BF23460121C3E71F7995F804C0BC457B
:1043E0003CBF2B460124CDE71A6B22F08042DBE76D
:1043F0001A6B22F00042E6E7280500203005002075
:104400002C0500206005002000300E4008490B6A92
:104410000A6ADBB2D2B29342F9D1064A0520DB0028
:10442000B3FBF0F31068C31A03F3070040B2704700
:1044300000300E402405002070B5144C226B616AD8
:104440000A4011D5124B1B681E6836B100251D604D
:104450005D60FFF7DBFF2946B0474FF00043E362A2
:10446000BDE87040FFF76EBF5300F9D5094B1B68DC
:104470001C6834B100221A605A60FFF7C7FF01219F
:10448000A047024B4FF08042DA62E9E700300E406D
:104490002C05002028050020FFF7CEBF044BDA686A
:1044A000D20604D510225A61024B01221A707047BD
:1044B00000800140900500202D4B002A70B52D4D45
:1044C000446B08BF1D462C4B14BF10260026984293
:1044D0003AD102293FD004D8B9B1012921D0002313
:1044E0002DE0062931D0812935D00329F7D1234B7E
:1044F0001A6819681B68120C1B0C03F0F00302F415
:10450000FE421A43C1F3034318E01D490B680A68D1
:1045100003F4FE4302F00F021A430B6803F0F003AA
:104520000CE0174A1368116812681B0C120C02F099
:10453000F00203F4FE431343C1F303421343B340B9
:104540002C400D4A2343536370BD0E4B1A681B6801
:1045500002F00F02E2E7094A13681168126803F4D7
:10456000FE4301F00F010B4302F0F002E6E700BF4B
:104570000080FFFFFFFF0080002000401482E00F5A
:104580001082E00F1882E00F00234FF0FF32C0E9E5
:10459000012343F6E413C3607047002310B503748E
:1045A0004368C90023FA01F4E4B2FF2C06D18C4021
:1045B00023EA0403D4088C402343436002F007023B
:1045C0000A44012303FA02F183680B438360104617
:1045D00010BD38B50C460823836001228978054652
:1045E000FFF76AFFE3786278DB0043EA0263627CEC
:1045F0000AB143F00053A27C0AB143F00403227CC9
:104600000AB143F00203E27C0AB143F00103A2784D
:1046100051B20029ACBF43EA421343F0E003AB615F
:10462000EB69002923F4F21323F00703BCBF22F047
:1046300080021343227843EA4243627D0AB143F485
:104640008043EB616B0103F18443227DDA60636890
:104650006B62A3682B62E368AB62EB6FD5F88030C6
:10466000EB6838BD806EC0F304430B6080B27047C6
:10467000B0F5FA4F10B50B4C38BF4FF4FA408442F6
:1046800028BF044619B9084800F060FA0146631EC5
:104690001944B1FBF4F018B101387F2828BF7F20FE
:1046A000C0B210BD0024F40040410500F8B5CD783B
:1046B00004460E46002D30D129461F48FFF7D8FF8B
:1046C00005460A23A3607178337841EA0361B37821
:1046D0001B0403F4FE0319432D02337905F4FE4550
:1046E00029430BB141F0100104F180632160C02126
:1046F0007279196004F1C0631A6023681B0608D53B
:104700000E4800F023FA0E4B9C4202D10D4800F0F7
:104710001DFA4FF400632364F8BD076817F08007A3
:10472000CFD139460448FFF7A3FF39464FF4FA408A
:10473000FFF79EFFC5E700BF0024F400B800320079
:10474000002000400082040038B50A238360144B27
:10475000036100254FF4F81345618561C56103606D
:10476000104B4564036443F6E41305630562456238
:104770008362D0F88C3043F00103C0F88C30D0F85D
:10478000903043F001032A462946C0F89030FFF7E5
:1047900093FE29460122BDE83840FFF78DBE00BFD9
:1047A00000FFFF00000F030308B528B9074800F019
:1047B000CDF9002808BF012000F57420044B00F259
:1047C0003F20B0FBF3F00138C0B208BD4041050006
:1047D00040420F000C4B984210D90C4B984210D914
:1047E000022201230A490B600A49D1F8003123F063
:1047F000807343EA0263C1F8003170470022134618
:10480000F0E70122FBE700BF0048E8010090D00379
:104810004000C84300400E400A490B4B88425A688A
:104820000BD90A4988420AD902F040715A6822F02D
:10483000407242EA01625A6070470021F6E70121A6
:10484000F4E700BF40787D0100000E40005A62028C
:1048500038B5064C41F67133256C236401F054FAE7
:10486000FFF7DAFF0DB10023236438BD00000E40CE
:10487000044BD3F84421D20703D4D3F8402110428B
:10488000FBD1704700400E400C4AD2F89030516A7C
:104890000B4B21F0300141F0100110B55162146B47
:1048A000C0F3C31103310F2903EA040328BF0F210A
:1048B000034343EA0173136310BD00BF00400E4081
:1048C00000F8FF0F38B5054C41F67133256C2364B1
:1048D000FFF7A2FF0DB10023236438BD00000E4096
:1048E000C0F30322013A38B50546092A13D8DFE898
:1048F00002F023131212051619121C20104C00206E
:10490000C5F3043508B1FFF7B3FF04F1047405EBF8
:10491000C404A400216038BD00200A4CF0E7012047
:10492000094CEDE71020094CEAE74FF48030084CC1
:10493000E6E70020074CE3E70020074CE0E700BF74
:10494000B0400E40C0400E40E0400E40E8400E40F7
:10495000F0400E4050410E4000400E40C0F30313A3
:10496000013B092B3FD8DFE803F0050B0F193E3E52
:104970001F232C351D4BD3F80001C0F304207047D2
:104980001A4BD3F81401F8E7184BD3F80001C0F321
:104990000060431C0120984001387047134BD3F846
:1049A0000C01C0F308207047104BD3F80801F8E75A
:1049B0000F4B984217D10D4BD3F8203103F00F0362
:1049C000E8E70C4B98420ED1084BD3F8283103F09E
:1049D0000303DFE7084B984205D1044BD3F83001BD
:1049E00000F00F0070470020704700BF00400E40ED
:1049F0008006160090071A00A009140008B5FFF7FA
:104A0000ADFF013008BD000000F00F00013807289D
:104A100048D8DFE800F0040F1947232D4735244B11
:104A2000D3F8943003F00703023B022B3CD8214A11
:104A3000D05C70471E4BD3F8803003F00703013B76
:104A4000032B33D81C4AF3E7194BD3F8843003F017
:104A50000703013B032B29D8184AE9E7144BD3F885
:104A6000883003F00703013B032B1FD8144ADFE70C
:104A70000F4B1B6F13F0010F14BF09200720704765
:104A80000B4BD3F85C3103F03003202B06D0302BD6
:104A900006D0102B0CBF0720012070470420704760
:104AA000082070470020704705207047012070479C
:104AB00000400E40F0C70000F3C70000F7C7000039
:104AC000F3C7000008B50146FFF79EFF1B4B994254
:104AD00011D01B4B994212D01A4B994204D11A4B58
:104AE000D3F8800000F007000138032824D8DFE85D
:104AF00000F00A0E1612144BD3F88400F2E7124BA2
:104B0000D3F88800EEE7BDE8084001F073B9BDE8CE
:104B1000084001F075B9BDE8084001F06EB901F038
:104B2000F7F8094BD3F80031C3F300635A1C012393
:104B30009340B0FBF3F008BD0020FCE70300200029
:104B40000500240002001E0000400E4000F478130F
:104B5000B3F5A01F10B5044659D01FD8B3F5202FC8
:104B600007D00AD8B3F5003F46D0B3F5802F38D030
:104B7000ABBBBDE8104001F0CBB8B3F5602F5DD002
:104B8000B3F5801F6FD0B3F5402F28D101F0C0F8E6
:104B9000404BD3F81431C3F3042329E0B3F5001FCD
:104BA0003FD013D8B3F5D01F3DD0B3F5F01F29D0B7
:104BB000B3F5B01F13D13848FFF784FF354BD3F856
:104BC000202102F00F020123934012E0B3F5481FA9
:104BD0003CD0B3F5781F53D0B3F5101F2CD0002074
:104BE00010BD01F095F82B4BD3F80C31C3F308231B
:104BF0000133B0FBF3F0F3E701F08AF8254BD3F86B
:104C00000831F3E72448BDE81040FFF75BBF2348B5
:104C1000FFF758FF1F4BD3F8303103F00F03D84094
:104C2000DEE71F48EFE71E48FFF74CFF194BD3F8AC
:104C3000282102F00302C6E71848E4E71948FFF705
:104C4000E3FE07280FD00928C9D192E71648FFF7DD
:104C5000DBFE072807D0082808D00428BFD1BDE80C
:104C6000104001F08BB8114B1868B9E701F050F80B
:104C7000084BD3F80031C3F3042303FB0000AFE774
:104C800001F046F801462046FFF7B8FEB1FBF0F010
:104C9000A6E700BF00400E4002001E0005002400F1
:104CA0000300200006000E00B80032005002002071
:104CB0000E4B5A6A12F0300F04D0202913D030293D
:104CC00000D011B94FF4400200E0094AD3F8901027
:104CD00032EA0101FAD1520246BFD3F8A000C0F374
:104CE0008020012070474FF40002EFE700400E40A3
:104CF000FF03E10702280AD129B1064B4FF4806077
:104D0000C3F8A800596612B10220FFF7D1BF0120F5
:104D1000704700BF00400E40F8B504284ED8DFE8C9
:104D200000F00A03116D7200802640240623072537
:104D300000294FD046E04FF400764FF480740823EA
:104D40000925F5E7002942D0314C636A13F0300F92
:104D500035D1636ADB0705D5636A23F0300343F07E
:104D600010036362042402230325294E3466294E6E
:104D700033449B001F68002FFCD0FAB13544AD00CE
:104D80002B68002BFCD0022818D1B9B1204E716AD3
:104D900011F0010118D001222021FFF7ABFFD6F856
:104DA0009C70012200210220FFF7B6FFC7F30A0022
:104DB000FFF76AFD34662B68002BFCD0F8BD042495
:104DC000022303250021D0E7FFF772FFE7E708265B
:104DD000022303250E4901200E6600FA03F3D1F8E1
:104DE00090001842FBD1002AE8D00123084A03FAB8
:104DF00005F5D2F890302B42FBD1DFE701240226E3
:104E00000023254694E720261024042305258FE758
:104E100000400E408004F21000F00F00013810B581
:104E2000072843D8DFE800F00F043E423C5C4267AD
:104E30004A4C0139092939D8DFE801F050394038A6
:104E4000384738383836023903292FD8DFE801F0DF
:104E50002502191F0120032401221146FFF75CFFE0
:104E6000FFF7F6FC3E4B5C6700F076FF044600F06F
:104E70004FFFFFF7AFFC20460021BDE81040FFF7D1
:104E800021BD3848FFF7A6FC02200446E4E7354878
:104E9000FFF7A0FC01240320DEE700200424DBE769
:104EA000314CC6E7314CC4E70423236010BD012216
:104EB00011460020FFF730FF0223F6E701221146DA
:104EC0001046FFF729FF0123EFE700F021FFFFF76E
:104ED00081FC274B01221A600323E6E70023E4E765
:104EE000072904D00929E1D11D4B012201E01C4B07
:104EF00000221A67DAE701390729D7D801A353F846
:104F000021F000BF574F0000AD4E0000AD4E000035
:104F1000494F0000AD4E0000AD4E00003B4F000079
:104F2000254F000003220E49D1F85C3123F03003F5
:104F300043EA0213C1F85C31B8E7012211460420AC
:104F4000FFF7EAFE0122EEE7012211460220FFF7F9
:104F5000E3FE0222E7E70022E5E700BF80400E40C3
:104F600000400E400148E80188400E4084400E4059
:104F70000016C84310B504461120FFF745FD012275
:104F800000210220FFF7C8FE1A4A217C536A23F051
:104F90000103022908BF43F001035362164B217835
:104FA0001960936AE17A23F007030B439362A188A7
:104FB000637A43EAC123D362136BA07A217A03F0A8
:104FC0007F630343E08843EAC02343EAC11303310C
:104FD0000F2928BF0F2143EA01731363A37B617B71
:104FE0001B0143EA0133E17B0B43217B43EA01438D
:104FF000536310BD00400E40A004C843014638B5BD
:105000001120FFF701FD0C4D0C4BAA6B0C781340DF
:105010001C434B7844EAC3248B7844EA0364CB787E
:1050200044EA0324AB6BA34205D0002101220846C9
:10503000FFF772FEAC6338BD00400E4080E4FFF81D
:10504000EFF3108072B6704700B962B67047EFF3A5
:10505000108072B67047FFF7F7BF00001848194B71
:10506000C26C1B88C2F303222833013202EB820197
:1050700003EB5303B3FBF1F3C16C013B072B21F0AE
:10508000EE6128BF072341F4801141EA0363C36442
:105090000D4BB3F90030002B10DB2833510801EB26
:1050A000420203EB5303B3FBF2F3026D072B28BF5D
:1050B000072322F0700242EA03130365704700BF22
:1050C00000300E409405002096050020194B4AF64A
:1050D000E85210B55C6B5A639A6FD207FCD41B6C14
:1050E00013F003031EBF144A01211160834203D150
:1050F00008B9114B186010BD23B9012802BF0F4B2E
:1051000002221A700B4A1146936FDB07FCD4136C12
:1051100023F00303034313648B6F13F00103FBD1EC
:105120000030054A18BF0120012C106008BF4B63F6
:10513000E1E700BF00300E40B40AC64398050020E6
:10514000A0F5E163B3F5966F2DE9F04703D900218F
:105150000846BDE8F0875F4C5F4BD4F86851DB6CC4
:10516000B0F5E16F1FBF4FEA156AC5F307484FF46A
:1051700096694FF4E16701BFC5F3072A5FFA85F826
:105180004FF416794FF49667B0F5E166C3F3017CEE
:1051900018BF012646EA0C2E40F201139E455BD053
:1051A000BEF5817F09D2BEF1010F1BD05DD3BEF5E4
:1051B000807F5DD000252B4619E040F201239E45FB
:1051C00050D005D8BEF5007FF4D1D4F870310BE093
:1051D000BEF5407F4FD040F201339E45EAD1D4F86E
:1051E00078313BE0D4F87431C3F30725DBB2C71B39
:1051F000AAEB080E07FB0EFEBEFBF9FEC644D64521
:10520000A5D8A5EB030807FB08F7B7FBF9F73B4464
:10521000AB424FF000079AD882B1DFF8BC80D8F8D3
:105220005C5025F4FE4525F00205B0F5E16F45EA36
:105230000E2518BF02273D43C8F85C50002946D010
:10524000226DD2B2032A19D8B0F5E16FD4F87C21CF
:105250001FD0C2F307221DE0D4F874311D0EC3F332
:105260000743C4E7D4F87831BEE7D4F86C31BBE724
:10527000D4F86C31F2E7D4F87031EFE7BCF1020FEB
:10528000D4F880211ED0BCF1030F1ED0BCF1010F59
:10529000DFD0D2B2120312F4702F7FF458AF0E4C4D
:1052A000E06E20F470400243E266626E22F4FF7208
:1052B000E72B22F0010228BFE723324342EA4303EF
:1052C000636645E7C2F30742E4E7120EE2E7012115
:1052D0003EE700BFB081E00F00300E40194B1A6F5F
:1052E000D96CC90702F0070214D5012A12D9132874
:1052F00023D9143813288CBF102308231148013BED
:10530000C26C190322F47F4241EA03231343C364AE
:10531000FFF7A4BEDB6CD90706D4012A04D80928FC
:105320000BD90A380928E6E7064BDB6C13F00103BA
:10533000E4D0012A03D82728DDE70423DEE7002391
:10534000DCE700BF00300E40054A064B1B68136FB8
:1053500023F007031843044B10671888FFF7BEBFFC
:1053600000300E408009C64392050020544B0222B3
:1053700073B59A639B6B03F00F039342054603D00A
:105380000024204602B070BD4E4BD3F86C3101337F
:105390001DD04D4B1A68043B1B681A604B4B1A68B2
:1053A000043B1B681A604A4B1A68043B1B681A606E
:1053B000484B1A68043B1B681A60474B1A68043B49
:1053C0001B681A60454B1A68043B1B681A60E98821
:1053D000A888B5F90C604A2965D9B1F5FA7F64D37C
:1053E00040F6C313994294BF4FF000514FF0405123
:1053F000334CE36C23F0405323F00103002EA8BF8D
:1054000043F001030B43E364354B1880E36E43F034
:105410008073E366334B186800B10420FFF794FFF4
:10542000236E23F0C0432366E36C43F0060301A818
:10543000E36400F0AFFB9DF80500012812D19DF850
:105440000430022B0ED828490B785BB9274A136821
:1054500043F001031360236E254A1A40254B134382
:1054600023660870244B29891980244BB5F90C2038
:10547000A8881A80FFF732FFAB7BCBB1012B1BD082
:10548000012211466888FFF75BFE044600283FF4BE
:1054900077AFAB7A1A4A6878003318BF01231360DC
:1054A000FFF714FE6DE70021A2E74FF080519FE760
:1054B000034B144A9A65E3E7014B134AFAE700BF2E
:1054C00000300E40B081E00F3C80E00F4480E00FE0
:1054D0004C80E00F5480E00F5C80E00F6480E00FB0
:1054E000920500208009C6439805002044300E40F4
:1054F000000F0EF0B4C0400B94050020960500206C
:105500009407C64377402057372110B7072A70B554
:1055100001F003014FF00F0523D896001A4CB54057
:10552000256004F10074B04020600320B04001FA0F
:1055300006F61649086001F100710E601449114425
:1055400089000B609DF81030C1F88030012303FA08
:1055500002F2104BC3F824249DF81430C1F8003334
:1055600070BDA2F10804A4000B4EA54035600B4DA0
:10557000A04028600320A04001FA04F40849086014
:1055800001F100710C60D9E700A4004408A40044B4
:105590008020851000A0004004A4004404A400461C
:1055A0000CA40044F0B54AB130261E4C01254643F8
:1055B0008D4034440BB304F1C0642560302444436F
:1055C00004F18044072904F5204419D865688E0049
:1055D0000F27B74025EA070502FA06F6354365604E
:1055E00052B9012202FA01F1302250430D4A02441D
:1055F000A3B102F1C0621160F0BD04F18064DCE788
:1056000001F18045083DA668AD000F27AF4026EAAE
:10561000070602FA05F53543A560E1E702F180626D
:10562000E9E700BF0CA0004070B50546144652B330
:10563000026803F0030622F4407200F18063026006
:105640004FF44070186005F1C06332021A6031B93E
:105650000D4B9D4203D10D48FFF778FA01462B68A8
:105660000B4B9B5D63430ED06FEAC4041C44214482
:10567000B1FBF3F12B689B0701F1FF3102D5002943
:1056800008BF0121296170BD00C000400072040004
:10569000FBC7000000F1047040010160704700008A
:1056A00038B5002303640B4BC3634A78430103F10D
:1056B000844382F001020C465A6005460B7BD1E917
:1056C0000112FFF7B1FF21782846BDE83840FFF707
:1056D000E1BF00BFFFFF0700E0234360002303603A
:1056E0000361436183610364C368DB0502D4024B39
:1056F000C3637047C369F7E7FFFF07009B4B9842FE
:105700002DE9F04740F07681994B0025D3F808C089
:105710005A881C7993F800E02F462E4680464FF0B9
:105720004009416B11F4C06F17D007B15A8005B121
:105730001C718D050CD5FD225A7053E101252F46B1
:1057400000222E464FF0030EEBE701252F46E8E737
:105750004C0540F14781FE22EEE7BEF1080F00F252
:105760004381DFE81EF00900370075008C00AC00B3
:10577000C200F200070131010EB10021197007B11A
:105780005A8005B11C71BCF80210BCF80020C80694
:1057900019D5120A02F0060242F0F0027349012004
:1057A0001870CA6248601A78092A40F026816F4949
:1057B00000220A6493F90110012908BF5A7093F975
:1057C0000100BDE8F08702F0FE02890748BF42F001
:1057D0000102E3E711F0800F0BD007B15A8005B149
:1057E0001C71624A8021D163FF2159700821197010
:1057F00092E0490608D40EB10121197007B15A8010
:10580000002DD0D01C71CEE7BCF80210C8F83C9037
:10581000CE060AD507B15A8005B11C7102221A7052
:10582000524A9CF80010D162BDE7890740F19A8086
:1058300007B15A8005B11C7107221A701A790CEB56
:10584000C2021289012A40F0D880484A082164E047
:1058500011F0800FC1D1490603D4002ECED0022111
:10586000CBE7BCF80210C8F83C9011F0020F4FF0E3
:10587000010614BF4FF0030E4FF0050E51E70EB1B5
:105880000321197007B15A8005B11C71BCF80210D0
:10589000BCF80020C80643BF120A02F0060242F01C
:1058A000F00202F0FE0249074FF0040119702F497F
:1058B00048BF42F0010201204860CA6273E711F05C
:1058C000800F8AD1490603D4002E97D0042194E793
:1058D000BCF80210C8F83C90490743D507B15A807C
:1058E00005B11C7107221A705DE7E1000CEB010A9B
:1058F000BAF808A0924517D8BCF80210013411F08C
:105900000405E4B27FF41AAF11F0010207D05D8004
:1059100008221A70154A1C710221516043E7012CBC
:105920007FF613AF5A80F3E70EB10520187007B168
:105930005A8005B11C718C44501CDCF8041058804E
:10594000895C0A4AD1620622CDE711F0800F7FF40C
:1059500044AF490604D4002E3FF450AF06214CE773
:10596000C8F83C9001264FF0050EDAE600C0004072
:105970009C0500200EB10720187007B15A8005B1B0
:105980001C7189067FF50FAF1A791D480CEBC20216
:10599000C46911895888814281BF5268451C5D8065
:1059A00014545888164A814204D8012904BF08219A
:1059B00051601BE70424012954607FF6F4AE0139DD
:1059C00088427FF4F0AE41E70EB10820187007B1AD
:1059D0005A8005B11C71CA057FF5E5AE084A4FF43F
:1059E0008071D16309227EE707B15A8005B11C712D
:1059F000FB22A1E66FF00300E3E60120E1E600BF31
:105A000000C00040164B984226D18368DB0744BF94
:105A1000202343604B889A0701D50A89E2B15807D1
:105A200001D50B8AC3B10F4B002201201A711A70E5
:105A30005A80587099600A4BC0225A60DA68D205C1
:105A400008D4094ADA631A6C054842F4FC621A6405
:105A5000FFF754BEDA69F1E76FF00300704700BF4B
:105A600000C000409C050020FFFF070010B5044661
:105A700001214FF48A40FEF733FFB4F80130227859
:105A80005BBA9BB243EA02630B4A136000231362C2
:105A9000D36253634FF00043D3664FF0FF339366F6
:105AA000064A4FF48071C2F88011E3785B01DBB2E3
:105AB00082F80833116010BD00200E4000E100E0C4
:105AC0002DE9F041254D91F80BE091F80AC00F7BCC
:105AD0000C464FF03008C3B2012608FB00509E4030
