:1000000000100020E55C0000E15C0000E15C000005
:1000100079A20000E15C0000E15C0000E15C00000E
:10002000E15C0000E15C0000E15C0000E15C0000DC
:10003000E15C0000E15C0000E15C0000E15C0000CC
:1000400071650000A9E80000E15C0000E15C0000CF
:10005000F9DF000015E90000B5E80000CDE8000078
:10006000ADE80000E1610000B9620000E15C000061
:100070006D5C0000512E0000E15C0000E15C0000BE
:10008000E15C0000D12B0000E1620000912B000038
:10009000E15C0000E15C0000E15C0000E15C00006C
:1000A000E15C0000E15C0000E15C0000E15C00005C
:1000B00019E90000B1E8000021FE0000E15C000049
:1000C00059E90000E15C00002DD40000E15C000073
:1000D000E15C0000E15C0000E15C0000E15C00002C
:1000E000E15C0000E15C000010B5054C237833B9F9
:1000F000044B13B10448AFF300800123237010BDFB
:10010000DC14002000000000E83B010008B5034BB0
:100110001BB103490348AFF3008008BD0000000095
:10012000E0140020E83B0100154B002B08BF134BE7
:100130009D46A3F5803A00218B460F461348144A8A
:10014000121A10F0A3FE0F4B002B00D098470E4B55
:10015000002B00D098470020002104000D000D481E
:10016000002802D00C48AFF3008010F023FE2000DE
:10017000290002F0A9FE10F009FE00BF00000800EF
:10018000001000200000000000000000DC1400202F
:100190007C420020000000000000000008B50B4B6E
:1001A000DA6C42F00102DA64094A4FF4005111603E
:1001B00001225A64196C074B1960074B1A70074BE0
:1001C0001A701421092004F001F808BD0000014054
:1001D00000E100E0041E0020212100204021002039
:1001E00070470000F8B5204B1B78204A1678B342C0
:1001F00007D000271E4AD36C23F00103D3640023E9
:100200000AE00127F6E7184C2278551C2570CD5CD2
:10021000184CA5540133DBB28342F4D3144AD36C97
:1002200043F00103D364144A92F8B132013382F8E7
:10023000B13207B9F8BD0C4B1B789E42FAD00C4C7A
:10024000E36C23F00103E364721C084B1A70094B42
:10025000995D204608F004F9E36C43F00103E36480
:1002600001236364E6E700BF3C210020091E002053
:1002700000000140102000202C31002008B5002390
:1002800004220D21032007F089FC08BD08B5134B9B
:100290001B78022B10D0032B17D0012B00D008BDE8
:1002A000FA210B2003F092FF0D4B4FF400521A601D
:1002B0000A4B02221A70F2E70B2003F08FFF00288E
:1002C000EDD0064B03221A70E9E7064B4FF40052BB
:1002D0001A60024B00221A70E1E700BFC42100201F
:1002E0009CA000469CA000441E4B93F8AB30012B11
:1002F00000D070471B4B93F8A730012BF9D11A4B54
:100300009A78184B93F8AA309A42F2D1164B5A7841
:10031000144B93F8A9309A42EBD1134B1B78114A36
:1003200092F8A82003F00F039A42E2D10E4BDB783B
:100330000E4A1278934210D00D4A012111700B4AD7
:10034000137008490A4652F8AC3F0133094803606C
:1003500009480260C1F8AC30CBE7064A1268002AAF
:10036000EAD0C6E72C310020383E0020B121002021
:10037000C4210020B8210020C021002008B5114B65
:1003800093F88400104B93F88430984210D10D4BB1
:1003900093F885000C4B93F88530984207D003F012
:1003A000C5F9084B93F88520074B83F8852008BDD5
:1003B00004F00EFE034B93F88420034B83F8842053
:1003C000E5E700BF2C310020002B002008B5FFF727
:1003D0005DFFFFF7D3FF08BD2DE900480C480BF087
:1003E00013F80C4B196C586C4FF0000B4BEA0102E0
:1003F000034609480BF008F8084B1B782BB908494D
:1004000008480BF001F8BDE800880749F8E700BF8D
:10041000D4170100B081E00FDC17010000100020AC
:10042000D0170100F4170100CC17010008B5034BE9
:1004300001221A7002480AF0E7FF08BDF8140020F4
:100440002018010008B58368C26853F822301B7871
:100450003BB1064B01221A70054906480AF0D4FF49
:1004600008BD024B00221A700349F6E70010002075
:10047000CC17010008180100D017010008B505F0DD
:100480002DFD012800D008BD014B01221A70FAE7AA
:10049000F814002070B5144D012485F88641134BE3
:1004A00083F886410F2685F88561114B1C70114B2E
:1004B0001C70114B00221A7023462246072105208A
:1004C00007F06CFB234602223146204607F066FB0C
:1004D0000A4B1C700A4B1C700B2385F853321021F9
:1004E000022004F04DFE70BD2C310020002B0020B6
:1004F000DB220020E1220020DF220020DC2200207D
:10050000DE22002008B5304B1B78013B042B07D8B6
:10051000DFE803F003070B2D45002B4B02221A7076
:1005200008BD294B03221A70FAE7284B93F886314D
:10053000012B0BD0264A92F88621934213D0224AEF
:1005400005211170224A82F88631E9E7204A92F8A3
:100550008621934203D01C4A04211170F2E71A4A03
:1005600001211170EEE7184A01211170EAE704F049
:1005700055FE0128D4D1154B0F2283F885210C227A
:1005800083F853221021022004F0FAFD114B0022BF
:100590001A700D4B01221A7002F022F9C0E704F024
:1005A0003DFE0128BCD1094B052283F885210D228F
:1005B00083F853221021022004F0E2FD0123054AB2
:1005C0001370014A1370ABE7DB2200202C310020AE
:1005D000002B0020DF22002008B52D4B1B78013BAB
:1005E000042B07D8DFE803F0030720314200284B33
:1005F00002221A7008BD274B93F88531242B07D0AF
:10060000042B09D0082B0BD0214B01221A70F1E7E3
:100610001F4B04221A70EDE71D4B03221A70E9E705
:100620001B4B05221A70E5E71B4B80221A60012341
:1006300002220721052007F0B1FA164B052283F8A4
:100640008521134B01221A70D4E7134B80221A60C4
:10065000012304220721052007F0A0FA0D4B2522D3
:1006600083F885210A4B01221A70C3E70B4B8022C5
:100670001A60002304220721052007F08FFA054B9A
:10068000092283F88521024B01221A70B2E700BFCC
:10069000DF2200202C310020FCA00046FCA00044FA
:1006A00008B50C4B08221A6003F17E43F033802218
:1006B0001A60002304220721052007F06FFA064B79
:1006C0004FF400421A60002304220F21012007F09A
:1006D00065FA08BD0CA000463CA0004408B56A4B72
:1006E0001B78013B082B0FD8DFE803F0050F1F2F05
:1006F0005C79A2AABA00654B002283F88A2183F8AC
:100700008B21614B02221A7008BD614B1968614A46
:1007100011701B68002BF7D14FF4FA61192003F018
:1007200055FD594B03221A70EEE7192003F056FDD0
:1007300038B9574B1B68012BE6D1534B01221A7075
:10074000E2E7514B04221A70DEE704F067FD01284E
:10075000DAD14E4B93F8863133B94C4B152283F8DE
:1007600085214D4B01221A704FF4FA51192003F0E4
:100770002DFD464B012283F88A2193F8863193425E
:100780000BD0424B0E2283F853224021022004F06A
:10079000F7FC3D4B05221A70B6E73C4B042283F868
:1007A0008B21EEE7192003F019FD80B9384B1B6847
:1007B000012B10D0354B93F88B31052BA4D1334B43
:1007C00093F88631012B9FD1FFF76AFF9CE72E4BF0
:1007D00006221A7098E72C4B07221A7094E704F04F
:1007E0001DFD012890D1294B93F886212AB91921A2
:1007F00083F88511284B01211970244B022183F8BD
:100800008A1193F88B31043BDBB2012B0BD91F4BC0
:100810000F2283F853224021022004F0B1FC1A4B2E
:1008200007221A7070E7012AF1D1FFF739FFEEE7CE
:10083000C821192003F0CAFC134B08221A7063E781
:10084000134B1B6813B9104B07221A70192003F0C1
:10085000C5FC00283FF458AF0B4B09221A7053E730
:1008600004F0DCFC01287FF44FAF084B002283F832
:100870008A21102283F853224021022004F080FCB8
:10088000014B01221A703FE7E12200202C310020A9
:10089000BC091442E0220020DD22002008B5114BE3
:1008A0001B78012B02D0022B09D008BD4FF47A71BE
:1008B0001A2003F08BFC0B4B02221A70F5E71A206A
:1008C00003F08CFC0028F0D0074B93F88731022B03
:1008D00003D0054B022283F88721024B01221A70B4
:1008E000E3E700BFDC2200202C31002008B52A4BB2
:1008F0001B78022B0DD0032B32D0012B00D008BD6A
:1009000043F698211B2003F061FC234B02221A704E
:10091000F5E71B2003F062FCC8B1204B93F8883147
:10092000022B0CD01D4B93F88931022B07D01B4BA7
:100930001D2283F88521032283F8882103E0174BC9
:10094000012283F88821144B01221A70D7E7134B38
:1009500093F88831032BD2D10F4B03221A70CEE7C4
:100960000F4B1B6843B14FF4FA611C2003F02EFCBF
:10097000094B02221A70C2E71C2003F02FFC00284A
:10098000F6D0084B80221A6001230222072105209D
:1009900007F004F9ECE700BFDE2200202C31002034
:1009A000BC091442FCA0004608B52C4B1B78013B47
:1009B000032B18D8DFE803F0020F184E284B93F8EA
:1009C0008931022B03D0254B02221A700BE0234BF6
:1009D00004221A7007E040F6B8311D2003F0F6FB40
:1009E0001E4B03221A7008BD1D2003F0F7FB30B325
:1009F0001B4B93F88531152B05D0192B11D0174BB4
:100A000004221A70EFE7164B172283F88521154B45
:100A100080221A60012302220721052007F0BEF878
:100A2000EDE70F4B1B2283F885210E4B80221A60C5
:100A3000012302220721052007F0B0F8DFE7084B69
:100A400093F88531152BCED0192BCCD0034B042233
:100A50001A70C8E7014B00221A70C4E7DD2200209B
:100A60002C310020FCA0004608B5FFF74BFDFFF736
:100A700035FEFFF7B1FDFFF797FFFFF70FFFFFF719
:100A800035FF08BD08B5FFF7EFFF08BD024A137830
:100A900018431070704700BF30230020024A1378BB
:100AA00023EA000010707047302300202DE9F84F32
:100AB000664C002584F8515284F81E530A2784F8A6
:100AC0001C734FF0140B84F81DB32B460122062132
:100AD000052007F063F82B4604220321284607F07F
:100AE0005DF82B4604220B21022007F057F84FF047
:100AF0000108574B83F8008084F8555284F85672E9
:100B000084F857524FF0020984F85892514E03234B
:100B100086F8303184F8305184F8313186F831313B
:100B2000F02384F8383184F8397186F8383186F842
:100B300039714FF08C0A84F83AA184F83B7186F839
:100B40003AA186F83B7184F83E5186F83E5184F80C
:100B50003F5186F83F5184F837B186F837B184F8B1
:100B60003D9186F83D914846FFF790FF3A4B83F858
:100B700000803A4B1D703A4B1D8084F859A2394BC6
:100B80001D8084F85A5284F85BA2374B1D8084F88C
:100B90005C52642384F85D323C2284F85E22334A3E
:100BA00082F80080324A82F80080324A82F800805F
:100BB000314A157084F8395386F839532F4A157025
:100BC0002F4A157084F8385386F838532D4A82F826
:100BD000008084F8143386F8143384F8155386F8AB
:100BE00015530C2384F8173386F81733264A1570EB
:100BF00084F8167386F81673244A1770542184F803
:100C000018130B2284F8192386F8181386F8192371
:100C10001F4A82F800801F4A1570A375B37584F8C7
:100C2000BE3086F8BE3084F81A5386F81A53E5753C
:100C3000F575502384F84C3284F84D92164B83F8A6
:100C40000080164B1D70BDE8F88F00BF2C310020CE
:100C5000EF220020002B0020082300202015002078
:100C6000262300200A230020F6220020352300201E
:100C70001E2300203423002003230020F914002029
:100C8000F822002036230020112300200C2300200E
:100C9000F0220020252300203123002018150020F9
:100CA00070B487B0002309E01B4A02EB430206A997
:100CB00001EB830141F8142C0133DBB2042BF3D98F
:100CC00000201DE00133DBB2042B18D806AA02EB8A
:100CD000830252F8141C0D8806AA02EB800252F817
:100CE000142C1488A542EDD206AC04EB800444F821
:100CF000141C06A901EB830141F8142CE2E73046ED
:100D0000032803D8461CF6B23346DDE7039B188858
:100D100007B070BC704700BFE422002070B487B0F9
:100D2000002309E01B4A02EB430206A901EB830101
:100D300041F8142C0133DBB2042BF3D900201DE061
:100D40000133DBB2042B18D806AA02EB830252F857
:100D5000141C0D8806AA02EB800252F8142C148889
:100D6000A542EDD206AC04EB800444F8141C06A99D
:100D700001EB830141F8142CE2E73046032803D845
:100D8000461CF6B23346DDE7039B188807B070BCFB
:100D9000704700BF1423002070B5814B1B78013BC6
:100DA0000E2B1ED8DFE813F00F001E0026003B00BC
:100DB0002F009C00C900DA00E900F1001601A8012B
:100DC000B901AC01CA01774B00221A80764B93F827
:100DD000593203EB83035A00744B1A80704B022282
:100DE0001A7070BD64211F2003F0F0F96C4B0322D0
:100DF0001A70F6E71F2003F0F1F90028F1D0684BD4
:100E000005221A70EDE7684B93F886311BB9644BE5
:100E100004221A70E5E7624B01221A70E1E7644A86
:100E200013780133DBB21370042B02D9134600226E
:100E30001A705D4C94F8723094F873205C4909780C
:100E400043EA02235B4A22F8113094F8385194F8AF
:100E5000393145EA0325584B1D8094F8766094F8A3
:100E6000773046EA0326554B1E80FFF719FF544B97
:100E7000188094F85D1288420CD994F85E2202EB37
:100E8000820253009BB24F4A13809E4202D2401A04
:100E90004B4B18804A4B1B889D4209D3414B1B8802
:100EA000424A1288934206D201333E4A138002E03E
:100EB0003C4B00221A803B4B1A88434BA3FB021386
:100EC000DB08394981F85A32384B1B889A4203D3E0
:100ED000334B06221A7084E7314B02221A7080E7E6
:100EE000314B012283F83E2100230DE0314A32F8D4
:100EF000132003F58C7461002B4800F81420120AAB
:100F0000013142540133DBB2042BEFD92C4B1A8848
:100F1000254B83F83A22120A83F83B22214A128891
:100F200083F83C22120A83F83D2293F8592283F871
:100F30003E221B4B07221A7053E704F06FF9012879
:100F40007FF44FAF184B112283F8532280210220E7
:100F500004F016F9124B08221A7042E71B4B0022CC
:100F60001A80114B93F85B3203EB83035A00184B42
:100F70001A800B4B09221A7033E764211F2003F0FB
:100F800025F9074B0A221A702BE71F2003F026F9D8
:100F900000283FF426AF024B0B221A7021E700BF56
:100FA000342300200A2300202C310020222300209B
:100FB000EE220020E42200202E23002028230020FF
:100FC0000E23002020230020CDCCCCCCF622002004
:100FD000002300205B4B93F83A4193F83B2144EA0D
:100FE0000224594A148093F8382193F8391142EABF
:100FF000012256490A8093F8765093F8772045EA03
:101000000225534A158093F8373103EB83035A00C6
:10101000504B1A80504A13780133DBB21370042B03
:1010200002D9134600221A70464E96F8723096F88E
:1010300073204949097843EA0223484A22F81130CB
:10104000FFF76CFE464B188096F85D1288420CD96B
:1010500096F85E2202EB820253009BB2414A138053
:101060009D4202D2401A3E4B18803D4B1B889C4249
:101070002FD33D4B1B883D4A1288934202D2013345
:10108000394A13803A4B09221A70374B19882D4A76
:10109000384BA3FB0103DB0882F85C3292F83F3146
:1010A0000A2B1DD0274B93F88631012B1CD02C4BDB
:1010B0001A88264B1B882748008803449A4213DA73
:1010C0002A4B1B889942FFF48CAE294B0C221A70D4
:1010D00087E6254B00221A80254B09221A70D4E797
:1010E000234B0C221A707CE6164B002283F83E211B
:1010F0001F4B0D221A7074E61D4B0E221A7070E6FB
:101100001D4B80221A60002304220721052006F0CF
:1011100045FD174B0F221A7063E604F07FF8012893
:101120007FF45FAE074B122283F853228021022006
:1011300004F026F80E4B0F221A7052E60C4B0122D7
:101140001A704EE62C3100202A2300202E23002086
:101150002823002032230020102300201423002005
:101160000E23002020230020F62200200023002050
:1011700034230020CDCCCCCCFCA000440223034A75
:1011800082F83231024A82F8323170472C31002025
:10119000002B002008B5074B1B68DBB2064A137012
:1011A000012B03D00120FFF779FC08BD0120FFF7D8
:1011B0006DFCFAE78C0314420423002008B5234B8E
:1011C0001B78013B042B07D8DFE803F00307131C4F
:1011D00030001E4B02221A7008BD0521072002F0C4
:1011E000F5FFFFF7CBFFFFF7D5FF184B03221A706F
:1011F000F2E7072002F0F2FF0028EDD0134B0422A3
:101200001A70E9E7124B1B68DBB2124A1370012B0C
:1012100007D0114B022283F831210C4B01221A70A6
:10122000DAE70D4B032283F83121F6E703F0F6FFEE
:101230000128D1D1084B132283F8532280210220A8
:1012400003F09EFF014B01221A70C5E71E23002008
:1012500098211442242300202C31002008B5274B6C
:101260001B78013B062B0BD8DFE803F01216044075
:101270003C0B4400224B08221A60204B04221A70B7
:1012800008BD204B08221A601C4B07221A70F7E792
:101290001A4B02221A70F3E71B4B93F830311B4AAA
:1012A00092F83021934217D0012B0AD00223164A1C
:1012B00082F83031154A82F83031104B03221A700F
:1012C000DEE70323104A82F83031104A82F83031C9
:1012D0000A4B05221A70D3E7FFF75CFF074B012288
:1012E0001A70CDE7054B06221A70C9E7034B072297
:1012F0001A70C5E7014B01221A70C1E7352300209F
:101300000CA000440CA000462C310020002B002033
:1013100008B50C4B93F83D310B4A92F83D219342AE
:101320000AD0012B09D00220FFF7B8FB054B93F838
:101330003D21054B83F83D2108BD0220FFF7A6FBA8
:10134000F4E700BF2C310020002B002038B55B4BA8
:101350001B78013B062B0CD8DFE803F0040C1C259E
:101360003595AC00564B002283F81523534B0222CF
:101370001A7038BD524B93F81633524A13704FF41B
:101380007A7101FB03F1292002F020FF4B4B03226D
:101390001A70EEE7292002F021FF0028E9D0474B20
:1013A00004221A70E5E7464B93F886311BB9434B8C
:1013B00005221A70DDE7414B02221A70404B0022D1
:1013C00083F81523D5E73E4B93F8722093F87310FA
:1013D00042EA01223C490A8093F8180393F8191352
:1013E00040EA01203949088093F8761093F8774055
:1013F00041EA0421364C218093F85D52AA420CD96F
:1014000093F85E4204EB840463009BB2314C23806A
:10141000994202D2521B2C4B1A80294B93F8153358
:10142000012B15D0284B1B88984225D3244B93F8C9
:101430001723294B1B789A4202D9013326490B7096
:10144000254B1B789A4213D81C4B06221A7090E742
:101450001D4B1A881A4B93F814331844824203DD4B
:10146000174B002283F81523144B02221A7080E7D1
:10147000124B02221A707CE7174B00221A700F4B96
:1014800002221A7075E703F0C9FE01287FF471AFDC
:101490000B4C152384F853328021022003F070FE98
:1014A000012384F815330C4B00221A70034B0722DA
:1014B0001A705EE7014B02221A705AE7F0220020F0
:1014C0002C3100200C23002006230020F2220020D3
:1014D00028230020202300201123002010B5012400
:1014E0000C4B1C7006F07CFE0B4B1860000A0B4B7B
:1014F00083F81B0306F06EFE2146094805F078FAD2
:101500000849CC700023CB7108230B72064806F003
:10151000BCFF10BD252300201C1500202C3100200D
:1015200030053E00041000200020054008B5404B67
:101530001B78013B072B08D8DFE803F004080C2DCB
:10154000364465753A4B02221A7008BD384B0322A7
:101550001A70FAE7374806F089FF6421302002F05C
:1015600035FE334B04221A70334B1B78272B02D8DD
:101570000133314A1370304B1B78272BE5D9282BC8
:10158000E3D101332C4A13702C4B11221A70284BD3
:1015900007221A70D9E7302002F020FE0028D4D0AC
:1015A000234B05221A70D0E7244B93F81A33092BEA
:1015B00003D01F4B06221A70C7E71F4A1378013366
:1015C0001370FAE71D4B93F81B3313F0080F03D089
:1015D0001A4BDB7D022B07D9184B9B7D0C2B09D0B6
:1015E000134B08221A70B0E70133144AD37501F087
:1015F000B9FEF1E7114B0D229A7583F8BE200C4B12
:1016000007221A70A1E703F009FE01289DD10B4BB8
:10161000162283F853220821022003F0B1FD044B67
:1016200008221A7091E7024B03221A708DE700BF5F
:101630002523002000200540151500202C31002016
:10164000124B93F88631012B0BD002230F4A82F8FC
:1016500032310F4A82F832310E4B4FF400621A6079
:1016600070470D4B1B78002BEFD1084B93F83D31A1
:10167000002BEAD10323054A82F83231044A82F86A
:101680003231064B4FF400621A6070472C31002053
:10169000002B00206CA00044042300206CA0004616
:1016A00000B585B055238DF80430AE238DF8053094
:1016B00000238DF80630DB228DF8072001228DF8FB
:1016C00008208DF809300F4B5A7A8DF80A209A7B42
:1016D0008DF80B20DA7B8DF80C201A7C8DF80D200C
:1016E0001B7A8DF80E300A210DF1050000F028FB61
:1016F0008DF80F00022201A90C20FEF773FD05B042
:101700005DF804FB2C310020F8B5694B1B78013BD8
:10171000062B50D8DFE803F00448507884BFB300AC
:10172000644B93F84E320D2B2BD04FF4FA61052009
:1017300002F04CFD604B1A780132D2B21A705F4948
:101740000B780133DBB20B705A4981F8573291F8AC
:1017500056128B4205D35A4B19785A4B1B78994233
:1017600014D0544B93F858329A4206D3524B00226D
:101770001A70534B1A78534B1A704D4B02221A7041
:1017800019E00521084602F021FDD3E7494B93F803
:1017900058329A42E5D30023474A1370474A1370E0
:1017A000434B06221A7006E00121062002F00EFDCE
:1017B0003F4B03221A70F8BD434B1B6813F0FF0F19
:1017C0001AD1424A138801331380404B1A8841F2E0
:1017D00087339A4214D93D4B00221A80344B06229B
:1017E0001A7001F0B7F90028E5D0002001F0B8F92F
:1017F0002F4B06221A70DEE7344B00221A80E4E7F2
:101800002B4B04221A70ECE7052002F0E7FC18B11C
:10181000274B05221A70CEE7254B02221A70CAE721
:1018200001F0A4F92A4F386001F0A6F9294E306082
:1018300001F0A8F9284D28601E4C284B1B78237214
:1018400001F082F960723B68C3F30342A2721A0A84
:10185000E2722373224B1B7863733368C3F3034232
:10186000A2731A0AE27323742B68C3F303426274EF
:101870001A0AA274E3740E4B07221A709BE70D4BF1
:1018800093F85532012B03D0094B01221A7092E7CD
:10189000FFF706FFF8E7124A137801331370114877
:1018A00006F03AFA01F0DEF8014B02221A7082E7E4
:1018B000EF2200202C3100201415002012150020EA
:1018C0000015002013150020A81514421015002043
:1018D00004150020081500200C150020022300200C
:1018E0000115002000C0004010B55A4B1B78062B94
:1018F0003BD8DFE803F004173B855975A5000023AA
:10190000554A1360554A1380554B93F88631012B85
:101910002BD0534B93F85132012B26D14D4B012242
:101920001A7022E04E4B93F88631012B04D04C4BB9
:1019300093F85132012B02D0464B00221A70484CCA
:1019400094F81D334FF47A7101FB03F1322002F059
:101950003DFC94F81C334EF6602101FB03F131206D
:1019600002F034FC3B4B02221A7010BD3C4B93F842
:101970008631012B03D03A4B93F851321BB9354BCA
:1019800000221A70F1E7312002F028FC18B1314B27
:1019900004221A70E9E7322002F020FC0028E4D08B
:1019A0002C4B03221A70E0E72C4B1A882A4B1B6839
:1019B000B3FBF2F32A4A82F81E331B0A82F81F3364
:1019C00013F0FF0F03D113461A2283F81F234EF69C
:1019D0006021332002F0FAFB1E4B05221A70C4E787
:1019E00003F01CFC0128C0D11D4B172283F85322A1
:1019F0000821022003F0C4FB164B06221A70B4E73C
:101A000003F068FD144A136818441060134A1388E1
:101A100001339BB21380B0FBF3F0114B83F820032A
:101A2000000A83F8210393F81D334FF47A7101FB08
:101A300003F1322002F0CAFB064B02221A7094E72F
:101A4000332002F0CBFB00288FD0024B00221A700B
:101A50008BE700BF2C230020FC140020161500206B
:101A60002C31002070B54E4B1B78013B082B09D858
:101A7000DFE803F0051B09123B6B787F7E00484BC3
:101A800003221A7070BD4FF47A71082002F09EFB99
:101A9000434B04221A70F5E7082002F09FFB002850
:101AA000F0D03F4B02221A70ECE73E4B93F88631A0
:101AB000012B0CD0002BE5D13A4B93F84D32033B70
:101AC000DBB2032B0AD8364B05221A70DAE7364B05
:101AD00000221A70324B01221A70D3E7324B0022D7
:101AE0001A702F4B01221A70CCE72E4B93F84C2220
:101AF0002D4B1B789A420AD82A4B93F84D32032B70
:101B00000CD0042B0ED1264B07221A70BAE70133F2
:101B1000254A1370224B03221A70B3E7204B06228A
:101B20001A70AFE7052B03D11D4B09221A70A9E7E4
:101B3000062B03D11A4B08221A70A3E71A4B002276
:101B40001A70174B01221A709CE7184B80221A60FA
:101B5000002304220721052006F020F8104B002264
:101B60001A708FE7FEF79CFD0D4B00221A7089E773
:101B7000FEE70C4E002486F83D410D4D85F83D41B1
:101B80000220FEF78BFF032386F8323185F83231CD
:101B9000084B4FF400621A60014B1C7072E700BFE3
:101BA000312300202C31002018150020FCA0004417
:101BB000002B00206CA0004608B5234B1B78013B8E
:101BC000042B0AD8DFE803F0030A131C2B001F4B79
:101BD00000221A701C4B02221A7008BD41F2883193
:101BE0000A2002F0F3FA184B03221A70F5E70A20D4
:101BF00002F0F4FA0028F0D0134B04221A70ECE73C
:101C0000124B1B783B2B06D80133104A13700E4B36
:101C100002221A70E1E70C4B05221A70DDE70C4B2B
:101C200093F83D31022B03D0074B06221A70D4E7FC
:101C30000023074A82F83D31064A82F83D310220EE
:101C4000FEF72CFFF0E700BF08230020201500203E
:101C50002C310020002B002008B5FFF759FBFFF7BF
:101C6000FDFAFFF7ABFAFFF797F8FFF7E9FCFFF78C
:101C70004BFDFFF739FEFFF7F5FEFFF79DFFFFF77E
:101C800065FB08BD10B400240FE05B00DBB2C1B2FD
:101C90004B40013AD2B22AB113F0800FF5D15B006C
:101CA000DBB2F6E7054A13550134FF2C02DCE3B240
:101CB0000822F0E75DF8044B704700BF382700208A
:101CC00010B4002410E05B009BB281B24B40013A9B
:101CD000D2B22AB113F4004FF5D15B009BB2F6E704
:101CE000064A22F814300134FF2C04DCA3B21B0294
:101CF0009BB20822EDE75DF8044B704738230020C3
:101D000010B4002410E05B009BB281B24B40013A5A
:101D1000D2B22AB113F4004FF5D15B009BB2F6E7C3
:101D2000064A22F814300134FF2C04DCA3B21B0253
:101D30009BB20822EDE75DF8044B70473825002080
:101D400000231A468B420DD210B4C45C6240064C8C
:101D5000A256D2B20133DBB28B42F6D310465DF805
:101D6000044B7047184670473827002000231A4656
:101D70008B4210D230B4C45C84EA1224074D35F98A
:101D8000144084EA022292B20133DBB28B42F2D3D6
:101D9000104630BC70471846704700BF38230020FB
:101DA00000231A468B4210D230B4C45C84EA122459
:101DB000074D35F9144084EA022292B20133DBB2B6
:101DC0008B42F2D3104630BC70471846704700BFB4
:101DD0003825002070B59F4B1B78013B0B2B10D88A
:101DE000DFE813F00C00100024002D0035003E0049
:101DF0005C006500EE00170164017C01954B022236
:101E00001A7070BD944B1B78012B03D0914B0422A8
:101E10001A70F6E7904B00221A70904B1968032055
:101E200002F0D4F98B4B03221A70EAE7032002F088
:101E3000D5F90028E5D0874B04221A70E1E7884BDA
:101E40001968042002F0C2F9824B05221A7004209E
:101E500002F0C4F90028D4D07E4B06221A70D0E7D5
:101E6000804A92F80813804B196092F8003392F878
:101E7000042313437D4A136000237D4A13607D4A87
:101E800013607D4A13607D4A13707D4B19680320EF
:101E900002F09CF96F4B07221A70B2E7032002F0A0
:101EA0009DF90028ADD06B4B08221A70A9E7734B3F
:101EB0001B7801229A4070490A606B4909680A42FE
:101EC00062D003F138004400664911F81000013473
:101ED0000C5D40EA04206B4C208003F1180465007F
:101EE00011F8144001354D5D44EA0524664D2C80FF
:101EF00003F12806750011F816600135495D46EAC0
:101F00000121624D2980012B0CD0A04203D2584DF3
:101F10002C6814432C60884236D9564801680A431D
:101F2000026031E04FF63775AC4237D804F1C8058E
:101F3000574E3580C82936D9A1F1C805554E358090
:101F4000A04207D3524C2488A04207D2524C2468A6
:101F5000224203D0464D2C6814432C60444C256823
:101F60004D4C2560884207D84A490988884207D9DC
:101F70004A4909680A4203D03E4801680A430260A0
:101F80003C4A1168454A11600133DBB23B4A137089
:101F9000072B0CD92F4B09221A7032E73C4D4FF614
:101FA000FF762E80C6E73B4D00262E80C8E7344BD7
:101FB0001968032002F00AF9264B07221A7020E75D
:101FC0002B4B1968274B93F800230A4383F800230F
:101FD000284A106893F80423024383F8042311B9B4
:101FE00010B1012100E00121204B1B6823B909B980
:101FF000002302E0012300E00123DBB2284A137032
:10200000184A82F80C1382F80D33124B0A221A7008
:10201000F7E6144B93F80C33224A92F80C239342C0
:1020200005D0204A82F80C331F4B01221A700D4B49
:1020300093F80D331B4A92F80D23934205D0194AA9
:1020400082F80D33184B01221A70024B0B221A70C2
:10205000D7E600BF60280020462800203C2800204A
:10206000402800202C310020702800206828002003
:10207000642800205C280020482800203828002000
:10208000742800206C2800205828002050280020A8
:102090003A28002044280020542800204C28002002
:1020A00021150020002B0020221500200D4B1B784D
:1020B000012B03D00C4B0C221A70A2E603F0AEF8F1
:1020C0000128F7D1074B00221A70084B182283F819
:1020D00053222021022003F053F8EBE7024B0122A8
:1020E0001A708EE622150020602800202C31002076
:1020F000014B1870704700BF6028002008B500230E
:102100008BB10D4B1A680D4B83F8082301200C4B43
:1021100018700C4B42F210721A600B4B00221A70AE
:10212000FFF7E6FF08BD03F5427208490020885416
:102130000133DBB2E4E700BF101000202C31002097
:10214000462800203C28002022150020002B0020DB
:102150002DE9F04F83B0994690F800A083F800A0D5
:102160004378009389F801308378019389F802302D
:102170000330033A52B200231F469C469E463FE07E
:1021800013464CE07600F6B215F0800F09D16D00D1
:10219000EDB214F0800F07D16400E4B284F01B04A8
:1021A0000AE046F00106F2E745F00105F4E746F0E3
:1021B00001061BE06400E4B20132D2B2072A1DD846
:1021C00010F0010F09D08EEA040E5FFA8EFE8CEA41
:1021D000050C5FFA8CFC7740FFB2400816F0800FC8
:1021E000D0D17600F6B215F0800FE0D16D00EDB2DF
:1021F00014F0800FDED045F00105DBE7424658467B
:1022000002F1FF384FFA88F8002A0DDD5A1ED2B2CB
:10221000002BB5D10C784D788E780331022300F174
:10222000010B00780022C9E78AEA0E0E89F800E067
:10223000009B83EA0C0C89F801C0019B7B4089F864
:10224000023003B0BDE8F08F08B504F021F90B4B64
:10225000162283F83A23002283F83B23802183F857
:10226000F8120C2283F8F92283F8FA1283F8FB2281
:102270000123034A1370034A137008BD2C31002058
:10228000A02800208828002008B5174B1B78013BA8
:10229000052B0CD8DFE803F0030C150B0B244FF4CF
:1022A0007A71202001F092FF0F4B02221A7008BDB4
:1022B000202001F093FF0028F9D00B4B03221A7065
:1022C000F5E704F013F940B2084B1870084B83F897
:1022D0003A03001283F83B03034B01221A70E6E72E
:1022E000014B01221A70E2E7882800209C28002078
:1022F0002C3100200000000010B5914B1B78013BF1
:10230000062B10D8DFE813F0070010001900820038
:102310008A00F300FB004FF47A71212001F056FF90
:10232000874B02221A7010BD212001F057FF0028B0
:10233000F9D0834B03221A70F5E7824C94F87A00A7
:1023400094F87B3040EA032000B27F4B18807F4B2B
:1023500040F6BC421A800EF049F86BA3D3E9002383
:102360000DF0F8FE02460B4669A1D1E900010EF01E
:10237000D1F9774BC3E900010022764B0DF0E8FE5E
:1023800002460B4664A1D1E900010EF0C3F90EF03C
:1023900059FB714A1060714AA2FB00239A0984F824
:1023A000FC229B0B84F8FD320EF010F85AA3D3E9FF
:1023B00000230EF0AFF90EF08FFF59A3D3E90023ED
:1023C0000EF07EF858A3D3E900230DF0C3FE0246B9
:1023D0000B4657A1D1E900010EF09CF90EF00AFB63
:1023E00000B20EF003F854A3D3E900230DF0B0FEC1
:1023F0000EF000FB00B25A4B188084F8F80200126D
:1024000084F8F9024E4B04221A708CE70A2121202D
:1024100001F0DCFE4A4B05221A7084E7494C94F81F
:102420007C0094F87D3040EA032000B2464B1880CF
:10243000464B40F6BC421A800DF0D8FF32A3D3E9D8
:1024400000230DF087FE02460B4631A1D1E90001C1
:102450000EF060F93E4BC3E9000100223D4B0DF048
:1024600077FE02460B462CA1D1E900010EF052F98D
:102470000EF0E8FA384A1060384AA2FB00239A09A5
:1024800084F8FE229B0B84F8FF320DF09FFF22A3FD
:10249000D3E900230EF03EF90EF01EFF20A3D3E98E
:1024A00000230EF00DF820A3D3E900230DF052FE17
:1024B00002460B461EA1D1E900010EF02BF90EF0E9
:1024C00099FA00B20DF092FF1BA3D3E900230DF09F
:1024D0003FFE0EF08FFA00B2224B188084F8FA0209
:1024E000001284F8FB02164B06221A701BE70A2121
:1024F000212001F06BFE124B07221A7013E7104BDC
:1025000001221A700FE700BF7B14AE47E17A843FC7
:10251000000000000078A94000000000006AF840B8
:102520006666666666A2724000000000009AB040CF
:1025300000000080C15533416666666666127140D0
:10254000A02800202C310020782800208A28002094
:10255000902800200000F03F98280020D34D621002
:102560009E2800208C28002008B5FFF78DFEFFF77D
:10257000C3FE08BD08B5104B1B787BB10F2B0CD8E0
:10258000013B0E4A1278934207D00D4A92F8CD30A3
:10259000013382F8CD3002F067F808BD074B1B7895
:1025A0000F2BFAD0064A92F8CD30013382F8CD30A5
:1025B00002F05AF8F1E700BF7C3C0020B43F002055
:1025C0002C31002038B51E2001F008FE18B1794BDF
:1025D000002283F8B520784B1B78013B032B00F2D7
:1025E000E780DFE813F004001500CF00E200714B34
:1025F00093F8863143B16F4B93F8B730012B03D07A
:102600006D4B00221A70D3E06B4B02221A70CFE0A0
:10261000684B93F8B630002B40F0A580664B1B78D2
:10262000022B00F0A780634B93F82F33012B40F06F
:10263000BF80624B1B78022B40F0BA805E4B1B7848
:10264000032B00F09B805D4B04221A70B0E0594BC5
:10265000D3F8D8305A4A13605A4A1268934259D074
:10266000594B1B78FF2B03D0584A525D93425BD0E5
:10267000554B1978554A5155FF221A700134E4B26E
:102680004C4B93F8B630A3426FD9254604F58073BE
:10269000484A52F823304B4A1360002BEED04C4A84
:1026A00012685340C3F31303002BE7D1414B93F857
:1026B000CF30012B4ED1444B1B78FF2BD0D0434A57
:1026C000125D9342CCD040F6B8311E2001F07EFD61
:1026D000394B03221A70374B93F8D730002BBFD0F9
:1026E000022BB4D0012BBBD13A4A136801331360DB
:1026F000304AC2F8DC3001F095FF374B1A78374B7F
:102700001B789A42ACD0FFF735FF334B1A78334B26
:102710001A70A5E72F4A136801331360254AC2F8DF
:10272000DC3001F07FFF9BE72B4B1A782B4B1B789B
:102730009A429DD0FFF71EFF274B1A78274B1A703D
:10274000244A1368013313601A4AC2F8DC3001F0DE
:1027500069FF8DE740F6B8311E2001F037FD164BBA
:1027600003221A708AE700248AE7194B4FF6FF729A
:102770001A6053E7104B00221A7054E70F4B0322E4
:102780001A7015E002F04AFD012811D1094B01220F
:1027900083F8B520192283F853220821022002F081
:1027A000EFFC054B04221A7002E0034B00221A7062
:1027B00038BD00BF2C310020D0280020B0280020D8
:1027C000C8280020CC28002064290020D42800201C
:1027D000C0280020B42800207C3C0020B43F00200A
:1027E000002304E0044AFF21D1540133DBB213F08B
:1027F000800FF7D0704700BFD428002008B5002212
:10280000114B1A70D921114B1970114B83F8B81064
:102810001C211048018083F8BA1083F8BB200E48B1
:102820000180062183F8BD10082183F8B1100B49FF
:102830000A700B490A70012283F8CF2083F82F23F6
:10284000FFF7CEFF08BD00BFD0280020B828002029
:102850002C3100205C290020BE2800205E290020A9
:10286000C6280020454B93F8D730454A92F8D72028
:1028700093420CD0424A82F8D7300023414A136079
:10288000414A13603D4A82F8CC3082F8CD303B4B50
:1028900093F8BA203A4B93F8BA309A4208D03B49A1
:1028A0000B8803F47F4313430B80354B83F8BA2026
:1028B000324B93F8BB30324A92F8BB20934207D098
:1028C00032490A7842EA03220A802D4A82F8BB3054
:1028D0002A4B93F8B2302A4A92F8B220934204D09D
:1028E000012B33D0264A82F8B230244B93F8B03013
:1028F000234A92F8B02093420BD0012B2AD01F4BD1
:10290000022283F8B0201D4B93F8B0201C4B83F8B3
:10291000B0201A4B93F8BD30194A92F8BD2093426B
:1029200002D0174A82F8BD30144B93F8BC30144AD9
:1029300092F8BC20934208D0032B17D0042B19D057
:10294000022B0FD00E4A82F8BC307047104A01218A
:102950001170C7E70E4B01221A70084B032283F84F
:10296000B020D0E70B4A00211170EBE70A4A0021A2
:102970001170E7E7094A00211170E3E72C310020CC
:10298000002B0020B4280020B83F00205C29002044
:10299000C5280020B9280020C62800205E29002074
:1029A00008B5FFF70FFEFFF75DFF08BD10B584B057
:1029B0000C4C4B23E36100230093019302938DF8A9
:1029C0000C3001238DF8003009238DF80230694660
:1029D000204605F055FCA36943F00103A36104B050
:1029E00010BD00BF0084014008B501210A4803F072
:1029F000FFFF0121094803F0FBFF0121084803F014
:102A0000F7FF0121074803F0F3FF012211460220DE
:102A100004F014FB08BD00BF0082040000250A007A
:102A200030053E0000120400064A074BD363136CC6
:102A300043F4803343F024031364044B4FF4003217
:102A40001A60704700C000402400010000E100E06F
:102A5000034B4FF400221A60202283F8132370479F
:102A600000E100E030B585B01C4B6D460FCB85E82A
:102A70000F001B4B029301230B220A21032005F0B8
:102A80008DF801230B221146032005F087F8154C21
:102A900003236364A36C23F01F0343F01303A364B5
:102AA000A36C23F4F85343F48853A36429462046C7
:102AB00005F016F900230C4A13700C4A13700C4AE7
:102AC000137068236361FE23A361236843F0160338
:102AD0002360FFF7A9FF05B030BD00BF3818010023
:102AE0001F100F0000C00040D02A0020D12A002073
:102AF0006829002000B587B06823ADF804300123B1
:102B0000ADF806300C4B02930C4B1B78ADF80C3033
:102B10000B4B04930A23ADF8143001A9094805F0C2
:102B200083FA02E0074805F009F90128FAD0FFF717
:102B30007BFF07B05DF804FB141000201A10002082
:102B4000F42A002000C00040014B1878704700BFF5
:102B50002D150020014B1878704700BFC42A0020B3
:102B6000014B1870704700BFC42A0020014B186841
:102B7000704700BFE02A0020014B1868704700BF73
:102B80002C370020014B1868704700BFCC2A00206A
:102B90000C4B01225A610C4B00221A7002E00133E7
:102BA000094A1370084B1B78332B09D8074A52F88F
:102BB0002320002AF3D0013A044941F82320EEE70C
:102BC000704700BF00840140D92A0020AC3B0020A0
:102BD00030B4884A536B88490B6090688749086015
:102BE000D168874A1160874C2278874D45F822309A
:102BF000864D45F82200864D45F822100132D2B2AA
:102C00002270092A02D922460024147011F4007F90
:102C10000DD0804A1360804A1060804A1160754A66
:102C2000D1697F4A11707F490A7801320A7013F026
:102C3000040F00F0B7807C490A7801320A706D4AAF
:102C40000421D163D26912F0010F00F09C80694920
:102C50000A6C42F040020A64744A0021117013F0B9
:102C6000100F03D172490A7801320A70714A128832
:102C70007149895C5F4AD16213F0400F0DD05D4805
:102C80004022C26369490A780132D2B20A706949A6
:102C900009880A4468498A5CC26213F0100F02D0A6
:102CA000544A1021D16313F0010F02D0514A01217F
:102CB000D16313F0020F02D04E4A0221D16313F008
:102CC000080F02D04B4A0821D16313F4807F03D050
:102CD000484A4FF48071D16313F4007F03D0454A12
:102CE0004FF40071D16313F4806F03D0414A4FF465
:102CF0008061D16313F4006F03D03E4A4FF400614A
:102D0000D16313F4805F03D03A4A4FF48051D1630A
:102D100013F4005F03D0374A4FF40051D16313F42A
:102D2000804F03D0334A4FF48041D16313F4004FF6
:102D300003D0304A4FF40041D16313F4003F03D075
:102D40002C4A4FF40031D16313F4802F03D0294A69
:102D50004FF48021D16313F0800F02D0254A8021E7
:102D6000D16313F4803F0CD0224B4FF48032DA63EE
:102D70001A6C22F060021A640023304A1370304A41
:102D8000137030BC70471B4A116C41F02001116474
:102D90002A4901200870D1692A4A1170284A002165
:102DA000117069E713F0200F3FF466AF114A20213C
:102DB000D163D46922490A78234884540132D2B2BB
:102DC0000A7022490A70022A0CD0022A7FF654AFF8
:102DD000501E033A174909880A441B49085C1649E2
:102DE000885449E7014600784A7842EA00221149AE
:102DF0000A8041E700C00040C02A0020C82A002005
:102E0000DC2A0020231500206C290020942A0020B1
:102E100000310020E02A00202C370020CC2A00209E
:102E2000D82A002002230020001500202C150020A5
:102E30002D150020EC2A00202C310020D02A002063
:102E400068290020DA2A0020F42A0020EE2A002037
:102E500008B50B4A136C0B490B60936413F0010F18
:102E60000DD0094B1A78094B1B789A4207D0591C90
:102E7000064A1170064AD15C014805F0F1FA08BD16
:102E800000000140E82A00203C210020091E00200B
:102E90001020002008B505F089FC084B186000B927
:102EA000FEE74FF0011108F029FE0022044B1968DB
:102EB000024B186808F0E8FC08BD00BF2815002088
:102EC000D41000200000000080B58AB007F0D8F9C7
:102ED0000121634803F08CFD0121624803F088FD65
:102EE000614B01265E641A6842F480721A605F4A80
:102EF000136843F4F84313605D4C06AD04F110030E
:102F00000FCB85E80F00284604F08CFD0027594BB5
:102F10001F70594B1E70FFF767FDFFF7A3FDFFF70A
:102F200045FDFFF795FD02F035F9FDF7B3FAFFF720
:102F3000E5F802F0E9FCFDF7B9FDFFF75FFCFDF7EE
:102F40009DF9FDF72BF9FFF77FF903F099F9FFF7EA
:102F5000A1FF238C0AAE26F8143D484D314628685F
:102F600008F0D4FC3146286808F0B8FC3AA3D3E94D
:102F70000023CDE900234FF0FF324FF0FF332868E4
:102F800008F0C8FC3A463946286808F083FA243429
:102F900094E803000390ADF81010394B1B689B6850
:102FA0005A68384B9A4202D802238DF80C3003A994
:102FB000324B186808F0DBFC00B1FEE7FC212F4B18
:102FC000186808F0BEFC01F0FFF82A4C11232370AA
:102FD00000F0B2FB00232370FEF780FA11E0FFF748
:102FE00089FD294B00221A7024E000F04BFE274A8D
:102FF000137801331370254B1B78092BF5D9FEF795
:1030000095FA07F049F902F06BFA02F039F9FDF789
:1030100039FDFEF7DFFEFEF71FFEFFF7C1FCFDF7EF
:10302000D5F9FFF7A1FA1A4B1B781BB9164B1B7881
:10303000002BD4D1174B1B7813B1164B00221A70FA
:10304000154B1B7813B1144B00221A700F4B002242
:103050001A70D0E7AFF30080488D812A110100007B
:103060004041050000250A0000000E40A4310E403A
:10307000381801002C310020404200202815002083
:10308000D4100020FFC99A3BD12A0020BE3F002067
:10309000D02A0020241500201C10002008B5012192
:1030A000044B186808F006FA00EBD0704010D830D6
:1030B00000B208BD281500202DE9F04190B0064669
:1030C00017469846254A92F8B432013382F8B43252
:1030D000002208F4807313431DD107F0400200233F
:1030E00013431DD107F008020023134324D107F432
:1030F00000020023134302D0194B01221A7007F07B
:103100000054002554EA050302D0154B01221A7021
:1031100010B0BDE8F0810022114608F0BDFCDCE7EC
:10312000FFF7BCFF0F4B18800F4BB3F90030002B9B
:10313000D8D10D4B1880D5E740226946304608F0BB
:1031400003FD684600F012F8044A92F8B3320133E6
:1031500082F8B332024B01221A70C8E72C310020EA
:103160001C100020F02A0020D22A0020F0B4194BB5
:103170001E883446184B1F887B1E9E4204DA721C40
:10318000164909888A421FD09E4201D000230DE0D3
:10319000124B1B88DBB1002308E0C55C04EB840202
:1031A00091000F4A0A44D5540133DBB20D4A12781C
:1031B0009A42F2D80136B6B2013F3FB23E40054BCB
:1031C0001E800020F0BC70474FF0FF30FAE74FF050
:1031D000FF30F7E7321500201E10002034150020C4
:1031E000943700201B1000200D4B1B880D4A1288BD
:1031F000934211D003EB83018A000B490A440B4927
:103200000A6001339BB20A4A1288013A12B2134093
:10321000034A1380002070474FF0FF30704700BF13
:10322000341500203215002094370020943B0020F4
:103230001E10002010B50B4C55232370AE23637075
:103240000023A370D923E370072323710A21601C94
:10325000FEF776FDE072022221460C20FCF7C2FF49
:1032600010BD00BF4C37002010B50E4C5523237005
:10327000AE2363700023A370D923E3700823237166
:10328000094B93F8D522627293F8D732A3720A21C0
:10329000601CFEF755FDE072022221460C20FCF76F
:1032A000A1FF10BD4C3700202C31002010B5144C6C
:1032B00055232370AE2363700023A370D923E370DA
:1032C000092323710F4B93F89B20627193F89C2084
:1032D000A27193F8D622E27193F8D522227293F864
:1032E000D822627293F8D732A3720A21601CFEF7CB
:1032F00027FDE072022221460C20FCF773FF10BD6F
:103300004C3700202C31002010B5144C552323706D
:10331000AE2363700023A370D923E3700A212171C7
:103320000F4B93F89B20627193F89C20A27193F845
:10333000D622E27193F8D522227293F8D8226272D3
:1033400093F8D732A372601CFEF7FAFCE0720222F7
:1033500021460C20FCF746FF10BD00BF4C37002073
:103360002C31002010B5134C55232370AE2363700D
:103370000023A370D923E3700B2323710E4B93F822
:103380001A23627193F81B23A27193F8D222E2717F
:10339000DA7D22729A7D627293F8B630A3720A21A6
:1033A000601CFEF7CDFCE072022221460C20FCF7E7
:1033B00019FF10BD4C3700202C31002008B54EF607
:1033C0006021142000F002FF0023044A1370044A15
:1033D0001370044A1370044A137008BD441500208A
:1033E00038150020451500202E15002010B5044684
:1033F0000C2803D1164BDB78D92B24D0FFF7DEFF46
:10340000144B1B78042B18D0134B1B88134A1288BB
:10341000934202D39B1A104A13800D4B5B781F2BEB
:103420000BD00F4B1B780F4A1278934202D2013314
:103430000B4A13700C4B00221A7002220449E0B2AE
:10344000FCF7D0FE10BD024B1B79082BD6D1D7E775
:103450004C3700208E37002042370020543B00209C
:1034600039370020563B00203037002010B50B4C78
:10347000552323701F2363701623A3700023E3706A
:1034800015222271EA226271A3710621601CFEF7E7
:1034900057FCE0710820FFF7A9FF10BD4C37002052
:1034A00010B50A4C55232370572363700023A37073
:1034B000E37023716371A3710621601CFEF740FC69
:1034C000E0710820FFF792FF10BD00BF4C370020CD
:1034D00010B50A4C55232370752363700023A37025
:1034E000E37023716371A3710621601CFEF728FC51
:1034F000E0710820FFF77AFF10BD00BF4C370020B5
:1035000008B5034B37221A700120FFF76FFF08BD83
:103510004C37002010B50C4C552323701F236370CB
:10352000B723A3700023E370084A1288110A21719F
:103530006271A3710621601CFEF702FCE071082095
:10354000FFF754FF10BD00BF4C370020423700206A
:1035500010B50C4C552323701F236370B823A37040
:103560000023E370084A12782271084A12786271C7
:10357000A3710621601CFEF7E3FBE0710820FFF752
:1035800035FF10BD4C370020393700203037002080
:1035900008B5114B1B78012B04D00F4B1B78022B65
:1035A0000DD008BD0D4A138801339BB21380182B30
:1035B000F3D9134600221A80FFF7ACFFEDE7074A64
:1035C000138801339BB21380182BEAD913460022CB
:1035D0001A80FFF7BDFFE4E731370020983B002059
:1035E00008B52E2000F0FAFD00B908BD42F6E061F2
:1035F0002E2000F0EBFD314B1B88B3F5E17F03D3A8
:103600002F4B1B78002B39D12E4B1B780E2B09D951
:103610002D4B1B78002B39D12B4B1B7813B9013361
:10362000294A1370274B1B780E2B02D80133254AE9
:103630001370264B1B78342B09D9254B1B78002B94
:1036400034D1234B1B7813B90133214A13701F4B1C
:103650001B78342B02D801331C4A1370174B1B887C
:10366000B3F5E17F02D20133144A1380144B1B7867
:10367000002BBAD10133124A1370B6E7FCF7B0FD44
:10368000FFF7D8FD0D4B00221A80BDE700230D4A3D
:1036900013700D4A1370FCF7A3FDFFF7E5FD0D4A0B
:1036A00092F8D932013382F8D932B5E70023074ABC
:1036B0001370074A1370FFF755FEC2E73615002056
:1036C0003815002020100020451500201D10002076
:1036D0002E1500202C31002010B5142000F07EFDA6
:1036E00010B9FFF77DFF10BD4EF66021142000F0E9
:1036F0006DFD0B4A13780133DBB21370042B02D833
:1037000001F05EFAEDE7FCF76BFD0024054B1C7041
:10371000FFF7F6FE024B1C70034B1C80F0E700BF66
:10372000441500202010002036150020014B187091
:10373000704700BF843B002038B5304B30221A80E0
:1037400000242F4B1C802F4B1C802F4B1C702F4BA9
:103750001C702F4B1C702F4B1C7001F041FC01F0B2
:103760005FF840F20931162000F030FD01252A4BA8
:103770001D702A4B1C702A4B1C702A4B4FF4A072F0
:103780001A80294B1C80294B4FF42F721A80284B2A
:103790001C80284B03221A80274B70221A70274B5B
:1037A00060221A70264B0C221A80264B1C70264B66
:1037B0001C70264B14221A70254B06221A70254BBA
:1037C0001C80254B1C80254B83F8D54283F8D642BC
:1037D00083F8D74283F8D8422946122000F0F6FC3D
:1037E00048F25000FEF76CFA48F20500FEF788FA3E
:1037F0009720FEF747FA1A4B1D7038BD1E100020A7
:10380000321500203415002030150020441500200A
:103810002F150020401500207D3C00207E3C00201C
:10382000203E0020463700204237002090370020FD
:10383000863B0020583B00203A37002033370020D9
:10384000543B00203937002030370020563B002001
:10385000483700203C150020421500202C31002064
:103860008C37002030B482B0214A13780133DBB2A8
:103870001370042B02D9134600221A701C4B1B78BC
:103880001C4A11781C4AD154002307E01A4AD15C23
:1038900002AA1A4402F8081C0133DBB2042BF5D942
:1038A000002419E00133DBB2032B13D85A1C02A900
:1038B000114411F8080C02A9194411F8081C884297
:1038C000F0D202AD1D4405F8080C02A8024402F82B
:1038D000081CE7E70134E4B2032C01D80023E3E736
:1038E0009DF80220054B1A7002B030BC704700BF33
:1038F0003915002032370020343700208D37002062
:1039000030B482B0254A13780133DBB21370042B34
:1039100002D9134600221A70204B1B78204A1178D6
:10392000204AD154002307E01E4AD15C02AA1A445F
:1039300002F8081C0133DBB2042BF5D9002419E08E
:103940000133DBB2032B13D85A1C02A9114411F81E
:10395000080C02A9194411F8081C8842F0D202ADE3
:103960001D4405F8080C02A8024402F8081CE7E709
:103970000134E4B2032C01D80023E3E79DF80230C0
:10398000094A1278934206D99B1ADBB2074A137090
:1039900002B030BC70470023F8E700BF3A150020A2
:1039A000443700203C370020843B00209237002021
:1039B00010B58D4B1B78013B032B1ED8DFE813F0AD
:1039C00004001E00BE0008010621122000F0FEFBCC
:1039D0004EF66021132000F0F9FB0023834A137098
:1039E000834A1370834A1380834A1380834A137077
:1039F000834A13707C4B02221A7010BD122000F013
:103A0000EDFB0028F9D00621122000F0DFFBFFF7C4
:103A100045FB7C4B18707C4A92F82E30013382F8BB
:103A20002E30FFF76DFF794B1A78794B1A70794B6E
:103A300019788A4261D87048038801339BB20380A9
:103A400075480024048075480088834208D26B4B77
:103A50001A78734B1B789A4224D2FFF799FDCCE772
:103A60006948012380F89A3080F89B1080F89C20E8
:103A70006C4A138801339BB2138080F8D5321B0A3D
:103A800080F8D632FFF712FCFFF70AFD062112205C
:103A900000F09CFB564A1470564A1480524B032285
:103AA0001A70D4E7584A022382F89A30594B1B788F
:103AB00082F89B30554B1B7882F89C305A490B8812
:103AC00001339BB20B8082F8D7321B0A82F8D832BE
:103AD000FFF71AFCFFF7E4FC0621122000F076FB4A
:103AE0000023434A1370434A1380444A1370444AE4
:103AF00013703D4B03221A70AFE7474A1388013316
:103B00009BB21380494A1288934208D3424B002249
:103B10001A80394B1B8813B1013B374A1380384A4E
:103B200013780133DBB21370414A1278934294D375
:103B30000023334A1370314A13708EE7122000F0CD
:103B40004DFB00283FF459AF0621122000F03EFB48
:103B5000FFF7A4FA2B4B1870FFF7D2FE354B1B78FA
:103B60002B4A13702B4A1278934229D9204B1B7889
:103B7000632B02D801331E4A13701D4B1B78632B35
:103B800005D91C4B1A882C4B1B889A420BD2194B17
:103B90001B88294A1288934202D80133154A1380A0
:103BA000FFF7F6FC29E7FFF793FC0023124A138086
:103BB000124A1370124A13700B4B01221A70E6E777
:103BC0000C4B1B88002BEBD0013B0A4A1380E7E724
:103BD000122000F003FB00283FF40FAFFFF778FC42
:103BE000014B01221A7008E7301500202F15002024
:103BF000401500209C3B0020423700203937002030
:103C000030370020443700202C3100203A37002084
:103C1000923B002092370020863B00204637002050
:103C2000563B00203C15002042150020583B002048
:103C300048370020333700209037002008B5012195
:103C40000D4B186807F036FC0C4B18800C4B1B789A
:103C5000022B09D0032B01D0012B04D100EBD07033
:103C60004010D83000B208BD0346002802DB43F301
:103C70008F00F8E7C31CFAE7281500203E15002046
:103C8000203E002010B54E4B1B78013B042B0CD876
:103C9000DFE803F0030C171E2400494B02221A70C0
:103CA0004FF4E171122000F091FA10BD122000F0E3
:103CB00095FA0028F9D0FFF7D9FB414B03221A707F
:103CC000F3E7404B01221A703D4B04221A70ECE7D7
:103CD000FFF76EFE3A4B05221A70E6E7FFF784FA0B
:103CE00068B9394A92F8B232013382F8B23201F03F
:103CF0005FF8FFF7F1FC324B04221A70D5E701F0B0
:103D000041F910B901F054F8F3E7162000F066FA13
:103D10000028EED040F20931162000F057FA2B4B64
:103D20001A78531EDBB2022BE3D8294B55211970A8
:103D3000012A20D0264BAE225A70254B00229A70C1
:103D4000DA701A7101225A71224B1B780A2B03D8A0
:103D5000214B1A781F4B1A701E4B1A781E4B1A7083
:103D6000FFF780FD1D4B1B781D4A1278934205D941
:103D70009B1ADBB203E047225A70DEE70023144AA5
:103D80009371FFF75BFF174BB3F900301A46002B16
:103D900014DB92100C4981F8E52003EBD3735B1020
:103DA000283B81F8E6300A4CA0710621601CFDF723
:103DB000C7FFE0710820FFF719FB9AE7DA1CE8E774
:103DC0008C370020301500202C310020203E0020B0
:103DD0004C370020323700203B1500208D37002063
:103DE000843B00203E150020474B19684A6C474B26
:103DF000A3FB0203D01A03EB50039B08C3EBC303DE
:103E0000D31A243331F81300024421F8132000237D
:103E1000072B78D810B434E0591D484201F007014F
:103E200000F0070058BF4142243132F81140191DFB
:103E3000484201F0070100F0070058BF4142243119
:103E400032F8111041EA044142F823102E4A116859
:103E500003F1240231F812405A1C504202F00702CA
:103E600000F0070058BF4242243231F8122042EAE3
:103E7000044203F1080041F820200133DBB2072B94
:103E80003ED8214A1068002140F82310126803F13F
:103E9000080042F8201013F0010FBDD1591C484210
:103EA00001F0070100F0070058BF4142243132F809
:103EB000110003F1240132F8111041EA004142F8E7
:103EC0002310114A11681A1D504202F0070200F037
:103ED000070058BF4242243231F812405A1D504266
:103EE00002F0070200F0070058BF4242243231F8C6
:103EF000122042EA044203F1080041F82020BCE706
:103F00005DF8044B70477047A03B00202549922480
:103F1000C1F12001C84170470B4B1A6852F820309C
:103F2000083052F8200003449AB2180C02FB02F148
:103F300000FB02F202EB514200FB00F000EBD2303A
:103F400003FB03F358407047A03B00202DE9F047E6
:103F500088B000230CE0614A126803F1080152F8AE
:103F6000211008AA02EB830242F8201C0133DBB2C5
:103F7000072BF0D9594B1D682B6A286C0344584A0B
:103F800013442B62686A00998B422CBF0346431C82
:103F9000544C23446B62A86A01998B422CBF0346A0
:103FA000431C51490B44AB62E86A029EB3422CBFEA
:103FB0000346431C1344EB62286B039EB3422CBFA1
:103FC0000346431C23442B63686B049EB3422CBFFF
:103FD0000346431C0B446B63A96B059883422CBFBB
:103FE0000B464B1C1344AB63EA6B06998B422CBF08
:103FF0001346531C2344EB63079A93422CBF0023C0
:1040000001232B64002409E02046FFF785FF08AB5D
:1040100003EB840343F8200C0134E4B2072CF3D9FA
:10402000DDF80090079E10213046FFF771FF09EB85
:104030000004DDF8188010214046FFF769FF204496
:104040002860019D08214846FFF762FF2844234B62
:104050001C6830446060DDF808A010212846FFF796
:1040600057FF0AEB000710214846FFF751FF38447D
:10407000A060039F08215046FFF74AFF38440544DB
:10408000E560DDF8109010213846FFF741FF09EB9D
:10409000000510215046FFF73BFF28442061059D95
:1040A00008214846FFF734FF284407446761102180
:1040B0002846FFF72DFF08EB000710214846FFF7C1
:1040C00027FF3844A06108214046FFF721FF304414
:1040D0000544E56108B0BDE8F08700BFA03B0020C3
:1040E0004DD3344DD3344DD3344DD3340022072A2D
:1040F00019D830B40C4B196802F1080551F82500A5
:10410000131D5C4203F0070304F0070458BF634229
:1041100051F82330584041F825000132D2B2072A25
:10412000E8D930BC70477047A03B0020194B1B6892
:1041300093F8441001F00301032909D8DFE801F0E6
:1041400002141B221A68D98AD86841EA00414A4001
:1041500083F85820110A83F85910110C83F85A106B
:10416000120E83F85B2070479A68D98B586941EA30
:1041700000414A40ECE71A69D988D86941EA004110
:104180004A40E5E79A69D989586841EA00414A40BE
:10419000DEE700BFA03B002010B50A4B1B680024DF
:1041A0001C64FFF721FE03E0FFF7D0FE0134E4B208
:1041B000032CF9D9FFF79AFFFFF7C8FEFFF7B6FF08
:1041C00010BD00BFA03B002070470000024B43F829
:1041D00020100020704700BFAC3B0020034B53F879
:1041E00020300BB10020704701207047AC3B00200D
:1041F00008B5164B55221A70B4225A70F0229A70E4
:104200000022DA7003221A715871114A1268526C36
:10421000C2F304419971110AD9711A720D4A1268D8
:104220005169C1F304405872080A9872D972517AE0
:104230001973D18901F00F015973D168090A997373
:10424000D268DA731020FFF7D1F808BD4C37002090
:10425000A03B0020803C0020054B1A6813781B040B
:1042600003F47023507843EA002390781843704792
:10427000943B002010B4154B1A6813781B0403F408
:104280007023517843EA012394781C43104B114A60
:104290001A6000234FF0FF3004E038320C490A6006
:1042A0000133DBB2032B0DD8094A1268517A012978
:1042B000F3D1D168A142F0D1B1F1FF3FEDD058B2B6
:1042C0000423EAE75DF8044B704700BF943B0020ED
:1042D000803C0020403D002010B4124B1A68137837
:1042E0001B0403F47023517803EB012394781C44DE
:1042F0000D4B0E4A1A6000234FF0FF3004E03832B5
:1043000009490A600133DBB2032B08D8064A126858
:10431000517A0029F3D158B2D4600423EFE75DF855
:10432000044B7047943B0020803C0020403D00201F
:1043300008B5144B186802781209C3780E2A02D007
:10434000114B187808BD03F0060103F001030229A0
:10435000F6D1002BF4D1037903F02203222BEFD105
:104360000821FDF703FDC0F30F21064B1B681A7AE5
:104370009142E5D1C0B25B7A9842E1D1024B06226C
:104380001A70DDE7943B00208E37002010B50B4CEF
:1043900004212068FDF7EAFCC0F30F2123681A7995
:1043A000914202D0064B187810BDC0B25B7998429A
:1043B000F8D1034B03221A70F4E700BF943B0020AE
:1043C0008E37002010B50B4C04212068FDF7E8FC67
:1043D000C0F30F2123681A79914202D0064B187856
:1043E00010BDC0B25B799842F8D1034B02221A701B
:1043F000F4E700BF943B00208E37002008B55C2313
:104400000D4A03FB00200D4B18600B23436400236F
:1044100008E00B4A32F8131003F1240220F81210BE
:104420000133DBB2072BF4D9FFF7B6FE034B1B6851
:104430000B225A6408BD00BF3C3E0020A03B002078
:10444000641801000F4BDB7803F00F03012B00D041
:1044500070470C4B1B79232BFAD10A4B5B79493BF4
:10446000DBB2012BF4D8074B9B78802B05D0002BB7
:10447000EED1054B00221A70EAE7034B01221A70B5
:10448000704700BF4C3700204615002010B5294B5F
:1044900055221A70284B1B78022B3AD0082B3CD09F
:1044A000244BAE225A70254B1968CC78214A94705F
:1044B0000B78D3704878107189785171204A92F83E
:1044C000AB20012A2DD01F4A12788AB91B0403F4AD
:1044D000702343EA00230B431B4A13601B4A1360FB
:1044E000174B93F8CF30012B21D0164B01221A70B5
:1044F000104C174B1A88A27100221A800621601CEA
:10450000FDF71EFCE0710820FEF770FFFFF79AFF31
:1045100010BD084BAF225A70C5E7064B43225A70B4
:10452000C1E70C4A137050709170D470CBE70A4BFE
:104530001C70DAE74C3700208E370020943B0020B7
:104540002C310020D0280020C02800205429002031
:10455000D22A0020383E00206429002010B5294BC3
:1045600055221A70AE225A70274A1468E2789A705F
:104570002278DA7062781A71A2785A71042305E001
:104580009A1CE05C1F4988540133DBB2082BF7D931
:104590001E4B1B78A3B91B4A9179D3791B0443EABC
:1045A0000163117A43EA0123527A1343184A1360D4
:1045B000184B93F8CF30012B11D0144B01221A70F5
:1045C000104C154B1A88E27200221A800B21601CD5
:1045D000FDF7B6FB20730D20FEF708FF10BD094B59
:1045E0009B7803F0F8030D4A13700A4B93F8D73009
:1045F000012BE2D1034B1B7903F00F03084A137020
:10460000DBE700BF4C370020943B0020D02800207F
:10461000C02800202C310020D22A0020642900204C
:104620007C3C002010B50D4C55232370AE236370E5
:104630000B4B1B68DA78A270D622E2705A7822718E
:104640009B786371074B1B88A3720A21601CFDF7DE
:1046500077FBE0720C20FEF7C9FE10BD4C3700203E
:10466000943B0020D22A002010B5134B55221A701B
:10467000AE225A70114A1268D1789970D521D9703A
:104680005178197191785971042305E0991CD45C13
:10469000094844540133DBB2072BF7D9064C084BC9
:1046A0001B88A3720A21601CFDF74AFBE0720C20F4
:1046B000FEF79CFE10BD00BF4C370020943B00204D
:1046C000D22A002010B51C4B55221A70AE225A7007
:1046D0001A4A1268D17899701178D9705178197185
:1046E00091785971042305E0991CD45C1248445414
:1046F0000133DBB2072BF7D9114B1B787BB90E4A7C
:104700009179D3791B0443EA0163117A43EA0123C7
:10471000527A13430B4A1360094B01221A70064C5C
:10472000094B1B88A3720A21601CFDF709FBE0728C
:104730000C20FEF75BFE10BD4C370020943B0020A0
:10474000D0280020C0280020D22A002038B5174BDE
:1047500055221A70AE225A70154A1268D178997093
:104760001178D97054781C719078587115799D71B1
:104770005279DA710F4B1B7853B9090401F4702197
:1047800041EA042101430C4B19600A4B01221A70C3
:10479000064C0A4B1B8823720821601CFDF7D0FAD7
:1047A00060720A20FEF722FE38BD00BF4C370020A1
:1047B000943B0020D0280020C0280020D22A0020CE
:1047C00010B5134B55221A70C4225A70114A14683E
:1047D000E2789A702278DA7062781A71A2785A7147
:1047E000042305E09A1CE05C094988540133DBB2DC
:1047F000092BF7D9064C084B1B8823730C21601C2E
:10480000FDF79EFA60730E20FEF7F0FD10BD00BFAD
:104810004C370020943B0020D22A00200020704713
:10482000002301E00133DBB2032BFBD9704700000A
:10483000F8B50E46C508FFF71DFD0446B0F1FF3F71
:1048400016D0012D33D0C4EBC403DA005B4B1A44FD
:104850005B4B1A605C215B4B01FB04345A4B1C60C0
:1048600004F14803002D38D105EB450400232FE067
:10487000FFF732FD0446B0F1FF3FE2D14F4A137C0F
:104880000133DBB21374032B02D9134600221A74CE
:104890004A4B93F91040C4EBC402D7001F44484B65
:1048A0001F6001237B72FFF7D7FCF860C9E75C2328
:1048B000444A03FB0423444A136000221A64E0B212
:1048C000FFF79CFDBFE7E118F05C50540133DBB209
:1048D000022BF8D9082D4AD0F8BD022D10D805EBCF
:1048E00045070023022BF5D8F15C374800685C1CB3
:1048F000204490F858003B444140D154E3B2F1E7E2
:10490000082DE7D8EA1E02EB4202991815F0010FB4
:1049100011D0707894F859406040985433782A4AFE
:10492000126892F8580043404B70B37892F85A20BE
:104930005340CB70CEE7082D12D0337894F858202E
:10494000534001F8013C73781F4A126892F85900ED
:1049500043408B70B37892F85A2053404B70B9E7BC
:10496000337894F85B20534001F8013CB2E7144BD4
:104970001868012343720B238361134A146863642C
:10498000124A1360002304E0C15C114AD154013380
:10499000DBB2082BF8D900230DE003F1240234F830
:1049A000121003F10C0200EB42029180094A22F836
:1049B00013100133DBB2072BEFD98DE7403D002008
:1049C000803C00203C3E0020A03B0020A43B002077
:1049D000343D0020243E002010B5194B55221A709A
:1049E000C4225A70174A1468E2789A702278DA70F2
:1049F00062781A71A2785A7122799A71FFF70EFFC4
:104A0000012800D010BD611DE078FFF711FF0D4BAC
:104A10001B685A790A4CE2719A792272DB796372C7
:104A20000023A372E372084B1B8823730C21601CC4
:104A3000FDF786F960730E20FEF7D8FCE2E700BFB1
:104A40004C370020943B0020D22A002070B582B061
:104A50000646C0EBC003D900334B1944334B1960F1
:104A60005C22334B02FB0033324A1360324A156832
:104A7000A87993F85840314A60401072E87993F869
:104A8000594060405072287A93F85A4060409072C2
:104A9000687A93F85B304340D372FF231370FE2390
:104AA0005370002305E09A1CEC5C244884540133C5
:104AB000DBB2052BF7D9214C01AB09222046FDF7CB
:104AC00047FB9DF80420637A9A4204D19DF80520A3
:104AD000A37A9A4207D03046FFF78AFB3046FFF7A9
:104AE00087FB02B070BD9DF80620E37A9A42F2D1AE
:104AF00055232370AE236370237AA3700E4B1B687B
:104B00001A7862F00F02E2705A7822719B78637112
:104B10000B4B1B88A3710621601CFDF711F9E07196
:104B20000820FEF763FCDCE7403D0020803C0020CD
:104B30003C3E0020A03B0020943B00204C3700204E
:104B4000D22A0020C0EBC000C30008481844084B1C
:104B50001860002307E0074A1268D15CC21882F887
:104B60002C100133DBB2092BF5D97047403D0020F2
:104B7000803C0020943B002010B4C0EBC000C40077
:104B80000C4B1C440C4B1C600023184601E0013305
:104B9000DBB2092B0AD8E21892F82C10074A1268E7
:104BA000D25C9142F3D00A230120F0E75DF8044B78
:104BB000704700BF403D0020803C0020943B002017
:104BC000044B1B88B3F5B46F02D3024B00221A804A
:104BD000704700BF303D002008B51520FFF7FEFAF2
:104BE00000B908BD4EF660211520FFF7EFFA0A4B19
:104BF0001B88B3F5346F0BD20133074A1380074B80
:104C00001B88B3F5707FECD20133044A1380E8E7C8
:104C1000FFF7D6FFF3E700BF303D0020843C0020C3
:104C2000F0B4194B1E883446184B1F887B1E9E42D9
:104C300004DA721C164909888A421FD09E4201D0AC
:104C400000230DE0124B1B88DBB1002308E0C55C9C
:104C500004EB840291000F4A0A44D5540133DBB2BD
:104C60000D4A12789A42F2D80136B6B2013F3FB2ED
:104C70003E40054B1E800020F0BC70474FF0FF30D7
:104C8000FAE74FF0FF30F7E73E3D0020363E0020C8
:104C9000B63F0020883C00201B10002038B5C0EB38
:104CA000C002D300294A1344294A13605C23294ACD
:104CB00003FB0023284A136045B22846FFF75CFF38
:104CC00000283AD1002305E0FFF766FA01E0FFF77C
:104CD0002DFA23465C1CE4B22F2B29D81E4B1968F1
:104CE0004B6C1B4A12685069834221D203F57A73D8
:104CF00098421DD2537A012B1AD1936901339361E3
:104D00004A6C01324A6415490B6801330B60144B3D
:104D1000A3FB0213DB0803EB430399008A42D3D0C1
:104D200012F0030FD3D1FFF711F9FFF7FFF9D0E726
:104D30002F2C06D82846FFF789FE2846FFF702FFEA
:104D400038BD084B1868FFF76BFFF6E7403D0020C1
:104D5000803C00203C3E0020A03B0020A43B0020E3
:104D6000ABAAAAAA943B002010B50E4B1A68D378C0
:104D70005B0303F4F813117943EA0123527942EA01
:104D80000304FFF777FA00280ADBC0EBC002D30068
:104D9000054A1344054A13605C61C0B2FFF77EFF09
:104DA00010BD00BF943B0020403D0020803C00200F
:104DB00010B5FBF799FA684B04221A70674B002272
:104DC0001A70674B186802781409C37813F001034E
:104DD00001D1072C17D00BB90D2C45D00BB90E2CD7
:104DE0006ED0FFF7D3FA032840F092800F2C00F02A
:104DF0008880FFF74BFBFFF7EFFE574B1B78042B28
:104E000000F08E8010BD037A427A110941EA031145
:104E100081721201C27223F00F0303720921FCF7A1
:104E2000A5FF4F4B1B685A7912F00F0F03D19A79E7
:104E30000AB9DA7922B1C0F30F22997A8A4209D0ED
:104E4000FFF7A4FA0328D6D1434B08221A70FFF7C4
:104E50001DFBD0E7C0B2DB7A9842F1D13E4B052270
:104E60001A70FFF77BFBC6E702F00F020A2A13D085
:104E70000821FCF77BFFC0F30F21394B1B681A7A1E
:104E80009142B8D1C0B25B7A9842B4D1324B05227C
:104E90001A70FFF717FCAEE70621FCF767FFC0F3B7
:104EA0000F212F4B1B689A799142A4D1C0B2DB79B4
:104EB0009842A0D1284B07221A70FFF747FC9AE7C7
:104EC000264B01221A70FFF733FA06280CD0254B27
:104ED0001B78012B0FD0224B1B68DB7813F0040FDB
:104EE0000CD0FFF76DFC86E71F4B1B78012BEED132
:104EF000FFF772FD7FE7FFF763FC7CE7FFF734FF06
:104F000079E7FFF7B7F9B0F1FF3F7FF474AF70E7CF
:104F1000FFF758FA02287FF46EAFFFF7B7FA6AE797
:104F20000E4B1B7853B9114B1B88114A12889342C0
:104F300004D8104A128813440C4A13800E4B1B7875
:104F40000E4A1278934202D201330B4A13700C4B73
:104F500000221A7056E700BF8E370020AC3F0020B9
:104F6000943B00207E3C00207D3C00204237002006
:104F700046370020543B002039370020563B0020A4
:104F8000303700200D4B1B880D4A1288934211D0F8
:104F900003EB83018A000B490A440B490A60013381
:104FA0009BB20A4A1288013A12B21340034A138094
:104FB000002070474FF0FF30704700BFB63F002021
:104FC0003E3D0020883C0020943B0020363E0020DF
:104FD000032801D8014B1870704700BF203E002005
:104FE00008B50F4B0F4A1A60002307E00C490A6806
:104FF0000020507238320A600133DBB2032BF5D93E
:10500000094B06221A800020084B1880084B188094
:10501000084B1880084B1880FFF7F0F908BD00BF57
:10502000803C0020403D0020363E00203E3D0020D8
:10503000B63F0020303D0020843C00201D4A1388EC
:1050400001339BB21380072B02D9134600221A802A
:10505000194B00221A80184B1A88072A28D810B436
:1050600006E00132144B1A80134B1A88072A1CD809
:10507000104B1B88DB009BB210490B80981800F581
:10508000D07044000E4911F8100001340C5D40EA64
:1050900004200C4C2080085C03F570731344C95C39
:1050A0008842DED00649C854DBE75DF8044B704700
:1050B000704700BFC63F0020BE3F0020C43F002015
:1050C0002C310020C23F002008B5234B1B78023B47
:1050D000032B08D8DFE803F00208293BFFF7AEFFF7
:1050E0001D4B03221A7008BD1C4B93F886314BB937
:1050F0001B4B1A781B4B1B781A4203D1164B01220B
:105100001A70F0E7154B93F85432174A137003EBFB
:10511000830359000220FFF759F8144B4FF48042E3
:105120001A600D4B04221A70DDE70220FFF756F8D3
:105130000028D8D0094B93F852320B2BD3D00C4B0C
:105140004FF480421A60044B05221A70CBE7024BE1
:1051500001221A70C7E700BFC03F00202C31002099
:10516000B8280020BC3F0020211000203CA00046B1
:105170003CA00044014B1870704700BFC13F0020A5
:10518000024B1870024B1970704700BFC03F0020DF
:10519000BC3F002010B50120FFF7ECFFFF210120EC
:1051A000FFF7EEFF00230BE003F5D0704200184933
:1051B000042401F8104001320020885401339BB2CE
:1051C0003F2BF1D9124A0023137153710DE0114A9C
:1051D00052F8232003F5D07461000D4800F8142024
:1051E000120A0131425401339BB21A2BEFD900232A
:1051F00004220E21012002F0D1FC1E22064B1A705F
:10520000034B83F85422002283F8522210BD00BFC2
:105210002C3100207418010021100020014B187857
:10522000704700BFC03F0020124B93F8C832124AAB
:1052300092F8C82293421CD0012B06D00D4B93F854
:10524000C8220D4B83F8C822704710B5094C1A23A9
:1052500084F85332094B19780220FFF791FF00239D
:1052600084F8C832034B93F8C822034B83F8C82252
:1052700010BD70472C310020002B0020B8280020E2
:1052800010B5002404E0154B02221A700134E4B278
:10529000052C21D8114B1B78013B032BF6D801A21A
:1052A00052F823F087520000B5520000C1520000AE
:1052B000CD520000FFF708FF084B03221A70E5E704
:1052C000FFF7BCFE054B04221A70DFE7FFF7ACFFC7
:1052D000024B01221A70D9E710BD00BFC13F002068
:1052E000F0B4274B1A782749885C431CDBB28B54F7
:1052F00002EB8201014424480468244840F821401C
:10530000042B02D91F4B0021995400242646234622
:1053100001E00133DBB2032B11D81C4D02EB8201FB
:10532000C81855F820005F1C394455F821108842F0
:1053300000D9FEB28842ECD25C1CE4B2E9E700205E
:105340000546034601E00133DBB2032B0DD8B3421F
:10535000F9D0A342F7D002EB820119440B4F57F862
:1053600021100D440130C0B2EDE730B1B5FBF0F0D3
:10537000074B43F82200F0BC70470020F8E700BF5D
:105380004C150020003D00203C42002078410020C8
:1053900050400020F8B50121204801F029FB0021F0
:1053A0001F4801F0E5F91F4EF070002001F07EFA71
:1053B000B0701D4B00241C7402279F700325DD7004
:1053C0005D703570234601220421204602F0E6FB81
:1053D000234601220E21284602F0E0FB234601224B
:1053E0002946052002F0DAFB234601220B21104654
:1053F00002F0D4FB234601223946204602F0CEFBC0
:10540000234601220521084602F0C8FB234601225B
:105410000F21284602F0C2FBF8BD00BF0092040035
:105420000024F400441000204C10002003680A6897
:1054300002600B607047F8B505460F46002613E082
:105440000134BB1B013BA3420DDD05EB840055F885
:105450002420631C05EB830155F823309A42EFD9D1
:10546000FFF7E4FFECE701367B1EB34201DD0024C9
:10547000E7E7F8BD024B5A78024B53F82200704719
:10548000C810002050400020024B9A79024B53F87C
:1054900022007047C810002050400020002306E082
:1054A000044A52F82310044A42F823100133082B0F
:1054B000F6DD704754410020DC3F002010B5FFF7B7
:1054C000EDFF034C09212046FFF7B5FF206910BD11
:1054D000DC3F0020014B1868704700BF48150020D2
:1054E000F8B5BD4B1B78013B0F2B16D8DFE813F046
:1054F0001000160015004E005A00150015007D0022
:10550000B000B700C10063001F019C01C601ED019E
:10551000FFF740FFB04B02221A70F8BD6421112042
:10552000FEF754FEAD4D284601F0A2F8AC4C2046E3
:1055300001F08CF953220021284601F0A2F8A94E6F
:10554000307066220121284601F09BF8F0706C2231
:105550000221284601F095F870709B22032128460D
:1055600001F08FF8B070E36943F4A043E3610123D5
:10557000C4F890309C49204601F01CF92946204689
:1055800001F0A1F8944B04221A70C6E71120FEF72F
:1055900025FE0028C1D0924B04229A608E4B0C222B
:1055A0001A70BAE71120FEF719FE0028B5D08A4B11
:1055B0000C221A70B1E78A4BDB6813F4003FACD0C1
:1055C000002408E08949864801F0CCF8884B43F86C
:1055D00024000134E4B2032CF4D964211120FEF735
:1055E000F5FD7D4B08221A7097E71120FEF7F6FDB6
:1055F000002892D0794D284601F03AF8784C2046A0
:1056000001F024F955220021284601F03AF8754EA0
:1056100070716A220121284601F033F83071872227
:105620000221284601F02DF8B071E36943F480436C
:10563000E3610123C4F890306B49204601F0BAF8C9
:105640002946204601F03FF8634B09221A7064E7AF
:10565000634B04229A60604B0B221A705DE71120A5
:10566000FEF7BCFD00283FF458AF5B4B0B221A70CD
:1056700053E75B4BDB6813F4003F3FF44EAF00246D
:1056800009E0251D5949564801F06CF8584B43F87C
:1056900025000134E4B2022CF3D94F4B0D221A70CD
:1056A0003BE7534951F82450524B1B5D03F5987367
:1056B0005A00514800F8135051F82410090A531C9D
:1056C000C1540134E4B2062C33D8042CE9D0484B41
:1056D00053F8242040F6E44303FB02F31B0C454E31
:1056E000315D464A52F8212002FB03F3444D45F850
:1056F0002430444B197055F82420434B1A60FFF7AF
:10570000EFFD45F8240055F82420404FA7FB023256
:105710009209315D38314800374E06F8112055F8AE
:105720002430A7FB03239B0B421CB354B9E700248E
:10573000C9E7FFF79FFE0446FFF7A6FE0546201ABD
:105740000BF020FB324B1B78324A82FB0012C01751
:10575000C0EBE200304A42F82300072B38D801336F
:105760002B4A1370FFF7AAFE2C4B1860214B1A79B5
:10577000244B1A70244B1860FFF7B2FD78284FD9DC
:105780007838264B1860254B1A681A4E3179383113
:105790004800194B03F81120120A411C5A542C449A
:1057A0001A4AA2FB0424E009F2793832510003F8C6
:1057B0001200E40B4A1C9C5493F8722083F82620B4
:1057C00093F8732083F82720034B0E221A70A4E667
:1057D0000F4B00221A70C5E7404200204C100020F9
:1057E00000200040444000204410002028400020B9
:1057F00004400020C81000202C310020641000203C
:10580000184200204C1500203C420020D34D62106D
:105810004715002067666666544100204815002041
:105820002C4B00221A60AEE72B4B1B78022B06D8BC
:105830000133294A1370294B0F221A706DE6284A4A
:1058400092F8703092F8712043EA0223254A1380BF
:10585000254A1268934206D200231F4A1370204A39
:1058600082F88631E7E7C8329342E4D91A4B002226
:105870001A701B4B012283F88621DCE7184991F846
:105880002C2091F82D3042EA0322184B1A80184B35
:105890005B793833580011F813300130095C43EA62
:1058A000012314490B809A420BD8134B00221A7023
:1058B000114B1A780A4B83F82E23084B02221A70D8
:1058C0002BE60D4B01221A70F2E7044B02221A70EC
:1058D00023E600BF481500207A4000204042002007
:1058E0002C3100203440002084100020C4100020FF
:1058F000C81000207840002022100020014B1870B2
:10590000704700BF3840002070B500222FE05300E0
:10591000DBB2594951F8221003F160045748015590
:10592000C1F3072103F161040155554951F82210D3
:1059300003F140040155C1F3072103F1410401556E
:10594000504951F8221003F130040155C1F30721E9
:1059500003F1310401554C4951F8221003F1500470
:105960000155C1F307215133C1540132D2B2072A84
:10597000CDD90523454A1360404C84F820330025D7
:1059800084F82153424B4FF47A721A60E82384F86A
:105990002233032384F8233384F8245384F82553D3
:1059A00001263C4B1E6084F8266384F8275384F854
:1059B000285384F829530223374A136084F82A3382
:1059C00084F82B53354B1E7084F82C63EF2384F836
:1059D000103384F8115384F8125384F8135384F865
:1059E0002D632F4B1D802F4B1D8084F8205084F891
:1059F00021502D4B1E8084F8246084F825502B4BB9
:105A00001D702B4B1D802B4B1D802B4B40F2D66203
:105A10001A802A4B4EF660221A60602384F82230E6
:105A2000EA2384F8233040F6B8310F20FEF7CEFB8E
:105A30002823234A1380234A1570234A138084F8AD
:105A4000283084F829503C23204A136084F82A30F7
:105A500084F82B501E4B1B7884F82E331D4B40F6D8
:105A600098021A80982384F82C30082384F82D306B
:105A70003046FFF743FF70BD641000202C3100203A
:105A8000A410002084100020241000203C4000209E
:105A90003442002084400020D43F00202E400020CB
:105AA000364000203A4000204C4000202540002095
:105AB000C83F00202240002020400020CC3F002092
:105AC000004000202440002088400020D83F0020D3
:105AD00022100020C41000200020704770470000F2
