:1000000000100020394C0000354C0000354C000039
:1000100011900000354C0000354C0000354C0000BC
:10002000354C0000354C0000354C0000354C0000CC
:10003000354C0000354C0000354C0000354C0000BC
:10004000C5540000D9D80000354C0000354C0000E4
:1000500029D0000045D90000E5D80000FDD80000F7
:10006000DDD80000355100000D520000354C000075
:10007000C14B0000D51F0000354C0000354C00007E
:10008000354C00006D1D000035520000354C00005D
:10009000354C0000354C0000354C0000354C00005C
:1000A000354C0000354C0000354C0000354C00004C
:1000B00049D90000E1D8000055EF0000354C0000A0
:1000C00089D90000354C000059C40000354C0000AF
:1000D000354C0000354C0000354C0000354C00001C
:1000E000354C0000354C000010B5054C237833B971
:1000F000044B13B10448AFF300800123237010BDFB
:10010000CC14002000000000F02C010008B5034BC7
:100110001BB103490348AFF3008008BD0000000095
:10012000D0140020F02C0100154B002B08BF134BFE
:100130009D46A3F5803A00218B460F461348144A8A
:10014000121A0FF039FF0F4B002B00D098470E4BBF
:10015000002B00D098470020002104000D000D481E
:10016000002802D00C48AFF300800FF0B9FE200049
:10017000290001F069FF0FF09FFE00BF000008009A
:10018000001000200000000000000000CC1400203F
:1001900014410020000000000000000008B50B4BD7
:1001A000DA6C42F00102DA64094A4FF4005111603E
:1001B00001225A64196C074B1960074B1A70074BE0
:1001C0001A701421112003F0A9F808BD00000140A5
:1001D00000E100E0D41D0020F120002010210020CB
:1001E00070470000F8B5204B1B78204A1678B342C0
:1001F00007D000271E4AD36C23F00103D3640023E9
:100200000AE00127F6E7184C2278551C2570CD5CD2
:10021000184CA5540133DBB28342F4D3144AD36C97
:1002200043F00103D364144A92F8B132013382F8E7
:10023000B13207B9F8BD0C4B1B789E42FAD00C4C7A
:10024000E36C23F00103E364721C084B1A70094B42
:10025000995D204607F02AF8E36C43F00103E3645C
:1002600001236364E6E700BF0C210020D91D0020B4
:1002700000000140E01F00209430002008B500235A
:1002800004220C21032006F033FC08BD08B5134BF3
:100290001B78022B10D0032B17D0012B00D008BDE8
:1002A000FA210B2003F03AF80D4B4FF480521A60FC
:1002B0000A4B02221A70F2E70B2003F037F80028ED
:1002C000EDD0064B03221A70E9E7064B4FF480523B
:1002D0001A60024B00221A70E1E700BF942100204F
:1002E0009CA000469CA000441D4B93F8AB30012B12
:1002F00000D070471A4B93F8A730012BF9D1194B56
:100300001B689978164A92F8AA209142F1D159783F
:10031000134A92F8A9209142EBD11A78104991F82A
:10032000A81002F00F029142E3D1DB780E4A127856
:10033000934210D00D4A012111700B4A13700849E5
:100340000A4652F8AC3F013309480360094802608D
:10035000C1F8AC30CDE7064A1268002AEAD0C8E7F7
:1003600094300020FC3A00208121002094210020BC
:10037000882100209021002008B5114B93F88400BB
:10038000104B93F88430984210D10D4B93F88500B0
:100390000C4B93F88530984207D002F06FFA084B67
:1003A00093F88520074B83F8852008BD03F0C6FE2F
:1003B000034B93F88420034B83F88420E5E700BFC8
:1003C00094300020682A002008B5FFF75FFFFFF790
:1003D000D3FF08BD2DE900480C4809F0E1FE0C4BA5
:1003E000196C586C4FF0000B4BEA010203460948A8
:1003F00009F0D6FE084B1B782BB90849084809F0CC
:10040000CFFEBDE800880749F8E700BFFC080100FF
:10041000B081E00F0409010000100020F80801007D
:100420001C090100F408010008B5034B01221A70F1
:10043000024809F0B5FE08BDE81400204809010093
:1004400008B58368C26853F822301B783BB1064B6D
:1004500001221A700549064809F0A2FE08BD024BA8
:1004600000221A700349F6E700100020F40801008A
:1004700030090100F808010008B504F0D9FC012892
:1004800000D008BD014B01221A70FAE7E8140020E1
:1004900038B5134B012483F88641124A82F886410D
:1004A0000F2583F88551104B1C70104B1C70104B9E
:1004B00000221A70234622460721052006F018FB69
:1004C000234602222946204606F012FB094B1C70E7
:1004D000094B1C701021022003F0FAFE38BD00BF4A
:1004E00094300020682A0020AB220020B122002096
:1004F000AF220020AC220020AE22002008B52C4BF9
:100500001B78013B042B07D8DFE803F003070B2D12
:100510004000274B02221A7008BD254B03221A7097
:10052000FAE7244B93F88631012B0BD0224A92F83C
:100530008621934213D01E4A052111701E4A82F86B
:100540008631E9E71C4A92F88621934203D0184A83
:1005500004211170F2E7164A01211170EEE7144AE6
:1005600001211170EAE703F0F5FE0128D4D1114B07
:100570000F2283F885211021022003F0A9FE0F4BE2
:1005800000221A700A4B01221A70C5E703F0E2FE3E
:100590000128C1D1074B052283F8852110210220B3
:1005A00003F096FE0123054A1370014A1370B3E766
:1005B000AB22002094300020682A0020AF220020C7
:1005C00008B52D4B1B78013B042B07D8DFE803F05F
:1005D000030720314200284B02221A7008BD274B26
:1005E00093F88531242B07D0042B09D0082B0BD08E
:1005F000214B01221A70F1E71F4B04221A70EDE71C
:100600001D4B03221A70E9E71B4B05221A70E5E720
:100610001B4B80221A60012302220721052006F0CD
:1006200067FA164B052283F88521134B01221A70B5
:10063000D4E7134B80221A600123042207210520EE
:1006400006F056FA0D4B252283F885210A4B01222C
:100650001A70C3E70B4B80221A6000230422072183
:10066000052006F045FA054B092283F88521024B47
:1006700001221A70B2E700BFAF22002094300020A0
:10068000FCA00046FCA0004408B50C4B08221A60F0
:1006900003F17E43F03380221A60002304220721F5
:1006A000052006F025FA064B4FF400421A6000239D
:1006B00004220F21012006F01BFA08BD0CA0004601
:1006C0003CA0004408B5654B1B78013B082B0FD8B4
:1006D000DFE803F0050F1F2F58759AA2B200604B98
:1006E000002283F88A2183F88B215C4B02221A7046
:1006F00008BD5C4B19685C4A11701B68002BF7D170
:100700004FF4FA61192002F009FE544B03221A70CB
:10071000EEE7192002F00AFE38B9524B1B68012B94
:10072000E6D14E4B01221A70E2E74C4B04221A70BC
:10073000DEE703F00FFE0128DAD1494B93F886314A
:1007400033B9474B152283F88521484B01221A7093
:100750004FF4FA51192002F0E1FD414B012283F8D8
:100760008A2193F88631934207D04021022003F07A
:10077000AFFD3A4B05221A70BAE7394B042283F8D1
:100780008B21F2E7192002F0D1FD80B9354B1B68AF
:10079000012B10D0324B93F88B31052BA8D1304B65
:1007A00093F88631012BA3D1FFF76EFFA0E72B4B07
:1007B00006221A709CE7294B07221A7098E703F06B
:1007C000C9FD012894D1264B93F886212AB9192115
:1007D00083F88511254B01211970214B022183F8E3
:1007E0008A1193F88B31043BDBB2012B07D94021EE
:1007F000022003F06DFD194B07221A7078E7012AD9
:10080000F5D1FFF741FFF2E7C821192002F086FD7C
:10081000124B08221A706BE7124B1B6813B90F4B6F
:1008200007221A70192002F081FD00283FF460AF02
:100830000A4B09221A705BE703F08CFD01287FF454
:1008400057AF074B002283F88A214021022003F092
:100850003FFD024B01221A704AE700BFB12200207F
:1008600094300020BC091442B0220020AD220020A8
:1008700008B5114B1B78012B02D0022B09D008BD03
:100880004FF47A711A2002F049FD0B4B02221A70C4
:10089000F5E71A2002F04AFD0028F0D0074B93F844
:1008A0008731022B03D0054B022283F88721024BAC
:1008B00001221A70E3E700BFAC2200209430002030
:1008C00008B52A4B1B78022B0DD0032B32D0012BFD
:1008D00000D008BD43F698211B2002F01FFD234BDA
:1008E00002221A70F5E71B2002F020FDC8B1204B50
:1008F00093F88831022B0CD01D4B93F88931022BD1
:1009000007D01B4B1D2283F88521032283F8882101
:1009100003E0174B012283F88821144B01221A703F
:10092000D7E7134B93F88831032BD2D10F4B032217
:100930001A70CEE70F4B1B6843B14FF4FA611C20CD
:1009400002F0ECFC094B02221A70C2E71C2002F0F4
:10095000EDFC0028F6D0084B80221A600123022209
:100960000721052006F0C4F8ECE700BFAE22002006
:1009700094300020BC091442FCA0004608B52C4B62
:100980001B78013B032B18D8DFE803F0020F184E49
:10099000284B93F88931022B03D0254B02221A7081
:1009A0000BE0234B04221A7007E040F6B8311D20FB
:1009B00002F0B4FC1E4B03221A7008BD1D2002F089
:1009C000B5FC30B31B4B93F88531152B05D0192B93
:1009D00011D0174B04221A70EFE7164B172283F839
:1009E0008521154B80221A60012302220721052050
:1009F00006F07EF8EDE70F4B1B2283F885210E4BA6
:100A000080221A60012302220721052006F070F8D7
:100A1000DFE7084B93F88531152BCED0192BCCD0BE
:100A2000034B04221A70C8E7014B00221A70C4E776
:100A3000AD22002094300020FCA0004608B5FFF74E
:100A40005DFDFFF73FFEFFF7BBFDFFF797FFFFF7E9
:100A50000FFFFFF735FF08BD08B5FFF7EFFF08BD33
:100A6000024A137818431070704700BFD422002048
:100A7000024A137823EA000010707047D422002045
:100A80002DE9F041002301220621052006F030F86F
:100A9000002304220321184606F02AF8002304222A
:100AA0000B21022006F024F80127414B1F70414C16
:100AB000032384F83031404E002586F8305186F803
:100AC000313184F831318C2386F838314FF00A08FF
:100AD00086F8398184F8383184F83981C42286F85F
:100AE0003A21092386F83B3184F83A2184F83B31D6
:100AF00086F83E5184F83E5186F83F5184F83F51C4
:100B0000142386F8373184F8373186F83D5184F85C
:100B10003D510220FFF7ACFF284B1D80284B1F7072
:100B2000284B1F70284B1F70284B1D7086F83953B7
:100B300084F83953264B1D70264B1D7086F83853A8
:100B400084F83853244B1F70642386F8143384F8D8
:100B5000143386F8155384F815530C2386F817338D
:100B600084F817331D4A137086F8168384F81683A9
:100B70001B4A82F80080F22186F818130D2286F8AD
:100B8000192384F8181384F81923164A1770164A83
:100B90001570B375A37586F8BE3084F8BE3086F83C
:100BA0001A5384F81A53F575E575BDE8F08100BF56
:100BB000B4220020682A002094300020CE22002099
:100BC000D9220020CA220020D8220020C4220020DE
:100BD000E9140020BC220020DA220020C9220020D3
:100BE000C8220020B5220020CC22002010B5574B8F
:100BF0001B78013B082B0DD8DFE803F0050D16220A
:100C0000414D9689A30064211F2002F087FB4F4BC2
:100C100002221A7010BD1F2002F088FB0028F9D0B4
:100C20004A4B03221A70F5E7494B93F886311BB9FA
:100C3000464B04221A70EDE7444B09221A70E9E78B
:100C4000434991F8722091F8733042EA0322414BF4
:100C50001A8091F8383191F8391143EA01233E495D
:100C60000B809A4207D83A4B012283F83E21374B3A
:100C700005221A70CEE7354B09221A70CAE703F035
:100C800069FB0128C6D18021022003F021FB2F4BF4
:100C900006221A70BEE72E4B93F8722093F8731059
:100CA00042EA01222B490A8093F83A0193F83B115A
:100CB00040EA01202949088093F8384193F8391116
:100CC00044EA012424490C8093F8373103EB830371
:100CD000590089B2224B1980824214D91C4B93F8D7
:100CE0003F310A2B0FD01A4B93F88631012B02D0DB
:100CF00021448A428EDB164B002283F83E21134B9F
:100D000007221A7086E7114B08221A7082E7154BEA
:100D100080221A60002304220721052005F0E8FE46
:100D20000A4B09221A7075E703F014FB01287FF4BF
:100D300071AF8021022003F0CBFA044B09221A7014
:100D400068E7024B01221A7064E700BFD822002036
:100D500094300020C6220020D2220020D022002081
:100D6000D6220020FCA000440223034A82F832313C
:100D7000024A82F83231704794300020682A0020FD
:100D800008B5074B1B68DBB2064A1370012B03D072
:100D90000120FFF76DFE08BD0120FFF761FEFAE7B5
:100DA0008C031442C522002008B5214B1B78013B5F
:100DB000042B07D8DFE803F00307131C30001C4B9B
:100DC00002221A7008BD0521084602F0A7FAFFF7B3
:100DD000CBFFFFF7D5FF164B03221A70F2E7052071
:100DE00002F0A4FA0028EDD0114B04221A70E9E7B2
:100DF000104B1B68DBB2104A1370012B07D00F4B4E
:100E0000022283F831210A4B01221A70DAE70B4BD8
:100E1000032283F83121F6E703F09CFA0128D1D1AF
:100E20008021022003F054FA014B01221A70C9E715
:100E3000CA22002098211442CB22002094300020A6
:100E400008B5274B1B78013B062B0BD8DFE803F0D6
:100E5000121604403C0B4400224B08221A60204B1F
:100E600004221A7008BD204B08221A601C4B07226E
:100E70001A70F7E71A4B02221A70F3E71B4B93F82C
:100E800030311B4A92F83021934217D0012B0AD0FF
:100E90000223164A82F83031154A82F83031104B5D
:100EA00003221A70DEE70323104A82F83031104A19
:100EB00082F830310A4B05221A70D3E7FFF760FF42
:100EC000074B01221A70CDE7054B06221A70C9E7BD
:100ED000034B07221A70C5E7014B01221A70C1E7C4
:100EE000D92200200CA000440CA000469430002021
:100EF000682A002008B50C4B93F83D310B4A92F854
:100F00003D2193420AD0012B09D00220FFF7B0FD0A
:100F1000054B93F83D21054B83F83D2108BD022088
:100F2000FFF79EFDF4E700BF94300020682A002000
:100F300008B54A4B1B78013B062B0CD8DFE803F0C1
:100F4000040C1C2535778A00454B002283F81523B5
:100F5000424B02221A7008BD414B93F81633414AA6
:100F600013704FF47A7101FB03F1292002F0D6F9D6
:100F70003A4B03221A70EEE7292002F0D7F9002835
:100F8000E9D0364B04221A70E5E7354B93F88631E9
:100F90001BB9324B05221A70DDE7304B02221A7062
:100FA0002F4B002283F81523D5E72D4B93F87210B1
:100FB00093F8732041EA02212B4A118093F81823F9
:100FC00093F8190342EA00222848028093F8153367
:100FD000012B13D0914223D8214B93F81723244B94
:100FE0001B789A4202D9013321490B70204B1B78A0
:100FF0009A4211D8194B06221A70ACE7184B93F895
:1010000014331A44914203DD154B002283F8152353
:10101000124B02221A709EE7104B02221A709AE7B6
:10102000134B00221A700D4B02221A7093E703F043
:1010300091F901288FD18021022003F049F9084B52
:10104000012283F815230A4B00221A70034B072252
:101050001A7080E7014B02221A707CE7B52200204B
:1010600094300020C8220020C6220020B622002092
:10107000C9220020124B93F88631012B0BD002239A
:101080000F4A82F832310F4A82F832310E4B4FF458
:1010900000621A6070470D4B1B78002BEFD1084B94
:1010A00093F83D31002BEAD10323054A82F832310F
:1010B000044A82F83231064B4FF400621A607047DE
:1010C00094300020682A00206CA00044C522002033
:1010D0006CA0004670B5464B1B78013B062B0DD823
:1010E000DFE803F0040D153D497975004FF4FA610E
:1010F000052002F013F93E4B02221A7070BD012147
:10110000062002F00BF93A4B03221A70F6E7394B2E
:101110001B6813F0FF0F1AD1374A1388013313806D
:10112000354B1A8841F287339A4214D9324B002248
:101130001A802F4B06221A7000F0FAFD0028DDD02D
:10114000002000F0FBFD2A4B06221A70D6E72A4B3E
:1011500000221A80E4E7264B04221A70ECE70520EF
:1011600002F0E4F818B1224B05221A70C6E7204BB2
:1011700002221A70C2E700F0E7FD204E306000F056
:10118000E9FD1F4D286000F0EBFD1E4C206000F0D3
:10119000C9FD1D4B58723268C2F303419972110A9E
:1011A000D9721A73194A12785A732A68C2F3034122
:1011B0009973110AD9731A742268C2F303415974DE
:1011C000110A9974DA740A4B07221A7096E7084BD1
:1011D00001221A7092E70D4A1378013313700C48FC
:1011E00005F044FD00F02CFD014B02221A7085E74A
:1011F000B4220020A8151442F8140020EC1400209A
:10120000F0140020F414002094300020EA14002090
:1012100000C0004008B5FFF76DFEFFF711FEFFF7B5
:10122000C3FDFFF7E3FCFFF725FFFFF753FFFFF7D1
:101230007FFE08BD10B400240FE05B00DBB2C1B23A
:101240004B40013AD2B22AB113F0800FF5D15B00C6
:10125000DBB2F6E7054A13550134FF2C02DCE3B29A
:101260000822F0E75DF8044B704700BFDC26002041
:1012700010B4002410E05B009BB281B24B40013AF5
:10128000D2B22AB113F4004FF5D15B009BB2F6E75E
:10129000064A22F814300134FF2C04DCA3B21B02EE
:1012A0009BB20822EDE75DF8044B7047DC2200207A
:1012B00010B4002410E05B009BB281B24B40013AB5
:1012C000D2B22AB113F4004FF5D15B009BB2F6E71E
:1012D000064A22F814300134FF2C04DCA3B21B02AE
:1012E0009BB20822EDE75DF8044B7047DC24002038
:1012F00000231A468B420DD210B4C45C6240064CE7
:10130000A256D2B20133DBB28B42F6D310465DF85F
:10131000044B704718467047DC26002000231A460D
:101320008B4210D230B4C45C84EA1224074D35F9E4
:10133000144084EA022292B20133DBB28B42F2D330
:10134000104630BC70471846704700BFDC220020B2
:1013500000231A468B4210D230B4C45C84EA1224B3
:10136000074D35F9144084EA022292B20133DBB210
:101370008B42F2D3104630BC70471846704700BF0E
:10138000DC2400202DE9F04F83B0994690F800A0AE
:1013900083F800A04378009389F8013083780193A3
:1013A00089F802300330033A52B200231F469C46AC
:1013B0009E463FE013464CE07600F6B215F0800FF3
:1013C00009D16D00EDB214F0800F07D16400E4B2D2
:1013D00084F01B040AE046F00106F2E745F001053F
:1013E000F4E746F001061BE06400E4B20132D2B239
:1013F000072A1DD810F0010F09D08EEA040E5FFAFB
:101400008EFE8CEA050C5FFA8CFC7740FFB2400838
:1014100016F0800FD0D17600F6B215F0800FE0D133
:101420006D00EDB214F0800FDED045F00105DBE772
:101430004246584602F1FF384FFA88F8002A0DDD7F
:101440005A1ED2B2002BB5D10C784D788E7803316C
:10145000022300F1010B00780022C9E78AEA0E0E90
:1014600089F800E0009B83EA0C0C89F801C0019B1D
:101470007B4089F8023003B0BDE8F08F08B503F077
:10148000B1FF0B4B162283F83A23002283F83B234B
:10149000802183F8F8120C2283F8F92283F8FA12DB
:1014A00083F8FB220123034A1370034A137008BD1B
:1014B0009430002008280020F027002008B5174BA2
:1014C0001B78013B052B0CD8DFE803F0030C150B50
:1014D0000B244FF47A71202001F020FF0F4B0222E1
:1014E0001A7008BD202001F021FF0028F9D00B4B15
:1014F00003221A70F5E703F0A3FF40B2084B1870FF
:10150000084B83F83A03001283F83B03034B012294
:101510001A70E6E7014B01221A70E2E7F02700207B
:10152000042800209430002010B58F4B1B78013B1D
:10153000062B10D8DFE813F0070010001900800018
:101540008800EF00F7004FF47A71212001F0E6FEE9
:10155000854B02221A7010BD212001F0E7FE002801
:10156000F9D0814B03221A70F5E7804C94F87A0089
:1015700094F87B3040EA032000B27D4B18807D4B0D
:1015800040F6BC421A800DF0CBFF69A3D3E90023DB
:101590000DF07AFE02460B4667A1D1E900010EF07C
:1015A00053F9754BC3E900010022744B0DF06AFE3C
:1015B00063A3D3E900230EF01DF80EF0DDFA704AA4
:1015C0001060704AA2FB00239A0984F8FC229B0B4E
:1015D00084F8FD320DF094FF59A3D3E900230EF0F7
:1015E00033F90EF00FFF58A3D3E900230EF002F8F1
:1015F00057A3D3E900230DF047FE02460B4656A140
:10160000D1E900010EF020F90EF08EFA00B20DF0D3
:1016100087FF53A3D3E900230DF034FE0EF084FAC4
:1016200000B2594B188084F8F802001284F8F902CD
:101630004D4B04221A708EE70A21212001F06EFE24
:10164000494B05221A7086E7484C94F87C0094F8C0
:101650007D3040EA032000B2454B1880454B40F6F0
:10166000BC421A800DF05CFF31A3D3E900230DF0DA
:101670000BFE02460B4630A1D1E900010EF0E4F862
:101680003D4BC3E9000100223C4B0DF0FBFD2CA3B8
:10169000D3E900230DF0AEFF0EF06EFA384A106069
:1016A000384AA2FB00239A0984F8FE229B0B84F897
:1016B000FF320DF025FF22A3D3E900230EF0C4F87A
:1016C0000EF0A0FE20A3D3E900230DF093FF20A38A
:1016D000D3E900230DF0D8FD02460B461EA1D1E947
:1016E00000010EF0B1F80EF01FFA00B20DF018FF75
:1016F0001BA3D3E900230DF0C5FD0EF015FA00B2CF
:10170000224B188084F8FA02001284F8FB02164B70
:1017100006221A701FE70A21212001F0FFFD124B5B
:1017200007221A7017E7104B01221A7013E700BF47
:101730009A9999999999B93F000000000078A940B9
:1017400000000000006AF8406666666666A27240A5
:1017500000000000009AB04000000080C1553341F5
:101760006666666666127140082800209430002084
:10177000E0270020F2270020F82700200000F03F9B
:1017800000280020D34D621006280020F4270020F6
:1017900008B5FFF793FEFFF7C7FE08BD08B5104B6D
:1017A0001B787BB10F2B0CD8013B0E4A1278934269
:1017B00007D00D4A92F8CD30013382F8CD3002F0D7
:1017C00009F808BD074B1B780F2BFAD0064A92F890
:1017D000CD30013382F8CD3001F0FCFFF1E700BFDE
:1017E000D83B00200C3F00209430002038B51E204C
:1017F00001F09CFD18B1774B002283F8B520764BA1
:101800001B78013B032B00F2E480DFE813F00400B7
:101810001500CF00DF006F4B93F8863143B16D4B5D
:1018200093F8B730012B03D06B4B00221A70D0E035
:10183000694B02221A70CCE0664B93F8B630002B4D
:1018400040F0A580644B1B78022B00F0A780614B11
:1018500093F82F33012B40F0BC80604B1B78022B98
:1018600040F0B7805C4B1B78032B00F09B805B4BF8
:1018700004221A70ADE0574BD3F8D830584A1360A1
:10188000584A1268934259D0574B1B78FF2B03D00C
:10189000564A525D93425BD0534B1978534A515587
:1018A000FF221A700134E4B24A4B93F8B630A342D7
:1018B0006FD9254604F58073464A52F82330494AC9
:1018C0001360002BEED04A4A12685340C3F313034F
:1018D000002BE7D13F4B93F8CF30012B4ED1424B39
:1018E0001B78FF2BD0D0414A125D9342CCD040F6FA
:1018F000B8311E2001F012FD374B03221A70354B10
:1019000093F8D730002BBFD0022BB4D0012BBBD122
:10191000384A1368013313602E4AC2F8DC3001F0F4
:1019200037FF354B1A78354B1B789A42ACD0FFF70E
:1019300035FF314B1A78314B1A70A5E72D4A1368E1
:1019400001331360234AC2F8DC3001F021FF9BE72A
:10195000294B1A78294B1B789A429DD0FFF71EFF1E
:10196000254B1A78254B1A70224A136801331360ED
:10197000184AC2F8DC3001F00BFF8DE740F6B831B1
:101980001E2001F0CBFC144B03221A708AE70024BE
:101990008AE7174B4FF6FF721A6053E70E4B00228F
:1019A0001A7054E70D4B03221A7012E002F0D2FCB9
:1019B00001280ED1074B012283F8B520082102200F
:1019C00002F086FC044B04221A7002E0024B002253
:1019D0001A7038BD943000203828002018280020C4
:1019E0003028002034280020CC2800203C2800206B
:1019F000282800201C280020D83B00200C3F002075
:101A0000002304E0044AFF21D1540133DBB213F078
:101A1000800FF7D0704700BF3C28002008B5002297
:101A2000114B1A70D921114B1970114B83F8B81052
:101A30001C211048018083F8BA1083F8BB200E489F
:101A40000180062183F8BD10082183F8B1100B49ED
:101A50000A700B490A70012283F8CF2083F82F23E4
:101A6000FFF7CEFF08BD00BF382800202028002047
:101A700094300020C428002026280020C6280020FA
:101A80002E280020454B93F8D730454A92F8D720AE
:101A900093420CD0424A82F8D7300023414A136067
:101AA000414A13603D4A82F8CC3082F8CD303B4B3E
:101AB00093F8BA203A4B93F8BA309A4208D03B498F
:101AC0000B8803F47F4313430B80354B83F8BA2014
:101AD000324B93F8BB30324A92F8BB20934207D086
:101AE00032490A7842EA03220A802D4A82F8BB3042
:101AF0002A4B93F8B2302A4A92F8B220934204D08B
:101B0000012B33D0264A82F8B230244B93F8B03000
:101B1000234A92F8B02093420BD0012B2AD01F4BBE
:101B2000022283F8B0201D4B93F8B0201C4B83F8A1
:101B3000B0201A4B93F8BD30194A92F8BD20934259
:101B400002D0174A82F8BD30144B93F8BC30144AC7
:101B500092F8BC20934208D0032B17D0042B19D045
:101B6000022B0FD00E4A82F8BC307047104A012178
:101B70001170C7E70E4B01221A70084B032283F83D
:101B8000B020D0E70B4A00211170EBE70A4A002190
:101B90001170E7E7094A00211170E3E79430002053
:101BA000682A00201C280020103F0020C4280020A4
:101BB0002D280020212800202E280020C6280020C3
:101BC00008B5FFF713FEFFF75DFF08BD08B5044B2E
:101BD00001224FF47A7108F03FFB01F0B1FB08BD20
:101BE000CD1B000008B50121084803F0ABFE012120
:101BF000074803F0A7FE0121064803F0A3FE0122D7
:101C00001146022004F0C4F908BD00BF00820400A0
:101C100000250A0030053E00064A074BD363136CCB
:101C200043F4803343F024031364044B4FF4003235
:101C30001A60704700C000402400010000E100E08D
:101C400030B585B01C4B6D460FCB85E80F001B4BA4
:101C5000029301230B220A21032004F049FF0123F0
:101C60000B221146032004F043FF154C0323636449
:101C7000A36C23F01F0343F01303A364A36C23F4AA
:101C8000F85343F48853A3642946204604F0D2FF56
:101C900000230C4A13700C4A13700C4A137068230B
:101CA0006361FE23A361236843F016032360FFF7FB
:101CB000B3FF05B030BD00BF600901001F100F0069
:101CC00000C00040382A0020392A0020D0280020F7
:101CD00000B587B06823ADF804300123ADF80630B5
:101CE0000C4B02930C4B1B78ADF80C300B4B049350
:101CF0000A23ADF8143001A9094805F03FF902E0C4
:101D0000074804F0C5FF0128FAD0FFF785FF07B0A8
:101D10005DF804FB041000200A1000205C2A00205B
:101D200000C00040014B1878704700BF011500202B
:101D3000014B1878704700BF2C2A0020014B187007
:101D4000704700BF2C2A0020014B1868704700BF65
:101D5000482A0020014B1868704700BF94360020C5
:101D6000014B1868704700BF342A002030B4844A01
:101D7000536B84490B60906883490860D168834A3B
:101D80001160834C2278834D45F82230824D45F80E
:101D90002200824D45F822100132D2B22270092A67
:101DA00002D922460024147011F4007F08D07C4A26
:101DB00013607C4A10607C4A11607C4A01211170DA
:101DC00013F0040F00F0B3806D4A0421D163D2698F
:101DD00012F0010F00F09C8069490A6C42F0400249
:101DE0000A64734A0021117013F0100F03D1714976
:101DF0000A7801320A70704A12887049895C604A18
:101E0000D16213F0400F0DD05D484022C263684993
:101E10000A780132D2B20A70674909880A446749D0
:101E20008A5CC26213F0100F02D0554A1021D163B0
:101E300013F0010F02D0524A0121D16313F0020FB7
:101E400002D04F4A0221D16313F0080F02D04C4A4E
:101E50000821D16313F4807F03D0494A4FF4807185
:101E6000D16313F4007F03D0454A4FF40071D1636E
:101E700013F4806F03D0424A4FF48061D16313F4AE
:101E8000006F03D03E4A4FF40061D16313F4805FCA
:101E900003D03B4A4FF48051D16313F4005F03D069
:101EA000374A4FF40051D16313F4804F03D0344AC2
:101EB0004FF48041D16313F4004F03D0304A4FF404
:101EC0000041D16313F4003F03D02D4A4FF4003199
:101ED000D16313F4802F03D0294A4FF48021D163BA
:101EE00013F0800F02D0264A8021D16313F4803F83
:101EF0000CD0234B4FF48032DA631A6C22F060026C
:101F00001A6400232E4A13702E4A137030BC704797
:101F10001B4A116C41F0200111642949012008700D
:101F2000D169294A1170274A0021117069E713F01D
:101F3000200F3FF466AF124A2021D163D4692149B2
:101F40000A78224884540132D2B20A7020490A70B9
:101F5000022A0CD0022A7FF654AF501E033A1649CB
:101F600009880A441949085C1449885449E701461C
:101F700000784A7842EA00220F490A8041E700BF10
:101F800000C00040282A0020302A0020442A0020D7
:101F9000FA140020D4280020FC29002068300020FA
:101FA000482A002094360020342A00202C2A0020C1
:101FB0000015002001150020542A00209430002034
:101FC000382A0020D0280020402A00205C2A002047
:101FD000562A002008B50B4A136C0B490B6093641A
:101FE00013F0010F0DD0094B1A78094B1B789A4258
:101FF00007D0591C064A1170064AD15C014805F009
:1020000055F908BD00000140502A00200C21002095
:10201000D91D0020E01F002008B505F093FA084BF9
:10202000186000B9FEE74FF0011108F057FC0022DC
:10203000044B1968024B186808F016FB08BD00BF76
:10204000FC140020C410002080B58AB006F0E4FF24
:1020500001215F4803F076FC01215E4803F072FC29
:102060005D4B01265E641A6842F480721A605B4A16
:10207000136843F4F8431360594C06AD04F11003A0
:102080000FCB85E80F00284604F076FC0027554B5F
:102090001F70554B1E70FFF7A5FDFFF7D1FD02F035
:1020A00021F9FEF7F5F902F0D9FBFEF7E9FCFFF79D
:1020B000B5FCFEF7E3F8FEF771F8FFF7DFF903F080
:1020C00089F8FFF7A9FF238C0AAE26F8143D474D87
:1020D0003146286808F00AFB3146286808F0EEFA15
:1020E00039A3D3E90023CDE900234FF0FF324FF0AD
:1020F000FF33286808F0FEFA3A463946286808F0A7
:10210000B9F8243494E803000390ADF81010384B6C
:102110001B689B685A68374B9A4202D802238DF895
:102120000C3003A9314B186808F011FB00B1FEE731
:102130002E4CFC21206808F0F4FA01F0EDF8294B50
:1021400002221A7000F0A0FB2B4B01224FF47A718F
:10215000206808F081F80FE0FFF7BAFD274B002256
:102160001A7020E000F036FE254A13780133137010
:10217000234B1B78092BF5D906F05AFF02F0E0F942
:1021800002F010F9FEF768FCFFF744F8FFF718FDBE
:10219000FEF71AF9FFF7FCFA1A4B1B781BB9174B1D
:1021A0001B78002BD8D1184B1B7813B1164B00228B
:1021B0001A70164B1B7813B1144B00221A70104B77
:1021C00000221A70D4E700BF488D812A1101000057
:1021D0004041050000250A0000000E40A4310E40D9
:1021E0006009010094300020D8400020FC14002039
:1021F000C4100020FFC99A3BCD1B0000392A0020E3
:10220000163F0020382A0020FB1400200C1000206C
:1022100008B50121044B186808F03CF800EBD070B9
:102220004010D83000B208BDFC1400202DE9F04168
:1022300090B0064617469846254A92F8B4320133C4
:1022400082F8B432002208F4807313431DD107F0E2
:102250004002002313431DD107F00802002313435B
:1022600024D107F400020023134302D0194B0122AA
:102270001A7007F00054002554EA050302D0154BEC
:1022800001221A7010B0BDE8F0810022114608F05A
:10229000F3FADCE7FFF7BCFF0F4B18800F4BB3F9E5
:1022A0000030002BD8D10D4B1880D5E7402269466D
:1022B000304608F039FB684600F012F8044A92F8FC
:1022C000B332013382F8B332024B01221A70C8E7ED
:1022D000943000200C100020582A00203A2A0020B8
:1022E000F0B4194B1E883446184B1F887B1E9E4243
:1022F00004DA721C164909888A421FD09E4201D016
:1023000000230DE0124B1B88DBB1002308E0C55C05
:1023100004EB840291000F4A0A44D5540133DBB226
:102320000D4A12789A42F2D80136B6B2013F3FB256
:102330003E40054B1E800020F0BC70474FF0FF3040
:10234000FAE74FF0FF30F7E7061500200E100020E7
:1023500008150020FC3600200B1000200D4B1B88B8
:102360000D4A1288934211D003EB83018A000B4976
:102370000A440B490A6001339BB20A4A1288013AA7
:1023800012B21340034A1380002070474FF0FF3011
:10239000704700BF0815002006150020FC360020FD
:1023A000FC3A00200E10002010B50B4C5523237072
:1023B000AE2363700023A370D923E3700723237136
:1023C0000A21601CFEF794FFE072022221460C20D5
:1023D000FDF708FF10BD00BFB436002010B50E4C4D
:1023E00055232370AE2363700023A370D923E370B9
:1023F00008232371094B93F8D522627293F8D732E0
:10240000A3720A21601CFEF773FFE07202222146CC
:102410000C20FDF7E7FE10BDB436002094300020FC
:1024200010B5144C55232370AE2363700023A370A2
:10243000D923E370092323710F4B93F89B2062711A
:1024400093F89C20A27193F8D622E27193F8D522DA
:10245000227293F8D822627293F8D732A3720A21BB
:10246000601CFEF745FFE072022221460C20FDF7BA
:10247000B9FE10BDB43600209430002010B5144CC5
:1024800055232370AE2363700023A370D923E37018
:102490000A2121710F4B93F89B20627193F89C20C5
:1024A000A27193F8D622E27193F8D522227293F8A2
:1024B000D822627293F8D732A372601CFEF718FF1D
:1024C000E072022221460C20FDF78CFE10BD00BFF9
:1024D000B43600209430002010B50B4C55232370E7
:1024E000AE2363700023A370D923E3700B23237101
:1024F0000A21601CFEF7FCFEE072022221460C203D
:10250000FDF770FE10BD00BFB436002008B54EF6D2
:102510006021142000F002FF0023044A1370044AD3
:102520001370044A1370044A137008BD1815002074
:102530000C150020191500200215002010B50446C6
:102540000C2803D1164BDB78D92B24D0FFF7DEFF04
:10255000144B1B78042B18D0134B1B88134A12887A
:10256000934202D39B1A104A13800D4B5B781F2BAA
:102570000BD00F4B1B780F4A1278934202D20133D3
:102580000B4A13700C4B00221A7002220449E0B26D
:10259000FDF728FE10BD024B1B79082BD6D1D7E7DB
:1025A000B4360020F6360020AA360020BC3A0020BF
:1025B000A1360020BE3A00209836002010B50B4C02
:1025C000552323701F2363701623A3700023E37029
:1025D00015222271EA226271A3710621601CFEF7A6
:1025E00087FEE0710820FFF7A9FF10BDB436002078
:1025F00010B50A4C55232370572363700023A37032
:10260000E37023716371A3710621601CFEF770FEF5
:10261000E0710820FFF792FF10BD00BFB436002024
:1026200010B50A4C55232370752363700023A370E3
:10263000E37023716371A3710621601CFEF758FEDD
:10264000E0710820FFF77AFF10BD00BFB43600200C
:1026500008B5034B37221A700120FFF76FFF08BD42
:10266000B436002010B50C4C552323701F23637023
:10267000B723A3700023E370084A1288110A21715E
:102680006271A3710621601CFEF732FEE071082022
:10269000FFF754FF10BD00BFB4360020AA3600205B
:1026A00010B50C4C552323701F236370B823A370FF
:1026B0000023E370084A12782271084A1278627186
:1026C000A3710621601CFEF713FEE0710820FFF7DE
:1026D00035FF10BDB4360020A1360020983600200A
:1026E00008B5114B1B78012B04D00F4B1B78022B24
:1026F0000DD008BD0D4A138801339BB21380182BEF
:10270000F3D9134600221A80FFF7ACFFEDE7074A22
:10271000138801339BB21380182BEAD91346002289
:102720001A80FFF7BDFFE4E799360020003B002048
:1027300008B52E2000F0FAFD00B908BD42F6E061B0
:102740002E2000F0EBFD314B1B88B3F5E17F03D366
:102750002F4B1B78002B39D12E4B1B780E2B09D910
:102760002D4B1B78002B39D12B4B1B7813B9013320
:10277000294A1370274B1B780E2B02D80133254AA8
:102780001370264B1B78342B09D9254B1B78002B53
:1027900034D1234B1B7813B90133214A13701F4BDB
:1027A0001B78342B02D801331C4A1370174B1B883B
:1027B000B3F5E17F02D20133144A1380144B1B7826
:1027C000002BBAD10133124A1370B6E7FDF708FDAA
:1027D000FFF7EAFD0D4B00221A80BDE700230D4AEA
:1027E00013700D4A1370FDF7FBFCFFF7F7FD0D4A60
:1027F00092F8D932013382F8D932B5E70023074A7B
:102800001370074A1370FFF767FEC2E70A1500202E
:102810000C15002010100020191500200D100020AC
:10282000021500209430002010B5142000F07EFD29
:1028300010B9FFF77DFF10BD4EF66021142000F0A7
:102840006DFD0B4A13780133DBB21370042B02D8F1
:1028500001F06CFAEDE7FDF7C3FC0024054B1C709A
:10286000FFF7F6FE024B1C70034B1C80F0E700BF25
:1028700018150020101000200A150020014B1870B8
:10288000704700BFEC3A002038B5304B30221A8038
:1028900000242F4B1C802F4B1C802F4B1C702F4B68
:1028A0001C702F4B1C702F4B1C7001F04FFC01F063
:1028B0006DF840F20931162000F030FD01252A4B59
:1028C0001D702A4B1C702A4B1C702A4B4FF4A072AF
:1028D0001A80294B1C80294B4FF42F721A80284BE9
:1028E0001C80284B03221A80274B70221A70274B1A
:1028F00060221A70264B0C221A80264B1C70264B25
:102900001C70264B14221A70254B06221A70254B78
:102910001C80254B1C80254B83F8D54283F8D6427A
:1029200083F8D74283F8D8422946122000F0F6FCFB
:1029300048F25000FEF79CFC48F20500FEF7B8FC98
:102940009720FEF777FC1A4B1D7038BD0E10002043
:102950000615002008150020041500201815002079
:102960000315002014150020D93B0020DA3B00207D
:102970007C3D0020AE360020AA360020F83600202C
:10298000EE3A0020C03A0020A23600209B360020FC
:10299000BC3A0020A136002098360020BE3A002024
:1029A000B0360020101500201615002094300020AD
:1029B000F436002030B482B0214A13780133DBB200
:1029C0001370042B02D9134600221A701C4B1B787B
:1029D0001C4A11781C4AD154002307E01A4AD15CE2
:1029E00002AA1A4402F8081C0133DBB2042BF5D901
:1029F000002419E00133DBB2032B13D85A1C02A9BF
:102A0000114411F8080C02A9194411F8081C884255
:102A1000F0D202AD1D4405F8080C02A8024402F8E9
:102A2000081CE7E70134E4B2032C01D80023E3E7F4
:102A30009DF80220054B1A7002B030BC704700BFF1
:102A40000D1500209A3600209C360020F536002017
:102A500030B482B0254A13780133DBB21370042BF3
:102A600002D9134600221A70204B1B78204A117895
:102A7000204AD154002307E01E4AD15C02AA1A441E
:102A800002F8081C0133DBB2042BF5D9002419E04D
:102A90000133DBB2032B13D85A1C02A9114411F8DD
:102AA000080C02A9194411F8081C8842F0D202ADA2
:102AB0001D4405F8080C02A8024402F8081CE7E7C8
:102AC0000134E4B2032C01D80023E3E79DF802307F
:102AD000094A1278934206D99B1ADBB2074A13704F
:102AE00002B030BC70470023F8E700BF0E1500208D
:102AF000AC360020A4360020EC3A0020FA36002044
:102B000010B58D4B1B78013B032B1ED8DFE813F06B
:102B100004001E00BE0008010621122000F0FEFB8A
:102B20004EF66021132000F0F9FB0023834A137056
:102B3000834A1370834A1380834A1380834A137035
:102B4000834A13707C4B02221A7010BD122000F0D1
:102B5000EDFB0028F9D00621122000F0DFFBFFF783
:102B600057FB7C4B18707C4A92F82E30013382F868
:102B70002E30FFF76DFF794B1A78794B1A70794B2D
:102B800019788A4261D87048038801339BB2038068
:102B900075480024048075480088834208D26B4B36
:102BA0001A78734B1B789A4224D2FFF799FDCCE731
:102BB0006948012380F89A3080F89B1080F89C20A7
:102BC0006C4A138801339BB2138080F8D5321B0AFC
:102BD00080F8D632FFF724FCFFF70AFD0621122009
:102BE00000F09CFB564A1470564A1480524B032244
:102BF0001A70D4E7584A022382F89A30594B1B784E
:102C000082F89B30554B1B7882F89C305A490B88D0
:102C100001339BB20B8082F8D7321B0A82F8D8327C
:102C2000FFF72CFCFFF7E4FC0621122000F076FBF6
:102C30000023434A1370434A1380444A1370444AA2
:102C400013703D4B03221A70AFE7474A13880133D4
:102C50009BB21380494A1288934208D3424B002208
:102C60001A80394B1B8813B1013B374A1380384A0D
:102C700013780133DBB21370414A1278934294D334
:102C80000023334A1370314A13708EE7122000F08C
:102C90004DFB00283FF459AF0621122000F03EFB07
:102CA000FFF7B6FA2B4B1870FFF7D2FE354B1B78A7
:102CB0002B4A13702B4A1278934229D9204B1B7848
:102CC000632B02D801331E4A13701D4B1B78632BF4
:102CD00005D91C4B1A882C4B1B889A420BD2194BD6
:102CE0001B88294A1288934202D80133154A13805F
:102CF000FFF7F6FC29E7FFF793FC0023124A138045
:102D0000124A1370124A13700B4B01221A70E6E735
:102D10000C4B1B88002BEBD0013B0A4A1380E7E7E2
:102D2000122000F003FB00283FF40FAFFFF778FC00
:102D3000014B01221A7008E704150020031500203A
:102D400014150020043B0020AA360020A1360020E4
:102D500098360020AC36002094300020A2360020A7
:102D6000FA3A0020FA360020EE3A0020AE36002073
:102D7000BE3A00201015002016150020C03A002091
:102D8000B03600209B360020F836002008B501211F
:102D90000D4B186807F07EFA0C4B18800C4B1B7813
:102DA000022B09D0032B01D0012B04D100EBD070F2
:102DB0004010D83000B208BD0346002802DB43F3C0
:102DC0008F00F8E7C31CFAE7FC140020121500205E
:102DD0007C3D002010B54E4B1B78013B042B0CD8DA
:102DE000DFE803F0030C171E2400494B02221A707F
:102DF0004FF4E171122000F091FA10BD122000F0A2
:102E000095FA0028F9D0FFF7D9FB414B03221A703D
:102E1000F3E7404B01221A703D4B04221A70ECE795
:102E2000FFF76EFE3A4B05221A70E6E7FFF796FAB7
:102E300068B9394A92F8B232013382F8B23201F0FD
:102E40006DF8FFF7F1FC324B04221A70D5E701F060
:102E50004FF910B901F062F8F3E7162000F066FAB6
:102E60000028EED040F20931162000F057FA2B4B23
:102E70001A78531EDBB2022BE3D8294B5521197067
:102E8000012A20D0264BAE225A70254B00229A7080
:102E9000DA701A7101225A71224B1B780A2B03D85F
:102EA000214B1A781F4B1A701E4B1A781E4B1A7042
:102EB000FFF780FD1D4B1B781D4A1278934205D900
:102EC0009B1ADBB203E047225A70DEE70023144A64
:102ED0009371FFF75BFF174BB3F900301A46002BD5
:102EE00014DB92100C4981F8E52003EBD3735B10DF
:102EF000283B81F8E6300A4CA0710621601CFEF7E1
:102F0000F7F9E0710820FFF719FB9AE7DA1CE8E708
:102F1000F436002004150020943000207C3D002071
:102F2000B43600209A3600200F150020F536002018
:102F3000EC3A002012150020474B19684A6C474BA9
:102F4000A3FB0203D01A03EB50039B08C3EBC3039C
:102F5000D31A243331F81300024421F8132000233C
:102F6000072B78D810B434E0591D484201F007010E
:102F700000F0070058BF4142243132F81140191DBA
:102F8000484201F0070100F0070058BF41422431D8
:102F900032F8111041EA044142F823102E4A116818
:102FA00003F1240231F812405A1C504202F0070289
:102FB00000F0070058BF4242243231F8122042EAA2
:102FC000044203F1080041F820200133DBB2072B53
:102FD0003ED8214A1068002140F82310126803F1FE
:102FE000080042F8201013F0010FBDD1591C4842CF
:102FF00001F0070100F0070058BF4142243132F8C8
:10300000110003F1240132F8111041EA004142F8A5
:103010002310114A11681A1D504202F0070200F0F5
:10302000070058BF4242243231F812405A1D504224
:1030300002F0070200F0070058BF4242243231F884
:10304000122042EA044203F1080041F82020BCE7C4
:103050005DF8044B70477047083B002025499224D7
:10306000C1F12001C84170470B4B1A6852F820305B
:10307000083052F8200003449AB2180C02FB02F107
:1030800000FB02F202EB514200FB00F000EBD230F9
:1030900003FB03F358407047083B00202DE9F0473D
:1030A00088B000230CE0614A126803F1080152F86D
:1030B000211008AA02EB830242F8201C0133DBB284
:1030C000072BF0D9594B1D682B6A286C0344584ACA
:1030D00013442B62686A00998B422CBF0346431C41
:1030E000544C23446B62A86A01998B422CBF03465F
:1030F000431C51490B44AB62E86A029EB3422CBFA9
:103100000346431C1344EB62286B039EB3422CBF5F
:103110000346431C23442B63686B049EB3422CBFBD
:103120000346431C0B446B63A96B059883422CBF79
:103130000B464B1C1344AB63EA6B06998B422CBFC6
:103140001346531C2344EB63079A93422CBF00237E
:1031500001232B64002409E02046FFF785FF08AB1C
:1031600003EB840343F8200C0134E4B2072CF3D9B9
:10317000DDF80090079E10213046FFF771FF09EB44
:103180000004DDF8188010214046FFF769FF204455
:103190002860019D08214846FFF762FF2844234B21
:1031A0001C6830446060DDF808A010212846FFF755
:1031B00057FF0AEB000710214846FFF751FF38443C
:1031C000A060039F08215046FFF74AFF384405449A
:1031D000E560DDF8109010213846FFF741FF09EB5C
:1031E000000510215046FFF73BFF28442061059D54
:1031F00008214846FFF734FF28440744676110213F
:103200002846FFF72DFF08EB000710214846FFF77F
:1032100027FF3844A06108214046FFF721FF3044D2
:103220000544E56108B0BDE8F08700BF083B002019
:103230004DD3344DD3344DD3344DD3340022072AEB
:1032400019D830B40C4B196802F1080551F8250063
:10325000131D5C4203F0070304F0070458BF6342E8
:1032600051F82330584041F825000132D2B2072AE4
:10327000E8D930BC70477047083B0020194B1B68E9
:1032800093F8441001F00301032909D8DFE801F0A5
:1032900002141B221A68D98AD86841EA00414A40C0
:1032A00083F85820110A83F85910110C83F85A102A
:1032B000120E83F85B2070479A68D98B586941EAEF
:1032C00000414A40ECE71A69D988D86941EA0041CF
:1032D0004A40E5E79A69D989586841EA00414A407D
:1032E000DEE700BF083B002010B50A4B1B68002436
:1032F0001C64FFF721FE03E0FFF7D0FE0134E4B2C7
:10330000032CF9D9FFF79AFFFFF7C8FEFFF7B6FFC6
:1033100010BD00BF083B002070470000024B43F87F
:1033200020100020704700BF143B0020034B53F8CF
:1033300020300BB10020704701207047143B002063
:103340000A4B00221A7002E00133084A1370074B3F
:103350001B78302B09D8064A52F82320002AF3D0D4
:10336000013A034941F82320EEE77047103B002063
:10337000143B002008B5164B55221A70B4225A701F
:10338000F0229A700022DA7003221A715871114AE1
:103390001268526CC2F304419971110AD9711A7200
:1033A0000D4A12685169C1F304405872080A9872B4
:1033B000D972517A1973D18901F00F015973D1680B
:1033C000090A9973D268DA731020FFF7B7F808BDBD
:1033D000B4360020083B0020DC3B0020054B1A6877
:1033E00013781B0403F47023507843EA0023907889
:1033F00018437047FC3A002010B4154B1A68137834
:103400001B0403F47023517843EA012394781C438E
:10341000104B114A1A6000234FF0FF3004E038329D
:103420000C490A600133DBB2032B0DD8094A12683C
:10343000517A0129F3D1D168A142F0D1B1F1FF3F16
:10344000EDD058B20423EAE75DF8044B704700BFA3
:10345000FC3A0020DC3B00209C3C002010B4124BC6
:103460001A6813781B0403F47023517803EB0123CB
:1034700094781C440D4B0E4A1A6000234FF0FF3025
:1034800004E0383209490A600133DBB2032B08D863
:10349000064A1268517A0029F3D158B2D460042345
:1034A000EFE75DF8044B7047FC3A0020DC3B00205E
:1034B0009C3C002008B5144B186802781209C378A8
:1034C0000E2A02D0114B187808BD03F0060103F054
:1034D00001030229F6D1002BF4D1037903F0220372
:1034E000222BEFD10821FDF719FFC0F30F21064B66
:1034F0001B681A7A9142E5D1C0B25B7A9842E1D159
:10350000024B06221A70DDE7FC3A0020F636002056
:1035100010B50B4C04212068FDF700FFC0F30F210C
:1035200023681A79914202D0064B187810BDC0B2B8
:103530005B799842F8D1034B03221A70F4E700BF7D
:10354000FC3A0020F636002010B50B4C0421206810
:10355000FDF7FEFEC0F30F2123681A79914202D0D5
:10356000064B187810BDC0B25B799842F8D1034B76
:1035700002221A70F4E700BFFC3A0020F636002061
:1035800008B55C230D4A03FB00200D4B18600B238C
:103590004364002308E00B4A32F8131003F12402BD
:1035A00020F812100133DBB2072BF4D9FFF79CFE91
:1035B000034B1B680B225A6408BD00BF943D0020DA
:1035C000083B00208C0901000F4BDB7803F00F0350
:1035D000012B00D070470C4B1B79232BFAD10A4BDF
:1035E0005B79493BDBB2012BF4D8074B9B78802BEE
:1035F00005D0002BEED1054B00221A70EAE7034BF1
:1036000001221A70704700BFB43600201A1500203E
:1036100010B5244B55221A70234B1B78022B35D042
:10362000082B37D01F4BAE225A70204B1968CC782C
:103630001C4A94700B78D370487810718978517156
:103640001B4A12788AB91B0403F4702343EA00234F
:103650000B43184A1360184A1360184B93F8CF3085
:10366000012B1BD0124B01221A700E4C144B1A88DE
:10367000A27100221A800621601CFDF739FEE0715C
:103680000820FEF75BFFFFF79FFF10BD054BAF2241
:103690005A70CAE7034B43225A70C6E7094B1C70A5
:1036A000E0E700BFB4360020F6360020FC3A0020E8
:1036B0003828002028280020BC2800209430002032
:1036C0003A2A0020CC28002010B5294B55221A7028
:1036D000AE225A70274A1468E2789A702278DA701B
:1036E00062781A71A2785A71042305E09A1CE05C92
:1036F0001F4988540133DBB2082BF7D91E4B1B78C6
:10370000A3B91B4A9179D3791B0443EA0163117A67
:1037100043EA0123527A1343184A1360184B93F873
:10372000CF30012B11D0144B01221A70104C154BC5
:103730001A88E27200221A800B21601CFDF7D8FD66
:1037400020730D20FEF7FAFE10BD094B9B7803F0A5
:10375000F8030D4A13700A4B93F8D730012BE2D1CE
:10376000034B1B7903F00F03084A1370DBE700BF1C
:10377000B4360020FC3A00203828002028280020F9
:10378000943000203A2A0020CC280020D83B00208A
:1037900010B50D4C55232370AE2363700B4B1B6883
:1037A000DA78A270D622E2705A7822719B7863711F
:1037B000074B1B88A3720A21601CFDF799FDE0727C
:1037C0000C20FEF7BBFE10BDB4360020FC3A0020F2
:1037D0003A2A002010B5134B55221A70AE225A70A7
:1037E000114A1268D1789970D521D9705178197120
:1037F00091785971042305E0991CD45C094844541C
:103800000133DBB2072BF7D9064C084B1B88A37298
:103810000A21601CFDF76CFDE0720C20FEF78EFEA5
:1038200010BD00BFB4360020FC3A00203A2A002028
:1038300010B51C4B55221A70AE225A701A4A1268E3
:10384000D17899701178D97051781971917859712E
:10385000042305E0991CD45C124844540133DBB2C4
:10386000072BF7D9114B1B787BB90E4A9179D37985
:103870001B0443EA0163117A43EA0123527A13439A
:103880000B4A1360094B01221A70064C094B1B8826
:10389000A3720A21601CFDF72BFDE0720C20FEF7DD
:1038A0004DFE10BDB4360020FC3A00203828002020
:1038B000282800203A2A002038B5174B55221A70C4
:1038C000AE225A70154A1268D17899701178D97061
:1038D00054781C719078587115799D715279DA710C
:1038E0000F4B1B7853B9090401F4702141EA0421FC
:1038F00001430C4B19600A4B01221A70064C0A4B0B
:103900001B8823720821601CFDF7F2FC60720A20FC
:10391000FEF714FE38BD00BFB4360020FC3A00208C
:1039200038280020282800203A2A002010B5134B00
:1039300055221A70C4225A70114A1468E2789A709B
:103940002278DA7062781A71A2785A71042305E03D
:103950009A1CE05C094988540133DBB2092BF7D982
:10396000064C084B1B8823730C21601CFDF7C0FC20
:1039700060730E20FEF7E2FD10BD00BFB4360020DC
:10398000FC3A00203A2A002000207047002301E082
:103990000133DBB2032BFBD970470000F8B50E46AC
:1039A000C508FFF729FD0446B0F1FF3F16D0012DF1
:1039B00033D0C4EBC403DA005B4B1A445B4B1A6090
:1039C0005C215B4B01FB04345A4B1C6004F148033F
:1039D000002D38D105EB450400232FE0FFF73EFD15
:1039E0000446B0F1FF3FE2D14F4A137C0133DBB212
:1039F0001374032B02D9134600221A744A4B93F90D
:103A00001040C4EBC402D7001F44484B1F60012381
:103A10007B72FFF7E3FCF860C9E75C23444A03FBD1
:103A20000423444A136000221A64E0B2FFF7A8FDA1
:103A3000BFE7E118F05C50540133DBB2022BF8D938
:103A4000082D4AD0F8BD022D10D805EB45070023FC
:103A5000022BF5D8F15C374800685C1C204490F8D4
:103A600058003B444140D154E3B2F1E7082DE7D878
:103A7000EA1E02EB4202991815F0010F11D070787E
:103A800094F859406040985433782A4A126892F862
:103A9000580043404B70B37892F85A205340CB7093
:103AA000CEE7082D12D0337894F85820534001F80F
:103AB000013C73781F4A126892F8590043408B709A
:103AC000B37892F85A2053404B70B9E7337894F8A2
:103AD0005B20534001F8013CB2E7144B1868012306
:103AE00043720B238361134A14686364124A1360A0
:103AF000002304E0C15C114AD1540133DBB2082B2E
:103B0000F8D900230DE003F1240234F8121003F178
:103B10000C0200EB42029180094A22F81310013393
:103B2000DBB2072BEFD98DE79C3C0020DC3B00206B
:103B3000943D0020083B00200C3B0020903C0020DE
:103B4000803D002010B5194B55221A70C4225A70BE
:103B5000174A1468E2789A702278DA7062781A71DB
:103B6000A2785A7122799A71FFF70EFF012800D0CE
:103B700010BD611DE078FFF711FF0D4B1B685A79EE
:103B80000A4CE2719A792272DB7963720023A37284
:103B9000E372084B1B8823730C21601CFDF7A8FB04
:103BA00060730E20FEF7CAFCE2E700BFB4360020C7
:103BB000FC3A00203A2A002070B582B00646C0EBDD
:103BC000C003D900334B1944334B19605C22334B8B
:103BD00002FB0033324A1360324A1568A87993F821
:103BE0005840314A60401072E87993F8594060407B
:103BF0005072287A93F85A4060409072687A93F82D
:103C00005B304340D372FF231370FE2353700023B5
:103C100005E09A1CEC5C244884540133DBB2052B8C
:103C2000F7D9214C01AB09222046FDF7ABFB9DF8EB
:103C30000420637A9A4204D19DF80520A37A9A421F
:103C400007D03046FFF796FB3046FFF793FB02B0F4
:103C500070BD9DF80620E37A9A42F2D15523237075
:103C6000AE236370237AA3700E4B1B681A7862F040
:103C70000F02E2705A7822719B7863710B4B1B889C
:103C8000A3710621601CFDF733FBE0710820FEF7ED
:103C900055FCDCE79C3C0020DC3B0020943D0020F0
:103CA000083B0020FC3A0020B43600203A2A0020CD
:103CB000C0EBC000C30008481844084B186000233C
:103CC00007E0074A1268D15CC21882F82C10013351
:103CD000DBB2092BF5D970479C3C0020DC3B00206F
:103CE000FC3A002010B4C0EBC000C4000C4B1C44D4
:103CF0000C4B1C600023184601E00133DBB2092B9A
:103D00000AD8E21892F82C10074A1268D25C914245
:103D1000F3D00A230120F0E75DF8044B704700BFA1
:103D20009C3C0020DC3B0020FC3A0020044B1B881C
:103D3000B3F5B46F02D3024B00221A80704700BF64
:103D40008C3C002008B51520FFF7F0FA00B908BD3B
:103D50004EF660211520FFF7E1FA0A4B1B88B3F5F8
:103D6000346F0BD20133074A1380074B1B88B3F51E
:103D7000707FECD20133044A1380E8E7FFF7D6FFE7
:103D8000F3E700BF8C3C0020E03B0020F0B4194B6F
:103D90001E883446184B1F887B1E9E4204DA721C14
:103DA000164909888A421FD09E4201D000230DE0A7
:103DB000124B1B88DBB1002308E0C55C04EB8402D6
:103DC00091000F4A0A44D5540133DBB20D4A1278F0
:103DD0009A42F2D80136B6B2013F3FB23E40054B9F
:103DE0001E800020F0BC70474FF0FF30FAE74FF024
:103DF000FF30F7E79A3C0020923D00200E3F002064
:103E0000E43B00200B10002038B5C0EBC002D3000B
:103E1000294A1344294A13605C23294A03FB0023DF
:103E2000284A136045B22846FFF75CFF00283AD1C4
:103E3000002305E0FFF758FA01E0FFF71FFA2346D9
:103E40005C1CE4B22F2B29D81E4B19684B6C1B4A03
:103E500012685069834221D203F57A7398421DD2C9
:103E6000537A012B1AD19369013393614A6C013261
:103E70004A6415490B6801330B60144BA3FB021312
:103E8000DB0803EB430399008A42D3D012F0030FFF
:103E9000D3D1FFF703F9FFF7F1F9D0E72F2C06D8BC
:103EA0002846FFF789FE2846FFF702FF38BD084B7A
:103EB0001868FFF76BFFF6E79C3C0020DC3B002016
:103EC000943D0020083B00200C3B0020ABAAAAAA8E
:103ED000FC3A002010B50E4B1A68D3785B0303F44C
:103EE000F813117943EA0123527942EA0304FFF7F8
:103EF00083FA00280ADBC0EBC002D300054A134452
:103F0000054A13605C61C0B2FFF77EFF10BD00BFC1
:103F1000FC3A00209C3C0020DC3B002010B5FCF764
:103F2000E3F9684B04221A70674B00221A70674B42
:103F3000186802781409C37813F0010301D1072C23
:103F400017D00BB90D2C45D00BB90E2C6ED0FFF746
:103F5000DFFA032840F092800F2C00F08880FFF7F2
:103F600057FBFFF7EFFE574B1B78042B00F08E80BA
:103F700010BD037A427A110941EA031181721201DC
:103F8000C27223F00F0303720921FDF7C7F94F4BEB
:103F90001B685A7912F00F0F03D19A790AB9DA79AE
:103FA00022B1C0F30F22997A8A4209D0FFF7B0FA02
:103FB0000328D6D1434B08221A70FFF729FBD0E71C
:103FC000C0B2DB7A9842F1D13E4B05221A70FFF75E
:103FD0007BFBC6E702F00F020A2A13D00821FDF787
:103FE0009DF9C0F30F21394B1B681A7A9142B8D161
:103FF000C0B25B7A9842B4D1324B05221A70FFF7F7
:1040000017FCAEE70621FDF789F9C0F30F212F4B0E
:104010001B689A799142A4D1C0B2DB799842A0D1B1
:10402000284B07221A70FFF747FC9AE7264B01221C
:104030001A70FFF73FFA06280CD0254B1B78012B8E
:104040000FD0224B1B68DB7813F0040F0CD0FFF766
:104050006DFC86E71F4B1B78012BEED1FFF772FD3D
:104060007FE7FFF763FC7CE7FFF734FF79E7FFF7B3
:10407000C3F9B0F1FF3F7FF474AF70E7FFF764FA64
:1040800002287FF46EAFFFF7C3FA6AE70E4B1B7886
:1040900053B9114B1B88114A1288934204D8104A15
:1040A000128813440C4A13800E4B1B780E4A127868
:1040B000934202D201330B4A13700C4B00221A7048
:1040C00056E700BFF6360020043F0020FC3A0020EF
:1040D000DA3B0020D93B0020AA360020AE36002073
:1040E000BC3A0020A1360020BE3A002098360020BD
:1040F0000D4B1B880D4A1288934211D003EB8301AC
:104100008A000B490A440B490A6001339BB20A4AF0
:104110001288013A12B21340034A138000207047FC
:104120004FF0FF30704700BF0E3F00209A3C002048
:10413000E43B0020FC3A0020923D0020032801D8F7
:10414000014B1870704700BF7C3D002008B50F4B35
:104150000F4A1A60002307E00C490A6800205072D9
:1041600038320A600133DBB2032BF5D9094B062242
:104170001A800020084B1880084B1880084B1880C4
:10418000084B1880FFF7FCF908BD00BFDC3B00209E
:104190009C3C0020923D00209A3C00200E3F0020D5
:1041A0008C3C0020E03B00201D4A138801339BB269
:1041B0001380072B02D9134600221A80194B0022C4
:1041C0001A80184B1A88072A28D810B406E0013242
:1041D000144B1A80134B1A88072A1CD8104B1B88C3
:1041E000DB009BB210490B80981800F5D07044009A
:1041F0000E4911F8100001340C5D40EA04200C4C0B
:104200002080085C03F570731344C95C8842DED0DB
:104210000649C854DBE75DF8044B7047704700BFA0
:104220001E3F0020163F00201C3F0020943000203D
:104230001A3F002008B51D4B1B78023B032B08D802
:10424000DFE803F002082330FFF7AEFF174B03222D
:104250001A7008BD164B93F886314BB9154B1A7876
:10426000154B1B781A4203D1104B01221A70F0E74C
:104270004FF496710220FFF751F8104B4FF4804233
:104280001A600A4B04221A70E3E70220FFF74EF887
:104290000028DED00A4B4FF480421A60034B0522FF
:1042A0001A70D6E7014B01221A70D2E7183F00209E
:1042B0009430002020280020143F00203CA000461D
:1042C0003CA00044014B1870704700BF193F00200C
:1042D000024B1870024B1970704700BF183F002046
:1042E000143F002010B50120FFF7ECFFFF21012053
:1042F000FFF7EEFF00230BE003F5D07042001349F7
:10430000042401F8104001320020885401339BB28C
:104310003F2BF1D90D4A0023137153710DE00C4A64
:1043200052F8232003F5D0746100084800F81420E7
:10433000120A0131425401339BB21A2BEFD90023E8
:1043400004220E21012002F0D3FB10BD9430002086
:104350009C090100014B1878704700BF183F0020EE
:1043600008B50D4B93F8C8320C4A92F8C822934214
:1043700007D0012B06D0084B93F8C822074B83F8CF
:10438000C82208BD064B19780220FFF7A1FF024B97
:10439000002283F8C822EEE794300020682A00202B
:1043A0002028002010B5002404E0154B02221A70CA
:1043B0000134E4B2052C21D8114B1B78013B032BAF
:1043C000F6D801A252F823F0AB430000D943000015
:1043D000E5430000F1430000FFF72CFF084B0322E8
:1043E0001A70E5E7FFF7E0FE054B04221A70DFE7DD
:1043F000FFF7B6FF024B01221A70D9E710BD00BFCC
:10440000193F0020F0B4254B1A782549885C431CDD
:10441000DBB28B5402EB820101442248048822481B
:1044200020F81140042B02D91D4B0021995400247F
:104430002546234601E00133DBB2032B11D81A4E87
:1044400002EB8201C81836F810005F1C394436F8B8
:104450001110884200D9FDB28842ECD25C1CE4B253
:10446000E9E700200646034601E00133DBB2032BF7
:104470000DD8AB42F9D0A342F7D002EB8201194428
:10448000094F37F811100E440130C0B2EDE718B1F2
:10449000B6FBF0F0F0BC70470020FBE71B150020D6
:1044A0005C3C0020D64000206440002070B5012113
:1044B0001F4801F047FA00211E4801F003F91E4C85
:1044C000E070002001F09CF9A0701C4B00241C74CB
:1044D00002269E70DC7003255D70234601220421B4
:1044E000204602F005FB234601220E21284602F059
:1044F000FFFA234601222946052002F0F9FA234655
:1045000001220B21104602F0F3FA23460122314624
:10451000204602F0EDFA234601220521084602F06A
:10452000E7FA234601220F21284602F0E1FA70BD86
:10453000009204000024F400341000203C100020FD
:1045400070B5AF4B1B78013B0D2B14D8DFE813F08F
:104550000E00140013004C00130013007200A5009D
:10456000BC0058000501070131015401FFF79EFF0F
:10457000A34B02221A7070BD64211120FEF7CEFEFB
:10458000A04D284601F01EF89F4C204601F008F986
:1045900053220021284601F01EF89C4E30706622FE
:1045A0000121284601F017F8F0706C2202212846FC
:1045B00001F011F870709B220321284601F00BF8DE
:1045C000B070E36943F4A043E3610123C4F8903081
:1045D0008F49204601F098F82946204601F01DF841
:1045E000874B04221A70C6E71120FEF79FFE0028B1
:1045F000C1D0854B04229A60814B0A221A70BAE717
:10460000814BDB6813F4003FB5D0002408E08149FA
:104610007D4801F051F8804B43F824000134E4B2A6
:10462000032CF4D964211120FEF778FE744B072285
:104630001A70A0E71120FEF779FE00289BD0714D7B
:10464000284600F0BFFF704C204601F0A9F8552223
:104650000021284600F0BFFF6C4E70716A220121D4
:10466000284600F0B8FF307187220221284600F06A
:10467000B2FFB071E36943F48043E3610123C4F8FE
:1046800090306349204601F03FF82946204600F06B
:10469000C4FF5B4B08221A706DE75B4B04229A60E3
:1046A000574B09221A7066E7251D5A49564801F0F2
:1046B00003F8594B43F825000134E4B2022CF3D936
:1046C0004F4B0B221A7056E70024F7E7524B53F872
:1046D000242040F6E44303FB02F31A0B4F4E315DF6
:1046E0004F4B53F8213003FB02F34E4AA2FB032346
:1046F0009B094D4D45F824304C4B197055F824203A
:104700004B4B1A80FFF77EFE45F8240055F8241025
:10471000335D38335A00474800F8131055F8241019
:10472000090A531CC1540134E4B2062CCED93E4AC6
:10473000536891690B445B083849C979383148009E
:104740003C4C04F811305368926913445B0A421CD4
:10475000A3542B4B0C221A700DE70024E5E7364BCF
:104760001B78022B06D80133334A1370244B0D22D9
:104770001A7000E72F4A92F8703092F8712043EADD
:1047800002232E4A13802E4A1268934206D2002337
:10479000294A1370274A82F88631E7E7C8329342E4
:1047A000E4D9254B00221A70224B012283F886217E
:1047B000DCE7204991F82C2091F82D3042EA0322C1
:1047C000204B1A8091F8723091F8731043EA01235C
:1047D0001D490B809A420BD31C4B00221A701B4BB5
:1047E0001A78144B83F82E23054B02221A70C2E666
:1047F000164B01221A70F2E7014B02221A70BAE638
:10480000D84000203C10002000200040783F0020CD
:10481000341000205C3F0020383F0020B8100020FA
:1048200054100020D34D6210B44000201B1500200E
:10483000D6400020943000208C3F0020683F0020AC
:1048400074100020B4100020DA4000201110002065
:10485000014B1870704700BF6C3F002070B50022FC
:104860002FE05300DBB2594951F8221003F16004E4
:1048700057480155C1F3072103F16104015555491A
:1048800051F8221003F140040155C1F3072103F14F
:1048900041040155504951F8221003F130040155EB
:1048A000C1F3072103F1310401554C4951F822109D
:1048B00003F150040155C1F307215133C1540132B2
:1048C000D2B2072ACDD90523454A1360404C84F85B
:1048D0002033002584F82153424B4FF47A721A603A
:1048E000E82384F82233032384F8233384F8245301
:1048F00084F8255301263C4B1E6084F8266384F817
:10490000275384F8285384F829530223374A136025
:1049100084F82A3384F82B53354B1E7084F82C63AB
:10492000EF2384F8103384F8115384F8125384F879
:10493000135384F82D632F4B1D802F4B1D8084F85B
:10494000205084F821502D4B1E8084F8246084F878
:1049500025502B4B1D702B4B1D802B4B1D802B4B43
:1049600040F2D6621A802A4B4EF660221A6060230B
:1049700084F82230EA2384F8233040F6B8310F203F
:10498000FEF7CCFC2823234A1380234A1570234AC0
:10499000138084F8283084F829503C23204A13607F
:1049A00084F82A3084F82B501E4B1B7884F82E3361
:1049B0001D4B40F698021A80982384F82C30082367
:1049C00084F82D303046FFF743FF70BD54100020AF
:1049D0009430002094100020741000201410002047
:1049E000703F0020D0400020943F00202C3F00204A
:1049F000623F00206A3F00206E3F0020803F002081
:104A0000593F0020203F0020563F0020543F002007
:104A1000243F0020343F0020583F0020983F0020D2
:104A2000303F002011100020B410002000207047FB
:104A30007047000030B585B0094C2268094B1A60F8
:104A4000094D0A4B2B600A4B019304F043F8029086
:104A50002B68039301A9206802F0B4FE05B030BDB5
:104A600000110020E0400020DC400020F410002075
:104A7000800D010038B504F02DF80546064C23687A
:104A8000D3F8AC0204F01AF8206802F0ADFE284614
:104A900004F014F838BD00BF0011002008B504214F
:104AA000112001F0FFFA0121084800F04BFF03211B
:104AB000074801F0F7FA0321064801F0F3FA032151
:104AC000054801F0EFFA002008BD00BF30053E00A8
:104AD00002001E00030020000500240008B500F0BD
:104AE00039F808BD08B50A4B01225A641A6842F425
:104AF00080721A60074A136843F4F843136003F0A6
:104B00009BFF03F0B9FFFFF7C9FF03F0A5FF08BD46
:104B100000000E40A4310E4008B500F073F800F01C
:104B20007DF808BD08B5FFF7D9FF04F0DDF9FFF700
:104B300081FF08BD08B502F0C7FC02F05BFD02F082
:104B400007FD08BD7047704708B5FFF793FF08BD24
:104B50007047704770B598B0144E11AC35460FCD04
:104B60000FC495E8070084E807002422002108A864
:104B70000BF022FA0E4B06930E4B07930123099379
:104B80008DF840301F238DF8413002AC06F11C0334
:104B90000FCB84E80F00084B009306AB11AA214607
:104BA000064804F0BFF818B070BD00BF980D0100B2
:104BB0000000014000320400D0170020141800202B
:104BC00008B5024B186804F047F908BD1418002016
:104BD000704708B5FFF7FCFF08BD704708B5FFF741
:104BE000FCFF08BD704738B504460D4602F074FC62
:104BF00029462046FFF7F6FF38BD08B5FDF716FB3E
:104C000008BD000008B5034800F00AF9024800F0AA
:104C100007F908BDC80D0100D80D010008B503480B
:104C200000F0ACF9024800F0A9F908BDE80D010058
:104C3000000E0100FEE7000010B500F06FF8074B12
:104C4000074C1946074A04E0106808600433043131
:104C50000432A342F8D3FBF767FA00BF001000202C
:104C6000CC140020F82C01000048704700F04902E5
:104C7000114BD3F8943003F00703023B032B0DD8FC
:104C8000DFE803F0050F02080C4B18680BE00C4B33
:104C9000186808E00B4B1868400804E0094B1868D6
:104CA00001E04FF40040044BD3F80031C3F3042378
:104CB0000133B0FBF3F0704700400E40301100208C
:104CC000281100202C11002008B5FFF7D1FF054B5B
:104CD000D3F80831C3F308230133B0FBF3F0024BE0
:104CE000186008BD00400E4024110020014B1868D8
:104CF000704700BF2811002008B5064B1860064B0E
:104D0000D3F8943003F00703022B00D008BDFFF75F
:104D1000DBFFFBE72811002000400E40044B054A52
:104D20009A60D3F8882042F47002C3F88820704754
:104D300000ED00E0000000004FF4004070474FF429
:104D40007A707047014B1868704700BF301100201F
:104D500000230360704703680B600160704790B1E7
:104D600030B404466AB161B1002003E004F8013BAD
:104D700001320130137813B14D1E8542F6D800235D
:104D8000237030BC70477047034640B1002001E0FB
:104D9000013301301A781AB18842F9D370470020E4
:104DA000704708B54FF0FF31FFF7EEFF08BD80B147
:104DB00070B5064632B129B115460C46FFF7F1FF32
:104DC000844200D870BD2A46211A3044FFF7C7FF3D
:104DD000F8E7704710B3F8B50F46064651B9012001
:104DE000F8BD20340FE0601BFAD13378002BF7D0E8
:104DF0000136013734780BF09BF82044437803F0F8
:104E00000303012BEDD03D780BF092F82844437852
:104E100003F00303012BE6D12035E4E701207047BE
:104E200008B5436813B10068984708BD2220FCE725
:104E300008B5836813B10068984708BDFF20FCE7F8
:104E40000023144A12789A4223D910B51C46124AFC
:104E500052F8232011684A79824206D00133DBB22E
:104E60000C4A12789A42F1D812E00B7903EB430313
:104E700018010A4B034402EBC30292001368B3FA11
:104E800083F35B090B70044B53F82400FBF7F4FA2F
:104E900010BD7047C40D0100141100201CA0104269
:104EA00010B582B004460121164800F04BFD0023E6
:104EB00001226179207901F01BFE2279637902EBEE
:104EC00042021101104A0A4403EBC2039B001B6813
:104ED000B3FA83F35B092370A379022B02D000207D
:104EE00002B010BD00F076F90849607900F080F951
:104EF000617920790123019300930A4601F09AFD1C
:104F0000EDE700BF00250A001CA01042414E000042
:104F10000078704710B40279437902EB4202110124
:104F2000154A0A4403EBC2039B001A68141C18BFFD
:104F300001248179012907D019B9B2FA82F2520904
:104F400002705DF8044B704743885B009BB22343BB
:104F500043F47F4343F0C0034FF6E072934205D021
:104F60004FF6DF72934204D04380EAE701220270D9
:104F7000F6E700220270F7E71CA0104208B543686C
:104F80000068984708BD000010B504460121094893
:104F900000F0D8FC0121084800F0D4FCA378B3FA53
:104FA00083F35B0904226178207801F0A1FD0020E1
:104FB00010BD00BF4041050000250A0083784BB1B9
:104FC0000378407803EB4303190101228240064B2A
:104FD0005A5070470378407803EB430319010122CC
:104FE0008240024B5A5070470CA000460CA000446F
:104FF00083784BB10378407803EB43031901012216
:105000008240064B5A5070470378407803EB4303C5
:10501000190101228240024B5A5070470CA00044F3
:105020000CA00046027843780121994002EB42022D
:10503000130103F1804303F5204399617047000099
:105040000278437802EB42021101074A0A4403EB5B
:10505000C2039B001B68DBB2827812B9B3FA83F3F8
:105060005B091846704700BF0CA01042124B1B781A
:10507000F3B1F8B110B5044601F051F90023072B44
:1050800012DC0E4A02EB0312127B0AB10133F6E77F
:1050900023600A4A1B01D11801240C730024D45048
:1050A00001F041F9204602E001F03DF9044810BD4D
:1050B0000448704704487047A819002028180020A9
:1050C000048000F0028000F0018000F000B583B0A1
:1050D000144B1B68019300238DF8043001F01FF975
:1050E000114B1B7833B9104B01221A7001F01BF9D8
:1050F000002309E001F017F90C480FE00C4A02EB1D
:105100000312002111730133072BF7DD04238DF8FF
:1051100007300DEB030001F06DFF002003B05DF8D8
:1051200004FB00BF180E0100A8190020038000F046
:1051300028180020F8B5194B1F6EDB6E1F4002D4F3
:105140000126002402E0FEE701347600072C24D873
:105150003E42F9D0114B9E662301114AD358002BD1
:10516000F2D002EB0415A9680131A9606A682046F3
:10517000984780F00103DBB26A7B012AE4D1002B5F
:10518000E2D0084B03EB4413197B6FF34101197311
:105190001A7F6FF341021A77D6E7F8BD00200E4060
:1051A00028180020A818002010B504467CB194FAF5
:1051B000A4F0B0FA80F0C2B20123934024EA0304C1
:1051C000034B53F82230002BF0D09847EEE710BD88
:1051D000AC190020054B4FF48022C3F880211A60DF
:1051E0004FF48062C3F880211A60704700E100E04C
:1051F00038B504460D4601F092F8034B43F82450AD
:1052000001F091F838BD00BFAC19002008B5084B7B
:10521000D3F82804D3F81C24104020F42A5020F09E
:105220002A004004400CC3F82404FFF7BDFF08BD6A
:1052300000A0004008B5084BD3F82804D3F81C247C
:10524000104020F4AA4020F055000004000CC3F8E0
:105250002404FFF7A9FF08BD00A00040C000094BCF
:10526000A3FB0023084A1068A0EB930010F1800F05
:1052700003DB7F2803DD7F2001E06FF07F0040B279
:10528000704700BFCDCCCCCCF4190020044B4FF0BC
:105290004042DA621A6B22F040421A63704700BF44
:1052A00000300E40002305E0354A02EBC3023549C9
:1052B0000A600133042B16DC314A52F83320002AED
:1052C000F7D0304A11680A68002AEDD02C4A02EB68
:1052D000C30210790A799042EBD9294A02EBC30242
:1052E00028490A60E5E7002305E0274A02EBC302EC
:1052F00026490A600133042B16DC234A52F8332076
:10530000002AF7D0214A11680A68002AEDD01E4A07
:1053100002EBC30210790A799042EBD21A4A02EBEF
:10532000C3021A490A60E5E7164B19680B68DBB13E
:10533000174AD36923F0FF0309790B43D361136B39
:1053400043F080431363114B19680B6893B1104A03
:10535000D36923F47F43097943EA0123D361136BB3
:1053600043F0004313637047094A136B23F08043F3
:105370001363E8E7064A136B23F000431363704797
:10538000081A0020F8190020301A0020FC1900200B
:1053900000300E400F4B1A68C2F307425B6DDBB260
:1053A000FF2A10D0FF2B11D002EB820103EBD101B9
:1053B00009480160DB000949A1FB031302EB9303D9
:1053C000074A1360704790231922EDE790231922B2
:1053D000EAE700BFB081E00FF0190020CDCCCCCCC3
:1053E000F419002010B501240E4B1C702822002156
:1053F0000D480AF0E1FD282200210C480AF0DCFDEE
:105400000B4B0C4A13600C4A1360FFF7C3FFFFF706
:105410003DFF0A4BC3F880411C60FFF743FF0020AB
:1054200010BD00BFEC190020081A0020301A00201F
:10543000001A0020F8190020FC19002000E100E00B
:1054400008B5054B186AC0B21B6ADBB29842F8D1A6
:10545000FFF704FF40B208BD00300E4010B5164AF9
:10546000136B526A134013D413F0804F20D0134BA8
:10547000186804683CB1082200210AF09DFDFFF77E
:10548000DFFF0121A0470C4B4FF08042DA620FE0B2
:105490000B4B186804683CB1082200210AF08CFD0F
:1054A000FFF7CEFF0021A047034B4FF00042DA6226
:1054B000FFF7F8FE10BD00BF00300E40F8190020C5
:1054C000FC19002008B5FFF7C9FF08BD30B442B190
:1054D0001025364B446B1C40354B984204D030BCF1
:1054E00070470025334BF5E702292BD007D9062951
:1054F00045D081294CD0032931D000231EE089B149
:105500000129FAD12C4A13681B0E1B0203F4FE4337
:105510001168C1F303410B431268120D1201D2B29C
:1055200013430BE0244A136803F4FE43116801F0AF
:105530000F010B43126802F0F0021343AB40234308
:105540004363CCE71D4A136803F4FE43116801F07E
:105550000F010B43126802F0F0021343EEE7174904
:105560000A68120E120202F4FE420B68C3F30343F0
:105570001A430B681B0D1B01DBB21343DEE7104B14
:105580001A6802F00F021B6803F0F0031343D5E71B
:105590000A490A6802F4FE420B6803F00F031A433B
:1055A0000B6803F0F0031343C8E700BFFFFF008060
:1055B000002000400080FFFF1082E00F1482E00F07
:1055C0001882E00F4FF0FF3343600023836043F6FF
:1055D000E413C360704730B400230374D3089D1EE6
:1055E000012D00D91D464468C90024FA01F3DBB23D
:1055F000FF2B0BD002F007021144012303FA01F242
:10560000836813438360084630BC70478B4024EAAC
:1056100003048D402C434460ECE738B505460C4646
:105620000823836001228978FFF750FF6278E378CE
:10563000DB0043EA0263627C0AB143F00053A27CC0
:105640000AB143F00403227C0AB143F00203E27C76
:105650000AB143F00103A27812F0800F25D143EA8A
:105660004213AB61EB6923F4F21323F00703A27832
:1056700012F0800F1CD1227843EA4243627D0AB1C6
:1056800043F48043EB61227D05F10473DB000333B7
:105690009B001A6063686B62A3682B62E368AB626D
:1056A000EB6FD5F88030EB6838BD43F0E003D8E706
:1056B00022F080021343DEE7806EC0F304430B60E8
:1056C00080B2704710B50E4B984206D80446B0F52C
:1056D000FA4F03D24FF4FA4400E0094C51B160187C
:1056E0000138B0FBF4F000B101387F2800D97F20E9
:1056F000C0B210BD034800F0E1FA0146EFE700BF79
:105700000024F4004041050070B504460D46CE78F3
:1057100026B3036813F0800F26D00A23A3602A78EB
:10572000AB781B0403F4FE0343EA0263360206F47B
:10573000FE4633436A7813432A790AB143F01003D3
:1057400023606A7904F18063C021196004F1C063A9
:105750001A60236813F0800F10D170BD00210C482F
:10576000FFF7B0FF0646D8E700210948FFF7AAFF78
:1057700000214FF4FA40FFF7A5FFCEE7054800F0FF
:105780009DFA054B9C42E8D1044800F097FAE4E703
:105790000024F400B8003200002000400092040011
:1057A00038B504460A238360134B03610025456125
:1057B0008561C5614FF4F813036045640F4B0364C2
:1057C00005630562456243F6E4138362D0F88C30CA
:1057D00043F00103C0F88C30D0F8903043F001035F
:1057E000C0F890302A462946FFF770FE012229466C
:1057F0002046FFF76BFE38BD00FFFF00000F033FA0
:1058000008B5034650B103F5742000F23F20074B62
:10581000A3FB0030800C0138C0B208BD044800F082
:105820004DFA03460028EED10123ECE783DE1B434B
:10583000404105000C4B984208D90C4B984202D9C4
:105840000221012204E001210A4601E000210A466A
:10585000074B1A60074AD2F8003123F0807343EAFD
:105860000163C2F8003170470048E8010090D0039E
:105870004000C84300400E40014B1868704700BF0D
:105880003411002010B4124B5B68002300E0013398
:10589000042B0BD80F4A02EBC3021479CAB294420C
:1058A000F5D10C4A52F833208242F0D3052B0DD0AB
:1058B000084A02EBC3035979054A536823F0407341
:1058C00043EA016353605DF8044B70470321F3E73B
:1058D00000000E401C0E010003300F2828BF0F20CF
:1058E0000007704708B5FFF7C3F9044BD3F8003140
:1058F000C3F3042303FB000008BD00BF00400E40BB
:1059000010B5074B1C6C41F671321A64FFF7ACF905
:105910000021FFF7B7FF14B1014B00221A6410BD3C
:1059200000000E4010B5064B1C6C41F671321A6433
:10593000FFF7A8FF14B1024B00221A6410BD00BF8C
:1059400000000E40C0F30323013B092B3AD8DFE8E7
:1059500003F005083939180B0E39111500221A4BBE
:1059600011E00022194B0EE00122194B0BE010222E
:10597000184B08E04FF48032174B04E00022174B1D
:1059800001E00022164BC0F30430A2B110B40E4C5B
:10599000D4F8444114F0010F04D10B4CD4F8404129
:1059A0002242FAD103F1047300EBC30080000160CE
:1059B0005DF8044B704703F1047300EBC3008000F3
:1059C00001607047704700BF00400E40C0400E406D
:1059D000E0400E40E8400E40F0400E4050410E4086
:1059E000B0400E40C0F30313013B092B57D8DFE84A
:1059F00003F0050B111B56562127414D2B4BD3F8B5
:105A00000001C0F304207047284BD3F81401C0F301
:105A100004207047254BD3F80001C0F30060431CFD
:105A20000120984001387047204BD3F80C01C0F397
:105A3000082070471D4BD3F80801C0F308207047B9
:105A40001B4B984204D01B4B98420AD00020704751
:105A5000164BD3F8203103F00F0301209840013892
:105A60007047124BD3F82031C3F301130120984043
:105A700001387047104B984213D10C4BD3F82831A2
:105A8000C3F3011301209840013870470B4B984233
:105A900009D1064BD3F8300100F003007047002015
:105AA0007047002070470020704700BF00400E4044
:105AB0008006160080162E0090171A00A009140008
:105AC00008B5FFF78FFF013008BD000000F00F00A0
:105AD000013807286DD8DFE800F0041B2C6C40511A
