:1000000000100020B5550000B1550000B1550000AA
:10001000B99A0000B1550000B1550000B15500007B
:10002000B1550000B1550000B1550000B1550000B8
:10003000B1550000B1550000B1550000B1550000A8
:10004000415E000081E30000B1550000B1550000A1
:10005000D1DA0000EDE300008DE30000A5E300002D
:1000600085E30000B15A0000895B0000B155000033
:100070003D55000029270000B1550000B155000092
:10008000B1550000B5240000B15B0000B15500007F
:10009000B1550000B1550000B1550000B155000048
:1000A000B1550000B1550000B1550000B155000038
:1000B000F1E3000089E30000FDF90000B155000004
:1000C00031E40000B155000001CF0000B15500003F
:1000D000B1550000B1550000B1550000B155000008
:1000E000B1550000B155000010B5054C237833B967
:1000F000044B13B10448AFF300800123237010BDFB
:10010000DC14002000000000E837010008B5034BB4
:100110001BB103490348AFF3008008BD0000000095
:10012000E0140020E8370100154B002B08BF134BEB
:100130009D46A3F5803A00218B460F461348144A8A
:10014000121A10F091FC0F4B002B00D098470E4B69
:10015000002B00D098470020002104000D000D481E
:10016000002802D00C48AFF3008010F011FC2000F2
:10017000290002F015FB10F0F7FB00BF000008009B
:10018000001000200000000000000000DC1400202F
:100190004C420020000000000000000008B50B4B9E
:1001A000DA6C42F00102DA64094A4FF4005111603E
:1001B00001225A64196C074B1960074B1A70074BE0
:1001C0001A701421112003F073FC08BD00000140D7
:1001D00000E100E0FC1D0020192100203821002052
:1001E00070470000F8B5204B1B78204A1678B342C0
:1001F00007D000271E4AD36C23F00103D3640023E9
:100200000AE00127F6E7184C2278551C2570CD5CD2
:10021000184CA5540133DBB28342F4D3144AD36C97
:1002200043F00103D364144A92F8B132013382F8E7
:10023000B13207B9F8BD0C4B1B789E42FAD00C4C7A
:10024000E36C23F00103E364721C084B1A70094B42
:10025000995D204607F024FDE36C43F00103E3645D
:1002600001236364E6E700BF34210020011E002063
:100270000000014008200020FC30002008B50023C9
:1002800004220D21032007F0F1F808BD08B5134B37
:100290001B78022B10D0032B17D0012B00D008BDE8
:1002A000FA210B2003F004FC0D4B4FF400521A60AE
:1002B0000A4B02221A70F2E70B2003F001FC00281F
:1002C000EDD0064B03221A70E9E7064B4FF40052BB
:1002D0001A60024B00221A70E1E700BFBC21002027
:1002E0009CA000469CA000441E4B93F8AB30012B11
:1002F00000D070471B4B93F8A730012BF9D11A4B54
:100300009A78184B93F8AA309A42F2D1164B5A7841
:10031000144B93F8A9309A42EBD1134B1B78114A36
:1003200092F8A82003F00F039A42E2D10E4BDB783B
:100330000E4A1278934210D00D4A012111700B4AD7
:10034000137008490A4652F8AC3F0133094803606C
:1003500009480260C1F8AC30CBE7064A1268002AAF
:10036000EAD0C6E7FC300020083E0020A92100208A
:10037000BC210020B0210020B821002008B5114B7D
:1003800093F88400104B93F88430984210D10D4BB1
:1003900093F885000C4B93F88530984207D002F013
:1003A00037FE084B93F88520074B83F8852008BD5E
:1003B00004F09AFA034B93F88420034B83F88420CB
:1003C000E5E700BFFC300020D02A002008B5FFF789
:1003D0005DFFFFF7D3FF08BD2DE900480C480AF088
:1003E00033FC0C4B196C586C4FF0000B4BEA0102BC
:1003F000034609480AF028FC084B1B782BB908492A
:1004000008480AF021FCBDE800880749F8E700BF6A
:10041000AC130100B081E00FB41301000010002004
:10042000A8130100CC130100A413010008B5034B6D
:1004300001221A7002480AF007FC08BDF8140020D7
:10044000F813010008B58368C26853F822301B789E
:100450003BB1064B01221A70054906480AF0F4FB2D
:1004600008BD024B00221A700349F6E70010002075
:10047000A4130100E0130100A813010008B505F062
:1004800095F9012800D008BD014B01221A70FAE746
:10049000F814002038B5134B012483F88641124A22
:1004A00082F886410F2583F88551104B1C70104B44
:1004B0001C70104B00221A7023462246072105208B
:1004C00006F0D4FF234602222946204606F0CEFF3E
:1004D000094B1C70094B1C701021022004F0CEFA4D
:1004E00038BD00BFFC300020D02A0020D3220020DD
:1004F000D9220020D7220020D4220020D62200209A
:1005000008B52C4B1B78013B042B07D8DFE803F020
:1005100003070B2D4000274B02221A7008BD254B04
:1005200003221A70FAE7244B93F88631012B0BD083
:10053000224A92F88621934213D01E4A0521117057
:100540001E4A82F88631E9E71C4A92F886219342D6
:1005500003D0184A04211170F2E7164A01211170E4
:10056000EEE7144A01211170EAE704F0C9FA012804
:10057000D4D1114B0F2283F885211021022004F0E1
:100580007DFA0F4B00221A700A4B01221A70C5E740
:1005900004F0B6FA0128C1D1074B052283F8852162
:1005A0001021022004F06AFA0123054A1370014A5F
:1005B0001370B3E7D3220020FC300020D02A0020A3
:1005C000D722002008B52D4B1B78013B042B07D800
:1005D000DFE803F0030720314200284B02221A70A3
:1005E00008BD274B93F88531242B07D0042B09D065
:1005F000082B0BD0214B01221A70F1E71F4B04226C
:100600001A70EDE71D4B03221A70E9E71B4B052218
:100610001A70E5E71B4B80221A6001230222072192
:10062000052006F023FF164B052283F88521134B86
:1006300001221A70D4E7134B80221A60012304228E
:100640000721052006F012FF0D4B252283F8852196
:100650000A4B01221A70C3E70B4B80221A60002359
:1006600004220721052006F001FF054B092283F82B
:100670008521024B01221A70B2E700BFD722002069
:10068000FC300020FCA00046FCA0004408B50C4B48
:1006900008221A6003F17E43F03380221A6000239F
:1006A00004220721052006F0E1FE064B4FF400422C
:1006B0001A60002304220F21012006F0D7FE08BD96
:1006C0000CA000463CA0004408B5654B1B78013BDC
:1006D000082B0FD8DFE803F0050F1F2F58759AA2DB
:1006E000B200604B002283F88A2183F88B215C4B97
:1006F00002221A7008BD5C4B19685C4A11701B68B5
:10070000002BF7D14FF4FA61192003F0D1F9544BC3
:1007100003221A70EEE7192003F0D2F938B9524BD0
:100720001B68012BE6D14E4B01221A70E2E74C4BBD
:1007300004221A70DEE704F0E3F90128DAD1494B0C
:1007400093F8863133B9474B152283F88521484BFE
:1007500001221A704FF4FA51192003F0A9F9414B04
:10076000012283F88A2193F88631934207D04021F1
:10077000022004F083F93A4B05221A70BAE7394B8C
:10078000042283F88B21F2E7192003F099F980B94C
:10079000354B1B68012B10D0324B93F88B31052B56
:1007A000A8D1304B93F88631012BA3D1FFF76EFF10
:1007B000A0E72B4B06221A709CE7294B07221A70E0
:1007C00098E704F09DF9012894D1264B93F88621EF
:1007D0002AB9192183F88511254B01211970214B64
:1007E000022183F88A1193F88B31043BDBB2012B91
:1007F00007D94021022004F041F9194B07221A7051
:1008000078E7012AF5D1FFF741FFF2E7C821192067
:1008100003F04EF9124B08221A706BE7124B1B685B
:1008200013B90F4B07221A70192003F049F9002859
:100830003FF460AF0A4B09221A705BE704F060F9DD
:1008400001287FF457AF074B002283F88A2140210B
:10085000022004F013F9024B01221A704AE700BF8C
:10086000D9220020FC300020BC091442D8220020EC
:10087000D522002008B5114B1B78012B02D0022B8A
:1008800009D008BD4FF47A711A2003F011F90B4B0F
:1008900002221A70F5E71A2003F012F90028F0D0AE
:1008A000074B93F88731022B03D0054B022283F8C4
:1008B0008721024B01221A70E3E700BFD4220020F7
:1008C000FC30002008B52A4B1B78022B0DD0032BDF
:1008D00032D0012B00D008BD43F698211B2003F035
:1008E000E7F8234B02221A70F5E71B2003F0E8F823
:1008F000C8B1204B93F88831022B0CD01D4B93F8D4
:100900008931022B07D01B4B1D2283F8852103223E
:1009100083F8882103E0174B012283F88821144BC8
:1009200001221A70D7E7134B93F88831032BD2D1E9
:100930000F4B03221A70CEE70F4B1B6843B14FF4E5
:10094000FA611C2003F0B4F8094B02221A70C2E7C6
:100950001C2003F0B5F80028F6D0084B80221A605E
:10096000012302220721052006F080FDECE700BFED
:10097000D6220020FC300020BC091442FCA0004616
:1009800008B52C4B1B78013B032B18D8DFE803F08C
:10099000020F184E284B93F88931022B03D0254BB8
:1009A00002221A700BE0234B04221A7007E040F673
:1009B000B8311D2003F07CF81E4B03221A7008BDCD
:1009C0001D2003F07DF830B31B4B93F88531152BB8
:1009D00005D0192B11D0174B04221A70EFE7164BD4
:1009E000172283F88521154B80221A6001230222E9
:1009F0000721052006F03AFDEDE70F4B1B2283F897
:100A000085210E4B80221A60012302220721052036
:100A100006F02CFDDFE7084B93F88531152BCED07F
:100A2000192BCCD0034B04221A70C8E7014B0022CB
:100A30001A70C4E7D5220020FC300020FCA000463C
:100A400008B5FFF75DFDFFF73FFEFFF7BBFDFFF7C2
:100A500097FFFFF70FFFFFF735FF08BD08B5FFF75A
:100A6000EFFF08BD024A137818431070704700BFAB
:100A7000FE220020024A137823EA0000107070471B
:100A8000FE2200202DE9F843514C002584F85152F4
:100A900084F81E534FF00A0884F81C834FF01409A1
:100AA00084F81D932B4601220621052006F0DEFC6A
:100AB0002B4604220321284606F0D8FC2B460422AC
:100AC0000B21022006F0D2FC0127424B1F7084F854
:100AD000555284F8568284F85752022084F85802FE
:100AE0003D4E032386F8303184F8305184F831319B
:100AF00086F83131C42284F83821092384F8393149
:100B000086F8382186F8393184F83A2184F83B3167
:100B100086F83A2186F83B3184F83E5186F83E51FA
:100B200084F83F5186F83F5184F8379186F8379121
:100B300084F83D7186F83D71FFF79CFF274B1D80BF
:100B4000274B1F70274B1F70274B1F70274B1D70A3
:100B500084F8395386F83953254B1D70254B1D7089
:100B600084F8385386F83853234B1F70642384F875
:100B7000143386F8143384F8155386F815530C2370
:100B800084F8173386F817331C4A137084F81683D9
:100B900086F816831A4A82F80080F02284F8182317
:100BA00084F8198386F8182386F81983154A177074
:100BB000154A1570A375B37584F8BE3086F8BE303B
:100BC00084F81A5386F81A53E575F575BDE8F8836D
:100BD000FC300020DC220020D02A0020F622002059
:100BE00003230020F222002002230020EC22002018
:100BF000F9140020E422002004230020F122002028
:100C0000F0220020DD220020F422002010B5574BF6
:100C10001B78013B082B0DD8DFE803F0050D1622E9
:100C2000414D9689A30064211F2002F041FF4F4BE4
:100C300002221A7010BD1F2002F042FF0028F9D0D6
:100C40004A4B03221A70F5E7494B93F886311BB9DA
:100C5000464B04221A70EDE7444B09221A70E9E76B
:100C6000434991F8722091F8733042EA0322414BD4
:100C70001A8091F8383191F8391143EA01233E493D
:100C80000B809A4207D83A4B012283F83E21374B1A
:100C900005221A70CEE7354B09221A70CAE703F015
:100CA0002FFF0128C6D18021022003F0E7FE2F4B41
:100CB00006221A70BEE72E4B93F8722093F8731039
:100CC00042EA01222B490A8093F83A0193F83B113A
:100CD00040EA01202949088093F8384193F83911F6
:100CE00044EA012424490C8093F8373103EB830351
:100CF000590089B2224B1980824214D91C4B93F8B7
:100D00003F310A2B0FD01A4B93F88631012B02D0BA
:100D100021448A428EDB164B002283F83E21134B7E
:100D200007221A7086E7114B08221A7082E7154BCA
:100D300080221A60002304220721052006F096FB7A
:100D40000A4B09221A7075E703F0DAFE01287FF4D6
:100D500071AF8021022003F091FE044B09221A702A
:100D600068E7024B01221A7064E700BF02230020EB
:100D7000FC300020EE220020FC220020F82200207F
:100D800000230020FCA000440223034A82F83231F1
:100D9000024A82F832317047FC300020D02A00200D
:100DA00008B5074B1B68DBB2064A1370012B03D052
:100DB0000120FFF75FFE08BD0120FFF753FEFAE7B1
:100DC0008C031442ED22002008B5214B1B78013B17
:100DD000042B07D8DFE803F00307131C30001C4B7B
:100DE00002221A7008BD0521084602F061FEFFF7D5
:100DF000CBFFFFF7D5FF164B03221A70F2E7052051
:100E000002F05EFE0028EDD0114B04221A70E9E7D3
:100E1000104B1B68DBB2104A1370012B07D00F4B2D
:100E2000022283F831210A4B01221A70DAE70B4BB8
:100E3000032283F83121F6E703F062FE0128D1D1C5
:100E40008021022003F01AFE014B01221A70C9E72B
:100E5000F222002098211442F3220020FC300020CE
:100E600008B5274B1B78013B062B0BD8DFE803F0B6
:100E7000121604403C0B4400224B08221A60204BFF
:100E800004221A7008BD204B08221A601C4B07224E
:100E90001A70F7E71A4B02221A70F3E71B4B93F80C
:100EA00030311B4A92F83021934217D0012B0AD0DF
:100EB0000223164A82F83031154A82F83031104B3D
:100EC00003221A70DEE70323104A82F83031104AF9
:100ED00082F830310A4B05221A70D3E7FFF760FF22
:100EE000074B01221A70CDE7054B06221A70C9E79D
:100EF000034B07221A70C5E7014B01221A70C1E7A4
:100F0000032300200CA000440CA00046FC3000206D
:100F1000D02A002008B50C4B93F83D310B4A92F8CB
:100F20003D2193420AD0012B09D00220FFF7A2FDF8
:100F3000054B93F83D21054B83F83D2108BD022068
:100F4000FFF790FDF4E700BFFC300020D02A00201E
:100F500008B54A4B1B78013B062B0CD8DFE803F0A1
:100F6000040C1C2535778A00454B002283F8152395
:100F7000424B02221A7008BD414B93F81633414A86
:100F800013704FF47A7101FB03F1292002F090FDF8
:100F90003A4B03221A70EEE7292002F091FD002857
:100FA000E9D0364B04221A70E5E7354B93F88631C9
:100FB0001BB9324B05221A70DDE7304B02221A7042
:100FC0002F4B002283F81523D5E72D4B93F8721091
:100FD00093F8732041EA02212B4A118093F81823D9
:100FE00093F8190342EA00222848028093F8153347
:100FF000012B13D0914223D8214B93F81723244B74
:101000001B789A4202D9013321490B70204B1B787F
:101010009A4211D8194B06221A70ACE7184B93F874
:1010200014331A44914203DD154B002283F8152333
:10103000124B02221A709EE7104B02221A709AE796
:10104000134B00221A700D4B02221A7093E703F023
:1010500057FD01288FD18021022003F00FFD084B9E
:10106000012283F815230A4B00221A70034B072232
:101070001A7080E7014B02221A707CE7DD22002003
:10108000FC300020F0220020EE220020DE22002092
:10109000F122002010B501240C4B1C7006F008FD55
:1010A0000B4B1860000A0B4B83F81B0306F0FAFC8D
:1010B0002146094805F004F90849CC700023CB719A
:1010C00008230B72064806F000FE10BDF422002033
:1010D00018150020FC30002030053E0004100020D0
:1010E0000020054008B53E4B1B78013B072B08D874
:1010F000DFE803F004080C2D36446571384B0222FA
:101100001A7008BD364B03221A70FAE7354806F00C
:10111000CDFD6421302002F0CBFC314B04221A704B
:10112000314B1B78272B02D801332F4A13702E4BDB
:101130001B78272BE5D9282BE3D101332A4A1370DA
:101140002A4B0C221A70264B07221A70D9E730203E
:1011500002F0B6FC0028D4D0214B05221A70D0E74B
:10116000224B93F81A33092B03D01D4B06221A7019
:10117000C7E71D4A137801331370FAE71B4B93F846
:101180001B3313F0080F03D0184BDB7D022B07D95C
:10119000164B9B7D0C2B09D0114B08221A70B0E71F
:1011A0000133124AD37501F04FFDF1E70F4B0D22C9
:1011B0009A7583F8BE200A4B07221A70A1E703F044
:1011C0009FFC01289DD10821022003F057FC044B0D
:1011D00008221A7095E7024B03221A7091E700BFAC
:1011E000F42200200020054015150020FC300020CE
:1011F000124B93F88631012B0BD002230F4A82F851
:1012000032310F4A82F832310E4B4FF400621A60CD
:1012100070470D4B1B78002BEFD1084B93F83D31F5
:10122000002BEAD10323054A82F83231044A82F8BE
:101230003231064B4FF400621A607047FC300020D8
:10124000D02A00206CA00044ED2200206CA00046B3
:1012500000B585B055238DF80430AE238DF80530E8
:1012600000238DF80630DB228DF8072001228DF84F
:1012700008208DF80930104B5A7A8DF80A209A7B95
:101280008DF80B20DA7B8DF80C201B7C8DF80D304F
:101290000A4B1B788DF80E300A210DF1050000F085
:1012A0000FFA8DF80F00022201A90C20FEF79AFF19
:1012B00005B05DF804FB00BFFC30002000150020E5
:1012C00070B5634B1B78013B062B46D8DFE803F073
:1012D000043E466E7AB2A6004FF4FA61052002F091
:1012E000E7FB5C4B1A780132D2B21A705A490B787C
:1012F0000133DBB20B70594981F8573291F856121D
:101300008B4205D3564B1978564B1B7899420FD018
:10131000524B93F858329A4206D34E4B00221A7021
:101320004F4B1A784F4B1A70494B02221A7014E037
:101330004A4B93F858329A42EAD30023454A137035
:10134000454A1370424B06221A7006E0012106201E
:1013500002F0AEFB3E4B03221A7070BD424B1B687D
:1013600013F0FF0F1AD1414A1388013313803F4B0A
:101370001A8841F287339A4214D93C4B00221A80D2
:10138000334B06221A7001F077F80028E5D00020D0
:1013900001F078F82E4B06221A70DEE7334B00225C
:1013A0001A80E4E72A4B04221A70ECE7052002F0C9
:1013B00087FB18B1264B05221A70CEE7244B022278
:1013C0001A70CAE701F064F8294E306001F066F83F
:1013D000284D286001F068F8274C206001F046F89D
:1013E0001E4B58723268C2F303419972110AD972C6
:1013F0001A73224A12785A732A68C2F30341997306
:10140000110AD9731A742268C2F303415974110A7C
:101410009974DA740E4B07221A709EE70F4B93F8FB
:101420005532012B03D00A4B01221A7095E7FFF7C2
:101430000FFFF8E7114A137801331370104806F0D4
:10144000D3F800F0A1FF024B02221A7085E700BF1B
:10145000DC2200201415002012150020FC30002092
:101460000015002013150020A815144210150020A7
:1014700004150020081500200C150020011500207F
:1014800000C0004010B5524B1B78052B38D8DFE860
:1014900003F003153876569600234E4A13604E4AE1
:1014A00013804E4B93F88631012B29D04B4B93F888
:1014B00051322BB3464B01221A7021E0474B93F86F
:1014C0008631012B03D0454B93F8513213B9404B71
:1014D00000221A70414C94F81D334FF47A7101FBCD
:1014E00003F1322002F0E4FA94F81C334EF6602146
:1014F00001FB03F1312002F0DBFA354B02221A70B6
:1015000010BD364B93F88631012B03D0334B93F843
:1015100051321BB92E4B00221A70F1E7312002F034
:10152000CFFA18B12A4B04221A70E9E7322002F0F0
:10153000C7FA0028E4D0264B03221A70E0E7264BB6
:101540001A88244B1B68B3FBF2F3244A82F81E333B
:101550001B0A82F81F3313F0FF0F03D113461A2220
:1015600083F81F234EF66021332002F0A1FA184BB6
:1015700005221A700821022003F080FAC0E703F068
:1015800011FC144A136818441060134A138801337D
:101590009BB21380B0FBF3F0104B83F82003000ADA
:1015A00083F8210393F81D334FF47A7101FB03F1A3
:1015B000322002F07DFA064B02221A70A0E7332097
:1015C00002F07EFA00289BD0014B00221A7097E7A8
:1015D000FA220020FC14002016150020FC30002008
:1015E00008B5FFF797FCFFF73BFCFFF7EDFBFFF7B4
:1015F0000DFBFFF7FDFDFFF763FEFFF743FFFFF76E
:10160000A7FC08BD10B400240FE05B00DBB2C1B240
:101610004B40013AD2B22AB113F0800FF5D15B00F2
:10162000DBB2F6E7054A13550134FF2C02DCE3B2C6
:101630000822F0E75DF8044B704700BF0827002040
:1016400010B4002410E05B009BB281B24B40013A21
:10165000D2B22AB113F4004FF5D15B009BB2F6E78A
:10166000064A22F814300134FF2C04DCA3B21B021A
:101670009BB20822EDE75DF8044B70470823002079
:1016800010B4002410E05B009BB281B24B40013AE1
:10169000D2B22AB113F4004FF5D15B009BB2F6E74A
:1016A000064A22F814300134FF2C04DCA3B21B02DA
:1016B0009BB20822EDE75DF8044B70470825002037
:1016C00000231A468B420DD210B4C45C6240064C13
:1016D000A256D2B20133DBB28B42F6D310465DF88C
:1016E000044B7047184670470827002000231A460D
:1016F0008B4210D230B4C45C84EA1224074D35F911
:10170000144084EA022292B20133DBB28B42F2D35C
:10171000104630BC70471846704700BF08230020B1
:1017200000231A468B4210D230B4C45C84EA1224DF
:10173000074D35F9144084EA022292B20133DBB23C
:101740008B42F2D3104630BC70471846704700BF3A
:101750000825002070B59F4B1B78013B0B2B10D840
:10176000DFE813F00C00100024002D0035003E00CF
:101770005C006500EE00170164017801954B0222C0
:101780001A7070BD944B1B78012B03D0914B04222F
:101790001A70F6E7904B00221A70904B19680320DC
:1017A00002F086F98B4B03221A70EAE7032002F05D
:1017B00087F90028E5D0874B04221A70E1E7884BAF
:1017C0001968042002F074F9824B05221A70042073
:1017D00002F076F90028D4D07E4B06221A70D0E7AA
:1017E000804A92F80813804B196092F8003392F8FF
:1017F000042313437D4A136000237D4A13607D4A0E
:1018000013607D4A13607D4A13707D4B1968032075
:1018100002F04EF96F4B07221A70B2E7032002F074
:101820004FF90028ADD06B4B08221A70A9E7734B13
:101830001B7801229A4070490A606B4909680A4284
:1018400062D003F138004400664911F810000134F9
:101850000C5D40EA04206B4C208003F11804650005
:1018600011F8144001354D5D44EA0524664D2C8085
:1018700003F12806750011F816600135495D46EA46
:101880000121624D2980012B0CD0A04203D2584D7A
:101890002C6814432C60884236D9564801680A43A4
:1018A000026031E04FF63775AC4237D804F1C80515
:1018B000574E3580C82936D9A1F1C805554E358017
:1018C000A04207D3524C2488A04207D2524C24682D
:1018D000224203D0464D2C6814432C60444C2568AA
:1018E0004D4C2560884207D84A490988884207D963
:1018F0004A4909680A4203D03E4801680A43026027
:101900003C4A1168454A11600133DBB23B4A13700F
:10191000072B0CD92F4B09221A7032E73C4D4FF69A
:10192000FF762E80C6E73B4D00262E80C8E7344B5D
:101930001968032002F0BCF8264B07221A7020E732
:101940002B4B1968274B93F800230A4383F8002395
:10195000284A106893F80423024383F8042311B93A
:1019600010B1012100E00121204B1B6823B909B906
:10197000002302E0012300E00123DBB2284A1370B8
:10198000184A82F80C1382F80D33124B0A221A708F
:10199000F7E6144B93F80C33224A92F80C23934247
:1019A00005D0204A82F80C331F4B01221A700D4BD0
:1019B00093F80D331B4A92F80D23934205D0194A30
:1019C00082F80D33184B01221A70024B0B221A7049
:1019D000D7E600BF30280020162800200C28002061
:1019E00010280020FC30002040280020382800204B
:1019F000342800202C280020182800200828002047
:101A0000442800203C2800202828002020280020EE
:101A10000A28002014280020242800201C28002048
:101A20001C150020D02A00201D1500200B4B1B7810
:101A3000012B03D00A4B0C221A70A2E603F060F8C7
:101A40000128F7D1054B00221A702021022003F053
:101A500015F8EFE7024B01221A7092E61D150020DF
:101A600030280020014B1870704700BF302800203C
:101A700008B500238BB10D4B1A680D4B83F8082372
:101A800001200C4B18700C4B42F210721A600B4B79
:101A900000221A70FFF7E6FF08BD03F542720849FD
:101AA000002088540133DBB2E4E700BF10100020AF
:101AB000FC300020162800200C2800201D150020D6
:101AC000D02A00202DE9F04F83B0994690F800A06D
:101AD00083F800A04378009389F80130837801935C
:101AE00089F802300330033A52B200231F469C4665
:101AF0009E463FE013464CE07600F6B215F0800FAC
:101B000009D16D00EDB214F0800F07D16400E4B28A
:101B100084F01B040AE046F00106F2E745F00105F7
:101B2000F4E746F001061BE06400E4B20132D2B2F1
:101B3000072A1DD810F0010F09D08EEA040E5FFAB3
:101B40008EFE8CEA050C5FFA8CFC7740FFB24008F1
:101B500016F0800FD0D17600F6B215F0800FE0D1EC
:101B60006D00EDB214F0800FDED045F00105DBE72B
:101B70004246584602F1FF384FFA88F8002A0DDD38
:101B80005A1ED2B2002BB5D10C784D788E78033125
:101B9000022300F1010B00780022C9E78AEA0E0E49
:101BA00089F800E0009B83EA0C0C89F801C0019BD6
:101BB0007B4089F8023003B0BDE8F08F08B504F02F
:101BC000CFF80B4B162283F83A23002283F83B23ED
:101BD000802183F8F8120C2283F8F92283F8FA1294
:101BE00083F8FB220123034A1370034A137008BDD4
:101BF000FC300020702800205828002008B5174B22
:101C00001B78013B052B0CD8DFE803F0030C150B08
:101C10000B244FF47A71202001F04AFF0F4B02226F
:101C20001A7008BD202001F04BFF0028F9D00B4BA3
:101C300003221A70F5E704F0C1F840B2084B18709F
:101C4000084B83F83A03001283F83B03034B01224D
:101C50001A70E6E7014B01221A70E2E758280020CB
:101C60006C280020FC30002010B5914B1B78013B04
:101C7000062B10D8DFE813F00700100019008200CF
:101C80008A00F300FB004FF47A71212001F010FF6D
:101C9000874B02221A7010BD212001F011FF00288D
:101CA000F9D0834B03221A70F5E7824C94F87A003E
:101CB00094F87B3040EA032000B27F4B18807F4BC2
:101CC00040F6BC421A800EF07FF96BA3D3E90023E3
:101CD0000EF02EF802460B4669A1D1E900010EF084
:101CE00007FB774BC3E900010022764B0EF01EF88C
:101CF00002460B4664A1D1E900010EF0F9FA0EF09C
:101D00008FFC714A1060714AA2FB00239A0984F883
:101D1000FC229B0B84F8FD320EF046F95AA3D3E95E
:101D200000230EF0E5FA0FF0C5F859A3D3E900231C
:101D30000EF0B4F958A3D3E900230DF0F9FF0246E1
:101D40000B4657A1D1E900010EF0D2FA0EF040FC8B
:101D500000B20EF039F954A3D3E900230DF0E6FFE9
:101D60000EF036FC00B25A4B188084F8F8020012CC
:101D700084F8F9024E4B04221A708CE70A212120C4
:101D800001F096FE4A4B05221A7084E7494C94F8FC
:101D90007C0094F87D3040EA032000B2464B188066
:101DA000464B40F6BC421A800EF00EF932A3D3E93E
:101DB00000230DF0BDFF02460B4631A1D1E9000121
:101DC0000EF096FA3E4BC3E9000100223D4B0DF0A8
:101DD000ADFF02460B462CA1D1E900010EF088FAB6
:101DE0000EF01EFC384A1060384AA2FB00239A0904
:101DF00084F8FE229B0B84F8FF320EF0D5F822A364
:101E0000D3E900230EF074FA0FF054F820A3D3E9BD
:101E100000230EF043F920A3D3E900230DF088FF3F
:101E200002460B461EA1D1E900010EF061FA0EF048
:101E3000CFFB00B20EF0C8F81BA3D3E900230DF0CE
:101E400075FF0EF0C5FB00B2224B188084F8FA0231
:101E5000001284F8FB02164B06221A701BE70A21B7
:101E6000212001F025FE124B07221A7013E7104BB8
:101E700001221A700FE700BF7B14AE47E17A843F5E
:101E8000000000000078A94000000000006AF8404F
:101E90006666666666A2724000000000009AB04066
:101EA00000000080C1553341666666666612714067
:101EB00070280020FC300020482800205A280020EC
:101EC000602800200000F03F68280020D34D6210F9
:101ED0006E2800205C28002008B5FFF78FFEFFF772
:101EE000C3FE08BD08B5104B1B787BB10F2B0CD877
:101EF000013B0E4A1278934207D00D4A92F8CD303A
:101F0000013382F8CD3002F03BF808BD074B1B7857
:101F10000F2BFAD0064A92F8CD30013382F8CD303B
:101F200002F02EF8F1E700BF4C3C0020843F002077
:101F3000FC30002038B51E2001F0C2FD18B1774BEF
:101F4000002283F8B520764B1B78013B032B00F26F
:101F5000E480DFE813F004001500CF00DF006F4BD2
:101F600093F8863143B16D4B93F8B730012B03D012
:101F70006B4B00221A70D0E0694B02221A70CCE041
:101F8000664B93F8B630002B40F0A580644B1B786D
:101F9000022B00F0A780614B93F82F33012B40F008
:101FA000BC80604B1B78022B40F0B7805C4B1B78E9
:101FB000032B00F09B805B4B04221A70ADE0574B63
:101FC000D3F8D830584A1360584A1268934259D00F
:101FD000574B1B78FF2B03D0564A525D93425BD080
:101FE000534B1978534A5155FF221A700134E4B209
:101FF0004A4B93F8B630A3426FD9254604F5807357
:10200000464A52F82330494A1360002BEED04A4A20
:1020100012685340C3F31303002BE7D13F4B93F8EF
:10202000CF30012B4ED1424B1B78FF2BD0D0414AF1
:10203000125D9342CCD040F6B8311E2001F038FD3D
:10204000374B03221A70354B93F8D730002BBFD093
:10205000022BB4D0012BBBD1384A13680133136073
:102060002E4AC2F8DC3001F069FF354B1A78354B47
:102070001B789A42ACD0FFF735FF314B1A78314BC1
:102080001A70A5E72D4A136801331360234AC2F87A
:10209000DC3001F053FF9BE7294B1A78294B1B7862
:1020A0009A429DD0FFF71EFF254B1A78254B1A70D8
:1020B000224A136801331360184AC2F8DC3001F079
:1020C0003DFF8DE740F6B8311E2001F0F1FC144BC6
:1020D00003221A708AE700248AE7174B4FF6FF7233
:1020E0001A6053E70E4B00221A7054E70D4B03227F
:1020F0001A7012E002F004FD01280ED1074B0122F4
:1021000083F8B5200821022002F0B8FC044B042219
:102110001A7002E0024B00221A7038BDFC30002019
:10212000A028002080280020982800209C2800203B
:1021300034290020A4280020902800208428002092
:102140004C3C0020843F0020002304E0044AFF218F
:10215000D1540133DBB213F0800FF7D0704700BFCA
:10216000A428002008B50022114B1A70D921114B68
:102170001970114B83F8B8101C211048018083F8A6
:10218000BA1083F8BB200E480180062183F8BD10E9
:10219000082183F8B1100B490A700B490A7001221B
:1021A00083F8CF2083F82F23FFF7CEFF08BD00BFB1
:1021B000A028002088280020FC3000202C290020A6
:1021C0008E2800202E29002096280020454B93F8C9
:1021D000D730454A92F8D72093420CD0424A82F831
:1021E000D7300023414A1360414A13603D4A82F8C8
:1021F000CC3082F8CD303B4B93F8BA203A4B93F871
:10220000BA309A4208D03B490B8803F47F4313430A
:102210000B80354B83F8BA20324B93F8BB30324AEF
:1022200092F8BB20934207D032490A7842EA03224F
:102230000A802D4A82F8BB302A4B93F8B2302A4AE2
:1022400092F8B220934204D0012B33D0264A82F870
:10225000B230244B93F8B030234A92F8B020934226
:102260000BD0012B2AD01F4B022283F8B0201D4B2C
:1022700093F8B0201C4B83F8B0201A4B93F8BD3074
:10228000194A92F8BD20934202D0174A82F8BD3015
:10229000144B93F8BC30144A92F8BC20934208D0F7
:1022A000032B17D0042B19D0022B0FD00E4A82F823
:1022B000BC307047104A01211170C7E70E4B012254
:1022C0001A70084B032283F8B020D0E70B4A002194
:1022D0001170EBE70A4A00211170E7E7094A002173
:1022E0001170E3E7FC300020D02A00208428002071
:1022F000883F00202C2900209528002089280020D4
:10230000962800202E29002008B5FFF713FEFFF7BE
:102310005DFF08BD08B5044B01224FF47A7108F047
:10232000EFFC01F0D7FB08BD1523000008B5012123
:10233000084803F0C5FF0121074803F0C1FF012150
:10234000064803F0BDFF01221146022004F0DEFA28
:1023500008BD00BF0082040000250A0030053E00D1
:10236000064A074BD363136C43F4803343F02403D2
:102370001364044B4FF400321A60704700C00040F1
:102380002400010000E100E030B585B01C4B6D4633
:102390000FCB85E80F001B4B029301230B220A2170
:1023A000032005F063F801230B221146032005F0FA
:1023B0005DF8154C03236364A36C23F01F0343F003
:1023C0001303A364A36C23F4F85343F48853A36466
:1023D0002946204605F0ECF800230C4A13700C4AFD
:1023E00013700C4A137068236361FE23A361236892
:1023F00043F016032360FFF7B3FF05B030BD00BF05
:10240000101401001F100F0000C00040A02A00207F
:10241000A12A00203829002000B587B06823ADF834
:1024200004300123ADF806300C4B02930C4B1B78A3
:10243000ADF80C300B4B04930A23ADF8143001A90E
:10244000094805F059FA02E0074805F0DFF80128CD
:10245000FAD0FFF785FF07B05DF804FB14100020E9
:102460001A100020C42A002000C00040014B187838
:10247000704700BF25150020014B1878704700BF3A
:10248000942A0020014B1870704700BF942A002046
:10249000014B1868704700BFB02A0020014B186834
:1024A000704700BFFC360020014B1868704700BF22
:1024B0009C2A002030B4864A536B86490B60906892
:1024C00085490860D168854A1160854C2278854D20
:1024D00045F82230844D45F82200844D45F82210FD
:1024E0000132D2B22270092A02D922460024147085
:1024F00011F4007F08D07E4A13607E4A10607E4A45
:1025000011607E4A0121117013F0040F00F0B780B2
:102510007B490A7801320A706D4A0421D163D2697D
:1025200012F0010F00F09C8069490A6C42F04002F1
:102530000A64744A0021117013F0100F03D172491C
:102540000A7801320A70714A12887149895C604ABE
:10255000D16213F0400F0DD05D484022C26369493B
:102560000A780132D2B20A70684909880A44684977
:102570008A5CC26213F0100F02D0554A1021D16359
:1025800013F0010F02D0524A0121D16313F0020F60
:1025900002D04F4A0221D16313F0080F02D04C4AF7
:1025A0000821D16313F4807F03D0494A4FF480712E
:1025B000D16313F4007F03D0454A4FF40071D16317
:1025C00013F4806F03D0424A4FF48061D16313F457
:1025D000006F03D03E4A4FF40061D16313F4805F73
:1025E00003D03B4A4FF48051D16313F4005F03D012
:1025F000374A4FF40051D16313F4804F03D0344A6B
:102600004FF48041D16313F4004F03D0304A4FF4AC
:102610000041D16313F4003F03D02D4A4FF4003141
:10262000D16313F4802F03D0294A4FF48021D16362
:1026300013F0800F02D0264A8021D16313F4803F2B
:102640000CD0234B4FF48032DA631A6C22F0600214
:102650001A6400232F4A13702F4A137030BC70473E
:102660001B4A116C41F0200111642A4901200870B5
:10267000D1692A4A1170284A0021117069E713F0C4
:10268000200F3FF466AF124A2021D163D46922495A
:102690000A78234884540132D2B20A7021490A7060
:1026A000022A0CD0022A7FF654AF501E033A174973
:1026B00009880A441A49085C1549885449E70146C3
:1026C00000784A7842EA002210490A8041E700BFB8
:1026D00000C00040902A0020982A0020AC2A002048
:1026E0001E1500203C290020642A0020D030002044
:1026F000B02A0020FC3600209C2A0020942A0020CA
:10270000001500202415002025150020BC2A0020DB
:10271000FC300020A02A002038290020A82A002010
:10272000C42A0020BE2A002008B50B4A136C0B49AE
:102730000B60936413F0010F0DD0094B1A78094B0D
:102740001B789A4207D0591C064A1170064AD15C80
:10275000014805F0A5FA08BD00000140B82A002094
:1027600034210020011E00200820002008B505F0BB
:102770003DFC084B186000B9FEE74FF0011108F06E
:1027800001FE0022044B1968024B186808F0C0FCD7
:1027900008BD00BF20150020D4100020000000005C
:1027A00080B58AB007F08CF90121654803F088FDF7
:1027B0000121644803F084FD634B01265E641A68BE
:1027C00042F480721A60614A136843F4F84313605C
:1027D0005F4C06AD04F110030FCB85E80F002846CF
:1027E00004F088FD00275B4B1F705B4B1E70FFF7EA
:1027F0009DFDFFF7C9FD02F04BF9FDF74BFEFFF71A
:1028000037F902F0E9FCFEF73DF9FFF7ABFCFDF705
:1028100035FDFDF7C3FCFFF7D1F903F099F9FFF798
:10282000A5FF238C0AAE26F8143D4C4D314628688E
:1028300008F0B0FC3146286808F094FC3EA3D3E9C8
:102840000023CDE900234FF0FF324FF0FF3328681B
:1028500008F0A4FC3A463946286808F05FFA2434A8
:1028600094E803000390ADF810103D4B1B689B6883
:102870005A683C4B9A4202D802238DF80C3003A9C7
:10288000364B186808F0B7FC00B1FEE7334CFC216A
:10289000206808F09AFC01F009F92E4D0C232B70EA
:1028A00000F0BCFB00232B70FEF7F4FB2E4B012243
:1028B0004FF47A71206808F023FA11E0FFF7ACFDBD
:1028C0002A4B00221A7024E000F04EFE284A1378AA
:1028D00001331370264B1B78092BF5D9FEF702FC48
:1028E00007F0FAF802F064FA02F032F9FEF7B6F8EF
:1028F000FEF730FFFEF774FEFFF706FDFDF766FDFD
:10290000FFF7EAFA1B4B1B781BB9184B1B78002BFF
:10291000D4D1194B1B7813B1174B00221A70174BE7
:102920001B7813B1154B00221A70114B00221A703C
:10293000D0E700BFAFF30080488D812A110100006D
:102940004041050000250A0000000E40A4310E4061
:1029500010140100FC30002010420020201500203F
:10296000D4100020FFC99A3B15230000A12A0020A3
:102970008E3F0020A02A00201F1500201C100020E0
:1029800008B50121044B186808F0D8F900EBD070A5
:102990004010D83000B208BD201500202DE9F041CC
:1029A00090B0064617469846254A92F8B43201334D
:1029B00082F8B432002208F4807313431DD107F06B
:1029C0004002002313431DD107F0080200231343E4
:1029D00024D107F400020023134302D0194B012233
:1029E0001A7007F00054002554EA050302D0154B75
:1029F00001221A7010B0BDE8F0810022114608F0E3
:102A00008FFCDCE7FFF7BCFF0F4B18800F4BB3F9CF
:102A10000030002BD8D10D4B1880D5E740226946F5
:102A2000304608F0D5FC684600F012F8044A92F8E7
:102A3000B332013382F8B332024B01221A70C8E775
:102A4000FC3000201C100020C02A0020A22A0020F8
:102A5000F0B4194B1E883446184B1F887B1E9E42CB
:102A600004DA721C164909888A421FD09E4201D09E
:102A700000230DE0124B1B88DBB1002308E0C55C8E
:102A800004EB840291000F4A0A44D5540133DBB2AF
:102A90000D4A12789A42F2D80136B6B2013F3FB2DF
:102AA0003E40054B1E800020F0BC70474FF0FF30C9
:102AB000FAE74FF0FF30F7E72A1500201E1000203C
:102AC0002C150020643700201B1000200D4B1B88A4
:102AD0000D4A1288934211D003EB83018A000B49FF
:102AE0000A440B490A6001339BB20A4A1288013A30
:102AF00012B21340034A1380002070474FF0FF309A
:102B0000704700BF2C1500202A15002064370020D4
:102B1000643B00201E10002010B50B4C5523237081
:102B2000AE2363700023A370D923E37007232371BE
:102B30000A21601CFEF7C4FDE072022221460C202F
:102B4000FDF750FB10BD00BF1C37002010B50E4C28
:102B500055232370AE2363700023A370D923E37041
:102B600008232371094B93F8D522627293F8D73268
:102B7000A3720A21601CFEF7A3FDE0720222214627
:102B80000C20FDF72FFB10BD1C370020FC3000206F
:102B900010B5144C55232370AE2363700023A3702B
:102BA000D923E370092323710F4B93F89B206271A3
:102BB00093F89C20A27193F8D622E27193F8D52263
:102BC000227293F8D822627293F8D732A3720A2144
:102BD000601CFEF775FDE072022221460C20FDF715
:102BE00001FB10BD1C370020FC30002010B5144C38
:102BF00055232370AE2363700023A370D923E370A1
:102C00000A2121710F4B93F89B20627193F89C204D
:102C1000A27193F8D622E27193F8D522227293F82A
:102C2000D822627293F8D732A372601CFEF748FD77
:102C3000E072022221460C20FDF7D4FA10BD00BF3D
:102C40001C370020FC30002010B5134C5523237096
:102C5000AE2363700023A370D923E3700B23237189
:102C60000E4B93F81A23627193F81B23A27193F809
:102C7000D222E271DA7D22729A7D627293F8B630C6
:102C8000A3720A21601CFEF71BFDE072022221469E
:102C90000C20FDF7A7FA10BD1C370020FC300020E7
:102CA00008B54EF66021142000F002FF0023044A0C
:102CB0001370044A1370044A1370044A137008BD59
:102CC0003C150020301500203D1500202615002061
:102CD00010B504460C2803D1164BDB78D92B24D031
:102CE000FFF7DEFF144B1B78042B18D0134B1B8807
:102CF000134A1288934202D39B1A104A13800D4B39
:102D00005B781F2B0BD00F4B1B780F4A1278934226
:102D100002D201330B4A13700C4B00221A700222AC
:102D20000449E0B2FDF75EFA10BD024B1B79082B97
:102D3000D6D1D7E71C3700205E370020123700209D
:102D4000243B002009370020263B002000370020CC
:102D500010B50B4C552323701F2363701623A370EB
:102D60000023E37015222271EA226271A371062109
:102D7000601CFEF7A5FCE0710820FFF7A9FF10BD5D
:102D80001C37002010B50A4C55232370572363705D
:102D90000023A370E37023716371A3710621601C8B
:102DA000FEF78EFCE0710820FFF792FF10BD00BF18
:102DB0001C37002010B50A4C55232370752363700F
:102DC0000023A370E37023716371A3710621601C5B
:102DD000FEF776FCE0710820FFF77AFF10BD00BF18
:102DE0001C37002008B5034B37221A700120FFF76B
:102DF0006FFF08BD1C37002010B50C4C5523237005
:102E00001F236370B723A3700023E370084A12885E
:102E1000110A21716271A3710621601CFEF750FC3A
:102E2000E0710820FFF754FF10BD00BF1C370020E1
:102E30001237002010B50C4C552323701F236370EC
:102E4000B823A3700023E370084A12782271084A5D
:102E500012786271A3710621601CFEF731FCE071EB
:102E60000820FFF735FF10BD1C3700200937002070
:102E70000037002008B5114B1B78012B04D00F4BF5
:102E80001B78022B0DD008BD0D4A138801339BB26D
:102E90001380182BF3D9134600221A80FFF7ACFFDA
:102EA000EDE7074A138801339BB21380182BEAD948
:102EB000134600221A80FFF7BDFFE4E70137002028
:102EC000683B002008B52E2000F0FAFD00B908BDCF
:102ED00042F6E0612E2000F0EBFD314B1B88B3F58C
:102EE000E17F03D32F4B1B78002B39D12E4B1B785E
:102EF0000E2B09D92D4B1B78002B39D12B4B1B786E
:102F000013B90133294A1370274B1B780E2B02D8B3
:102F10000133254A1370264B1B78342B09D9254BD6
:102F20001B78002B34D1234B1B7813B90133214A72
:102F300013701F4B1B78342B02D801331C4A1370BB
:102F4000174B1B88B3F5E17F02D20133144A13807B
:102F5000144B1B78002BBAD10133124A1370B6E719
:102F6000FDF73EF9FFF7D8FD0D4B00221A80BDE7B3
:102F700000230D4A13700D4A1370FDF731F9FFF766
:102F8000E5FD0D4A92F8D932013382F8D932B5E71E
:102F90000023074A1370074A1370FFF755FEC2E774
:102FA0002E15002030150020201000203D15002097
:102FB0001D10002026150020FC30002010B5142024
:102FC00000F07EFD10B9FFF77DFF10BD4EF66021C9
:102FD000142000F06DFD0B4A13780133DBB213703F
:102FE000042B02D801F078FAEDE7FDF7F9F8002498
:102FF000054B1C70FFF7F6FE024B1C70034B1C8048
:10300000F0E700BF3C150020201000202E15002006
:10301000014B1870704700BF543B002038B5304B4F
:1030200030221A8000242F4B1C802F4B1C802F4BEA
:103030001C702F4B1C702F4B1C702F4B1C7001F001
:103040005BFC01F079F840F20931162000F030FD08
:1030500001252A4B1D702A4B1C702A4B1C702A4BD1
:103060004FF4A0721A80294B1C80294B4FF42F7209
:103070001A80284B1C80284B03221A80274B702271
:103080001A70274B60221A70264B0C221A80264B8E
:103090001C70264B1C70264B14221A70254B0622DE
:1030A0001A70254B1C80254B1C80254B83F8D5427C
:1030B00083F8D64283F8D74283F8D84229461220B3
:1030C00000F0F6FC48F25000FEF7BAFA48F20500AC
:1030D000FEF7D6FA9720FEF795FA1A4B1D7038BD09
:1030E0001E1000202A1500202C1500202815002075
:1030F0003C15002027150020381500204D3C0020ED
:103100004E3C0020F03D00201637002012370020F2
:1031100060370020563B0020283B00200A37002063
:1031200003370020243B002009370020003700200F
:10313000263B002018370020341500203A150020C7
:10314000FC3000205C37002030B482B0214A137874
:103150000133DBB21370042B02D9134600221A701C
:103160001C4B1B781C4A11781C4AD154002307E0E1
:103170001A4AD15C02AA1A4402F8081C0133DBB2D5
:10318000042BF5D9002419E00133DBB2032B13D84B
:103190005A1C02A9114411F8080C02A9194411F88B
:1031A000081C8842F0D202AD1D4405F8080C02A8A4
:1031B000024402F8081CE7E70134E4B2032C01D80A
:1031C0000023E3E79DF80220054B1A7002B030BCE3
:1031D000704700BF3115002002370020043700205F
:1031E0005D37002030B482B0254A13780133DBB25A
:1031F0001370042B02D9134600221A70204B1B783F
:10320000204A1178204AD154002307E01E4AD15C9D
:1032100002AA1A4402F8081C0133DBB2042BF5D9C8
:10322000002419E00133DBB2032B13D85A1C02A986
:10323000114411F8080C02A9194411F8081C88421D
:10324000F0D202AD1D4405F8080C02A8024402F8B1
:10325000081CE7E70134E4B2032C01D80023E3E7BC
:103260009DF80230094A1278934206D99B1ADBB2C4
:10327000074A137002B030BC70470023F8E700BF64
:1032800032150020143700200C370020543B00205A
:103290006237002010B58D4B1B78013B032B1ED8E5
:1032A000DFE813F004001E00BE0008010621122012
:1032B00000F0FEFB4EF66021132000F0F9FB002326
:1032C000834A1370834A1370834A1380834A13809E
:1032D000834A1370834A13707C4B02221A7010BD0C
:1032E000122000F0EDFB0028F9D00621122000F09A
:1032F000DFFBFFF745FB7C4B18707C4A92F82E30C1
:10330000013382F82E30FFF76DFF794B1A78794B35
:103310001A70794B19788A4261D870480388013352
:103320009BB203807548002404807548008883425E
:1033300008D26B4B1A78734B1B789A4224D2FFF752
:1033400099FDCCE76948012380F89A3080F89B10FA
:1033500080F89C206C4A138801339BB2138080F85C
:10336000D5321B0A80F8D632FFF712FCFFF70AFDB0
:103370000621122000F09CFB564A1470564A148015
:10338000524B03221A70D4E7584A022382F89A302B
:10339000594B1B7882F89B30554B1B7882F89C3038
:1033A0005A490B8801339BB20B8082F8D7321B0A33
:1033B00082F8D832FFF71AFCFFF7E4FC062112204E
:1033C00000F076FB0023434A1370434A1380444ABB
:1033D0001370444A13703D4B03221A70AFE7474AFB
:1033E000138801339BB21380494A1288934208D351
:1033F000424B00221A80394B1B8813B1013B374ADC
:103400001380384A13780133DBB21370414A1278C3
:10341000934294D30023334A1370314A13708EE7DA
:10342000122000F04DFB00283FF459AF0621122076
:1034300000F03EFBFFF7A4FA2B4B1870FFF7D2FE0B
:10344000354B1B782B4A13702B4A1278934229D99B
:10345000204B1B78632B02D801331E4A13701D4B7F
:103460001B78632B05D91C4B1A882C4B1B889A425E
:103470000BD2194B1B88294A1288934202D8013378
:10348000154A1380FFF7F6FC29E7FFF793FC0023AA
:10349000124A1380124A1370124A13700B4B012206
:1034A0001A70E6E70C4B1B88002BEBD0013B0A4A55
:1034B0001380E7E7122000F003FB00283FF40FAF72
:1034C000FFF778FC014B01221A7008E7281500204D
:1034D00027150020381500206C3B002012370020F3
:1034E000093700200037002014370020FC3000206E
:1034F0000A370020623B002062370020563B002044
:1035000016370020263B0020341500203A150020F5
:10351000283B0020183700200337002060370020A8
:1035200008B501210D4B186807F008FC0C4B1880FA
:103530000C4B1B78022B09D0032B01D0012B04D19B
:1035400000EBD0704010D83000B208BD0346002810
:1035500002DB43F38F00F8E7C31CFAE720150020D5
:1035600036150020F03D002010B54E4B1B78013B76
:10357000042B0CD8DFE803F0030C171E2400494B82
:1035800002221A704FF4E171122000F091FA10BD7E
:10359000122000F095FA0028F9D0FFF7D9FB414B33
:1035A00003221A70F3E7404B01221A703D4B0422AC
:1035B0001A70ECE7FFF76EFE3A4B05221A70E6E749
:1035C000FFF784FA68B9394A92F8B232013382F8C7
:1035D000B23201F079F8FFF7F1FC324B04221A7095
:1035E000D5E701F05BF910B901F06EF8F3E71620AA
:1035F00000F066FA0028EED040F20931162000F003
:1036000057FA2B4B1A78531EDBB2022BE3D8294B07
:1036100055211970012A20D0264BAE225A70254B15
:1036200000229A70DA701A7101225A71224B1B78AB
:103630000A2B03D8214B1A781F4B1A701E4B1A788D
:103640001E4B1A70FFF780FD1D4B1B781D4A127828
:10365000934205D99B1ADBB203E047225A70DEE79A
:103660000023144A9371FFF75BFF174BB3F9003047
:103670001A46002B14DB92100C4981F8E52003EB6D
:10368000D3735B10283B81F8E6300A4CA071062109
:10369000601CFEF715F8E0710820FFF719FB9AE7A8
:1036A000DA1CE8E75C37002028150020FC300020F9
:1036B000F03D00201C370020023700203315002089
:1036C0005D370020543B002036150020474B196819
:1036D0004A6C474BA3FB0203D01A03EB50039B0831
:1036E000C3EBC303D31A243331F81300024421F887
:1036F00013200023072B78D810B434E0591D48421A
:1037000001F0070100F0070058BF4142243132F8B0
:103710001140191D484201F0070100F0070058BF91
:103720004142243132F8111041EA044142F8231099
:103730002E4A116803F1240231F812405A1C5042FB
:1037400002F0070200F0070058BF4242243231F86D
:10375000122042EA044203F1080041F8202001331C
:10376000DBB2072B3ED8214A1068002140F8231015
:10377000126803F1080042F8201013F0010FBDD1C8
:10378000591C484201F0070100F0070058BF4142B0
:10379000243132F8110003F1240132F8111041EA0A
:1037A000004142F82310114A11681A1D504202F0DC
:1037B000070200F0070058BF4242243231F812409D
:1037C0005A1D504202F0070200F0070058BF424263
:1037D000243231F8122042EA044203F1080041F891
:1037E0002020BCE75DF8044B70477047703B002019
:1037F00025499224C1F12001C84170470B4B1A683A
:1038000052F82030083052F8200003449AB2180CC5
:1038100002FB02F100FB02F202EB514200FB00F05E
:1038200000EBD23003FB03F358407047703B00209D
:103830002DE9F04788B000230CE0614A126803F1DB
:10384000080152F8211008AA02EB830242F8201C5A
:103850000133DBB2072BF0D9594B1D682B6A286C5A
:103860000344584A13442B62686A00998B422CBF68
:103870000346431C544C23446B62A86A01998B4253
:103880002CBF0346431C51490B44AB62E86A029EBD
:10389000B3422CBF0346431C1344EB62286B039EC8
:1038A000B3422CBF0346431C23442B63686B049E26
:1038B000B3422CBF0346431C0B446B63A96B0598B2
:1038C00083422CBF0B464B1C1344AB63EA6B069937
:1038D0008B422CBF1346531C2344EB63079A93423D
:1038E0002CBF002301232B64002409E02046FFF7AE
:1038F00085FF08AB03EB840343F8200C0134E4B2EA
:10390000072CF3D9DDF80090079E10213046FFF711
:1039100071FF09EB0004DDF8188010214046FFF725
:1039200069FF20442860019D08214846FFF762FF97
:103930002844234B1C6830446060DDF808A0102147
:103940002846FFF757FF0AEB000710214846FFF70C
:1039500051FF3844A060039F08215046FFF74AFFFB
:1039600038440544E560DDF8109010213846FFF733
:1039700041FF09EB000510215046FFF73BFF2844AB
:103980002061059D08214846FFF734FF284407447D
:10399000676110212846FFF72DFF08EB0007102173
:1039A0004846FFF727FF3844A06108214046FFF74B
:1039B00021FF30440544E56108B0BDE8F08700BF51
:1039C000703B00204DD3344DD3344DD3344DD334DC
:1039D0000022072A19D830B40C4B196802F10805E7
:1039E00051F82500131D5C4203F0070304F007049F
:1039F00058BF634251F82330584041F82500013246
:103A0000D2B2072AE8D930BC70477047703B00201B
:103A1000194B1B6893F8441001F00301032909D8DE
:103A2000DFE801F002141B221A68D98AD86841EA3B
:103A300000414A4083F85820110A83F85910110CAC
:103A400083F85A10120E83F85B2070479A68D98B5E
:103A5000586941EA00414A40ECE71A69D988D869B7
:103A600041EA00414A40E5E79A69D989586841EA44
:103A700000414A40DEE700BF703B002010B50A4B12
:103A80001B6800241C64FFF721FE03E0FFF7D0FE53
:103A90000134E4B2032CF9D9FFF79AFFFFF7C8FE0F
:103AA000FFF7B6FF10BD00BF703B0020704700005D
:103AB000024B43F820100020704700BF7C3B0020E1
:103AC000034B53F820300BB10020704701207047A2
:103AD0007C3B00200A4B00221A7002E00133084AA6
:103AE0001370074B1B78332B09D8064A52F8232052
:103AF000002AF3D0013A034941F82320EEE770474A
:103B0000783B00207C3B002008B5164B55221A70EC
:103B1000B4225A70F0229A700022DA7003221A71CD
:103B20005871114A1268526CC2F304419971110A1A
:103B3000D9711A720D4A12685169C1F30440587262
:103B4000080A9872D972517A1973D18901F00F015C
:103B50005973D168090A9973D268DA731020FFF794
:103B6000B7F808BD1C370020703B0020503C0020F7
:103B7000054B1A6813781B0403F47023507843EA4A
:103B80000023907818437047643B002010B4154B15
:103B90001A6813781B0403F47023517843EA012355
:103BA00094781C43104B114A1A6000234FF0FF30E9
:103BB00004E038320C490A600133DBB2032B0DD824
:103BC000094A1268517A0129F3D1D168A142F0D192
:103BD000B1F1FF3FEDD058B20423EAE75DF8044BA2
:103BE000704700BF643B0020503C0020103D002087
:103BF00010B4124B1A6813781B0403F47023517825
:103C000003EB012394781C440D4B0E4A1A600023E9
:103C10004FF0FF3004E0383209490A600133DBB26B
:103C2000032B08D8064A1268517A0029F3D158B2FA
:103C3000D4600423EFE75DF8044B7047643B002039
:103C4000503C0020103D002008B5144B1868027845
:103C50001209C3780E2A02D0114B187808BD03F060
:103C6000060103F001030229F6D1002BF4D10379F8
:103C700003F02203222BEFD10821FDF737FDC0F31B
:103C80000F21064B1B681A7A9142E5D1C0B25B7ACC
:103C90009842E1D1024B06221A70DDE7643B002016
:103CA0005E37002010B50B4C04212068FDF71EFD87
:103CB000C0F30F2123681A79914202D0064B18787D
:103CC00010BDC0B25B799842F8D1034B03221A7041
:103CD000F4E700BF643B00205E37002010B50B4CBA
:103CE00004212068FDF71CFDC0F30F2123681A7919
:103CF000914202D0064B187810BDC0B25B79984251
:103D0000F8D1034B02221A70F4E700BF643B002095
:103D10005E37002008B55C230D4A03FB00200D4BE5
:103D200018600B234364002308E00B4A32F8131099
:103D300003F1240220F812100133DBB2072BF4D96F
:103D4000FFF79CFE034B1B680B225A6408BD00BFA3
:103D50000C3E0020703B00203C1401000F4BDB7830
:103D600003F00F03012B00D070470C4B1B79232B62
:103D7000FAD10A4B5B79493BDBB2012BF4D8074BF4
:103D80009B78802B05D0002BEED1054B00221A70BA
:103D9000EAE7034B01221A70704700BF1C3700206E
:103DA0003E15002010B5294B55221A70284B1B7860
:103DB000022B3AD0082B3CD0244BAE225A70254B14
:103DC0001968CC78214A94700B78D37048781071B8
:103DD00089785171204A92F8AB20012A2DD01F4AD0
:103DE00012788AB91B0403F4702343EA00230B43BF
:103DF0001B4A13601B4A1360174B93F8CF30012BFB
:103E000021D0164B01221A70104C174B1A88A27140
:103E100000221A800621601CFDF752FCE071082088
:103E2000FEF756FFFFF79AFF10BD084BAF225A70FE
:103E3000C5E7064B43225A70C1E70C4A1370507015
:103E40009170D470CBE70A4B1C70DAE71C37002066
:103E50005E370020643B0020FC300020A0280020BA
:103E60009028002024290020A22A0020083E0020BB
:103E70003429002010B5294B55221A70AE225A70F1
:103E8000274A1468E2789A702278DA7062781A7198
:103E9000A2785A71042305E09A1CE05C1F498854FB
:103EA0000133DBB2082BF7D91E4B1B78A3B91B4A91
:103EB0009179D3791B0443EA0163117A43EA012320
:103EC000527A1343184A1360184B93F8CF30012BE2
:103ED00011D0144B01221A70104C154B1A88E27243
:103EE00000221A800B21601CFDF7EAFB20730D20D5
:103EF000FEF7EEFE10BD094B9B7803F0F8030D4A68
:103F000013700A4B93F8D730012BE2D1034B1B7986
:103F100003F00F03084A1370DBE700BF1C370020D3
:103F2000643B0020A028002090280020FC300020C6
:103F3000A22A0020342900204C3C002010B50D4C52
:103F400055232370AE2363700B4B1B68DA78A27085
:103F5000D622E2705A7822719B786371074B1B88D6
:103F6000A3720A21601CFDF7ABFBE0720C20FEF788
:103F7000AFFE10BD1C370020643B0020A22A0020A9
:103F800010B5134B55221A70AE225A70114A12689E
:103F9000D1789970D521D97051781971917859716A
:103FA000042305E0991CD45C094844540133DBB276
:103FB000072BF7D9064C084B1B88A3720A21601CFB
:103FC000FDF77EFBE0720C20FEF782FE10BD00BF05
:103FD0001C370020643B0020A22A002010B51C4B97
:103FE00055221A70AE225A701A4A1268D178997006
:103FF0001178D9705178197191785971042305E0BD
:10400000991CD45C124844540133DBB2072BF7D916
:10401000114B1B787BB90E4A9179D3791B0443EA83
:104020000163117A43EA0123527A13430B4A136066
:10403000094B01221A70064C094B1B88A3720A21F6
:10404000601CFDF73DFBE0720C20FEF741FE10BD49
:104050001C370020643B0020A0280020902800206E
:10406000A22A002038B5174B55221A70AE225A707A
:10407000154A1268D17899701178D97054781C71EA
:104080009078587115799D715279DA710F4B1B78C0
:1040900053B9090401F4702141EA042101430C4B96
:1040A00019600A4B01221A70064C0A4B1B882372B6
:1040B0000821601CFDF704FB60720A20FEF708FE71
:1040C00038BD00BF1C370020643B0020A028002022
:1040D00090280020A22A002010B5134B55221A70F8
:1040E000C4225A70114A1468E2789A702278DA7001
:1040F00062781A71A2785A71042305E09A1CE05C78
:10410000094988540133DBB2092BF7D9064C084B17
:104110001B8823730C21601CFDF7D2FA60730E20FC
:10412000FEF7D6FD10BD00BF1C370020643B002009
:10413000A22A002000207047002301E00133DBB2F7
:10414000032BFBD970470000F8B50E46C508FFF7F2
:104150001DFD0446B0F1FF3F16D0012D33D0C4EB56
:10416000C403DA005B4B1A445B4B1A605C215B4B67
:1041700001FB04345A4B1C6004F14803002D38D174
:1041800005EB450400232FE0FFF732FD0446B0F1B4
:10419000FF3FE2D14F4A137C0133DBB21374032B90
:1041A00002D9134600221A744A4B93F91040C4EB0B
:1041B000C402D7001F44484B1F6001237B72FFF7E6
:1041C000D7FCF860C9E75C23444A03FB0423444A54
:1041D000136000221A64E0B2FFF79CFDBFE7E1180C
:1041E000F05C50540133DBB2022BF8D9082D4AD0D1
:1041F000F8BD022D10D805EB45070023022BF5D89A
:10420000F15C374800685C1C204490F858003B443F
:104210004140D154E3B2F1E7082DE7D8EA1E02EBA2
:104220004202991815F0010F11D0707894F8594096
:104230006040985433782A4A126892F858004340F4
:104240004B70B37892F85A205340CB70CEE7082DCC
:1042500012D0337894F85820534001F8013C737819
:104260001F4A126892F8590043408B70B37892F855
:104270005A2053404B70B9E7337894F85B20534091
:1042800001F8013CB2E7144B1868012343720B2379
:104290008361134A14686364124A1360002304E0C4
:1042A000C15C114AD1540133DBB2082BF8D9002389
:1042B0000DE003F1240234F8121003F10C0200EBBC
:1042C00042029180094A22F813100133DBB2072B16
:1042D000EFD98DE7103D0020503C00200C3E00201F
:1042E000703B0020743B0020043D0020F43D002082
:1042F00010B5194B55221A70C4225A70174A146807
:10430000E2789A702278DA7062781A71A2785A711B
:1043100022799A71FFF70EFF012800D010BD611DB0
:10432000E078FFF711FF0D4B1B685A790A4CE271D8
:104330009A792272DB7963720023A372E372084BCD
:104340001B8823730C21601CFDF7BAF960730E20E3
:10435000FEF7BEFCE2E700BF1C370020643B0020F4
:10436000A22A002070B582B00646C0EBC003D90077
:10437000334B1944334B19605C22334B02FB00333F
:10438000324A1360324A1568A87993F85840314A86
:1043900060401072E87993F8594060405072287A72
:1043A00093F85A4060409072687A93F85B304340CB
:1043B000D372FF231370FE235370002305E09A1C71
:1043C000EC5C244884540133DBB2052BF7D9214C33
:1043D00001AB09222046FDF775FB9DF80420637AA6
:1043E0009A4204D19DF80520A37A9A4207D030461C
:1043F000FFF78AFB3046FFF787FB02B070BD9DF8E0
:104400000620E37A9A42F2D155232370AE236370DB
:10441000237AA3700E4B1B681A7862F00F02E270C9
:104420005A7822719B7863710B4B1B88A37106210C
:10443000601CFDF745F9E0710820FEF749FCDCE758
:10444000103D0020503C00200C3E0020703B00201E
:10445000643B00201C370020A22A0020C0EBC000D3
:10446000C30008481844084B1860002307E0074AB7
:104470001268D15CC21882F82C100133DBB2092B10
:10448000F5D97047103D0020503C0020643B0020CF
:1044900010B4C0EBC000C4000C4B1C440C4B1C609F
:1044A0000023184601E00133DBB2092B0AD8E218D9
:1044B00092F82C10074A1268D25C9142F3D00A237A
:1044C0000120F0E75DF8044B704700BF103D00206D
:1044D000503C0020643B0020044B1B88B3F5B46FB4
:1044E00002D3024B00221A80704700BF003D00201B
:1044F00008B51520FFF7E4FA00B908BD4EF66021B3
:104500001520FFF7D5FA0A4B1B88B3F5346F0BD291
:104510000133074A1380074B1B88B3F5707FECD239
:104520000133044A1380E8E7FFF7D6FFF3E700BF43
:10453000003D0020543C0020F0B4194B1E88344646
:10454000184B1F887B1E9E4204DA721C164909888C
:104550008A421FD09E4201D000230DE0124B1B88DF
:10456000DBB1002308E0C55C04EB840291000F4A34
:104570000A44D5540133DBB20D4A12789A42F2D87C
:104580000136B6B2013F3FB23E40054B1E800020CF
:10459000F0BC70474FF0FF30FAE74FF0FF30F7E71D
:1045A0000E3D0020063E0020863F0020583C0020A3
:1045B0001B10002038B5C0EBC002D300294A1344B9
:1045C000294A13605C23294A03FB0023284A13600D
:1045D00045B22846FFF75CFF00283AD1002305E0EA
:1045E000FFF74CFA01E0FFF713FA23465C1CE4B234
:1045F0002F2B29D81E4B19684B6C1B4A1268506927
:10460000834221D203F57A7398421DD2537A012B4B
:104610001AD19369013393614A6C01324A64154996
:104620000B6801330B60144BA3FB0213DB0803EB95
:10463000430399008A42D3D012F0030FD3D1FFF77E
:10464000F7F8FFF7E5F9D0E72F2C06D82846FFF753
:1046500089FE2846FFF702FF38BD084B1868FFF7B0
:104660006BFFF6E7103D0020503C00200C3E002080
:10467000703B0020743B0020ABAAAAAA643B002038
:1046800010B50E4B1A68D3785B0303F4F813117955
:1046900043EA0123527942EA0304FFF777FA00283C
:1046A0000ADBC0EBC002D300054A1344054A13607D
:1046B0005C61C0B2FFF77EFF10BD00BF643B00200D
:1046C000103D0020503C002010B5FBF70DFE684B5C
:1046D00004221A70674B00221A70674B1868027820
:1046E0001409C37813F0010301D1072C17D00BB9BB
:1046F0000D2C45D00BB90E2C6ED0FFF7D3FA032842
:1047000040F092800F2C00F08880FFF74BFBFFF702
:10471000EFFE574B1B78042B00F08E8010BD037A00
:10472000427A110941EA031181721201C27223F027
:104730000F0303720921FCF7D9FF4F4B1B685A790D
:1047400012F00F0F03D19A790AB9DA7922B1C0F3C6
:104750000F22997A8A4209D0FFF7A4FA0328D6D10A
:10476000434B08221A70FFF71DFBD0E7C0B2DB7A7B
:104770009842F1D13E4B05221A70FFF77BFBC6E74A
:1047800002F00F020A2A13D00821FCF7AFFFC0F392
:104790000F21394B1B681A7A9142B8D1C0B25B7AAB
:1047A0009842B4D1324B05221A70FFF717FCAEE7DE
:1047B0000621FCF79BFFC0F30F212F4B1B689A7952
:1047C0009142A4D1C0B2DB799842A0D1284B0722F4
:1047D0001A70FFF747FC9AE7264B01221A70FFF781
:1047E00033FA06280CD0254B1B78012B0FD0224B17
:1047F0001B68DB7813F0040F0CD0FFF76DFC86E725
:104800001F4B1B78012BEED1FFF772FD7FE7FFF7FF
:1048100063FC7CE7FFF734FF79E7FFF7B7F9B0F106
:10482000FF3F7FF474AF70E7FFF758FA02287FF478
:104830006EAFFFF7B7FA6AE70E4B1B7853B9114B0F
:104840001B88114A1288934204D8104A12881344D4
:104850000C4A13800E4B1B780E4A1278934202D2F8
:1048600001330B4A13700C4B00221A7056E700BF3D
:104870005E3700207C3F0020643B00204E3C00203F
:104880004D3C00201237002016370020243B00202A
:1048900009370020263B0020003700200D4B1B88E5
:1048A0000D4A1288934211D003EB83018A000B4911
:1048B0000A440B490A6001339BB20A4A1288013A42
:1048C00012B21340034A1380002070474FF0FF30AC
:1048D000704700BF863F00200E3D0020583C00205E
:1048E000643B0020063E0020032801D8014B1870CD
:1048F000704700BFF03D002008B50F4B0F4A1A600B
:10490000002307E00C490A680020507238320A6020
:104910000133DBB2032BF5D9094B06221A800020A4
:10492000084B1880084B1880084B1880084B1880DB
:10493000FFF7F0F908BD00BF503C0020103D0020FB
:10494000063E00200E3D0020863F0020003D002056
:10495000543C00201D4A138801339BB21380072B5F
:1049600002D9134600221A80194B00221A80184BD4
:104970001A88072A28D810B406E00132144B1A808E
:10498000134B1A88072A1CD8104B1B88DB009BB2DC
:1049900010490B80981800F5D07044000E4911F8AA
:1049A000100001340C5D40EA04200C4C2080085CAF
:1049B00003F570731344C95C8842DED00649C854BD
:1049C000DBE75DF8044B7047704700BF963F00205F
:1049D0008E3F0020943F0020FC300020923F0020BA
:1049E00008B51D4B1B78023B032B08D8DFE803F00A
:1049F00002082330FFF7AEFF174B03221A7008BDE1
:104A0000164B93F886314BB9154B1A78154B1B781A
:104A10001A4203D1104B01221A70F0E74FF496713D
:104A20000220FFF745F8104B4FF480421A600A4B02
:104A300004221A70E3E70220FFF742F80028DED0D4
:104A40000A4B4FF480421A60034B05221A70D6E7D6
:104A5000014B01221A70D2E7903F0020FC30002069
:104A6000882800208C3F00203CA000463CA0004449
:104A7000014B1870704700BF913F0020024B187027
:104A8000024B1970704700BF903F00208C3F002000
:104A900010B50120FFF7ECFFFF210120FFF7EEFF2B
:104AA00000230BE003F5D07042001349042401F801
:104AB000104001320020885401339BB23F2BF1D9C2
:104AC0000D4A0023137153710DE00C4A52F8232054
:104AD00003F5D0746100084800F81420120A01316F
:104AE000425401339BB21A2BEFD9002304220E212A
:104AF000012002F0BBFC10BDFC3000204C14010072
:104B0000014B1878704700BF903F002008B50D4B4F
:104B100093F8C8320C4A92F8C822934207D0012B6E
:104B200006D0084B93F8C822074B83F8C82208BD6B
:104B3000064B19780220FFF7A1FF024B002283F8F1
:104B4000C822EEE7FC300020D02A00208828002070
:104B500010B5002404E0154B02221A700134E4B2AF
:104B6000052C21D8114B1B78013B032BF6D801A251
:104B700052F823F0574B0000854B0000914B00008A
:104B80009D4B0000FFF72CFF084B03221A70E5E74E
:104B9000FFF7E0FE054B04221A70DFE7FFF7B6FFD0
:104BA000024B01221A70D9E710BD00BF913F0020CF
:104BB000F0B4274B1A782749885C431CDBB28B542E
:104BC00002EB8201014424480468244840F8214053
:104BD000042B02D91F4B002199540024264623465A
:104BE00001E00133DBB2032B11D81C4D02EB820133
:104BF000C81855F820005F1C394455F82110884228
:104C000000D9FEB28842ECD25C1CE4B2E9E7002095
:104C10000546034601E00133DBB2032B0DD8B34256
:104C2000F9D0A342F7D002EB820119440B4F57F899
:104C300021100D440130C0B2EDE730B1B5FBF0F00A
:104C4000074B43F82200F0BC70470020F8E700BF94
:104C500044150020D03C00200C4200204841002098
:104C600020400020F8B50121204801F029FB002157
:104C70001F4801F0E5F91F4EF070002001F07EFAA8
:104C8000B0701D4B00241C7402279F700325DD703B
:104C90005D703570234601220421204602F0E6FBB8
:104CA000234601220E21284602F0E0FB2346012282
:104CB0002946052002F0DAFB234601220B2110468B
:104CC00002F0D4FB234601223946204602F0CEFBF7
:104CD000234601220521084602F0C8FB2346012293
:104CE0000F21284602F0C2FBF8BD00BF009204006D
:104CF0000024F400441000204C10002003680A68CF
:104D000002600B607047F8B505460F46002613E0B9
:104D10000134BB1B013BA3420DDD05EB840055F8BC
:104D20002420631C05EB830155F823309A42EFD908
:104D3000FFF7E4FFECE701367B1EB34201DD002400
:104D4000E7E7F8BD024B5A78024B53F82200704750
:104D5000C810002020400020024B9A79024B53F8E3
:104D600022007047C810002020400020002306E0E9
:104D7000044A52F82310044A42F823100133082B46
:104D8000F6DD704724410020AC3F002010B5FFF74E
:104D9000EDFF034C09212046FFF7B5FF206910BD48
:104DA000AC3F0020014B1868704700BF4015002041
:104DB000F8B5BD4B1B78013B0F2B16D8DFE813F07D
:104DC0001000160015004E005A00150015007D0059
:104DD000B000B700C10063001F019C01C601ED01D6
:104DE000FFF740FFB04B02221A70F8BD642111207A
:104DF000FEF75EFEAD4D284601F0A2F8AC4C204611
:104E000001F08CF953220021284601F0A2F8A94EA6
:104E1000307066220121284601F09BF8F0706C2268
:104E20000221284601F095F870709B220321284644
:104E300001F08FF8B070E36943F4A043E36101230C
:104E4000C4F890309C49204601F01CF929462046C0
:104E500001F0A1F8944B04221A70C6E71120FEF766
:104E60002FFE0028C1D0924B04229A608E4B0C2258
:104E70001A70BAE71120FEF723FE0028B5D08A4B3E
:104E80000C221A70B1E78A4BDB6813F4003FACD0F8
:104E9000002408E08949864801F0CCF8884B43F8A3
:104EA00024000134E4B2032CF4D964211120FEF76C
:104EB000FFFD7D4B08221A7097E71120FEF700FED8
:104EC000002892D0794D284601F03AF8784C2046D7
:104ED00001F024F955220021284601F03AF8754ED8
:104EE00070716A220121284601F033F8307187225F
:104EF0000221284601F02DF8B071E36943F48043A4
:104F0000E3610123C4F890306B49204601F0BAF800
:104F10002946204601F03FF8634B09221A7064E7E6
:104F2000634B04229A60604B0B221A705DE71120DC
:104F3000FEF7C6FD00283FF458AF5B4B0B221A70FA
:104F400053E75B4BDB6813F4003F3FF44EAF0024A4
:104F500009E0251D5949564801F06CF8584B43F8B3
:104F600025000134E4B2022CF3D94F4B0D221A7004
:104F70003BE7534951F82450524B1B5D03F598739E
:104F80005A00514800F8135051F82410090A531CD4
:104F9000C1540134E4B2062C33D8042CE9D0484B78
:104FA00053F8242040F6E44303FB02F31B0C454E68
:104FB000315D464A52F8212002FB03F3444D45F887
:104FC0002430444B197055F82420434B1A60FFF7E6
:104FD000EFFD45F8240055F82420404FA7FB02328E
:104FE0009209315D38314800374E06F8112055F8E6
:104FF0002430A7FB03239B0B421CB354B9E70024C6
:10500000C9E7FFF79FFE0446FFF7A6FE0546201AF4
:105010000BF0A6FC324B1B78324A82FB0012C01701
:10502000C0EBE200304A42F82300072B38D80133A6
:105030002B4A1370FFF7AAFE2C4B1860214B1A79EC
:10504000244B1A70244B1860FFF7B2FD78284FD913
:105050007838264B1860254B1A681A4E317938314A
:105060004800194B03F81120120A411C5A542C44D1
:105070001A4AA2FB0424E009F2793832510003F8FD
:105080001200E40B4A1C9C5493F8722083F82620EB
:1050900093F8732083F82720034B0E221A70A4E69E
:1050A0000F4B00221A70C5E7104200204C10002060
:1050B000002000401440002044100020F83F002051
:1050C000D43F0020C8100020FC30002064100020D5
:1050D000E8410020441500200C420020D34D62100E
:1050E0003F150020676666662441002040150020B9
:1050F0002C4B00221A60AEE72B4B1B78022B06D8F4
:105100000133294A1370294B0F221A706DE6284A81
:1051100092F8703092F8712043EA0223254A1380F6
:10512000254A1268934206D200231F4A1370204A70
:1051300082F88631E7E7C8329342E4D91A4B00225D
:105140001A701B4B012283F88621DCE7184991F87D
:105150002C2091F82D3042EA0322184B1A80184B6C
:105160005B793833580011F813300130095C43EA99
:10517000012314490B809A420BD8134B00221A705A
:10518000114B1A780A4B83F82E23084B02221A700F
:105190002BE60D4B01221A70F2E7044B02221A7023
:1051A00023E600BF401500204A40002010420020A6
:1051B000FC3000200440002084100020C410002097
:1051C000C81000204840002021100020014B18701A
:1051D000704700BF0840002070B500222FE0530048
:1051E000DBB2594951F8221003F1600457480155C8
:1051F000C1F3072103F161040155554951F822100B
:1052000003F140040155C1F3072103F141040155A5
:10521000504951F8221003F130040155C1F3072120
:1052200003F1310401554C4951F8221003F15004A7
:105230000155C1F307215133C1540132D2B2072ABB
:10524000CDD90523454A1360404C84F8203300250E
:1052500084F82153424B4FF47A721A60E82384F8A1
:105260002233032384F8233384F8245384F825530A
:1052700001263C4B1E6084F8266384F8275384F88B
:10528000285384F829530223374A136084F82A33B9
:1052900084F82B53354B1E7084F82C63EF2384F86D
:1052A000103384F8115384F8125384F8135384F89C
:1052B0002D632F4B1D802F4B1D8084F8205084F8C8
:1052C00021502D4B1E8084F8246084F825502B4BF0
:1052D0001D702B4B1D802B4B1D802B4B40F2D6623B
:1052E0001A802A4B4EF660221A60602384F822301E
:1052F000EA2384F8233040F6B8310F20FEF7D8FBBC
:105300002823234A1380234A1570234A138084F8E4
:10531000283084F829503C23204A136084F82A302E
:1053200084F82B501E4B1B7884F82E331D4B40F60F
:1053300098021A80982384F82C30082384F82D30A2
:105340003046FFF743FF70BD64100020FC300020A2
:10535000A410002084100020241000200C40002005
:105360000442002054400020A43F0020FE3F0020C3
:10537000064000200A4000201C400020F53F00208D
:10538000983F0020F23F0020F03F00209C3F00208B
:10539000D03F0020F43F002058400020A83F0020CC
:1053A00021100020C410002000207047704700002A
:1053B00030B585B0094C2268094B1A60094D0A4B7B
:1053C0002B600A4B019304F0D9F802902B680393E9
:1053D00001A9206802F04AFF05B030BD101100207D
:1053E000184200201442002004110020301801004F
:1053F00038B504F0C3F80546064C2368D3F8AC0270
:1054000004F0B0F8206802F043FF284604F0AAF840
:1054100038BD00BF1011002008B50421112001F093
:10542000FFFA0121084800F04BFF0321074801F073
:10543000F7FA0321064801F0F3FA0321054801F0C9
:10544000EFFA002008BD00BF30053E0002001E003C
:10545000030020000500240008B500F039F808BD5D
:1054600008B50A4B01225A641A6842F480721A6025
:10547000074A136843F4F843136004F031F804F06A
:105480004FF8FFF7C9FF04F03BF808BD00000E40DD
:10549000A4310E4008B500F073F800F07DF808BDA7
:1054A00008B5FFF7D9FF04F073FAFFF781FF08BDD5
:1054B00008B502F05DFD02F0F1FD02F09DFD08BDB2
:1054C0007047704708B5FFF793FF08BD70477047F6
:1054D00070B598B0144E11AC35460FCD0FC495E899
:1054E000070084E807002422002108A80BF0BCFA7A
:1054F0000E4B06930E4B0793012309938DF8403012
:105500001F238DF8413002AC06F11C030FCB84E859
:105510000F00084B009306AB11AA2146064804F081
:1055200055F918B070BD00BF4818010000000140D7
:1055300000320400FC1700204018002008B5024B80
:10554000186804F0DDF908BD40180020704708B560
:10555000FFF7FCFF08BD704708B5FFF7FCFF08BD6B
:10556000704738B504460D4602F00AFD294620462C
:10557000FFF7F6FF38BD08B5FDF710FA08BD0000CB
:1055800008B5034800F00AF9024800F007F908BD21
:10559000781801008818010008B5034800F0ACF93C
:1055A000024800F0A9F908BD98180100B0180100E0
:1055B000FEE7000010B500F06FF8074B074C1946E6
:1055C000074A04E010680860043304310432A3423F
:1055D000F8D3FAF7A9FD00BF00100020DC1400206A
:1055E000F03701000048704700F04902114BD3F832
:1055F000943003F00703023B032B0DD8DFE803F0E0
:10560000050F02080C4B18680BE00C4B186808E0FB
:105610000B4B1868400804E0094B186801E04FF490
:105620000040044BD3F80031C3F304230133B0FB33
:10563000F3F0704700400E40401100203811002068
:105640003C11002008B5FFF7D1FF054BD3F8083116
:10565000C3F308230133B0FBF3F0024B186008BD1D
:1056600000400E4034110020014B1868704700BF05
:105670003811002008B5064B1860064BD3F894305B
:1056800003F00703022B00D008BDFFF7DBFFFBE7A9
:105690003811002000400E40044B054A9A60D3F8B0
:1056A000882042F47002C3F88820704700ED00E0C3
:1056B000000000004FF4004070474FF47A707047CC
:1056C000014B1868704700BF4011002000230360A1
:1056D000704703680B600160704790B130B40446B6
:1056E0006AB161B1002003E004F8013B01320130EE
:1056F000137813B14D1E8542F6D80023237030BCB9
:1057000070477047034640B1002001E0013301308B
:105710001A781AB18842F9D370470020704708B54B
:105720004FF0FF31FFF7EEFF08BD80B170B50646C0
:1057300032B129B115460C46FFF7F1FF844200D87B
:1057400070BD2A46211A3044FFF7C7FFF8E77047BB
:1057500010B3F8B50F46064651B90120F8BD203404
:105760000FE0601BFAD13378002BF7D001360137F8
:1057700034780BF035F92044437803F00303012B10
:10578000EDD03D780BF02CF92844437803F0030367
:10579000012BE6D12035E4E70120704708B54368C6
:1057A00013B10068984708BD2220FCE708B583685C
:1057B00013B10068984708BDFF20FCE70023144A96
:1057C00012789A4223D910B51C46124A52F8232067
:1057D00011684A79824206D00133DBB20C4A127852
:1057E0009A42F1D812E00B7903EB430318010A4BFC
:1057F000034402EBC30292001368B3FA83F35B091C
:105800000B70044B53F82400FAF738FE10BD7047B4
:1058100074180100241100201CA0104210B582B0A1
:1058200004460121164800F04BFD00230122617956
:10583000207901F01BFE2279637902EB420211010B
:10584000104A0A4403EBC2039B001B68B3FA83F3BC
:105850005B092370A379022B02D0002002B010BD97
:1058600000F076F90849607900F080F961792079D3
:105870000123019300930A4601F09AFDEDE700BF72
:1058800000250A001CA01042BD5700000078704798
:1058900010B40279437902EB42021101154A0A441D
:1058A00003EBC2039B001A68141C18BF0124817902
:1058B000012907D019B9B2FA82F2520902705DF8D3
:1058C000044B704743885B009BB2234343F47F4300
:1058D00043F0C0034FF6E072934205D04FF6DF72FB
:1058E000934204D04380EAE701220270F6E70022E7
:1058F0000270F7E71CA0104208B54368006898479B
:1059000008BD000010B504460121094800F0D8FC8C
:105910000121084800F0D4FCA378B3FA83F35B09B3
:1059200004226178207801F0A1FD002010BD00BFA5
:105930004041050000250A0083784BB10378407888
:1059400003EB4303190101228240064B5A50704772
:105950000378407803EB4303190101228240024B94
:105960005A5070470CA000460CA0004483784BB1FD
:105970000378407803EB4303190101228240064B70
:105980005A5070470378407803EB43031901012212
:105990008240024B5A5070470CA000440CA00046B5
:1059A000027843780121994002EB4202130103F18E
:1059B000804303F5204399617047000002784378E3
:1059C00002EB42021101074A0A4403EBC2039B00A7
:1059D0001B68DBB2827812B9B3FA83F35B0918460D
:1059E000704700BF0CA01042124B1B78F3B1F8B106
:1059F00010B5044601F051F90023072B12DC0E4AC2
:105A000002EB0312127B0AB10133F6E723600A4A64
:105A10001B01D11801240C730024D45001F041F96A
:105A2000204602E001F03DF9044810BD04487047EB
:105A300004487047D419002054180020048000F056
:105A4000028000F0018000F000B583B0144B1B68A9
:105A5000019300238DF8043001F01FF9114B1B78DE
:105A600033B9104B01221A7001F01BF9002309E031
:105A700001F017F90C480FE00C4A02EB0312002169
:105A800011730133072BF7DD04238DF807300DEB7D
:105A9000030001F06DFF002003B05DF804FB00BFC0
:105AA000C8180100D4190020038000F05418002009
:105AB000F8B5194B1F6EDB6E1F4002D4012600247F
:105AC00002E0FEE701347600072C24D83E42F9D0EC
:105AD000114B9E662301114AD358002BF2D002EBE2
