:1000000000100020ED530000E9530000E953000008
:10001000F1980000E9530000E9530000E9530000A3
:10002000E9530000E9530000E9530000E9530000E0
:10003000E9530000E9530000E9530000E9530000D0
:10004000795C0000B9E10000E9530000E9530000C9
:1000500009D9000025E20000C5E10000DDE1000053
:10006000BDE10000E9580000C1590000E95300005B
:1000700075530000F1250000E9530000E95300002A
:10008000E95300007D230000E9590000E953000016
:10009000E9530000E9530000E9530000E953000070
:1000A000E9530000E9530000E9530000E953000060
:1000B00029E20000C1E1000035F80000E95300002A
:1000C00069E20000E953000039CD0000E953000067
:1000D000E9530000E9530000E9530000E953000030
:1000E000E9530000E953000010B5054C237833B9FB
:1000F000044B13B10448AFF300800123237010BDFB
:10010000D0140020000000004036010008B5034B69
:100110001BB103490348AFF3008008BD0000000095
:10012000D414002040360100154B002B08BF134BA0
:100130009D46A3F5803A00218B460F461348144A8A
:10014000121A10F0ADFB0F4B002B00D098470E4B4E
:10015000002B00D098470020002104000D000D481E
:10016000002802D00C48AFF3008010F02DFB2000D7
:10017000290002F079FA10F013FB00BF000008001C
:10018000001000200000000000000000D01400203B
:1001900008420020000000000000000008B50B4BE2
:1001A000DA6C42F00102DA64094A4FF4005111603E
:1001B00001225A64196C074B1960074B1A70074BE0
:1001C0001A701421112003F0C5FB08BD0000014086
:1001D00000E100E0EC1D0020092100202821002082
:1001E00070470000F8B5204B1B78204A1678B342C0
:1001F00007D000271E4AD36C23F00103D3640023E9
:100200000AE00127F6E7184C2278551C2570CD5CD2
:10021000184CA5540133DBB28342F4D3144AD36C97
:1002200043F00103D364144A92F8B132013382F8E7
:10023000B13207B9F8BD0C4B1B789E42FAD00C4C7A
:10024000E36C23F00103E364721C084B1A70094B42
:10025000995D204607F040FCE36C43F00103E36442
:1002600001236364E6E700BF24210020F11D002084
:1002700000000140F81F0020EC30002008B50023EA
:1002800004220D21032007F00DF808BD08B5134B1B
:100290001B78022B10D0032B17D0012B00D008BDE8
:1002A000FA210B2003F056FB0D4B4FF400521A605D
:1002B0000A4B02221A70F2E70B2003F053FB0028CE
:1002C000EDD0064B03221A70E9E7064B4FF40052BB
:1002D0001A60024B00221A70E1E700BFAC21002037
:1002E0009CA000469CA000441D4B93F8AB30012B12
:1002F00000D070471A4B93F8A730012BF9D1194B56
:100300001B689978164A92F8AA209142F1D159783F
:10031000134A92F8A9209142EBD11A78104991F82A
:10032000A81002F00F029142E3D1DB780E4A127856
:10033000934210D00D4A012111700B4A13700849E5
:100340000A4652F8AC3F013309480360094802608D
:10035000C1F8AC30CDE7064A1268002AEAD0C8E7F7
:10036000EC300020543B002099210020AC210020DB
:10037000A0210020A821002008B5114B93F884008B
:10038000104B93F88430984210D10D4B93F88500B0
:100390000C4B93F88530984207D002F08BFD084B48
:1003A00093F88520074B83F8852008BD04F0E2F917
:1003B000034B93F88420034B83F88420E5E700BFC8
:1003C000EC300020C02A002008B5FFF75FFFFFF7E0
:1003D000D3FF08BD2DE900480C480AF051FB0C4B37
:1003E000196C586C4FF0000B4BEA010203460948A8
:1003F0000AF046FB084B1B782BB9084908480AF05D
:100400003FFBBDE800880749F8E700BFE4110100A1
:10041000B081E00FEC11010000100020E01101009C
:1004200004120100DC11010008B5034B01221A700F
:1004300002480AF025FB08BDEC1400203012010030
:1004400008B58368C26853F822301B783BB1064B6D
:1004500001221A70054906480AF012FB08BD024B3A
:1004600000221A700349F6E700100020DC11010099
:1004700018120100E011010008B505F0B3F80128D9
:1004800000D008BD014B01221A70FAE7EC140020DD
:1004900038B5134B012483F88641124A82F886410D
:1004A0000F2583F88551104B1C70104B1C70104B9E
:1004B00000221A70234622460721052006F0F2FE8C
:1004C000234602222946204606F0ECFE094B1C700A
:1004D000094B1C701021022004F016FA38BD00BF31
:1004E000EC300020C02A0020C3220020C9220020B6
:1004F000C7220020C4220020C622002008B52C4BB1
:100500001B78013B042B07D8DFE803F003070B2D12
:100510004000274B02221A7008BD254B03221A7097
:10052000FAE7244B93F88631012B0BD0224A92F83C
:100530008621934213D01E4A052111701E4A82F86B
:100540008631E9E71C4A92F88621934203D0184A83
:1005500004211170F2E7164A01211170EEE7144AE6
:1005600001211170EAE704F011FA0128D4D1114BEE
:100570000F2283F885211021022004F0C5F90F4BCA
:1005800000221A700A4B01221A70C5E704F0FEF926
:100590000128C1D1074B052283F8852110210220B3
:1005A00004F0B2F90123054A1370014A1370B3E74E
:1005B000C3220020EC300020C02A0020C7220020E7
:1005C00008B52D4B1B78013B042B07D8DFE803F05F
:1005D000030720314200284B02221A7008BD274B26
:1005E00093F88531242B07D0042B09D0082B0BD08E
:1005F000214B01221A70F1E71F4B04221A70EDE71C
:100600001D4B03221A70E9E71B4B05221A70E5E720
:100610001B4B80221A60012302220721052006F0CD
:1006200041FE164B052283F88521134B01221A70D7
:10063000D4E7134B80221A600123042207210520EE
:1006400006F030FE0D4B252283F885210A4B01224E
:100650001A70C3E70B4B80221A6000230422072183
:10066000052006F01FFE054B092283F88521024B69
:1006700001221A70B2E700BFC7220020EC30002030
:10068000FCA00046FCA0004408B50C4B08221A60F0
:1006900003F17E43F03380221A60002304220721F5
:1006A000052006F0FFFD064B4FF400421A600023C0
:1006B00004220F21012006F0F5FD08BD0CA0004624
:1006C0003CA0004408B5654B1B78013B082B0FD8B4
:1006D000DFE803F0050F1F2F58759AA2B200604B98
:1006E000002283F88A2183F88B215C4B02221A7046
:1006F00008BD5C4B19685C4A11701B68002BF7D170
:100700004FF4FA61192003F025F9544B03221A70B3
:10071000EEE7192003F026F938B9524B1B68012B7C
:10072000E6D14E4B01221A70E2E74C4B04221A70BC
:10073000DEE704F02BF90128DAD1494B93F8863132
:1007400033B9474B152283F88521484B01221A7093
:100750004FF4FA51192003F0FDF8414B012283F8C0
:100760008A2193F88631934207D04021022004F079
:10077000CBF83A4B05221A70BAE7394B042283F8BA
:100780008B21F2E7192003F0EDF880B9354B1B6897
:10079000012B10D0324B93F88B31052BA8D1304B65
:1007A00093F88631012BA3D1FFF76EFFA0E72B4B07
:1007B00006221A709CE7294B07221A7098E704F06A
:1007C000E5F8012894D1264B93F886212AB91921FE
:1007D00083F88511254B01211970214B022183F8E3
:1007E0008A1193F88B31043BDBB2012B07D94021EE
:1007F000022004F089F8194B07221A7078E7012AC1
:10080000F5D1FFF741FFF2E7C821192003F0A2F864
:10081000124B08221A706BE7124B1B6813B90F4B6F
:1008200007221A70192003F09DF800283FF460AFEA
:100830000A4B09221A705BE704F0A8F801287FF43C
:1008400057AF074B002283F88A214021022004F091
:100850005BF8024B01221A704AE700BFC922002050
:10086000EC300020BC091442C8220020C522002020
:1008700008B5114B1B78012B02D0022B09D008BD03
:100880004FF47A711A2003F065F80B4B02221A70AC
:10089000F5E71A2003F066F80028F0D0074B93F82C
:1008A0008731022B03D0054B022283F88721024BAC
:1008B00001221A70E3E700BFC4220020EC300020C0
:1008C00008B52A4B1B78022B0DD0032B32D0012BFD
:1008D00000D008BD43F698211B2003F03BF8234BC2
:1008E00002221A70F5E71B2003F03CF8C8B1204B38
:1008F00093F88831022B0CD01D4B93F88931022BD1
:1009000007D01B4B1D2283F88521032283F8882101
:1009100003E0174B012283F88821144B01221A703F
:10092000D7E7134B93F88831032BD2D10F4B032217
:100930001A70CEE70F4B1B6843B14FF4FA611C20CD
:1009400003F008F8094B02221A70C2E71C2003F0DA
:1009500009F80028F6D0084B80221A6001230222F1
:100960000721052006F09EFCECE700BFC622002010
:10097000EC300020BC091442FCA0004608B52C4B0A
:100980001B78013B032B18D8DFE803F0020F184E49
:10099000284B93F88931022B03D0254B02221A7081
:1009A0000BE0234B04221A7007E040F6B8311D20FB
:1009B00002F0D0FF1E4B03221A7008BD1D2002F06A
:1009C000D1FF30B31B4B93F88531152B05D0192B74
:1009D00011D0174B04221A70EFE7164B172283F839
:1009E0008521154B80221A60012302220721052050
:1009F00006F058FCEDE70F4B1B2283F885210E4BC8
:100A000080221A60012302220721052006F04AFCF9
:100A1000DFE7084B93F88531152BCED0192BCCD0BE
:100A2000034B04221A70C8E7014B00221A70C4E776
:100A3000C5220020EC300020FCA0004608B5FFF7DE
:100A40005DFDFFF73FFEFFF7BBFDFFF797FFFFF7E9
:100A50000FFFFFF735FF08BD08B5FFF7EFFF08BD33
:100A6000024A137818431070704700BFEC22002030
:100A7000024A137823EA000010707047EC2200202D
:100A80002DE9F041002301220621052006F00AFC91
:100A9000002304220321184606F004FC002304224C
:100AA0000B21022006F0FEFB0127454B1F70454C31
:100AB000002584F855524FF00A0884F8568284F8CD
:100AC0005752022084F858023F4E032386F83031F3
:100AD00084F8305184F8313186F831318C2384F830
:100AE000383184F8398186F8383186F83981C42262
:100AF00084F83A21092384F83B3186F83A2186F8B4
:100B00003B3184F83E5186F83E5184F83F5186F8D7
:100B10003F51142384F8373186F8373184F83D513A
:100B200086F83D51FFF7A4FF284B1D80284B1F700E
:100B3000284B1F70284B1F70284B1D7084F83953A9
:100B400086F83953264B1D70264B1D7084F8385398
:100B500086F83853244B1F70642384F8143386F8C6
:100B6000143384F8155386F815530C2384F817337F
:100B700086F817331D4A137084F8168386F8168397
:100B80001B4A82F80080F22184F818130D2284F8A1
:100B9000192386F8181386F81923164A1770164A6F
:100BA0001570A375B37584F8BE3086F8BE3084F82E
:100BB0001A5386F81A53E575F575BDE8F08100BF44
:100BC000CC220020EC300020C02A0020E6220020A9
:100BD000F1220020E2220020F0220020DC2200206E
:100BE000ED140020D4220020F2220020E122002077
:100BF000E0220020CD220020E422002010B5574B37
:100C00001B78013B082B0DD8DFE803F0050D1622F9
:100C1000414D9689A30064211F2002F09BFE4F4B9B
:100C200002221A7010BD1F2002F09CFE0028F9D08D
:100C30004A4B03221A70F5E7494B93F886311BB9EA
:100C4000464B04221A70EDE7444B09221A70E9E77B
:100C5000434991F8722091F8733042EA0322414BE4
:100C60001A8091F8383191F8391143EA01233E494D
:100C70000B809A4207D83A4B012283F83E21374B2A
:100C800005221A70CEE7354B09221A70CAE703F025
:100C90007DFE0128C6D18021022003F035FE2F4BB6
:100CA00006221A70BEE72E4B93F8722093F8731049
:100CB00042EA01222B490A8093F83A0193F83B114A
:100CC00040EA01202949088093F8384193F8391106
:100CD00044EA012424490C8093F8373103EB830361
:100CE000590089B2224B1980824214D91C4B93F8C7
:100CF0003F310A2B0FD01A4B93F88631012B02D0CB
:100D000021448A428EDB164B002283F83E21134B8E
:100D100007221A7086E7114B08221A7082E7154BDA
:100D200080221A60002304220721052006F0BAFA67
:100D30000A4B09221A7075E703F028FE01287FF498
:100D400071AF8021022003F0DFFD044B09221A70ED
:100D500068E7024B01221A7064E700BFF02200200E
:100D6000EC300020DE220020EA220020E8220020D1
:100D7000EE220020FCA000440223034A82F8323114
:100D8000024A82F832317047EC300020C02A00203D
:100D900008B5074B1B68DBB2064A1370012B03D062
:100DA0000120FFF765FE08BD0120FFF759FEFAE7B5
:100DB0008C031442DD22002008B5214B1B78013B37
:100DC000042B07D8DFE803F00307131C30001C4B8B
:100DD00002221A7008BD0521084602F0BBFDFFF78C
:100DE000CBFFFFF7D5FF164B03221A70F2E7052061
:100DF00002F0B8FD0028EDD0114B04221A70E9E78B
:100E0000104B1B68DBB2104A1370012B07D00F4B3D
:100E1000022283F831210A4B01221A70DAE70B4BC8
:100E2000032283F83121F6E703F0B0FD0128D1D188
:100E30008021022003F068FD014B01221A70C9E7EE
:100E4000E222002098211442E3220020EC3000200E
:100E500008B5274B1B78013B062B0BD8DFE803F0C6
:100E6000121604403C0B4400224B08221A60204B0F
:100E700004221A7008BD204B08221A601C4B07225E
:100E80001A70F7E71A4B02221A70F3E71B4B93F81C
:100E900030311B4A92F83021934217D0012B0AD0EF
:100EA0000223164A82F83031154A82F83031104B4D
:100EB00003221A70DEE70323104A82F83031104A09
:100EC00082F830310A4B05221A70D3E7FFF760FF32
:100ED000074B01221A70CDE7054B06221A70C9E7AD
:100EE000034B07221A70C5E7014B01221A70C1E7B4
:100EF000F12200200CA000440CA00046EC300020A1
:100F0000C02A002008B50C4B93F83D310B4A92F8EB
:100F10003D2193420AD0012B09D00220FFF7A8FD02
:100F2000054B93F83D21054B83F83D2108BD022078
:100F3000FFF796FDF4E700BFEC300020C02A002048
:100F400008B54A4B1B78013B062B0CD8DFE803F0B1
:100F5000040C1C2535778A00454B002283F81523A5
:100F6000424B02221A7008BD414B93F81633414A96
:100F700013704FF47A7101FB03F1292002F0EAFCAF
:100F80003A4B03221A70EEE7292002F0EBFC00280E
:100F9000E9D0364B04221A70E5E7354B93F88631D9
:100FA0001BB9324B05221A70DDE7304B02221A7052
:100FB0002F4B002283F81523D5E72D4B93F87210A1
:100FC00093F8732041EA02212B4A118093F81823E9
:100FD00093F8190342EA00222848028093F8153357
:100FE000012B13D0914223D8214B93F81723244B84
:100FF0001B789A4202D9013321490B70204B1B7890
:101000009A4211D8194B06221A70ACE7184B93F884
:1010100014331A44914203DD154B002283F8152343
:10102000124B02221A709EE7104B02221A709AE7A6
:10103000134B00221A700D4B02221A7093E703F033
:10104000A5FC01288FD18021022003F05DFC084B14
:10105000012283F815230A4B00221A70034B072242
:101060001A7080E7014B02221A707CE7CD22002023
:10107000EC300020E0220020DE220020CE220020E2
:10108000E122002010B584B00124104B1C7006F042
:101090002BFC0F4B186006F021FC21460D4805F093
:1010A0002BF80D4A01AB07CA83E807008DF805400D
:1010B0008DF8074000228DF80B2008228DF80C20B7
:1010C0001946064806F01DFD04B010BDE4220020BC
:1010D0000815002030053E004812010000200540A0
:1010E00008B5454B1B78013B072B08D8DFE803F018
:1010F00004080C2D3644737F3F4B02221A7008BD42
:101100003D4B03221A70FAE73C4806F0EBFC6421E1
:10111000302002F01FFC384B04221A70384B1B7829
:10112000272B02D80133364A1370354B1B78272BF7
:10113000E5D9282BE3D10133314A1370314B062214
:101140001A702D4B07221A70D9E7302002F00AFCE2
:101150000028D4D0284B05221A70D0E7294B93F8E9
:101160001A33092B03D0244B06221A70C7E7244AEE
:10117000137801331370FAE7234B1B68234A116875
:101180008B4212D1214B5B781E4A82F81B3313F03D
:10119000080F02D0D37D022B0FD91A4B9B7D0C2B4D
:1011A00010D0154B08221A70A9E7194809F068FCFD
:1011B000164B1A68144B1A60E4E70133D37501F03B
:1011C000A7FCEAE70F4B0D229A7583F8BE200A4B65
:1011D00007221A7093E703F0D9FB01288FD1082169
:1011E000022003F091FB044B08221A7087E7024BA0
:1011F00003221A7083E700BFE4220020002005408C
:1012000001150020EC3000200415002008150020F6
:1012100054120100124B93F88631012B0BD002239C
:101220000F4A82F832310F4A82F832310E4B4FF4B6
:1012300000621A6070470D4B1B78002BEFD1084BF2
:1012400093F83D31002BEAD10323054A82F832316D
:10125000044A82F83231064B4FF400621A6070473C
:10126000EC300020C02A00206CA00044DD220020C9
:101270006CA0004600B585B055238DF80430AE2330
:101280008DF8053000238DF80630DB228DF807201D
:1012900001228DF808208DF80930104B5A7A8DF80C
:1012A0000A209A7B8DF80B20DA7B8DF80C201B7CB2
:1012B0008DF80D300A4B1B788DF80E300A210DF198
:1012C000050000F05FF98DF80F00022201A90C2043
:1012D000FEF788FF05B05DF804FB00BFEC3000208E
:1012E000EE14002070B5634B1B78013B062B46D8EB
:1012F000DFE803F0043E466E7AB2A6004FF4FA61CE
:10130000052002F027FB5C4B1A780132D2B21A702A
:101310005A490B780133DBB20B70594981F85732C7
:1013200091F856128B4205D3564B1978564B1B78C1
:1013300099420FD0524B93F858329A4206D34E4BF3
:1013400000221A704F4B1A784F4B1A70494B0222E9
:101350001A7014E04A4B93F858329A42EAD30023A9
:10136000454A1370454A1370424B06221A7006E034
:101370000121062002F0EEFA3E4B03221A7070BDE6
:10138000424B1B6813F0FF0F1AD1414A13880133F7
:1013900013803F4B1A8841F287339A4214D93C4B51
:1013A00000221A80334B06221A7000F0C9FF002871
:1013B000E5D0002000F0CAFF2E4B06221A70DEE7AF
:1013C000334B00221A80E4E72A4B04221A70ECE720
:1013D000052002F0C7FA18B1264B05221A70CEE795
:1013E000244B02221A70CAE700F0B6FF294E306083
:1013F00000F0B8FF284D286000F0BAFF274C2060AD
:1014000000F098FF1E4B58723268C2F30341997284
:10141000110AD9721A73224A12785A732A68C2F3CF
:1014200003419973110AD9731A742268C2F30341F4
:101430005974110A9974DA740E4B07221A709EE7D8
:101440000F4B93F85532012B03D00A4B01221A702F
:1014500095E7FFF70FFFF8E7114A13780133137090
:10146000104805F0DDFF00F0F3FE024B02221A7077
:1014700085E700BFCC22002000150020FE140020CC
:10148000EC300020EE140020FF140020A8151442B8
:10149000FC140020F0140020F4140020F8140020A4
:1014A000EF14002000C0004008B5FFF72BFDFFF748
:1014B000CFFCFFF781FCFFF7A1FBFFF7ABFEFFF7C7
:1014C00011FFFFF73DFD08BD10B400240FE05B00E5
:1014D000DBB2C1B24B40013AD2B22AB113F0800F55
:1014E000F5D15B00DBB2F6E7054A13550134FF2C5A
:1014F00002DCE3B20822F0E75DF8044B704700BF5E
:10150000F426002010B4002410E05B009BB281B2EE
:101510004B40013AD2B22AB113F4004FF5D15B002F
:101520009BB2F6E7064A22F814300134FF2C04DCA3
:10153000A3B21B029BB20822EDE75DF8044B704793
:10154000F422002010B4002410E05B009BB281B2B2
:101550004B40013AD2B22AB113F4004FF5D15B00EF
:101560009BB2F6E7064A22F814300134FF2C04DC63
:10157000A3B21B029BB20822EDE75DF8044B704753
:10158000F424002000231A468B420DD210B4C45C10
:101590006240064CA256D2B20133DBB28B42F6D384
:1015A00010465DF8044B704718467047F42600203B
:1015B00000231A468B4210D230B4C45C84EA122451
:1015C000074D35F9144084EA022292B20133DBB2AE
:1015D0008B42F2D3104630BC70471846704700BFAC
:1015E000F422002000231A468B4210D230B4C45C8F
:1015F00084EA1224074D35F9144084EA022292B29B
:101600000133DBB28B42F2D3104630BC7047184630
:10161000704700BFF424002070B59F4B1B78013B3E
:101620000B2B10D8DFE813F00C00100024002D0065
:1016300035003E005C006500EE0017016401780192
:10164000954B02221A7070BD944B1B78012B03D06E
:10165000914B04221A70F6E7904B00221A70904BBF
:101660001968032002F076F98B4B03221A70EAE71F
:10167000032002F077F90028E5D0874B04221A7086
:10168000E1E7884B1968042002F064F9824B0522D7
:101690001A70042002F066F90028D4D07E4B06228E
:1016A0001A70D0E7804A92F80813804B196092F8BC
:1016B000003392F8042313437D4A136000237D4ACC
:1016C00013607D4A13607D4A13607D4A13707D4B21
:1016D0001968032002F03EF96F4B07221A70B2E737
:1016E000032002F03FF90028ADD06B4B08221A709E
:1016F000A9E7734B1B7801229A4070490A606B4935
:1017000009680A4262D003F138004400664911F8C2
:10171000100001340C5D40EA04206B4C208003F182
:101720001804650011F8144001354D5D44EA0524A4
:10173000664D2C8003F12806750011F816600135FE
:10174000495D46EA0121624D2980012B0CD0A0425F
:1017500003D2584D2C6814432C60884236D9564821
:1017600001680A43026031E04FF63775AC4237D862
:1017700004F1C805574E3580C82936D9A1F1C805EE
:10178000554E3580A04207D3524C2488A04207D240
:10179000524C2468224203D0464D2C6814432C60DE
:1017A000444C25684D4C2560884207D84A49098831
:1017B000884207D94A4909680A4203D03E4801686D
:1017C0000A4302603C4A1168454A11600133DBB2AA
:1017D0003B4A1370072B0CD92F4B09221A7032E7A2
:1017E0003C4D4FF6FF762E80C6E73B4D00262E80FF
:1017F000C8E7344B1968032002F0ACF8264B0722E7
:101800001A7020E72B4B1968274B93F800230A43E3
:1018100083F80023284A106893F80423024383F8CE
:10182000042311B910B1012100E00121204B1B68F4
:1018300023B909B9002302E0012300E00123DBB250
:10184000284A1370184A82F80C1382F80D33124B91
:101850000A221A70F7E6144B93F80C33224A92F8D6
:101860000C23934205D0204A82F80C331F4B0122EF
:101870001A700D4B93F80D331B4A92F80D239342C7
:1018800005D0194A82F80D33184B01221A70024B09
:101890000B221A70D7E600BF1C2800200228002067
:1018A000F8270020FC270020EC3000202C28002006
:1018B00024280020202800201828002004280020A8
:1018C000F427002030280020282800201428002099
:1018D0000C280020F62700200028002010280020D7
:1018E000082800200C150020C02A00200D1500201B
:1018F0000B4B1B78012B03D00A4B0C221A70A2E66B
:1019000003F044F80128F7D1054B00221A7020217A
:10191000022002F0F9FFEFE7024B01221A7092E673
:101920000D1500201C280020014B1870704700BFC7
:101930001C28002008B500238BB10D4B1A680D4BF5
:1019400083F8082301200C4B18700C4B42F21072E4
:101950001A600B4B00221A70FFF7E6FF08BD03F573
:1019600042720849002088540133DBB2E4E700BF2B
:1019700004100020EC30002002280020F82700206E
:101980000D150020C02A00202DE9F04F83B09946A4
:1019900090F800A083F800A04378009389F8013004
:1019A0008378019389F802300330033A52B200235E
:1019B0001F469C469E463FE013464CE07600F6B23A
:1019C00015F0800F09D16D00EDB214F0800F07D132
:1019D0006400E4B284F01B040AE046F00106F2E77A
:1019E00045F00105F4E746F001061BE06400E4B2AF
:1019F0000132D2B2072A1DD810F0010F09D08EEAA9
:101A0000040E5FFA8EFE8CEA050C5FFA8CFC7740C0
:101A1000FFB2400816F0800FD0D17600F6B215F074
:101A2000800FE0D16D00EDB214F0800FDED045F0F4
:101A30000105DBE74246584602F1FF384FFA88F8C5
:101A4000002A0DDD5A1ED2B2002BB5D10C784D788C
:101A50008E780331022300F1010B00780022C9E7E0
:101A60008AEA0E0E89F800E0009B83EA0C0C89F8E4
:101A700001C0019B7B4089F8023003B0BDE8F08FC4
:101A800008B504F089F80B4B162283F83A2300229C
:101A900083F83B23802183F8F8120C2283F8F92283
:101AA00083F8FA1283F8FB220123034A1370034AD6
:101AB000137008BDEC30002060280020482800206A
:101AC00008B5174B1B78013B052B0CD8DFE803F05A
:101AD000030C150B0B244FF47A71202001F03AFF10
:101AE0000F4B02221A7008BD202001F03BFF002896
:101AF000F9D00B4B03221A70F5E704F07BF840B2E3
:101B0000084B1870084B83F83A03001283F83B0324
:101B1000034B01221A70E6E7014B01221A70E2E73B
:101B2000482800205C280020EC3000200000000045
:101B300010B5914B1B78013B062B10D8DFE813F052
:101B400007001000190082008A00F300FB004FF428
:101B50007A71212001F0FEFE874B02221A7010BD1F
:101B6000212001F0FFFE0028F9D0834B03221A70D8
:101B7000F5E7824C94F87A0094F87B3040EA032031
:101B800000B27F4B18807F4B40F6BC421A800EF0AB
:101B900037F96BA3D3E900230DF0E6FF02460B46AD
:101BA00069A1D1E900010EF0BFFA774BC3E900014A
:101BB0000022764B0DF0D6FF02460B4664A1D1E918
:101BC00000010EF0B1FA0EF047FC714A1060714A44
:101BD000A2FB00239A0984F8FC229B0B84F8FD32B7
:101BE0000EF0FEF85AA3D3E900230EF09DFA0FF091
:101BF0007DF859A3D3E900230EF06CF958A3D3E97B
:101C000000230DF0B1FF02460B4657A1D1E90001B8
:101C10000EF08AFA0EF0F8FB00B20EF0F1F854A3C1
:101C2000D3E900230DF09EFF0EF0EEFB00B25A4BFD
:101C3000188084F8F802001284F8F9024E4B04224E
:101C40001A708CE70A21212001F084FE4A4B0522FC
:101C50001A7084E7494C94F87C0094F87D3040EA8F
:101C6000032000B2464B1880464B40F6BC421A8017
:101C70000EF0C6F832A3D3E900230DF075FF02463B
:101C80000B4631A1D1E900010EF04EFA3E4BC3E9FB
:101C9000000100223D4B0DF065FF02460B462CA1D2
:101CA000D1E900010EF040FA0EF0D6FB384A106080
:101CB000384AA2FB00239A0984F8FE229B0B84F881
:101CC000FF320EF08DF822A3D3E900230EF02CFA98
:101CD0000FF00CF820A3D3E900230EF0FBF820A3AB
:101CE000D3E900230DF040FF02460B461EA1D1E9C7
:101CF00000010EF019FA0EF087FB00B20EF080F82A
:101D00001BA3D3E900230DF02DFF0EF07DFB00B2E5
:101D1000224B188084F8FA02001284F8FB02164B5A
:101D200006221A701BE70A21212001F013FE124B34
:101D300007221A7013E7104B01221A700FE700BF39
:101D40007B14AE47E17A843F000000000078A94090
:101D500000000000006AF8406666666666A272408F
:101D600000000000009AB04000000080C1553341DF
:101D7000666666666612714060280020EC300020BE
:101D8000382800204A280020502800200000F03F7A
:101D900058280020D34D62105E2800204C280020D7
:101DA00008B5FFF78DFEFFF7C3FE08BD08B5104B61
:101DB0001B787BB10F2B0CD8013B0E4A1278934253
:101DC00007D00D4A92F8CD30013382F8CD3002F0C1
:101DD0001DF808BD074B1B780F2BFAD0064A92F866
:101DE000CD30013382F8CD3002F010F8F1E700BFBA
:101DF000303C0020643F0020EC30002038B51E202D
:101E000001F0B0FD18B1774B002283F8B520764B76
:101E10001B78013B032B00F2E480DFE813F00400A1
:101E20001500CF00DF006F4B93F8863143B16D4B47
:101E300093F8B730012B03D06B4B00221A70D0E01F
:101E4000694B02221A70CCE0664B93F8B630002B37
:101E500040F0A580644B1B78022B00F0A780614BFB
:101E600093F82F33012B40F0BC80604B1B78022B82
:101E700040F0B7805C4B1B78032B00F09B805B4BE2
:101E800004221A70ADE0574BD3F8D830584A13608B
:101E9000584A1268934259D0574B1B78FF2B03D0F6
:101EA000564A525D93425BD0534B1978534A515571
:101EB000FF221A700134E4B24A4B93F8B630A342C1
:101EC0006FD9254604F58073464A52F82330494AB3
:101ED0001360002BEED04A4A12685340C3F3130339
:101EE000002BE7D13F4B93F8CF30012B4ED1424B23
:101EF0001B78FF2BD0D0414A125D9342CCD040F6E4
:101F0000B8311E2001F026FD374B03221A70354BE5
:101F100093F8D730002BBFD0022BB4D0012BBBD10C
:101F2000384A1368013313602E4AC2F8DC3001F0DE
:101F30004BFF354B1A78354B1B789A42ACD0FFF7E4
:101F400035FF314B1A78314B1A70A5E72D4A1368CB
:101F500001331360234AC2F8DC3001F035FF9BE700
:101F6000294B1A78294B1B789A429DD0FFF71EFF08
:101F7000254B1A78254B1A70224A136801331360D7
:101F8000184AC2F8DC3001F01FFF8DE740F6B83187
:101F90001E2001F0DFFC144B03221A708AE7002494
:101FA0008AE7174B4FF6FF721A6053E70E4B002279
:101FB0001A7054E70D4B03221A7012E002F0E6FC8F
:101FC00001280ED1074B012283F8B52008210220F9
:101FD00002F09AFC044B04221A7002E0024B002229
:101FE0001A7038BDEC3000209028002070280020A6
:101FF000882800208C2800202429002094280020F4
:102000008028002074280020303C0020643F0020FD
:10201000002304E0044AFF21D1540133DBB213F062
:10202000800FF7D0704700BF9428002008B5002229
:10203000114B1A70D921114B1970114B83F8B8103C
:102040001C211048018083F8BA1083F8BB200E4889
:102050000180062183F8BD10082183F8B1100B49D7
:102060000A700B490A70012283F8CF2083F82F23CE
:10207000FFF7CEFF08BD00BF902800207828002081
:10208000EC3000201C2900207E2800201E29002082
:1020900086280020454B93F8D730454A92F8D72040
:1020A00093420CD0424A82F8D7300023414A136051
:1020B000414A13603D4A82F8CC3082F8CD303B4B28
:1020C00093F8BA203A4B93F8BA309A4208D03B4979
:1020D0000B8803F47F4313430B80354B83F8BA20FE
:1020E000324B93F8BB30324A92F8BB20934207D070
:1020F00032490A7842EA03220A802D4A82F8BB302C
:102100002A4B93F8B2302A4A92F8B220934204D074
:10211000012B33D0264A82F8B230244B93F8B030EA
:10212000234A92F8B02093420BD0012B2AD01F4BA8
:10213000022283F8B0201D4B93F8B0201C4B83F88B
:10214000B0201A4B93F8BD30194A92F8BD20934243
:1021500002D0174A82F8BD30144B93F8BC30144AB1
:1021600092F8BC20934208D0032B17D0042B19D02F
:10217000022B0FD00E4A82F8BC307047104A012162
:102180001170C7E70E4B01221A70084B032283F827
:10219000B020D0E70B4A00211170EBE70A4A00217A
:1021A0001170E7E7094A00211170E3E7EC300020E5
:1021B000C02A002074280020683F00201C2900202D
:1021C0008528002079280020862800201E2900204C
:1021D00008B5FFF713FEFFF75DFF08BD08B5044B18
:1021E00001224FF47A7108F0A7FC01F0C5FB08BD8D
:1021F000DD21000008B50121084803F07DFF012121
:10220000074803F079FF0121064803F075FF01221A
:102210001146022004F096FA08BD00BF00820400B7
:1022200000250A0030053E00064A074BD363136CB5
:1022300043F4803343F024031364044B4FF400321F
:102240001A60704700C000402400010000E100E077
:1022500030B585B01C4B6D460FCB85E80F001B4B8E
:10226000029301230B220A21032005F01BF801230E
:102270000B221146032005F015F8154C0323636467
:10228000A36C23F01F0343F01303A364A36C23F494
:10229000F85343F48853A3642946204605F0A4F874
:1022A00000230C4A13700C4A13700C4A13706823F5
:1022B0006361FE23A361236843F016032360FFF7E5
:1022C000B3FF05B030BD00BF681201001F100F0042
:1022D00000C00040902A0020912A002028290020D8
:1022E00000B587B06823ADF804300123ADF806309F
:1022F0000C4B02930C4B1B78ADF80C300B4B04933A
:102300000A23ADF8143001A9094805F011FA02E0DA
:10231000074805F097F80128FAD0FFF785FF07B0C6
:102320005DF804FB081000200E100020B42A0020E5
:1023300000C00040014B1878704700BF1515002001
:10234000014B1878704700BF842A0020014B187099
:10235000704700BF842A0020014B1868704700BFF7
:10236000A02A0020014B1868704700BFEC360020FF
:10237000014B1868704700BF8C2A002030B4864A91
:10238000536B86490B60906885490860D168854A1F
:102390001160854C2278854D45F82230844D45F8F2
:1023A0002200844D45F822100132D2B22270092A4F
:1023B00002D922460024147011F4007F08D07E4A0E
:1023C00013607E4A10607E4A11607E4A01211170BE
:1023D00013F0040F00F0B7807B490A7801320A70CD
:1023E0006D4A0421D163D26912F0010F00F09C8084
:1023F00069490A6C42F040020A64744A0021117073
:1024000013F0100F03D172490A7801320A70714A31
:1024100012887149895C604AD16213F0400F0DD077
:102420005D484022C26369490A780132D2B20A701B
:10243000684909880A4468498A5CC26213F0100F2F
:1024400002D0554A1021D16313F0010F02D0524A35
:102450000121D16313F0020F02D04F4A0221D16350
:1024600013F0080F02D04C4A0821D16313F4807F87
:1024700003D0494A4FF48071D16313F4007F03D035
:10248000454A4FF40071D16313F4806F03D0424A80
:102490004FF48061D16313F4006F03D03E4A4FF4D0
:1024A0000061D16313F4805F03D03B4A4FF4805145
:1024B000D16313F4005F03D0374A4FF40051D16366
:1024C00013F4804F03D0344A4FF48041D16313F4A6
:1024D000004F03D0304A4FF40041D16313F4003F62
:1024E00003D02D4A4FF40031D16313F4802F03D071
:1024F000294A4FF48021D16313F0800F02D0264A7D
:102500008021D16313F4803F0CD0234B4FF48032F1
:10251000DA631A6C22F060021A6400232F4A1370E7
:102520002F4A137030BC70471B4A116C41F02001D8
:1025300011642A4901200870D1692A4A1170284A79
:102540000021117069E713F0200F3FF466AF124AC3
:102550002021D163D46922490A7823488454013266
:10256000D2B20A7021490A70022A0CD0022A7FF6E0
:1025700054AF501E033A174909880A441A49085CA7
:102580001549885449E7014600784A7842EA002212
:1025900010490A8041E700BF00C00040802A0020A7
:1025A000882A00209C2A00200E1500202C290020BB
:1025B000542A0020C0300020A02A0020EC36002041
:1025C0008C2A0020842A0020EE14002014150020FC
:1025D00015150020AC2A0020EC300020902A0020A5
:1025E00028290020982A0020B42A0020AE2A0020A2
:1025F00008B50B4A136C0B490B60936413F0010F81
:102600000DD0094B1A78094B1B789A4207D0591CF8
:10261000064A1170064AD15C014805F05DFA08BD12
:1026200000000140A82A002024210020F11D0020E4
:10263000F81F002008B505F0F5FB084B186000B93D
:10264000FEE74FF0011108F0B9FD0022044B1968B4
:10265000024B186808F078FC08BD00BF1015002078
:10266000C81000200000000080B58AB007F044F9CF
:102670000121654803F040FD0121644803F03CFD61
:10268000634B01265E641A6842F480721A60614AE4
:10269000136843F4F84313605F4C06AD04F1100374
:1026A0000FCB85E80F00284604F040FD00275B4B68
:1026B0001F705B4B1E70FFF79DFDFFF7C9FD02F019
:1026C0002DF9FDF7E5FEFFF735F902F0A1FCFEF765
:1026D000D7F9FFF7ABFCFDF7D1FDFDF75FFDFFF785
:1026E000CFF903F051F9FFF7A5FF238C0AAE26F8C6
:1026F000143D4C4D3146286808F068FC3146286886
:1027000008F04CFC3EA3D3E90023CDE900234FF0B1
:10271000FF324FF0FF33286808F05CFC3A46394638
:10272000286808F017FA243494E803000390ADF801
:1027300010103D4B1B689B685A683C4B9A4202D86C
:1027400002238DF80C3003A9364B186808F06FFC93
:1027500000B1FEE7334CFC21206808F052FC01F088
:10276000F7F82E4D06232B7000F0AAFB00232B70E8
:10277000FEF788FC2E4B01224FF47A71206808F096
:10278000DBF911E0FFF7ACFD2A4B00221A7024E0C0
:1027900000F03CFE284A137801331370264B1B7857
:1027A000092BF5D9FEF79CFC07F0B2F802F02EFADF
:1027B00002F014F9FEF750F9FEF72EFFFEF774FE53
:1027C000FFF706FDFDF700FEFFF7EAFA1B4B1B784B
:1027D0001BB9184B1B78002BD4D1194B1B7813B1A4
:1027E000174B00221A70174B1B7813B1154B0022A0
:1027F0001A70114B00221A70D0E700BFAFF30080AF
:10280000488D812A110100004041050000250A0081
:1028100000000E40A4310E4068120100EC30002090
:10282000CC41002010150020C8100020FFC99A3BA1
:10283000DD210000912A00206E3F0020902A002018
:102840000F1500201010002008B50121044B186856
:1028500008F090F900EBD0704010D83000B208BDFD
:10286000101500202DE9F04190B006461746984615
:10287000254A92F8B432013382F8B432002208F4C7
:10288000807313431DD107F04002002313431DD171
:1028900007F008020023134324D107F400020023A9
:1028A000134302D0194B01221A7007F0005400257F
:1028B00054EA050302D0154B01221A7010B0BDE88E
:1028C000F0810022114608F047FCDCE7FFF7BCFF6F
:1028D0000F4B18800F4BB3F90030002BD8D10D4BA4
:1028E0001880D5E740226946304608F08DFC6846DE
:1028F00000F012F8044A92F8B332013382F8B3328E
:10290000024B01221A70C8E7EC30002010100020A2
:10291000B02A0020922A0020F0B4194B1E883446B9
:10292000184B1F887B1E9E4204DA721C16490988C8
:102930008A421FD09E4201D000230DE0124B1B881B
:10294000DBB1002308E0C55C04EB840291000F4A70
:102950000A44D5540133DBB20D4A12789A42F2D8B8
:102960000136B6B2013F3FB23E40054B1E8000200B
:10297000F0BC70474FF0FF30FAE74FF0FF30F7E759
:102980001A150020121000201C15002054370020BA
:102990000F1000200D4B1B880D4A1288934211D056
:1029A00003EB83018A000B490A440B490A60013397
:1029B0009BB20A4A1288013A12B21340034A1380AA
:1029C000002070474FF0FF30704700BF1C150020FB
:1029D0001A15002054370020543B0020121000200C
:1029E00010B50B4C55232370AE2363700023A370E6
:1029F000D923E370072323710A21601CFEF7C2FD6F
:102A0000E072022221460C20FDF7ECFB10BD00BF56
:102A10000C37002010B50E4C55232370AE23637085
:102A20000023A370D923E37008232371094B93F883
:102A3000D522627293F8D732A3720A21601CFEF786
:102A4000A1FDE072022221460C20FDF7CBFB10BD58
:102A50000C370020EC30002010B5144C55232370A7
:102A6000AE2363700023A370D923E370092323717D
:102A70000F4B93F89B20627193F89C20A27193F8FE
:102A8000D622E27193F8D522227293F8D82262728C
:102A900093F8D732A3720A21601CFEF773FDE0722F
:102AA000022221460C20FDF79DFB10BD0C370020B3
:102AB000EC30002010B5144C55232370AE23637006
:102AC0000023A370D923E3700A2121710F4B93F8DF
:102AD0009B20627193F89C20A27193F8D622E27138
:102AE00093F8D522227293F8D822627293F8D732E3
:102AF000A372601CFEF746FDE072022221460C2004
:102B0000FDF770FB10BD00BF0C370020EC3000203B
:102B100010B50B4C55232370AE2363700023A370B4
:102B2000D923E3700B2323710A21601CFEF72AFDD1
:102B3000E072022221460C20FDF754FB10BD00BFBD
:102B40000C37002008B54EF66021142000F002FF7B
:102B50000023044A1370044A1370044A1370044A91
:102B6000137008BD2C150020201500202D15002005
:102B70001615002010B504460C2803D1164BDB783F
:102B8000D92B24D0FFF7DEFF144B1B78042B18D071
:102B9000134B1B88134A1288934202D39B1A104A84
:102BA00013800D4B5B781F2B0BD00F4B1B780F4AFC
:102BB0001278934202D201330B4A13700C4B00225D
:102BC0001A7002220449E0B2FDF70CFB10BD024B63
:102BD0001B79082BD6D1D7E70C3700204E370020C1
:102BE00002370020143B0020F9360020163B00205D
:102BF000F036002010B50B4C552323701F23637053
:102C00001623A3700023E37015222271EA22627159
:102C1000A3710621601CFEF7B5FCE0710820FFF7E8
:102C2000A9FF10BD0C37002010B50A4C55232370A6
:102C3000572363700023A370E37023716371A37142
:102C40000621601CFEF79EFCE0710820FFF792FF52
:102C500010BD00BF0C37002010B50A4C552323705F
:102C6000752363700023A370E37023716371A371F4
:102C70000621601CFEF786FCE0710820FFF77AFF52
:102C800010BD00BF0C37002008B5034B37221A7067
:102C90000120FFF76FFF08BD0C37002010B50C4C6A
:102CA000552323701F236370B723A3700023E370A1
:102CB000084A1288110A21716271A3710621601CF1
:102CC000FEF760FCE0710820FFF754FF10BD00BF65
:102CD0000C3700200237002010B50C4C5523237010
:102CE0001F236370B823A3700023E370084A12788F
:102CF0002271084A12786271A3710621601CFEF7E6
:102D000041FCE0710820FFF735FF10BD0C370020B3
:102D1000F9360020F036002008B5114B1B78012B46
:102D200004D00F4B1B78022B0DD008BD0D4A138821
:102D300001339BB21380182BF3D9134600221A805B
:102D4000FFF7ACFFEDE7074A138801339BB213800E
:102D5000182BEAD9134600221A80FFF7BDFFE4E7DB
:102D6000F1360020583B002008B52E2000F0FAFD77
:102D700000B908BD42F6E0612E2000F0EBFD314BBA
:102D80001B88B3F5E17F03D32F4B1B78002B39D180
:102D90002E4B1B780E2B09D92D4B1B78002B39D1CC
:102DA0002B4B1B7813B90133294A1370274B1B781F
:102DB0000E2B02D80133254A1370264B1B78342B77
:102DC00009D9254B1B78002B34D1234B1B7813B921
:102DD0000133214A13701F4B1B78342B02D8013367
:102DE0001C4A1370174B1B88B3F5E17F02D20133E5
:102DF000144A1380144B1B78002BBAD10133124AAA
:102E00001370B6E7FDF7ECF9FFF7EAFD0D4B002272
:102E10001A80BDE700230D4A13700D4A1370FDF7A9
:102E2000DFF9FFF7F7FD0D4A92F8D932013382F846
:102E3000D932B5E70023074A1370074A1370FFF72A
:102E400067FEC2E71E150020201500201410002088
:102E50002D1500201110002016150020EC30002048
:102E600010B5142000F07EFD10B9FFF77DFF10BDF6
:102E70004EF66021142000F06DFD0B4A13780133EB
:102E8000DBB21370042B02D801F06CFAEDE7FDF70A
:102E9000A7F90024054B1C70FFF7F6FE024B1C70CF
:102EA000034B1C80F0E700BF2C15002014100020FD
:102EB0001E150020014B1870704700BF443B0020D6
:102EC00038B5304B30221A8000242F4B1C802F4BFA
:102ED0001C802F4B1C702F4B1C702F4B1C702F4BCA
:102EE0001C7001F04FFC01F06DF840F20931162022
:102EF00000F030FD01252A4B1D702A4B1C702A4B17
:102F00001C702A4B4FF4A0721A80294B1C80294B4D
:102F10004FF42F721A80284B1C80284B03221A80F2
:102F2000274B70221A70274B60221A70264B0C22F6
:102F30001A80264B1C70264B1C70264B14221A70CC
:102F4000254B06221A70254B1C80254B1C80254BD7
:102F500083F8D54283F8D64283F8D74283F8D84223
:102F60002946122000F0F6FC48F25000FEF7CAFA9B
:102F700048F20500FEF7E6FA9720FEF7A5FA1A4B8D
:102F80001D7038BD121000201A1500201C150020DD
:102F9000181500202C1500201715002028150020DA
:102FA000313C0020323C0020D43D00200637002078
:102FB0000237002050370020463B0020183B0020FD
:102FC000FA360020F3360020143B0020F9360020AA
:102FD000F0360020163B0020083700202415002082
:102FE0002A150020EC3000204C37002030B482B08D
:102FF000214A13780133DBB21370042B02D9134634
:1030000000221A701C4B1B781C4A11781C4AD154A0
:10301000002307E01A4AD15C02AA1A4402F8081CED
:103020000133DBB2042BF5D9002419E00133DBB204
:10303000032B13D85A1C02A9114411F8080C02A939
:10304000194411F8081C8842F0D202AD1D4405F85D
:10305000080C02A8024402F8081CE7E70134E4B2B5
:10306000032C01D80023E3E79DF80220054B1A70DA
:1030700002B030BC704700BF21150020F23600209E
:10308000F43600204D37002030B482B0254A137842
:103090000133DBB21370042B02D9134600221A70DD
:1030A000204B1B78204A1178204AD154002307E096
:1030B0001E4AD15C02AA1A4402F8081C0133DBB292
:1030C000042BF5D9002419E00133DBB2032B13D80C
:1030D0005A1C02A9114411F8080C02A9194411F84C
:1030E000081C8842F0D202AD1D4405F8080C02A865
:1030F000024402F8081CE7E70134E4B2032C01D8CB
:103100000023E3E79DF80230094A1278934206D97A
:103110009B1ADBB2074A137002B030BC7047002321
:10312000F8E700BF2215002004370020FC360020FD
:10313000443B00205237002010B58D4B1B78013BDB
:10314000032B1ED8DFE813F004001E00BE000801A8
:103150000621122000F0FEFB4EF66021132000F045
:10316000F9FB0023834A1370834A1370834A138048
:10317000834A1380834A1370834A13707C4B022264
:103180001A7010BD122000F0EDFB0028F9D00621C6
:10319000122000F0DFFBFFF757FB7C4B18707C4AD6
:1031A00092F82E30013382F82E30FFF76DFF794B05
:1031B0001A78794B1A70794B19788A4261D870481D
:1031C000038801339BB2038075480024048075484E
:1031D0000088834208D26B4B1A78734B1B789A4253
:1031E00024D2FFF799FDCCE76948012380F89A3093
:1031F00080F89B1080F89C206C4A138801339BB2A6
:10320000138080F8D5321B0A80F8D632FFF724FCF1
:10321000FFF70AFD0621122000F09CFB564A1470AD
:10322000564A1480524B03221A70D4E7584A02239C
:1032300082F89A30594B1B7882F89B30554B1B789B
:1032400082F89C305A490B8801339BB20B8082F87C
:10325000D7321B0A82F8D832FFF72CFCFFF7E4FCC8
:103260000621122000F076FB0023434A1370434AE4
:103270001380444A1370444A13703D4B03221A7062
:10328000AFE7474A138801339BB21380494A12883B
:10329000934208D3424B00221A80394B1B8813B14A
:1032A000013B374A1380384A13780133DBB213707D
:1032B000414A1278934294D30023334A1370314A1F
:1032C00013708EE7122000F04DFB00283FF459AF39
:1032D0000621122000F03EFBFFF7B6FA2B4B1870C8
:1032E000FFF7D2FE354B1B782B4A13702B4A12780E
:1032F000934229D9204B1B78632B02D801331E4AF5
:1033000013701D4B1B78632B05D91C4B1A882C4B53
:103310001B889A420BD2194B1B88294A1288934268
:1033200002D80133154A1380FFF7F6FC29E7FFF7AF
:1033300093FC0023124A1380124A1370124A13702E
:103340000B4B01221A70E6E70C4B1B88002BEBD0CD
:10335000013B0A4A1380E7E7122000F003FB002834
:103360003FF40FAFFFF778FC014B01221A7008E71A
:103370001815002017150020281500205C3B0020A0
:1033800002370020F9360020F036002004370020F4
:10339000EC300020FA360020523B0020523700204B
:1033A000463B002006370020163B00202415002055
:1033B0002A150020183B002008370020F336002093
:1033C0005037002008B501210D4B186807F0D2FBDB
:1033D0000C4B18800C4B1B78022B09D0032B01D00F
:1033E000012B04D100EBD0704010D83000B208BDE2
:1033F0000346002802DB43F38F00F8E7C31CFAE71B
:103400001015002026150020D43D002010B54E4B8D
:103410001B78013B042B0CD8DFE803F0030C171ECC
:103420002400494B02221A704FF4E171122000F07F
:1034300091FA10BD122000F095FA0028F9D0FFF79C
:10344000D9FB414B03221A70F3E7404B01221A705B
:103450003D4B04221A70ECE7FFF76EFE3A4B052253
:103460001A70E6E7FFF796FA68B9394A92F8B2326D
:10347000013382F8B23201F06DF8FFF7F1FC324B04
:1034800004221A70D5E701F04FF910B901F062F883
:10349000F3E7162000F066FA0028EED040F209317A
:1034A000162000F057FA2B4B1A78531EDBB2022B72
:1034B000E3D8294B55211970012A20D0264BAE2282
:1034C0005A70254B00229A70DA701A7101225A71D3
:1034D000224B1B780A2B03D8214B1A781F4B1A70EA
:1034E0001E4B1A781E4B1A70FFF780FD1D4B1B7880
:1034F0001D4A1278934205D99B1ADBB203E047229A
:103500005A70DEE70023144A9371FFF75BFF174BF5
:10351000B3F900301A46002B14DB92100C4981F8E5
:10352000E52003EBD3735B10283B81F8E6300A4CAF
:10353000A0710621601CFEF725F8E0710820FFF756
:1035400019FB9AE7DA1CE8E74C3700201815002031
:10355000EC300020D43D00200C370020F236002053
:10356000231500204D370020443B00202615002065
:10357000474B19684A6C474BA3FB0203D01A03EB75
:1035800050039B08C3EBC303D31A243331F8130051
:10359000024421F813200023072B78D810B434E01C
:1035A000591D484201F0070100F0070058BF414291
:1035B000243132F81140191D484201F0070100F092
:1035C000070058BF4142243132F8111041EA04414A
:1035D00042F823102E4A116803F1240231F81240F8
:1035E0005A1C504202F0070200F0070058BF424246
:1035F000243231F8122042EA044203F1080041F873
:1036000020200133DBB2072B3ED8214A106800216D
:1036100040F82310126803F1080042F8201013F05C
:10362000010FBDD1591C484201F0070100F007000D
:1036300058BF4142243132F8110003F1240132F81D
:10364000111041EA004142F82310114A11681A1D75
:10365000504202F0070200F0070058BF42422432F5
:1036600031F812405A1D504202F0070200F00700E4
:1036700058BF4242243231F8122042EA044203F198
:10368000080041F82020BCE75DF8044B7047704704
:10369000603B002025499224C1F12001C8417047B8
:1036A0000B4B1A6852F82030083052F820000344BF
:1036B0009AB2180C02FB02F100FB02F202EB51423B
:1036C00000FB00F000EBD23003FB03F358407047DF
:1036D000603B00202DE9F04788B000230CE0614AF0
:1036E000126803F1080152F8211008AA02EB8302C4
:1036F00042F8201C0133DBB2072BF0D9594B1D686F
:103700002B6A286C0344584A13442B62686A009958
:103710008B422CBF0346431C544C23446B62A86A63
:1037200001998B422CBF0346431C51490B44AB62A9
:10373000E86A029EB3422CBF0346431C1344EB626B
:10374000286B039EB3422CBF0346431C23442B63C8
:10375000686B049EB3422CBF0346431C0B446B634F
:10376000A96B059883422CBF0B464B1C1344AB63DB
:10377000EA6B06998B422CBF1346531C2344EB6320
:10378000079A93422CBF002301232B64002409E0F5
:103790002046FFF785FF08AB03EB840343F8200CBA
:1037A0000134E4B2072CF3D9DDF80090079E102114
:1037B0003046FFF771FF09EB0004DDF81880102197
:1037C0004046FFF769FF20442860019D08214846D4
:1037D000FFF762FF2844234B1C6830446060DDF82B
:1037E00008A010212846FFF757FF0AEB0007102119
:1037F0004846FFF751FF3844A060039F0821504618
:10380000FFF74AFF38440544E560DDF810901021C9
:103810003846FFF741FF09EB000510215046FFF73E
:103820003BFF28442061059D08214846FFF734FFEF
:1038300028440744676110212846FFF72DFF08EB55
:10384000000710214846FFF727FF3844A0610821F0
:103850004046FFF721FF30440544E56108B0BDE86C
:10386000F08700BF603B00204DD3344DD3344DD39F
:10387000344DD3340022072A19D830B40C4B1968C0
:1038800002F1080551F82500131D5C4203F00703FF
:1038900004F0070458BF634251F82330584041F800
:1038A00025000132D2B2072AE8D930BC70477047F0
:1038B000603B0020194B1B6893F8441001F0030192
:1038C000032909D8DFE801F002141B221A68D98AFB
:1038D000D86841EA00414A4083F85820110A83F829
:1038E0005910110C83F85A10120E83F85B207047A0
:1038F0009A68D98B586941EA00414A40ECE71A6955
:10390000D988D86941EA00414A40E5E79A69D989EE
:10391000586841EA00414A40DEE700BF603B0020B2
:1039200010B50A4B1B6800241C64FFF721FE03E05E
:10393000FFF7D0FE0134E4B2032CF9D9FFF79AFF68
:10394000FFF7C8FEFFF7B6FF10BD00BF603B0020C9
:1039500070470000024B43F820100020704700BF62
:103960006C3B0020034B53F820300BB10020704714
:10397000012070476C3B00200A4B00221A7002E0C5
:103980000133084A1370074B1B78302B09D8064ABD
:1039900052F82320002AF3D0013A034941F82320AA
:1039A000EEE77047683B00206C3B002008B5164BE3
:1039B00055221A70B4225A70F0229A700022DA70DE
:1039C00003221A715871114A1268526CC2F30441F1
:1039D0009971110AD9711A720D4A12685169C1F3AD
:1039E00004405872080A9872D972517A1973D189B1
:1039F00001F00F015973D168090A9973D268DA731B
:103A00001020FFF7B7F808BD0C370020603B0020FE
:103A1000343C0020054B1A6813781B0403F4702310
:103A2000507843EA0023907818437047543B0020B5
:103A300010B4154B1A6813781B0403F470235178E3
:103A400043EA012394781C43104B114A1A60002367
:103A50004FF0FF3004E038320C490A600133DBB22A
:103A6000032B0DD8094A1268517A0129F3D1D16884
:103A7000A142F0D1B1F1FF3FEDD058B20423EAE703
:103A80005DF8044B704700BF543B0020343C0020DD
:103A9000F43C002010B4124B1A6813781B0403F492
:103AA0007023517803EB012394781C440D4B0E4A8C
:103AB0001A6000234FF0FF3004E0383209490A60F1
:103AC0000133DBB2032B08D8064A1268517A002969
:103AD000F3D158B2D4600423EFE75DF8044B70478C
:103AE000543B0020343C0020F43C002008B5144B2B
:103AF000186802781209C3780E2A02D0114B187880
:103B000008BD03F0060103F001030229F6D1002BE2
:103B1000F4D1037903F02203222BEFD10821FDF722
:103B200047FDC0F30F21064B1B681A7A9142E5D17D
:103B3000C0B25B7A9842E1D1024B06221A70DDE7EF
:103B4000543B00204E37002010B50B4C0421206858
:103B5000FDF72EFDC0F30F2123681A79914202D0A0
:103B6000064B187810BDC0B25B799842F8D1034B70
:103B700003221A70F4E700BF543B00204E370020A8
:103B800010B50B4C04212068FDF72CFDC0F30F216C
:103B900023681A79914202D0064B187810BDC0B242
:103BA0005B799842F8D1034B02221A70F4E700BF08
:103BB000543B00204E37002008B55C230D4A03FB20
:103BC00000200D4B18600B234364002308E00B4AD0
:103BD00032F8131003F1240220F812100133DBB283
:103BE000072BF4D9FFF79CFE034B1B680B225A648A
:103BF00008BD00BFEC3D0020603B00209412010096
:103C00000F4BDB7803F00F03012B00D070470C4BF8
:103C10001B79232BFAD10A4B5B79493BDBB2012B91
:103C2000F4D8074B9B78802B05D0002BEED1054BA9
:103C300000221A70EAE7034B01221A70704700BF96
:103C40000C3700202E15002010B5244B55221A7079
:103C5000234B1B78022B35D0082B37D01F4BAE22BD
:103C60005A70204B1968CC781C4A94700B78D3702A
:103C700048781071897851711B4A12788AB91B04EF
:103C800003F4702343EA00230B43184A1360184AD5
:103C90001360184B93F8CF30012B1BD0124B01222D
:103CA0001A700E4C144B1A88A27100221A80062139
:103CB000601CFDF767FCE0710820FEF75BFFFFF773
:103CC0009FFF10BD054BAF225A70CAE7034B43223A
:103CD0005A70C6E7094B1C70E0E700BF0C370020A4
:103CE0004E370020543B00209028002080280020E0
:103CF00014290020EC300020922A002024290020E2
:103D000010B5294B55221A70AE225A70274A1468F2
:103D1000E2789A702278DA7062781A71A2785A7111
:103D2000042305E09A1CE05C1F4988540133DBB290
:103D3000082BF7D91E4B1B78A3B91B4A9179D3796D
:103D40001B0443EA0163117A43EA0123527A1343C5
:103D5000184A1360184B93F8CF30012B11D0144B35
:103D600001221A70104C154B1A88E27200221A8038
:103D70000B21601CFDF706FC20730D20FEF7FAFEF8
:103D800010BD094B9B7803F0F8030D4A13700A4BE2
:103D900093F8D730012BE2D1034B1B7903F00F03CB
:103DA000084A1370DBE700BF0C370020543B0020AB
:103DB0009028002080280020EC300020922A00204B
:103DC00024290020303C002010B50D4C55232370D1
:103DD000AE2363700B4B1B68DA78A270D622E270B8
:103DE0005A7822719B786371074B1B88A3720A2152
:103DF000601CFDF7C7FBE0720C20FEF7BBFE10BD98
:103E00000C370020543B0020922A002010B5134BA1
:103E100055221A70AE225A70114A1268D1789970E0
:103E2000D521D9705178197191785971042305E021
:103E3000991CD45C094844540133DBB2072BF7D9F1
:103E4000064C084B1B88A3720A21601CFDF79AFBE5
:103E5000E0720C20FEF78EFE10BD00BF0C37002074
:103E6000543B0020922A002010B51C4B55221A709A
:103E7000AE225A701A4A1268D17899701178D970A6
:103E80005178197191785971042305E0991CD45C1B
:103E9000124844540133DBB2072BF7D9114B1B787E
:103EA0007BB90E4A9179D3791B0443EA0163117AF5
:103EB00043EA0123527A13430B4A1360094B012250
:103EC0001A70064C094B1B88A3720A21601CFDF76F
:103ED00059FBE0720C20FEF74DFE10BD0C370020A0
:103EE000543B00209028002080280020922A0020A7
:103EF00038B5174B55221A70AE225A70154A1268FF
:103F0000D17899701178D97054781C719078587163
:103F100015799D715279DA710F4B1B7853B90904E9
:103F200001F4702141EA042101430C4B19600A4B52
:103F300001221A70064C0A4B1B8823720821601C50
:103F4000FDF720FB60720A20FEF714FE38BD00BFAB
:103F50000C370020543B00209028002080280020AF
:103F6000922A002010B5134B55221A70C4225A70A1
:103F7000114A1468E2789A702278DA7062781A71BD
:103F8000A2785A71042305E09A1CE05C0949885420
:103F90000133DBB2092BF7D9064C084B1B8823737E
:103FA0000C21601CFDF7EEFA60730E20FEF7E2FDB7
:103FB00010BD00BF0C370020543B0020922A002087
:103FC00000207047002301E00133DBB2032BFBD953
:103FD00070470000F8B50E46C508FFF729FD0446F6
:103FE000B0F1FF3F16D0012D33D0C4EBC403DA008B
:103FF0005B4B1A445B4B1A605C215B4B01FB043446
:104000005A4B1C6004F14803002D38D105EB4504E0
:1040100000232FE0FFF73EFD0446B0F1FF3FE2D161
:104020004F4A137C0133DBB21374032B02D91346BE
:1040300000221A744A4B93F91040C4EBC402D70013
:104040001F44484B1F6001237B72FFF7E3FCF860BD
:10405000C9E75C23444A03FB0423444A136000225B
:104060001A64E0B2FFF7A8FDBFE7E118F05C505416
:104070000133DBB2022BF8D9082D4AD0F8BD022D4E
:1040800010D805EB45070023022BF5D8F15C374823
:1040900000685C1C204490F858003B444140D154D7
:1040A000E3B2F1E7082DE7D8EA1E02EB42029918C5
:1040B00015F0010F11D0707894F859406040985471
:1040C00033782A4A126892F8580043404B70B3780C
:1040D00092F85A205340CB70CEE7082D12D0337897
:1040E00094F85820534001F8013C73781F4A126835
:1040F00092F8590043408B70B37892F85A2053409D
:104100004B70B9E7337894F85B20534001F8013CD9
:10411000B2E7144B1868012343720B238361134ADF
:1041200014686364124A1360002304E0C15C114AFE
:10413000D1540133DBB2082BF8D900230DE003F191
:10414000240234F8121003F10C0200EB42029180B9
:10415000094A22F813100133DBB2072BEFD98DE7A0
:10416000F43C0020343C0020EC3D0020603B00206B
:10417000643B0020E83C0020D83D002010B5194BDE
:1041800055221A70C4225A70174A1468E2789A703D
:104190002278DA7062781A71A2785A7122799A714B
:1041A000FFF70EFF012800D010BD611DE078FFF77A
:1041B00011FF0D4B1B685A790A4CE2719A792272F1
:1041C000DB7963720023A372E372084B1B882373AD
:1041D0000C21601CFDF7D6F960730E20FEF7CAFCB7
:1041E000E2E700BF0C370020543B0020922A002059
:1041F00070B582B00646C0EBC003D900334B1944FA
:10420000334B19605C22334B02FB0033324A13609C
:10421000324A1568A87993F85840314A60401072C4
:10422000E87993F8594060405072287A93F85A40E0
:1042300060409072687A93F85B304340D372FF23FA
:104240001370FE235370002305E09A1CEC5C244895
:1042500084540133DBB2052BF7D9214C01AB092281
:104260002046FDF791FB9DF80420637A9A4204D121
:104270009DF80520A37A9A4207D03046FFF796FBB7
:104280003046FFF793FB02B070BD9DF80620E37A3D
:104290009A42F2D155232370AE236370237AA37020
:1042A0000E4B1B681A7862F00F02E2705A78227186
:1042B0009B7863710B4B1B88A3710621601CFDF773
:1042C00061F9E0710820FEF755FCDCE7F43C0020C2
:1042D000343C0020EC3D0020603B0020543B00209B
:1042E0000C370020922A0020C0EBC000C300084811
:1042F0001844084B1860002307E0074A1268D15C95
:10430000C21882F82C100133DBB2092BF5D97047A3
:10431000F43C0020343C0020543B002010B4C0EB9F
:10432000C000C4000C4B1C440C4B1C6000231846FE
:1043300001E00133DBB2092B0AD8E21892F82C1005
:10434000074A1268D25C9142F3D00A230120F0E7B9
:104350005DF8044B704700BFF43C0020343C002063
:10436000543B0020044B1B88B3F5B46F02D3024BBF
:1043700000221A80704700BFE43C002008B51520D9
:10438000FFF7F0FA00B908BD4EF660211520FFF7DF
:10439000E1FA0A4B1B88B3F5346F0BD20133074A9D
:1043A0001380074B1B88B3F5707FECD20133044AAE
:1043B0001380E8E7FFF7D6FFF3E700BFE43C0020F7
:1043C000383C0020F0B4194B1E883446184B1F8827
:1043D0007B1E9E4204DA721C164909888A421FD04D
:1043E0009E4201D000230DE0124B1B88DBB100235D
:1043F00008E0C55C04EB840291000F4A0A44D554DE
:104400000133DBB20D4A12789A42F2D80136B6B2C5
:10441000013F3FB23E40054B1E800020F0BC70477C
:104420004FF0FF30FAE74FF0FF30F7E7F23C0020A3
:10443000EA3D0020663F00203C3C00200F10002099
:1044400038B5C0EBC002D300294A1344294A13608F
:104450005C23294A03FB0023284A136045B22846FF
:10446000FFF75CFF00283AD1002305E0FFF758FA78
:1044700001E0FFF71FFA23465C1CE4B22F2B29D87A
:104480001E4B19684B6C1B4A12685069834221D23B
:1044900003F57A7398421DD2537A012B1AD193698E
:1044A000013393614A6C01324A6415490B68013348
:1044B0000B60144BA3FB0213DB0803EB43039900CF
:1044C0008A42D3D012F0030FD3D1FFF703F9FFF7DD
:1044D000F1F9D0E72F2C06D82846FFF789FE2846A9
:1044E000FFF702FF38BD084B1868FFF76BFFF6E7D0
:1044F000F43C0020343C0020EC3D0020603B0020D8
:10450000643B0020ABAAAAAA543B002010B50E4B76
:104510001A68D3785B0303F4F813117943EA012393
:10452000527942EA0304FFF783FA00280ADBC0EB62
:10453000C002D300054A1344054A13605C61C0B24F
:10454000FFF77EFF10BD00BF543B0020F43C00206D
:10455000343C002010B5FBF7C7FE684B04221A70EC
:10456000674B00221A70674B186802781409C378E9
:1045700013F0010301D1072C17D00BB90D2C45D036
:104580000BB90E2C6ED0FFF7DFFA032840F09280B3
:104590000F2C00F08880FFF757FBFFF7EFFE574B1B
:1045A0001B78042B00F08E8010BD037A427A11092B
:1045B00041EA031181721201C27223F00F030372E8
:1045C0000921FCF7F5FF4F4B1B685A7912F00F0FCA
:1045D00003D19A790AB9DA7922B1C0F30F22997A14
:1045E0008A4209D0FFF7B0FA0328D6D1434B0822FC
:1045F0001A70FFF729FBD0E7C0B2DB7A9842F1D1FD
:104600003E4B05221A70FFF77BFBC6E702F00F0254
:104610000A2A13D00821FCF7CBFFC0F30F21394B36
:104620001B681A7A9142B8D1C0B25B7A9842B4D171
:10463000324B05221A70FFF717FCAEE70621FCF794
:10464000B7FFC0F30F212F4B1B689A799142A4D179
:10465000C0B2DB799842A0D1284B07221A70FFF72D
:1046600047FC9AE7264B01221A70FFF73FFA06280B
:104670000CD0254B1B78012B0FD0224B1B68DB780D
:1046800013F0040F0CD0FFF76DFC86E71F4B1B786F
:10469000012BEED1FFF772FD7FE7FFF763FC7CE7AC
:1046A000FFF734FF79E7FFF7C3F9B0F1FF3F7FF47D
:1046B00074AF70E7FFF764FA02287FF46EAFFFF77C
:1046C000C3FA6AE70E4B1B7853B9114B1B88114A8A
:1046D0001288934204D8104A128813440C4A13805B
:1046E0000E4B1B780E4A1278934202D201330B4ACA
:1046F00013700C4B00221A7056E700BF4E37002093
:104700005C3F0020543B0020323C0020313C002024
:104710000237002006370020143B0020F936002025
:10472000163B0020F03600200D4B1B880D4A1288E6
:10473000934211D003EB83018A000B490A440B49D1
:104740000A6001339BB20A4A1288013A12B213403E
:10475000034A1380002070474FF0FF30704700BFBE
:10476000663F0020F23C00203C3C0020543B0020EF
:10477000EA3D0020032801D8014B1870704700BFA4
:10478000D43D002008B50F4B0F4A1A60002307E004
:104790000C490A680020507238320A600133DBB2DB
:1047A000032BF5D9094B06221A800020084B1880EC
:1047B000084B1880084B1880084B1880FFF7FCF94D
:1047C00008BD00BF343C0020F43C0020EA3D00203E
:1047D000F23C0020663F0020E43C0020383C0020F2
:1047E0001D4A138801339BB21380072B02D913464D
:1047F00000221A80194B00221A80184B1A88072AA7
:1048000028D810B406E00132144B1A80134B1A88D2
:10481000072A1CD8104B1B88DB009BB210490B8069
:10482000981800F5D07044000E4911F810000134BA
:104830000C5D40EA04200C4C2080085C03F570738A
:104840001344C95C8842DED00649C854DBE75DF8F2
:10485000044B7047704700BF763F00206E3F00203A
:10486000743F0020EC300020723F002008B51D4B43
:104870001B78023B032B08D8DFE803F00208233043
:10488000FFF7AEFF174B03221A7008BD164B93F8C3
:1048900086314BB9154B1A78154B1B781A4203D148
:1048A000104B01221A70F0E74FF496710220FFF7C7
:1048B00051F8104B4FF480421A600A4B04221A70D0
:1048C000E3E70220FFF74EF80028DED00A4B4FF452
:1048D00080421A60034B05221A70D6E7014B012271
:1048E0001A70D2E7703F0020EC30002078280020BA
:1048F0006C3F00203CA000463CA00044014B1870D7
:10490000704700BF713F0020024B1870024B1970B6
:10491000704700BF703F00206C3F002010B50120A1
:10492000FFF7ECFFFF210120FFF7EEFF00230BE074
:1049300003F5D07042001349042401F810400132FD
:104940000020885401339BB23F2BF1D90D4A00233C
:10495000137153710DE00C4A52F8232003F5D07403
:104960006100084800F81420120A01314254013352
:104970009BB21A2BEFD9002304220E21012002F052
:1049800091FC10BDEC300020A4120100014B1878FE
:10499000704700BF703F002008B50D4B93F8C83238
:1049A0000C4A92F8C822934207D0012B06D0084B3C
:1049B00093F8C822074B83F8C82208BD064B197824
:1049C0000220FFF7A1FF024B002283F8C822EEE786
:1049D000EC300020C02A00207828002010B50024E8
:1049E00004E0154B02221A700134E4B2052C21D8E0
:1049F000114B1B78013B032BF6D801A252F823F090
:104A0000E3490000114A00001D4A0000294A000045
:104A1000FFF72CFF084B03221A70E5E7FFF7E0FED3
:104A2000054B04221A70DFE7FFF7B6FF024B0122A5
:104A30001A70D9E710BD00BF713F0020F0B4274BBA
:104A40001A782749885C431CDBB28B5402EB820145
:104A5000014424480468244840F82140042B02D92A
:104A60001F4B0021995400242646234601E00133C0
:104A7000DBB2032B11D81C4D02EB8201C81855F88C
:104A800020005F1C394455F82110884200D9FEB23D
:104A90008842ECD25C1CE4B2E9E7002005460346FC
:104AA00001E00133DBB2032B0DD8B342F9D0A342AE
:104AB000F7D002EB820119440B4F57F821100D4437
:104AC0000130C0B2EDE730B1B5FBF0F0074B43F871
:104AD0002200F0BC70470020F8E700BF301500202E
:104AE000B43C0020C841002004410020DC3F0020ED
:104AF000F8B50121204801F0FFFA00211F4801F01C
:104B0000BBF91F4EF070002001F054FAB0701D4B3D
:104B100000241C7402279F700325DD705D703570C2
:104B2000234601220421204602F0BCFB2346012239
:104B30000E21284602F0B6FB234601222946052015
:104B400002F0B0FB234601220B21104602F0AAFB23
:104B5000234601223946204602F0A4FB23460122C7
:104B60000521084602F09EFB234601220F2128461C
:104B700002F098FBF8BD00BF009204000024F4008E
:104B8000381000204010002003680A6802600B60A3
:104B90007047F8B505460F46002613E00134BB1BED
:104BA000013BA3420DDD05EB840055F82420631C76
:104BB00005EB830155F823309A42EFD9FFF7E4FF64
:104BC000ECE701367B1EB34201DD0024E7E7F8BDC8
:104BD000024B5A78024B53F822007047BC10002059
:104BE000DC3F0020024B9A79024B53F822007047B9
:104BF000BC100020DC3F002010B5034C09212046EA
:104C0000FFF7C7FF206910BDE0400020F8B5BD4B9D
:104C10001B78013B0F2B16D8DFE813F010001600AD
:104C200015004E005A00150015007D00B000B700B9
:104C3000C10063001F016801B701DE01FFF758FFE3
:104C4000B04B02221A70F8BD64211120FEF782FEDB
:104C5000AD4D284601F090F8AC4C204601F07AF9B1
:104C600053220021284601F090F8A94E30706622A8
:104C70000121284601F089F8F0706C2202212846B3
:104C800001F083F870709B220321284601F07DF823
:104C9000B070E36943F4A043E3610123C4F89030AA
:104CA0009C49204601F00AF92946204601F08FF878
:104CB000944B04221A70C6E71120FEF753FE002819
:104CC000C1D0924B04229A608E4B0C221A70BAE724
:104CD0001120FEF747FE0028B5D08A4B0C221A702F
:104CE000B1E78A4BDB6813F4003FACD0002408E046
:104CF0008949864801F0BAF8884B43F8240001340A
:104D0000E4B2032CF4D964211120FEF723FE7D4B7D
:104D100008221A7097E71120FEF724FE002892D08F
:104D2000794D284601F028F8784C204601F012F918
:104D300055220021284601F028F8754E70716A222C
:104D40000121284601F021F83071872202212846EE
:104D500001F01BF8B071E36943F48043E361012380
:104D6000C4F890306B49204601F0A8F82946204647
:104D700001F02DF8634B09221A7064E7634B04229B
:104D80009A60604B0B221A705DE71120FEF7EAFD76
:104D900000283FF458AF5B4B0B221A7053E75B4B74
:104DA000DB6813F4003F3FF44EAF002409E0251DFB
:104DB0005949564801F05AF8584B43F82500013438
:104DC000E4B2022CF3D94F4B0D221A703BE7534942
:104DD00051F82450524B1B5D03F598735A0051480B
:104DE00000F8135051F82410090A531CC15401341F
:104DF000E4B2062C33D8042CE9D0484B53F82420D5
:104E000040F6E44303FB02F31B0C454E315D464A7A
:104E100052F8212002FB03F3444D45F82430444B63
:104E2000197055F82420434B1A60FFF707FE45F828
:104E3000240055F82420404FA7FB02329209315D2F
:104E400038314800374E06F8112055F82430A7FBBA
:104E500003239B0B421CB354B9E70024C9E7FFF7B7
:104E6000B7FE0446FFF7BEFE0546201A0BF094FC81
:104E7000324B1B78324A82FB0012C017C0EBE200B3
:104E8000304A42F82300072B2AD801332B4A1370EB
:104E9000FFF7B2FE224B1A79254B1A70254B18608A
:104EA000FFF7CCFD78281FD978381D4E327938327B
:104EB00051001C4B03F81200000A4A1C98542C4461
:104EC0001D4AA2FB0424E009F2793832510003F8AC
:104ED0001200E40B4A1C9C540A4B0E221A70B2E6D4
:104EE000164B00221A70D3E70020DEE7164B1B7822
:104EF000022B2BD80133144A1370024B0F221A7065
:104F0000A1E600BFCC41002040100020002000405E
:104F1000D03F002038100020B43F0020903F0020F8
:104F2000BC100020EC30002058100020A4410020CC
:104F300030150020C8410020D34D62102F150020ED
:104F400067666666E040002006400020244A92F82A
:104F5000703092F8712043EA0223224A1380224AD9
:104F60001268934206D20023204A13701C4A82F82A
:104F70008631C2E7C8329342BFD91C4B00221A7057
:104F8000174B012283F88621B7E7154991F82C20A9
:104F900091F82D3042EA0322154B1A80154B5B79AC
:104FA0003833580011F813300130095C43EA01230B
:104FB00011490B809A420BD8104B00221A700F4BEC
:104FC0001A78074B83F82E230D4B02221A703AE60B
:104FD0000A4B01221A70F2E7094B02221A7032E6DC
:104FE000EC300020C03F0020781000200640002058
:104FF000B8100020BC100020044000201510002034
:10500000CC410020014B1870704700BFC43F002006
:1050100070B500222FE05300DBB2594951F822103D
:1050200003F1600457480155C1F3072103F16104FE
:105030000155554951F8221003F140040155C1F3BF
:10504000072103F141040155504951F8221003F1A1
:1050500030040155C1F3072103F1310401554C49D6
:1050600051F8221003F150040155C1F307215133C7
:10507000C1540132D2B2072ACDD90523454A136063
:10508000404C84F82033002584F82153424B4FF4E0
:105090007A721A60E82384F82233032384F82333D6
:1050A00084F8245384F8255301263C4B1E6084F871
:1050B000266384F8275384F8285384F8295302235D
:1050C000374A136084F82A3384F82B53354B1E700B
:1050D00084F82C63EF2384F8103384F8115384F898
:1050E000125384F8135384F82D632F4B1D802F4BDC
:1050F0001D8084F8205084F821502D4B1E8084F8A8
:10510000246084F825502B4B1D702B4B1D802B4B9E
:105110001D802B4B40F2D6621A802A4B4EF660223D
:105120001A60602384F82230EA2384F8233040F6A2
:10513000B8310F20FEF70EFC2823234A1380234AA0
:105140001570234A138084F8283084F829503C23B2
:10515000204A136084F82A3084F82B501E4B1B78A9
:1051600084F82E331D4B40F698021A80982384F859
:105170002C30082384F82D303046FFF743FF70BDF4
:1051800058100020EC3000209810002078100020EB
:1051900018100020C83F0020C0410020104000200F
:1051A000843F0020BA3F0020C23F0020C63F0020BD
:1051B000D83F0020B13F0020783F0020AE3F0020C4
:1051C000AC3F00207C3F00208C3F0020B03F0020FF
:1051D00014400020883F002015100020B810002047
:1051E000002070477047000030B585B0094C226838
:1051F000094B1A60094D0A4B2B600A4B019304F0CE
:10520000D9F802902B68039301A9206802F04AFFA5
:1052100005B030BD04110020D4410020D041002051
:10522000F81000208816010038B504F0C3F80546D0
:10523000064C2368D3F8AC0204F0B0F8206802F002
:1052400043FF284604F0AAF838BD00BF041100202F
:1052500008B50421112001F0FFFA0121084800F0EF
:105260004BFF0321074801F0F7FA0321064801F03C
:10527000F3FA0321054801F0EFFA002008BD00BF52
:1052800030053E0002001E0003002000050024003F
:1052900008B500F039F808BD08B50A4B01225A6478
:1052A0001A6842F480721A60074A136843F4F8439C
:1052B000136004F031F804F04FF8FFF7C9FF04F071
:1052C0003BF808BD00000E40A4310E4008B500F0C8
:1052D00073F800F07DF808BD08B5FFF7D9FF04F0BA
:1052E00073FAFFF781FF08BD08B502F05DFD02F01B
:1052F000F1FD02F09DFD08BD7047704708B5FFF74E
:1053000093FF08BD7047704770B598B0144E11AC4C
:1053100035460FCD0FC495E8070084E80700242226
:10532000002108A80BF0BCFA0E4B06930E4B079316
:10533000012309938DF840301F238DF8413002ACD2
:1053400006F11C030FCB84E80F00084B009306AB5B
:1053500011AA2146064804F055F918B070BD00BFE7
:10536000A01601000000014000320400E8170020F0
:105370002C18002008B5024B186804F0DDF908BDB0
:105380002C180020704708B5FFF7FCFF08BD7047D8
:1053900008B5FFF7FCFF08BD704738B504460D4659
:1053A00002F00AFD29462046FFF7F6FF38BD08B592
:1053B000FDF758FA08BD000008B5034800F00AF9E7
:1053C000024800F007F908BDD0160100E016010000
:1053D00008B5034800F0ACF9024800F0A9F908BD8F
:1053E000F016010008170100FEE7000010B500F0FC
:1053F0006FF8074B074C1946074A04E0106808602D
:10540000043304310432A342F8D3FAF78DFE00BF0F
:1054100000100020D01400204836010000487047DA
:1054200000F04902114BD3F8943003F00703023B1C
:10543000032B0DD8DFE803F0050F02080C4B1868AA
:105440000BE00C4B186808E00B4B1868400804E0B0
:10545000094B186801E04FF40040044BD3F80031C9
:10546000C3F304230133B0FBF3F0704700400E4058
:10547000341100202C1100203011002008B5FFF756
:10548000D1FF054BD3F80831C3F308230133B0FB38
:10549000F3F0024B186008BD00400E4028110020B8
:1054A000014B1868704700BF2C11002008B5064B4F
:1054B0001860064BD3F8943003F00703022B00D09A
:1054C00008BDFFF7DBFFFBE72C11002000400E407A
:1054D000044B054A9A60D3F8882042F47002C3F85E
:1054E0008820704700ED00E0000000004FF400400D
:1054F00070474FF47A707047014B1868704700BFCF
:105500003411002000230360704703680B600160C2
:10551000704790B130B404466AB161B1002003E035
:1055200004F8013B01320130137813B14D1E85425E
:10553000F6D80023237030BC70477047034640B153
:10554000002001E0013301301A781AB18842F9D302
:1055500070470020704708B54FF0FF31FFF7EEFFAE
:1055600008BD80B170B5064632B129B115460C466A
:10557000FFF7F1FF844200D870BD2A46211A30445B
:10558000FFF7C7FFF8E7704710B3F8B50F460646B8
:1055900051B90120F8BD20340FE0601BFAD13378F7
:1055A000002BF7D00136013734780BF035F9204461
:1055B000437803F00303012BEDD03D780BF02CF979
:1055C0002844437803F00303012BE6D12035E4E7B8
:1055D0000120704708B5436813B10068984708BDBB
:1055E0002220FCE708B5836813B10068984708BD1E
:1055F000FF20FCE70023144A12789A4223D910B501
:105600001C46124A52F8232011684A79824206D079
:105610000133DBB20C4A12789A42F1D812E00B79CE
:1056200003EB430318010A4B034402EBC30292004D
:105630001368B3FA83F35B090B70044B53F824002F
:10564000FAF71AFF10BD7047CC16010018110020A0
:105650001CA0104210B582B004460121164800F08B
:105660004BFD002301226179207901F01BFE227994
:10567000637902EB42021101104A0A4403EBC203B0
:105680009B001B68B3FA83F35B092370A379022B99
:1056900002D0002002B010BD00F076F90849607910
:1056A00000F080F9617920790123019300930A4683
:1056B00001F09AFDEDE700BF00250A001CA0104292
:1056C000F55500000078704710B40279437902EB79
:1056D00042021101154A0A4403EBC2039B001A68F7
:1056E000141C18BF01248179012907D019B9B2FA15
:1056F00082F2520902705DF8044B704743885B00E8
:105700009BB2234343F47F4343F0C0034FF6E07260
:10571000934205D04FF6DF72934204D04380EAE70C
:1057200001220270F6E700220270F7E71CA0104287
:1057300008B543680068984708BD000010B50446E6
:105740000121094800F0D8FC0121084800F0D4FCF0
:10575000A378B3FA83F35B0904226178207801F01F
:10576000A1FD002010BD00BF4041050000250A003A
:1057700083784BB10378407803EB4303190101228E
:105780008240064B5A5070470378407803EB43033E
:10579000190101228240024B5A5070470CA000466A
:1057A0000CA0004483784BB10378407803EB4303AB
:1057B000190101228240064B5A5070470378407805
:1057C00003EB4303190101228240024B5A507047F8
:1057D0000CA000440CA000460278437801219940B7
:1057E00002EB4202130103F1804303F52043996168
:1057F000704700000278437802EB42021101074A29
:105800000A4403EBC2039B001B68DBB2827812B927
:10581000B3FA83F35B091846704700BF0CA010422F
:10582000124B1B78F3B1F8B110B5044601F051F9F1
:105830000023072B12DC0E4A02EB0312127B0AB183
:105840000133F6E723600A4A1B01D11801240C73C7
:105850000024D45001F041F9204602E001F03DF966
:10586000044810BD0448704704487047C019002020
:1058700040180020048000F0028000F0018000F059
:1058800000B583B0144B1B68019300238DF80430DE
:1058900001F01FF9114B1B7833B9104B01221A701C
:1058A00001F01BF9002309E001F017F90C480FE0A3
:1058B0000C4A02EB0312002111730133072BF7DDB1
:1058C00004238DF807300DEB030001F06DFF00207D
:1058D00003B05DF804FB00BF20170100C0190020D1
:1058E000038000F040180020F8B5194B1F6EDB6EE6
:1058F0001F4002D40126002402E0FEE701347600B6
:10590000072C24D83E42F9D0114B9E662301114A40
:10591000D358002BF2D002EB0415A9680131A9601D
:105920006A682046984780F00103DBB26A7B012A4F
:10593000E4D1002BE2D0084B03EB4413197B6FF347
:10594000410119731A7F6FF341021A77D6E7F8BD48
:1059500000200E4040180020C018002010B504465A
:105960007CB194FAA4F0B0FA80F0C2B20123934063
:1059700024EA0304034B53F82230002BF0D098475D
:10598000EEE710BDC4190020054B4FF48022C3F888
:1059900080211A604FF48062C3F880211A6070473A
:1059A00000E100E038B504460D4601F092F8034BE3
:1059B00043F8245001F091F838BD00BFC41900200D
:1059C00008B5084BD3F82804D3F81C24104020F461
:1059D0002A5020F02A004004400CC3F82404FFF7AA
:1059E000BDFF08BD00A0004008B5084BD3F828044F
:1059F000D3F81C24104020F4AA4020F055000004E5
:105A0000000CC3F82404FFF7A9FF08BD00A0004064
:105A1000C000094BA3FB0023084A1068A0EB9300C9
:105A200010F1800F03DB7F2803DD7F2001E06FF0A2
:105A30007F0040B2704700BFCDCCCCCC0C1A002008
:105A4000044B4FF04042DA621A6B22F040421A6374
:105A5000704700BF00300E40002305E0354A02EBDE
:105A6000C30235490A600133042B16DC314A52F86F
:105A70003320002AF7D0304A11680A68002AEDD096
:105A80002C4A02EBC30210790A799042EBD9294AD9
:105A900002EBC30228490A60E5E7002305E0274A34
:105AA00002EBC30226490A600133042B16DC234AA9
:105AB00052F83320002AF7D0214A11680A68002AD8
:105AC000EDD01E4A02EBC30210790A799042EBD264
:105AD0001A4A02EBC3021A490A60E5E7164B196835
