:020000040000FA
:1000000002180002180319FD1A022202180B1BE73E
:0A0010001BF1220218131BB01BC4E1
:10001B0002181B7F0122D322021823E4FF0227E4DC
:0E002B0002182BA2459231220218338FEF22C9
:06003B0002183B022E7FBB
:07004300021843122ABA2241
:0E004B0002184BC221D21E22021853026679FF
:06005B0002185B026E8931
:07006300021863E5F7132208
:07006B0002186B75C80122A9
:1000730002187300000000000000000000000000F0
:10008300000000000000000000000000000000006D
:10009300000000000000000000000000000000005D
:1000A300000000000000000000000000000000004D
:1000B300000000000000000000000000000000003D
:0E17F800000000000000000002257C0219F82D
:101808007FB8EF90181393901900730A20364CE5AF
:101818007AFF22EFF57A2275ED0422027324AF696C
:01182800229D
:10182B000240811C281C321C371C3C1C411C461CD2
:0F183B00501C5A1C5F1C7D1C82E5ED5401FF22DE
:10184B00026B2BC2D5E830E70FB2D5E4C39BFBE4A8
:10185B009AFAE499F9E498F8EC30E717B2D5121834
:10186B0084121FE4E4C39BFBE49AFAE499F9E4982D
:10187B00F88003121FE430D50DE4C39FFFE49EFEF6
:10188B00E49DFDE49CFC227895E4F6D8FD900000E5
:10189B007F007E10E4F0A3DFFCDEFA904FFFA3E5A0
:1018AB0083C394204011FEAF829020000E0FE48082
:1018BB0002F0A3DFFCDEFA12192002258E22323F42
:1018CB00241E16110E0B09070504030201F0C8A70D
:1018DB00917767604638353230242220140001019D
:1018EB00020203030404050506060707822D1C16D6
:0418FB0013111010A5
:10190000C07A7419C0E0C082C083757A0AE5FF54BA
:10191000CF4490F5FF22C07A7419C0E0C082C08322
:10192000757A20E5FF54CF4490F5FF22C07A7419F0
:10193000C0E0C082C083757A36E5FF54CF44A0F57D
:10194000FF22C07A7419C0E0C082C083757A4CE56A
:10195000FF54CF44B0F5FF2290800021169097FFEE
:10196000211690808F21169080D221169098982170
:101970001690992F211690993C211690A0022116BD
:1019800090A801211690A810211690B1232116903D
:101990008192211690B1262116908136211690B899
:1019A00005211690BFF321169097C8211690B2B961
:1019B000211690C01E211690B06C211690C0902167
:1019C00016908119211690C143211690B1C4211699
:1019D00090A131211690B5DB211690C809211690EF
:1019E000C888211690C8BA2116909D0D211690C85E
:1019F000C0211690C2C6211690B2F9211690D00CC3
:101A0000211690D027211690C3F4211690B74C21AF
:101A10001690B48A211690D062211690CC702116AF
:101A20009097FA211690D0EE211690D0F1211690C1
:101A3000D13D211690D1A7211690D2D8211690D54C
:101A40002D211690B210211690D53B211690D5422B
:101A5000211690D5BE211690D5A0211690D64A21E8
:101A60001690C973211690D6D4211690D78E2116C0
:101A700090B249211690D1BF211690AE89211690BF
:101A8000A532211690C8D6211690D831211690A8DB
:101A9000CE211690CD77211690CF5E211690CF2CB7
:101AA000211690D8A9211690A987211690A1A721C7
:101AB0001690A024211690A260211690A1682116EC
:101AC0009081392116909958211690D7702116903F
:101AD000D7A9211690B1A1211690B1A7211690CBBC
:101AE00020211690C9C8211690C985211690D901C8
:101AF000211690B26B211690D28F211690D9102109
:101B00001690D924211690D31421169081D2211633
:101B100090AF51211690B73C2116909E4D21169002
:101B20009DF0211690D9C1211690D1F4211690D99B
:101B3000C6211690AA93211690BDB6211690A4BC7A
:101B4000211690A0DF211690A3E4211690D9D3216D
:101B50001690A78A211690D9E8211690D3AF2116A6
:101B6000908133211690D47B211690D4E5211690D4
:101B70008130211690D622211690D309211690CCBF
:101B8000A3211690CC60211690CD40211690C39CC5
:101B9000211690C2012116909ADE211690A37B2176
:101BA0001690A325211690DA5E211690C72D2116D6
:101BB00090BC38211690B9CB211690A1F721169030
:101BC000918F211690DB07211690DB14211690DBF4
:101BD00040211690DB8C211690DBD1211690C8385D
:101BE000211690BE4A211690DBEF211690C0E62107
:101BF0001690C099211690B1CF211690DBFE2116C8
:101C000090DC74211690DE62211690C0DC211690C3
:101C1000DE77211690DE3F211690800021429085CC
:101C20005021429085A821429085422142908531E1
:101C30002142908828214290885921429088C621CB
:101C4000429088FE21429083B321429088422142F3
:101C500090891221429080A921429089332142909B
:101C6000896D2142908B482142908B7C2142908A41
:101C7000342142908AE821429089DE2142908C29C9
:101C80002142908121214290828D21429089BA2166
:101C900042908CA52142908CC82142908DFB21421C
:101CA0009099D6212C9099EF212C9099F9212C9084
:101CB0009A5D212C909A03212C909A7E212C909A47
:101CC0000D212C909A90212C909018212C909A17ED
:101CD000212C909A21212C909A2B212C909A3521FD
:101CE0002C909A3F212C909A49212C909A69212C72
:101CF000909A53212C909AA6212C909520212C90DB
:101D000098C3212C90999C212C9080A5212C9092F5
:101D100039212C909B29212C90910C212C909BD81F
:101D2000212C9095CD212C909584212C909CD5210F
:101D30002C00BB010689828A83E0225002E722BB85
:101D4000FE02E32289828A83E49322BB010CE582AE
:101D500029F582E5833AF583E0225006E92582F8E9
:101D6000E622BBFE06E92582F8E222E58229F58219
:101D7000E5833AF583E49322BB010989828A83F8DB
:101D8000E028F022500327F722BBFE05F8E328F3F2
:101D9000228A838982F8E4932822BB010FF8E58226
:101DA00029F582E5833AF583E028F0225009C582BF
:101DB00029F8E58226F622BBFE09C58229F8E2252C
:101DC00082F222F8EA2583F583E9932822BB0106F3
:101DD00089828A83F0225002F722BBFE01F322F8A7
:101DE000BB010DE58229F582E5833AF583E8F0220F
:101DF0005006E92582C8F622BBFE05E92582C8F215
:101E000022EF8DF0A4A8F0CF8CF0A428CE8DF0A402
:101E10002EFE22BC000BBE0029EF8DF084FFADF03A
:101E200022E4CCF875F008EF2FFFEE33FEEC33FC24
:101E3000EE9DEC984005FCEE9DFE0FD5F0E9E4CE5A
:101E4000FD22EDF8F5F0EE8420D21CFEADF075F029
:101E500008EF2FFFED33FD4007985006D5F0F22232
:101E6000C398FD0FD5F0EA22C2D5EC30E709B2D510
:101E7000E4C39DFDE49CFCEE30E715B2D5E4C39FBE
:101E8000FFE49EFE121E13C3E49DFDE49CFC800350
:101E9000121E1330D507C3E49FFFE49EFE22C5F057
:101EA000F8A3E028F0C5F0F8E582158270021583EA
:101EB000E038F022A3F8E0C5F025F0F0E5821582C5
:101EC00070021583E0C838F0E822BB010A89828AD3
:101ED00083E0F5F0A3E022500687F009E71922BB62
:101EE000FE07E3F5F009E3192289828A83E493F57A
:101EF000F074019322BB010789828A83021E9E50DF
:101F00000B09C5F027F7C5F01937F722BBFE0D09FD
:101F1000F8E325F0F3C5F019E338F322F889828A53
:101F20008374019325F0C5F0F8E4933822BB010ACD
:101F300089828A83F0E5F0A3F0225006F709A7F022
:101F40001922BBFE06F3E5F009F31922EF2BFFEE91
:101F50003AFEED39FDEC38FC22E88FF0A4CC8BF092
:101F6000A42CFCE98EF0A42CFC8AF0EDA42CFCEA55
:101F70008EF0A4CDA8F08BF0A42DCC3825F0FDE98F
:101F80008FF0A42CCD35F0FCEB8EF0A4FEA9F0EB85
:101F90008FF0A4CFC5F02ECD39FEE43CFCEAA42D91
:101FA000CE35F0FDE43CFC2275F008758200EF2F81
:101FB000FFEE33FECD33CDCC33CCC58233C5829B0F
:101FC000ED9AEC99E58298400CF582EE9BFEED9A35
:101FD000FDEC99FC0FD5F0D6E4CEFBE4CDFAE4CCD1
:101FE000F9A88222B800C1B90059BA002DEC8BF0D3
:101FF00084CFCECDFCE5F0CBF97818EF2FFFEE3390
:10200000FEED33FDEC33FCEB33FB10D703994004BA
:10201000EB99FB0FD8E5E4F9FA227818EF2FFFEEE1
:1020200033FEED33FDEC33FCC933C910D7059BE912
:102030009A4007EC9BFCE99AF90FD8E0E4C9FAE46E
:10204000CCFB2275F010EF2FFFEE33FEED33FDCC0D
:1020500033CCC833C810D7079BEC9AE899400AEDF7
:102060009BFDEC9AFCE899F80FD5F0DAE4CDFBE49F
:10207000CCFAE4C8F922EF5BFFEE5AFEED59FDEC15
:1020800058FC22C3E49FFFE49EFEE49DFDE49CFC1B
:1020900022EB9FF5F0EA9E42F0E99D42F0EC64806D
:1020A000C864809845F022EB9FF5F0EA9E42F0E983
:1020B0009D42F0E89C45F022E8600FECC313FCED74
:1020C00013FDEE13FEEF13FFD8F122E8600FEFC30C
:1020D00033FFEE33FEED33FDEC33FCD8F122BB01D0
:1020E0000789828A830221205005E9F80222F5BB84
:1020F000FE05E9F802230122E0FCA3E0FDA3E0FED7
:10210000A3E0FF22E493FC740193FD740293FE7438
:102110000393FF22E0F8A3E0F9A3E0FAA3E0FB2297
:10212000ECF0A3EDF0A3EEF0A3EFF022A8828583FC
:10213000F0D083D082122143122143122143122175
:1021400043E473E493A3C583C5F0C583C8C582C8BF
:10215000F0A3C583C5F0C583C8C582C822A4258263
:10216000F582E5F03583F58322E6FB08E6FA08E61A
:10217000F922EBF608EAF608E9F622E0FBA3E0FA1A
:10218000A3E0F922F8E0FBA3A3E0F925F0F0E58253
:10219000158270021583E0FA38F022EBF0A3EAF022
:1021A000A3E9F022BB010789828A8302217B5005C3
:1021B000E9F8022169BBFE05E9F802230D89828A4C
:1021C0008302231FBB011A89828A83D0F0D0E0F8F2
:1021D000D0E0F9D0E0FAD0E0FBE8C0E0C0F00221A6
:1021E0009B5016E9F8D083D082D0E0F9D0E0FAD045
:1021F000E0FBC082C083022172BBFE16E9F8D083E7
:10220000D082D0E0F9D0E0FAD0E0FBC082C08302F7
:10221000231622BB010DE58229F582E5833AF58379
:1022200002217B5007E92582F8022169BBFE07E9FC
:102230002582F802230DE58229F582E5833AF583AC
:1022400002231FBB0120E58229F582E5833AF5834D
:10225000D0F0D0E0F8D0E0F9D0E0FAD0E0FBE8C070
:10226000E0C0F002219B5018E92582F8D083D0828B
:10227000D0E0F9D0E0FAD0E0FBC082C08302217246
:10228000BBFE18E92582F8D083D082D0E0F9D0E0F7
:10229000FAD0E0FBC082C08302231622D083D08212
:1022A000F8E4937012740193700DA3A393F8740172
:1022B00093F5828883E4737402936860EFA3A3A309
:1022C00080DF8A838982E473EC8EF0A4CCC5F0CCE5
:1022D000CDF8EFA4CEC5F02DFDE43CFCE8A42EC85B
:1022E000C5F03DFDE43CFCEFA4FFE5F028FEE43D35
:1022F000FDE43CFC22ECF608EDF608EEF608EFF6FD
:1023000022ECF208EDF208EEF208EFF222E2FB080E
:10231000E2FA08E2F922EBF208EAF208E9F222E432
:1023200093FB740193FA740293F9224102B200C143
:1023300031E0080200005A654E7359730000E00155
:1023400002001554E001020016A5E0E8022568FE2F
:10235000FEFEFEFEFEFEFEFEFEFEFEFEFEFEFEFE9D
:10236000FEFEFEFEFEFEFEFEFEFEFEFEFEFEFEFE8D
:10237000FEFEFEFEFEFEFEFEFEFEFEFEFEFEFEFE7D
:10238000FEFEFEFEFEFEFEFEFEFEFEFEFEFEFEFE6D
:10239000FEFEFEFEFEFEFEFEFEFEFEFEFEFEFEFE5D
:1023A000FEFEFEFEFEFEFEFEFEFEFEFEFEFEFEFE4D
:1023B000FEFEFEFEFEFEFEFEFEFEFEFEFEFEFEFE3D
:1023C000FEFEFEFEFEFEFEFEFEFEFEFEFEFEFEFE2D
:1023D000FEFEFEFEFEFEFEFEFEFEFEFEFEFEFEFE1D
:1023E000FEFEFEFEFEFEFEFEFEFEFEFEFEFEFEFE0D
:1023F000FEFEFEFEFEFEFEFEFEFEFEFEFEFEFEFEFD
:10240000FEFEFEFEFEFEFEFEFEFEFEFEFEFEFEFEEC
:10241000FEFEFEFEFEFEFEFEFEFEFEFEFEFEFEFEDC
:10242000FEFEFEFEFEFEFEFEFEFEFEFEFEFEFEFECC
:10243000FEFEFEFEFEFEFEE001022650FF410413FA
:10244000060114004104120141041101C136011AB0
:1024500000011700C13941271E05C1404326220053
:10246000000041263300C12C013000C128C129C120
:102470002A412D9700C15D432C53000000412C528E
:1024800000412C5600C142412A2C00017900C1268E
:10249000C124412A1E00412A2B00602824950420D3
:1024A000000000010001FE81FF88CF1F0000FB9F9C
:1024B0007DA027000080008086000000E8730000F7
:1024C0000E0000600000014D00014F0001530001AB
:1024D0005200015000014B01014E02014C01412408
:1024E0003A0041248E00C143C144015A9601560F5F
:1024F000412DA000E00C027FF4000000000002006B
:1025000009042004050090232BE47E01937001222E
:10251000A3FF543F30E509541FFEE493A360010E6E
:10252000CF54E0B4E03AEFFAEEF9E493FBA3E4937E
:10253000FEA3E493FFA3E493FDC083C082C001C067
:1025400002C006C00712199ED007D006D002D001E3
:10255000D082D083A30FEF70010EDADAD9D880A928
:1025600054C025E060105005A3DFFD809CA3A3A309
:10257000DFFDDEFB8093A3A3DFFD808D7581957564
:10258000FF03759E0212192002302E0218C89023F4
:102590002BE47E019360F4A3FF543F30E509541F00
:1025A000FEE493A360010ECF54E0B4E00EEFFAEE28
:1025B000F9A3A3A3A3DAFDD9FB80D654C025E0601C
:1025C0004B5026E493A3F85407240CC8C333C454D7
:1025D0000F4420C8834004F456800146F6DFE480AF
:1025E000B00102040810204080E493A3FAE493A30E
:1025F000F8E493A3C8C582C8CAC583CAF0A3C8C5F6
:1026000082C8CAC583CADFE9DEE78085E493A3F800
:10261000E493A34003F68001F208DFF4022591D28F
:10262000D41A3E1A431A481A4D1A521A571A5C1AEB
:10263000611A661A6B1A701A751A841A891A931A13
:102640009D1ADE1AE31AE81AED1AF21AF71AFC1BA1
:10265000011B101B1A1B2E1B331B421B471B7E1B0F
:10266000831B881CA01CA51CAA1CAF1CB41CB91C75
:10267000BE1CC31CC81CCD1CD21CD71CDC1CE11CFE
:10268000E61CEB1CF01CF51CFA1CFF1D04000DFAE7
:1026900020000DDC7000000000020C00013F3F3FF5
:1026A0000404045A2D5761766520342E303500001D
:1026B000124FE44FFC50025920E4F97D0CAC0109A3
:1026C000EC9026A393FC0FEFAA0670010E14F5827E
:1026D0008A83ECF0DDE702001E8F828E83E4F0A394
:1026E0007404D1EB04D1EBA3E4F022F08F828E834B
:1026F000A3A322122C53121BF6125B451219807EE3
:10270000007F15F181BF540B7E007F16F181EF64CD
:10271000A560107E007F10C006127501D006122F32
:102720001AB106121B24121A8E121A0C305D04758F
:1027300071012212752312198F9002B6E0FFA3E0F7
:10274000FE4FFDA3E0FC4DFDA3E0FB4D600BEE5FF3
:10275000FFEC5FFFEB5FF47003122E85E57154030D
:1027600024B6F582E43402F583E065719002B1F09D
:1027700022E54175F016A424E9F9741F35F0FEAF87
:1027800001E4FCFD902C7831201228071229D1EFAA
:102790006005122A6380F5122A506008902C781286
:1027A0002DC0F1C2902C78122DB6F1C2902C781168
:1027B000F8E4F1CF902C7CF1DD902C7CE0FF22112D
:1027C000F8E4E5C820E2FB8FEB221229217F05F116
:1027D000C27FFFF1C2E5C820E2FBAFEB22EFF012AF
:1027E0002878E4FFEFB4010443FE202253FEDF22E9
:1027F00075FF0275E40475E40175E4022275FF02B9
:1028000075E404E4F5E42275FF02E5E430E10675C1
:10281000E40675E40322902B4D122120902B5112D7
:10282000219B110731D1EF6004516380F731119082
:102830002ADFE0FF51596008902B4DB1C01227C22A
:10284000902B4DB1B61227C2902B4D1220F8E48088
:102850001B902B54F14B6019902B5112217BEA49AC
:102860004B6007902B51F1418001E4FF1227C28099
:10287000E01178E4FF0227E4F1BEEF70FB902AE25A
:10288000E0F4600A902D7E7406F0B1AE70FC902AE0
:10289000E0E012229C28B10428B91428BE1528C3F0
:1028A0001728D33028D83428DD3628E2370000280E
:1028B000CB436110856180802F43621080084362A2
:1028C000208003436280856290801D43632085637E
:1028D000A08015436401800D436410800843644068
:1028E00080034364808564B0902D7E740CF0B1AE9B
:1028F00070FC22110731D1EF6004516380F7311170
:102900007F011227C27F031227C21178E4FF02273A
:10291000E47F011227E4D25031217F061227C21131
:1029200078902AE0E012229C294404294C14295171
:1029300015295617296630296B34297036297537C1
:102940000000295E5361EF856180802F5362EF8024
:10295000085362DF800353627F856290801D53635A
:10296000DF8563A080155364FE800D5364EF8008FB
:102970005364BF800353647F8564B07F0CDFFE2205
:10298000902C7D122120902C7D1220F8122784900B
:102990002C81E06F6039110731D1EF600451638001
:1029A000F73111902ADFE0FF51596008902C7DB17A
:1029B000C01227C2902C7DB1B61227C2902C7D1276
:1029C00027BF902C81E0FF1227C21227DFD322C33A
:1029D000223050177F011227E41227CA902D80124F
:1029E00027DD902D80E020E002C250A250E433FFAA
:1029F00022902B56122120902B5A12219B11073125
:102A0000D1EF6004516380F751506008902B56B1AC
:102A1000C01227C2902B56B1B61227C2902B561265
:102A200027BF902B5DF14B60101227D1902B5AF1EC
:102A3000CA902B5BE4F1C480E91178E4FF0227E43B
:102A40007E1F7FC8AB05E4FCFD902C81EBF021805C
:102A50007F011227E431217F031227C2902AE1E08F
:102A6000640222E51530E20EE51520E509E5153092
:102A7000E0047F01D1DF227F011227E4902D7F74D3
:102A800001F0902D7FE0600F1227CA902D7FEFF0AC
:102A90005401F0117880EB31217F9F1227CF902ACB
:102AA000DEEFF01227D1902AE2EFF01227D1902A20
:102AB000E3EFF01178E4FF0227E4902DA1EFF0E5B9
:102AC0006AC394204004516380F5E566C3942040B6
:102AD00003E4F566C2AC121844EF700EE56A700AA2
:102AE000902DA1E0FF1200368012902DA1E0FFAEE4
:102AF000660566747E2EF1E0EFF0056AD2AC7F01C8
:102B000022900441EDF0900440EFF0BF0411A3E0E7
:102B1000FB7D017F01B1E09004407403F0800B90D5
:102B20000441E0FB7D01E4FFB1E0900440E090024D
:102B3000B2F0D209D322902AD3122120902AD712A0
:102B4000219B9145902ADAF1B1902AD31220F8D135
:102B50000D500261FF902AE5E024FFFF902AE4E097
:102B600034FFFEE4FCFD902AD3122114122076904B
:102B70002ADCEEF0A3EFF04E603C914BFFC3902AAD
:102B8000E5E09FFF902AE4E09EFE902ADCF0A3EFB0
:102B9000F0902ADAE0FCA3E0FDD39FEC9E5006A360
:102BA000ECF0A3EDF09101E94A6005914BFF804202
:102BB0007E007F00803C902ADAF1316040902AE468
:102BC000E0FCA3E0FDD3EF9DEE9C400A902ADCECF4
:102BD000F0A3EDF0800D902ADAE0FFA3E0A3CFF0A0
:102BE000A3EFF09101E94A6005914BFF80047E005C
:102BF0007F00902AD8EE8FF0121E9E80B9D322C398
:102C000022902AD712217B902ADCE0FFA3E0902BB0
:102C100054CFF0A3EFF0902AD31220F81116902A87
:102C2000DCE0FEA3E0FFC3902ADBE09FF0902ADA0D
:102C3000E09EF0902AD3122114E4FCFD121F4C9068
:102C40002AD3122120902AD702217B902ADCE0FE91
:102C5000A3E0227A2A79E07F03F1D17A2A79E87F0A
:102C600008F1E87A2A79E67D027F09121C1E7B01B1
:102C70007A2A79E47D027F0B121C1E902AE4F1313E
:102C80006006BEFF1BBFFF18902AE8E024FD60032A
:102C9000047004B1CA8009902AE4E4F0A37440F0FF
:102CA000902AE8E024FD6003047008902AE1740390
:102CB000F08006902AE17402F0902AE0E012229C53
:102CC0002CDC042CE7142CEF152CF7172D0D302DD0
:102CD00015342D1D362D253700002D0275FF0153AB
:102CE0005DEF855DFD804775FF01535EEF800E75DA
:102CF000FF01535EDF800675FF01535E7F855EC96D
:102D0000802C75FF01535FDF855FCA802175FF014D
:102D10005360FE801675FF015360EF800E75FF0152
:102D20005360BF800675FF0153607F8560CB1178CB
:102D30007F11B1A85177902AE2E0248070147F10AF
:102D4000B1A8902ADF740AF0902AE17403F0B1CAA6
:102D50008006902ADF7402F0902AE3E0F470479036
:102D60002AE6E0FEA3E0FF640A4E7006902AE374B0
:102D70000AF0EF64104E7006902AE37410F0EF64CE
:102D8000804E7006902AE37411F0E4B5070AEEB4A1
:102D90000106902AE37412F0E4B5070AEEB40206C5
:102DA000902AE37413F001F3EF4420F5FE22902DF6
:102DB0007EE014F0E0221220F878081220B8E42215
:102DC0001220F878101220B8E422902AE47401F05E
:102DD000A3E4F022110731D1EF6004516380F722A0
:102DE000EB600875FF0153CDFD800675FF0143CDF3
:102DF00002ED600553FBDF800343FB20EF600775A6
:102E0000FF0243E1402275FF0253E1BF2290299E59
:102E10001221209029A212219BE49029C5F0D39081
:102E200029A6E0941E9029A5E094004001227B0190
:102E30007A2979A79029A51275E790299E1220F882
:102E400031F19029A212217BE94A60089029C5F14D
:102E500038FF80027F009029C5E024A7F582E43482
:102E600029F583E06F6002C3229029C5E004FFF0DA
:102E7000D39029A6E09F9029A5E0940050C4227524
:102E8000FF028FE322E4FFD1DFEF6031F10BF104A9
:102E9000C394C040F77B017A0279B8F104FFA3E044
:102EA0005FFFA3E05FFFA3E05FF460E97F01D1DF94
:102EB0007571017E007F08F10BF169F11222900417
:102EC0003A12219BC246E4FFD1DFBF010B90043AC6
:102ED00012217B125B7E92467F01D1DFA24622EF58
:102EE000600FF1D89002BD123239E4FD12324180F8
:102EF000103031037F0022121C14126AF1E433FFF8
:102F0000227F0122D1BE9002B6E0227B017A0279B3
:102F1000B6227404F080037405F0902BD2F194C0B3
:102F200007902BD212217B902BD512760DD0076102
:102F300036E0FEA3E0FF4E22E0F582758300021D1D
:102F40004BE475F001122184021D3274FFF5F0127A
:102F50001EB445F02275F005A424F3F9740035F091
:102F6000FEAF017B017A2C7964902BD5E4F0A3228B
:102F7000902C217405F0902C1EF194C007902C1E0B
:102F800012217B902C21E0FF902B5DE4F0A3EFF069
:102F9000D00721F112219BE4FCFD22902BD9F19462
:102FA000C007902BD912217B902BDCF1B1D007C147
:102FB0000DE0FFA3E09029A5CFF0A3EFF022E5C834
:102FC0005404FF2275F001021E9E12217BEF021DA8
:102FD000CD7B017D01021C1E9002B4E075F0AA2297
:102FE000F582E43429F583227B017D01121C1E7BCE
:102FF00001229002B1E064AA2411FFF022AE071270
:103000002FF2EE04FEEF8EF084AFF02230320D127C
:103010001A34EF6007C256121A20C232902784E099
:10302000600B121C05EF6005E4902784F02275FF09
:103030000275E404E4F5E4121892126EB29002B341
:10304000EFF0901200E0B47A14901214E0B49C0DEA
:103050009002B3E0FF64056004EFB4032EE4900235
:10306000BCF09002BCE0FFC394405013E42FF58203
:10307000E43412F583E4F09002BCE004F080E390C5
:103080001200747AF0901214749CF0121C237A12BD
:1030900079107F01122FE87A1279117D017F2112B8
:1030A0001C1E7A1279127F22122FD1121BDD126E92
:1030B000B2121BD89002B3EFF0125B4B121BD390ED
:1030C00002B3E0FF121D13EF24FFB3925D75FF0200
:1030D00053E6BF124065121BE21226F3205D0C126C
:1030E0001D187B017A267945121AA27F01122EDF64
:1030F000D2AF205D02218E12197B1219B7121D0E5C
:1031000030423143FA08AF78127253E4F5FF53B1FD
:10311000FDF5FF43B102E5B130E2FBE4F5FFE5B1B7
:1031200020E3D443FC047F017E00123FFE123FF3F4
:1031300040C580F99002B2E06028E51470FCE51506
:1031400020E503126AF112198AEF70FA12770CB4B3
:103150000204E4FF80099002B2E0B403057F01128B
:103160006F6F121C00E51530E18D126DB84002E45E
:10317000F0E51520E50C122FD89002BD51397D01E4
:10318000514151319002B5E0FD1241A001F7110CFF
:103190009002B2E0602E201903200928E51470FC8B
:1031A000E51520E503126AF112198AEF70FA127719
:1031B0000CB40204E4FF80099002B2E0B403057F7E
:1031C00001126F6F9002B2E0600C201909300906FD
:1031D000200203121A7A12197B1219B7121D0990D4
:1031E00002B0E07005121C008015125B3CFF9002DB
:1031F000B0E0FEC3EF9EC394064002E4F0D2AD12ED
:10320000000AE51530E122126DB84002E4F0E51540
:1032100020E50C122FD89002BD51397D015141514A
:10322000319002B5E0FD1241A0121BB512405321AE
:103230008E9002BCE075F0AAA312215DAF82AE832E
:1032400022900430EEF0A3EFF0E514600241CD12BD
:103250005B6E5004C24E51CE900430E0FEA3E08E6F
:1032600011F512AE11AF127DAA126D62E4F5FF7571
:10327000D908F510E5155421603BE51530E505E466
:10328000FF12658AE4900432F0900432E004F012F8
:10329000622B900433EFF030E308127704500312EE
:1032A0000056900433E0600512770440DC7F021280
:1032B0001D2C5315DE900411E07F00B403027F0142
:1032C000126727D24E51CED2EBA23592ED22902D2D
:1032D0007DE5F4F0E0547FF5F47F827E00126531E5
:1032E0001261245005E5FC20E6F6304E08902D7D55
:1032F000E04480F5F412652D1261245005E5FC20B0
:10330000E6F675FF01E5D520E702C322E5F4D330E8
:10331000E601C322900424EEF0A3125B05C2EBE5A4
:1033200014600281DAE51530E202C322125B7650A6
:1033300004C24E51CE126B1FE5D120E0FBE4F51024
:10334000900425E05407C39403E4940050229004B1
:103350002DE0FF900429E02FFFE433FED3EF9440EB
:10336000EE648094804009431504A23592EDD32287
:1033700090042A12217BCFE9CF8A118F1290042D5D
:10338000E0F516AE111272B390042612217B8B1C4D
:103390008A1D891E900429E0F51F900424E0FCA3F7
:1033A000E0FD5460603290042EE0FF126CA09004A7
:1033B0002691E5FB7A00900422E0FEA3E0FF7C006A
:1033C0007D17121E01EF2BFFEA3EFEEF2414FBE4F3
:1033D0003EFA7D027F0181C0900424A3E05407904F
:1033E0000412F075140890042612217B126C609070
:1033F0000429E0FFAD16126CF5900412E06403702E
:103400002F7B01FD126CEE91E5124D2274809850D5
:10341000081275357401121D78E4F5FF126D1A90CB
:10342000042691E52428FBE433FA7D03E4FF81C000
:10343000900412E064027029126CEB91E5124D22A7
:10344000748098400812753574FF121D78126D2D26
:1034500090042691E52414FBE433FA7D027F018079
:103460005FE4126CEB91E5124D22748098400812D3
:10347000753574FF121D78E4F5FF12764044104E46
:103480007F0560027F0AEF547FFFE5D254804FF53D
:10349000D2E4F5FF43D28090042691E5FD7C001232
:1034A000764044104E7E0060047F0A80027F05EF64
:1034B00025E0FFEE33FEEF2DFBEE3CFA7D017F01B0
:1034C000126DD5127640FF1268864006A23592ED45
:1034D000C322A23592EDD2EBD322A23592EDD2EBEC
:1034E000C322902AF412217BE92407F9E43AFA0274
:1034F0001D32B1BC24B791EBFF30E777540F640164
:103500007071B1BC24B691EB65717067201C64903A
:103510002C5604F0B1BC24BB91EB30E33AB1BC248F
:10352000BC91EB902C53124F2924BD124D15540F12
:103530007025B1BC2FF9EE3AFAE924BE91EB546044
:103540006015B1BC24BC91EBC4540F24041276CA9C
:103550007D6E7C00024801E4902789F0B1BC24BC58
:1035600091EBC4540F75F03EA4FDACF07E4F7FE4A8
:1035700002417DB1BC24B791EB20E733B1BC24BA42
:1035800091EB125B1DB1BC24B791EBFF20E420301E
:10359000E709B1BC24BB91EB20E414B1BC24BA917F
:1035A000EBFFB1BC24B2F9E43AFCAD01121A1112DE
:1035B00047F97F01021BEC8FF0121F2D902C531244
:1035C000217BE922B1BC4AC36001D3400302399E8A
:1035D000E924B791EBFF7B017A2C79F0124FB930D7
:1035E0001D15B1BC240291EB30E50CE4902720F0CE
:1035F00090271FF0023810B1BC24DF91EB64026009
:1036000002C1BCB1BC240391EB20E40CB1BC24BAD0
:1036100091EBFF121A1B8031B1BC240391EB54EFE4
:10362000121DCDB1BC24061239AEFFAEF0B1BC12F2
:103630003FD5123D89EF54076402C37001D3123D98
:1036400096902CF0E04F02398FB1BC24BA91EBFD7B
:10365000AF71121A025065B1BC123D647401121DA3
:10366000CDB1BC24B791EB30E721540F6401701B3E
:10367000121D3230E70FB1BC24BB91EB30E4067E63
:10368000007F0180117E007F00800BB1BC24B791C8
:10369000EB5410FF7E00EF4E600CB1BC1239AC54FD
:1036A000F84403124712B1BC1239AC54076402C388
:1036B0007001D3123D96EF440102398FB1BC240250
:1036C00091EB20E203023810B1BC24DF91EBFFC381
:1036D00094035005E490277DF0EFD394034002E17A
:1036E000C1902CF0E0B40108C254B1BC24BA8006E9
:1036F000C254B1BC24BD91EB902D57F01219F3B117
:10370000BC24B691EB65717045B1BC24B791EB3028
:10371000E73CB1BC1239ACFFAEF054076403702E25
:10372000B1BC24B991EBD394405023B1BC123FD526
:10373000EF54F84402123D881276484404123D8F3B
:103740001248B9B1BC24BB91EB441002380BB1BC98
:1037500024BA91EB7A2C79F112767A7A2C091275C7
:10376000D9121A07EF605A902CF1E0FFC454F0FE12
:10377000B1BC24BC12756AB1BC123FDCC003C002EC
:10378000C001123EFCD001D002D0031219A8B1BC76
:103790001239ACFF902CF2E0FD1258F8B1BC123F88
:1037A000D5E4B1B7123D647403121DCD90271CE01F
:1037B000B40203D38001C3923312764A440402391F
:1037C0008FB1BC24DF91EBC394045044B1BC24BA44
:1037D00091EB123D8F902BBF7401F0123DF3B1BC01
:1037E0001239AC54F8FDE5F0FEED4F123D88EF5470
:1037F000076402C37001D3123D96EF4401123D8F5E
:103800001248B91235BC123D647404121DCD2194C6
:103810001235BC24BA1234EBFFE4FD121B3D301DFF
:103820000221991235BC24DF1234EBC39405400207
:1038300021991235BC24031234EB20E002219912A5
:1038400035BC24B61234EBFFC0071235BC24BA12C3
:1038500034EBFD1235BC2408F9E43AFAC003C00287
:10386000C0011235BC24B11234EB902B7FF012351D
:10387000BC24021234EB54034401902B80F0123527
:10388000BC24DC31AEFFE5F01276F4D001D002D0DA
:1038900003D007121BABEF7002219931A02405124F
:1038A00034EB4420319F2414B17931A01276A61252
:1038B0001DCD31A012765112198590259212217BCF
:1038C0007405121DCD31A012753C740775F0D0122D
:1038D00035B9124F381235B9F1E4741B75F0B012D6
:1038E00035B931ACAEF054F8B188EF4402B188314B
:1038F000A024041234EBFF1235BC2402B17931A0AC
:1039000024061234EBFF7440C39F50091235BCF1FA
:10391000C0742F80187411D39F500CEF24EFFF1246
:1039200035BCF1C0EF80061235BCF1C0E4121DCDEC
:103930001235BC24B11234EBFF1235BC2408F9E473
:103940003AFAC003C002C00131A0241CF9E43AFADB
:10395000F102D001D002D0031219A81235BC124CCA
:10396000F17B01C003C002C00131A0240BF9E43A8D
:10397000FA7B01F102D001D002D0037F111219A805
:103980001235BCB1647405121DCD1276484406B1DF
:103990008F1248B9B190021C0FE4FF121BEC22FFFA
:1039A00090259212217BE92212217BE92404F9E47B
:1039B0003AFA021ECA902A89126F9812219B902A05
:1039C0008F7110E92402B179902A8EE0FF74A9C3A7
:1039D0009F500374A9F0710DE92408F9E43AFAC084
:1039E00003C002C001902A8B12217BF102D001D0CA
:1039F00002D0031219A8F1CEE4F5F0121F2D710DBB
:103A0000E924B1B179902A90E0FEA3124E9FF1E330
:103A1000B1897112124F37121F2D902A89E0FC9044
:103A20002A95F0B181FE6402603B7112E924BA125A
:103A300034EBF56BB4FF0B902A95E054F84401F099
:103A40008023EE64046006B181FFBF0118EC5407C7
:103A500070137112902A8AE0902BBFF0AF6BB1F314
:103A6000902A95EFF0902A9231A854EF124712B1A4
:103A700081FFBF020F902A9231A84410FDE5F08D1E
:103A8000F0121F2D301E2FEF64046006B181640612
:103A90007010127627BF0203D38001C39233D23451
:103AA000800E127627BF0203D38001C39233C23443
:103AB000B19AEE4F800C902A8AE0FF902845E012E0
:103AC0004EC2902A8AF0D21E902A8A7110E924B739
:103AD000B179540F121DCD121C05EF6005E490273B
:103AE0007DF0902A95E0FFF1CEE48FF0121F2D902B
:103AF0002A8A71101248B9902A9231A87111E924CA
:103B000006F9E43AFA1247137112021C0F902A8E3A
:103B1000E0FF902A9202217B902A4CEDF0A3EBF07B
:103B2000902A597401F0902A5BEFF0902A52E0FE3F
:103B300054C0703C902A51E0FDD3949F40037F0015
:103B400022902A4DE0B4FF09EDD3943640037F0064
:103B50002230210C902A51E0D3942E40037F002282
:103B6000EE20E40C902A51E0D3949740037F00228A
:103B7000902A4CE0FFB15524B6B179902A4DE0FF70
:103B8000B15524BAB179B15DE4121DCD30212FC2F7
:103B900021EFF46020121B10EF601A902A4DE0FF15
:103BA000121B15EF5407C394034023902A4DE012D3
:103BB0004D06EF7019B1552403124CE3800D902A85
:103BC00052E030E609F1C7B15D7405121DCD902AAF
:103BD00052E054907069902A59E064017061902A13
:103BE0004DE0FF902A5512217B121A165042B15512
:103BF00024BC1234EB54F06002F1C7902A5531A86E
:103C00005460600CB15524031234EB4410121DCDE6
:103C1000B15D7402121DCD902A5BE05498F0E0FF74
:103C2000902A5531A85467FEEF4E902A5BF0800F22
:103C30001276D3121A025007B15D7401121DCD9095
:103C40002A4DE0FDB4FF07902A52E054FAF0902785
:103C50001CE0902A58127672AF051219FD4002F14D
:103C6000EB902A58E090271CF0B15524DF1234EB7A
:103C70006002A10D902A59E064016002A10D127644
:103C8000D3121A025002A106902A52E0548464040E
:103C9000707090277DF0B15524BA1234EB7A2A79EE
:103CA0005A12767A7A2A79581275D9121A07EF6061
:103CB0005CB15D7403121DCD902A5AE0FFC454F02C
:103CC000FEB15524BC12756AB155F1DCC003C002C7
:103CD000C001D1FCD001D002D0031219A8902A55FE
:103CE00031A8FF902A58E0FD1258F8902A55F1D1DA
:103CF000E48FF0121F2DF1C7902A58E0902A5BF054
:103D0000800BF1EB8007B15D7401121DCDB155241C
:103D1000DF1234EB70057404121DCD902A5BE0FFB6
:103D2000902A59E0FD902A51E0902A8EF0902A5274
:103D3000E0902A8FF0902A53E0FBA3E0902A90CBEA
:103D4000F0A3EBF0902A55125AFC902A4E12217BD8
:103D500031B57F0122902A5512217BE922902A5504
:103D600012217BE924DFF9E43AFA22FA121D32FF2C
:103D7000902AF412217BE92408F9E43AFAEF021DB3
:103D8000CD902A8AE0540F22FFEE8FF0021F2DFF04
:103D9000902C5302217B9233C23420332A303413C7
:103DA000E56D54F0FFBFF003536D0F7410256DF5F2
:103DB0006D803CE56D540FFFBF0F03536DF0056D33
:103DC000E56D540FC48028303413E56C54F0FFBF08
:103DD000F003536C0F7410256CF56C8012E56C5475
:103DE0000FFFBF0F03536CF0056CE56C540FC45408
:103DF000F0FF22902BBC12219B902BBBEFF0657142
:103E00006076E57164EF6070E0FF64EF606A121B3A
:103E100010EF6064902BBBE0FFAD71121B97902BED
:103E2000C0EFF0902BBBE0FFD25B121B1F902BBFAB
:103E3000E0540F64017063EF6060D1F6E924DF1293
:103E400034EBB4020DD1F6E924031234EB44101222
:103E50001DCDEF5460FFBF20047F2080027F40EF24
:103E60004402902BC0F0D1F6E924BA1234EBFFD112
:103E7000F6E924D9B1798022902BBBE0FF6571600F
:103E800013902797E0FEEFB5060A902783E0902B6A
:103E9000C0F08006902BC07401F0902BC0E0540756
:103EA0006401604C902BBFE0540F64047042902B6F
:103EB000C1F0D1F6E924BC1234EBC4540FFF902BAF
:103EC000C1E0FEC39F5029D1F6E9F1DCEE7E002966
:103ED000124D1BFF902BC0E05407FD121B924008AF
:103EE000902BC07401F08008902BC1E004F080C2D8
:103EF000902BC0E0FF22902BBC02217B7B007A003C
:103F00007990902BE902219B902A5C12219B902AA8
:103F10005FEDF0A312217BE924011234EB30E502BE
:103F2000D2217F02121BFB902A6812478C7002E19B
:103F3000B4F1BAE924031234EB4408121DCD902ADF
:103F400063E0FEA3E0FFF1BAE924E0F9E43AFAB154
:103F500089902A6512217BC003C002C001F1BAE931
:103F600024E2F9E43AFA1221C4902A6012217B1269
:103F70001D32FBC003902A5C12768C902A5FE09081
:103F80002A51F0902A6012217BE924011234EB902F
:103F90002A5212757BF1BA902A5512219BD003AD9B
:103FA00071E4FF7118902A6BEFF060037F0122F13A
:103FB000BA121C0A12004E7F0022902A6802217B4E
:103FC00024B1F9E43AFA22902A597404F022902A92
:103FD0009212217BE92404F9E43AFA2224BDF9E49F
:103FE0003AFA22E924DCF9E43AFA22902A52E0541F
:103FF000FBF02275FF01E5A4C330E401D32275FF75
:10400000017C0C7D351222C8E47B64FAF9F8121F9A
:10401000E47894EEF608EFF618E6FC08E6FDCEEC40
:10402000CEEEF5A9CFEDCFEFF5A775FF0175A41082
:1040300075FF0275F60275FF0175A415229002BA8C
:10404000E0FCA3E04C700A9002BAEEF0A3EFF0D3CC
:1040500022C3229002BA122F316009CAEECAC9EFF8
:10406000C91222C22275FF02D2ADD2BD75FF027500
:104070008E7175720975FF02E58E546F4480F58E5E
:1040800022C0E0C0F0C083C082C0D075D008C0FF9D
:1040900075FF02E58E30E42975FF02E58E54EF448A
:1040A00010F58E900000E004F0E57230E00205317A
:1040B000E572700B75720990295C122FC48002158D
:1040C0007275FF02E58530E40411DA0573D0FFD084
:1040D000D0D082D083D0F0D0E03275FF024385107B
:1040E00022902CEA12219B7F01122EDF3118123907
:1040F000AE45F06022902CEA12217BC003C002C0C2
:104100000131181239AEFFAEF0F58285F083D0018F
:10411000D002D0031222C622902CEA12217BE9247D
:10412000DA22902D4DEEF0A3EFF01235BC1239AC2F
:104130005407FF64026005EF64037016317425E0D4
:10414000FBEC33FAEDAE047803C333CE33CED8F9AB
:10415000801C3174AE047803C333CE33CED8F9FB60
:10416000AA06EDAE047805C333CE33CED8F92BFFC3
:10417000EE3AFE22902D4DE0FCA3E0FD22902D4F63
:10418000EEF0A3EFF0902C527401F0AE04AF0531C5
:1041900022AC06AD07902D4FE0FEA3E0FF02196CA4
:1041A000902B081276677887122172EDD39408500D
:1041B00002C1951234E8FFEDC39F5002C195E47827
:1041C0008EF6900411E0902783F0121A25902B08A8
:1041D000E0FEA3E07B012405D1F7FF540F640170DA
:1041E00064EF902B0830E717A3E0FF240AD1F7D142
:1041F000F0EF240BF9E43EFAE92DF9EC3A800BE0FC
:10420000FEA3E07B012409F9E43EFAE92401F9E484
:104210003AFA902B0F12219B902B0FF1D76021645B
:1042200018601DEF64076018EFB40319902B0F128C
:10423000217BE924021258EE122F0B1258DE700572
:104240007FFE121BBA7B007A007987125153D198F6
:1042500024041234EB902797F0788EE620E2026176
:10426000297F01121BFB902B0AF18C70026129D16E
:104270009F7F031248B9D19824051234EB30E40D26
:10428000D19FE924B71234EB4410121DCDD19FE920
:10429000124ECB902B0A124F34121F2DD19F123F7A
:1042A000E3740075F012121F2D788FE6FFD19FE99D
:1042B00024BA123D79902B0A1239A854F8FF90279E
:1042C00083E0F10FD19824051234EB30E50FD19F34
:1042D000E924B71234EB4420121DCD803E788A12B7
:1042E0002169121D3264017032E924011234EB6439
:1042F000187028788DE6788AB40411122169E924AF
:10430000031234EBFF12683B8F1A800F122169E908
:1043100024021234EBFF126AD18F1AD19F121C0FA4
:104320009002B0E07003121C00201F02A197E490DD
:10433000271FF0A3F0788EE630E669D198240912A1
:1043400034EBD197240A1234EBFEEFC4540FFDEE88
:1043500054F0FEEF54F07887B5060A122169E9247B
:1043600004F9E48008122169127546F9EE3AFA124E
:104370001D32FF902720EFF01DD198127695E92D80
:10438000124D1B90271FF0902C56E07002A1B3E451
:104390001276CA1235BC24BC1234EB54F0FD7C00FA
:1043A000317DA1B3788EE620E1028182E4F56B12C3
:1043B00035BC24B71234EBFF540F64016002813E18
:1043C000EF30E7701235BC24D81234EBFFD3940AD7
:1043D000400A1235BC24BC1234EB80049027A4E0C0
:1043E000902B0EF0902B0EE0FE540FFDB40F0280C8
:1043F00034EFD3940A40171235BC123FDCED7583BD
:104400000029F9E5833AFA121D32F56B800D74A587
:104410002DF582E43427F583E0F56BEE54F0FFC40C
:10442000540FB5050A1235BC24BA1234EBF56B12E1
:104430005B23800A1235BC24BA1234EBF56B1235BB
:10444000BC4A7002A1B3D19824041234EB656B60AE
:1044500008902796E07002A1B3D254902D57E56BD7
:10446000F01219F3D19824051234EB30E70DD198EE
:1044700024091234EB540624FF921C1234F2C21C9D
:10448000A1B3788EE630E554902C56E07002A1B3CB
:10449000D19824041234EBFF6003B4EF191235BC39
:1044A0004A6013E924091234EBB4030A90269AD126
:1044B000962404123D79D19824051234EB30E70A92
:1044C000D19824091234EB20E40DD198240412343D
:1044D000EBFFD1FE121A11125B0BA1B3D198240885
:1044E0001234EBF46036D1FE2405127683540FFFAC
:1044F000BF0203D38001C34023D19824051234EBBB
:10450000FF20E41830E70AD19824091234EB20E4A4
:104510000BD19824041234EBFF121A11788EE63076
:10452000E30A902B08F1DF7B0112505F305D02A19E
:10453000B3D1A5902B0DEFF0E49025C5F07887124C
:104540002169121D32701AE924011234EB7012D164
:104550009824021234EB7009D19824031234EB60D2
:10456000067E007F0180047E007F00EF4E70079082
:1045700025C5E04401F012765C121985902B0DD10F
:104580009624041234EBFD788DE612759B788A121E
:104590002169121B0B801C123D90EA494B6014905C
:1045A0002C52E0600E90278FE06008121976E4909C
:1045B000278FF0788EE620E402C195902784E06092
:1045C00002C193902783E0F56BF1F0123F02F1E70F
:1045D000D198240A1234EBFF540FFED1982409120B
:1045E00034EBFD30E0031E8035EFC4540F146E70C1
:1045F0002CED30E328D198240A1234EBD1F0D19875
:1046000012755B540F7016E924011234EB5460FFED
:10461000600BBF2005436B208003436B400ED19895
:10462000240A1234EB54F0FFEE540F4F121DCD78D4
:10463000871221691234E8FF740AD39F4005740A77
:10464000121DCD121D3224F6D197125103123F02D2
:104650007B017A2779A31219A8C21ED198240412CB
:1046600034EBFDD19824081234EBFBC00312511235
:1046700012219B78871221691234E824F6902A814E
:10468000F0A37481F0A37450F0A37402F0D003AFD0
:104690006B8074C22022E0FF7887122169E92290A2
:1046A0002B0A02217BE4D19724051234EBFD30E57F
:1046B000037402FF788EE630E704EF4480FFED5488
:1046C0000FFDBD0506EF4410FF8024BD0110D198F9
:1046D00024081234EBB4FF17EF4404FF8011D19883
:1046E00024051234EB540FFDBD0204EF4408FF22F1
:1046F000C4540FFD7C0022F9E43EFA021D32902BD7
:1047000008E0FCA3E0FD22F11E902784EFF022FDDB
:10471000EF4DFFE5F08FF0021F2DAD71E4FF902A01
:104720007B126F98EBF07F02121BFB902A85F18CB5
:104730006054902A7BE0FFA3E0FD902A7E12768CE5
:10474000902A81E0902A51F0902A82E0902A52F03B
:10475000902A83E0FBA3E0902A53CBF0A3EBF090E8
:104760002A8512217B902A5512219B902A7DE0FBFD
:10477000123B18902A88EFF060037F0122902A856F
:1047800012217B121C0A12004E7F002212219BEA8A
:10479000494B22902B8412219B902B88E05437F0B8
:1047A00030E502D221902B88E04420FEF0C21DAB00
:1047B00007C003902B84F1D012219B902B87E090AF
:1047C0002A81F0A3EEF0902B891275FAD003E11A3A
:1047D00012217B902A7E2212217B121D32FF22E0C1
:1047E000FEA3E0AA06F9227A2879467F040219A8D6
:1047F000D2207B017A27798522E4902C52F002198D
:1048000071902C527401F0C006C007EDAE0478031D
:10481000C333CE33CED8F9FBAA06AE04ED7805C378
:1048200033CE33CED8F92BFDEE3AFCD007D00602BA
:10483000196C7B017A2779A20219CB122FF2EFC4EF
:10484000540F6FFEEFC41354076EFEEFC41313131F
:1048500054016E5403FF22123FD4EE8FF0021F2D3D
:104860001239ABFFAEF022902C6912217B902CED17
:1048700012219B902CED30202312217BE991F1C075
:1048800003C002C0017B017A287946123F02D001A1
:10489000D002D0037F041219A8C2202212217BE982
:1048A00091F1C003C002C001122F0B123F02D001D0
:1048B000D002D0037F040219A8902C6912219BEF2B
:1048C000540FFE91DB24B81234EB54F0FDEF54F09A
:1048D000FFC4540F4D121DCDEE14606114700261BF
:1048E000C724FE700221F824FE7002813424036084
:1048F0000281C491DB91F1C003C002C001122F0BF1
:10490000123F02D001D002D0037F041219A891DB1C
:1049100024B6F9E43AFAE57191D824B791F891D820
:1049200024B81234EB54F0FF902845E0540F4F9117
:10493000D891FF740A91D891EA740981C1116791E5
:10494000DB24B791E391D824021234EB30E023202A
:10495000E702800A9027A4E0540FFFBF0F0C91DB01
:1049600024B71234EB4440121DCD91DB240191F8A1
:10497000800691DB240191E3121DCD91DB2402120C
:1049800034EB30E10C91DB24B71234EB4420121DE0
:10499000CD91DB24021234EB30E70C91DB24B7120B
:1049A00034EB4480121DCD91DB24021234EB30E74E
:1049B0000C91DB24BA1234EBB106EF700C91DB24BE
:1049C000BB1234EB54F7121DCDB10C91DB24B8129D
:1049D00034EB549FFEEF54604E91D824BA1234EB5E
:1049E000FF91DB24D9123D797F0991DB24B1123488
:1049F000EB91C591EAEF81C191DB24021234EB20E7
:104A0000E60241A191DB24091234EBD1BA902C6D5E
:104A1000F07404C39E500B7404F0EF540F44401222
:104A20001DCD902C6DE02402FF91DB24BBF9E43A0C
:104A3000FAC003C002C00191DB2408F9E43AFA127B
:104A40003F02D001D002D0031219A891DB24B11289
:104A500034EBFF902C6DE02403FDE433B137748018
:104A600098403A121D32FF902C6DE0FE2403FDC3E6
:104A7000EF9DFF91D82408F9E43AFAC003C002C0C0
:104A800001EE240AFDE433FC91DB2DF9EA3CFA1235
:104A90003F02D001D002D0031219A8800491DBD1CB
:104AA000CB116791DB24B791E3121DCD448091D8DF
:104AB00024021234EB902C6930E00A12217BE924A5
:104AC0000191F8800812217BE9240191E3121DCDA8
:104AD00091DB24BBF9E43AFAE491D824BA1234EB1E
:104AE000FFD25B121B1FEF7002617991DB24B612BB
:104AF00034EB65716002617991DB24BB1234EBFF0A
:104B000020E07691DB24031234EB20E46C91DB246B
:104B1000BBF9E43AFAEF440891D824BC1234EB9084
:104B20002C69F129123FDCD1A5E491D824BC1234C0
:104B3000EBC4540FFF91DB24BDB115441091D82470
:104B4000BA1234EBB106C007B10CEF1313543FFE99
:104B5000D0E04EFF91DB24BC1234EB1246F091DB27
:104B60002DF9EC3AFAE924BEF9E43AFAEF91D812B9
:104B700039AC549F124712800C91DB24BB1234EBEA
:104B800054F7121DCD91DB24BB1234EB30E31A91A4
:104B9000DB24BC1234EBC4540FFF7E0091DB24BD38
:104BA000B115C4540F04FF80027F0091DB24BC12B6
:104BB00034EBC4540F240B2FFF91DB24B11234EBE0
:104BC00091C591EAEF81C1116791DB24B7D1B3910F
:104BD000D824021234EB30E10C91DB24B71234EB11
:104BE0004420121DCD91DB24BAF9E43AFA741D91E8
:104BF000D824BBF9E43AFAC003C002C00190278B65
:104C000012217B123F02D001D002D0037F1D121966
:104C1000A891DB240191E3121DCD7F2691DB91EA5F
:104C2000EF91D824B11234EBFEEF042EFF91DB910B
:104C3000FFEF81C191DB24B81234EB540F902C6C40
:104C4000F091DB24021234EB20E649116791DB245A
:104C5000B7F9E43AFA740591D824021234EB30E142
:104C60000C91DB24B71234EB4420121DCD91DB24D0
:104C7000B81234EB54F0FF902C6CE04F91D8240222
:104C80001234EB30E01891DB24B71234EB444012BD
:104C90001DCD800A91DB123FC074FF121D7891DB9D
:104CA000240191E391D891EA741191D824B112347E
:104CB000EBFF91DB24D81234EB2F04FF91DB91FF43
:104CC000EF121DCD22FEEF042EFE902C6912217BE7
:104CD000E924B9F9E43AFAEE121DCD902C691221BB
:104CE0007BE922F9E43AFA74012224D8F9E43AFA89
:104CF0002224B2F9E43AFA22F9E43AFA74032224BB
:104D0000B9F9E43AFA22FFC25B021B1FC25BAF7122
:104D1000021B1F240BF9E43AFAE92FF9EE3AFA02E2
:104D20001D32FF90042DE0FD900429E02DFDE433B9
:104D3000FCED2401FDE43CFCD3EF9DEC6480F82203
:104D4000902C6F12219B902C6EEFF01235BC24BC7E
:104D50001234EBC4540FB507131235BC24BA123405
:104D6000EBFFB1A724041234EB6F6002C322E4907E
:104D70002C72F0902C6EE0FF902C72E0FEC39F50DE
:104D800024B1A7240BF9E43AFAEEFF7E0029B11B07
:104D9000FD1235BC24BDB1156D6002C322902C728A
:104DA000E004F080CED322902C6F12217BE9229078
:104DB0002A9812219B902A9F7406F0902A9BE0FE6D
:104DC0007411D39E4002C18B74409E5002C18B7FF0
:104DD00002121BFB902AA012478C7002C18B902AF2
:104DE0009FE0301E0DFED233D234123D9AEE4FF0CA
:104DF000800FFFD199E924061234EBD1C2902A9F8B
:104E0000F0902A9CE0D1902402123D79902AA012C1
:104E10003FD1E475F002121F2DD19191F1C003C072
:104E200002C001D199123F02D001D002D0037F11FC
:104E30001219A8902A9BE024EFD19024B1123D7959
:104E4000D1912408F9E43AFAC003C002C001D19913
:104E5000E9D1AC123F02D001D002D0031219A890C0
:104E60002AA0F134121F2D902A9DE0FEA3E0D190DC
:104E7000123FE4123D89D21E902A9FD19F11B99012
:104E80002AA012217B121C0F7F0122D21E7F00223A
:104E9000FF902AA012217BE922902A9802217BE030
:104EA000FFA302217BE92FF9EE3AFA222411F9E45B
:104EB0003AFA22F9E43AFA740222FF54F0C4540F89
:104EC000FE22540FC454F0FEEF4E2224B1F9E43A0E
:104ED000FAE4021DCD902C1612219BF11B7D05E4F6
:104EE000FF121985F12124011234EBFF902C1912C5
:104EF0002FCAF11BE92401D1CDF12124051234EB95
:104F0000FFF11BE92403123D79F12124041234EB53
:104F1000FF902C19123FD1EF021DCD902C190221C8
:104F20007B902C1612217BE922C4540FFF7E0012C5
:104F3000217BE92212217BE924DAF9E43AFA741B95
:104F400075F0F122902B8C12219B902B8BEFF0129D
:104F50001B8D50037F0022902B8BD19F902B8FE0D5
:104F6000902B87F0902B90E0902B88F0902B91F174
:104F700075F0024793E0FDA3E0902B89CDF0A3EDFF
:104F800022902B4412219B902B481247D7902B87BD
:104F9000EDF0902B4812217BE924011234EB902B89
:104FA00088F0902B4BF175F0902B4412217B124727
:104FB00093EF7F0060027F0122EF540F24FE601602
:104FC00014601714601824037019EF30E704740498
:104FD000800E7401800A74028006740380027405D6
:104FE000121DCD22902789E0D394004008E014F0F0
:104FF000D3940050061247F91235C422E490278456
:10500000F022E4902784F0EF604C9027A3E020E0AA
:1050100045A3E0C454F044059027A3F0A3E0FF5457
:10502000F0FEEF24FE540F4EF0EEC4540F2402FEA7
:1050300011571235BC24BA1234EBFD1235BC24B61C
:105040001234EBFBC003311212219B902A81EE3106
:105050001CD00312470722C21E902783E0FF229034
:105060002CAA12219B902784E0600201FE310A24C1
:10507000091234EB4401121DCD4402121DCD310A38
:10508000240A1234EBFF540FFE902CADF0EF54F0D5
:10509000121DCD54F0FFEE14540F4F121DCD121DF2
:1050A00032C4540FFF902CAA1234E5FEC39FFFC3F5
:1050B000EE9F2402902CADF0D394A2400374A2F092
:1050C000902CADE0FF902CAA11FF123F027B017AD9
:1050D0002779A31219A89027A4E054F7F0115731AB
:1050E0000A24041234EBFBC003311212219B902CD2
:1050F000ADE0902A81311CD003AD71124707221216
:10510000217BE92409F9E43AFA22902CAA12217BA6
:10511000E9227B017A2779A3902A7E22F0A3748169
:10512000F0A3744FF0A374FCF022314B6018902769
:105130008AE0FEEF6E600F902784E0600C902845B7
:10514000E054BFB50603D38001C322902845E0FF99
:10515000540F22902AF412219B1221A4902AFB12B0
:10516000219B902AF4127538E4121DCDC21F90279E
:1051700096F0127607123F021247F27F041219A826
:10518000205D13122F0B1258F21258DA60081234F5
:10519000E24480121DCD1234E220E70241203006A5
:1051A0002B20187C1258D224051234EB20E7711200
:1051B00058D23103E924011234EB640370621258AF
:1051C000D21258E51276071258DE7054E543640394
:1051D000604EE543B40109902699E0C39402404033
:1051E00030290E1258D224051234EB540F64056096
:1051F0002F1258D224051234EB20E702E1E91258AD
:10520000D2240A1234EB1258CC240BF9E43AFAE90E
:105210002FF9EE1258E9122F0B1258DE6002E1E965
:105220001258D224061234EB540FFF902783E07EED
:1052300000B402027E80EF4E902845F01235BC2467
:10524000B71234EBFF7B017A2A79F7124FB9123586
:10525000BC1239AC5407FF1235BC24B81234EB54DD
:105260000FFE902AF7E0540FFDBD04047D4080023C
:105270007D00EE4DFEEF7F00B402027F80EE4F9086
:10528000278AF01258D224051234EBFF540F24FE63
:105290007002E110147002E1BC24FE7002E1DE2411
:1052A000046002E1E9902AFB1234E5FE740AD39E01
:1052B0004002802AEF20E702C1AF902845E0444039
:1052C000F01258D2240A1234EBC4540FFF902AF87B
:1052D000F0600BE0D394045005740B9E400A902AB2
:1052E000F4127538E4021DCD1258D224081234EBA2
:1052F0006571600281B31258D224091234EB30E395
:105300004B1258D0124D13FFC4540F291276DCF9FA
:10531000E43AFAC003C002C0011275532403F9E451
:105320003AFA1221C41258D2240A1234EBC4540F90
:10533000FFFD7C001258D212755BC4540FFE902AF8
:10534000FB1234E5C39FC39E24F3803C1258D22441
:105350000A1234EB1258CC240BF9E43AFA124EA597
:10536000C003C002C0011275532403F9E43AFA12D3
:1053700021C41258D2240A1234EBC4540FFF902ACD
:10538000FB1234E524F4C39F1275522406123D79B2
:105390001258D2240A1234EB540FFF902AF8E06F0F
:1053A0006002813D902784E06002C11E1258D22421
:1053B000051234EB902AF430E6071234E5440D80F0
:1053C000051234E54409121DCD1258D212769512F9
:1053D0004EA51275C3123D6B1234E230E702C11EB6
:1053E0001258D224051234EB20E702C11E1258D203
:1053F000240A1234EBC4540FFF1258D2124D13D3A7
:1054000094014002C11EE924011234EB64036002DE
:10541000C11E1258D2240A1234EBC4540FFF125882
:10542000D2240BF9E43AFA124EA5E92403F9E43A3E
:10543000FA123F027B011247E7D220C11E1258D256
:10544000240A1234EB540F640F6002C11E1258D2AA
:1054500024051234EB30E6081234E24404121DCD68
:10546000312A501C1258D2240A1234EBC4540FFFB4
:10547000127607124D4050081234E24401121DCD3D
:105480001258D224091234EBFF30E1071234E244FF
:10549000208009EF30E2081234E24440121DCD12A0
:1054A00058D2240B1234EB1275522408F9E43AFA5C
:1054B000EFA1B21258D2240A1234EBFF540FFDEFC1
:1054C000C4540FFCEDC39C4002A1B71258D2127510
:1054D00047124D1B65716002A1B71258D224091200
:1054E00034EB30E055312A50091234E212757274EF
:1054F00005F0EC14902AFBB5050812217BE9240481
:1055000080061275431276DC1234EB123D6FED709B
:10551000791258D224091234EB30E36E1258D22497
:105520000A1234EB1258CC124D13540F705CE9245C
:10553000011234EB541860528048ED902AFB700B36
:1055400012217BE92404F9E43A8008127543F9EE4C
:105550001275C1123D6BEC146D702F1258D22409D4
:105560001234EB30E3241258D2240A1234EB1258CE
:10557000CC124D13540F7012E924011234EB546015
:1055800060081234E24404121DCD902784E06008C4
:10559000902796E07002C11E1258D224051234EBF7
:1055A000902AF430E6071234E5441480051234E5FD
:1055B0004410121DCD80671258D2240A1234EB54C5
:1055C0000FFD312A50581258D224091234EB30E022
:1055D00026ED2402540FFD1258D2240A1234EBC4D3
:1055E000540FFFEDC39F50361258D2127547124D1B
:1055F0001B65717029801EEDC3940240211258D2A0
:10560000240BF9E43AFAED24FEFFE434FFFEE9123C
:10561000769EB571091234E21275727401F0125857
:10562000D224041234EB657160281235BC24B21206
:1056300058EE1276071258DE6002E1E91235BC24FA
:10564000B61234EBFF1258D224041234EB6F60020E
:10565000E1E9312A4002E1E91258D2240A1234EB7E
:10566000FF540FFE1235BC24BA1234EBFD1258D28F
:1056700024081234EB6D6002E1E91258D2240912B9
:1056800034EB30E018EFC4540F24FE540F6E600268
:10569000E1E91234E21275727403F0E1E9EE64019B
:1056A0006002E1E91234E21275727401F0E1E9126C
:1056B00058D224081234EBFF65716006EFF46002E3
:1056C000E1E91234E24401121DCD1258D224041231
:1056D00034EB123D6F1258D23103C003C002C00137
:1056E0001275532403F9E43AFA1221C4902AFB12EA
:1056F00034E524F61275522406123D791258D2244C
:10570000051234EB20E602E1E91234E24404E1D967
:105710001258D224081234EB54E0FDE571D39D50A9
:1057200002E1E9121D32541F75F008A42D1276EC27
:10573000D3E5719FEE126AA64002E1E91258D22425
:10574000081234EB54E0FFC3E5719F14FF1258D2E6
:105750003103EF131313541F29127563FEEF54071F
:10576000FF7401A807088002C333D8FC5E607A1278
:1057700034E24401121DCD1258D224081234EB54E5
:105780001F1258CF3103124EA5C003C002C0011230
:1057900075532403F9E43AFA1221C41258D22408AA
:1057A0001234EB541FFF902AFB1234E524F6C39FFA
:1057B0001275522406F9E43AFAEF801D314B600964
:1057C00090278AE054BF6F70201258D224081234F8
:1057D000EBB571151234E24403121DCD800B902AF3
:1057E000F412217B121BBF921F1258D224051234CF
:1057F000EBFF540F640160030258C3EF902AFB30A3
:10580000E71512217BE9240A1234EB1258CC124D11
:1058100013902AFAF0801112217BE924091234EB4B
:10582000902AFAF0A31250FFE924011234EB902AD7
:10583000F9F01234E2FFAE4320060AEE640360057D
:10584000EE6401707EEF546364017077902AFAE091
:10585000D39401506630066B902AF9E0FE6408602C
:1058600062EE64096004EEB40404EF30E755902A58
:10587000F9E064037045EF30E74930180A11D2119E
:10588000E57B0111DA603C11D2125103E9240412C4
:1058900034EBFF11D2125103E924031234EB4FFF12
:1058A00011D2125103E924051234EB4FFF11D21229
:1058B0005103E924061234EB4F60081234E254EA33
:1058C000121DCD1234E230E002D21F22C4540FFF69
:1058D0007E00902AFB12217BE9227A2779857F04BA
:1058E0001219ADEF222409F9E43AFAE92403F9E4A4
:1058F0003AFA902BF002219BEF54F84DFF22E94A2F
:10590000600789828A831222C622123D90EA494B9F
:10591000600D1235BC24021234EB30E502D21D2298
:10592000EF600490284AF090279BE0FF90278B12AD
:10593000217B1219DF90279BEFF0604B201D4890D0
:105940002798E0C330E501D3922190284B1247D02D
:1059500012219B902799E0902A81F090278E319414
:105960007459F0A37420F090279BE0FB12471AEFC4
:10597000702190284A7402F0902781E0FEA3E0F5A0
:10598000828E837F02800990284AE0902781319B94
:105990001222C622E0902A82F0A322FFE0FCA3E0BC
:1059A000FDF5828C8322C003C002C001902B01123E
:1059B000217B902A7012219B902B04E0902A73F097
:1059C000902B05E0902A74F0902B06E0FFA3E09066
:1059D0002A75CFF0A3EFF0D001D002D003AF7190C1
:1059E0002A6C7105902A777403F0902A74E054377A
:1059F000F0E0FE5420902798F0902A75E0FDA3E097
:105A0000902781CDF0A3EDF051E890284B12219B17
:105A1000902A73E0902799F0902A6D12217B9027AD
:105A20008B12219BEE442090278EF0E490284AF0C0
:105A3000C21DF56B902A6D12217BAF6B1219DF8F9F
:105A40006BEF602A7D03121B9240E9902A73E0D32A
:105A5000941940037F0022AF6B121B8D5008902ACF
:105A6000777401F08008902A777402F080C6902A3B
:105A700073E0D3948240037F00227F02121BFB90CD
:105A80002A7812478C605E902A6CE0FF902A781288
:105A9000217BE924B6123D79902A74E0FE30E01DA6
:105AA000E490279BF051EEEE6401A3F0A37459F04B
:105AB000742051F751E8902A77E0FF8020902A77F0
:105AC000E0FF51EE902A74E0902A8FF0902781E059
:105AD000FDA3E0902A90CDF0ED51F751E87D021240
:105AE00039B57F01227F0022902A7002217B902A03
:105AF00073E0902A8EF022A3F0902A7812217B90F6
:105B00002A9202219BEFF0A302219B1235BC24BAFA
:105B10001234EB711D1247F97F01021BECFF7D016E
:105B2000021B3D902796E030E111713C9002B0F0ED
:105B3000E0D394F9400374F9F0D2AD22C2AD9029BC
:105B40005CE0A3E022E49002B0F022E490279AF017
:105B5000C21DC220902784F0D21E22717650067199
:105B60006750028001C322E5F754E024FF22C2EB14
:105B7000A2ED9235C2EDE5F4C330E701D322902ABD
:105B8000C8126706902ACE12212C00000001902A2C
:105B9000D27401F0F5FFE5D554C07004717650025F
:105BA000C322E4F5FF53967F75FF0175D5047F3F4F
:105BB000FE12635B75FF0143D508E4F5FF5394FBC8
:105BC000F5FF53847FF5FF7598FF902ACCE5F4F03C
:105BD00075F49C75FF01A3E5E4F075E4257B017A7B
:105BE0002A79D21265EC902AD2E06401600281AC7D
:105BF000F5FF902ACB7414F0902ACE91EEFF780135
:105C00001220CB902ACE122120E5A730E1FB43A73A
:105C100002902ACE91EEFFE5A730E005E47B0180FB
:105C200002E4FBFAF9F8EF4BFFEE4AFEED49FDEC1A
:105C300048FC902ACE122120902ACBE014F070B8B4
:105C4000902ACE91EEFF78101220B87B6D7A4E79B3
:105C5000C67841121F59EF2439FFEE343012601319
:105C6000E4FBFA7901F8121FE4EE547FFEE4FDFC38
:105C7000126AAD902ACE91EEFFEB6FFFEA6EFEE85E
:105C8000CDEFCDCCEECCECFF902AC812661DEF1202
:105C90001DCD902AC812661D900001ED121DDF90E7
:105CA000120FE030E606E4F5FF75968075FF01E41B
:105CB000F5D5902ACCE0F5F475FF01A3E0F5E412E8
:105CC0006FED902AD2E0B40103D38001C322E0FB40
:105CD00025E025E02401F582E43412F58312212029
:105CE000EB25E025E02401F582E43412F583E0FCA5
:105CF000A3E0FDA3E0FEA3E022902A0312212012DC
:105D000065C7902A1812212C002DC6C0E4F5FFF5B6
:105D1000A490120EF0A3F0902A137402F075FF0302
:105D2000902A13E0FFF595EF14601314601C240211
:105D30007027902A0391EEF1C0902A0F8016902AC6
:105D40000791EEF1C0902A10800A902A0B91EEF193
:105D5000C0902A11E0902A1CF012711F902A1CE0BA
:105D600070051275CB805990120EE004F0902A1342
:105D7000F1D6902A1891EE902A141271D2C31220F3
:105D8000A7500A902A1491EEFFA3122120902A1CFA
:105D9000E0FF126F9F902A12E0FFA3E0FDA24B925A
:105DA00049126FFEA391EEFF902C74122120902ACD
:105DB00013E0FF12712C902A13E091E1FF1266BBF1
:105DC000F1E86002A11D7402F075FF03902A13F13F
:105DD000CE7018FF7E04FDFC902A18F1F6780112AF
:105DE00020B8902A1391CEFF1266BBF1E870DA1248
:105DF0006719400343F420A24B924A127050902A34
:105E00001891EE2420FFEE344E126013E4FB7A0466
:105E1000F9F812600178011220B8C2481275B21266
:105E20006736D3229029C61221209029D67401F01A
:105E3000E4A3F01265C775FF02E5E630E00E902995
:105E4000D77401F0FB7A2979D71265EC9029E11219
:105E5000212C002DC6C0E4F5FFF5A490120FF090A0
:105E600029D87402F075FF039029D8E0FFF595EF6B
:105E700014601314601C240270279029C691EEF15F
:105E8000C79029D280169029CA91EEF1C79029D3E4
:105E9000800A9029CE91EEF1C79029D4E09029E5AF
:105EA000F012711F9029E5E070051275CB806990A2
:105EB000120EE004F09029D8F1D69029D7E0701B9B
:105EC0009029E191EE9029DD1271D2C31220A750E2
:105ED0000A9029DD91EEFFA31221209029E5E0FF31
:105EE000126F9F9029D5E0FF9029D8E0FDA24C9237
:105EF00049126FFE9029D7E070149029DD91EEFFD2
:105F0000902C741221209029D8E0FF12712C902936
:105F1000D8E091E1FF1266BBF1DF6002C165902914
:105F2000D7E07047A37402F075FF039029D8F1CE33
:105F300070139029E1F1F178011220B89029D891DD
:105F4000CEFF1266BBF1DF70DF9029E191EE2420D5
:105F5000FFEE344E126013E4FB7A04F9F81260018C
:105F600078011220B89029D9122120126719400314
:105F700043F420A24C924A1270509029D7E024FF9B
:105F800092489029D991EEFF1275B212761AE59BCC
:105F900030E7FB1265047FC8126203126736126392
:105FA0005F7B017A2979D612675490120EE0B40112
:105FB000031266F79029D6E0B40103D38001C3220F
:105FC000FF902A14022120FF9029DD022120E0F514
:105FD00095E5F4540722E033333354F8F5F4229076
:105FE00029D8E0FF14F0EF22902A13E0FF14F0EF1D
:105FF00022FF7E04FDFCE0F8A3E0F9A3E0FAA3E0B1
:10600000FB121F59E47B7DFAF9F8121FE4EF24011B
:10601000FFE43EFEE43DFDE43CFC22902BC9126F00
:1060200098EBF0902BCF7401F0C24DB12D3124507C
:1060300005E5FC20E6F7312FBF0108E4F5FC75FC0F
:10604000408007312FBF0202D322D138902BCAE003
:10605000FF12720B75FF0153D5DF53FAFB902BC96A
:10606000E0FFB18A902BCAE0902BC9B4080AE01275
:106070005CE1245211108005E0125CE1FFD1BB907D
:106080002BCBE0FFF1DD75FF0175FF03759B04B1BC
:106090002D75FC42E5FC20E104312440F4902BCC2A
:1060A000E0F075FF03E59B20E704312440F4E59B15
:1060B00020E70C75FF03759B1FD179D24D804B31C2
:1060C0001DB1EC902BCAE0FD90120FE05D701C90AA
:1060D0002BC9E0FF311D1268CE90120FE0FF902B0C
:1060E000CAE0FEEF4E90120FF0F136B10A7B017A52
:1060F0002B79CDD163500FC3902BCEE09420902B01
:10610000CDE0940340E7311DF154715F304D020141
:1061100023902BCFE0B40103D38001C3227B017A0B
:106120002B79CF2275FF03E591C330E701D3227F9E
:10613000FA5103E5FC30E604312440F7E5FC30E693
:10614000037F032275FF01E5D530E6037F0222E5D8
:10615000D57F0030E7027F012275FF01E5D520E7FA
:1061600002C322C24FB1A620370221F553F4DF90BB
:106170002CF6E0FFB18AD1F730380543F4408003B4
:1061800053F4BFE4F5FF53F5F0902CF7E0FAA3E0E9
:10619000FBEA42F5EBF5F6D24FB1A67FC85103E416
:1061A000F5FFE59320E604312440F4303853E5F45C
:1061B00030E3047D288010E5F430E2047D28800778
:1061C000E5F430E1027D28B1837F2851033124407A
:1061D000FC7F78510331245028D13150F8D1B6EFEB
:1061E000C39D50F1D13150EDE5F720E5E8C24FB144
:1061F000A6B18380E053F4BFF11F400543F420D1E2
:1062000038D3227E00510E75FF034391802275FF23
:1062100003D3EF9402EE9400400874FE2FFF74FF46
:106220003EFEEFF592EE540FF59122E4902CB6F07D
:10623000A304F0E4902CB9F0E5F4540770037F0157
:106240002275FF0143E440E5FA30E1FB75FF01E50B
:10625000D530E7037F0022D138E5D530E62975FF38
:1062600001902CB8E5DAF0E4F5DA7B01D1267F0065
:1062700070027F02902CB6EFF075FF01E5D630E397
:10628000FB902CB97401F012761AE59B30E7FB7590
:10629000FF0153E4F8E4FB75FF038B95125CE0FF0C
:1062A000D1BB0BEBB403F075FF03759580B104907F
:1062B0002CB9E070247FC8FE510E5107902CB774A2
:1062C00001F0FBD126902CB67006E04402FF80025C
:1062D000E0FF902CB6EFF0715F7B017A2C79B7F17B
:1062E00054902CB7E0902CB67006E04404FF800276
:1062F000E0FF902CB6EFF0B125704875FF0153D543
:10630000FEE04420F07F145103715FB125702E75BB
:10631000FF0153D5FB75FF0143D5047F14FE715B6C
:10632000B125701275FF0153E4B875FF0143E40510
:10633000E04408F08007902CB6E04410F075FF01AF
:1063400043D50190120EE0B40102D1F775FF019020
:106350002CB8E0F5DA902CB6E0FF22510E5107750B
:10636000FF03E59120E7FB22CDEFCDCCEECCD15859
:10637000FFAB94EF4BD1FECBEFCBFAE59130E71EAC
:10638000D15BFFA994E9F582EF4582FFEB2DF58201
:10639000EA3CF583C3EF9582E5F0958340DDE59116
:1063A00020E708CEECCECFEDCF715B22902CBEEF74
:1063B000F0A3F10675FF01312FEF64016002C322E3
:1063C000E5F430E602C3227FE87E03510E5107B1A7
:1063D0006E400122C24E1232CE902CBEE0FFB18A36
:1063E00053F4DFD24E1232CE7F787E00716875FF93
:1063F0000153E4BFE5E430E7FBF10F7F8AD146307B
:10640000E605D11AE4800775FF01D11AE5D9121DFE
:10641000CD75FF0143E440F11F400343F420B16E0A
:10642000400122D322902A35122120E4F5FF75BBCA
:106430000575BB8575FF0175D5022048077F3FFEB6
:10644000715BB10A75FF0143D52030480281EAE44F
:10645000F5FF538EF7438E077D04E4F5FF8DBCF501
:10646000FF43B102E5B130E2FBE4F5FFAFDFEFFE41
:10647000ACDEECFBEBFFED25E02433F582E4342ABF
:10648000F583D13FF5FFF5FF53B1FD0DEDB40CCA17
:10649000902A35125CEEFF78091220B8A3D13FFD97
:1064A000ED25E0243DF582E4342AF583E0C313FAB8
:1064B000A3E013FBB161F1E32BFFEE3AFEB161EE15
:1064C000F0A3EFF0ED240490120DF0EDC39407500B
:1064D00019CFEDCF0DEFB162E0FEA3E0FFC3902A2C
:1064E0003AE09F902A39E09E50B6E4F5FF758EC8D9
:1064F000F5FF90120DE0F5BCE4F5FF75BB8075FF6C
:1065000001F5D522E4F5FF758EC8E4F5FF75C2E10B
:106510007F1ED14630E707E4F5FF75C2A122E4F5FE
:10652000FF75C2812275FF01E5E45407227FE87EF2
:1065300003B1354107902CAEF1EB7A2C79B0D163E1
:106540005014902CB0E0FEA3E0FF902CAFE09F90A1
:106550002CAEE09E400A902CAEE0FEA3E0FF510E70
:1065600022ED25E0243BF582E4342AF58322E5F789
:1065700030E50EE5F754C07004312440F1B183C317
:1065800022D32275FF03E4F5912275FF01E5D53092
:10659000E602C322E4F5FF439A80EF125FD7E4F5E9
:1065A000FF539A7FD322AFF4EF547FF5F4304F05B9
:1065B000EF4480F5F475FF01E5D520E702C322E53D
:1065C000F4D330E601C32275FF0243E180D179D1D3
:1065D0004E53DB7F75FF0175D5027F145103715F48
:1065E000D14E43DB8075FF01E4F5D522902CF3F109
:1065F000067F017C127D01E4FEED2EF582E43CF580
:1066000083E02FFF0EEEB412F0901213E06F6009DA
:10661000902CF3D11DE4121DCD22902CBFE0FBA3E2
:10662000E0FAA3E0F9227A2C79B7B1EC902CB7E02C
:106630002275FF01E5E4332275FF0153D8EF22EE06
:10664000F0A3EFF0E422FE716890120FE02275FFD4
:1066500001438E1075FF012275FF03AF93EF75F0B4
:1066600010A422D158FFAD94EF4DD1FE8FF0121F30
:106670002DE591C330E701D322E5FA30E1FB75FC4B
:106680008075FF0153D5EFE4F5FC75FC40B183E55F
:10669000FC20E6FBD322E4FFE5F754C0600280163D
:1066A00075FF01E5D530E30DD13150F4D1B6EF607F
:1066B000EFD13150EB22F10FAFD922902CB2122141
:1066C0002075FF01902CB2A3E0FDA3A3E4FFFEE43C
:1066D000FC78101220B88FE1902CB2A3A3E0FEA3A7
:1066E000E4FFE4FDFC78081220B88FE2902CB2A3FE
:1066F000A3A3E0FF8FE32275FF0143D8102224FB00
:10670000FFE5F034FF22EBF0A3EAF0A3E9F02275F5
:10671000FF01E4F5EA75EAFF2275FF0375958090A5
:10672000120EE0D3940122B18A43FA04E4F5FF5338
:10673000D1FD43D101229012137401F07E127F012A
:10674000E4FDEF2D1276FCFC901213E02CF00DED21
:10675000B412EF22C24775FF03759B1F75FF0390AC
:10676000120FE0FF20E71BE59A540FC3940240127A
:10677000EF4480F0E4F5FF75C2A143FC0475FF030C
:10678000D247E5FC30E609E59A540FC3940540CCA6
:10679000E5FC30E611E4121DCD75FC80F5FC75FCBE
:1067A00040E5FC20E6FB304702F13622C24E1232B1
:1067B000CE126B1FE5D120E0FBE4F5FF75D9089000
:1067C0000411E07F00B403027F01F127D24E1232A0
:1067D000CEE4F51022AF14EFC36001D32275FF01A0
:1067E0008FDA22E0C313FEA3E01322EEF0A3EFF052
:1067F0007B0122EFC3940E5005900413EFF022E5C5
:1068000017540FFF22E517C394F0501F5317F011D0
:106810002EFE740FC39F4005EE940E400543170DE6
:106820008003EF4217E517540FFF227F0022E51780
:10683000C4540FFEEF9018E8932E22112EFFC3943C
:106840000E40027F0DEF9018CA93FF22EF30E30352
:10685000AF1322AD1B203604EE30E00BE517C394D6
:10686000F05020119E8018E51A6006FDE4F51A80AC
:1068700012E517C394F0500BE517540FFF60041195
:106880003BAD07AF05224315015315DF114C5155A0
:106890004004E4F514225315FB126729D322900417
:1068A00013E0FDFFC3740E11C7EFC4F8540FC8689E
:1068B000FFEEC454F048FEE51754F0C39FEE51A616
:1068C0007F005002AF05229FFFE49400FE22902C2F
:1068D000BAEDF0901211E0FEF46006A3E0FDB4FF03
:1068E0000C902CBC7418F0A37413F08008902CBC8E
:1068F000EEF0A3EDF0121D32640160024130902CE5
:10690000BAE0FE64086004EEB40408902CBB74285E
:10691000F08006902CBB743AF0EF125CE1FF12207D
:1069200083E45131EF24D8FFEE343FFEED3493FD84
:10693000EC3416FC7B007A807903780012184E51F3
:10694000AD902CBDE0FF902CBCE0C311C7E4FCFD72
:10695000121F59ECC0E0EDC0E0EEC0E0EFC0E090E7
:106960002CBDE0FFE4FCFDFE5131D0E0FBD0E0FAAD
:10697000D0E0F9D0E0F8EB2FFBEA3EFAE93DF9E888
:106980003CF8902CBBE0FFE4FCFDFE121F59EF2405
:1069900054FFEE340B126013E47BA87A16F9F81258
:1069A000184ECBEFCB902CBAE014605F14601B2420
:1069B000FE600C24FC7079E4F5FF75CE318006E4AE
:1069C000F5FF75CE21F5FF8BCF22E4FAE4F5FFEA5F
:1069D0002440F5CEE4F5FFEAFFC3740711C774F74E
:1069E0002FF58274183EF583E4513913C39DF5CF1A
:1069F000E4F5FFEA2448F5CEE4F5FFEA9018F751F4
:106A000039132DF5CF0AEAB408C222E4F5FF75CE9A
:106A100001F5FF8BCFF5FF75CE0EF5FFEB25E0F509
:106A2000CFE4F5FF75CE0FF5FFEB75F003A4F5CFBE
:106A3000227B64FAF9F8021F599325E0FDE433FC48
:106A4000EB75F010A4FFAEF0121E13CDEFCDEBFFEF
:106A5000E4C313EF22900435EFF0900412E024FD1C
:106A60006011047007519C7404F08012519C7408EA
:106A7000F0800BE4900436F09004347402F07F014F
:106A8000121D2C900436E0FF900434E0FDA3E0FBDF
:106A9000E4902BCCF012601B50E9D32290043674A2
:106AA00001F0900434226480F874809822C8ECC805
:106AB000C9EDC9CAEECACBEFCB22E51754F0C454D6
:106AC0000F2FFFC3941040027F0FEF9018D893FF51
:106AD000227E10EE60091EEE9018D893B507F4EEF2
:106AE000C3940E40027E0DEE9018CA93FF22E4F587
:106AF00014E5147028125B6E5005C24E1232CE128D
:106B000066797F08121D2C711FE5D120E0FB43152B
:106B1000205315FEE4F510A23592EDD322C322E4F2
:106B2000F5FFE5D154FE4402F5D122C0E0C0F0C02B
:106B300083C082C0D075D008C0FF12612F8F18E5C6
:106B40001864027050E51424F86040240760028144
:106B500047900422B1237028AB1CAA1DA91E916086
:106B6000AD16AF1F91F5E4FB7D01FF916C75FF0041
:106B7000B11A43FA0475FF0012672F751408814794
:106B800043FA0475FF0012672F8147C2EB751400AA
:106B90004315048147E518640160028147B1024052
:106BA000028147E51070529154E0900446F0B183A1
:106BB000B139900411EFF0900446E0FFD3940940FE
:106BC00056900411E0D39402400CEFD394AA7F00B6
:106BD00040027F01800D900446E0D394407F004046
:106BE000027F01EF6002802F900446E0FFF51675EA
:106BF000FF008FD9751003804EE51064037048F5CF
:106C0000FF900411E0C39403E5D350055402FF80C4
:106C1000035401FFEF60051267AC802BC24E1232A5
:106C2000CE75FF007122E5D120E0FBC2EB431502D7
:106C3000751000900411E0B4030715169154E51681
:106C4000F09002B5E516F0D0FFD0D0D082D083D03E
:106C5000F0D0E032E5122407F582E43511F5832205
:106C6000E4F5FFE9B111EA540F42D622E4F5FF75CD
:106C7000D102E5D120E0FBE4F5FFF5D1EF6008E4B7
:106C8000F5FF43D2808006E4F5FF53D27FEB600628
:106C9000E4F5FF43D104ED6006E4F5FF43D108229B
:106CA000900437B109F0751401E4FBFDFF916C7B92
:106CB000017A0479149160E4FD7F0291F5B12D9081
:106CC00004147455F0900437E0900415F090041209
:106CD0007402F0900439E090042230E507E4F0A358
:106CE000743CF022E4F0A374F0F022FB7D01FF91EC
:106CF0006C90042622E4F5FF8FD4F5FFCFEDCF8F03
:106D0000D522E5F754C024FF22EFF0A3ECF0A3ED69
:106D100022F5D7E4F5FF53D6F022E5D2548044148F
:106D2000F5D22274FFF5F0121E9E45F022E4F5FF25
:106D3000E5D25480440AF5D222EF24FE600C24FEF2
:106D4000600580007F01227F02227F0322E515205B
:106D5000E50CC24E1232CE711FE5D120E0FBE4F506
:106D60001022E4F5FF75D102E5D120E0FBE4F5D176
:106D7000F5FFEFB111EE540F42D6E4F5FFCFEDCFA2
:106D80008FD422E5F75406FFBF06037F0822E5F7FC
:106D90005406FFBF04037F0422E5F75406FFBF0239
:106DA000037F02227F0122C2AFEF4215D2AF22C27F
:106DB000AFEFF45215D2AF227F02B1AF9002B4E030
:106DC0009002BCF09002B404F0C39402229004221A
:106DD000E0A3E0FF2290043DEFF0ED24FE601914E3
:106DE00060262402703BEB2402FFE43AFE7C007D27
:106DF00050121E017D60801ED149C333CE33CED8E0
:106E0000F9FF7C007D28800ED149C333CE33CED824
:106E1000F9FF7C007D64121E1390043EEEF0A3EF98
:106E2000F090043DE0D154C083C08212211490043C
:106E30003FE02401FF90043EE03400FEE4FCFD123C
:106E40001F4CD082D083022120EB2401FFE43AFEC4
:106E5000EF78032225E025E02416F582E43404F5DA
:106E60008322EFD1541220F80220DEE4FFFEFDFC65
:106E7000900416D18090041AD18090041E02212023
:106E8000122120E4FFFEFDFC22EF7011ED6007757A
:106E9000FF0143AE012275FF0153AEFE22EFB401A4
:106EA00010ED600775FF0143AE022275FF0153AE7E
:106EB000FD2275FF02E5E630E2037F0322E5E630BE
:106EC000E3037F0022E5E630E1037F0422E5E67F6D
:106ED0000530E0027F0122EF600775FF0253E6BF35
:106EE0002275FF0243E64022EF14600F1460142461
:106EF0000270188B8075FF018DFD228B9075FF014C
:106F00008DC9228BA075FF018DCA22AF038FB0758A
:106F1000FF01AF058FCB22902BC312219BEF146092
:106F2000111460182402701EF151E580F157E5FD3F
:106F3000801CF151E590F157E5C98012F151E5A0AF
:106F4000F157E5CA8008F151E5B0F157E5CB021DD4
:106F5000CD902BC602217B121DCD75FF01902BC356
:106F600002217BE4F5FFAF9122E4F5FFAF922243CB
:106F7000FB1075FF0243E640EF600D75FF02E5E18F
:106F800020E7FB43FB0D800343FB0E80FE901210B5
:106F9000F198EBF022EEF0A3EFF0A3EDF0A322EFD7
:106FA00030E00E43F401E4F5FF43A404F5FF7596C9
:106FB00024EF30E10E43F401E4F5FF43A408F5FFAC
:106FC000759624EF30E20943F402E4F5FF75961E4E
:106FD000EF30E30943F404E4F5FF75961075FF0103
:106FE000EF5403600475D7122275D72D22E4F5FF04
:106FF0007584E6F5FF439404F5FF75981422CCEFF1
:10700000CCCFEDCF74017E00C8EFC8088005C33334
:10701000CE33CED8F9FFCDECCDEF5D601B304918F3
:1070200075FF0175DCAD75FF0175DDCDE4F5FF750C
:107030009A74F5FF7594842275FF0175DC5375FF12
:107040000175DD33E4F5FF759A14F5FF759404229C
:10705000E4F5FF75933F75FF03759A40126FEDE4F9
:10706000F5FF759C93F5FF75A1A3F5FF758531F5C7
:10707000FF758628E5FA54304480F5FA75FF0175EE
:10708000E74A75FF0275DF4975FF0143D30475FFB9
:107090000153D367E4F5FF53E6BF75FF0175D825AB
:1070A000F5FF75B503F5FF75B215F5FF75BA02F575
:1070B000FF75AFB3F5FF75CD0AF5FF75CB08F5FF8A
:1070C00075CA12F5FF75BF0EF5FF75CC96F5FFF585
:1070D000BDF5FF75C281F5FF75AEE1F5FF75DA55B7
:1070E000F5FF75F580F5FF75E903F5FF75E933F5F3
:1070F000FF75972A75FF01759B42759CA4759D29A4
:10710000759E48759F2475A11275A312759AF82073
:107110004A0CF5FF43968090120FE04440F0227530
:10712000FF0175E46575FF0175D64722902C73EF5A
:10713000F0E4A3125FF178011220B8902C73E0FB09
:1071400031C6F583122120901210E0FF6480607533
:10715000EFC3947F503BEB31C6F583C083C08212EE
:107160005CEEFFEEC0E0EFC0E0901210E075F004BE
:10717000A4AEF0FBCAEECAEA3395E0F9F8D0E0FF1E
:10718000D0E0FEC3EF9BFFEE9AFEED99FDEC9880F8
:107190002C902C73E031C6F583C083C08231D3902C
:1071A0001210E0F40475F004A4FFAEF0EE3395E0A5
:1071B000FDFCEB2FFFEA3EFEE93DFDE83CFCD08202
:1071C000D0831221202225E025E02401F582E43439
:1071D0001222FFE0F8A3E0F9A3E0FAA3E0FB22E526
:1071E000FA5430FFBF30037F0822E5FA5430FFBF66
:1071F00020037F0422E5FA5430FFBF10037F0222F0
:10720000E5FA54307F0070027F012275FF01E5D559
