:020000040000FA
:1000000002180002180308F808FD0002180B0B2D57
:0A0010000B37220218130AE70AFB5F
:0F001B0002181B457F7F0722021823E4FFE1DF55
:10002B0002182BA249923422021833021EE0D3226B
:0E003B0002183BA24A9237220218438FEF228E
:07004B0002184B12292222CA
:0700530002185375ED0422B1
:07005B0002185B75ED0222A3
:06006300021863023F6277
:07006B0002186B75C80122A9
:100073000218734103B500C134C1374103B400E032
:10008300020200003843E0020200022FEDE0040206
:10009300000446524545E00102001554E001020008
:1000A30016A5E0E8022568FEFEFEFEFEFEFEFEFE4D
:1000B300FEFEFEFEFEFEFEFEFEFEFEFEFEFEFEFE5D
:1000C300FEFEFEFEFEFEFEFEFEFEFEFEFEFEFEFE4D
:1000D300FEFEFEFEFEFEFEFEFEFEFEFEFEFEFEFE3D
:1000E300FEFEFEFEFEFEFEFEFEFEFEFEFEFEFEFE2D
:1000F300FEFEFEFEFEFEFEFEFEFEFEFEFEFEFEFE1D
:10010300FEFEFEFEFEFEFEFEFEFEFEFEFEFEFEFE0C
:10011300FEFEFEFEFEFEFEFEFEFEFEFEFEFEFEFEFC
:10012300FEFEFEFEFEFEFEFEFEFEFEFEFEFEFEFEEC
:10013300FEFEFEFEFEFEFEFEFEFEFEFEFEFEFEFEDC
:10014300FEFEFEFEFEFEFEFEFEFEFEFEFEFEFEFECC
:10015300FEFEFEFEFEFEFEFEFEFEFEFEFEFEFEFEBC
:10016300FEFEFEFEFEFEFEFEFEFEFEFEFEFEFEFEAC
:10017300FEFEFEFEFEFEFEFEFEFEFEFEFEFEFEFE9C
:10018300FEFEFEFEFEFEFEFEFEFEFEFEFEFEFEE0AA
:1001930001022650FFE0010226A828E001022FBB3E
:1001A300FFE001022FE900E005022FEA2FED02062E
:1001B300024106C2060114004106C1014106BF0106
:1001C300C13C011900011700C14F412B9A00412B7B
:1001D3008F00412B9800412B9900412B96FF412B17
:1001E300BE004128CC0041286D055D2AF8000000BF
:1001F30000000000000000000000000000000000FC
:1002030000000000000000000000C14241274E0032
:10021300C111C129014000C125C126C127412E3E7C
:1002230005412F1200C164432B49000000412B48B4
:1002330000412B4C00C138C13AC143412B7000012E
:100243005900C123C121412B6200412B6F0060285B
:10025300262A0601000000030008F6877788CF7F6F
:10026300C04FFBDFFDE06700008000808680BA0599
:10027300E87300800F000060000041216800412105
:10028300810041216C00412164014121700241211F
:1002930066014123A6004121630141216E114121E1
:1002A30065004123A3004121610041242100C1478E
:1002B300C1484128DD964128D90FE002022FEF0003
:1002C30039E0050230230039040601E00202302838
:1002D3000807E00502382A0807050601E00202388C
:1002E3002F0013E00C02383100000308000300085C
:1002F30006010602E00502383D0013FF0601E00295
:1003030002384200000075819075FF03759E02124A
:100313000820021943020426900076E47E019360CC
:10032300F4A3FF543F30E509541FFEE493A3600197
:100333000ECF54E0B4E00EEFFAEEF9A3A3A3A3DAD1
:10034300FDD9FB80D654C025E0604B5026E493A32F
:10035300F85407240CC8C333C4540F4420C8834043
:1003630004F456800146F6DFE480B001020408106D
:10037300204080E493A3FAE493A3F8E493A3C8C5CD
:1003830082C8CAC583CAF0A3C8C582C8CAC583CAFE
:10039300DFE9DEE78085E493A3F8E493A34003F663
:1003A3008001F208DFF402031EC2D5E830E70FB282
:1003B300D5E4C39BFBE49AFAE499F9E498F8EC30AA
:1003C300E717B2D51203E21210DDE4C39BFBE49AF4
:1003D300FAE499F9E498F880031210DD30D50DE4BE
:1003E300C39FFFE49EFEE49DFDE49CFC227890E421
:1003F300F6D8FD9000007F007E10E4F0A3DFFCDE62
:10040300FA902F1AA3E583C394204011FEAF829084
:1004130020000E0FE48002F0A3DFFCDEFA120820B6
:1004230002031B2232EF90043193900800730A20D9
:10043300364CE55AFF22EFF55A2209340939093EB1
:1004430009430948094D0952095C09610966096BA9
:10045300097A097F0989099309A7B70B09B10A0B1F
:100463000A100A150A1A0A1F0A240A290A2E0A3D23
:100473000A470A5B0A600A650A740A790AB50ABA66
:100483000ABF0C7C0C810C860C8B0C900C950C9A7F
:100493000C9F0CA40CA90CAE0CB30CB80CBD0CC275
:1004A3000CC70CCC0CD10CD60CDB0CE00CE50CEA25
:1004B3000CEF0000000000003F241E16110E0B0974
:1004C300070504030201F0C8A79177676046383532
:1004D3003230242220140001010202030304040524
:1004E30005060607070BFF0C090C0E0C130C180C62
:0B04F3001D0C270C310C360C540C596A
:10050800000DFA20000DDC7000000000020C000154
:100518003F3F3F040404353535000000005A2D578D
:1005280061766520362E3032003A5A1DC53B253E8D
:1005380040822D1C16131110100B960BC30BC80B01
:10054800CDE4FD7C0CAB050DEB900525938F828ED9
:1005580083F00FBF00010EDCEC01208F828E83E454
:10056800F07406B1857402B185A3A3E4F0EF240406
:10057800F582E43EF583E4F0A37456F022A3F08FED
:10058800828E83A322AD07901215E054FCF0E0FFA1
:10059800ED54307E0060027E02EF4E901215F0E0BE
:1005A800FFED7E0030E0027E01EF4E901215F02242
:1005B8009003C17402F09003B4E0FF120D03B18DF3
:1005C8009003C17405F0229003BFE0FF120CF49071
:1005D80003C4EFF0229003C4E07F0070027F012281
:1005E800E49003BFF0229003BF7401F0229003BF90
:1005F8007402F022D10370027F01229003BFE07FD2
:100608000022D103B401027F0122D103B402027F88
:1006180001221246E0120B3C120BEB120B7D9003E9
:10062800B6E064017002C1C97FFF120894900763A5
:1006380012125E7E007F15F135BF540D7E007F16C5
:10064800F135BFA5047F0180027F009003B4EFF06D
:1006580064017049900763121255AE02122A2E9057
:100668000769E0FEA3E0FF900763121255124A8063
:10067800E92407F9E43AFA90076612125EE92408B9
:10068800F9E43AFE122A2E900769E064067004A382
:10069800E0640160081208999003B4EFF09003B485
:1006A800E0701E7E007F10C006C374439410FE7471
:1006B800389400123CF9D0061228E2E4FFFE120832
:1006C8009E120A51120984120907306405755301F4
:1006D800802F1249AC1208621228E9FE4FFDA3E0F0
:1006E800FC4DFDA3E0FB4D600BEE5FFFEC5FFFEB05
:1006F8005FF4700312286A9003BBE065539003AF60
:10070800F0E4902D08F0902D06F0A3F0011275FF8B
:100718000275E40475E40175E402229026CCE075C4
:10072800F016A424E9F9741F35F0FEAF01E4FCFDCE
:10073800902DC112120C1214001216F9EF60051256
:10074800290D80F512184E7F03121C20600A902D87
:10075800C11211E47810F17F902DC1F17A902DC16A
:10076800F1EB121745902DC5EFF0F1DA902DC5E0A9
:10077800FF221211E478081211A4E4E5C820E2FB74
:100788008FEB22902DC612120C902DC61211E4F197
:1007980038902DCAE06F60361214001216F9EF6017
:1007A8000512290D80F5121C08600A902DC6121139
:1007B800E47810F17F902DC6F17A902DC6F1EB9078
:1007C8002DCAE0FFF1D8902BB57401F0D322C322D3
:1007D800F18312167DE4FFEFB4010443FE20225397
:1007E800FEDF221211E4E4809275FF0275E404E44E
:0307F800F5E42203
:10080000C05A7408C0E0C082C083755A0AE5FF541C
:10081000CF4490F5FF22C05A7408C0E0C082C08364
:10082000755A20E5FF54CF4490F5FF22C05A740852
:10083000C0E0C082C083755A36E5FF54CF44A0F5AE
:10084000FF22C05A7408C0E0C082C083755A4CE5CC
:10085000FF54CF44B0F5FF2290800401169083F03E
:1008600001169083F3011690845601169086D401E8
:100870001690A787011690B7F7011690BFFE0116D4
:1008800090C00101169083AD01169085620116900B
:10089000B822011690BE7A011690BB6B011690C06B
:1008A00058011690B1DC011690CFF2011690B332C8
:1008B000011690B372011690D04B011690D06201D0
:1008C0001690B588011690B54A011690D3400116CE
:1008D000908590011690D7F3011690DFE9011690EC
:1008E000E00F011690A7EF011690DB20011690A3F0
:1008F00030011690B9D0011690E327011690820EB0
:10090000011690E462011690D35C011690DC3B0165
:100910001690E65B011690D5A9011690DA510116E2
:1009200090986D011690E17D011690E0CE01169031
:10093000CA0B011690E6EB011690E706011690E748
:1009400014011690E7D9011690DBB4011690E99FC7
:10095000011690E799011690E5C1011690E9D701BB
:100960001690EB35011690EC62011690ED6A0116B7
:1009700090CDC1011690AE35011690E62B01169070
:10098000A4F5011690C216011690B0FA011690EE69
:100990001A011690B0F5011690DC0D011690C3787F
:1009A000011690C56B011690B7A1011690B70F0103
:1009B0001690EE2A011690EB6F011690EE4A011682
:1009C00090EE61011690EE69011690C71E01169017
:1009D000C724011690EEFF011690CFDB011690A3FD
:1009E000FE011690CD48011690EB3E011690EAB636
:1009F000011690EB2B011690EA6D011690EB530156
:100A00001690C5E2011690C5E8011690B5A1011631
:100A100090B6AB011690DB2D011690EFBA0116903F
:100A20008671011690E7B8011690EFC9011690CFB4
:100A300067011690DA5D01169086E601169083D85C
:100A400001169099AF011690A52F011690990301F8
:100A50001690F003011690F022011690CFBD0116FA
:100A600090AFD5011690AA2A011690D48301169052
:100A7000CB87011690F0D1011690CAAA011690CF2B
:100A8000C8011690CA31011690F10D011690EC863E
:100A9000011690F124011690CED4011690DB6C0162
:100AA0001690F127011690847B011690F12A011609
:100AB00090DAFB011690D8A1011690B7B1011690FB
:100AC000B76D01169099E501169081230116909952
:100AD0003B011690C980011690C92B011690F25C5B
:100AE000011690A932011690F1F801169085A40123
:100AF0001690D2920116909A76011690F5AC0116D6
:100B000090F5B9011690F2C1011690F3010116900B
:100B1000F295011690F5FE011690F643011690A885
:100B2000D6011690F677011690A799011690F69EB9
:100B300001169080140116908230011690F6E4019F
:100B400016909878011690B3DB011690F6F801160E
:100B500090845201169080FD011690B53F011690C9
:100B6000ABA1014290B17C014290B1B7014290B279
:100B70009D014290B315014290B3C5014290B3DD8F
:100B8000014290B04E014290B59A014290B0F401FA
:100B90004290AFF4014290B64E0142908ED0014295
:100BA00090B0DA0142908F0F014290B74A01429013
:100BB0008B9D014290A7F7014290A8F801429080D6
:100BC00000014290B680014290B8B9014290857E02
:100BD000014290B958014290B96A014290B9B601F8
:100BE0004290A984014290A07F014290BB03014240
:100BF00090BB19014290BB30014290BB430142902F
:100C0000B3B8014290AC83014290B72D014290AF3E
:100C100089014290BB46014290B658014290AF0113
:100C2000014290B633014290BD1E014290AC940146
:100C30004290BD4A014290BCBF014290BC24014297
:100C400090BD9D014290B766014290BC6201429006
:100C5000BA9B014290BE34014290AA1A014290AD63
:100C600017014290BA51014290BBF9014290BB3644
:100C7000014290B2EF014290B31C014290A11F01CA
:100C80002C90A129012C90A1A2012C90A344012C0D
:100C900090A5F8012C90A604012C90A616012C908A
:100CA000A62B012C909C7E012C90A656012C90A284
:100CB00018012C90A26F012C90A660012C90A2C666
:100CC000012C90A66A012C90A681012C90A34E01C4
:100CD0002C90A6BA012C90A6B0012C90A6EE012C67
:100CE00090A6F8012C90A018012C90A057012C90F0
:100CF000A750012C9080E7012C909606012C90A71C
:100D0000E3012C909972012C90A874012C909DCE37
:100D1000012C909D89012C90A8AC012C909FA101E1
:100D20002C90A8EF012C00E709F608DFFA8046E7CF
:100D300009F208DFFA803E88828C83E709F0A3DF9E
:100D4000FA8032E309F608DFFA8078E309F208DF77
:100D5000FA807088828C83E309F0A3DFFA806489CB
:100D6000828A83E0A3F608DFFA805889828A83E0CA
:100D7000A3F208DFFA804C80D280FA80C680D4804B
:100D80006980F28033801080A680EA809A80A880F3
:100D9000DA80E280CA803389828A83ECFAE493A302
:100DA000C8C582C8CCC583CCF0A3C8C582C8CCC591
:100DB00083CCDFE9DEE7800D89828A83E493A3F6A2
:100DC00008DFF9ECFAA9F0EDFB2289828A83ECFABC
:100DD000E0A3C8C582C8CCC583CCF0A3C8C582C86F
:100DE000CCC583CCDFEADEE880DB89828A83E493AA
:100DF000A3F208DFF980CC88F0EF60010E4E60C3EB
:100E000088F0ED2402B4040050B9F582EB2402B45A
:100E1000040050AF2323458223900D7773BB010656
:100E200089828A83E0225002E722BBFE02E3228904
:100E3000828A83E49322BB010CE58229F582E58353
:100E40003AF583E0225006E92582F8E622BBFE0649
:100E5000E92582F8E222E58229F582E5833AF583E5
:100E6000E49322BB010989828A83F8E028F02250AA
:100E70000327F722BBFE05F8E328F3228A83898241
:100E8000F8E4932822BB010FF8E58229F582E58377
:100E90003AF583E028F0225009C58229F8E5822638
:100EA000F622BBFE09C58229F8E22582F222F8EA81
:100EB0002583F583E9932822BB010689828A83F082
:100EC000225002F722BBFE01F322F8BB010DE5829E
:100ED00029F582E5833AF583E8F0225006E9258278
:100EE000C8F622BBFE05E92582C8F222EF8DF0A4E8
:100EF000A8F0CF8CF0A428CE8DF0A42EFE22BC004A
:100F00000BBE0029EF8DF084FFADF022E4CCF87524
:100F1000F008EF2FFFEE33FEEC33FCEE9DEC984033
:100F200005FCEE9DFE0FD5F0E9E4CEFD22EDF8F5CF
:100F3000F0EE8420D21CFEADF075F008EF2FFFED2F
:100F400033FD4007985006D5F0F222C398FD0FD527
:100F5000F0EA22C2D5EC30E709B2D5E4C39DFDE446
:100F60009CFCEE30E715B2D5E4C39FFFE49EFE1271
:100F70000EFEC3E49DFDE49CFC8003120EFE30D502
:100F800007C3E49FFFE49EFE22C5F0F8A3E028F02B
:100F9000C5F0F8E582158270021583E038F022A3CF
:100FA000F8E0C5F025F0F0E582158270021583E0C7
:100FB000C838F0E822BB010A89828A83E0F5F0A3F1
:100FC000E022500687F009E71922BBFE07E3F5F09F
:100FD00009E3192289828A83E493F5F0740193224C
:100FE000BB010789828A83020F89500B09C5F0274C
:100FF000F7C5F01937F722BBFE0D09F8E325F0F32A
:10100000C5F019E338F322F889828A8374019325A5
:10101000F0C5F0F8E4933822BB010A89828A83F094
:10102000E5F0A3F0225006F709A7F01922BBFE064F
:10103000F3E5F009F31922EF2BFFEE3AFEED39FD4F
:10104000EC38FC22C3EF9BFFEE9AFEED99FDEC9885
:10105000FC22E88FF0A4CC8BF0A42CFCE98EF0A449
:101060002CFC8AF0EDA42CFCEA8EF0A4CDA8F08B29
:10107000F0A42DCC3825F0FDE98FF0A42CCD35F06F
:10108000FCEB8EF0A4FEA9F0EB8FF0A4CFC5F02E00
:10109000CD39FEE43CFCEAA42DCE35F0FDE43CFC69
:1010A0002275F008758200EF2FFFEE33FECD33CDB1
:1010B000CC33CCC58233C5829BED9AEC99E58298FE
:1010C000400CF582EE9BFEED9AFDEC99FC0FD5F0FD
:1010D000D6E4CEFBE4CDFAE4CCF9A88222B800C174
:1010E000B90059BA002DEC8BF084CFCECDFCE5F0E1
:1010F000CBF97818EF2FFFEE33FEED33FDEC33FC28
:10110000EB33FB10D703994004EB99FB0FD8E5E4D0
:10111000F9FA227818EF2FFFEE33FEED33FDEC33B2
:10112000FCC933C910D7059BE99A4007EC9BFCE941
:101130009AF90FD8E0E4C9FAE4CCFB2275F010EF7D
:101140002FFFEE33FEED33FDCC33CCC833C810D7C0
:10115000079BEC9AE899400AED9BFDEC9AFCE89914
:10116000F80FD5F0DAE4CDFBE4CCFAE4C8F922C3F9
:10117000E49FFFE49EFEE49DFDE49CFC22EB9FF5D2
:10118000F0EA9E42F0E99D42F0EC6480C8648098E9
:1011900045F022EB9FF5F0EA9E42F0E99D42F0E82F
:1011A0009C45F022E8600FECC313FCED13FDEE1339
:1011B000FEEF13FFD8F122E8600FEFC333FFEE33E9
:1011C000FEED33FDEC33FCD8F122BB010789828AA6
:1011D0008302120C5005E9F80213C4BBFE05E9F8BE
:1011E0000213D022E0FCA3E0FDA3E0FEA3E0FF2277
:1011F000E493FC740193FD740293FE740393FF2245
:10120000E0F8A3E0F9A3E0FAA3E0FB22ECF0A3ED01
:10121000F0A3EEF0A3EFF022A8828583F0D083D074
:101220008212122F12122F12122F12122FE473E4B5
:1012300093A3C583C5F0C583C8C582C8F0A3C58381
:10124000C5F0C583C8C582C822A42582F582E5F011
:101250003583F58322E0FBA3E0FAA3E0F922EBF06B
:10126000A3EAF0A3E9F022E493FB740193FA740279
:1012700093F922BB010789828A830212555005E93E
:10128000F80213DCBBFE05E9F80213EE89828A83BB
:10129000021267BB011A89828A83D0F0D0E0F8D0AD
:1012A000E0F9D0E0FAD0E0FBE8C0E0C0F002125E66
:1012B0005016E9F8D083D082D0E0F9D0E0FAD0E03F
:1012C000FBC082C0830213E5BBFE16E9F8D083D0D1
:1012D00082D0E0F9D0E0FAD0E0FBC082C0830213F4
:1012E000F722BB010DE58229F582E5833AF58302F9
:1012F00012555007E92582F80213DCBBFE07E925E9
:1013000082F80213EEE58229F582E5833AF583023D
:101310001267BB0120E58229F582E5833AF583D087
:10132000F0D0E0F8D0E0F9D0E0FAD0E0FBE8C0E09F
:10133000C0F002125E5018E92582F8D083D082D026
:10134000E0F9D0E0FAD0E0FBC082C0830213E5BB35
:10135000FE18E92582F8D083D082D0E0F9D0E0FAF7
:10136000D0E0FBC082C0830213F722D083D082F882
:10137000E4937012740193700DA3A393F874019316
:10138000F5828883E4737402936860EFA3A3A3805B
:10139000DF8A838982E473EC8EF0A4CCC5F0CCCDD7
:1013A000F8EFA4CEC5F02DFDE43CFCE8A42EC8C5A2
:1013B000F03DFDE43CFCEFA4FFE5F028FEE43DFD3C
:1013C000E43CFC22ECF608EDF608EEF608EFF62217
:1013D000ECF208EDF208EEF208EFF222E6FB08E686
:1013E000FA08E6F922EBF608EAF608E9F622E2FB4B
:1013F00008E2FA08E2F922EBF208EAF208E9F2223E
:1014000075FF02E5E430E10675E40675E403229019
:101410002C84510C902C88515E9100D1F9EF60051D
:1014200012290D80F6121C08600A902C8431E47891
:101430001012077F902C8412077A902C8431E4E4F8
:101440008022902C8B122C7C601F902C885155E9A7
:101450004A600F120E1DFF120783902C891222354D
:1014600080E0E4FF12078380D91207DA902BB5746D
:1014700001F022902BCF510C902BD3515E902BCFAB
:1014800031E4902BBBE024FFFD902BBAE034FF5EEB
:10149000FEED5FFF902BD8EEF0A3EFF04E6062D12F
:1014A00071C3902BBBE09FFF902BBAE09EFE902B68
:1014B000D8F0A3EFF0902BD6F1D99FEC9E5006A365
:1014C000ECF0A3EDF0122B736028D143C004C005EB
:1014D000C006C007B1994A6005D136FF80027F007F
:1014E0007E00B199124A02F0D007D006D005D00490
:1014F000910FB1754A6004D171806D7E007F0080CC
:1015000067902BD6E0FEA3E0FF4E6067902BBAF108
:10151000D9EF9DEE9C400A902BD8ECF0A3EDF08023
:101520000D902BD6E0FFA3E0A3CFF0A3EFF0122B9A
:10153000736028D143C004C005C006C007B1994AF2
:101540006005D136FF80027F007E00B199124A0209
:10155000F0D007D006D005D004910FB1754A6004D1
:10156000D17180047E007F00902BD4EE8FF0120F9B
:1015700089808ED322902BD8E0FEA3E0FFC3902B6E
:10158000D7E09FF0902BD6E09EF0902BCF5100E457
:10159000FCFD1137902BCF510C902BD35155E922E4
:1015A000EFF4045FFFE4FEEF70037FFF22EFD394BC
:1015B0000F4009EFC4540FFFEE4404FEEFD3940331
:1015C000400AEF1313543FFFEE4402FEEF30E101F7
:1015D0000EAF0622AB07AA06EB241FFFE43AFEEF8C
:1015E0007805CEC313CE13D8F9F9EB541F902EFA19
:1015F000F0AF05D13BFCAF05B1A5AE01EE14C39F22
:10160000C43354E0F9AF04C3EB9FFFEA9400FEE952
:10161000FDC3EF9DFFEE9400FEED600FE0FD60075F
:10162000C374209DFD80067D0080027D007C00EF5C
:101630002DFFEC3EFE22902BDCE0FFB1A0EFC43387
:1016400054E022902BD8E0FEA3E0FF902BDCE0FDDD
:10165000B1D4902BDAEEF0A3EFF0A3E0FFB1A0EF4E
:1016600075F020A4FFAEF0E4FCFD902BCF510001FB
:1016700037902BD8E0FEA3E0FF22120783F1F0EFB2
:1016800070FB902BB8E0F4600B902EF77406F0120C
:101690004B7070FB902BB6E0716B16B60416BE143F
:1016A00016C31516C81716D83016DD3416E23616CE
:1016B000E737000016D0433C10853C80802F433D27
:1016C000108008433D208003433D80853D90801D70
:1016D000433E20853EA08015433F01800D433F10CF
:1016E0008008433F408003433F80853FB0902EF702
:1016F000740CF0124B7070FB227F011207DF305721
:1017000015121842F145902EF9EFF0D17D902EF987
:10171000E020E002C25730571FF1E0F145902BB1B5
:10172000F143902BB2EF124B61600BA3E0F4600623
:10173000EF30E702C257D17DE4FF1207DFA257E482
:1017400033FF22EFF07FFF120783E5C820E2FBAFF3
:10175000EB227F011207DF902EF87401F0902EF833
:10176000E06037121842F145902EF8EFF0D17DF18C
:10177000E0F145902BB1F143902BB2EFF0D17D9089
:101780002EF8E05401124B6160D3A3E0F460CEEF79
:1017900030E7CAE4902EF8F080C31218537F9F12EE
:1017A0000783F145902BB3F143902BB8F143902B75
:1017B000B9EFF01207DA902BB1E0F4601BA3E0F46C
:1017C0006016902BB8E0FD541F240FA3F0EDC41356
:1017D00054074480902BB8F022E0FCA3E0FDD32214
:1017E0001218537FD7020783902ECAF0902BBE2287
:0617F000E5C85404FF22CD
:061800000203090208F3D7
:101808007FB8900001740193B40007E493B4180200
:0A181800C322D322902B910211E4A9
:06182300022CB4AF4A22C2
:10182B00022DBA7F017E009017FCE4935EFE7401DB
:0E183B00935F4E24FFB32211537F05020783F3
:10184B000220077F011207DF902BB6E012136B18F3
:10185B007604187E14188315188817189830189D5D
:10186B003418A23618A73700001890533CEF853C6C
:10187B0080802F533DEF8008533DDF8003533D7F26
:10188B00853D90801D533EDF853EA08015533FFE66
:10189B00800D533FEF8008533FBF8003533F7F853D
:1018AB003FB07F0CDFFE221214001216F9EF600519
:1018BB0012290D80F57F011207DFD25711537F06D6
:1018CB0012167A11537F011207837F0312167AE4E3
:1018DB00FF0207DF902EC9EFF0E4A3F0902BBFE0DF
:1018EB00FFB4020A740F1217E874B9F0800DEF649D
:1018FB00047044743D1217E87479F0114E902EC9A0
:10190B00E06007902BBEE0FF80027FAB12078312D3
:10191B00167D902EC9E0902BBEF07016902ECAE06B
:10192B00D39400400D7FFF120783902ECAE014F072
:10193B0080EAE4FF1207DF2275FF0275E404E4F589
:10194B00E475FF02E5E630E011901215E0540C60EF
:10195B00099138901215E054F7F01203F0123F8FF3
:10196B009003B6EFF0901200E0B47A14901214E0EA
:10197B00B49C0D9003B6E0FF64056004EFB4032E36
:10198B00E49003C0F09003C0E0FFC394805013E4D5
:10199B002FF582E43412F583E4F09003C0E004F0F9
:1019AB0080E3901200747AF0901214749CF0120B76
:1019BB00734003120B6E7B017A1279107D017F014C
:1019CB00120B697B017A1279117D017F21120B6950
:1019DB007B017A1279127D017F22120B697A1279BF
:1019EB001D7F02124A9790121DE0B401057F011270
:1019FB00466C120B1E123F8F120B199003B6EFF0B1
:101A0B00120BF0120B149003B6E0FF120CFEEF2436
:101A1B00FFB3926475FF0253E6BF122D60120B28C1
:101A2B0012061A20640C1205B87B017A27797F12F3
:101A3B0009987F01B1A4D2AF20640241CB120B787D
:101A4B001208A3120CF9120B6440F29003B5E0607C
:101A5B003E120B4BEF7005124A1D4033E51470FC20
:101A6B00E51520E502B17612085DEF70FA110A5008
:101A7B0004112E50047F0111DF9003B5E0B4020472
:101A8B00E4FF80099003B5E0B403047F0191891250
:101A9B000B46E51530E1A61238E94002E4F0E515F6
:101AAB0020E50471EA91A71249BEAF82AE83EFC065
:101ABB00E071F89003B8E0FDD0E0FF120BE641486F
:101ACB0012296E12060AEF70069003B5E0604E20E5
:101ADB001C03200948120B4BEF7005124A1D403DA9
:101AEB00E51470FCE51520E502B17612085DEF7088
:101AFB00FA110A5004112E50047F0111DF9003B527
:101B0B00E0701212060AEF600C1205F5901215E048
:101B1B004408F080089003B5E0FF123EE69003B551
:101B2B00E0600C201C093009062002031209701218
:101B3B000B781208A3123D201205CF1205DDEF70B2
:101B4B0022120612EF60049138803612060AEF70EB
:101B5B0030123E78EF702AD1C5EF64017023120565
:101B6B00EE801E901215E020E217120612EF600CA9
:101B7B00110A5004112E5004E4FF11DFE49003BF4F
:101B8B00F0203505120B4680221208B79003AEE009
:101B9B00FEEFC39E4005EF9EFF80089003AEE0F47E
:101BAB00042FFF7406D39F5002C235E51530E12791
:101BBB001238E94002E4F0E51520E50471EA91A73B
:101BCB001249BEAF82AE83EFC0E071F89003B8E06C
:101BDB00FDD0E0FF120BE6120AEC122D4B41CB901D
:101BEB0003B7E0FD75F0AA9003C5121249ED75F02D
:101BFB0002A424B0F9740335F0FA7B01227F0112A1
:101C0B0007DFD25711537F0612078312167D11532C
:101C1B00902BB4E0FF120783902BB7E0640222D223
:101C2B00091208B79003C2EEF0A3EFF022F14B704C
:101C3B000790121CE0700122F14B60237FFF120012
:101C4B00369012161211E4EF24FFFFEE34FFFEED77
:101C5B0034FFFDEC34FFFC90121612120C800D9029
:101C6B00121CE0FF120036E490121CF0901235E0CB
:101C7B00FD7F01123F629012341228377F0143FB24
:101C8B001075FF0243E640EF600D75FF02E5E120A2
:101C9B00E7FB43FB0D800343FB0E80FEAF82AE835D
:101CAB007D01900778EEF0A31249DEE514707712F0
:101CBB00262D5004C256B132900778E0FEA3E08E79
:101CCB0011F512A31212559006C312125EAE11AF8C
:101CDB00127DAA1248B6E4F5FF75D908F510E51583
:101CEB005421602BE51530E504E4FFF15AE490072D
:101CFB007DF090077DE004F01233E5EF600990076B
:101D0B007DE0C3941040EB7F02120D215315DE9042
:101D1B0006BFE07F00B403027F01F1F8D256B13267
:101D2B00D2EBA23B92ED22902EF6E5F4F0E0547F3D
:101D3B00F5F47F827E00F100F1405005E5FC20E6D2
:101D4B00F7305608902EF6E04480F5F4F109F102D5
:101D5B00F1405005E5FC20E6F775FF01E5D520E7DE
:101D6B0002C322E5F4D330E601C322E51470281236
:101D7B00262D5004C256B1321236987F08120D210F
:101D8B001227BAE5D120E0FB4315205315FEE4F5ED
:101D9B0010A23B92EDD322C322EF600C71EAAF820B
:101DAB00AE83E4FD91AD800F3034037F0022120B24
:101DBB005AB176E433FF227F0122123E5BEF7008AB
:101DCB007FA07E0FFDFCC166123E92902B90EFF030
:101DDB007406D39F4067E0605AD1ED7E00902B9044
:101DEB00E014FDE5F0A805088005C333CE33CED84B
:101DFB00F9FFD1E6D1D2902B91121200C000C00195
:101E0B00C002C003902B90E014FF74107E00A80753
:101E1B00088005C333CE33CED8F9FFEE3395E0FD02
:101E2B00FCD1D8121052D003D002D001D000121026
:101E3B00378028D1EDAFF07E00D1E6801E902B9835
:101E4B00E0FF600FE4FCFDFEFB7AF47901F8121061
:101E5B005280087F007ED07D077C00D1D2123DD707
:101E6B007E3B7F25C006C007111C123CEDD007D06E
:101E7B0006123CBF123E6CEF703F111CD1D8D3122F
:101E8B0011934007E47F01FEFD8025111CD1D81270
:101E9B0010DDD1D2111CE47B01123F435014111CF5
:101EAB00C3EF9401FFEE9400FEED9400FDEC940063
:101EBB00D1D1111C123EFF912A22200D05912A7FB0
:101ECB0001227F0022FDFC902B9102120CE47BE897
:101EDB007A03F9F82275FF028FE3227C007D6402FE
:101EEB001397D1F5EF75F0A084229003AFE064AAAD
:101EFB002411FFF022F10D75FF03439180227FE83F
:101F0B007E03902E04EEF0A3EFF07B017A2E790680
:101F1B0012360C5014902E06E0FEA3E0FF902E0517
:101F2B00E09F902E04E09E400B902E04E0FEA3E079
:101F3B00FF1233C82275FF03E591C330E701D322AB
:101F4B00E4FFFEFDFC901216121200C302119375F2
:101F5B00FF01E5D530E602C322E4F5FF439A80EF9B
:101F6B00122FE9E4F5FF539A7FD322902E14EFF052
:101F7B00A3124A5B75FF01123386EF64016002C343
:101F8B0022E5F430E602C3227FE87E031233C8F168
:101F9B0002123682400122C256B132902E14E0FF5B
:101FAB00F15A53F4DFD256B1327F787E001234B53A
:101FBB0075FF0153E4BFE5E430E7FB123DC27F8AB6
:101FCB0012367A30E6061227AEE4800875FF01124E
:101FDB0027AEE5D9120EB875FF0143E440122FE18D
:101FEB00400343F420123682400122D322F15A439C
:101FFB00FA04E4F5FF53D1FD43D10122C0E0C0F058
:10200B00C083C082C0D075D008C0FF75FF01E5D575
:10201B0030E6047F028009E5D57F0030E7027F01BF
:10202B008F18E5186402600201DDE51412136B20B2
:10203B00530120660220CA08207109207C0A208ADD
:10204B000B20A80C0000222875FF0175C355151A2B
:10205B00E51A60024128751402412875FF0175C30A
:10206B00F0751409412875FF0175C35575140A41A4
:10207B002875FF019006D3E0F5C375140B41287545
:10208B00FF019006C0E0F5C3751401751A14900694
:10209B00E11249F86002412875140C4128AB1CAAC7
:1020AB001DA91E516FAD16AF1FF1C6B16075FF00B4
:1020BB00F1A543FA0475FF0011007514084128C2FD
:1020CB00EB75140043150412394040024128513579
:1020DB004128E518640160024128F1E540024128DE
:1020EB00E510706B5163121255E5D9120EB85157AA
:1020FB00E09007DDF01242AF1238FE9006BFEFF012
:10210B009007DDE0FFD39409500221A99006BFE0B0
:10211B00D39402400CEFD394AA7F0040027F01803E
:10212B000D9007DDE0D394407F0040027F01EF600C
:10213B0002806B9007DDE0F516123DCC90121AEF82
:10214B00F075FF009007DDE0F5D97510034128E528
:10215B00106403600241285163513DE5D9120EB85A
:10216B0075FF009006BFE0C39403E5D350055402FE
:10217B00FF80035401FFEF602A30E111C39006CDBD
:10218B00E094FF9006CCE094FF5013800FC39006B1
:10219B00CFE094FF9006CEE094FF500251351238F9
:1021AB00A8807AC256121D3275FF00F1BDE5D12011
:1021BB00E0FBC2EB431502514FE0FF9003BAE0FE88
:1021CB00EF6EFF851282851183E09003B95148A30E
:1021DB00E09003BB5148A3A3E0FE9003BCE0FDEEEF
:1021EB006D4F6011C39006D1E094FF9006D0E09440
:1021FB00FF50025135C39006CBE094FF9006CAE026
:10220B0094FF500251357510009006BFE0B40307E0
:10221B0015165157E516F09003B8E516F0D0FFD020
:10222B00D0D082D083D0F0D0E032E475F001020F31
:10223B0089FF121255E92401F9E43AFA22FEE0FD76
:10224B00EE6D4FFF851282851183A322E5122407C1
:10225B00F582E43511F5832275FF01F5EA75EAFF86
:10226B009006C322E4F5FFE91248D7EA540F42D691
:10227B002290079012125ED24CC2EBE514600281E1
:10228B00FAE51530E202C322B10324E3F9E43AFA8A
:10229B00E4120EB81239E9B152120FB55407FF9080
:1022AB0006C1F0123898900793EFF0E51520E06F18
:1022BB00D13540057F01121DA4900793E0FF7B01F0
:1022CB007A077994121F76E4337004D2EB81D590A0
:1022DB000793E0249A124B3AE0FF900794E0D39FC8
:1022EB00403DD2EBF1D3A23B92ED9006D2E06015CC
:1022FB00B10324E3F1F3120EB8431504D11879E0BE
:10230B001208C1D3229006E0E070127A0679E07CC5
:10231B002F7DF17464F1ECE4A3F01208C6C322D153
:10232B00355005C256121D32F1BAE5D120E0FBE45F
:10233B00F510B152120FB55407C39403E494005037
:10234B0032B10324B1B14BB10224D8B14B2FFFE40E
:10235B0033FED3EF9440EE648094804016B1032497
:10236B00E3F9E43AFA7402120EB8431504A23B9255
:10237B00EDD322B1032408F9E43ACFE9CFF5118F5D
:10238B0012B10324B1B14BF516AE111248E0B103F3
:10239B0024B2F9E43A8B1CF51D891EB10324D8B184
:1023AB004BF51FB152120FB5FDACF05460602FB15D
:1023BB000324D9B14BFF123912C24CB13BFB7A004B
:1023CB009006E1124B327D18120EECEF2BFFEA3E1A
:1023DB00FEEF2414FBE43EFA7D027F0181C2B15271
:1023EB00120FB554079006C1F0751408B10324B24F
:1023FB00F9E43AFA516FB10324D8B14BFFAD16F1A2
:10240B00C69006C1E0640370227B01FDB10BB1994C
:10241B0050057401120E63E4F5FFF1A5120E1D2495
:10242B0028FBE433FA7D03E4FF81C29006C1E0642C
:10243B00027029B10EB199400574FF120E63E4F5D9
:10244B00FFE5D25480440AF5D2120E1D2414FBE48E
:10245B0033FA7D027F01B1A3B160805DE4FB7D01A6
:10246B00B10BB199400574FF120E63E4F5FFB15245
:10247B00120FB5441045F07F0560027F0AEF547FC1
:10248B00FFE5D254804FF5D2E4F5FF43D280B13B48
:10249B00FD7C00B152120FB5441045F07E00600474
:1024AB007F0A80027F05EF25E0FFEE33FEEF2DFB69
:1024BB00EE3CFA7D017F01B1A3B152120FB5FFAE15
:1024CB00F0A24C924B1237344006A23B92EDC32242
:1024DB00D11879E01208C1900793E0B10224E5F915
:1024EB00E43AFAEF120EB8A23B92EDD2EBD322A252
:1024FB003B92EDD2EBC322FF900790121255E922CB
:10250B00FFB165900790121255E924B1F9E43AFA3C
:10251B00120E1DFF900790121255E924D8F9E43AD8
:10252B00FA120E1D2FFFE433FEEF2401FFE43EFEF3
:10253B00900790121255E924B2F9E43AFAE924070C
:10254B00F9E43AFA020E1D900790121255E9240491
:10255B00F9E43AFA22E4FB7D01FFE4F5FF75D102C1
:10256B00E5D120E0FBE4F5FFF5D1EF6008E4F5FFE2
:10257B0043D2808006E4F5FF53D27FEB6006E4F58F
:10258B00FF43D104ED6006E4F5FF43D10822D39F4E
:10259B00EE6480F8748098229007BFEFF0ED24FE74
:1025AB0060191460262402703BEB2402FFE43AFE10
:1025BB007C007D50120EEC7D60801ED122C333CE89
:1025CB0033CED8F9FF7C007D28800ED122C333CEC9
:1025DB0033CED8F9FF7C007D64120EFE9007C0EE5F
:1025EB00F0A3EFF09007BFE01239DBC083C082127B
:1025FB0012009007C1E02401FF9007C0E03400FEF9
:10260B00E4FCFD121037D082D08302120CE490064A
:10261B00D2F07B017A0622EB2401FFE43AFEEF783D
:10262B000322C2EBA2ED923BC2EDE5F4C330E7010E
:10263B00D322902C26124A5B902C2C1212180000DD
:10264B000001902C307401F0F5FFE5D554C07004F7
:10265B00D1355002C322E4F5FF53967F75FF017508
:10266B00D5047F3FFE1233BA75FF0143D508E4F55D
:10267B00FF5394FBF5FF53847FF5FF7598FF902C68
:10268B002AE5F4F075F49C75FF01A3E5E4F075E41D
:10269B00257B017A2C79301236B4902C30E0640112
:1026AB006002E16AF5FF902C297414F0902C2CF148
:1026BB009AFF78011211B7902C2C12120CE5A7304F
:1026CB00E1FB43A702902C2CF19AFFE5A730E00524
:1026DB00E47B018002E4FBFAF9F8EF4BFFEE4AFED4
:1026EB00ED49FDEC48FC902C2C12120C902C29E09F
:1026FB0014F070B8902C2CF19AFF78101211A47B67
:10270B006D7A4E79C67841121052EF2439FFEE34B0
:10271B0030122E4AFCE4FBFA7901F81210DDEE546C
:10272B007FFEE4FDFC124A6B902C2CF19AFFEB6FB1
:10273B00FFEA6EFEE8CDEFCDCCEECCECFF902C2675
:10274B00F1B1EF120EB8902C26F1B1900001ED1201
:10275B000ECA90120FE030E606E4F5FF7596807511
:10276B00FF01E4F5D5902C2AE0F5F475FF01A3E009
:10277B00F5E412409C902C30E0B40103D38001C3EC
:10278B0022E025E025E02401F582E43412F583E014
:10279B00FCA3E0FDA3E0FEA3E022E5D254804414A9
:1027AB00F5D222902E15E0FBA3E0FAA3E0F922E488
:1027BB00F5FFE5D154FE4402F5D122E4F5FF8FD4A9
:1027CB00F5FFCFEDCF8FD522C39006C9E094FF90D4
:1027DB0006C8E094FF5002513522E5F754C024FFA0
:1027EB00227B01902D46F022F9E43AFA74012290F3
:1027FB0007CBEFF0A3EDF05402901234F0121EC58C
:10280B00EF7002C3229007CBE0B40411A3E0FB7D71
:10281B00017F01113D9007CB7403F080059007CC2D
:10282B0011379007CBE09003B5F0D322E0FB7D018D
:10283B00E4FFEB600875FF0153CDFD800675FF01CA
:10284B0043CD02ED600553FBDF800343FB20EF60BC
:10285B000775FF0243E1402275FF0253E1BF22E4FB
:10286B00FF121DA4EF603611AE12263D500411DA93
:10287B0040F57B017A0379BB12263D500E11E95FBF
:10288B00FFA3E05FFFA3E05FF460E77F01121DA4ED
:10289B007553017E007F0811AE11D311A922740468
:1028AB00F0800A7B017A0379B9227405F0902D2010
:1028BB0012125EE4FCFDC007902D20121255902DD4
:1028CB002311F1D007021473902D23E4F0A322906F
:1028DB0003B9E0C394C02211B874FFFDFC2290032E
:1028EB00B9E0FFA3E022E0FFA3E0902BD6CFF0A34B
:1028FB00EFF022AE07121EF5EE04FEEF8EF084AF62
:10290B00F022E51530E20FE51520E50AE51530E07C
:10291B00057F01121DA4229007E1EFF0E54BC39454
:10292B00204004310D80F5E547C394204003E4F5C6
:10293B0047C2AC3168EF700EE54B700A9007E1E0CF
:10294B00FF12004680129007E1E0FFAE4705477487
:10295B00662E916BEFF0054BD2AC7F0122E5ED5467
:10296B0001FF2230360D12092FEF6007C25D1209ED
:10297B001BC236229003BDE0FCA3E04C700A90030F
:10298B00BDEEF0A3EFF0D322C322902C8D12120CCC
:10299B00902C9112125E1214001216F9EF60043192
:1029AB000D80F612184E7F03121C20600B902C8D9D
:1029BB001211E4781012077F902C8D12077A902C4D
:1029CB008D1207EB902C94917C6010121745902C74
:1029DB00919136902C9212223580E912167DE4FFEC
:1029EB000207DF902E6DE075F005A4242EF9742BF1
:1029FB0035F0FEAF017B017A2A79F3902D697405CE
:102A0B00F0902D6612125EE4FCFDC007902D66124D
:102A1B001255902D69E0FF902C94E4F0A3EFF0D0C9
:102A2B00072195AF017B017A077969902D697402B3
:102A3B00F080CE902AC312120C902AC712125EE4B9
:102A4B00902AECF0D3902ACBE09420902ACAE09401
:102A5B00004001227B017A2A79CC902ACA9186F018
:102A6B00902AC31211E43195902AC7121255E94AE4
:102A7B00600B902AECE0F582716DFF80027F009075
:102A8B002AECE024CCF582E4342AF583E06F600273
:102A9B00C322902AECE004FFF0D3902ACBE09F9066
:102AAB002ACAE0940050C122715D12125EE4902B91
:102ABB00F4F0A304F0902BF1E0FEA3E0FF4E7002C4
:102ACB006157D3EF9420EE940040047F2080069052
:102ADB002BF1A3E0FF902BF3EFF0902BEE1212559E
:102AEB00902BF3E0FF902ACAE4F0A3EFF0902BEACF
:102AFB001211E4513E400E902BF4E0FFA3E0FEEFE9
:102B0B004E902BF4F0902BF3E0FFC3902BF2E09F51
:102B1B00F0902BF1E09400F0902BEA121200902B26
:102B2B00F3E4FCFDFE121037715D121255E94A6099
:102B3B0007902BF3E0FF80027F00902BEFE48FF0E8
:102B4B00120F89902BF5E025E0F041C0902BF4E0BB
:102B5B00FF22902BEA12120C902BEE221212551E12
:102B6B008E82758300020E36902BD3121255902B4A
:102B7B00D8E0FFA3E0902BF1CFF0A3EFF0902BCF99
:102B8B001211E451B3902BDCEFF022902DAC910796
:102B9B00E58F20E0FB910EE4FF902DAC1212558FC8
:102BAB0082716DF5930FEFB410EFE4FF902DAF1220
:102BBB0012558F82716DF5940FEFB410EF22902C9C
:102BCB00B19107E58F20E0FB910E7E10902CB47134
:102BDB0067F593EE70F67E10902CB17167F594EE5D
:102BEB0070F67F01911E9173EF70FB7E10902CB7E6
:102BFB001212551E8E82913DEE70F22212125E75EC
:102C0B00FF012275FF01538F0675FF01538FF0757E
:102C1B00FF0122EFB40107915C4401F58F2275FF90
:102C2B0001E58F54F04406F58F22FF121255EF0287
:102C3B000EB8758300E593020ECA902EC49107E47B
:102C4B00FF902EC41212558F82913D0FEFB410F1ED
:102C5B002275FF01E58F54F622915C4408F58F2213
:102C6B00F582E43406F5832275FF01E58F5401FFED
:102C7B002274FFF5F0120F9F45F022E0FFA3E090C6
:102C8B002C94CFF0A3EF221214001216F9EF60046C
:102C9B00310D80F622C2AC3168EF7004E54B600455
:102CAB007F0180027F00D2AC22C0E0C0F0C083C0A5
:102CBB0082C0D075D000C000C001C002C003C004E8
:102CCB00C005C006C007C0FFB189EF6028120056CF
:102CDB00B148E546C394204003754600E54AC394CA
:102CEB0020500FAE46054674462EB18FEFF0054AC5
:102CFB008003754A20B183EF602312005EE54BD34E
:102D0B0094004019E54994204003754900AF4905EB
:102D1B004974662F916BE0FF120046154BD0FFD024
:102D2B0007D006D005D004D003D002D001D000D0FC
:102D3B00D0D082D083D0F0D0E032120056AFEF2249
:102D4B009003BDE0FEA3E0FF4E6009CAEECAC9EFD7
:102D5B00C912139122D2ADD2BD75FF02758E71755A
:102D6B00540975FF02E58E546F4480F58E902DF853
:102D7B001212180000000022E5ED5402FF22E5EDCF
:102D8B005404FF22F582E43406F58322E548C3940C
:102D9B00204003E4F548AF48054874462FB18FE057
:102DAB00FFC2ACE54AD394004002154AD2AC22C014
:102DBB00E0C0F0C083C082C0D075D008C0FF75FFE3
:102DCB0002E58E30E43A75FF02E58E54EF4410F5C0
:102DDB008E902DF81211E4D144FC902DF812120CA8
:102DEB00900000122235E55430E0020541E55470A5
:102DFB000D7554090550E5507002054F80021554AE
:102E0B0075FF02E58530E40875FF02438510055810
:102E1B00D0FFD0D0D082D083D0F0D0E032FF7E0470
:102E2B00FDFCE0F8A3E0F9A3E0FAA3E0FB121052DB
:102E3B00E47B7DFAF9F81210DDEF2401FFE43EFE8E
:102E4B00E43DFDE43C22902B1512120C75FF02435E
:102E5B00E180123698123621902B2A121218002D6F
:102E6B00C6C0E4F5FFF5A490120EF0A3F0902B254D
:102E7B007402F0F1C8FFF595EF14601414601E2472
:102E8B0002702A902B1512279AF1BB902B218018D8
:102E9B00902B1912279AF1BB902B22800B902B1D94
:102EAB0012279AF1BB902B23E0902B2EF01241CDE1
:102EBB00902B2EE0700FF5FFF59675FF0175D70976
:102ECB0075F418805E90120EE004F0902B25E0F163
:102EDB00E9902B2A12279AFF902B26124279C312C4
:102EEB001193500B902B2612279AFFA312120C90C2
:102EFB002B2EE0FF12404E902B24E0FFA3E0FDA20F
:102F0B0054925212417BA312279AFF902DBD12129D
:102F1B000C902B25E0FF1241DA902B2512278CFF0A
:102F2B00123644F1D06002C17E7402F0F1C8F595FF
:102F3B00E5F454077018902B2AD128F1C2902B2559
:102F4B0012426912120CEB12278DFF123644F1D08C
:102F5B0070DA75FF03759580F1E1400343F420A20D
:102F6B005492531240AD902B2A12279A2420FFEE35
:102F7B00344ED14AFCE4FB7A04F9F8D138F1C2C2E1
:102F8B005112350DE4F5FFE5BD54F84404F5BD9041
:102F9B0012137401F07E127F01E4FD8F828E83EF9A
:102FAB002DF1D9FC901213E02CF00DEDB412EC22A4
:102FBB00FF902B2602120CFC78010211A475FF0363
:102FCB00902B25E022902B25E0FF14F0EF22F582C9
:102FDB00E43EF583E02290120EE0D39401223333CA
:102FEB003354F8F5F422E49006E0F09006D204F0A6
:102FFB0022122635500712300A50028001C322E5F7
:10300B00F754E024FF22AF14EFC36001D322EFC3C8
:10301B00940E50059006C2EFF022E517540FFF22D5
:10302B00E517C394F0501F5317F01154FE740FC3E0
:10303B009F4005EE940E400543170D8003EF42179A
:10304B00E517540FFF227F0022E517C4540FFEEF44
:10305B009004D9932E221154FFC3940E40027F0D7E
:10306B00EF9004BB93FF22EF30E303AF1322AD1BB2
:10307B00203C04EE30E00BE517C394F0502011AC6C
:10308B008018E5196006FDE4F5198012E517C39465
:10309B00F0500BE517540FFF60041161AD07AF053E
:1030AB00229006C2E0FDFFC3740E11D4EFC4F85496
:1030BB000FC868FFEEC454F048FEE51754F0C31276
:1030CB00259A7F005002AF05229FFFE49400FE2259
:1030DB00902E10EDF0901211E0F46005A3E0B4FF18
:1030EB000C902E127418F0A37413F0801090121120
:1030FB00E0902E12F0901212E0902E13F0120E1D93
:10310B00640160024146902E10E0FE64086004EEFC
:10311B00B40408902E117428F08006902E11743A86
:10312B00F0EF12278DFF12116FE45147EF24D8FFF8
:10313B00EE343FFEED3493FDEC3416FC7B007A80CD
:10314B00790378001203AC124A6B902E13E0FF90B8
:10315B002E12E0C311D4E4FCFD121052ECC0E0EDD2
:10316B00C0E0EEC0E0EFC0E0902E13E0FFE4FCFD0A
:10317B00FE5147D0E0FBD0E0FAD0E0F9D0E0F8EB1D
:10318B002FFBEA3EFAE93DF9E83CF8902E11E0FFFF
:10319B00E4FCFDFE121052EF2454FFEE340B122E02
:1031AB004AFCE47BA87A16F9F81203ACCBEFCB9070
:1031BB002E10E014605D14601B24FE600C24FC7068
:1031CB007AE4F5FF75CE318006E4F5FF75CE21F577
:1031DB00FF8BCF22E4FAE4F5FFEA2440F5CEE4F5C9
:1031EB00FFEAFFC3740711D474392FF58274053EBF
:1031FB00F583E4514FC39DF5CFE4F5FFEA2448F581
:10320B00CEE4F5FFEA900539514F2DF5CF0AEAB41C
:10321B0008C422E4F5FF75CE01F5FF8BCFF5FF75E2
:10322B00CE0EF5FFEB25E0F5CFE4F5FF75CE0FF5F0
:10323B00FFCFEBCFEB75F003A4F5CF227B64FAF94C
:10324B00F80210529325E0FDE433FCEB75F010A46B
:10325B00FFAEF0120EFECDEFCDEBFFE4C313EF1379
:10326B0022902D1712436AEBF0902D1D7401F0C2C2
:10327B00557FE87E03121F00121F405005E5FC200E
:10328B00E6F67186BF0108E4F5FC75FC408007711A
:10329B0086BF0202D32275FF0153D8EF902D18E0A1
:1032AB00FF12428575FF0153D5DF53FAFB902D17A3
:1032BB00E0FF121F5A902D18E0902D17B4080B1237
:1032CB00278C2452122E47FC800412278CFFD144EA
:1032DB00902D19E0FFF1CD75FF0175FF03759B0470
:1032EB00121F09121F0275FC42E5FC20E105121F9B
:1032FB004040F3902D1AE0F075FF03E59B20E705A6
:10330B00121F4040F3E59B20E70C75FF03759B1FD5
:10331B00D198D255804B717FD1B4902D18E0FD9090
:10332B00120FE05D701C902D17E0FF717F11DB9089
:10333B00120FE0FF902D18E0FEEF4E90120FF012DF
:10334B002F9A91F27B017A2D791BD10C500FC390E0
:10335B002D1CE09420902D1BE0940340E7717FF12E
:10336B007571BF3055024174902D1DE0B40103D32C
:10337B008001C3227B017A2D791D227FFA7E007199
:10338B00C8121F02E5FC30E605121F4040F6E5FCB3
:10339B0030E6037F032275FF01E5D530E6037F029C
:1033AB0022E5D57F0030E7027F01227F147E00717A
:1033BB00C8121F0275FF03E59120E7FB2275FF037F
:1033CB00D3EF9402EE9400400874FE2FFF74FF3E7F
:1033DB00FEEFF592EE540FF59122E4902E0CF0A334
:1033EB0004F0E4902E0FF0E5FA30E1FB75FF01E5F8
:1033FB00D530E7037F0022E4F5FF75E50875FF0183
:10340B0053D8EFE5D530E61A75FF01902E0EE5DAAD
:10341B00F0E4F5DA75FF01E5D630E3FB902E0F747F
:10342B0001F075FF03759B0475FC4175FF03E59B6C
:10343B0030E7FBE4FB75FF038B95EB12278DFFD178
:10344B00440BEBB403EF75FF03759580E4F5FF7543
:10345B008EC891F275FF0153D5FBB1F971B675FFAB
:10346B000143D504902E0FE07006B1F97FC871B8F7
:10347B007B017A2E790DF175902E0DE0902E0C704C
:10348B0006E04404FF8002E0FF902E0CEFF0901258
:10349B000EE0B4010675FF0143D81075FF01902EA5
:1034AB000EE0F5DA902E0CE0FF22CDEFCDCCEECC7A
:1034BB00D100AB94EF4BD172CBEFCBFAE59130E768
:1034CB0018D103A994E9F582EF4582FFEBF1E9C32B
:1034DB00EF9582E5F0958340E3E59120E708CEEC8C
:1034EB00CECFEDCF71BA22E4F5FF75C2E17F1ED1CD
:1034FB007A30E707E4F5FF75C2A122E4F5FF75C248
:10350B008122902B7912120CE4F5FF75BB0575BB6C
:10351B008575FF0175D5022051077F3FFE71BA916A
:10352B00F275FF0143D520305102A1D3E4F5FF53CF
:10353B008EF7438E077D04E4F5FF8DBCF5FF43B199
:10354B0002E5B130E2FBE4F5FFAFDFEFFEACDEEC02
:10355B00FBEBFFED25E02477F582E4342BF1E1E47E
:10356B00F5FFF5FF53B1FD0DEDB40CCB902B79129C
:10357B00279AFF78091211A4A3EEF0A3EFF0E4FD54
:10358B00ED25E02481F582E4342BF583E0C313FAB7
:10359B00A3E013FBEDB1EDF1F12BFFEE3AFEEDB134
:1035AB00EDEEF0A3EFF0ED240490120DF0EDC394CB
:1035BB00075015CFEDCF0DEFB1EDF1D3902B7EE092
:1035CB009F902B7DE09E50B8E4F5FF758EC8F5FFFC
:1035DB0090120DE0F5BCE4F5FF75BB8075FF01F5AE
:1035EB00D52225E0247FF582E4342BF5832275FF69
:1035FB0003E4F5912275FF03AF93EF75F010A4FF71
:10360B0022D100AD94EF4DD1728FF0121018E591CD
:10361B00C330E701D322D13A53DB7F75FF0175D558
:10362B000271B6D13A43DB8075FF01E4F5D5227503
:10363B00FF01438E1075FF0122902E0812120C759C
:10364B00FF01902E08A3E0FDA3A3124AA88FE190DF
:10365B002E08A3A3E0FEA3124A9E8FE2902E08A38E
:10366B00A3A3E0FF8FE32224FBFFE5F034FF22FE50
:10367B0091B590120FE022E5F730E50FE5F754C056
:10368B007005121F4040F0B1F9C322D322E5FA3086
:10369B00E1FB75FC8075FF0153D5EFE4F5FC75FC80
:1036AB0040B1F9E5FC20E6FB22902E64124A5B7FC9
:1036BB00017C127D01E4FE8D828C83ED2EF582E47C
:1036CB003CF583E02FFF0EEEB412EC901213E06F7B
:1036DB00600A902E641227B1E4120EB8229007BD37
:1036EB00EFF09006C1E0FF1238989007BEEFF09014
:1036FB0006C1E024FD60130470089007BC7404F04D
:10370B00800E9007BC7408F080069007BC7402F022
:10371B007F01120D219007BEE09007BCF1DAE49017
:10372B002D1AF0516C50EED3224315015315DF11B6
:10373B0072D1E84004E4F5142243FA045315FB302C
:10374B004B05121FFD800A7F55F15E7F55F15ED24E
:10375B00EBD32275FF01E5D520E602C322E5FA542F
:10376B000360FA75FF018FC3D322C25075FF037537
:10377B009B1F75FF0390120FE020E71BE59A540F78
:10378B00C394024012E04480F0E4F5FF75C2A143FC
:10379B00FC0475FF03D250E5FC30E609E59A540FA3
:1037AB00C3940540CDE5FC30E611E4120EB875FC70
:1037BB0080F5FC75FC40E5FC20E6FB305003122F36
:1037CB009A2275FF018FDA22E0FEA3E0FFC322FFEE
:1037DB00E0FDA3E0FB22F583EEF0A3EFF0222DF545
:1037EB0082EA3CF58322E0C313FEA3E0132290038D
:1037FB00C1E0B4020D8F1B900775E0F513120B237C
:10380B00D322C3229007B912125E9007B912125538
:10381B00E51B114712223DE411471156F9E43AFA20
:10382B00E41147121255114EE5131147122555E4B9
:10383B001147115DF9E43AFAE4020EB8120EB89092
:10384B0007B922E92403F9E43AFA22121255E924C2
:10385B000222121255E9240522E51754F0C4540F25
:10386B002FFFC3941040027F0FEF9004C993FF22E8
:10387B007E10EE60091EEE9004C993B507F4EEC3FB
:10388B00940E40027E0DEE9004BB93FF22EF24FDBD
:10389B00600680007E018002E4FEAF0622C2561253
:1038AB001D321227BAE5D120E0FBE4F5FF75D908EC
:1038BB009006BFE07F00B403027F01121FF8D256BF
:1038CB00121D32E4F51022E4F514021D76C2AFEF9F
:1038DB004215D2AF22C2AFEFF45215D2AF227F0204
:1038EB0011E09003B7E09003C0F09003B704F0C36E
:1038FB00940222EF24FE600C24FE600580007F0101
:10390B00227F02227F0322751401751A139006D3AE
:10391B00EFF09006C17402F0ED9006E130E507E49C
:10392B00F0A3743AF022E4F0A374E6F02231405095
:10393B000312223522C39006C7E094FF9006C6E01F
:10394B0094FF229006E1E0A3E0FF2290079512126C
:10395B005E900798EDF0E4A3F0ED54FE900798F01D
:10396B00602BE4FF121DA4BF012390079512125583
:10397B0012263D501890079631A3900799E0240228
:10398B00F0900799E0FF900798E06F70DD7F0112D0
:10399B001DA4900799E0FF22E475F002020F897DC8
:1039AB00023156EFC36001D322E49006D431C990A3
:1039BB0006D831C9FFFEFDFC9006DC02120CFFFE9F
:1039CB00FDFC12120CE422EF31DB1211E40211CADE
:1039DB0025E025E024D4F582E43406F58322900318
:1039EB00B9E0F4FFA3E06FFFA3E06FFFA3E06FFF6D
:1039FB0064556009EF644A6004EFB40A010F900646
:103A0B00C0EFF022A2EB924DC2EB7A0679C67B0196
:103A1B007D0CE4FF120858A24D92EB22A2EB924EC2
:103A2B00C2EBEBC0E0EAC0E0E9C0E07B017A0679CB
:103A3B00C65154D0E0F9D0E0FAD0E0FB7F0C12086D
:103A4B0085A24E92EB22121255902D3002125E90EF
:103A5B002DFC12125E91AA51AF120E1D902DFFF08C
:103A6B00902DFC51517B0191C8902DFFE0B40119B1
:103A7B0051AFE9240112254B902B96F074FE120ED8
:103A8B00B8902B957405F08015902DFFE0FF640620
:103A9B006004EFB4070D902B95E0600251B551AF68
:103AAB00120D0822902DFC0212557401F0902B95EB
:103ABB00E0640270207C3A7D5A7F011209C57E3B7F
:103ACB007F25C006C007E47FD07E07FDFC91EDD0BB
:103ADB0007D00681BF902B95E064037018FFFE1290
:103AEB001ED0902B99E07C3A7D5AB402047F038060
:103AFB00117F02800D902B95E0B4040B7C3A7D5A1C
:103B0B007F041209C58013902B95E0B4010B91B87B
:103B1B0091AA71D1E4902B95F02291AA902B95E06C
:103B2B00B4020A91B8902B957403F08080902B957A
:103B3B00E06403707A902B97E06057902B99E0B478
:103B4B000105120B0A800A902B99E0B40203120BA9
:103B5B000F902B97E014F0E06020121EF5EF75F03C
:103B6B004684E5F075F064A4FFEF24A0FFE5F03484
:103B7B000FFEE433FDE433FC8007E47FA07E0FFDF2
:103B8B00FC902CCC12120C7E3B7F25E4902CD0F0B9
:103B9B0081BF902B957401F051B8902B9C74FDF064
:103BAB00902B9B7407F07B017A2B799B020D08906D
:103BBB002B95E0B4040F91D1EF6007B100E4FF0245
:103BCB001DC5120B0A22901215E05403F022902D02
:103BDB0009EFF0C24F120A9CEF542364206023902C
:103BEB002B95E0601D7B017A2D790A515491C89079
:103BFB002D0A7406F0A3E553F07B017A2D790A1296
:103C0B000D08902D09E0607D91A1E0600251B59007
:103C1B002D09E0FFB40107902B9974018009EFB4D3
:103C2B000310902B997402F071D1902B977404F0C0
:103C3B00804BEF64047038120A9CEF5423FFBF20B3
:103C4B0013D24F91E1EF700471D191D9902B9574F0
:103C5B0004F08035120A9CEF5432FFBF020C900324
:103C6B00B6E0B40505E4F0120B0571D17F0022908C
:103C7B002D09E0B40213E4902B97F071D1902B95A2
:103C8B007402F0800491A104F051B8902B95E07F61
:103C9B000060027F0122E4902B99F0902B952290EB
:103CAB002B9AE0FF1208ADE4902B9AF022E4FDFC76
:103CBB00FF0209C51208B2902B9AEFF0227A2B79EA
:103CCB009B7F06020885901215E05408FF22901284
:103CDB0015E04404F022901215E07F0030E2027FE1
:103CEB000122902CCC12120CE4902CD0F022902DAF
:103CFB0023F0A3CEF07B007A00790022C003C00230
:103D0B00C0017B017A2D79045154D001D002D0032C
:103D1B007F02020885123386EF64017065B1CC9087
:103D2B002EC7EFF0D394025059902D08E0FF902E40
:103D3B00C7E06F704DB18E902EC8EFF07B017A2EDD
:103D4B0079C87D01120BE1902EC7E02404F582E4C3
:103D5B00342DF583EFF0902D08E0045401F0702220
:103D6B00902D06E07002A3E060187B017A2D79029A
:103D7B00B1077B017A2D7902902D06B1BA8E831291
:103D8B00139522E4FFE5F754C06002801675FF011E
:103D9B00E5D530E30DB1B350F4B1AEEF60EFB1B395
:103DAB0050EB22B1C2AFD92275FF01E5E43322E01B
:103DBB00FEA3E0FFF5822275FF01E4F5EA75EAFF49
:103DCB0022E5F45418131313541FFF2291D1EF6003
:103DDB0010E47FA07E0F121ED0901215E054E7F076
:103DEB0022901215E0FF74E0D39F4005E02410F001
:103DFB0022EF6410901215F022E54064066006E590
:103E0B00406407702F902B8FE06003F47026E4FD65
:103E1B00FC7F01120ADD7E3E7F40C006C0077F5843
:103E2B007E807D047C0091EDD007D0061208B29005
:103E3B002B8FEFF022D14480C0902B8FE0FF120824
:103E4B00ADE4902B8FF022902D06EEF0A3EFF02235
:103E5B00901215E05414FFBF14047F0180027F0001
:103E6B0022901215E07F0030E0027F0122902B950B
:103E7B00E0B4040D902B9AE06007D16CEF7002FF59
:103E8B0022902B95E0FF22901215E0C4135407FFEC
:103E9B00229026D9E070087B017A2679D1D1BE9089
:103EAB0026D9E044C0F09026DCD1C59026E0E05442
:103EBB00FEF0227D107F23020B69E054FEF0A3E09D
:103ECB0044C0F0227405D39F500B7463C39F40050D
:103EDB00902B98EFF0902B98E0FF22902EF5EFF0BF
:103EEB00BF0204E4FF8009902EF5E0B403057F01C7
:103EFB00121C8922902E0012120CF13DE47BFFF173
:103F0B0043501CE4F13C1210DD90121612120CE41B
:103F1B007BFFFAF9F13C1210DD90121CEBF02290B2
:103F2B00121612121800000000F13D90121CEFF057
:103F3B0022F8902E000211E4FAF9F8C302119390C3
:103F4B002DB712120C902DBBE05402901234F0904E
:103F5B002DB71211E4809DEF7011ED600775FF0115
:103F6B0043AE012275FF0153AEFE22EFB401149054
:103F7B001235EDF0600775FF0143AE022275FF01AC
:103F8B0053AEFD2275FF02E5E630E2037F0322E527
:103F9B00E630E3037F0022E5E630E1037F0422E510
:103FAB00E67F0530E0027F0122EF600775FF0253C9
:103FBB00E6BF2275FF0243E64022EF14600F146048
:103FCB0014240270188B8075FF018DFD228B907568
:103FDB00FF018DC9228BA075FF018DCA22AF038F04
:103FEB00B075FF01AF058FCB22902D1112125EEF32
:103FFB0014601314601A24027020124030E58012F2
:10400B004036E5FD801C1130E5901136E5C9801274
:10401B001130E5A01136E5CA80081130E5B0113634
:10402B00E5CB020EB8902D14021255120EB875FF87
:10403B0001902D11021255E4F5FFAF9122E4F5FF2B
:10404B00AF9222EF30E00E43F401E4F5FF43A404FA
:10405B00F5FF759624EF30E10E43F401E4F5FF43D1
:10406B00A408F5FF759624EF30E20943F402E4F55A
:10407B00FF75961EEF30E30943F404E4F5FF7596E4
:10408B001075FF01EF5403600475D7122275D72DFD
:10409B0022E4F5FF7584E6F5FF439404F5FF75986C
:1040AB001422E4F5FF75933F75FF03759A40119C3D
:1040BB00E4F5FF759C93F5FF75A1A3F5FF758531AD
:1040CB00F5FF758628E5FA54304480F5FA75FF0143
:1040DB0075E74A75FF0275DF4975FF0143D3047518
:1040EB00FF0153D367E4F5FF53E6BF75FF0175D8A6
:1040FB0025F5FF75B503F5FF75B215F5FF75BA021A
:10410B00F5FF75AFB3F5FF75CD0AF5FF75CB08F568
:10411B00FF75CA12F5FF75BF0EF5FF75CC96F5FF4F
:10412B00F5BDF5FF75C281F5FF75AEE1F5FF75DAEB
:10413B0055F5FF75F580F5FF75E903F5FF75E93367
:10414B00F5FF75972A75FF01759B42759CA4759DAC
:10415B0029759E48759F2475A11275A312759AF83F
:10416B0020530CF5FF43968090120FE04440F02251
:10417B00CCEFCCCFEDCF74017E00C8EFC808800523
:10418B00C333CE33CED8F9FFCDECCDEF5D601B3012
:10419B00521875FF0175DCAD75FF0175DDCDE4F5CA
:1041AB00FF759A74F5FF7594842275FF0175DC53C6
:1041BB0075FF0175DD33E4F5FF759A14F5FF759402
:1041CB00042275FF0175E46575FF0175D6472290D2
:1041DB002DBCEFF0E4A3122E28122FC2902DBC5150
:1041EB006912120C901210E064806071E0C3947F2E
:1041FB005039EB516BC083C08212279AFFEEC0E09F
:10420B00EFC0E0901210E075F004A4AEF0FBCAEE24
:10421B00CAEA3395E0F9F8D0E0FFD0E0FEC3EF9B9C
:10422B00FFEE9AFEED99FDEC98802A902DBCE051A3
:10423B006BC083C0825179901210E0F40475F004C6
:10424B00A4FFAEF0EE3395E0FDFCEB2FFFEA3EFE54
:10425B00E93DFDE83CFCD082D08312120C22E0FB3E
:10426B0025E025E02401F582E43412F58322E0F801
:10427B00A3E0F9A3E0FAA3E0FB2275FF01E5D5303B
:10428B00E602C32253FACFEFB4080543FA3080128B
:10429B00EFB4040543FA208009EFB4020543FA108A
:1042AB008000D322E5F75406FFBF06037F0822E503
:1042BB00F75406FFBF04037F0422E5F75406FFBF44
:1042CB0002037F02227F0122902E187167EBF0719F
:1042DB0050AC00AD01AE02AF03C006C007902E1864
:1042EB001237F1FBAA06E4F9F8D007D006D3121166
:1042FB007D7E0050047F0180027F00C006C00771E5
:10430B0050D0E02FFFD0E03E902E18F0A3EFF053EB
:10431B00ECFC902E18E0FCA3E0FDEC540342EC7592
:10432B00FF02EDF5AF75ED0275ED04A3E0600543FB
:10433B00EC08800353ECF7902E1BE0600443EC0475
:10434B002253ECFB22902E18E0FEA3E0FBAA06E41E
:10435B00F9F87F807E387D01FC0203ACEEF0A3EF11
:10436B00F0A3EDF0A322902C0E716AEBF07F0212FA
:10437B000B41902C1712125EEA494B606D902C0F7B
:10438B00E0FF71F824B6F9E43AFAEF120EB8E490B4
:10439B00069FF090068E1212559131EF6014902CFF
:1043AB000EE04442F071F824D9F9E43AFA74FF12A2
:1043BB000EB8902C10E0FF30E11E71F8B16774FF5E
:1043CB00120EB8EF54FC902C10F0FE902C7CE054A5
:1043DB00FDF091007D01800C902C10E054FEF0FE5E
:1043EB0091007D02120BAF7F01227F0022902C17D0
:1043FB00121255E922902C0EE0FF902C14E090073E
:10440B0026F0A3EEF0902C15E0FDA3E0900728CD4D
:10441B00F0A3EDF0902C1712125590072A12125E92
:10442B00902C11021255902DF312125EE4902DF682
:10443B00F0A3F0902DF6E0902DF3B16E902DF6EFEA
:10444B00F0600B9163EF6006902DF7E004F0902D78
:10445B00F6E070DFA3E0FF22E0FFC262020A4C909D
:10446B002C1B12125E902C1AEFF0FE902C2574036D
:10447B00F0902C22E05437F0E0FF5420902C7EF08B
:10448B00902C7DEEF0902C23E0FDA3E0902C7ACDC8
:10449B00F0A3EDF0902C1E121255902C8112125E8F
:1044AB00902C21E0902C7FF0902C1B121255900633
:1044BB008E12125EEF4420902C7CF0E4902C80F056
:1044CB00C22BF54C902C1B121255AF4C1208DA8FE5
:1044DB004CEF602A7D03120AC940E9902C21E0D3EE
:1044EB00941940037F0022AF4C120AC45008902C41
:1044FB00257401F08008902C257402F080C6902C56
:10450B0021E0FED3948240037F0022902C22E0FB1B
:10451B00902C2530E010B153C003B15B902C14EEFE
:10452B00B175D0038020B153B15B902C21E0902C5E
:10453B0014F0902C7AE0FBA3E0902C15CBF0A3EBBE
:10454B00F0902C22E0FB6171E0FF902C1AE0FD2231
:10455B00902C1E121255902C1102125E24BAF9E403
:10456B003AFA22FF1212550208DAF0A37445F0A3AF
:10457B00747FF022EF6004902C80F090069FE09007
:10458B00068EB16E90069FEFF06051202B4E902C53
:10459B007EE0C330E501D3922E902C7DE0FD902C74
:1045AB008112125590070812125E902C7FE0900733
:1045BB000BF0902C7CE090070CF0A37480B17590FD
:1045CB00069FB1F4EF7021902C807402F0902C7A3E
:1045DB00E0FEA3E0F5828E837F028009902C80E0C1
:1045EB00902C7AB1FB12139522E0FBE4FF020BB97E
:1045FB00FFE0FCA3E0FDF5828C8322C2ACE4F54B1B
:10460B00F54AF549F547F548F5467B017D0151D350
:10461B00D2AC22902C4812125E902C47EFF0120A6B
:10462B00A64006902C47E553F0902C47E0FF902CCA
:10463B004B121255902C1E12125E902C4EE0902CA9
:10464B0021F0902C4FE0902C22F0902C50E0FDA309
:10465B00E0902C23CDF0A3EDF0902C481212558155
:10466B006AEF600775FF0243E6102275FF0253E6FF
:10467B00EF22E5ED30E2FB75ED04AFEF22E5ED2027
:10468B00E0FB8FEF22EF600443EC042253ECFB22A0
:10469B00EF600443EC082253ECF722902BB1E0209F
:1046AB00E01712184E7F3D1207837F2A1207837F74
:1046BB00801207837FA61207D822902BB3E0120E2D
:1046CB00B8902BB8E0900001120ECA902BB9E09075
:1046DB000002020ECA7B017A2B79B67D017F031291
:1046EB000B697A2B79BF7F08124A977A2B79BC7F9B
:1046FB0009124B697A2B79BA7F0B124B69902BBA43
:10470B00E0FEA3E0FF4E6006BEFF18BFFF15124B85
:10471B001950028005124AE38009902BBAE4F0A3EA
:10472B007440F0124B1950028008902BB77403F0B1
:10473B008006902BB77402F0902BB6E012136B47E8
:10474B006604477114477915478117479730479F80
:10475B003447A73647AF370000478C75FF015338F6
:10476B00EF8538FD804775FF015339EF800E75FFDC
:10477B00015339DF800675FF0153397F8539C980B5
:10478B002C75FF01533ADF853ACA802175FF01531F
:10479B003BFE801675FF01533BEF800E75FF0153F7
:1047AB003BBF800675FF01533B7F853BCB12167DCC
:1047BB007F1112493EE4FF1218DF121752902BB4EF
:1047CB007402F0902BB8E0247F600A047018124931
:1047DB0044740A8007D1A61249447458F0902BB741
:1047EB007403F0124AE3902BB9E0F460030248948F
:1047FB00902BBCE0FEA3E0FF64104E7006902BB92B
:10480B00740EF0EF64204E7006902BB9740FF0EF1E
:10481B0064404E7006902BB97410F0EF64804E70AC
:10482B0006902BB97411F0E4B5070AEEB4010690AB
:10483B002BB97412F0E4B5070AEEB40206902BB94B
:10484B007413F0E4B5070AEEB40406902BB9741494
:10485B00F0E4B5070AEEB40806902BB97415F0E432
:10486B00B5070AEEB41006902BB97416F0E4B50731
:10487B000AEEB42006902BB97417F0E4B5070AEED4
:10488B00B44006902BB97418F00218B27E267FAA9A
:10489B00E4FDAB05E4FCFD902DCAEBF002078B9019
:1048AB002BB5E0FF22E4902BB5F022E4F5FF75D198
:1048BB0002E5D120E0FBE4F5D1F5FFEF11D7EE5483
:1048CB000F42D6E4F5FFCFEDCF8FD422F5D7E4F529
:1048DB00FF53D6F022E4F5FFEFF5D8E4F5FF53D6FE
:1048EB000FEE540FC4F854F0C8E4C4540F4842D62A
:1048FB0022E4F5FF8FD422E4F5FFE5D154013333E5
:10490B003354F8FFE4F5FFE5D354074FFF22EFB420
:10491B000109D2AD75FF0143AE4022C2AD75FF0157
:10492B0053AEBF22E5C85402FF75C80222E5C85436
:10493B0001FF22EF4420F5FE227F10313E902BB475
:10494B0022E4FF3034037402FF22200005D216024A
:10495B0009FCC322C2ACC37420954BFFD2AC2275A9
:10496B00FF01E58F5408FF22EFB4010775FF0143E8
:10497B00AE202275FF0153AEDF22EFB4010775FFA6
:10498B00014391202275FF015391DF22FF9005DC3B
:10499B00121255E92212125E902B70E0540F22C2B4
:1049AB000A7B007A007953902D6D12125E0B7A03FD
:1049BB0079B9229003C0E0FD75F0AA9003C50212ED
:1049CB00492408F9E43AFA22FDEF4DFFE5F08FF0A8
:1049DB00021018EFF0A302125E121255E924BDF972
:1049EB00E43AFA22F0E4A3F0A3F0A3F02274FFF56B
:1049FB00F0120F8945F0222FF9EE3AFA902BDAE0FC
:104A0B00FFA3E0902C8BCFF0A3EF22121255E924D9
:104A1B0004229003C2E0FEA3E0FF1208BCD3EF9484
:104A2B00C8EE940022D22D7B017A067988222407C6
:104A3B00F9E43AFA22900758F0A3EFF022F07B0149
:104A4B007A27798322E090070BF0A3EFF0E4A322FF
:104A5B00EBF0A3EAF0A3E9F0227A0679BB7F0422FC
:104A6B00C8ECC8C9EDC9CAEECACBEFCB22E924FF0B
:104A7B00F9EA34FF22C3E99FF9EA9EFA22F0A3ED8B
:104A8B00F0E4A3F0228D828C830213957B017D01D0
:104A9B00020B69E4FFE4FDFC78080211A4E4FFFEBD
:104AAB00E4FC78100211A4F090286B7401F022241E
:104ABB002DF9E43AFA7D04E422121255E924B722C7
:104ACB00240CF9E43AFA2275F005A424F3F97400E6
:104ADB0022121255E9240622902BBA7401F0A3E49A
:104AEB00F0222FF9EA3EFA020E1D242CF9E43AFAD1
:104AFB007440227B017A2D79B57F0222F9E43AFAD0
:104B0B00121273E922902D8CECF0A3EDF022902B76
:104B1B00BFE024FE24FD22FFAEF054076403227491
:104B2B0038F0A37443F022E0FEA3E0FF7C0022F5F3
:104B3B0082E43406F58322FF54F0C4540FFE227432
:104B4B0001F0AE04AF0522AA06A907021391AF0329
:104B5B00EAF0A3EFF022F0902BB1E0FFF4227B01FF
:0D4B6B007D02020B69902EF7E014F0E022AD
:107F7E000200022B332FED020602022FEF302300F8
:107F8E0039040601023028382A080705060102388E
:087F9E002F383D0013FF06011E
:107FB000FFFF161616FFFFFF7FC60000000000003F
:067FC000000003080000B0
:108000007B01E4FFAE051DEE6009EF120EB812DF32
:10801000C680F122902E401249DE912F11F54AC3FD
:108020006001D3400201F312F6D95019E0FF940425
:10803000500280027F0411F51249E8D1CE7B017A0B
:108040002B795871AD902B49122555D1DD11F424AF
:10805000DF5129902B5711F424E65129902B5D1103
:10806000F424E75129902B5E11F424E85129902B38
:108070005F11F424E45129902B5511F424E5512982
:10808000902B5611F424E971A312F983F0902B4937
:108090001212559152E4902B4C11F471A145F060ED
:1080A00049902E40E06027A3121255D1CE7A2B7949
:1080B00050D1D79143C003C002C00111F571A1F5A1
:1080C0008285F083D001D002D003E4FF8019914370
:1080D000C003C002C00111F571A1F58285F083D003
:1080E00001D002D0037F01121395123D00902B495D
:1080F00012125E22F0902B49121255E9229007C20B
:1081000012125E9007C2B15C540F120EB89007C2F3
:10811000121255E924E61227F3020E63E0FF9028BD
:108120006BE0FD902EE9EFF0ED24FE602114602C51
:1081300014602E240370301299BF54386410600A02
:10814000902EE9E0FF1299E55002D322C322129942
:10815000BF5438FFBF1003D38001C32212F991131B
:108160002212F991A2E122C322902B4912125EE958
:1081700024E351296019E4902B60F0902B491222DE
:108180003D7401120EB87E0B7F2DFD7C00807C11AA
:10819000F524015129D39401403B120BAA902B6086
:1081A000EFF07E0B7F2D11F524B7512930E719111F
:1081B000F524BB512920E01011F524BC512912F9F6
:1081C000F0B504047D07800911F524B1512912FA94
:1081D000407C008036E4902B60F07E0B7F2D11F503
:1081E00024B7512930E71911F524BB512920E0109B
:1081F00011F524BC512912F9F0B504047D0780095A
:1082000011F524B1512912FA407C00020BA5AE05EC
:108210008E5612BA17AD5612A743EF24FF22C21989
:10822000902BC2121255E92402F9E43AFA020E1D0B
:10823000902E4412125EE94AC36001D34002610BE2
:10824000902E44512330E017710DE924B751295481
:108250000FFFBF0503D38001C34004710D21699155
:108260002F710D12F6D95019E0FF940450028002CC
:108270007F04710D1249E7D1CE7B017A2B795871B9
:10828000AD902E44122555D1DD710CE924DF512922
:10829000902B57710CE924E65129902B5D710CE964
:1082A00024E75129902B5E710CE924E85129902B89
:1082B0005F710CE924E45129902B55710CE924E5F8
:1082C0005129902B56710CE924E971A312F983719D
:1082D0000CE924E35129902E477003F080037401C8
:1082E000F0719A45F06020902E47E0FF9143C00363
:1082F000C002C001719AFDACF0F58285F083D00117
:10830000D002D003121395710D915222F0902E4499
:1083100002125511F54AC36001D3507D902B4912CA
:10832000223D74FF120E63120E1DFFD3940140070D
:10833000EF94035002805211F52401512964017019
:1083400050902B49122555120FB5124B22703A113D
:10835000F524B651296553703011F524B751292001
:10836000E72711F524B95129D39440501C200D1949
:10837000902B49122555EF54F84402FFD1B811F55E
:1083800024B751294410120EB8902B4912125501EE
:10839000FDE4902B4CF0120BBE22902E441212558D
:1083A000E924DCF9E43AFA020FB57A2719902D2D69
:1083B00012125EAE071FEE601E902D30B15CFE9073
:1083C0002D2D121255EE120EB8902D2E1222359030
:1083D0002D3112223580DC22EF6005D394E8400372
:1083E0007F0022EF75F005A424F6F974000207302F
:1083F0000216F9902D6A12125E7E007F1412073564
:10840000902D6D122C36902D6DB15C701004120EF3
:10841000B8914AE94A60177E007F08800A914AE9CC
:108420004A600B7E007F10914A740412CF9C229107
:10843000437D13E4FF11047B017A2B79507D057F86
:108440007F01047B017A2B794D22902D6A0212550F
:1084500001FDE4020EB8902E6712125E7E007F14BA
:1084600012489D7E007F10902E6712125512BB6439
:108470001228A97F01229027DDE0FFEF6011D3943D
:10848000E8500C12C3F6AD0712A743EF24FF22C336
:1084900022E5436002A14FB153E92404512930E69B
:1084A0001C9005D912A31DF9E43AFAE475F06412A0
:1084B0001018B1537406120EB8C22C8045B153E99E
:1084C000240551294420FFB153E92429F9E43AFA5B
:1084D000EFB150E9124AF5B150E9124ABAFF11045E
:1084E000B1537405B150E92404512930E3067E03E9
:1084F0007FE880047E077FD09005D912A31DD1B4F8
:10850000D22C9005D95123FFB153E924035129FD01
:10851000B153E912F9C1C003C002C001B153E9244B
:10852000065129900733F0B153E92404512954F737
:10853000900734F0A3740AF0A374E7F0D001D002DE
:10854000D003120BB4EF7007B1537407120EB822A8
:10855000120EB89005D9021255902EA01212550293
:108560000E1D902D3412125EAE071FEE601F902D6F
:1085700037B15CFE902D34B15C6E60037F012290B8
:108580002D35122235902D3812223580DB7F0022C6
:1085900012FA2F512912F9C8088002C333D8FCF40B
:1085A0005F020EB87F437D4412F21BE54314700353
:1085B00012F4F6E4F542E54275F060A42419F9746A
:1085C0000535F0FA7B019005D912125E120E1D24BA
:1085D000FE601624FE601714601814601A14601CE4
:1085E0002406707412F38B806F12F4C3806A919129
:1085F000806612F435806112F4DA805CB153E924AC
:108600001E71A345F06049E54364046009B153E974
:1086100024015129F544B153E9240971A3FFAEF0B7
:1086200012D062B15312F4BBD1B8C003C002C00172
:10863000B153E9241E71A3F58285F083D001D002E5
:10864000D003AF44121395B153E912F3F712101887
:10865000B153E4120EB8C2290542E542C394025058
:1086600002A1B6E5416009FD7F0112F1C5E4F541C3
:1086700022902E9D12125E902E9DB15CFF642260AE
:1086800005EF6423702D300517E92401512912BA32
:108690001612F967600AD21312F8ED512912E7E0B9
:1086A00012F8ED5129FF7D021299F912CF42E490A0
:1086B00026E1F022F9E43AFAEE8FF0021018902742
:1086C000B0E004FF90274EF07B017A27797F902D50
:1086D0003002125E0207357B017F0561AD120FB5D6
:1086E0005467902B5C22902BC0EEF0A31249DE90D1
:1086F0002BC5E0FF7401C39F400302986C902BC60A
:10870000B15C902BC9F0E924015129902BCBF0905A
:108710002BC65123902BCAF012301140FB12290DA9
:10872000300D0302986C12A793120E1DFFC3942004
:108730004055EFD394FF504F902BC5E0FF949F50CE
:1087400046902BC9E030E70302986C5126902B73BA
:10875000F0902BC0E0FCA3E0AA04F97B01C003C0A9
:1087600002C001A3121255902C7312125E902C7647
:10877000EFF0902BC6121255902C7712125ED0019A
:10878000D002D003020D0D12A793120E1D640160DA
:108790000302986C902BC9E030E60302986CE92440
:1087A00001512912136B898D018F25028F56039178
:1087B000430491F6058D96068CCC07902608907997
:1087C0000990D80A90E80B928F0D942D0E91360FD8
:1087D00096691094D21195E51295481396CD158897
:1087E000011697FE1990F41A88B11F892320986505
:1087F00022898123894D26897A27898D280000982E
:108800006CE5366553706E12CA0BEF700302986CFC
:10881000902746740BF0128220FF7B017A2779BFE4
:1088200012A7EAD205128220FF12B61D128220FF83
:108830009027DD12C70E12CD489027E17405F09005
:108840002744740AF0A3741FF09026E17402F0121A
:108850008220FF902BCBE0B5070CAD5312BB021268
:108860003D00E4FF804812822012F9A312BB0212DD
:10887000EFD402B13B90275AE020E00302986CE568
:1088800036700302986C1282209027DD12CDB874E6
:108890001612EF9212AEE912CBFFA3740AF0A37482
:1088A0002E12AF80600302986CFBFAF97F0202CFB0
:1088B0006712CDB97420F01282207057902781F092
:1088C000A304F012A793E92403128229FF33333360
:1088D00054F8902BCCF0902BC2122555902BCC1233
:1088E000A7577025902BCC12D9D5601D902BCCE0CA
:1088F000FF123D0012D483902BCCE0FD123D00E42A
:10890000902DABF07F20120D1C902BCCE014F0705A
:10891000C58005E4902782F012AEEA12ED55A3045B
:10892000029854902746E0700302986C12F72012C8
:10893000A793E92403128229B4010B12E99012E8EB
:10894000DEAD3012489D7D02AF370297FB902BC5FC
:10895000E0FF7406D39F400302986C902BC9E0544B
:10896000DF902BC212223CEF120EB8902BCBE0FD11
:10897000902DAB7405F07F868166E5406406600D3E
:1089800022E54064046006E49027B1F022902BC5F4
:10899000E0C39406E49400500302986C9027B1E081
:1089A000FF60209026E1E0B40314902BC9E030E78B
:1089B0000302986C902BCBE0FEEF6E600622E490F1
:1089C00027B1F01282205407C39403500A902BC29F
:1089D000122555E4120EB81249A36401701B30230E
:1089E0001812A793E924031282295406FFBF020933
:1089F00012FA26C221C22361C3300E028169902778
:108A0000DCE06002816912FA1D12A79312C61F9062
:108A10002BCBE0FC9027DEF0902BC9E09027E2F012
:108A20007F1030E4027F00EF4401FF902BC9E0FE8D
:108A300054024F9027E1F012C5EE704912A793E956
:108A40002401128229B4230EEE7F0070027F01EF11
:108A500030E40302986C20120A9026E6E030E1032D
:108A600002986C20080A9026E6E020E10302986C48
:108A7000E49027DDF09026E6E07F0030E102AF04CD
:108A8000902B74615612A793E92401128229B42312
:108A90000122E5406406700261F612F8DC6007EF1F
:108AA0006402600261F630171812E2C56001227B91
:108AB000017A2779E91286CE7A0679887F041283B3
:108AC000ADA21750028001C3401A20120A9026E678
:108AD000E030E10302986C20080A9026E6E020E1ED
:108AE0000302986C902675E020E00C124A30128642
:108AF000CE124A641283AD902BCBE0FF700261CBA3
:108B0000300B0A9026E6E020E10302986C902BC916
:108B1000E020E7689026E1E0B40204C212803A1235
:108B2000F9DC50251249A36401702E9026E6E0304E
:108B3000E127202305EF64EF701F3023047FEF80CF
:108B40000312D9869027DD800D902BCBE0B4EF097E
:108B500012D9869027DDEF806412FA14FD12AFCE91
:108B6000FB12EF9B60109027DC7402123CFFE4FFC5
:108B700012AA2AD21F22E49027DCF0221249A36411
:108B800001600302986C9026E6E020E10302986CF5
:108B900030230D12F9DC5008902BCC74EFF08013C9
:108BA0009027DDE0700512F9F980089027DDE0904C
:108BB0002BCCF0902BCCE0FF60069027DDF0802ED0
:108BC00012FA26123D007F01020C0E9026E6E030DC
:108BD000E10302986C9027DDE0FF60091283D8EF73
:108BE0006006200B0312D9719027DDE0600302EFCD
:108BF0002EE4FBFDE12012A793E9240112822964EF
:108C000027704D902BC9E030E5467B017A0679BB91
:108C10001286CE7A26797A7F041283AD9027DFE020
:108C2000FE24F890267EF0EE24FBFF7B017A267965
:108C3000E81286CE7A26797F1283AD12F9AA7A26B7
:108C4000797A90267EE02408902DABF07F858016FF
:108C5000902BC9E030E70302986C902BCB12AFC683
:108C6000902DABF07F84020D1C9027DCE0640D603A
:108C70000302986C902BCBE0FF902667E06F6003B7
:108C800002986C12FA1D12A79312C61F9027E17466
:108C900021F012FA1412B58212CEA8E490270EF039
:108CA000D213902667E0FF9027DFE024F8FB7D01D8
:108CB00012E7E57F0112F08AEF600302986C12AFB1
:108CC000C312F880E49027DCF002CDC19027DCE0ED
:108CD000FF64036004EFB4080302B64E902B70E00B
:108CE000FF30E532128220FE902B73E06E600302AB
:108CF000986C300E0F902BCBE0FE9027DDE06E607D
:108D00000302986CEF54DF902B70F030E703029869
:108D10006CE4FF020C22E5366553600302986C9008
:108D20002BCBE06537600302986C30010302986C2E
:108D3000902746E0FF64076005EF640A7024128202
:108D4000206402701DD201FE7467253712E8DE121E
:108D50000735EF543F04FD12E99012E8DE12489DFA
:108D6000802212FA606008EF6409600302986C12B6
:108D70008220FF6401600DEF64036008EF6405600A
:108D80000302986C12FA606008EF640760030298AF
:108D90006CC25E0296A69027DCE0FF64046008EFD8
:108DA0006409600302986C12AFB0128220FD2403A4
:108DB000F531902BC5E0C395315002E11D300E0B0B
:108DC00012A8C812D7F3EF6002C2159027DCE0B4F6
:108DD000090F902BCB12A791AC02AD0112E01580C8
:108DE00016902BCB1299C230E70D902BCB12A79186
:108DF000AC02AD0112DF47E4F531128220FFE5310C
:108E0000C39F502774F42531F582E43427F583C0DD
:108E100083C082E012A8C7E53112E6E3120E1DFE00
:108E2000EF4ED082D083F0053180CF128220FF90A8
:108E3000286CE0FEEFD39E4002EFF0E4FF12F08AD0
:108E4000EF600122300E0320153312F9AA7A277938
:108E5000F47F1D12E3198F31EF7022902BCB12B6E5
:108E60000D600B300C08902BCBE0FF12AE357F224B
:108E7000300E027F2312F9B212D81EC20EE49027E0
:108E8000DCF012FA0B300C2DE53665536027E53621
:108E90006023902BCBE0902781F090286CE0FF902E
:108EA0002782F07B017A2779F41286CE7A2779839C
:108EB0001283AD8024300519C205902BCBE012BA85
:108EC0001612F9676013D213902BCBE012E7E08003
:108ED00008902BCBE0FF12E947300E083015051241
:108EE000F9B2803C902BCBE0FF12B6C29027DC7425
:108EF00010F0E536601F902BCBE0FF12A6E2BF0416
:108F000014902BCBE0FF7C0A7D6512EA6D500302C2
:108F1000986C02B6AB123D00E4FF02AA2A12F9B225
:108F20007F23029133902BCAE0FF65536017EFF463
