:020000040000FA
:100000000218000218030907090C2202180B0B0F33
:020010000B19CA
:070013000218130ACE0AE2F5
:0F001B0002181B3D687F0122021823E4FFE1A4B5
:07002B0002182B12166F22D0
:10003300021833A24892332202183B8FEF22D322B5
:06004300021843021779C8
:0E004B0002184BA2499236220218530230A826
:07005B0002185B75ED0422A1
:0700630002186375ED022293
:07006B0002186B75C80122A9
:100073000218734103BD00C133C1364103BC00E024
:1000830002020000381FE0020200022FCFE0040248
:10009300000446524545E00102001554E001020008
:1000A30016A5E0E8022568FEFEFEFEFEFEFEFEFE4D
:1000B300FEFEFEFEFEFEFEFEFEFEFEFEFEFEFEFE5D
:1000C300FEFEFEFEFEFEFEFEFEFEFEFEFEFEFEFE4D
:1000D300FEFEFEFEFEFEFEFEFEFEFEFEFEFEFEFE3D
:1000E300FEFEFEFEFEFEFEFEFEFEFEFEFEFEFEFE2D
:1000F300FEFEFEFEFEFEFEFEFEFEFEFEFEFEFEFE1D
:10010300FEFEFEFEFEFEFEFEFEFEFEFEFEFEFEFE0C
:10011300FEFEFEFEFEFEFEFEFEFEFEFEFEFEFEFEFC
:10012300FEFEFEFEFEFEFEFEFEFEFEFEFEFEFEFEEC
:10013300FEFEFEFEFEFEFEFEFEFEFEFEFEFEFEFEDC
:10014300FEFEFEFEFEFEFEFEFEFEFEFEFEFEFEFECC
:10015300FEFEFEFEFEFEFEFEFEFEFEFEFEFEFEFEBC
:10016300FEFEFEFEFEFEFEFEFEFEFEFEFEFEFEFEAC
:10017300FEFEFEFEFEFEFEFEFEFEFEFEFEFEFEFE9C
:10018300FEFEFEFEFEFEFEFEFEFEFEFEFEFEFEE0AA
:1001930001022650FFE00102268B28E001022F9E78
:1001A300FFE005022FCC2FCF02043D410554060189
:1001B30014004105530141055101C13B01190001DF
:1001C3001700412DC900412A8E00412A2F055D2CBD
:1001D300F800000000000000000000000000000024
:1001E3000000000000000000000000000000C1410A
:1001F30043292600000041293700C111C12D0138D0
:1002030000C129C12AC12B4130FE00C163432D66C1
:10021300000000412D6500412D6900C137C139C17E
:1002230042412D8D00015600C127C125412D7F007C
:10023300412D8C006028275205220000000300088E
:10024300FE877F88CF7FC04FFBDFFDE06700008024
:10025300008086000000E87300800F00006000004B
:100263004121660041217E0041216A004121630151
:1002730041216D024121640141244C00412161006F
:1002830041249F00C146C147412A9F96412A9B0FA3
:10029300E002022FD10033E005022FFF00330405F3
:1002A30022E0020230040807E005023806080705C9
:1002B3000522412EAEFF412EA7FF412EAA00412E5B
:1002C300AD00C164E00202380B0013E00C02380DEC
:1002D30000000308000300080522043DE00502387E
:1002E300190013FF0522E00202381E000000758189
:1002F3009075FF03759E0212082002203E02040E31
:10030300900076E47E019360F4A3FF543F30E50947
:10031300541FFEE493A360010ECF54E0B4E00EEF4C
:10032300FAEEF9A3A3A3A3DAFDD9FB80D654C02523
:10033300E0604B5026E493A3F85407240CC8C3335E
:10034300C4540F4420C8834004F456800146F6DFAA
:10035300E480B00102040810204080E493A3FAE48F
:1003630093A3F8E493A3C8C582C8CAC583CAF0A3FC
:10037300C8C582C8CAC583CADFE9DEE78085E493BE
:10038300A3F8E493A34003F68001F208DFF4020329
:1003930006C2D5E830E70FB2D5E4C39BFBE49AFA73
:1003A300E499F9E498F8EC30E717B2D51203CA12CE
:1003B300108EE4C39BFBE49AFAE499F9E498F8807D
:1003C3000312108E30D50DE4C39FFFE49EFEE49D1F
:1003D300FDE49CFC227890E4F6D8FD9000007F00B9
:1003E3007E10E4F0A3DFFCDEFA903109A3E583C3BA
:1003F30094204011FEAF829020000E0FE48002F0A3
:10040300A3DFFCDEFA1208200203032232EF90047A
:100413001993900800730A20364CE557FF22EFF535
:10042300572209430948094D09520957095C0961D3
:100433000966096B09700975097A097F098E0993A1
:10044300099D09A709F709FC0A010A060A0B0A1004
:100453000A150A1A0A290A330A470A4C0A510A607A
:100463000A650A9C0AA10AA60C450C4A0C4F0C54B7
:100473000C590C5E0C630C680C6D0C720C770C7CC5
:100483000C810C860C8B0C900C950C9A0C9F0CA475
:100493000CA90000000000003F241E16110E0B09DA
:1004A300070504030201F0C8A79177676046383552
:1004B3003230242220140001010202030304040544
:1004C3000506060707000DFA20000DDC700000008A
:1004D30000020C00013F3F3F0404043535350000A2
:1004E30000000BC80BD20BD70BDC0BE10BE60BF0B8
:0B04F3000BFA0BFF0C1D0C220209028B
:100508005A2D5761766520342E363100822D1C16FF
:10051800131110100B640B910B960B9B0CD60CDB74
:100528000CE0E4FD7C0CAB050DEB900508938F8285
:100538008E83F00FBF00010EDCEC01208F828E83CA
:10054800E4F0A37404B157743DB157A3E4F022F06A
:100558008F828E83A3A3229003C87402F09003BCF9
:10056800E0FF120CBD9003C87405F022123B241260
:100578000B1E120BB9120B5F9003BEE064017002F0
:10058800C1257FFF1208A89005D61212517E007F60
:1005980015D19BBF540D7E007F16D19BBFA5047F4C
:1005A8000180027F009003BCEFF064017041900568
:1005B800D6121248AE02123622FEA3E0FF9005D6EC
:1005C8001212481240B0E92407F9E43AFA9005D922
:1005D800121251E92408F9E43AFE12362264057031
:1005E80004A3E0642260081208AD9003BCEFF09009
:1005F80003BCE070287E007F10C006C3741F9410EF
:10060800FE74389400902F14F0A3CEF07B007A008B
:100618007900D006123688E4FFFE1208B2120A3DAD
:100628001209981209163063057550018039123F76
:10063800C81208761241B1FE4FFDA3E0FC4DFDA3A0
:10064800E0FB4D600BEE5FFFEC5FFFEB5FF47003C8
:1006580012184EE550540324C1F582E43403F5839F
:10066800E065509003B7F0E4902F00F0902EFEF074
:10067800A3F0010A75FF0275E40475E40175E4024C
:10068800229028F3E075F016A424E9F9741F35F0D8
:10069800FEAF01E4FCFD902FB51211FF12164BF1CD
:1006A8005AEF600512165A80F61213F37F031215DB
:1006B800E26402600A902FB51211A27810D1E69078
:1006C8002FB5D1E1902FB512172DF1C2902FB9EFA8
:1006D800F0F19F902FB9E0FF221211A278081211B1
:1006E80062E4E5C820E2FB8FEB22902E5F1211FF37
:1006F800902E6312125112164BF15AEF6005121622
:100708005A80F61215CB6402600A902E5F1211A26D
:100718007810D1E6902E5FD1E1902E5F1211A2E4FD
:100728008023902E661217A3601F902E6312402A12
:100738006011902E63123FE2FFD1EA902E641216E8
:100748003C80DFE4FFD1EA80D9F19F902DC074018D
:10075800F0227F01F1A4305516121733F1C2903000
:10076800E7EFF01214DB9030E7E020E002C25530EA
:100778005519F1B0902DBDEF121794600BA3E0F45A
:100788006006EF30E702C2551214DBE4FFF1A4A2C1
:1007980055E433FF22D1EA1214DBE4FFEFB401047D
:1007A80043FE202253FEDF221213F87FD7D1EA7FBF
:1007B800FFD1EAF1C6902DBCEFF07FFFD1EAE5C882
:1007C80020E2FBAFEB22902DBCE020E0131213F3E4
:1007D8007F3DD1EA7F2AD1EA7F80D1EA7FA6F19DC9
:1007E80022AB05E4FCFD902FBEEBF002157EE5ED93
:0407F8005401FF2287
:10080000C0577408C0E0C082C08375570AE5FF5422
:10081000CF4490F5FF22C0577408C0E0C082C08367
:10082000755720E5FF54CF4490F5FF22C057740858
:10083000C0E0C082C083755736E5FF54CF44A0F5B1
:10084000FF22C0577408C0E0C082C08375574CE5D2
:10085000FF54CF44B0F5FF229080000116909F9185
:10086000011690808801169080C7011690A7C701D5
:100870001690AFA4011690AFA7011690B7A301166A
:1008800090BD09011690B9B8011690BFAB01169042
:10089000CF89011690D7A8011690AD08011690BA1D
:1008A000A6011690BFD60116909E8D0116909AE172
:1008B000011690B834011690C23D011690C08B010C
:1008C0001690C6EF011690C3A6011690CD0E011624
:1008D00090AF68011690BAF6011690AFF901169024
:1008E000B768011690D935011690DA49011690DFE4
:1008F00098011690B17E011690DF9E011690C8EC0B
:10090000011690B4EA011690DFB9011690B75A01AA
:100910001690CDA7011690B633011690DB01011693
:1009200090D9C80116909E1A011690B7950116909D
:10093000DFFF011690DEF6011690E002011690E34B
:100940005B011690E3E8011690979D011690D57F04
:10095000011690E797011690D757011690D6E5013A
:100960001690D484011690E79E011690E7B4011604
:1009700090E7CA011690E997011690D338011690B6
:10098000E9DD011690864D01169081BB011690EAB3
:10099000130116909AAE011690B033011690C14221
:1009A000011690E98C011690C13D011690EADA011A
:1009B0001690D959011690E376011690E0B201160F
:1009C00090EB0D011690E3E1011690BA1A01169012
:1009D000ACAC011690E9AC011690E8B1011690E9B3
:1009E00026011690E869011690E9C1011690BA0C2B
:1009F000011690BA13011690BB18011690E6540127
:100A00001690E65C011690EB29011690BA5E01166D
:100A100090E747011690EB38011690D3EA01169043
:100A2000EB4C011690874A011690B5DD0116909F98
:100A30004E011690D5BD011690B5FC011690CF74ED
:100A4000011690EBEB011690ED51011690D71C01A9
:100A5000169081F3011690C78F011690DDDE011606
:100A600090E16D011690DCF6011690DED001169033
:100A7000DE56011690ED5E011690D4AF011690ED92
:100A800075011690D418011690ED78011690EDC0FE
:100A9000011690D61C011690DF68011690E4D20171
:100AA0001690D6D3011690D69E011690CF4E011601
:100AB00090B6980116909A22011690E2470116907E
:100AC000E1FE011690EEBB011690A642011690EED3
:100AD00057011690AAEC011690EEF4011690A0258D
:100AE000011690F003011690F011011690F03D01EF
:100AF0001690F0A2011690F0DB011690F12001167D
:100B000090E3F7011690F13E011690CEE6011690A3
:100B1000F165011690A7D7011690A547011690BD63
:100B20004F011690BEC8011690BD6D011690F1746C
:100B3000011690A789011690C72D011690BF3901A3
:100B400016909DD0014290ACE8014290ADF4014274
:100B500090AECC014290B0E7014290B113014290B7
:100B6000B128014290B4B8014290B4B9014290A7B3
:100B70002901429085E3014290B627014290A74A9D
:100B800001429095BC014290800B0142908085010A
:100B90004290B6F4014290B70C01429093B90142E1
:100BA00090B73F014290B757014290B7FB01429086
:100BB000A8DA014290971D014290B885014290B891
:100BC00092014290B7F5014290AC47014290A7399B
:100BD000014290AC5B014290AD7C014290AE4A0173
:100BE0004290AB52014290B2CF014290AC1C014204
:100BF00090B81B01429096A9014290B89E01429084
:100C0000B530014290B4FA014290AAB0014290AFCF
:100C10001F014290B427014290B79F014290B8F261
:100C2000014290A417014290A31D014290B1BB0163
:100C30004290AE98014290B8F3014290AE850142D5
:100C400090B9C7014290A10B012C90A161012C9099
:100C5000A1C3012C90A1D1012C90A322012C90A31F
:100C600037012C90A343012C909F0C012C90A3D012
:100C7000012C90A1E6012C90A25F012C90A3DC0135
:100C80002C90A2BB012C90A3FE012C90A40A012C55
:100C900090A34D012C90A416012C90A3F4012C904C
:100CA0008000012C90A130012C90A452012C908640
:100CB00075012C908223012C90A538012C90803551
:100CC000012C909BF8012C909E3A012C909DE501FF
:100CD0002C90A5D3012C90A6EC012C90A740012CC0
:100CE000909EA0012C00E709F608DFFA8046E7098C
:100CF000F208DFFA803E88828C83E709F0A3DFFAEE
:100D00008032E309F608DFFA8078E309F208DFFAB7
:100D1000807088828C83E309F0A3DFFA8064898283
:100D20008A83E0A3F608DFFA805889828A83E0A3E9
:100D3000F208DFFA804C80D280FA80C680D48069C5
:100D400080F28033801080A680EA809A80A880DAC2
:100D500080E280CA803389828A83ECFAE493A3C854
:100D6000C582C8CCC583CCF0A3C8C582C8CCC58316
:100D7000CCDFE9DEE7800D89828A83E493A3F6085D
:100D8000DFF9ECFAA9F0EDFB2289828A83ECFAE024
:100D9000A3C8C582C8CCC583CCF0A3C8C582C8CCC3
:100DA000C583CCDFEADEE880DB89828A83E493A313
:100DB000F208DFF980CC88F0EF60010E4E60C38846
:100DC000F0ED2402B4040050B9F582EB2402B4041F
:100DD0000050AF2323458223900D3673BB01068953
:100DE000828A83E0225002E722BBFE02E32289824C
:100DF0008A83E49322BB010CE58229F582E5833ADC
:100E0000F583E0225006E92582F8E622BBFE06E9DA
:100E10002582F8E222E58229F582E5833AF583E42A
:100E20009322BB010989828A83F8E028F0225003CB
:100E300027F722BBFE05F8E328F3228A838982F88C
:100E4000E4932822BB010FF8E58229F582E5833A75
:100E5000F583E028F0225009C58229F8E58226F6BC
:100E600022BBFE09C58229F8E22582F222F8EA2592
:100E700083F583E9932822BB010689828A83F022C5
:100E80005002F722BBFE01F322F8BB010DE58229D7
:100E9000F582E5833AF583E8F0225006E92582C819
:100EA000F622BBFE05E92582C8F222EF8DF0A4A848
:100EB000F0CF8CF0A428CE8DF0A42EFE22BC000B27
:100EC000BE0029EF8DF084FFADF022E4CCF875F080
:100ED00008EF2FFFEE33FEEC33FCEE9DEC9840055F
:100EE000FCEE9DFE0FD5F0E9E4CEFD22EDF8F5F025
:100EF000EE8420D21CFEADF075F008EF2FFFED332D
:100F0000FD4007985006D5F0F222C398FD0FD5F0AA
:100F1000EA22C2D5EC30E709B2D5E4C39DFDE49CDA
:100F2000FCEE30E715B2D5E4C39FFFE49EFE120E3F
:100F3000BDC3E49DFDE49CFC8003120EBD30D507CB
:100F4000C3E49FFFE49EFE22C5F0F8A3E028F0C5AD
:100F5000F0F8E582158270021583E038F022A3F8DC
:100F6000E0C5F025F0F0E582158270021583E0C837
:100F700038F0E822BB010A89828A83E0F5F0A3E019
:100F800022500687F009E71922BBFE07E3F5F009B6
:100F9000E3192289828A83E493F5F074019322BBDA
:100FA000010789828A83020F48500B09C5F027F791
:100FB000C5F01937F722BBFE0D09F8E325F0F3C59C
:100FC000F019E338F322F889828A8374019325F0BB
:100FD000C5F0F8E4933822BB010A89828A83F0E5E0
:100FE000F0A3F0225006F709A7F01922BBFE06F382
:100FF000E5F009F31922EF2BFFEE3AFEED39FDEC97
:1010000038FC22E88FF0A4CC8BF0A42CFCE98EF005
:10101000A42CFC8AF0EDA42CFCEA8EF0A4CDA8F060
:101020008BF0A42DCC3825F0FDE98FF0A42CCD3524
:10103000F0FCEB8EF0A4FEA9F0EB8FF0A4CFC5F08E
:101040002ECD39FEE43CFCEAA42DCE35F0FDE43C87
:10105000FC2275F008758200EF2FFFEE33FECD33D2
:10106000CDCC33CCC58233C5829BED9AEC99E58219
:1010700098400CF582EE9BFEED9AFDEC99FC0FD5A5
:10108000F0D6E4CEFBE4CDFAE4CCF9A88222B80095
:10109000C1B90059BA002DEC8BF084CFCECDFCE560
:1010A000F0CBF97818EF2FFFEE33FEED33FDEC3384
:1010B000FCEB33FB10D703994004EB99FB0FD8E509
:1010C000E4F9FA227818EF2FFFEE33FEED33FDEC52
:1010D00033FCC933C910D7059BE99A4007EC9BFC48
:1010E000E99AF90FD8E0E4C9FAE4CCFB2275F010D4
:1010F000EF2FFFEE33FEED33FDCC33CCC833C810F9
:10110000D7079BEC9AE899400AED9BFDEC9AFCE826
:1011100099F80FD5F0DAE4CDFBE4CCFAE4C8F92273
:10112000EF5BFFEE5AFEED59FDEC58FC22C3E49F45
:10113000FFE49EFEE49DFDE49CFC22EB9FF5F0EABB
:101140009E42F0E99D42F0EC6480C864809845F0CE
:1011500022EB9FF5F0EA9E42F0E99D42F0E89C45C3
:10116000F022E8600FECC313FCED13FDEE13FEEF6D
:1011700013FFD8F122E8600FEFC333FFEE33FEED2B
:1011800033FDEC33FCD8F122BB010789828A83024C
:1011900011FF5005E9F80213B7BBFE05E9F8021389
:1011A000C322E0FCA3E0FDA3E0FEA3E0FF22E49362
:1011B000FC740193FD740293FE740393FF22E0F824
:1011C000A3E0F9A3E0FAA3E0FB227401FF3395E06A
:1011D000FEFDFCA3A3A3E02FFFF0E58215827002C1
:1011E0001583E03EFEF0E582158270021583E03D36
:1011F000FDF0E582158270021583E03CFCF022ECE4
:10120000F0A3EDF0A3EEF0A3EFF022A8828583F027
:10121000D083D08212122212122212122212122211
:10122000E473E493A3C583C5F0C583C8C582C8F041
:10123000A3C583C5F0C583C8C582C822A42582F58D
:1012400082E5F03583F58322E0FBA3E0FAA3E0F921
:1012500022EBF0A3EAF0A3E9F022E493FB740193FC
:10126000FA740293F922BB010789828A8302124829
:101270005005E9F80213CFBBFE05E9F80213E18936
:10128000828A8302125ABB011A89828A83D0F0D0E3
:10129000E0F8D0E0F9D0E0FAD0E0FBE8C0E0C0F040
:1012A0000212515016E9F8D083D082D0E0F9D0E094
:1012B000FAD0E0FBC082C0830213D8BBFE16E9F867
:1012C000D083D082D0E0F9D0E0FAD0E0FBC082C079
:1012D000830213EA22BB010DE58229F582E5833AF8
:1012E000F5830212485007E92582F80213CFBBFEAE
:1012F00007E92582F80213E1E58229F582E5833AC0
:10130000F58302125ABB0120E58229F582E5833A72
:10131000F583D0F0D0E0F8D0E0F9D0E0FAD0E0FBEF
:10132000E8C0E0C0F00212515018E92582F8D083DD
:10133000D082D0E0F9D0E0FAD0E0FBC082C08302D6
:1013400013D8BBFE18E92582F8D083D082D0E0F90B
:10135000D0E0FAD0E0FBC082C0830213EA22D0833F
:10136000D082F8E4937012740193700DA3A393F8E4
:10137000740193F5828883E4737402936860EFA329
:10138000A3A380DF8A838982E473EC8EF0A4CCC5AA
:10139000F0CCCDF8EFA4CEC5F02DFDE43CFCE8A4E4
:1013A0002EC8C5F03DFDE43CFCEFA4FFE5F028FEAF
:1013B000E43DFDE43CFC22ECF608EDF608EEF60810
:1013C000EFF622ECF208EDF208EEF208EFF222E678
:1013D000FB08E6FA08E6F922EBF608EAF608E9F671
:1013E00022E2FB08E2FA08E2F922EBF208EAF2084C
:1013F000E9F2227F011207A4902DC1E0715E141A58
:1014000004142214142715142C17143C30144134DE
:10141000144636144B37000014345334EF853480AF
:10142000802F5335EF80085335DF800353357F8598
:101430003590801D5336DF8536A080155337FE80EA
:101440000D5337EF80085337BF800353377F8537FD
:10145000B07F0CDFFE227F011207A49030E57401FB
:10146000F09030E5E06030F1331207C29030E5EFE4
:10147000F091DB1207B0902DBDEFF091DB9030E5DD
:10148000E05401F19460DAA3E0F460D5EF30E7D1E5
:10149000E49030E5F080CA71F87F9F1206EA1207E7
:1014A000C2902DBE1207C0902DC31207C0902DC44C
:1014B000EFF012079F902DBCE0F4601BA3E0F460F6
:1014C00016902DC3E0FD541F240FA3F0EDC4135458
:1014D000074480902DC3F0221206EAF17FEF70FBE3
:1014E000902DC3E0F4600A9030E47406F0D14370AC
:1014F000FC902DC1E0715E151304151B1415201509
:10150000152517153530153A34153F361544370073
:1015100000152D433410853480802F43351080080A
:101520004335208003433580853590801D43362028
:101530008536A08015433701800D4337108008435E
:10154000374080034337808537B09030E4740CF027
:10155000D14370FC22D14B12075AEF6004D15A805C
:10156000F67F011207A4D25571F87F0691D871F861
:101570007F011206EA7F0391D8E4FF0207A4902FAF
:10158000BA31FF902FBA31A212069E902FBEE06FA3
:101590006037D14B12075AEF6004D15A80F6B1CBB5
:1015A0006402600A902FBA31A278101206E6902FDA
:1015B000BA1206E1902FBAF12D902FBEE0FF12076C
:1015C0009D902DC07401F0D322C3227F011207A485
:1015D000D25571F87F061206EA91DB71F8902DBFA3
:1015E000E0FF1206EA902DC2E022902E6831FF90B3
:1015F0002E6C5151D14B12075AEF6004D15A80F62C
:1016000071F37F03B1E26402600A902E6831A27820
:10161000101206E6902E681206E1902E68F12D90C9
:101620002E6FF1A3600F1207C2902E6CF186902EE0
:101630006DD13C80EA91DBE4FF0207A4E475F00180
:10164000020F489030E4E014F0E02275FF02E5E478
:1016500030E10675E40675E40322E51530E20FE596
:101660001520E50AE51530E0057F011219DB22900F
:101670003109EFF0E543C394204004D15A80F5E5E9
:101680003FC394204003E4F53FC2AC1207F6EF706D
:101690000EE543700A903109E0FF12003E8012907F
:1016A0003109E0FFAE3F053F74A52EF18CEFF00548
:1016B00043D2AC7F012275FF0275E404E4F5E42215
:1016C00090063DEDF090063CEFF0BF0411A3E0FB67
:1016D0007D017F01F10090063C7403F0800B9006C1
:1016E0003DE0FB7D01E4FFF10090063CE09003BD8E
:1016F000F0D2091208CB9003C9EEF0A3EFF0D32289
:10170000EB600875FF0153CDFD800675FF0143CDE9
:1017100002ED600553FBDF800343FB20EF6007759C
:10172000FF0243E1402275FF0253E1BF2231A2E4F0
:101730000206EA71F87F050206EAD14B12075AEF5A
:101740006004D15A80F6229030E6EFF0902DCAE086
:101750006402702471F39030E6E07FAB60027FB9E1
:101760001206EA91DB9030E6E0902DC9F070047F1C
:101770001EDFFEE4FF1207A42275FF028FE322E5BD
:10178000C85404FF22FF5148EF020E77F582E4347B
:101790002CF58322F0902DBCE0FFF422F1AD500235
:1017A000D13C2274FFF5F0120F5E45F022C3900584
:1017B00059E094FF900558E094FF229003C5E0FCA7
:1017C000A3E04C70059003C5C1F9C322C390055B2B
:1017D000E094FF90055AE094FF5002D13C22EB25A3
:1017E000E025E02401F582E43412F583E0FCA3E077
:0717F000FDA3E0FEA3E022CF
:061800000202F1AF4222DA
:101808007FB89003B7E064AA2411FFF0227B017A25
:0A1818000379C1227404F00233CDFD
:03182300023A2264
:10182B0002281DAE07110AEE04FEEF8EF084AFF016
:0D183B0022902FF7E0FBA3E0FAA3E0F922D2
:10184B00022B95E4FF31DBEF60361115118C50053F
:10185B0012419940F57B017A0379C3118C500F1219
:10186B0041B15FFFA3E05FFFA3E05FF460E77F019F
:10187B0031DB7550017E007F0811151240D3111C0E
:10188B0022902E0BF1E3902E1112120B000000018F
:10189B00902E157401F0F5FFE5D554C0700491E856
:1018AB005002C322E4F5FF53967F75FF0175D504F3
:1018BB007F3FFED1FC75FF0143D508E4F5FF539440
:1018CB00FBF5FF53847FF5FF7598FF902E0FE5F422
:1018DB00F075F49C75FF01A3E5E4F075E4257B013D
:1018EB007A2E7915F1FA902E15E06401600221B978
:1018FB00F5FF902E0E7414F0902E111217ECFF784A
:10190B0001121175902E111211FFE5A730E1FB4367
:10191B00A702902E111217ECFFE5A730E005E47B30
:10192B00018002E4FBFAF9F8EF4BFFEE4AFEED49BA
:10193B00FDEC48FC902E111211FF902E0EE014F0CE
:10194B0070B6902E111217ECFF78101211627B6D8E
:10195B007A4E79C67841121003EF2439FFEE3430FA
:10196B001226D6E4FBFA7901F812108EEE547FFEA4
:10197B00E4FDFC122E8E902E111217ECFFEB6FFF75
:10198B00EA6EFEE8CDEFCDCCEECCECFF902E0B113A
:10199B003FEF120E77902E0B113F900001ED120EC0
:1019AB008990120FE030E606E4F5FF75968075FF1F
:1019BB0001E4F5D5902E0FE0F5F475FF01A3E0F5EA
:1019CB00E412381C902E15E0B40103D38001C3221E
:1019DB00EF600D122267AF82AE83E4FDF15E8010E3
:1019EB003033037F0022120B3C122332E433FF22ED
:1019FB007F0122900605121251D24BC2EBE5146007
:101A0B00028175E51530E202C322917E24E5122F87
:101A1B004312301690060591CA5407FF900553F0F8
:101A2B00122E9B900608EFF0E51520E06F91E84031
:101A3B00047F0131DB900608E0FF7B017A06790910
:101A4B00B1EBE4337004D2EB8159900608E02432F9
:101A5B00124163E0FF900609E0D39F403FD2EB12A7
:101A6B0017CCA23A92ED900564E06015917E24E5C7
:101A7B00F9E43AFA7401120E7743150412407CD341
:101A8B0022900572E070137A0579727C287D8B7435
:101A9B006412405DE4A3F01208DAC32291E850040B
:101AAB00C254D168122DEBE5D120E0FBE4F5109088
:101ABB00060591CA5407C39403E494005032917EF7
:101ACB0024B191C3917D24D891C32FFFE433FED36E
:101ADB00EF9440EE648094804016917E24E5F9E407
:101AEB003AFA7402120E77431504A23A92EDD322FE
:101AFB00917E2408F9E43ACFE9CFF5118F12917E4C
:101B0B0024B191C3F516AE11123D0A917E24B2F9A0
:101B1B00E43A8B1CF51D891E917E24D891C3F51FC9
:101B2B0090060591CAFDACF05460602F917E24D9CC
:101B3B0091C3FF122FAEC24B91B3FB7A009005738A
:101B4B0012415B7D18120EABEF2BFFEA3EFEEF242A
:101B5B0014FBE43EFA7D027F01814690060591CA93
:101B6B005407900553F0751408917E24B2F9E43AAA
:101B7B00FA122DF7917E24D891C3FFAD16122E8148
:101B8B00900553E0640370277B01FDFF91F591866F
:101B9B00D391D750057401120E22E4F5FF122E6E6D
:101BAB00120DDC2428FBE433FA7D03E4FF8146901D
:101BBB000553E06402702A9186D391D7400574FFD8
:101BCB00120E22E4F5FFE5D25480440AF5D2120D31
:101BDB00DC2414FBE433FA7D027F01B17491F080B5
:101BEB005C91F09186D391D7400574FF120E22E4DD
:101BFB00F5FF90060591CA441045F07F0560027F02
:101C0B000AEF547FFFE5D254804FF5D2E4F5FF4342
:101C1B00D28091B3FD7C0090060591CA441045F02B
:101C2B007E0060047F0A80027F05EF25E0FFEE3324
:101C3B00FEEF2DFBEE3CFA7D017F01B174900605A2
:101C4B0091CAFFAEF0A24B924A122B034006A23A66
:101C5B0092EDC32212407C900608E0917D24E7129E
:101C6B003F08A23A92EDD2EBD322A23A92EDD2EBFD
:101C7B00C322FF900605121248E9229006051212A4
:101C8B0048E924B1F9E43AFA120DDCFF900605128B
:101C9B001248E924D8F9E43AFA120DDC2FFFE433A9
:101CAB00FEEF2401FFE43EFE900605121248E924E4
:101CBB00B2F9E43AFAE92407F9E43AFA020DDC1234
:101CCB001248E92404F9E43AFA020F749FEE648097
:101CDB00F874809822C2EBA2ED923AC2EDE5F4C300
:101CEB0030E701D322E4FB7D01FFE4F5FF75D10260
:101CFB00E5D120E0FBE4F5FFF5D1EF6008E4F5FF5B
:101D0B0043D2808006E4F5FF53D27FEB6006E4F507
:101D1B00FF43D104ED6006E4F5FF43D108229006A2
:101D2B000A12125190060DEDF0E4A3F0ED54FE9063
:101D3B00060DF0602AE4FF31DBBF012390060A1287
:101D4B001248118C501990060B12419290060EE01E
:101D5B002402F090060EE0FF90060DE06F70DD7F21
:101D6B000131DB90060EE0FF22900630EFF0ED2400
:101D7B00FE60191460272402703DEB2402FFE43A45
:101D8B00FE7C007D50120EAB7D6080201240C8C3DC
:101D9B0033CE33CED8F9FF7C007D28800F1240C89C
:101DAB00C333CE33CED8F9FF7C007D64120EBD90C9
:101DBB000631EEF0A3EFF0900630E0123008C0834E
:101DCB00C0821211BE900632E02401FF900631E072
:101DDB003400FEE4FCFD120FF6D082D0830211FF1B
:101DEB00902FF6EFF0A3F1E375FF011224B5EF642A
:101DFB00016002C322E5F430E602C3227FE87E03D2
:101E0B00F109D1B01239E9400122C254D168902FA7
:101E1B00F6E0FF122B5253F4DFD254D1687F787E59
:101E2B0000D1B775FF0153E4BFE5E430E7FB12398E
:101E3B00DF7F8AF1EC30E605113CE4800775FF018A
:101E4B00113CE5D9120E7775FF0143E4401241A90D
:101E5B00400343F4201239E9400122D3229030E3AE
:101E6B00E5F4F0E0547FF5F47F827E00D1AE1224CE
:101E7B00AA5005E5FC20E6F63054089030E3E04428
:101E8B0080F5F4F126D1B01224AA5005E5FC20E62A
:101E9B00F675FF01E5D520E702C322E5F4D330E662
:101EAB0001C322F12A75FF0343918022CDEFCDCCE4
:101EBB00EECC12317EAB94EF4B12318ACBEFCBFAD7
:101ECB00E59130E71A123181A994E9F582EF458249
:101EDB00FFEB124143C3EF9582E5F0958340E1E5BB
:101EEB009120E708CEECCECFEDCFD1FC227F147E34
:101EFB0000F109D1B075FF03E59120E7FB2275FFD7
:101F0B0003D3EF9402EE9400400874FE2FFF74FF8E
:101F1B003EFEEFF592EE540FF591227FE87E039093
:101F2B002FE612413B7A2F79E81231695014902F2A
:101F3B00E8E0FEA3E0FF902FE7E09F902FE6E09E06
:101F4B00400A902FE6E0FEA3E0FFF10922AF82AE3C
:101F5B00837D019005F3EEF0A3F1F4E51470789115
:101F6B00E05004C254D1689005F3E0FEA3E08E115B
:101F7B00F512A3121248900555121251AE11AF1261
:101F8B007DAA122EBFE4F5FF75D908F510E515549F
:101F9B0021602CE51530E505E4FF122B52E490058A
:101FAB00F8F09005F8E004F0123503EF60099005A6
:101FBB00F8E0C3941040EB7F02120CD15315DE9066
:101FCB000551E07F00B403027F01122B43D254D1A1
:101FDB0068D2EBA23A92ED22EBF0A3EAF0A3E9F080
:101FEB0022FED1B790120FE022EFF0A30212519014
:101FFB003046F1E37F017C127D01E4FE8D828C8300
:10200B00ED2EF582E43CF583E02FFF0EEEB412ECDF
:10201B00901213E06F600A90304612183FE4120ED4
:10202B00772230350D12093EEF6007C25C12092A88
:10203B00C2352275FF0275E404E4F5E41203D8718E
:10204B000D9003BEEFF0901200E0B47A14901214CE
:10205B00E0B49C0D9003BEE0FF64056004EFB40395
:10206B002EE49003C7F09003C7E0FFC39480501396
:10207B00E42FF582E43412F583E4F09003C7E00417
:10208B00F080E3901200747AF0901214749CF012AA
:10209B000B554003120B507B017A1279107D017F97
:1020AB0001120B4B7B017A1279117D017F21120BEF
:1020BB004B7B017A1279127D017F22120B4B7A1224
:1020CB0079177F02123CF7901217E0B401057F01DC
:1020DB00123A00120B00710D120AFB9003BEEFF0C7
:1020EB00120BBE120AF69003BEE0FF120CB8EF24DF
:1020FB00FFB3926375FF0253E6BFF1F7120B0A129F
:10210B00057420630C12055F7B017A29794B120948
:10211B00AC7F011219DBD2AF20630221A6120B5A3E
:10212B001208B7120CB3120B4640F29003BDE060DD
:10213B003E120B2DEF700451C84034E51470FCE5D2
:10214B001520E5027132120871EF70FA51A3500499
:10215B0051DB50057F011217479003BDE0B4020419
:10216B00E4FF80099003BDE0B403047F0151EF123B
:10217B000B28E51530E1A6518E4002E4F0E5152061
:10218B00E5055167121F5851B5EFC0E0517590032B
:10219B00C0E0FDD0E0FF120BB48082112D9003BD87
:1021AB00E06044201A0320093E120B2DEF700451FE
:1021BB00C84034E51470FCE51520E50271321208B5
:1021CB0071EF70FA51A3500451DB50057F011217C8
:1021DB00479003BDE0B40204E4FF80099003BDE027
:1021EB00B403047F0151EF9003BDE0600C201A098A
:1021FB00300906200203120984120B5A1208B791F8
:10220B00E5120CAE203405120B2880221208CB905D
:10221B0003B6E0FEEFC39E4005EF9EFF80089003E0
:10222B00B6E0F4042FFF7406D39F5002C234E515B9
:10223B0030E122518E4002E4F0E51520E5055167AF
:10224B00121F5851B5EFC0E051759003C0E0FDD09F
:10225B00E0FF120BB4120AD3716021A69003BFE00A
:10226B00FD75F0AA9003CB12123CED75F002A4247D
:10227B00B8F9740335F0FA7B0122C2AFEFF45215B3
:10228B00D2AF227F0251859003BFE09003C7F0903D
:10229B0003BF04F0C3940222900001740193B400B5
:1022AB0007E493B41802C322D3229003C7E0FD7551
:1022BB00F0AA9003CB12123CAF82AE83229003C9DB
:1022CB00E0FEA3E0FF1208D0D3EF94C8EE940022F7
:1022DB007F017E009017FCE4935EFE7401935F4ECA
:1022EB0024FFB32243FB1075FF0243E640EF600D62
:1022FB0075FF02E5E120E7FB43FB0D800343FB0E7B
:10230B0080FE75FF02E5E630E2037F0322E5E6304F
:10231B00E3037F0022E5E630E1037F0422E5E67F5D
:10232B000530E0027F0122E5147028121CE05005F5
:10233B00C254121E6871727F08120CD1122DEBE57C
:10234B00D120E0FB4315205315FEE4F510A23A9281
:10235B00EDD322C3229003C51235D76009CAEECA4A
:10236B00C9EFC912138422E5FA30E1FB75FC8075C5
:10237B00FF0153D5EFE4F5FC75FC40F1F0E5FC20D3
:10238B00E6FB22902F081237AFEBF0902F0E740163
:10239B00F0C2537FE87E03121EAE91AA5005E5FCF6
:1023AB0020E6F791B5BF0108E4F5FC75FC4080070A
:1023BB0091B5BF0202D32275FF0153D8EF902F09BD
:1023CB00E0FF12397E75FF0153D5DF53FAFB902FD7
:1023DB0008E0FF122B52902F09E0902F08B4080A47
:1023EB00E01217DF2452D1D38005E01217DFFFD1A3
:1023FB00E5902F0AE0FFF1EA75FF0175FF03759B6E
:10240B0004121F26121EB075FC42E5FC20E104915C
:10241B00AA40F4902F0BE0F075FF03E59B20E70437
:10242B0091AA40F4E59B20E70C75FF03759B1F7188
:10243B0072D253804F91A3121FFA902F09E0FD9097
:10244B00120FE05D701C902F08E0FF91A31229740E
:10245B0090120FE0FF902F09E0FEEF4E90120FF05D
:10246B00D1A21231927B017A2F790C123169500F64
:10247B00C3902F0DE09420902F0CE0940340E69135
:10248B00A31236BA121F003053026196902F0EE042
:10249B00B40103D38001C3227B017A2F790E2275FD
:1024AB00FF03E591C330E701D3227FFA7E00121FB1
:1024BB0009121EB0E5FC30E60491AA40F7E5FC30AA
:1024CB00E6037F032275FF01E5D530E6037F022289
:1024DB00E5D57F0030E7027F012291B5EF640170F3
:1024EB00671239A89030AFEFF0D39402505A902F67
:1024FB0000E0FF9030AFE06F704E1239B89030B003
:10250B00EFF07B017A3079B07D01120BAF9030AFD9
:10251B00E024FCF582E4342EF583EFF0902F00E0FD
:10252B00045401F07022902EFEE07002A3E06018BC
:10253B007B017A2E79FA1230827B017A2E79FA900E
:10254B002EFE12401812138822902D321211FF7595
:10255B00FF0243E180717212394D902D4712120B1D
:10256B00002DC6C0E4F5FFF5A490120EF0A3F09079
:10257B002D427402F0F121FFF595EF1460141460F5
:10258B001E2402702A902D321217ECD1DE902D3EB4
:10259B008018902D361217ECD1DE902D3F800B90CA
:1025AB002D3A1217ECD1DE902D40E0902D4BF0120E
:1025BB003971902D4BE0700FF5FFF59675FF017596
:1025CB00D70975F418805D90120EE004F0902D423F
:1025DB00E0122E5D902D471217ECFF902D43F13733
:1025EB00C3121151500B902D431217ECFFA3121174
:1025FB00FF902D4BE0FF1237CE902D41E0FFA3E073
:10260B00FDA25292501238FBA31217ECFF902FB180
:10261B001211FF902D42E0FFF143902D42E0121773
:10262B00DFFFD1E5F1296002A1807402F0F121F501
:10263B0095E5F45407701C902D47F132D1C4780105
:10264B00121162902D42E0FBF1D71211FF1217DE2F
:10265B00FFD1E5F12970D675FF037595801241A95D
:10266B00400343F420A252925112382D902D471261
:10267B0017EC2420FFEE344ED1D6E4FB7A04F9F8A4
:10268B00D1C47801121162C24F1231AEE4F5FFE5ED
:10269B00BD54F84404F5BD9012137401F07E127F03
:1026AB0001E4FD8F828E83EF2D1241A1FC9012135A
:1026BB00E02CF00DEDB412EB22121003E47B7DFA4B
:1026CB00F9F812108EEF2401FFE43EFEE43DFDE429
:1026DB003CFC22FF902D430211FF902FEA1211FFB9
:1026EB0075FF01902FEAA3E0FDA3A3E4FFFEE4FC3A
:1026FB0078101211628FE1902FEAA3A3E0FEA3E4FE
:10270B00FFE4FDFC78081211628FE2902FEAA3A37D
:10271B00A3E0FF8FE32275FF03902D42E022902D63
:10272B0042E0FF14F0EF22FF7E04FDFCE0F8A3E093
:10273B00F9A3E0FAA3E0FB22902FB0EFF0E4A3F1B2
:10274B0032D1C47801121162902FB0E0FBF1D71295
:10275B0011FF901210E064806071E0C3947F5039D8
:10276B00EBF1D7C083C0821217ECFFEEC0E0EFC0D5
:10277B00E0901210E075F004A4AEF0FBCAEECAEACA
:10278B003395E0F9F8D0E0FFD0E0FEC3EF9BFFEE0E
:10279B009AFEED99FDEC98802A902FB0E0F1D7C00E
:1027AB0083C082F137901210E0F40475F004A4FF9B
:1027BB00AEF0EE3395E0FDFCEB2FFFEA3EFEE93D7C
:1027CB00FDE83CFCD082D0831211FF2225E025E0EE
:1027DB002401F582E43412F58322E4F51461327599
:1027EB00FF018FDA2275FF03E4F5912275FF02D208
:1027FB00ADD2BD75FF02758E7175510975FF02E57E
:10280B008E546F4480F58E902FE212120B00000055
:10281B000022C0E0C0F0C083C082C0D075D008C019
:10282B00FF75FF02E58E30E43A75FF02E58E54EF3B
:10283B004410F58E902FE21211A21226D0902FE2A7
:10284B001211FF90000012163CE55130E0020539E1
:10285B00E551700D755109054DE54D7002054C8024
:10286B0002155175FF02E58530E40875FF024385BB
:10287B00100555D0FFD0D0D082D083D0F0D0E0322D
:10288B00E4900572F090056404F022121CE85006E7
:10289B0011A350028001C322E5F754E024FF22AFBD
:1028AB0014EFC36001D322EFC3940E50059005546F
:1028BB00EFF022E517540FFF22E517C394F0501FDA
:1028CB005317F011EDFE740FC39F4005EE940E40AD
:1028DB000543170D8003EF4217E517540FFF227FB7
:1028EB000022E517C4540FFEEF9004B9932E22116A
:1028FB00EDFFC3940E40027F0DEF90049B93FF22DC
:10290B00EF30E303AF1322AD1B203B04EE30E00BA3
:10291B00E517C394F0502031458018E5196006FD8A
:10292B00E4F5198012E517C394F0500BE517540F1B
:10293B00FF600411FAAD07AF0522900554E0FDFFCF
:10294B00C3740E316DEFC4F8540FC868FFEEC45456
:10295B00F048FEE51754F0C3121CD77F005002AFAE
:10296B0005229FFFE49400FE22902FF2EDF09012CF
:10297B0011E0F46005A3E0B4FF0C902FF47418F091
:10298B00A37413F08010901211E0902FF4F09012BA
:10299B0012E0902FF5F0120DDC6401600241DD9026
:1029AB002FF2E0FE64086004EEB40408902FF37479
:1029BB0028F08006902FF3743AF0EF1217DFFF1216
:1029CB00112DE451DEEF24D8FFEE343FFEED3493AE
:1029DB00FDEC3416FC7B007A8079037800120394AB
:1029EB00D18E902FF5E0FF902FF4E0C3316DE4FC16
:1029FB00FD121003ECC0E0EDC0E0EEC0E0EFC0E074
:102A0B00902FF5E0FFE4FCFDFE51DED0E0FBD0E0C3
:102A1B00FAD0E0F9D0E0F8EB2FFBEA3EFAE93DF90A
:102A2B00E83CF8902FF3E0FFE4FCFDFE121003EFFF
:102A3B002454FFEE340B1226D6E47BA87A16F9F851
:102A4B00120394CBEFCB902FF2E014605D14601B5C
:102A5B0024FE600C24FC707AE4F5FF75CE31800601
:102A6B00E4F5FF75CE21F5FF8BCF22E4FAE4F5FFF9
:102A7B00EA2440F5CEE4F5FFEAFFC37407316D7429
:102A8B00142FF58274053EF583E451E6C39DF5CF13
:102A9B00E4F5FFEA2448F5CEE4F5FFEA900514517E
:102AAB00E62DF5CF0AEAB408C422E4F5FF75CE0192
:102ABB00F5FF8BCFF5FF75CE0EF5FFEB25E0F5CFD0
:102ACB00E4F5FF75CE0FF5FFCFEBCFEB75F003A45D
:102ADB00F5CF227B64FAF9F80210039325E0FDE4AD
:102AEB0033FCEB75F010A4FFAEF0120EBDCDEFCDA5
:102AFB00EBFFE4C313EF13224315015315DF310B27
:102B0B00D1034004E4F5142243FA045315FB304A75
:102B1B00047148800A7F55712C7F55712CD2EBD3F1
:102B2B002275FF01E5D520E602C322E5FA540360C6
:102B3B00FA75FF018FC3D322715243FA04E4F5FFF8
:102B4B0053D1FD43D1012275FF01E5D530E602C318
:102B5B0022E4F5FF439A80EFD15DE4F5FF539A7FB2
:102B6B00D322C254121E68B1EBE5D120E0FBE4F591
:102B7B00FF75D908900551E07F00B403027F017106
:102B8B0043D254121E68E4F51022C0E0C0F0C0839B
:102B9B00C082C0D075D008C0FF75FF01E5D530E607
:102BAB00047F028009E5D57F0030E7027F018F1893
:102BBB00E51864026002816CE51412135E2BE101CF
:102BCB002BF4022C58082BFF092C0A0A2C180B2C5F
:102BDB00350C00002DAC75FF0175C355151AE51AA0
:102BEB006002A1AC751402A1AC75FF0175C3F07541
:102BFB001409A1AC75FF0175C35575140AA1AC7509
:102C0B00FF01900565E0F5C375140BA1AC75FF01D1
:102C1B00900552E0F5C3751401751A14900573D124
:102C2B00776002A1AC75140CA1ACAB1CAA1DA91E3C
:102C3B00B1F7AD16AF1FD181121CF075FF00D16E2D
:102C4B0043FA0475FF00714B751408A1ACC2EB7508
:102C5B0014004315041217AD4002A1AC12163CA18F
:102C6B00ACE51864016002A1ACD14F4002A1ACE508
:102C7B0010705EB1DF121248E5D9120E77B1D3E0B6
:102C8B00900646F0D1E0D1AB900551EFF09006469F
:102C9B00E0FFD394095002A12C900551E0D394028C
:102CAB00400CEFD394AA7F0040027F01800D900669
:102CBB0046E0D394407F0040027F01EF60028061C9
:102CCB00900646E0FFF51675FF008FD9751003A12E
:102CDB00ACE51064036002A1ACB1DFB1C8E5D91259
:102CEB000E7775FF00900551E0C39403E5D35005B3
:102CFB005402FF80035401FFEF602A30E111C390AF
:102D0B00055FE094FF90055EE094FF5014800FC3C5
:102D1B00900561E094FF900560E094FF500312165C
:102D2B003C716D807CC254121E6875FF00B1EEE5DC
:102D3B00D120E0FBC2EB431502B1C0E0FF9003C210
:102D4B00E0FEEF6EFF851282851183E09003C1B127
:102D5B00B9A3E09003C3B1B9A3A3E0FE9003C4E011
:102D6B00FDEE6D4F6012C3900563E094FF9005621A
:102D7B00E094FF500312163CC390055DE094FF9066
:102D8B00055CE094FF500312163C75100090055142
:102D9B00E0B403071516B1D3E516F09003C0E516A2
:102DAB00F0D0FFD0D0D082D083D0F0D0E032FEE094
:102DBB00FDEE6D4FFF851282851183A322121248FF
:102DCB00E92401F9E43AFA22E5122407F582E43505
:102DDB0011F5832275FF01F5EA75EAFF900555227F
:102DEB00E4F5FFE5D154FE4402F5D122E4F5FFE909
:102DFB00D165EA540F42D62290062EEFF090055380
:102E0B00E0FFD19B90062FEFF0900553E024FD607F
:102E1B001304700890062D7404F0800E90062D7428
:102E2B0008F0800690062D7402F07F01120CD190F1
:102E3B00062FE090062DD156E4902F0BF012238E27
:102E4B0050EDD322E5F754C024FF22FFE0FDA3E0B1
:102E5B00FB2233333354F8F5F422F5D7E4F5FF5363
:102E6B00D6F022E5D254804414F5D22274FFF5F04B
:102E7B00120F4845F022E4F5FF8FD4F5FFCFEDCFCD
:102E8B008FD522C8ECC8C9EDC9CAEECACBEFCB228D
:102E9B00EF24FD600680007E018002E4FEAF062277
:102EAB00EF24FE600C24FE600580007F01227F0270
:102EBB00227F0322E4F5FF75D102E5D120E0FBE48C
:102ECB00F5D1F5FFEFD165EE540F42D6E4F5FFCF08
:102EDB00EDCF8FD422E5F75406FFBF06037F082200
:102EEB00E5F75406FFBF04037F0422E5F75406FF02
:102EFB00BF02037F02227F012290062A121251F198
:102F0B003DE51B120E7790062AB1C8E4F13AE9248D
:102F1B0002F14390062AF14BF9E43AFAE513F13A40
:102F2B00E92404F14390062AF152FAE4020E7712D7
:102F3B000E7790062A021248F9E43AFAE4020E7769
:102F4B00121248E9240322121248E92405F9E43A43
:102F5B00229003C8E0B4020D8F1B9005F0E0F5132F
:102F6B00120B05D322C322E51754F0C4540F2FFFC5
:102F7B00C3941040027F0FEF9004A993FF227E10A1
:102F8B00EE60091EEE9004A993B507F4EEC3940E00
:102F9B0040027E0DEE90049B93FF22C2AFEF4215D1
:102FAB00D2AF22751401751A13900565EFF09005D9
:102FBB00537402F0ED90057330E507E4F0A3743A17
:102FCB00F022E4F0A374E6F022900573E0A3E0FF97
:102FDB00227D02121D29EFC36001D322E4FFFEFD07
:102FEB00FC90056612413290056A12413290056ED3
:102FFB000211FFEF1230081211A202118825E025F1
:10300B00E02466F582E43405F583229003C1E0F4F5
:10301B00FFA3E06FFFA3E06FFFA3E06FFF645560BA
:10302B0009EF644A6004EFB40A010F900552EFF008
:10303B0022A2EB924CC2EB7A0579587B017D0CE412
:10304B00FF12086CA24C92EB22A2EB924DC2EBEB5F
:10305B00C0E0EAC0E0E9C0E07B017A057958902F27
:10306B0028121251D0E0F9D0E0FAD0E0FB7F0C121D
:10307B000899A24D92EB22C003C002C0017B017ADA
:10308B002E79FC902F28121251D001D002D0037F41
:10309B0002020899902EFEEEF0A3EFF022EF7011D2
:1030AB00ED600775FF0143AE012275FF0153AEFEC4
:1030BB0022EFB40110ED600775FF0143AE022275DC
:1030CB00FF0153AEFD22EF600775FF0253E6BF22EF
:1030DB0075FF0243E64022EF14600F1460142402C4
:1030EB0070188B8075FF018DFD228B9075FF018D04
:1030FB00C9228BA075FF018DCA22AF038FB075FF5C
:10310B0001AF058FCB22902F02121251EF146011D9
:10311B001460182402701E314BE5803151E5FD809F
:10312B001C314BE5903151E5C98012314BE5A03193
:10313B0051E5CA8008314BE5B03151E5CB020E7732
:10314B00902F05021248120E7775FF01902F020285
:10315B001248E4F5FFAF9122E4F5FFAF9222317EE6
:10316B00AD94EF4D318A8FF0120FD7E591C330E755
:10317B0001D32275FF03AF93EF75F010A4FF222448
:10318B00FBFFE5F034FF22E4F5FF75C2E17F1E1271
:10319B001FEC30E707E4F5FF75C2A122E4F5FF75DC
:1031AB00C28122902D961211FFE4F5FF75BB0575B8
:1031BB00BB8575FF0175D502204F087F3FFE121EA0
:1031CB00FC319275FF0143D520304F024174E4F579
:1031DB00FF538EF7438E077D04E4F5FF8DBCF5FF9F
:1031EB0043B102E5B130E2FBE4F5FFAFDFEFFEAC3C
:1031FB00DEECFBEBFFED25E02494F582E4342D515E
:10320B0099E4F5FFF5FF53B1FD0DEDB40CCB902D0B
:10321B00961217ECFF7809121162A3EEF0A3EFF0F0
:10322B00E4FDED25E0249EF582E4342DF583E0C327
:10323B0013FAA3E013FB518EF583D18F2BFFEE3ADC
:10324B00FE518E5199ED240490120DF0EDC39407AD
:10325B005017CFEDCF0DEF518FF58351A1902D9BD3
:10326B00E09F902D9AE09E50B9E4F5FF758EC8F55E
:10327B00FF90120DE0F5BCE4F5FF75BB8075FF0107
:10328B00F5D522ED25E0249CF582E4342D22F5833F
:10329B00EEF0A3EFF022E0FEA3E0FFC32271C01219
:1032AB001251902E1A121248902E1DD14D902E169F
:1032BB001211A271E35002617F902DC6E024FFFF33
:1032CB00902DC5E034FFFEE4FCFD902E161211BECE
:1032DB00121120902E1FEEF0A3EFF04E6045902EB2
:1032EB001F51A1902DC6E09FFF902DC5E09EFE9033
:1032FB002E1FF0A3EFF0902E1DE0FCA3E0FDD39F5B
:10330B00EC9E5006A3ECF0A3EDF07181121248E98C
:10331B004A600A902E1FE0FEA3E0FF804A7E007FEA
:10332B00008044902E1DB1D76048902DC5E0FCA3C2
:10333B00E0FDD3EF9DEE9C400A902E1FECF0A3ED29
:10334B00F0800D902E1DE0FFA3E0A3CFF0A3EFF0D4
:10335B007181121248E94A600A902E1FE0FEA3E029
:10336B00FF80047E007F00902E1BEE8FF0120F4823
:10337B0080B1D322C322902E1A121248902E1FE036
:10338B00FFA3E0902E66CFF0A3EFF0902E16121154
:10339B00A21206F2902E1FE0FEA3E0FFC3902E1E9A
:1033AB00E09FF0902E1DE09EF0902E161211BEE4C1
:1033BB00FCFD120FF6902E161211FF902E1A22748E
:1033CB0005F0902F11B1DEC007902F11121248900B
:1033DB002F14D1ADD00741A8902CC51211FF902C02
:1033EB00C9121251E4902CECF0D3902CCDE0941E2A
:1033FB00902CCCE094004001227B017A2C79CE906A
:10340B002CCCD1A0902CC51211A21215EA902CC96C
:10341B00121248E94A600B902CECE0F582915EFFAA
:10342B0080027F00902CECE024CEF582E4342CF566
:10343B0083E06F6002C322902CECE004FFF0D3908A
:10344B002CCDE09F902CCCE0940050C1221212485E
:10345B001E8E82758300020DF5902FA591D5E58FF9
:10346B0020E0FB91DCE4FF902FA51212488F829194
:10347B005EF5930FEFB410EFE4FF902FA8121248F4
:10348B008F82915EF5940FEFB410EF22902EB991CD
:10349B00D5E58F20E0FB91DC7E10902EBC9158F58A
:1034AB0093EE70F67E10902EB99158F594EE70F65F
:1034BB007F0191ECD197EF70FB7E10902EBF121213
:1034CB00481E8E82D15AEE70F22212125175FF01F4
:1034DB002275FF01538F0675FF01538FF075FF01A6
:1034EB0022EFB40107D1794401F58F2275FF01E575
:1034FB008F54F04406F58F22E4902FEEF0A304F0E6
:10350B00E4902FF1F0E5FA30E1FB75FF01E5D530E2
:10351B00E7037F0022E4F5FF75E50875FF0153D83B
:10352B00EFE5D530E61A75FF01902FF0E5DAF0E400
:10353B00F5DA75FF01E5D630E3FB902FF17401F05E
:10354B0075FF03759B0475FC4175FF03E59B30E725
:10355B00FBE4FB75FF038B951217DEFF1226E50BC1
:10356B00EBB403EF75FF03759580E4F5FF758EC81B
:10357B00319275FF0153D5FB1227F0121EF875FF20
:10358B000143D504902FF1E070081227F07FC81289
:10359B001EFA7B017A2F79EFD1BA902FEFE0902FA3
:1035AB00EE7006E04404FF8002E0FF902FEEEFF098
:1035BB0090120EE0B4010675FF0143D81075FF01A0
:1035CB00902FF0E0F5DA902FEEE0FF22E0FEA3E083
:1035DB00FF4E22121251E4FCFD2290304FE075F0A9
:1035EB0005A42411F9742B35F0FEAF017B017A2C65
:1035FB0079F3902F687405F0902F65B1DEC00790BA
:10360B002F65121248902F68E0FF902E6FE4F0A305
:10361B00EFF0D0070215EAAF017B017A0579DC9058
:10362B002F687402F0D1039005DCE022902F18B1C3
:10363B00DEC007902F18121248902F1BD14DD007C8
:10364B0061E3E0FFA3E0902CCCCFF0A3EFF0227569
:10365B008300E593020E899030AC91D5E4FF903056
:10366B00AC1212488F82D15A0FEFB410F12275FFB2
:10367B0001E58F54F622D1794408F58F2271CD7470
:10368B00FFFDFC22E0C313FEA3E0132275FF01E54F
:10369B008F5401FF22E0FFA3E0902E6FCFF0A3EF3A
:1036AB00F022E0FFA3E0902E1DCFF0A3EFF022C29B
:1036BB004E75FF03759B1F75FF0390120FE020E7FC
:1036CB001BE59A540FC394024012E04480F0E4F5DA
:1036DB00FF75C2A143FC0475FF03D24EE5FC30E637
:1036EB0009E59A540FC3940540CDE5FC30E611E48F
:1036FB00120E7775FC80F5FC75FC40E5FC20E6FBB3
:10370B00304E031226A222902FFAF1ACEBF0F19A75
:10371B007D01FC120394AC00AD01AE02AF03C006F9
:10372B00C007902FFAD18FFBAA06E4F9F8D007D087
:10373B0006D312113B7E0050047F0180027F00C034
:10374B0006C007F19A7D01FC120394D0E02FFFD045
:10375B00E03E902FFAF0A3EFF053ECFC902FFAE041
:10376B00FCA3E0FDEC540342EC75FF02EDF5AF75E5
:10377B00ED0275ED04A3E0600543EC08800353EC08
:10378B00F7902FFDE0600443EC042253ECFB2290F6
:10379B002FFAE0FEA3E0FBAA06E4F9F87F807E385F
:1037AB0022EEF0A3EFF0A3EDF0A322C2ACE4F543BD
:1037BB00F542F541F53FF540F53E7B017D01F112F8
:1037CB00D2AC22EF30E00E43F401E4F5FF43A40446
:1037DB00F5FF759624EF30E10E43F401E4F5FF435A
:1037EB00A408F5FF759624EF30E20943F402E4F5E3
:1037FB00FF75961EEF30E30943F404E4F5FF75966D
:10380B001075FF01EF5403600475D7122275D72D85
:10381B0022E4F5FF7584E6F5FF439404F5FF7598F4
:10382B001422E4F5FF75933F75FF03759A40111C45
:10383B00E4F5FF759C93F5FF75A1A3F5FF75853135
:10384B00F5FF758628E5FA54304480F5FA75FF01CB
:10385B0075E74A75FF0275DF4975FF0143D30475A0
:10386B00FF0153D367E4F5FF53E6BF75FF0175D82E
:10387B0025F5FF75B503F5FF75B215F5FF75BA02A2
:10388B00F5FF75AFB3F5FF75CD0AF5FF75CB08F5F1
:10389B00FF75CA12F5FF75BF0EF5FF75CC96F5FFD8
:1038AB00F5BDF5FF75C281F5FF75AEE1F5FF75DA74
:1038BB0055F5FF75F580F5FF75E903F5FF75E933F0
:1038CB00F5FF75972A75FF01759B42759CA4759D35
:1038DB0029759E48759F2475A11275A312759AF8C8
:1038EB0020510CF5FF43968090120FE04440F022DC
:1038FB00CCEFCCCFEDCF74017E00C8EFC8088005AC
:10390B00C333CE33CED8F9FFCDECCDEF5D601B309A
:10391B00501875FF0175DCAD75FF0175DDCDE4F554
:10392B00FF759A74F5FF7594842275FF0175DC534E
:10393B0075FF0175DD33E4F5FF759A14F5FF75948A
:10394B000422316753DB7F75FF0175D502121EF818
:10395B00316743DB8075FF01E4F5D52275FF014329
:10396B008E1075FF012275FF0175E46575FF0175FA
:10397B00D6472275FF01E5D530E602C32253FACFB5
:10398B00EFB4080543FA308012EFB4040543FA2074
:10399B008009EFB4020543FA108000D322E5F454FA
:1039AB0018131313541FFF2231DFAFD922E4FFE5A5
:1039BB00F754C0600280F175FF01E5D530E30D319E
:1039CB00D850F431B3EF60EF31D850EB2275FF01D3
:1039DB00E5E4332275FF01E4F5EA75EAFF22E5F72A
:1039EB0030E510E5F754C070051224AA40F01227F9
:1039FB00F0C322D322EF600775FF0243E610227556
:103A0B00FF0253E6EF22E5ED30E2FB75ED04AFEF7D
:103A1B002212005EAFEF22C0E0C0F0C083C082C0B4
:103A2B00D075D000C000C001C002C003C004C005E7
:103A3B00C006C007C0FF51BAEF602812005E511FCD
:103A4B00E53EC394204003753E00E542C3942050ED
:103A5B000FAE3E053E74852E51C0EFF0054280033C
:103A6B0075422051B4EF6024120066E543D39400F5
:103A7B00401AE54194204003754100AF4105417464
:103A8B00A52F12178CE0FF12003E1543D0FFD00775
:103A9B00D006D005D004D003D002D001D000D0D0B6
:103AAB00D082D083D0F0D0E032E5ED5402FF22E596
:103ABB00ED5404FF22F582E4342CF58322E540C358
:103ACB0094204003E4F540AF40054074852F51C06E
:103ADB00E0FFC2ACE542D3940040021542D2AC22C7
:103AEB00E5ED20E0FB8FEF22EF600443EC04225363
:103AFB00ECFB22EF600443EC082253ECF722902DF1
:103B0B00BEE0120E77902DC3E0900001120E89904B
:103B1B002DC4E0900002020E897B017A2D79C17DC4
:103B2B00017F03120B4B7A2D79CA7F0891F77A2DFF
:103B3B0079C77F0991E67A2D79C57F0B91E6902D98
:103B4B00C51235D76006BEFF1BBFFF18902DCAE00C
:103B5B0024FD600304700491ED8009902DC5E4F001
:103B6B00A37440F0902DCAE024FD6003047008900C
:103B7B002DC27403F08006902DC27402F0902DC1FB
:103B8B00E012135E3BAB043BB6143BBE153BC617B2
:103B9B003BDC303BE4343BEC363BF43700003BD1B1
:103BAB0075FF015330EF8530FD804775FF015331B1
:103BBB00EF800E75FF015331DF800675FF01533126
:103BCB007F8531C9802C75FF015332DF8532CA8066
:103BDB002175FF015333FE801675FF015333EF80C0
:103BEB000E75FF015333BF800675FF0153337F857D
:103BFB0033CB1214DB7F1191D8E4FF121747121449
:103C0B0056902DBF7402F0902DC3E0247F60090401
:103C1B00701691DE740A80071207CE91DE7458F08D
:103C2B00902DC27403F091ED902DC4E0F4600281ED
:103C3B00D5902DC7E0FEA3E0FF64104E7006902DCB
:103C4B00C4740EF0EF64204E7006902DC4740FF008
:103C5B00EF64404E7006902DC47410F0EF64804EEC
:103C6B007006902DC47411F0E4B5070AEEB401068A
:103C7B00902DC47412F0E4B5070AEEB40206902D31
:103C8B00C47413F0E4B5070AEEB40406902DC474A3
:103C9B0014F0E4B5070AEEB40806902DC47415F0C1
:103CAB00E4B5070AEEB41006902DC47416F0E4B513
:103CBB00070AEEB42006902DC47417F0E4B5070A7A
:103CCB00EEB44006902DC47418F0021555EF442045
:103CDB00F5FE227F1091D8902DBF227B017D020231
:103CEB000B4B902DC57401F0A3E4F0227B017D01F9
:103CFB00020B4B902DC0E0FF22E4902DC0F022E48C
:103D0B00F5FFEFF5D8E4F5FF53D60FEE540FC4F8DB
:103D1B0054F0C8E4C4540F4842D622E4F5FF8FD4C4
:103D2B0022E4F5FFE5D1540133333354F8FFE4F5C6
:103D3B00FFE5D354074FFF22EFB40109D2AD75FF56
:103D4B000143AE4022C2AD75FF0153AEBF22E5C8A1
:103D5B005402FF75C80222E5C85401FF22EF60042C
:103D6B00902EB5F0900536E0FF9005261212481202
:103D7B0008E9900536EFF06044201E41902EB3E029
:103D8B00C330E501D39222902EB6B1ED902EB4E064
:103D9B009005B6F0902EB2E09005B7F0A3743DF00D
:103DAB00A37468F0900536E0FBB1E6EF7023902E1C
:103DBB00B57402F0902EB0B1DD7F028011902EB55C
:103DCB00E0FF902EB0E0FCA3E0FDF5828C83121394
:103DDB008822E0FEA3E0F5828E8322AD50E4FF0241
:103DEB000B871212489005B3021251902DCB121F64
:103DFB00F4902DD67403F0902DD3E05437F0E0FE01
:103E0B005420902EB3F0902DD4E0FDA3E0902EB073
:103E1B00CDF0A3EDF0902DCF121248902EB61212CA
:103E2B0051902DD2E0902EB4F0902DCC12124890E0
:103E3B000526121251EE4420902EB2F0E4902EB5CE
:103E4B00F0C21EF549902DCC121248AF491208E969
:103E5B008F49EF602A7D03120AB040E9902DD2E022
:103E6B00D3941940037F0022AF49120AAB5008903C
:103E7B002DD67401F08008902DD67402F080C69078
:103E8B002DD2E0D3948240037F00227F02120B23BA
:103E9B00902DD7121251EA494B605F902DCBE0FF6A
:103EAB00902DD7121248E924B6F108902DD3E0FEDD
:103EBB0030E01EE4900536F0F110EE6401A3F0A3A0
:103ECB00743DF07468F119121248902DD6E0FF8002
:103EDB0021902DD6E0FFF110902DD3E090059CF0B2
:103EEB00902EB0E0FDA3E090059DCDF0EDF1191201
:103EFB0012487D02120B7D7F01227F0022F9E43AEA
:103F0B00FAEF020E77902DD2E090059BF022A3F0F2
:103F1B00902DD712124890059F121251902DCF223F
:103F2B00C003C002C001902E58121248902DCF1220
:103F3B001251902E5BE0902DD2F0902E5CE0902DE4
:103F4B00D3F0902E5DE0FFA3E0902DD4CFF0A3EF44
:103F5B00F0D001D002D003AF50A1F6E4FF30330311
:103F6B007402FF22200005D2150209E8C322C2AC5D
:103F7B001207F6EF7004E54360047F0180027F00B7
:103F8B00D2AC22C2ACC374209543FFD2AC2275FFD6
:103F9B0001E58F5408FF22EFB4010775FF0143AE13
:103FAB00202275FF0153AEDF22EFB4010775FF012D
:103FBB004391202275FF015391DF22C20A7B007AC5
:103FCB00007950902F6C1212510B7A0379C122E9B0
:103FDB00240BF9E43AFA22121248020DDCF9E43A06
:103FEB00FAEE8FF0020FD7120E7790284A02124882
:103FFB00FDEF4DFFE5F08FF0020FD72408F9E43AFF
:10400B00FA22121248E924BDF9E43AFA22E0FEA39F
:10401B00E0FFF5828E8322E92404F9E43AFA2212B6
:10402B001248EA494B22902D8DE0540F640622D2A0
:10403B00217B017A05792022E924FFF9EA34FFFA82
:10404B00020DDCF07B017A29794F222407F9E43A3F
:10405B00FA227B01902F3EF02235F0FEAF017B015F
:10406B0022F0A3F0A3F0A322240AF9E43CFA020DF8
:10407B00DCE4900564F07B017A0579720208D5FFC8
:10408B008D828C83021388E0FFA3021248E9242D52
:10409B00F9E43AFA7D04E4FF22E92402F9E43AFA5E
:1040AB00121266E922C3E99FF9EA9EFA22E924205B
:1040BB00F9E43AFA22F0902A2D7401F022EB240154
:1040CB00FFE43AFEEF780322902F14E4F0A322E9E9
:1040DB00242CF9E43AFA7440227B01902F3EF02213
:1040EB00FFE0FCA3E0FD2275F005A424F3F97400B6
:1040FB0022121251020DDC7407F0E4A3F0227A05B0
:10410B00794D7F04222FF9EA3EFA020DDC74077514
:10411B00F0D0020FD7FF7B01E4902F44F0227B01FC
:10412B007A2F79AE7F02221211FFE4FFFEFDFC22F3
:10413B00EEF0A3EFF07B01222DF582EA3CF5832212
:10414B007438F0A3741FF022F0A3EDF0E4A3F02277
:10415B00E0FEA3E0FF7C0022F582E43405F5832228
:10416B00902E93F0A3EFF022FF54F0C4540FFE22D5
:10417B007401F0AE04AF0522AA06A907021384AF9F
:10418B0003EAF0A3EFF022E475F002020F4890036C
:10419B00C1E0C394C022F582E43EF583E022901285
:0E41AB000EE0D39401229003C1E0FFA3E022B6
:107F7E000200022B162FCF02043D022FD12FFF003D
:107F8E00330405220230043806080705052202389C
:087F9E000B38190013FF052246
:107FB000FFFF161616FFFFFF7FC60000000000003F
:067FC000000003080000B0
:10800000EF547024F0602624F0603C24F060522489
:1080100030706730560B117E8002C333D8FC42802B
:1080200022117E8002C333D8FCF452802230560BDA
:10803000117E8002C333D8FC429022117E8002C39D
:1080400033D8FCF452902230560B117E8002C33399
:10805000D8FC42A022117E8002C333D8FCF452A087
:108060002230560B117E8002C333D8FC42B022115D
:108070007E8002C333D8FCF452B02275FF01EF5466
:1080800007FF7401A8070822EF547024F06017243A
:10809000F0601E24F060252430702B117B8002C319
:1080A00033D8FC42FD22117B8002C333D8FC42C985
:1080B00022117B8002C333D8FC42CA22117B80028A
:1080C000C333D8FC42CB22EF547024F0601824F064
:1080D000602024F060282430702F117B8002C3338D
:1080E000D8FCF452FD22117B8002C333D8FCF45239
:1080F000C922117B8002C333D8FCF452CA22117BFF
:108100008002C333D8FCF452CB229030BDEFF0A3F1
:10811000EDF09030BDE014315112069BAD07903068
:10812000BEE060109030BDE0117F8002C333D8FC08
:108130004DFD800F9030BDE0117F8002C333D8FC2D
:10814000F45DFD9030BD31521207E99030BEE0FF82
:1081500022F0E0131313541F7E00249FF9EE342FF6
:10816000FEAF0122903067EEF0A3EFF0A3EDF0E058
:10817000FF14F0EF7002C32212F2BF903067E034B8
:1081800000FE12069BAD07305E10903069E0117F53
:108190008002C333D8FC4DFD800F903069E0117F21
:1081A0008002C333D8FCF45DFD12F2BF903067E06B
:1081B0003400FE0207E99029A7E0FF9030F0EFF0CD
:1081C000E547B55003D38001C350099030F012B792
:1081D0003030E70F7E1F7FCA9030F0E0FDD25E3175
:1081E00064C21A902944E070090412EE1612EA43A0
:1081F000B1FD229030F9EFF0C003C002C001A80128
:10820000AC02AD03D001D002D0037E007F13120D6B
:10821000B69029A6E012135E82430182F2028545E0
:1082200003855A0484CD0584EF068515078561080A
:10823000857D0985930B85C40C85AF0F858510005E
:108240000085ECE490297EF030273112E6AB702CEB
:108250009029A7E064EF70179029ACE020E7101296
:10826000B724600B9029A8E0FF129DEE12C78F90F3
:1082700029A7E0B4EF06A3E0FF12DCECC2219030A6
:10828000F9E0C37001D3921BC206E490294BF09031
:1082900029A67402F09028F8E0FFB4030A9029A8F8
:1082A000E09029A7F0800FEF640160079028F8E0C4
:1082B000B4020312DE4F9028F8E07F06B403027F79
:1082C000019028CCEFF09029ABE0FE30E502D222FD
:1082D000B1F19005B67401F0EE12BD309029A7E01F
:1082E000FB90297EE0FFAD50120B87EF6002A1ECFE
:1082F000819EE4902925F09030F9E0700261BA90F7
:1083000028CCE014F07015E07008301B0F12F35009
:10831000600A9028F8E06401600261BA9028CCE01D
:10832000601F9029ABE0FF30E502D222B1F1740169
:1083300012BD2B9029A7E0FB1297BD6002A1EC8132
:108340009E12F350707D9029A6F09029ACE020E7B2
:108350005C9029A8E0FF12DCEC9029A8E0FF7D01E9
:1083600012DDDE20170512B72460479029A8E0FF30
:10837000129DEE12C78F301A28300C25E547602178
:108380006550601D12DF749029A8E090294DF074AB
:1083900005B1ED9005B674091297AE6002A1EC81AB
:1083A0009E201A0E9029A8E0FF31BB8005E4902999
:1083B000A8F09029A8E0FDA381E7C21B9028F8E06F
:1083C000B40307E4FBFD7F23A14212F3C36007EF70
:1083D00064026002A1EC9029A7E0FF12B5DD9028AD
:1083E000B4EFF09029A7E0FF12AEB012C78F90292A
:1083F000A7E0FD12E740FB7F2112E452201A028120
:10840000A1200C0281A1E547700281A19029A7E07B
:108410006547700281A1E5476550700281A19028EF
:10842000B4E060079028FDE030E176740612D29245
:10843000740D12E72CF09029A9E090297BF024FE1E
:10844000FF12AEDFF1447A29794E12AD0890294F20
:10845000E020E10B12F38512F2E2F14412AF92D167
:108460004712B0E890297BE004FF902937F012F121
:108470008B12F203E94A7016902937F07406B1EDB9
:1084800090297BE0041297AB6002A1EC8010902948
:1084900037E0FF7B01F140D14712AD0831B602E76A
:1084A0006F201A0231B612E7636002A1EC9029A78F
:1084B000E0FD12E740FB7F2212E4523017099028BA
:1084C000B4E0600302E515E49029A7F02212F2D08F
:1084D000700B9029A7E0FFD11C3002032231B69027
:1084E00029A7E0FD9029A9E024FBFB7F21805312FE
:1084F000F2D09029A77006E0FFD11C8004E0FF3184
:10850000BB12E7636002A1EC9029A7E0FD12E740EF
:10851000FB7F22802D9030F9E070159029A7E0FFB5
:1085200012D5D3EFD394024009E4902D8DF0800250
:1085300031B6902D8DE0540F700312DF9E12E6A32A
:108540007F2202E452F13912D9502406FEE433901E
:1085500029ADF0A3CEF07F2F802812F31F7F7C80FF
:1085600021F13912D95025E0FFE433FEEF2407FF53
:10857000E43E9029ADF0A3EFF07FB4800512F31F25
:108580007F7C02EA5812BB107E0A7F01E4FB7D1457
:1085900002C0009030F9E070147C0A7D4C74141213
:1085A000F283F0B1FD90294AE070418014801212EC
:1085B000F2D0700DD1177C0A7D47746412F283806B
:1085C0002102D4739030F9E0701B9029A6740DF04D
:1085D0009029297480F07C0A7D06743E12EA38A343
:1085E00074FFF08018E49029A6F0D14D229029A6BE
:1085F000F07B017A29794B9005B3021251902F53E9
:10860000E0902F3EF0902F54E0902F3FF012AFF902
:10861000EF700312D3C1229028BAE0FF9030F1EF3F
:10862000F0FD7E1F7FCAC25E3164D147E94A601601
:1086300012A01BFF9030F1E0B5070B129DE512F27E
:1086400003E4902937F022902926021248902D8DBC
:10865000E0540F6003C202227F011219DB12BAE854
:10866000301A02E138D248120036200205E4902880
:10867000BAF0D2029028BAE004F0D394E84002E1C4
:10868000357E1F7FCAE0FD12D67C4002E130E5470F
:108690007004D117E135E547B550079028BAE0FFDF
:1086A000C11C9029A6740BF0D147E94A602312A09F
:1086B0001BFF9028BAE0B50718902937E0FF9029F2
:1086C0007BF0D147F1447B017A29794B12AD0880C8
:1086D0005290297B740912D295740DF09028BAE05B
:1086E000FF90294DF012B5DDEF60269028BAE0FF2B
:1086F000F13912ACAC90294FE020E11C90297BE0CD
:1087000014F012F2E2F14412AF92E4902953F08097
:1087100007F1397D0512C770E4902954F090297B48
:10872000E004F0B1F190297BE01297AB700A80056C
:1087300012165AC17412D473227B017A29794E22FF
:108740007A29794B902F28021251902DDA1212516A
:10875000902DDDEDF07401C39D4003029719902D1B
:10876000DE123FE2902DE1F0E9240112A01E902DCF
:10877000E3F0902DDE12A018902DE2F01228AA400E
:10878000FB12165A12A999120DDCFFC39420403235
:10879000EFD394FF502C902DDDE0FD949F5023905B
:1087A0002DE1E030E70302971912A01B902D90F005
:1087B000902DDE121248902F5912125112A99902CF
:1087C0000CC212A999120DDC640160030297199082
:1087D0002DE1E030E603029719E9240112A01E12F0
:1087E000135E898C018EA0028EB103904E0490E638
:1087F000058D16068C34078F37088F84098FE40A9D
:108800008FF50B91490D92F40E90420F951F109326
:108810009511949D1294071395821588341696AD80
:108820001990011A88E41F89562097122289802303
:1088300000009719E5476550706E12E35BEF700317
:10884000029719902932740BF012A0157A297989B0
:1088500012412012B17ED20512A015FF12BB901258
:10886000A015FF9029A712AEDE12ACAC9029AB7414
:1088700005F0902930740AF0A3740BF09028F87476
:1088800002F012A015FF902DE3E0B5070CAD5012D9
:10889000B6DA129DEEE4FF804812A01512F2FE1225
:1088A000B6DA12EB4302C000902943E020E0030255
:1088B0009719E547700302971912A0159029A7127E
:1088C000D295741612E72C1285F012D393A3740A72
:1088D000F0A3741A1297BA6003029719FBFAF97F92
:1088E0000202D3EA12D2967420F012A015705790AB
:1088F000294DF0A304F012A999E9240312A01EFF48
:1089000033333354F8902DE4F012A9991240229099
:108910002DE412B4CF7025902DE412B727601D907E
:108920002DE4E0FF129DEE12C78F902DE4E0FD12C2
:108930009DEEE4902FA4F07F20120CCC902DE4E06B
:1089400014F070C58005E490294EF01285F112E90B
:1089500090A304029703902932E070030297191242
:10896000F25A12A999E9240312A01EB4010B12F3C2
:108970006112D08BAD441207E97D02AF480296AB7D
:10898000E53864046006E490297CF022902DDDE057
:10899000C39406E49400500302971990297CE0FFE9
:1089A00060209028F8E0B40314902DE1E030E70354
:1089B000029719902DE3E0FEEF6E600622E4902905
:1089C0007CF012A0155407C39403500912A999E929
:1089D0002404122F4312E6AB701B30271812A999FA
:1089E000E9240312A01E5406FFBF020912F3B2C20B
:1089F00025C227618D300E0261D19029A6E0600268
:108A000061D112F3A912A99912ADDC902DE3E0FC1B
:108A10009029A8F0902DE1E09029ACF07F1030E48F
:108A2000027F00EF4401FF902DE1E0FE54024F90E1
:108A300029ABF012F350704912A999E9240112A050
:108A40001EB4230EEE7F0070027F01EF30E40302BC
:108A5000971920120A9028FDE030E10302971920AF
:108A6000080A9028FDE020E103029719E49029A765
:108A7000F09028FDE07F0030E102AF04902D91617D
:108A80002112A999E9240112A01EB423012212F394
:108A9000C36007EF6402600261C220120A9028FDE1
:108AA000E030E10302971920080A9028FDE020E158
:108AB000030297199028C6E020E00C12403A128772
:108AC0004412410912AD08902DE3E0FF7002619558
:108AD000300B0A9028FDE020E103029719902DE168
:108AE000E020E7649028F8E0B40204C21280351256
:108AF000F368502312E6AB702B9028FDE030E124A0
:108B0000202705EF64EF701C3027047FEF800312ED
:108B1000E5229029A7800A902DE3E0B4EF0612E544
:108B20006FEF806312F3A0FD12E740FB12E6BC601A
:108B3000119029A67402F0129DEEE4FF1281F3D287
:108B40002322E49029A6F02212E6AB6003029719D3
:108B50009028FDE020E10302971930270D12F368F9
:108B60005008902DE474EFF080139029A7E0700571
:108B700012E6B480089029A7E0902DE4F0902DE44F
:108B8000E0FF60069029A7F0803012F3B2129DEE4C
:108B90007F01020BD79028FDE030E1030297199086
:108BA00029A7E0FF600912B5DDEF6008200B051270
:108BB000E56FEFF09029A7E0600302E6C5E4FBFD56
:108BC000C19B902DE312E738902FA4F07F84020C14
:108BD000CC9029A6E0640D6003029719902DE3E084
:108BE000FF9028BAE06F600302971912F3A912A947
:108BF0009912ADDC9029AB7421F012F3A012BAF0F7
:108C0000128617E4902925F0D2139028BAE0FF903D
:108C100029A9E024F8FB7D0112CF9112E7686003D7
:108C200002971912E73512E790120CCCE49029A6AE
:108C3000F002864D9029A6E0FF64036004EFB408BB
:108C40000302BBC2902D8DE0FF30E53212A015FE6D
:108C5000902D90E06E6003029719300E0F902DE377
:108C6000E0FE9029A7E06E6003029719EF54DF90B1
:108C70002D8DF030E703029719E4FF020BEBE54777
:108C800065506003029719902DE3E0654860030288
:108C90009719300103029719902932E0FF640760A9
:108CA00005EF640A703C12A01564027035D2019081
:108CB00028CBE0701BFE7467254812D08B12069BF0
:108CC000EF543F04FD12F36112D08B1207E9803498
:108CD0009028CBE004F012B727702912F3EB40F094
:108CE000802212F3E36008EF64096003029719120F
:108CF000A015FF6401600DEF64036008EF64056078
:108D00000302971912F3E36008EF64076003029708
:108D100019C25D02955C9029A6E0FF64046008EF2B
:108D20006409600302971912BB1012A015FD2403F9
:108D3000F545902DDDE0C395455002C198300E0BEE
:108D400012A71D12D935EF6002C2149029A6E0B413
:108D5000090C12A994AC02AD0112B52F8013902D0D
:108D6000E312B73030E70A12A994AC02AD0112DA6F
:108D70007BE4F54512A015FFE545C39F502474B66A
:108D80002545F582E43429F583C083C082E012A72B
:108D90001CE54512F263FEEF4ED082D083F005450C
:108DA00080D212A015FF902A2EE0FEEFD39E400243
:108DB000EFF0E4FF12EC45EF600122300E032014C7
:108DC00037902DE3E0FD7B017A2979B67F1D12CF24
:108DD000598F45EF7022902DE312BB89600B300C48
:108DE00008902DE3E0FF1281BB7F22300E027F232B
:108DF00012F33312E452C20EE49029A6F012F39754
:108E0000300C2DE54765506027E5476023902DE342
:108E1000E090294DF0902A2EE0FF90294EF07B0142
:108E20007A2979B61287447A29794F12AD088024BD
:108E3000300519C205902DE3E012B4D512BD1B60B8
:108E400013D213902DE3E012CF8C8008902DE3E035
:108E5000FF12D0C9300E0830140512F333803C9055
:108E60002DE3E0FF12BF7E9029A67410F0E5476065
:108E70001F902DE3E0FF12D5D3BF0414902DE3E043
:108E8000FF7C0A7D5112E869500302971902E654EB
:108E9000129DEEE4FF0281F312F3337F2302903F31
:108EA000902DE3E0FF12F2DB4405FDE4FBFA02D96A
:108EB00059902DDDE0C394074003D38001C34003E4
:108EC000029719902D8DE020E403029719200603E4
:108ED000029719300A15C20A7B007A007950902F48
:108EE0006C1212517A00790012AFA712A015700708
:108EF000FBFAF9AF508005129DEE7F0112C78FC2B9
:108F00000612F23F12A015F55012A71D1287441247
:108F100018157F0412AD08121815AD5012B7A31220
:108F2000F2FA120C04E550600302971912AF4512D1
:108F3000AEB07F0102C78F902D8DE020E403029731
:108F400019200603029719902DDDE0FFC39403500A
:108F500006201903029719EFC39403402112A015AC
:108F6000FF30E01AE538B40107EF30E1030297194A
:108F7000E538B40207EF30E203029719D21C12F26F
:108F8000FA020C09C20612A999E9240312A01EFFD5
:108F9000E4FD12CD5312A999E9240512A01E30E177
:108FA0003212A999E9240312A01EFF902DE3E0FEDE
:108FB000B50708EE12D087AD44801512A999E924AF
:108FC0000312A01E12D087E5477DFFB55002AD44C5
:108FD0001207E91240316003029719902DDD12A9A2
:108FE00097020C0E1240316003029719902DDD128A
:108FF000A997020C13902DE3E0FF12A015FD02EBE0
:109000004C12F3BB6008EF6414600302971912A0BE
:1090100015540F602512A999E9240312A01E902966
:10902000A7F0FD7E267F8D1207E99029A6E0641443
:109030006002E119F07F0102BF5DE4FBFD7F2402C5
:10904000E452902D8DE020E402E119D22722300E67
:1090500002E11912E6AB7002E119C206300D02E11D
:1090600019902DDDE0FFD394224002E119D20D12B8
:10907000A9991287447B017A2879CD12AD0812E9AB
:10908000A112F3DB2403FDE433FC902DDDE0FB7A39
:1090900000D312F236400B74D02F12C225E0902973
:1090A00025F012F3DB2404FDE433FCD3EB9DEC64E8
:1090B00080F8EA648098400F74D12FF582E4342858
:1090C000F583E0902945F0902DE3E09028EE12F230
:1090D000DA44019028EFF0D23B90051FE09029364A
:1090E000F0E4FF02C16E300E02E11912E6AB70022D
:1090F000E1199028CD7401F0A3740612F2DA44014C
:10910000902DE5F09028CFE0700204F0902925E042
:10911000FF9028CFE0FE12C223EFF07B017A28797E
:10912000CD1285F7EF7F0070027F01EE2404C39F0C
:1091300012F3CB12F2EC902DE3E0FBF1BD6002E103
:1091400019FBFAF97F0102C14212A015902DE6F039
:109150007002E119902DDDE0FFC39407E494005004
:1091600002E119EFD3942C4003742CF0E490297E93
:10917000F0902932E0FF600FE547B5500A90297E54
:10918000EFF0E4902932F0902932E0600664036049
:1091900002E11912A999E9240612A01E7002418C5D
:1091A00090297EE06002F11A90290274FFF012A962
:1091B00099E9240412A01EFF20E2524404120E7703
:1091C00012A71D12874412AEDF7F047E0012AED7B5
:1091D00012A72BE4902901F0902DDDE0FF24F9FD8A
:1091E000E434FFFCD3ED9400EC94004017EF24F935
:1091F000FF902DDA12A779F9E43AFA12874412AEF9
:10920000B712AD08902DDDE02402F0803D902DDDF9
:10921000E024FD12A71C12874412AEDF12AF4F20CC
:10922000E12812AEDF12A72B902DDDE024FA12A95F
:1092300098E92406F9E43AFA1287447B017A2979FD
:109240000012AD08902DDDE004F0902DDDE024F754
:10925000F545C374239545FD7402254512A7BE90BC
:109260002DE6E0FF12AEB012C78F12D093902932D4
:10927000E0902DE6B4030D12E782120CCC7F0112B0
:10928000D375806612E782120CCC805E902DE612B8
:10929000B7277018902932E0B403047F05617E90EF
:1092A000297EE07002E119902932F022902932E003
:1092B000B4030512F25A8005E4902932F090297E19
:1092C000E0601B902932740EF090297EE548F09002
:1092D0002DE6E0F54890297EE0FF7D03C1AB902D9F
:1092E000E6E0F54812D58612D093902932E060026C
:1092F000E119618912A0157002E119902932E0FF8D
:1093000064036005EF6002E11912A999E9240312D0
:10931000A01EFF902DDDE024FC6F6002E11912A970
:1093200099E92402F9E43AFA1287447B017A29790F
:109330004D7F2112AD0890294EE0FF90294DE0FDB0
:1093400012404F12CF598F45EF700F90294DE0FF1B
:1093500012BB90902932E070192212F39790294D98
:10936000E0FF12D0C9500312D09390294DE0FF12B4
:10937000BF7E902932E0B4030812F25A7F0202D372
:1093800075902932E06002E11912BAE89029297437
:109390001FF002EA13902DDDE0FFD394044002E1B8
:1093A00019EFC394035002E119902DE312B727601F
:1093B0000B902DE312D5B720E102E11912A015FFA1
:1093C00012B5DDEF600D12A015FF12D5BDEF20E143
:1093D00002E11912A01512DCE412F2A3401612A940
:1093E00099E9240312A01E30E006D217D20C8004A3
:1093F000A210920CE547B5500312EACC12DF6812B6
:109400009DEEE4FF02E3E8902932E064066002E1A9
:109410001912A0136064E4F54590294DE0601E85A3
:109420004745902DE3E0F54712F2A3401A12A9999F
:10943000E9240312A01E30E00ED217800A902DE31B
:10944000E0B5470312F35712AD34129DEEE4FF125C
:10945000E3E8129AD760098F828E837F0512138802
:10946000E54560336550602FE54565476029E4FBBD
:10947000FA7D05AF45120C18801D902DE3E0B5472D
:109480000E12F35712AD34129DEEE4FF12E3E81210
:109490009AD7600312D79F12DF6802D3C19029B018
:1094A000E0FF604312A013603585504712F2A340DD
:1094B0001FEF30E01B12A999E9240312A01E30E02F
:1094C0000F902DE312D086AD441207E9D217D20CCB
:1094D00012CF74AD077E1F7FC81207E98003E4F541
:1094E0004712AD3412DF6812D2967413F09029B08F
:1094F000E07F0060027F8090294DEFF07F00301701
:10950000027F0190294EEF1285F012E99012F2DBF2
:1095100044059005B7F0A37409F0A37443E108E48F
:10952000902DE6F0E5476550703512E35BEF70254E
:10953000902DE3E0B54815902932E0FF7407D39FE2
:10954000500A740AC39F40047F0180027F00902D5F
:10955000E6EFF0600A740712AFE8D25D02D10312A1
:10956000E35BEF6010740F12AFE87A097B527D0164
:10957000AF48020C18902DE3E0FF65487002E11936
:10958000C16E300702E119E54765506034E5476078
:109590001E20001B12AFECD218129DEEE4FF12E762
:1095A000CAEF6002E119C218902DE3E0FFC16E120C
:1095B000F38EE54760073000047D0480027D05C11D
:1095C000AB12E35BEF7002C196300002C19612AF9E
:1095D000ECE4902930F0A3F0902DE6F07545057489
:1095E0007E2545F582E43429F583E4F0D545F090F5
:1095F0002DDDE0D39402404F902DDB124192E49098
:10960000297EF0902DDDE024FEFF90297EE0FEC350
:109610009F503112A999E92E12A01EF545601DFF39
:1096200012B5DDEF7005E545B4EF0B90297E12E829
:109630005EE545F08006902DE67401F090297EE00D
:1096400004F080BF12165A7E267F51AD4812D67C98
:109650005006902DE6E06037902DE6E060147C091E
:109660007D75AF4812E9C1401D902DE3E0FF7D04F8
:109670008039D218129DEEE4FF12E7CAEF7007C2DC
:109680001812F3D38025902932740BF002D31E12E6
:10969000F38E7D02801512165A902932E0B40B0821
:1096A000902DE3E06548607112F3D38071E5476562
:1096B00050706630176390294B04F0A3741AF0E4DD
:1096C000F54512A015540FFFE545C39F501C12E647
:1096D000B46017E0FFE5457C007B01244EF9EC34D3
:1096E00029FAEF120E77054580D890294DE545F00F
:1096F000902DE574051285F0E545240312F3CBE0C7
:109700009005B7F0E4A3F0A3F0902DE312D9B102D5
:109710000B8712A015FF12F011227D03AF48903085
:10972000C1EFF0A3EDF030071D902932E0B40E0B2D
:10973000129DEEE4FF12D57FD207229030C2E06482
:1097400004605202D3C1D20712C77E740BF090306E
:10975000C2E09028C9F0902932E0640E701CF196A6
:109760001285F712D393A37409F0744D12F3F3F139
:10977000BD7022FBFAF9FF02D57FF1961285F71230
:10978000D393A37409F0744812F3F3F1BD7006FB90
:10979000FAF9FFF19D227B017A2879C722C207904E
:1097A00028C9E06404600312D3C1229005B6F0A377
:1097B0007405F0A3740AF0A37451F0AB47AD50E404
:1097C000FF120B87EF22E490297DF0C2609028F908
:1097D000E0FFC3940450079028F8E0B40109EFC3F8
:1097E000940140030299B29029387401F07F0C3043
:1097F00015027F14902939EFF0300F03029955902C
:1098000028F9E07032902948E0FF12DFB950179034
:109810002949E0FF12DFB9500D902948E0FFA3E08D
:10982000FD12B75A50115194C216E49030F2F05123
:1098300006E4A3510F01F89028F9E07004D2165104
:10984000949028C5E06401706E9028F9E06006905D
:1098500028B5E06062E49030F2F09030F2E0FFC3AF
:109860009404501574B52FF582E43428F583E06034
:10987000089030F2E004F080E17B017A2879B5129B
:1098800087447A29793C7F0412AD0851069028F963
:10989000E0FF511BF09030F2E0FE90293BE02EF00B
:1098A0009028C57402F09028B5EFF09028F904F0E4
:1098B0009028B9E0FF80417B017A3079F2902F84C3
:1098C000121251A260925F7A29793C12EA6B505EC3
:1098D0007B017A29793C9030F2E012F25012C0D22A
:1098E000404851065117F09030F2E0FF90293BE0DC
