:10000000000001209D950000C9950000C9950000E1
:10001000C9950000C9950000C9950000C995000068
:10002000C9950000C9950000C9950000C995000058
:10003000C9950000C8950000C9950000C995000049
:100040003D790000F12C0100C9950000C995000020
:100050005D2601005D2D0100FD2C0100152D010024
:10006000F52C0100E9740000BD7500004179000025
:1000700045920000C9950000C9950000C99500008F
:10008000C9950000C9950000E1750000C995000000
:10009000C9950000C9950000C9950000C9950000E8
:1000A000C9950000C9950000C9950000C9950000D8
:1000B000612D0100F92C0100D513010071770000BA
:1000C000A12D0100C99500000DD40000C9950000C4
:1000D000C9950000C9950000C9950000C9950000A8
:1000E000C9950000C9950000C9950000C995000098
:1000F000C9950000C9950000C995000010B5054CD0
:10010000237833B9044B13B10448AFF300800123C3
:10011000237010BD081200200000000078F00100DC
:1001200008B5034B1BB103490348AFF3008008BD7A
:10013000000000000C12002078F00100154B002B8D
:1001400008BF134B9D46A3F5803A00218B460F460E
:100150001348144A121A13F0CEFC0F4B002B00D098
:1001600098470E4B002B00D0984700200021040038
:100170000D000D48002802D00C48AFF3008013F0AA
:1001800063FC2000290005F01FFD13F037FC00BFC1
:100190000000080000000120000000000000000036
:1001A000081200208C3D002000000000000000002C
:1001B00070B501208EB00C46096806F081FD00285C
:1001C00043D0404A1068516804AB03C3906818607C
:1001D0004FF47A72ADF8222040F20222ADF82420CA
:1001E000ADF8262004AA07CA0AAE86E807006668AA
:1001F00035490B22002301258DF834203046042296
:1002000007938DF820508DF835308DF8363013F087
:100210003FFC70B98DF824508DF82650A06807F087
:10022000E3F843F2C82580B2A84210D9274A212119
:1002300008E002222649304613F02AFC0028EDD0BF
:10024000244A2021206809F00DFB0EB070BDADF8E6
:100250002C00ADF82800E06807F0C6F880B2A8428C
:1002600002D91D4A2221EDE7ADF82E000A38ADF87B
:100270002A00206907F0B8F8184BADF8220007A94A
:1002800018680AF083FC014608B1154ADAE79DF8C0
:100290002600246806F008FD05469DF8240006F0B7
:1002A00003FDBDF822300393BDF82E300293BDF854
:1002B0002C300C4A0C49CDE900032B46204609F0AE
:1002C00079FAC2E7B85701004C5801007158010093
:1002D000CB8101005158010086580100183C0020D4
:1002E000A058010037C20100CF580100F8B50746F9
:1002F0000D460120096806F0E3FC002833D0012FE9
:10030000194C26DD686807F06FF8022F064624D0E6
:10031000A86807F069F80346B6B100B320680AF090
:100320006DFC044628B9114B01220B201A7005F010
:100330000BFA0F4B0F4A28680F49002C18BF1A46BA
:10034000BDE8F84009F036BA206813B10AF05AFC4B
:10035000E7E720680AF04AFCE3E70028F9D02068C4
:100360000AF048FCDDE7F8BD183C00200000002042
:10037000C457010037C20100CD57010038B5012034
:100380000C46096806F09CFCB0B10C4B18680AF0EA
:100390003DFC054628B90A4B022280201A7005F060
:1003A000D3F9084B084A20680849002D08BF1A46AF
:1003B000BDE8384009F0FEB938BD00BF183C002048
:1003C0000000002037C20100C4570100CD570100D2
:1003D00038B501200C46096806F072FCB0B10C4B30
:1003E00018680AF017FC054628B90A4B0222E020DB
:1003F0001A7005F0A9F9084B084A20680849002D31
:1004000008BF1A46BDE8384009F0D4B938BD00BF6E
:10041000183C00200000002037C20100C457010032
:10042000CD5701002DE9F043814685B048680C4660
:1004300006F0DAFF0746A06806F0D6FF8046E068BF
:1004400006F0D2FF0546206906F0CEFFB9F1050F90
:10045000064628DD606906F0C7FF10F1000918BFE5
:100460004FF00109002F0CBF00210821B8F1000F47
:1004700001D041F004010DB141F002010EB141F093
:100480000101B9F1000F01D041F02001184B1868AB
:100490000AF034FC50B1174A2068232105B0BDE8AA
:1004A000F04309F0DFB94FF00009DBE71249134AC6
:1004B0002068B9F1000F14BF0B461346002D14BF7E
:1004C0000D461546002E14BF0E461646CDE90163B3
:1004D0000095B8F1000F14BF0B461346002F18BF4C
:1004E0000A46074909F066F905B0BDE8F08300BF88
:1004F000183C0020D957010037C20100C457010041
:10050000FF57010038B548680C4606F06DFF0D4BEB
:10051000011C054618BF012118680AF0B2FB30B172
:100520002068094A2421BDE8384009F09BB9074BEF
:10053000074A20680749002D08BF1A46BDE8384021
:1005400009F038B9183C00203D5A0100C457010099
:1005500037C20100615A010038B548680C4606F000
:1005600043FF0D4B011C054618BF012118680AF016
:1005700075FB30B12068094A2421BDE8384009F0F4
:1005800071B9074B074A20680749002D08BF1A4672
:10059000BDE8384009F00EB9183C0020F7590100B9
:1005A000C457010037C201001A5A010070B506464F
:1005B00048680C4606F018FF022E85B212DDA068CE
:1005C00006F012FFC2B2084B294618680AF02EFB4B
:1005D000246802F067F8054902462046BDE87040ED
:1005E00009F0E8B80022EEE7183C00202C5A010080
:1005F00070B5064648680C4606F0F6FE022E85B237
:1006000012DDA06806F0F0FEC2B2084B2946186859
:100610000AF014FB246802F045F80549024620461A
:10062000BDE8704009F0C6B80022EEE7183C002093
:10063000745A0100F7B507460D460E46002456F8D9
:10064000040F06F0D1FE0DF804000134082CF6D199
:10065000092F12DD686A06F0C7FEC2B2084B694670
:1006600018680AF0F3FA2C6802F01CF805490246F3
:10067000204609F09FF803B0F0BD0022EEE700BF6E
:10068000183C0020E05901002DE9F0478AB0894666
:1006900080461822002104A813F02DFA4FF0FF33F2
:1006A000CDE9013301AE03934D460DF10207344607
:1006B0004FF0010AD04533DD686806F095FE0AF177
:1006C0000103984527F8020F2ADDA86806F08CFE82
:1006D0000AF102039845F88022DD0022114655F800
:1006E0000C0F13F009FEA31BC3F1200CA3F1200291
:1006F000D84001FA0CFC40EA0C0021FA02F2104347
:100700000AF1030AC0B2BAF10A0F20736073A07332
:10071000E07320746074A074E07404F10804C9D11B
:10072000084B314618680AF07DFAD9F8004001F00C
:10073000B9FF05490246204609F03CF80AB0BDE879
:10074000F08700BF183C00202D59010010B5486803
:100750000C4606F049FE044B044918600246206826
:10076000BDE8104009F026B82412002042590100CB
:1007700073B548680D4606F037FE164B0446024630
:100780004FF0FF3118680AF08FFA38B1124A286822
:100790001F2102B0BDE8704009F064B80F4B10494A
:1007A0002868C4F340021A700E4B14F0010F14BFF6
:1007B0000A461A4614F0040F04F0020614BF0C4651
:1007C0001C460094002E18BF0B46074908F0F2FFA4
:1007D00002B070BD183C00205459010028120020BE
:1007E000AC790100557901006559010038B54868B8
:1007F0000D4606F0F9FD114B044602464FF0FF315D
:1008000018680AF066FA30B128680D4A1F21BDE861
:10081000384009F027B804F00104002C094B0A49BC
:1008200014BF022201221A70084B094A286808BF27
:100830001A46BDE8384008F0BDBF00BF183C002094
:10084000C059010000000020D15901005579010074
:10085000AC7901002DE9F0474868184D0E4606F0C6
:10086000C3FD8046B06806F0BFFD10F1000918BF57
:100870004FF0010918F10001074618BF012128684F
:100880000AF04FFAB0B90E4C0E4AB8F1000F08BF8B
:100890001446494628680AF057FA68B9084B094ACD
:1008A000002F08BF1346224630680749BDE8F047CD
:1008B00008F080BF054CECE7044BF4E7183C00203F
:1008C00037C20100C4570100AB5901009F59010014
:1008D0002DE9F04F884B0746186897B008B109F02A
:1008E000F1FE864B1D78002D00F03682844B0BA95B
:1008F0001E78384609F0DDFDBDF82E30B41CA34249
:1009000004D2804A936A01339362A1E1192B0AD978
:10091000BDF830201923182AADF82E3082BFADF86B
:10092000303000230E93BDF830800D9942460FA859
:1009300013F0BDF80E9949B1BDF82E200FABA2EB14
:10094000080292B203EB080013F0B1F816AB711C69
:100950001E44C9B216F81C3C03F00702052A40F0F9
:1009600085801E0745BF16AA89189BB211F81C2C5A
:10097000654848BF43EA02234FEA831200EA032096
:1009800002F4406242EA00024FEA931000F402705F
:1009900042EA00024FEAD31000F0100042EA0002DF
:1009A0004FEA532000F020004FEA930342EA00028E
:1009B00003F4A07342EA030292B248BFE1B242F4E8
:1009C000005312F44C4043F005030BD002F44844AA
:1009D000B4F5084F06D0B0F5484F03D082F4015368
:1009E00083F005039A0A580A00F0060002F0380264
:1009F0000243C3F380100243444830F812204FF6FC
:100A0000FF7082423FF47DAF03F44054B4F5005FC1
:100A100001D1D80532D416AE481C3144B4F5005F7C
:100A2000C0B211F81CAC40F0708102F00F04BDF8A8
:100A30002EE0211871453FF764AF1CB316AE064493
:100A4000411C16F81C9C16AE56FA81F1023011F8C2
:100A50001C1C0191C0B2C2F303118DF814100144A3
:100A60008E45FFF64EAF4FF0000816E016AA11446F
:100A700011F81C2CE1B243EA0223B3E708464FF019
:100A8000000AD2E70194A146E5E70DF1580C614454
:100A9000664411F81C1C06F8441C5FFA88F14E1CD1
:100AA0009DF814C0F6B20144B445C9B208F101087A
:100AB000EBD2C2F3032808EB01008645FFF621AF15
:100AC000B8F1000F0DD016AE0E44481C16F81C6C81
:100AD000029616AE56FA80F0023110F81C0C039004
:100AE000C9B2120B8DF820200A449645FFF609AFD3
:100AF0004FF0000E13E000BF241200202812002047
:100B0000000000201020002000C0FFFF8C5A0100D0
:100B100016A80644024416F81C0C02F8380C5FFABA
:100B20008EF28E189DF820000132D2B29042F6B2B9
:100B30000EF1010EECD2944A03F4A07102EA031202
:100B40000A43190901F440610A4392B242F4005188
:100B500041F0020100287ED09DF82160AA2E7AD1B2
:100B600042F4005141F01201884A167816AA324424
:100B70000DF1580B06F1010E5BFA8EFE02F81C1CFB
:100B80004FEA112BB21CDB05D2B20EF81CBC06D406
:100B90000DF1580E7244F31C02F81CACDAB24FEAA5
:100BA000912E4B0A0EF0380E03F00603C1F38011AC
:100BB0004EEA03030B43764931F813304FF6FF71C9
:100BC0008B423FF49EAE190714D0B8F1000F44D009
:100BD0000DF1580E96449DF808A00EF81CAC511C5F
:100BE0000DF1580E02325EFA81F19DF80CE0D2B29E
:100BF00001F81CEC13F0F00F54D113F4706F0FD008
:100C0000002C53D016A81044511C00F81C9C16A8A8
:100C1000023250FA81F19DF80400D2B201F81C0CA6
:100C200013F4704F63D1022E64D118238DF83C3039
:100C300092FAA2F31B0E8DF83D300FA938460AF048
:100C40009BF800285AD11DB1524A136A013313622E
:100C500017B0BDE8F08F002586E7002C3FF451AEB9
:100C60000DF1580E9644511C0EF81C9C02320DF1E9
:100C7000580E5EFA81F1D2B29DF804E0B8E70DF1AA
:100C8000580BDE4411F80AB00EF81CBC02EB010E42
:100C900001315FFA81FB58455FFA8EFEEFD20244C4
:100CA000D2B2AAE700210DF1200AEFE7B8F1000F58
:100CB0003FF427AE16A810449DF8084000F81C4CDD
:100CC000511C16A8023250FA81F1D2B29DF80C00E4
:100CD000A4E716A80144185D01F81C0CD1180133D3
:100CE000D8B28445C9B2F4D26244D2B29BE70023A1
:100CF00005ACF3E7531C8DF83C309EE7002DA7D0E0
:100D0000244A536A01335362A2E7110B3FF4F9AD51
:100D100002F00F04C2F3031320441844C2F3032269
:100D200052FA80F2D2B28B18BDF82E108B423FF7E8
:100D3000E8AD16AB1A4412F81C3CA3F1AA025342C8
:100D40005341002B84D038460AF011F8114BB8B942
:100D50001A6A01321A627BE70FA938460AF009F8CD
:100D600000287FF4CEAD9DF84430032B03D19DF8CD
:100D70003C30AA2B02D09DF83C30DEE70123E0E7AF
:100D80005A6A01325A6263E700C0FFFF0000002088
:100D90008C5A010010200020084B10B518680C4632
:100DA00009F02EFC064A074B0749002808BF1A46DF
:100DB0002068BDE8104008F0FDBC00BF183C0020D2
:100DC00037C20100C45701002E5B010010B548680E
:100DD0000C4606F009FB064B011C18BF01211868E0
:100DE00009F006FC21460120BDE81040FFF7D4BF02
:100DF000183C00202DE9F04F0B4687B027491868B2
:100E0000274DDFF8B49008F091FC4FF000084746FA
:100E10004FEA471B00262B78002B38D00024A2462F
:100E2000204B0DE0204A05935244194609EB04007B
:100E300012F80B2012F0DAFF059B05340AF1010AC3
:100E40002A785245EEDC1CB14C44002304F8013CE6
:100E5000164A1748297815F8023C32440BF1080B62
:100E600012F80840134A0091002C08BF0246CDE951
:100E70000192394632460948013608F07BFC042EBF
:100E8000C9D108F10408013527B90127C0E789F85D
:100E90000030DDE707B0BDE8F08F00BF425B010026
:100EA000A61200207B5B01006112002029120020A5
:100EB000C457010037C20100311200202DE9F84368
:100EC000402204460F461D481D4E002112F013FE1D
:100ED0001C4B00221A605A60786806F085FA052CCF
:100EE0007060D4BF023C042407F104090025A54228
:100EF0000BDB154B1249186809F07EFBB8B939466F
:100F00000120BDE8F843FFF775BFEB074FEA65081E
:100F100059F8040F05D406F067FA06F80800013501
:100F2000E5E706F061FAB04488F80200F7E73868B0
:100F3000064A3021BDE8F84308F094BC6112002055
:100F4000A412002029120020183C0020E35B0100BD
:100F50002DE9FF41804648680C4606F045FAC7B2C5
:100F6000A06806F041FA012F02D8C5B2032D07D9B7
:100F70001D4A3121206808F075FC04B0BDE8F081FD
:100F8000B8F10B0F02DD194A3221F3E70023CDE956
:100F90000233032646450FDB154B1648BE0033448B
:100FA0002A465B5D0093394602AB006809F012FBEC
:100FB00060B1114A3321DDE754F8260006F014FA37
:100FC00002AB3344013603F8030CE3E70B4A02ABF0
:100FD00003CB354402EBC50642F8350071600120B1
:100FE0002146FFF707FFC8E7835B0100A85B01000C
:100FF00029120020183C0020C65B0100611200206D
:101000002DE9FF4148680E4606F0EEF90446B06847
:1010100006F0EAF90546F06806F0E6F9C7B217F1FE
:101020000008184818BF4FF00108EDB2E4B22B4693
:1010300022464146006809F0D7FA38B1124A3068B2
:10104000342104B0BDE8F04108F00CBC0F4B30680F
:101050000F4E03EB840303F805800E4B1A5D234407
:1010600099780D4B0092002F08BF334603930B4B2A
:101070002246CDE901132B46094908F09BFB04B039
:10108000BDE8F081183C00200C5B01002912002013
:10109000C4570100A412002037C201003112002001
:1010A000425B0100F0B50126354C89B00D46304653
:1010B0000968267005F004FE30B36F6831490422D8
:1010C000384612F0E5FC80B92671A6710023A868A5
:1010D0000793CDE9053306F087F943F2C82680B2BD
:1010E000B04213D9284A21210BE002222749384671
:1010F00012F0CEFC18B902232371A371E6E7244A4B
:101100002021286808F0AEFB09B0F0BDADF818004A
:10111000ADF81400E86806F067F980B2B04202D971
:101120001C4A2221EDE7ADF81A000A38ADF8160086
:101130002869194E06F058F905A96080306808F052
:1011400010FE0F49306809F074F9014608B1134ADE
:10115000D7E720792D6805F0A7FD0646A07905F0B0
:10116000A3FD63880293BDF81A300193BDF81830CF
:101170000093324603460A49284608F01BFBC3E7A2
:10118000AC1200204C58010071580100CB810100C5
:101190005158010086580100183C00200C5C0100E9
:1011A000DB580100F7B5114C20680F4609F045F9EE
:1011B0000546206809F059F90646206809F05DF9EE
:1011C0000B490C4B3C680C4A002814BF18460846D3
:1011D000002E08BF0B4609490090002D08BF0A46A3
:1011E0002046074908F0E6FA03B0F0BD183C00209D
:1011F000585C0100515C010037C20100C457010076
:10120000615C010013B500238DF80030ADF80230A9
:1012100040F20113ADF80430ADF80630084B0C462F
:101220001868694609F005F9014618B1054A2068B1
:1012300008F018FB21460120FFF7B4FF02B010BDF3
:10124000183C0020395C010070B548680C4606F077
:10125000CBF80646A06806F0C7F8F1B20A4E003196
:10126000054618BF0121306809F0FBF8E9B20031EA
:10127000306818BF012109F0FCF821460120BDE8C3
:101280007040FFF78FBF00BF183C002070B5486862
:101290000C4606F0A9F8C5B2A06806F0A5F8291C0E
:1012A0000C4AC3B218BF01211170191C0A4A2068E8
:1012B00018BF012111700949094A002B14BF1346B8
:1012C0000B46002D08BF0A460649BDE8704008F0ED
:1012D00071BA00BFE41E0020E51E00205579010010
:1012E000AC790100925C0100084B10B518680C46FF
:1012F00009F065FD064A074B0749002808BF1A4652
:101300002068BDE8104008F055BA00BF183C002026
:1013100037C20100C4570100895D010038B5486833
:101320000C4606F061F821680546012005F0C8FC6E
:1013300068B1074B18683DB109F02CFD214601202A
:10134000BDE83840FFF7D0BF09F035FDF6E738BDFE
:10135000183C0020022838B50C4619D1486806F020
:1013600043F8051C18BF01252168012005F0A8FCE1
:1013700098B10A4B18686DB109F038FD246801F086
:1013800091F9074902462046BDE8384008F012BAF4
:101390000025E9E709F03DFDF0E738BD183C0020E5
:1013A000715B0100022838B50C4619D1486806F077
:1013B0001BF8051C18BF01252168012005F080FCE1
:1013C00098B10A4B18686DB109F036FD246801F038
:1013D00069F9074902462046BDE8384008F0EAB9F5
:1013E0000025E9E709F03BFDF0E738BD183C002097
:1013F000715B010038B501200C46096805F060FCFE
:10140000E0B10F4D286809F0DAFC30B920680D4AC8
:101410003121BDE8384008F025BA606805F0E4FFE6
:10142000C1B2286809F030FD246801F03BF9064993
:1014300002462046BDE8384008F0BCB938BD00BFC0
:10144000183C0020745D0100715B01002DE9F34739
:10145000294D814628680C4609F0B1FCA84638B9E8
:10146000264A3121206802B0BDE8F04708F0FAB9F9
:10147000B9F1010F35DD606805F0B6FFB9F1020F73
:101480005FFA80FA2FD0A06805F0AEFFB9F1030F24
:1014900007462CD0E06805F0A7FFB9F1040F064617
:1014A00023D0206905F0A0FF051C18BF0125009579
:1014B00053463A463146D8F8000009F00DFDC0B950
:1014C0000F4B104A20681049002D14BF1D461546C9
:1014D000CDE900653B46524608F06CF902B0BDE824
:1014E000F0874FF0250A094E094F0025DFE7074E28
:1014F000FBE7084A3221B5E7183C0020745D010083
:10150000C457010037C201000D5D0100555555005B
:10151000D6BE898E525D010073B54868234E0D46D4
:1015200005F062FF0446306809F049FC38B9204AEA
:101530003121286802B0BDE8704008F093B9E4B2E8
:10154000A4F12503022B02D91A4A3021F1E7002326
:101550000093194A19493068234609F0BDFC10B1BF
:10156000174A3221E5E7252C1AD104F0EDF822467E
:101570001449286808F01EF9134B144A03F11C01A2
:1015800053F8040B42F8040B8B42F9D1104B1C2288
:10159000294601201A8002B0BDE8704001F0E8BB86
:1015A000262C0CBF0C202720DFE700BF183C0020B2
:1015B000745D0100AE5C0100D6BE898E55555500A4
:1015C000525D0100CA5C0100E05C0100B40D002026
:1015D000AC0F002070B5064648682A4C0D4605F051
:1015E00003FF002814BF01230023237006D1264ADD
:1015F00028682649BDE8704008F0DCB84FF47A72DC
:101600004FF41411C4E901122148224A0023022E8A
:10161000A370C4E90302637031DDA86805F0E4FE3D
:10162000032EA07024D0E86805F0DEFE042EA06032
:101630001ED0286905F0D8FE052EA08018D0686954
:1016400005F0D2FE062EE08012D0A86905F0CCFE8F
:10165000072E20610CD0E86905F0C6FE082EE06078
:1016600006D0286A05F0C0FE003018BF0120607067
:101670002178094A044B002908BF1A46B8E7064AF0
:10168000B6E700BFB8330020C4570100FC5C01007E
:1016900055555500D6BE898E37C201002DE9F04F51
:1016A000814685B00D460120096805F009FB08B3A5
:1016B0002C4B2D4F1B68DFF8C8803B6001244FF096
:1016C000000A26B2B9EB860F17DC284B26491868AA
:1016D000013CBC7108F0ACFF254A26492D683B68E7
:1016E00000280CBF10460846009022462249284692
:1016F00008F060F805B0BDE8F08F3601A6F10C0BDC
:1017000055F80B0005F070FEB0F5803F07D31B4A7B
:101710002868162105B0BDE8F04F08F0A3B855F8C9
:101720000B0005F061FE631E1B0108EB030B28F89C
:101730000300AB19039353F8080C05F055FE039B07
:101740008BF8020053F8040C05F04EFECBF80400B1
:10175000A85905F049FE0134CBF808008BF80CA01D
:10176000E4B2AEE79C00002004000020183C0020FA
:10177000AC79010055790100B05D0100905D010078
:10178000CC33002070B506460C460120096805F0F0
:1017900097FAF8B1606805F027FE051C18BF01250F
:1017A000022E15DDA06805F01FFE021C18BF0122E5
:1017B000094B2946186808F03FFF084A084B0949B9
:1017C000002818BF1A462068BDE8704007F0F2BF35
:1017D0000022EDE770BD00BF183C0020AC7901008D
:1017E00055790100D05D01001FB548680C4605F031
:1017F000FBFD104BC1B2186808F022FF10F5007F06
:1018000006D10D4A2068082108F02CF804B010BD5C
:1018100007EE900AFAEECF7A022317EE902A0A21F9
:1018200001A808F051F801AA0449206807F0C2FF96
:10183000ECE700BF183C0020045E01004C5E010094
:1018400010B5012086B00C46096805F039FA20B3BE
:10185000606805F0C9FD8DF80800A06805F0C4FDBA
:101860000390E06805F0C0FD00238DF814300C4BA8
:10187000049002A9186808F0E7FE049A246801920F
:10188000039A08490092084A9DF80830002808BFCA
:101890000A460649204607F08DFF06B010BD00BF7E
:1018A000183C0020AC79010055790100DB5D010096
:1018B00010B501200C46096805F002FAA0B1606875
:1018C00005F092FD094B011C18BF0121186808F0B2
:1018D000E5FE074A074B0849002818BF1A4620684A
:1018E000BDE8104007F066BF10BD00BF183C0020E7
:1018F000AC79010055790100D05D010007B5084BB6
:10190000CDE900230B4602460649074807F052FF7F
:10191000064A136801200133136003B05DF804FB2D
:10192000CA5E0100685E0100BC5E0100481800202C
:1019300070B548680C4605F057FD21680546012042
:1019400005F0BEF900B3114E306808F0B2FBC307D2
:1019500013D52946306808F082F930B92A46206844
:101960000B49BDE8704007F025BF2B462068094AA7
:101970001421BDE8704007F075BF2068064A1321A6
:10198000BDE8704007F06EBF70BD00BF183C00207E
:101990009E610100AE610100E761010030B1044BBE
:1019A00010F0010F034808BF1846704702487047FF
:1019B0007E830100F55F0100C457010070B54868DF
:1019C0000C4605F011FD0C4B05460146186808F061
:1019D00061FB48B92846FFF7E1FF08490246206845
:1019E000BDE8704007F0E6BE2B462068044A15218A
:1019F000BDE8704007F036BF183C00205160010080
:101A00005E60010070B5054648680E4605F0ECFCC6
:101A1000022D04460DDDB06805F0E6FC0546A3077F
:101A2000306808D023460C4AFF21BDE8704007F01B
:101A300019BF0125F3E70949084E07F077FE04EBCB
:101A40008505AC4200D170BD22682146304607F0C2
:101A500091FE0434F5E700BF345F0100585F0100D8
:101A60002DE9FF41804648680D4605F0BDFC10F0A9
:101A7000030406460FD12F1DA31C984514DC01AEAC
:101A800022460D49304612F0B1F9AE6029460320D6
:101A9000FFF7B8FF05E00346084A2868FF2107F072
:101AA000E1FE04B0BDE8F08157F8040F05F09CFC9E
:101AB00046F824000134DFE7EB6D0100345F0100DC
:101AC00010B548680C4605F08FFC011C226818BF51
:101AD00001210920BDE8104004F0DEBB70B50546C9
:101AE00048680C4605F080FC061C18BF0126022D34
:101AF000074D0ADDA06805F077FC286022683146B2
:101B00000820BDE8704004F0C7BB024B2B60F5E72E
:101B1000100000208096980010B548680C4605F02B
:101B200063FC084B084900280CBF012200221A70F0
:101B3000064B074A206808BF1A46BDE8104007F068
:101B400039BE00BF1421002041600100C4570100CC
:101B500037C2010038B548680D4C0D4605F048FC09
:101B6000011C206018BF01212A680A2004F094FBA0
:101B70002368002B0ADD04F089FB0A2806D1054BF7
:101B800001221A60BDE8384003F008BE38BD00BF2E
:101B9000B00D00202021002010B4094B08681C78EB
:101BA0000849094B14F0010F14BF0A461A4614F0F5
:101BB000020F18BF0B465DF8044B044907F0FABD4D
:101BC000440C002037C20100C4570100145F01001B
:101BD00038B548680D4605F007FC0B4A04461378F3
:101BE00058B143F00103294601201370FFF7D4FFD9
:101BF00034B1BDE8384003F05DBC03F0FE03F2E70A
:101C0000BDE8384003F006BC440C002010B548681D
:101C10000C4605F0E9FB074A137840B143F0020394
:101C2000137021460120BDE81040FFF7B5BF03F057
:101C3000FD03F5E7440C002008B503F099FBBFF362
:101C40004F8F0549054BCA6802F4E0621343CB602D
:101C5000BFF34F8F00BFFDE700ED00E00400FA0581
:101C600070B5084C0D68206808F073F806462068C7
:101C700008F073F83246034603492846BDE8704031
:101C800007F098BD183C0020086001002DE9F14FD5
:101C9000044648680E4605F0A7FB022C804685B234
:101CA00012DDB06805F0A0FB041C18BF0124B5F5D7
:101CB000806F0BD9214A30684FF48063102101B046
:101CC000BDE8F04F07F0CEBD0024F0E71C4B1D49E6
:101CD00018682A4607F011FF8542074604D01A4AC1
:101CE0003068112107F0BEFD1CBBDFF85890DFF80B
:101CF0005CA0DFF864B025461FFA88F3A3420DDD2F
:101D0000C5F5C9710AEB0500023519F804305A46C9
:101D1000ADB212F037F8B5F5C97F08D10B4B0C49BD
:101D20003A46306801B0BDE8F04F07F043BD0134DA
:101D3000E2E7044B07493A46F3E700BF825F010040
:101D4000183C0020B4120020AC5F0100B416002043
:101D5000CA5F0100DC5F01001B7B01002DE9F04F31
:101D600089B0824604A80C4607F0E0F9804605A831
:101D700007F0E4F9BAF1010F0746DDF8149013DD1E
:101D8000D4F804B07B49584612F050F860B10026F0
:101D900035464E4544D1002D50D1774A5B465021FF
:101DA000206807F05FFD21E0744D049E2B781BB185
:101DB0002168734811F0A8FE2B7813B1714811F017
:101DC000A3FEDFF8F4A1DFF8F4B10024A1452B78DD
:101DD0000FD113B16C4811F01FFF2B7813B16B4872
:101DE00011F01AFF6A4F0024A64210D109B0BDE8D5
:101DF000F08F1CB113B1504611F086FE2B7823B141
:101E000057F83410584611F07FFE0134DEE72B7886
:101E100023B158F83410384611F076FE0134E3E768
:101E200007EBC60357F836000393594611F0FEFF3F
:101E3000039B0136002808BF1D46AAE7D4F8089086
:101E4000544E4946304611F0F1FF074660BBBAF1E7
:101E5000040F05D0504A5121206807F003FDC5E763
:101E60007721E06805F0C8FA0028F3D0E06806960C
:101E70008DF81C7005F0B8FAADF81E0006AE012111
:101E8000464805F007FE00231A46E979A87906F0CE
:101E9000BFFD002F51D0287907F058F92A68404932
:101EA000206807F087FCA1E73E4E4946304611F016
:101EB000BDFF074600BBBAF1050F02D03A4A5321D5
:101EC000CAE77521E06805F097FA0028F6D0752179
:101ED000206905F091FA0028F0D00123E0688DF820
:101EE0001C30069605F080FA8DF81F00206905F079
:101EF0007BFA8DF81E00C1E749462C4811F096FF89
:101F0000B0B10027DDF810B03E46BB4504D196B90C
:101F10004B46274A542143E758F83700494611F009
:101F200085FF08EBC70A002808BF56460137ECE7D3
:101F300001270646A3E70027A1E7002E3FF456AF8E
:101F400033794BB1B779EB79AA7969792879019717
:101F5000F779009707F002F9E979A87900230422BC
:101F600006F056FD33682A681249206807F022FC03
:101F70003CE700BF7B600100F2600100450C0020DF
:101F8000806001009D600100A7600100B260010057
:101F9000EC6001002A6101000D61010000350A00BA
:101FA0007B6101005261010035610100896101001E
:101FB0005D6101008D610100A460010071C201003A
:101FC00038B548680D4605F00FFA06490446024642
:101FD000286807F0EFFB044B21461868BDE838403D
:101FE00003F0E0BA015F0100183C00202DE9F04148
:101FF00007464868114D0C4605F0F6F90026022FF9
:102000000246C5E9000612DDA06805F0EDF90346B9
:10201000D5E9000141EA03070643C5E900673346F5
:102020003A4620680649BDE8F04107F0C3BB206886
:102030000449BDE8F04107F0BDBB00BFB02000205F
:10204000CF5E0100EA5E010010B548680C4605F05D
:10205000CBF9084B0849002814BF012200221A704E
:10206000064B074A206808BF1A46BDE8104007F033
:10207000A1BB00BFEE2000203260010055790100B5
:10208000AC79010010B548680C4605F0ADF9084B75
:102090000849002814BF012200221A70064B074A83
:1020A000206808BF1A46BDE8104007F083BB00BF98
:1020B000ED2000202160010055790100AC7901007C
:1020C00038B548680A4D0C4605F08EF9003018BF47
:1020D0000120287007F010FB2978064B064A20687B
:1020E000002908BF1A460549BDE8384007F062BB21
:1020F000450C002055790100AC7901001762010000
:1021000010B50C6804F0C2F804F0F8F80349024670
:102110002046BDE8104007F04DBB00BF095F01003D
:10212000074B10B518680C6807F0DAFC04F0BCFD2A
:10213000044902462046BDE8104007F03BBB00BF03
:10214000183C0020745F01002DE9F34748680D46F4
:1021500005F04AF98046A86805F046F910F1000933
:102160000746E86818BF4FF0010905F03DF910F186
:10217000000A0446286918BF4FF0010A05F034F937
:102180002B492C4A91F800C02B4B0646003018BF53
:102190000120BCF1000F07D192F800C0D44503D153
:1021A00093F800C0844517D04FF0000C81F800C0B0
:1021B00082F800A01870002C33D0204B1A78204BE6
:1021C00053F822301A681F481F4B20490068002E20
:1021D00008BF002307F07CFD17B11D4B00221A60D9
:1021E00008F06CFA4A4607464146184807F07CFD5D
:1021F000044608F063FA042C96BF164A164A52F8B1
:1022000024200346DB1B28686EB111490968009140
:10221000124907F0CFFA0CB90D4B1C6002B0BDE8B3
:10222000F0872246CFE70E4907F0C4FAF3E700BF74
:10223000140000204D1800204C180020711A0020B6
:10224000C40F0020183C0020FD18000000200020D2
:1022500048180020545E01006D6201007D6201009B
:10226000B26201002DE9F041074648680D4605F0CD
:10227000BBF80646A86805F0B7F8311C044618BF3D
:1022800001212A680C2004F08DFC88B129463846CB
:1022900000F05EFC074B1E60074B610819603EB101
:1022A0000648074B00680122BDE8F04107F04EBC2C
:1022B000BDE8F081103400200C340020183C0020D0
:1022C000ED5400000B6807EE900A0133012B0B6000
:1022D000B8EEE77A06D10023C1E9010081ED037A67
:1022E0000B617047D1ED035A4A688242D4BF4A60FD
:1022F000486007EE903A37EE656AF8EE677A8A68CA
:102300008242ACBF8A608860C6EE276A76EEA57A04
:1023100037EE677AC1ED037AD1ED047AE7EE067AFB
:10232000C1ED047A704700002DE9F041294C2DEDF4
:10233000028BD4ED267AB5EE008A67EE887A90B0EB
:10234000884617EE902A00230A2104A807F0BCFA59
:10235000D4ED247AF8EEE77A07AD67EE887A0223A7
:1023600017EE902A0A21284607F0AEFAD4ED257A16
:10237000F8EEE77A0AAE67EE887A022317EE902A23
:102380000A21304607F0A0FAD4F88C30D4ED276A41
:10239000013B07EE903AF8EE677A0DAF86EEA77A2A
:1023A00000230A213846DFED0C7A67EE277A17EE14
:1023B000902A07F089FACDE90167009504ABE26D38
:1023C0000649D8F8000007F0F5F910B0BDEC028B13
:1023D000BDE8F081102000200000803DC6630100B0
:1023E000064B0022C3E90122DA60054A411E9142F0
:1023F00088BF6FF060401860704700BF541800201D
:10240000FEFFFF1F38B51B4C012220680D46114608
:1024100007F068FB01221146206808F0B3F816495E
:10242000206800230B704B7001238B70CB7008F079
:1024300028F8014618B1114A286807F013FA6421F8
:10244000206808F08BF80021206807F079FE002151
:10245000206808F0DCF8686804F0C6FF084B044602
:102460001860FFF7BDFF224628680649BDE83840DE
:1024700007F0A0B9183C0020EF200020D462010032
:1024800050180020F562010070B5064648680C46F9
:1024900004F0AAFF011C054618BF012122680D2087
:1024A00004F080FB10B321463046114C00F050FB85
:1024B00001221146206807F015FB01221146206811
:1024C00008F060F895B10021206808F0A0F8094BE9
:1024D0001868FFF785FF084B206801221A70074B28
:1024E00000221988BDE8704007F0A3BB70BD00BF93
:1024F000183C00205018002064180020E81E00201E
:102500002DE9F04F8BB00E4605F050FE314BD3E96C
:102510000045D3F808A093F90C7005F04BFE002C91
:1025200037D0284610F0E0FD80462046894610F05E
:10253000DBFD02460B464046494610F079FF00227B
:10254000254B10F04BFE11F083F8834625B350461F
:1025500010F0CAFD8046E800894610F0C5FD02462D
:102560000B464046494610F063FF00221A4B10F01C
:1025700035FE11F06DF88046184B5B6CE40073B1CA
:102580003B4622461649306807F014F90BB0BDE807
:10259000F08F4FF0000BD9E74FF00008ECE70DF19A
:1025A00010095A4602230DF11C0B0A21484607F078
:1025B0008BF9424602230A21584607F085F9CDE9F6
:1025C00002ABCDE90097EB0022460649306807F0E0
:1025D000F1F8DBE7541800200000594010200020DB
:1025E000016301007363010003282DE9F0410D46EA
:1025F00005DC28492868BDE8F04107F0DBB84A68E7
:102600001478A3B2A3F1610105291CD8613CE4B29E
:1026100054B3012C2AD0022C2BD0032C2CD0052C07
:102620000CBFFF260026A86804F0DEFEC7B246FAFB
:1026300007F3DB0723D433466A6828681649BDE8E8
:10264000F04107F0B7B8A3F14101052901D8413C99
:10265000DDE7303B052B01D8303CD8E728680F492F
:10266000BDE8F04107F0A6B83F26DCE74FF4784616
:10267000D9E74FF47C66D6E74FF47E46D3E7E868A7
:1026800004F0B2FE3946C3B20422204606F0C0F977
:102690000349AFE7076401003E64010020640100C4
:1026A000B464010003289ABF024B53F8200002488B
:1026B000704700BFC46401009F6701002DE9F0412D
:1026C000344C0868DFF8EC80334F8CB007F01AF810
:1026D000A36D0893636D0793636B0693236B059358
:1026E000E3690493A36903936369029323690193E4
:1026F000E368009321682948D4E9012307F07AF8B8
:10270000A36A216E00932648D4E9082307F072F8E3
:10271000244B186807F0E4F9054604F0C5FA0146B1
:10272000214807F067F8002605F0010258F8261046
:102730003846013607F05EF8032E4FEA5505F3D10F
:102740001A4B1D8803F0A2FD03F0D8FDA36E0B9376
:10275000E36E0A93636E0993E36A0893236D07930C
:10276000D4F888300693D4F884300593E36C04934E
:10277000A36C0393636C0293236C0193E36F009348
:102780000246A36F0A48294607F050F80CB0BDE88E
:10279000F08100BF10200020D6660100D665010040
:1027A0008D660100183C0020CB660100E81E002069
:1027B000DC660100180000202DE9F041144C88B0BF
:1027C00020680D4607F0D6FE0646206807F0D6FEC4
:1027D000074620682D6807F0C5FE8046206807F090
:1027E000C5FE0C49CB6906938B6905934B6C04932A
:1027F0004B6F03930B6FCDF80080CDE90103324698
:102800003B460549284606F0D5FF08B0BDE8F081F3
:10281000183C002010200020D464010070B58AB05C
:102820000C4607A8002107F021FC0D4D9DF82560FE
:102830000C4920689DF820209DF822409DF8213009
:10284000002E08BF2946084DCDE90234CDE9041514
:10285000CDE90042054906F0ADFF0AB070BD00BFEA
:1028600055790100AC79010034780100A7670100B7
:1028700038B50A4B48681D680C4604F0B5FDC1B276
:10288000284607F049FA064B064A0749002808BFC0
:102890001A462068BDE8384006F08CBF183C00207E
:1028A000536801004D6801005768010010B58AB0F7
:1028B0000C4607A8012107F0D9FB9DF822109DF8CE
:1028C00020209DF821309DF823000091CDE90310D0
:1028D000CDE901230649206806F06CFF9DF82430FD
:1028E000079A0449206806F065FF0AB010BD00BFD2
:1028F000DC670100FA67010010B548680C4604F077
:1029000077FD00F1FF03B3F5FF7F024606D920688B
:10291000064A0821BDE8104006F0A4BF044B054953
:1029200018802068BDE8104006F044BF136801001D
:10293000E02000204068010002281FB50C4613D19A
:10294000486804F051FD011C18BF0121104B1868A4
:1029500007F077F910F5007F08D10E4A20680821AA
:1029600006F080FF04B010BD0021EFE707EE900AEB
:10297000FAEECF7A022317EE902A0A2101A806F078
:10298000A3FF01AA0449206806F014FFEAE700BF8C
:10299000183C0020AC6501004C5E0100F8B507460C
:1029A00048680C4604F020FD0F4B032F06461D78A7
:1029B00003D1A06804F018FDC5B20021012004F085
:1029C0007FF930B9094A20680821BDE8F84006F0CF
:1029D00049BF0748002332462946006807F035F909
:1029E00008B1044AEFE7F8BDE81E0020C368010003
:1029F000183C0020EF6801001FB5104B18680C460A
:102A000007F00AFE10F5007F06D10D4A2068082164
:102A100006F028FF04B010BD07EE900AFAEECF7A58
:102A2000022317EE902A0A2101A806F04DFF01AA01
:102A30000449206806F0BEFEECE700BF183C002009
:102A4000756501004C5E010038B548680C4D0C46B8
:102A500004F0CEFC41B2286807F0E2FD28B12068FE
:102A60000849BDE8384006F0A5BE286807F0DCFD3F
:102A7000054902462068BDE8384006F09BBE00BF0D
:102A8000183C00205E6801007B680100064B10B511
:102A900018680C4607F0C8FD044902462068BDE8E6
:102AA000104006F087BE00BF183C00207B68010084
:102AB0002DE9F8434868234E234F0C4604F094FC5C
:102AC0008046A06804F090FC8146E0681F4C04F04A
:102AD0008BFC022590FBF5F507F0F0FD064407F0AE
:102AE000EDFDB042206803D3BDE8F84307F09CB881
:102AF00007F09AF800222068012106F0F3FF5FFA40
:102B000088F1206807F06BFB39882068002207F005
:102B100087F8284602F021FC206807F085F800229B
:102B20002068012106F0DEFF5FFA89F1206807F0D6
:102B300056FB00223988206807F072F8284602F018
:102B40000CFCCCE7404B4C00E81E0020183C002059
:102B500010B5A0220C460548002110F0CCFF2146FC
:102B60000120BDE81040FFF7A9BD00BF10200020E4
:102B700010B50C6807F0A2FD034902462046BDE8E7
:102B8000104006F017BE00BF56C2010010B54868DD
:102B90000C4604F029FC07F093FD246840B907F0C7
:102BA0008DFD064902462046BDE8104006F002BEF3
:102BB00007F084FD02490246F5E700BF896801007D
:102BC000A7680100012838B50C4608DD4D681C498E
:102BD0000322284610F05CFF50B91A4B1870194BAD
:102BE0001B7823BB18492068BDE8384006F0E2BDD9
:102BF00004221649284610F04BFF30B9114B012230
:102C00001A70134B134A1A60E9E703221249284647
:102C100010F03EFF20B90B4B02221A700F4BF1E768
:102C200020680F4A7021BDE8384006F01BBE012B1A
:102C300001D10C49D7E7022B01D10B49D3E738BDAD
:102C4000D769010070180020CF690100AE6901004A
:102C5000681800202400002014A001006C18002037
:102C6000B3690100DB690100E869010010B508469D
:102C70000A4986B08C684B780A780494CC8803940F
:102C80008C88029491F9034001948978009100683E
:102C9000034906F08FFD06B010BD00BF24000020E0
:102CA0006469010038B54868114D0C4604F09CFB7E
:102CB0002870A06804F098FB6870E06804F094FB4A
:102CC000A870206904F094FBE870606904F08CFB44
:102CD000A880A06904F088FBE880E06904F084FB28
:102CE0002146A8600120BDE83840FFF7BFBF00BF04
:102CF000240000202DE9F84307464868DFF8689073
:102D00000D4604F071FB86B20224A6F10208BC4213
:102D10000CDB124B9B783BB9114A124812881249BE
:102D20000068012307F0B1FB01200FE055F82400F3
:102D300004F05AFB08EB0403B3F5FC7FC0B207D3E1
:102D40000A4A2868052106F08DFD0020BDE8F883B9
:102D500033194B44013403F8020CD8E7EF2000206C
:102D6000AC0F0020183C0020B40D0020176C0100AF
:102D70000846034A034912880068002302F042BE55
:102D8000AC0F0020B40D002010B50C46FFF7B2FFC9
:102D900028B121460120BDE81040FFF7E9BF10BD72
:102DA00070B504460D46FFF7A5FF58B1686804F0FA
:102DB0001BFB82B2131928680349023BBDE870402F
:102DC00006F0F8BC70BD00BF346C010070B54868F7
:102DD0000D4604F009FBB0F5FC7F034606D92868D0
:102DE0000C4A0621BDE8704006F03CBD0A490B4C78
:102DF000897882B2228029B909480A4900680123EA
:102E000007F043FB228828680749BDE8704006F0B8
:102E1000D1BC00BFF96B0100EF200020AC0F0020F7
:102E2000183C0020B40D00200B6C01000846034A3A
:102E3000034912780068002302F0E4BD96000020E8
:102E4000560000202DE9F84307464868DFF85C90FB
:102E50000D4604F0C9FA86B20224A6F10208BC426B
:102E60000CDB114B11491A78114B186807F0E9FA7D
:102E700029460120BDE8F843FFF7D8BF55F82400E4
:102E800004F0B2FA08EB04033F2BC0B206D928685D
:102E9000084A0521BDE8F84306F0E4BC33194B4469
:102EA000013403F8020CDAE79600002056000020F7
:102EB000183C0020826B010070B548680C4604F095
:102EC00093FA4028034606D920680A4A0621BDE83D
:102ED000704006F0C7BC084B084D0949C2B21868DB
:102EE0002A7007F0AEFA2A7820680649BDE87040DB
:102EF00006F060BCF96B0100183C00209600002031
:102F0000560000200B6C010038B500200C46096803
:102F100003F028FEB0B12168012003F0D1FE88B192
:102F2000606804F061FA084B81B2186807F008F98C
:102F3000054603F099FB2A4620680449BDE838405D
:102F400006F038BC38BD00BF183C0020A06B010063
:102F500070B500200C46096803F004FE00284DD02F
:102F60002168012003F0ACFE002847D06668244D9C
:102F700024490023032230462B706B7010F088FD2B
:102F8000B0B9A870A6681F490322304610F080FD32
:102F9000E8B9E8701C4B1A49186807F072FA034642
:102FA00020B32068194A5021BDE8704006F05ABC91
:102FB00004221749304610F06BFD10B90123AB70A5
:102FC000E0E7144A2068502106F04CFCDAE70422BE
:102FD0000F49304610F05CFD10B90123EB70D9E7C2
:102FE0000C4A2068502106F03DFCD3E7D4E90123C8
:102FF00020680949BDE8704006F0DCBB70BD00BF29
:10300000EF200020186A0100183C00203B6A0100F4
:10301000DC9601001C6A01006B6A010013B50C46C6
:103020000120096803F04CFE78B1606804F0DCF917
:1030300080B2B0F5007FADF8060008D94FF40073F8
:103040000D4A2068542106F00DFC02B010BD0B4B58
:103050000B4918680DF1060207F01FFA28B1094A5A
:103060002068552106F0FEFBEFE7BDF80620064973
:10307000206806F09FFBE8E7AF6B0100183C0020DA
:1030800071180020D46B0100EB6B010007B502AA98
:103090004FF4007322F8023D044907F0FEF90228BC
:1030A00008BF002003B05DF804FB00BF71180020CA
:1030B00037B5134B00934868124B01930C4604F04C
:1030C00093F9114D003018BF01202870A06804F05A
:1030D0008BF90E4B2A780E49003018BF012018706A
:1030E00002AB03EB800003EB820250F8083C52F87D
:1030F000082C206803B0BDE8304006F05BBB00BF81
:10310000C457010037C20100582300204823002083
:10311000836A01002DE9F04F644B1B7895B004469B
:103120000E463BB9624A3068512106F09BFB15B050
:10313000BDE8F08F486804F057F98346B06804F0A2
:1031400053F9032C074619DDF06804F04DF910F12E
:10315000000818BF4FF00108B8B2283003F0AEFEE7
:10316000824603F0CBFE534D044650B90121286836
:1031700007F0EDF9504603F0D9FED8E74FF000080C
:10318000EAE701464FF0010901F8289BBAB2416213
:10319000286807F086F9E083BBF1000F00F081801A
:1031A00049460AAA286807F080F99DF82830237755
:1031B00004F108078146B8F1000F63D040F20243E2
:1031C000ADF8183006238DF81A303B4B93E8070012
:1031D00007AB83E80700E38BE3604FF0000806AB22
:1031E0000DF1380B18F80320227449463A46286836
:1031F000059307F065F9A2684BF8282008F101084B
:10320000B8F1030F059BEDD13A464946286807F00F
:103210005BF90DF1400B4FF00008A3684BF8043F39
:1032200007AB5A4653F82830E18B286808F10108AB
:103230009847B8F1030FF0D1139B0393129B0293AD
:10324000119B0193109B00931C493068DDE90E230C
:1032500006F0B0FA4FF000084946286807F077F901
:10326000B8F1000F1DD014220021384610F043FCA5
:103270008023A375E38BA3B9114A3068522106F06D
:10328000F1FA77E701463A46286807F01DF98046CB
:103290000028E1D13A46E18B286807F02CF98046F6
:1032A000DAE75146074803F082FE40E74823002052
:1032B000FB6A0100183C0020F4690100316B010039
:1032C000666B01001434002073B5134B00934868FB
:1032D000124B01930E4604F087F8041CB06818BF27
:1032E000012404F081F80E4B051C18BF01252A4665
:1032F0002146186807F046F902AB03EB840403EBA0
:10330000850554F8082C55F8083C0649306802B089
:10331000BDE8704006F04EBA446C0100B096010062
:10332000183C0020A36A01000E4B1B7810B50C4618
:1033300033B920680C4A5121BDE8104006F092BA1A
:1033400001210A4803F06CF9094B0A481988013930
:1033500089B203F065F920680749BDE8104006F01E
:1033600029BA00BF582300204E6C0100B40D002084
:10337000AC0F0020B50D0020846C010010B548682A
:103380000C4604F031F8044B0449186002462068EA
:10339000BDE8104006F00EBA28230020006A0100A4
:1033A00070B5064686B048680C4604F01DF885B234
:1033B0000A2D06D9114A5221206806F053FA06B0A8
:1033C00070BD022E10DDA06804F00EF880B20090EF
:1033D0000B482B4603AA0121006807F0E5F8A84234
:1033E00004D0084A5321E7E70020F0E700232A46EB
:1033F00003A9206802F006FBE1E700BFB76A0100FD
:10340000183C0020D56A010070B500230424022571
:10341000012650F823201278542A15D007D8492ABB
:103420000BD0522A0ED001200BE00123F1E7722AC3
:1034300008D0742A08D0692AF5D1CE54002BF4D0D4
:10344000002070BDCD54F9E7CC54F7E70B4B10B515
:1034500018680C4606F02DFEC30706D52068084AFA
:103460001221BDE8104006F0FDB9064B20681A880D
:103470000549BDE8104006F09DB900BF183C00208A
:10348000CB6C0100E81E0020F06C010070B54868AC
:103490000D4603F0A9FF0C4B044681B2186806F0F4
:1034A00064FCA3B230B12868084A1121BDE870401D
:1034B00006F0D8B9184602F047F929460120BDE8C0
:1034C0007040FFF7C3BF00BF183C00204F6D0100E4
:1034D00010B5134B0C460FCB88B00DF1200C0CE946
:1034E0000F00104B02A9186806F0A0FE9DF80830E6
:1034F00024680D4908AA02EB8303BDF80C20019251
:10350000BDF80A200092094A53F8103C002808BF71
:103510000A460749204606F04DF908B010BD00BF25
:10352000986C0100183C0020CA5E01001F6D01006C
:10353000256D010070B548680C4603F055FFC5B213
:10354000022D07D92B462068134A1321BDE870408D
:1035500006F088B9A06803F047FF0646E06803F06C
:1035600043FF0E490E4B888018680D704E8006F0A0
:103570004BFE48B9022D1CBF0A4B1D70214601208D
:10358000BDE87040FFF7A4BF2068074A2621BDE8C8
:10359000704006F067B900BFCB6D0100320000201B
:1035A000183C0020721A0020EE6D010070B5084C26
:1035B0000D68206806F024FE0646206806F056FED8
:1035C0003246034603492846BDE8704006F0F2B88B
:1035D000183C0020086D010073B504460D4601201B
:1035E000096803F06DFB00283DD0022C6E681F4C6B
:1035F0001DDD1F49A86810F044FCC0B9304603F037
:10360000F3FEC6B23146206806F0E9FD30BB194B27
:103610001E70206806F0F4FD0646206806F026FEBF
:10362000324603461449286806F0C4F81BE03046C9
:1036300003F0DEFE06B23146206806F0FBFD68B9F5
:103640006946206806F0F2FD40B932469DF8001048
:10365000206805F0EDFE074B1870DAE7074A286886
:10366000232106F0FFF802B070BD00BF183C002017
:10367000B26D010030000020086D0100B66D010040
:103680002DE9F7430F46284C2849386806F092F890
:103690006946206806F0CAFD9DF80030012B0AD06B
:1036A0002FD3022B2FD0224A2121386806F0DAF8D6
:1036B00003B0BDE8F0830726DFF88090DFF8808054
:1036C00001252A464946386806F074F8012203218C
:1036D000206806F007FAE9B2206806F080FD0022B3
:1036E000B8F80010206806F09BFA10F09BF9C0B201
:1036F0000A280AD00D2808D07128F6D10D4A2021B9
:10370000D3E7FC26D8E7F826D6E701220321206874
:10371000013506F0E7F9EBB29E42D2D2064938688D
:1037200006F048F8C4E700BF183C00203B6F0100DA
:103730007D6F01009E6F0100AD6F0100906F010071
:10374000E81E0020064B10B518680C4606F026FE51
:10375000044902462068BDE8104006F02BB800BFBF
:10376000183C0020FB6C010038B501200C460968AC
:1037700003F0A6FA70B1084B60681D6803F034FED0
:103780000146284606F006FE21460120BDE83840E5
:10379000FFF7D8BF38BD00BF183C002070B548689F
:1037A0000C4603F021FE0546A06803F01DFE0C4BFD
:1037B000C6B2EDB229463246186806F0F3FD01465E
:1037C00038B933462A4620680649BDE8704005F0FE
:1037D000F1BF2068044ABDE8704006F043B800BF5E
:1037E000183C0020986D01004D68010038B548680C
:1037F0000C4603F0F9FDC5B2281C18BF012006F0E5
:1038000059FD054B054A20680549002D08BF1A4699
:10381000BDE8384005F0CEBFC457010037C20100F3
:10382000C26C010013B50C46201D6946FFF7ECFD84
:1038300030B10F4A2068162106F014F802B010BD0E
:103840009DF800308DF804309DF801308DF805307A
:10385000084B01A9186806F04FFC074B074A0849B6
:10386000002808BF1A46206805F0A4FFE6E700BF5D
:10387000B56E0100183C0020536801004D6801003E
:10388000C46E010013B50C460120096803F018FA54
:1038900048B16946201DFFF7B7FD30B1114A2068D5
:1038A000162105F0DFFF02B010BD9DF800308DF845
:1038B00004309DF801308DF805300B4B01A91868D4
:1038C00006F03AFC18B9094B9DF800201A70084B15
:1038D000084A0949002808BF1A46206805F06AFF0F
:1038E000E1E700BFB56E0100183C0020AC0D0020E0
:1038F000536801004D6801001C6E010070B5002383
:103900008AB0CDE9043306460D4606930124B4423D
:1039100033DBBDF81030ADF81C30BDF81230ADF817
:103920001E30BDF81430ADF82030BDF81630ADF8BB
:103930002230BDF81830ADF82430BDF81A30ADF89B
:103940002630164B07A9186806F00BFA00BBBDF825
:1039500026100391BDF824100291BDF81E100191AC
:10396000BDF820100091BDF82230BDF81C200C4994
:10397000286805F01FFF0AB070BD55F8240003F059
:1039800033FD04AB03EB4403013423F8020CBEE720
:10399000044A2868182105F065FFECE7183C002070
:1039A0002D6E0100746E010010B50D4B9B78012B3C
:1039B0000C4606D020680B4A1921BDE8104005F0DE
:1039C00051BF486803F010FD074B81B2186806F03C
:1039D000C1FD064902462068BDE8104005F0EABE78
:1039E000EF2000208B6E0100183C0020A26E010029
:1039F00010B548680C4603F0F7FC064B81B2186816
:103A000006F0ACFD044902462068BDE8104005F010
:103A1000D1BE00BF183C0020096E01002DE9F74F10
:103A2000054648680C4603F0DFFC0646A06803F034
:103A3000DBFC042D4FF0000780464FF000090EDD3F
:103A4000E06803F0D1FC0743206903F0CDFC4FF0A0
:103A5000000A46EA0A0648EA0A0849EA0009CDE9E6
:103A600000890E4932463B46086806F06DFB042D7E
:103A70000ADDCDE9009833463A460949206805F049
:103A800099FE03B0BDE8F08F0649206843463246F0
:103A900003B0BDE8F04F05F08DBE00BF183C00201C
:103AA000646D0100826D01002DE9F04148680D460A
:103AB00003F09AFC064604F079FB074606F0FEFD8B
:103AC0000446304606F0FEFD064606F0F7FD041BF0
:103AD000384604F06FFB0649064A2868002E18BFD6
:103AE0000A4623460449BDE8F04105F063BE00BF25
:103AF00055790100AC790100A86C01002DE9F04175
:103B0000224B4A68224D9A4288BF224B0F4688BFFB
:103B10001E78297898BF0226B142044612D01E4B67
:103B200003291A7808BF314605F0E0FC18492E70C9
:103B30008046204606F068FB0246C8B9414620464A
:103B400006F078FB00231A461449204606F0C0F818
:103B5000134B1B7893B101224FF0FF310F4806F051
:103B6000C3F802280AD10F490F4805F023FEFEE7EB
:103B70007B680E490E4805F01DFEE3E70D4AD2F8BA
:103B800080300133C2F88030BDE8F081FFC99A3B34
:103B900032000020721A0020300000200020002097
:103BA000731A00200B7001002B700100C16F01001F
:103BB000FF6F010010200020054B8AB21A80054BD0
:103BC0009B781BB90123044906F05FBC704700BF16
:103BD000AC0F0020EF200020B40D002007B50DF140
:103BE000060106F0DBF820B9BDF8060003B05DF869
:103BF00004FB0020FAE7000038B50A4D00242944F0
:103C0000A2420ADC084B9B782BB9084A0549128866
:103C1000012306F03AFC012038BD1D5D0D5501342D
:103C2000EEE700BFB40D0020EF200020AC0F002015
:103C300030B589B0044614220D4603A800210FF0C8
:103C40005AFF08A9032341F8183D204607F05EF902
:103C50002946204607F094F9FF21204607F0E1F9B4
:103C60002046C821FFF7A8FF08AB202203F81C2D2F
:103C7000072101222046FFF7BFFFFC21204606F066
:103C8000AEFA2046FFF7AAFF09B030BD30B589B0C3
:103C900008A9002441F8204D054606F0F2FB012357
:103CA0008DF8083040F63813ADF80A3040F20223A0
:103CB000ADF80C30ADF80E306423ADF81030ADF82F
:103CC00014304FF4E1734FF4DC72ADF8163001A9F3
:103CD0000B2328460194ADF81220ADF81840ADF83A
:103CE0001A408DF81C308DF81D408DF81E4006F0EE
:103CF0004DFF09B030BD00000B46034A034912785E
:103D0000186805F057BD00BF711A00203770010018
:103D10002DE9F0414868174F0C4603F065FB00227F
:103D2000C3B2D1B257F8211031B92068124A11211B
:103D3000BDE8F04105F096BD0132D1B28B42F0D220
:103D40000E4E0F4D30682B700122114605F0CAFE51
:103D50002B780C4A57F82310306806F073F90A4A9A
:103D60000A49108003462A782068BDE8F04105F032
:103D700021BD00BFC40F002046700100183C002088
:103D8000711A0020FD3A0000E81E00206670010054
:103D900037B50D46314A0021044606F053F9162D79
:103DA00043D8DFE805F00C424242424242424242DE
:103DB00017374247494B4D4F515355575900284BE0
:103DC000264A1978274B204653F8211006F03AF975
:103DD00003B030BD2046FFF759FF0121204606F011
:103DE00050FF204606F016FF20461421FFF7E4FEA0
:103DF0001D4B1B88ADF80430022201AB0021204688
:103E0000FFF7FAFEFC21204606F0E9F92046FFF70D
:103E1000E5FEDDE72046FFF739FF0121204606F0E9
:103E200030FF204606F0F2FEDEE710492046FFF79D
:103E3000FFFECDE70E49F9E70E49F7E70E49F5E732
:103E40000E49F3E70E49F1E70E49EFE70E49EDE7BA
:103E50000E49EBE70E49E9E70E49E7E7FD3A0000B6
:103E6000711A0020C40F0020BF6F0100F4CA0100C6
:103E7000CCCB0100C4CA01000CCB01009CCB0100DB
:103E80003CCB01006CCB0100B4CB010024CB010082
:103E900084CB0100DCCA0100012873B50D46124E27
:103EA000124C12DC34602378114A28681149002B27
:103EB0000E4B08BF1346104A0093104B18BF134611
:103EC0000F4A05F077FC02B070BD486803F08CFA29
:103ED00034600028E7D00B4A2868122102B0BDE800
:103EE000704005F0BFBC00BF38000020741A0020ED
:103EF000B8700100DD70010004690100B0700100BC
:103F0000D9700100BF70010001282DE9F74F0F465D
:103F10000BDD486803F068FA38B1344A386812217A
:103F200003B0BDE8F04F05F09DBC314B314DDFF8DB
:103F3000E480DFF8E49000244FF480621A802C7053
:103F4000A34640F2FE3AD34504D900232B703868CB
:103F5000294B38E00FF066FDC6B2731EDBB2FD2BB5
:103F6000F1D898F8003005F80B600BF10104A4B209
:103F7000002B38D030460FF0DFFD0D2E0AD198F817
:103F8000003013B10A200FF0D7FD0A232B550BF197
:103F90000204A4B2082C24D9A4F109060922A91903
:103FA00048460FF080FFE0B998F8003013B113488D
:103FB0000FF032FE00230F48AB550FF06CFF104B93
:103FC000188038680F4B2C780F490A4A002C08BF1C
:103FD0000A4600920D490E4A05F0ECFB03B0BDE81D
:103FE000F08FA346ADE70D2ED4D1CEE7BF70010010
:103FF000761E0020741A0020B0700100AE7001001F
:10400000741E002004690100B8700100DD70010019
:10401000D9700100450C0020A4700100012810B5E2
:104020000C460ADD486803F0DFF930B12068094A20
:104030001221BDE8104005F015BC074A07490023CE
:104040001370074A20681380BDE81040054B064AEC
:1040500005F0B0BBBF700100741A00208E70010023
:10406000741E002004690100D9700100012870B598
:104070000C46154E154D17DC35602A780AB31348E7
:104080000FF009FF124B012218800023114920680C
:104090000B801149114BBDE87040002A18BF0B4638
:1040A0000F4A104905F086BB486803F09DF935605A
:1040B0000028E2D020680C4A1221BDE8704005F0CB
:1040C000D1BB4FF48063E1E738000020741A002070
:1040D000741E0020761E0020FD700100B0700100EB
:1040E000D97001008E700100BF70010070470000A0
:1040F00030B585B0012302280D468DF80F300CDD58
:104100000DF10F01A86800F09FFD30B90F4A286833
:10411000032105F0A7FB05B030BD06F0CFFA0C4C2B
:104120002060686803F060F90A4B9DF80F20186062
:1041300012B92268801A18601B6822682868D11892
:104140000091054905F036FBE5E700BF0571010068
:104150007C1E0020781E002017710100F8B506466D
:104160002820174602F0AAFE054602F0C7FE0446C4
:1041700020B90B4A136801331360F8BD03230370A1
:10418000076106F09BFA0021A060304605F02FFD84
:104190002946E0600348BDE8F84002F008BF00BFD0
:1041A000B8200020143400202DE9F341124D286876
:1041B000884605F0EEFC0446286805F0E3FC074657
:1041C000286805F0D1FC064606F078FA0B490C4A3F
:1041D000D8F80050002C14BF14460C46002F08BF1E
:1041E0000A46CDE90042334602460649284605F014
:1041F000E1FA02B0BDE8F081183C002055790100D9
:10420000AC79010028720100F8B500200C4609685D
:1042100002F0A8FC10B36068114D03F0E5F81149F5
:104220000646A0680FF02DFE0746286805F0A3FC9F
:104230003A1C18BF01220C4B2868314605F086FC59
:1042400030B12068094A4021BDE8F84005F00ABBBA
:1042500021460120BDE8F840FFF7A6BFF8BD00BF2A
:10426000183C002073720100ED54000077720100C9
:1042700010B500200C46096802F074FC48B1054BEB
:10428000186805F078FC21460120BDE81040FFF7D2
:104290008BBF10BD183C00202DE9F043486885B065
:1042A0000F4603F0A1F8C6B2022E08D9194A3868A1
:1042B0000323102105B0BDE8F04305F0D3BA164B37
:1042C000182404FB0634204605F07FFC05462046F2
:1042D00005F084FC00218146204605F088FC8046DC
:1042E00006F0ECF90D490E4A3C68002D0CBF15464E
:1042F0000D46B9F1000F18BF0A46CDE90126009519
:10430000024643460749204605F054FA05B0BDE889
:10431000F08300BF9A710100801E0020AC7901007B
:1043200055790100DF71010070B500200C46096865
:1043300002F018FCE0B1606803F056F80546003062
:1043400018BF012005F0DEFB58B10A490A4A20686F
:10435000002D08BF0A4603230849BDE8704005F058
:1043600029BA2068064A1021BDE8704005F07ABAE3
:1043700070BD00BF49A701001A8701003D7101000F
:1043800059710100F7B50C460020096802F0EAFBFC
:10439000002838D0606803F027F8C5B2022D08D98C
:1043A0001A4A20680323102103B0BDE8F04005F04D
:1043B00059BAA06803F018F815490646E0680FF0EE
:1043C00060FD144B0746186805F0D5FB12480095B0
:1043D0003A1C31464FF0180618BF01220F4B06FB5E
:1043E000050005F0DDFB38B10D4A2068402103B01F
:1043F000BDE8F04005F036BA2146012003B0BDE823
:10440000F040FFF749BF03B0F0BD00BF9A71010053
:1044100073720100183C0020801E00205D410000E6
:104420005E72010010B500200C46096802F09AFB8C
:1044300008B3606802F0D8FFC3B2022B07D9206826
:104440000D4A03231021BDE8104005F00BBA0B4ABA
:10445000182000FB032005F0AFFB28B12146012006
:10446000BDE81040FFF718BF2068054A1021BDE8DD
:10447000104005F0F7B910BD9A710100801E0020B0
:104480007D710100034A936D013308BF01239365D9
:10449000704700BF1020002010B50C46486802F09D
:1044A000A3FF2168BDE8104002F0CCBBFFF7F4BFCA
:1044B000F0B5012885B00D46194C03DD486802F0BF
:1044C00093FF20602168174B174C286811F0010FEB
:1044D00014BF1A46224601F0180511F0020F08BF5A
:1044E0002346082DC1F3800718D0104C104E102D14
:1044F00018BF34460B4D0C4E11F0200F14BFAC46C4
:10450000B44611F0400F08BF3546CDE902C5CDE9EC
:104510000074084905F04EF905B0F0BD064CE9E716
:1045200044340020AC7901005579010094720100F7
:10453000877201009D7201008B72010010B54868FE
:104540000C4602F051FF054B22681860011C18BF91
:1045500001210720BDE8104001F09EBE1C21002073
:104560000B46034A03491268186805F023B900BFD7
:10457000B00B0020F472010010B548680C4602F040
:1045800033FF044B21461860BDE810400120FFF7BF
:10459000E7BF00BFB00B002038B548680C4C0D4693
:1045A00002F022FF011C18BF0121206805F084FEE3
:1045B00020682D6805F084FE064B074A074900284D
:1045C00008BF1A462846BDE8384005F0F3B800BFDA
:1045D000183C0020C457010037C20100F6740100E6
:1045E00010B548680C4602F0FFFE084B81B218680F
:1045F00005F06AFE064A074B0749002818BF1A460D
:104600002068BDE8104005F0D5B800BF183C002078
:1046100004690100B0700100EC740100F7B548684E
:104620000C4602F0E1FE054601F030FE0E2808D1EE
:104630003DB12B4A20681D2103B0BDE8F04005F0D4
:1046400011B901F023FE04280AD1264E306805F086
:1046500047FA8DB90128244F20D800233B702BE066
:1046600001F014FE0E28F0D02168002002F07AFA42
:104670000028EAD103B0F0BD10F0020229D11B4B93
:104680003068198805F0D5FA034610B3184A206837
:10469000282103B0BDE8F04005F0E4B82A46012126
:1046A000306805F01FFA01F0F1FD0E28D5D12A4639
:1046B000294602F077FA3D7026680E4D0E4C05F043
:1046C000FDFF234600902A460C49304605F072F85B
:1046D000D0E7054B2668084D064C01221A70EEE71C
:1046E00039730100183C0020FD200020E81E002046
:1046F00079730100C457010037C2010063730100E0
:104700002DE9F047012886B00C4615DD486802F017
:104710006BFE254B054602464FF0FF31186805F049
:104720001DFD38B1214A20681F2106B0BDE8F047C1
:1047300005F098B81E4B1D60DFF874A01D49DAF82B
:10474000000025681C4C10F0010F0CBF0E462646D9
:1047500010F0020F0CBF0F46274610F0040F0CBFDD
:104760008846A04610F0080F0CBF8946A14610F0FD
:10477000100F08BF0C4602F0E1FADAF800300F49DA
:10478000CDF8008013F0800F0D4B08BF1946CDE91E
:104790000301CDE901943B4632460A49284605F01B
:1047A00009F806B0BDE8F087183C00206B740100E2
:1047B0000821002055790100AC790100F290010038
:1047C000687401007C74010010B548680C4602F062
:1047D0000BFEC1B20031226818BF01210220BDE8E2
:1047E000104001F059BD10B548680C4602F0FCFDC0
:1047F000C1B20031226818BF01210120BDE810407C
:1048000001F04ABD10B548680C4602F0EDFDC1B29A
:104810000031226818BF01210420BDE8104001F0DA
:104820003BBD000070B548680C4602F0DDFD054652
:1048300001F02CFD042806D02068194A0721BDE8A4
:10484000704005F00FB8174E00220121306805F0C6
:1048500049F915F0FF020FD0134930680988002389
:104860001A4605F0CDF9C0B10346104A2068082168
:10487000BDE8704004F0F6BF0D4B1B7833B10A4B16
:104880003068198805F0D5F90028EDD12068094A6B
:104890000949BDE8704004F08DBF2068074AF7E77A
:1048A00023740100183C0020E81E0020467401001B
:1048B000FD200020C45701003A74010037C20100F6
:1048C0002DE9F04F0A6887B083460D460B20012181
:1048D00002F068F9002800F01281686802F084FD97
:1048E00000F07F04042C049000F2FC80DFF86C924E
:1048F000844FDFF86CA21ED16B685B78532B16D007
:1049000010D8482B00F0F7807F4BDFF858829B6966
:104910007E4E13F0010F7E4B08BF1E46BBF1020F07
:104920001DDD0EE0682B00F0E680732BECD1DFF884
:104930003882774E02E0DFF82C82764EBBF1020F10
:104940000BDDA86802F050FDBBF1030FC9F80000B1
:1049500003D0E86802F048FD3870012C13D900221A
:104960000121DAF8000005F0BDF800F053FD664AB9
:10497000936903F03003202B1FBF936923F03003AA
:1049800043F010039361644A644B65492868042C22
:1049900018BF13463A7802F0030251F82220614909
:1049A000CDE900323346224604F004FF00F0E0FC7B
:1049B00003F0FCFB049B3978D9F800205A4F13F020
:1049C000800F8346594BDAF8000018BF002305F02A
:1049D0008DF801220023C9F80000CDE90022184615
:1049E000114603F0C9FF00233B70631E0593059B2E
:1049F000032B09D8DFE803F002676B6F4C4A136999
:104A000023F00403136130BF584603F0D3FB03F0D7
:104A1000CDFB8346DAF8000005F06DF8049010B97C
:104A20003B78002BE3D0584603F0C4FB002211462C
:104A30000B2001F031FC01220023CDE900231146B7
:104A4000184603F099FF3A783A4904983A4B002AFD
:104A50000CBF1A460A46002818BF0B46D9F80010AA
:104A60000092CDE90131224633463449344804F0FE
:104A7000A1FE3B7863B1012C2FD9324800F06DFCC8
:104A80000EF0D0FF0EF0CEFF0EF0CCFF0EF0CAFFFE
:104A90002D4B1B7863B12D4BDAF8000019880022EA
:104AA00005F0C7F820B12A4A2868012104F0DAFE8F
:104AB000012C24D9274B1B78DB0720D507B0BDE894
:104AC000F04F00F0F7BC012003F0AAFC9CE70120A6
:104AD00003F0C4FC98E7C04796E70EF0A3FF002858
:104AE000FBDBD5E71C4A28682346012107B0BDE857
:104AF000F04F04F0B7BEDFF87480044E0EE707B045
:104B0000BDE8F08FC81E002000300E40A88B0100C9
:104B100072C201009C60010068740100F290010003
:104B2000087301000A750100DD1E002085440000A5
:104B300000ED00E003750100077501002D7501000F
:104B40005975010090D00300FD200020E81E0020D0
:104B500063750100440C002087750100CC1E002005
:104B6000183C0020BD840000FD840000ED8400009E
:104B7000012870B506460D46174C0ADD486802F05C
:104B800033FC164B022E186003D0A86802F02CFCF0
:104B9000207021782A68003118BF01210B2002F013
:104BA00001F8B8B10D4E0E480E4B326821780068FE
:104BB00004F09CFF0346306000B9207022780A4957
:104BC000286802F00302BDE8704051F8222007492E
:104BD00004F0F0BD70BD00BFC81E0020CC1E002038
:104BE000183C002085440000087301001873010080
:104BF00010B501F04BFB0B28044618D10C4B18687C
:104C000004F079FF98B100221146204601F044FBE0
:104C1000084B09491A78094B09481B6802F003023E
:104C2000BDE8104051F82220064904F0C3BD10BD74
:104C3000183C0020C81E002008730100CC1E002074
:104C40002B7301004575010038B505460C46014639
:104C50000D480FF0EBF818B902232370012006E08D
:104C600029460A480FF0E2F810B90120207038BD3B
:104C7000294607480FF0DAF808B92070EEE702235A
:104C800023700020F3E700BFFF72010003730100EF
:104C90007372010037B50023054648680C46CDE91C
:104CA000003302F0A1FB022D009012DD01A9A068E3
:104CB000FFF7CAFF30B90D4A20681C2104F0D2FD6D
:104CC00003B030BD032D04D0E16809480FF0AEF801
:104CD00050B1002368468DF8053001F02BFE2168A5
:104CE000062001F057FFEBE70123F3E70571010010
:104CF000AE7501002DE9F0410C46002186B0064654
:104D0000084601F02FFF0146A8B10021084601F036
:104D100029FFE8B9606802F067FB8046E06802F0AE
:104D200063FB0DF106010746A068FFF78DFFB0B9E0
:104D3000344A192106E00E2001F014FF0028E4D1C6
:104D4000314A1E21206804F08DFD06B0BDE8F081D7
:104D50000021012001F0B4FF0028F1D0DAE70DF1C5
:104D600007012069FFF770FF10B9284A1A21E9E707
:104D7000052E43DD606902F037FB051C18BF0125D5
:104D8000062E3CD0A06902F02FFB003018BF012096
:104D90009DF806308DF80C309DF807308DF81430F2
:104DA0001B4B8DF8160000210E208DF815501D703C
:104DB000CDF80880049701F0D5FE054630B9226889
:104DC00001210E2001F0EEFE0028BED0114912484C
:104DD00009880068002302AA04F02FFF0346002878
:104DE000B3D00E4A20681B2104F03CFD002DACD14D
:104DF000226829460E2001F0D5FEA6E700250020F6
:104E0000C6E700BFC87301009D730100E473010091
:104E10000C210020E81E0020183C0020FE73010039
:104E200038B50868094D04F06DFC002455F83420AD
:104E300007482146013404F0DDFC0A2CF6D1214656
:104E4000044A0348BDE8384004F0F0BC5C77010038
:104E50004D770100537701000F4B37B518680C46AA
:104E600006F08AF80D4B25681C680D490D4A14F0B0
:104E7000010F14BF0B46134614F0020F14BF0C466B
:104E800014460094002818BF0A460749284604F033
:104E900091FC03B030BD00BF183C00203C00002056
:104EA00037C20100C4570100E077010070B5054624
:104EB0000C460120096801F003FFD8B1012D10DD77
:104EC000606802F091FA022D064604D0A06802F054
:104ED0008BFA094B1860094B186846B1064906F071
:104EE00015F821460120BDE87040FFF7B5BF06F078
:104EF00062F8F6E770BD00BF3C000020183C0020BF
:104F0000F7B51F4C054620680E4606F035F838B94F
:104F10001C4A3068262103B0BDE8F04004F0A2BC72
:104F2000012D194D0ADD706802F05EFA4FF0FF3175
:104F300007460246206806F060F82F602068134C90
:104F400005F07BFA28712D681149366815F0010FBC
:104F500014BF0A46224615F0020F14BF0B46234623
:104F60006D0708D42146CDE900143046094904F004
:104F700021FC03B0F0BD0028F5D00C46F3E700BFDC
:104F8000183C00205C7601003C000020C457010062
:104F900037C2010084760100074B08681B780A2B92
:104FA00005D8064A064952F8332004F003BC1A46D5
:104FB000044904F0FFBB00BF540000205C770100EF
:104FC000007701002377010070B505460C460120EB
:104FD000096801F075FE18B3606802F005FAC0B206
:104FE0000A280AD9252120680E4A04F03BFC2146F4
:104FF0002846BDE87040FFF713BF0B4B0B4E3070D7
:1050000003EBC0000A4B4168186805F0B9FF08B10E
:105010000B23337021462846BDE87040FFF7BCBF24
:1050200070BD00BFC57701005C770100540000200F
:10503000183C002010B548680C4602F0D5F9084B22
:10504000C1B2186805F0EDFF064A074B0749002872
:1050500008BF1A462068BDE8104004F0ABBB00BF93
:10506000183C00204D68010053680100715B01008D
:1050700038B548680C4602F0B7F90546A06802F05A
:10508000B3F9084BC2B22946186805F0DCFF064B9D
:10509000064A0749002808BF1A462068BDE838407C
:1050A00004F088BB183C0020536801004D680100E3
:1050B000715B010013B50C4602A94FF6FF7321F88E
:1050C000023D104B186804F069FEBDF80610022975
:1050D00013D80D4B1B780A2B0FD80C4A206802EB13
:1050E000C302536803EBC10309491A79094B53F80A
:1050F000222004F05FFB02B010BD0749206804F0D5
:1051000059FBF8E7183C0020540000205C770100B0
:10511000BF760100B4750100CB7601002DE9F041A6
:10512000184D804628680C4605F026FF2F4630B9FA
:105130002068154A2621BDE8F04104F093BBB8F180
:10514000020F666816DD1149A0680EF09AFE88B954
:10515000304602F049F9C1B2286805F0ADFF0C4AAB
:105160000C4B0D49002818BF1A462068BDE8F041D5
:1051700004F020BB304602F037F901B2386805F080
:10518000C5FFECE7183C00205C760100B26D010021
:10519000536801004D680100B477010070B5084CF8
:1051A0000D68206805F0CAFF0646206805F0D6FFA6
:1051B0003246034603492846BDE8704004F0FABA77
:1051C000183C0020DE76010070B50546282001F06D
:1051D00075FE064601F092FE044620B90C4A13689B
:1051E0000133136070BD0146022301F8093B2846D4
:1051F00005F03DFF0028F5D104F10801284605F02F
:1052000045FF31460348BDE8704001F0D0BE00BF05
:10521000B8200020143400202DE9FF41254B0093D5
:10522000254B0193254B02930128254B039308BF7F
:10523000244B254F254EDFF89C8008BF187005468B
:10524000002407EBC4035B689D4214D117F8343087
:1052500030225A431E4B134405EBC3039B001B68CB
:105260007BB905F02BFA4FF47A73B0FBF3F001230E
:1052700048F82400335514B104B0BDE8F08101248E
:10528000DFE7335D002BF6D00023335505F016FA27
:105290004FF47A73B0FBF3F058F82430C01AB0F52D
:1052A0007A7F96BF02AB5DF8243053F824309847DC
:1052B000E1E700BFD952000059530000E15200005D
:1052C000E9520000DD1E002008780100D01E0020F9
:1052D0001CA01042D41E00200021084601F0B2BCE0
:1052E0000021012001F0AEBC002138B5084601F0D4
:1052F00039FC58B30021042001F0E2FC044628BB2D
:105300000146022001F0DCFC114D20B122460121B2
:10531000286804F0E7FB0F4C28682188013189B226
:1053200004F023FD38B92388013323802088BDE8A9
:10533000384000F009BA002323802188286804F04F
:1053400014FD0028F2D023880133F5E738BD00BFF3
:10535000183C0020E81E0020704738B5044605F0D0
:10536000ADF9054605F0AAF9401BA042FAD338BDB5
:10537000024A13699B04FCD5704700BF000001403E
:1053800070470000034B1B78DB0701D503F05EBEBE
:10539000704700BF440C0020034B1B78DB0701D58E
:1053A00003F06CBE704700BF440C002008B500201D
:1053B00003F034FE0120BDE8084003F02FBE0000DA
:1053C000124B37B51A78F2B1114D00241C70D5F884
:1053D0002834062223F04003C5F82834114623461A
:1053E0000520CDE9004403F0C7FAD5F82834072298
:1053F00023F08003C5F828341146CDE90044234644
:10540000052003F0B9FA03B030BD00BFDC1E002058
:1054100000A0004008B5FFF7C9FFBDE80840FFF74E
:10542000CFBF0000154B1A7813B52ABB0124022206
:105430001C7006212346052003F0EAFA10490620D5
:1054400002F0AEF80622114623460520CDE90044BD
:1054500003F092FA234602220721052003F0D8FA2E
:105460000749072002F09CF80722CDE900442346B3
:105470001146052003F080FA02B010BDDC1E0020AA
:105480001952000008B503F011FE012003F002FFDD
:10549000012304220721022003F0BAFA02F072F875
:1054A0000349012002F07CF8BDE80840FFF7BABFCD
:1054B00019520000024B01221A70FFF7B3BF00BF60
:1054C00055000020034B1B88184400B280F30800ED
:1054D000C0B27047E020002008B50020FFF752FF5F
:1054E0000120BDE80840FFF74DBF0000002170B566
:1054F0000446084601F036FBB0B11E4B1B6833B1C1
:10550000012220461146BDE8704004F0EBBA05F0D8
:10551000D5F8194B1860204604F026FB174B18608D
:10552000174B01221A7070BD00F0B0FE0C281ED17E
:10553000144B154A154D802199671668EB6D33445D
:10554000EB65134B15681A68521B1A6032B9114B80
:10555000BDE870401960114600F09EBE0E490F4B29
:10556000096820460122BDE8704004F0EFBA0C4BF8
:10557000D7E700BF28230020F8200020F4200020D7
:10558000FC20002000A000409C0D144210200020B0
:10559000103400206CA000440C340020ED540000B6
:1055A000EC200020362908B596BF0B4B0B4B53F867
:1055B00021300B480A460B4904F0FCF8BFF34F8F2B
:1055C00009490A4BCA6802F4E0621343CB60BFF397
:1055D0004F8F00BFFDE700BF507B01009F670100B8
:1055E0002D7801001A78010000ED00E00400FA05B2
:1055F000F8B50021194E084601F0B4FA33785BB3D0
:1056000050B3174B1B783BBB164B1F7827BB164C70
:10561000206804F090FE154A3770136D013313654E
:10562000C207054602D5206804F09CFEEB0313D5A3
:1056300000220121206804F055FA0021206804F0BE
:105640007FFE0B4B1B783BB10A4B20681988002268
:10565000BDE8F84004F0EDBAF8BD00BFE61E00203A
:1056600014210020FE200020183C002010200020E3
:10567000FD200020E81E0020064B1A784AB10022C7
:105680001A70054B054A1B6812680549054804F065
:1056900091B87047FC200020F4200020F820002062
:1056A00081780100B178010038B5164B1A7842B301
:1056B00000221A70144BD3E90001002500F0806429
:1056C00054EA05021C4609D0104B1B789D0705D5EE
:1056D00002460B460E480F4904F06CF8D4E900234B
:1056E000002102F0005001430BD0084909788907D6
:1056F00003D50949064804F05DF8084AD36A013326
:10570000D36238BDE2200020D8200020440C0020C5
:10571000537A0100137A01005C7A01001020002006
:10572000054B1A783AB100221A70044B04491A68E2
:10573000044804F03FB8704704210020E01E002018
:10574000F0790100067A01000E4A012138B5117086
:105750000D4A0E4C127820800D4D62B10022218836
:10576000286804F066FA034650B10A4A0A48F02154
:1057700004F078F8FEE7286804F0B2F98307EDD466
:1057800038BD00BF55000020FD200020E81E00208D
:10579000183C00204978010073780100014B012278
:1057A0001A707047EC20002073B500F06FFD0628DA
:1057B000174C184D184E09D1002300932988174B18
:1057C0002268306804F020FA02B070BD00F05EFD7F
:1057D0000728F1D0124B30681B7829882268022BE9
:1057E00006D1002300930F4B1B6804F015FAEBE77A
:1057F000012B4FF0000305D100930B4B1B6804F005
:1058000007FAE1E702B0BDE8704004F0F9B900BF63
:1058100044340020E81E0020183C0020E420002032
:10582000701800206C1800206818002038B51E4B36
:105830001A78002A37D000221A7000F027FD0328BA
:105840001FBF1A4A136803F1FF33136000F01EFDF7
:10585000092807D0164B1B7823B9164B1648198810
:1058600000F0DEFEFFF7A0FF044660B1134A1449C2
:105870001368C4B200250133C1E900451360BDE8D7
:10588000384001F0A7B900F001FD0A280BD10D4BFB
:105890001868FFF762FD0C4B224618680121BDE82D
:1058A000384004F01FB938BDEC2000202021002032
:1058B00058230020AC0F0020B40D0020C020002091
:1058C000D8200020B00D0020183C0020014B012200
:1058D0001A707047C5200020014B01221A707047D2
:1058E000C42000202DE9F043324B1A7885B0002AFD
:1058F0002CD0314A1278002A54D11A702F4B304FD5
:105900001B78304E304D314C13F0020F16D03B68EF
:10591000326828689B1A002847D02D4A2D49002B51
:1059200008BF0A46D4E90089CDE902892A490190D5
:105930000968009129482A4903F03CFF3B6833601D
:1059400000232B6000220023C4E90023254B1A7892
:10595000002A27D000221A70184B234D1B78234EA3
:10596000234C13F0020F16D0224B1B789BB12F68EB
:105970003368E7B1174A1649002B18BF0A46D4E925
:105980000001CDE902011C49019709680091134803
:105990001A4903F00FFF002333602B60002200231D
:1059A000C4E9002305B0BDE8F083154ABAE7144AFC
:1059B000E5E700BFC5200020E2200020440C0020C5
:1059C000C820002018210020C0200020D82000205E
:1059D000027901004D680100382300205B79010045
:1059E0000A790100C4200020BC20002010210020E2
:1059F000D0200020EE200020B00F002061790100AF
:105A0000B66F01002DE9F043054689B017461C46E4
:105A10000E4631B92BB92D4909B0BDE8F04303F06A
:105A2000C9BE284603F06EFE002C40D094F80D90BD
:105A3000DFF8BC802648257B94F90E30E18A226885
:105A400094F80FC094F811E0B9F1000F18BF404668
:105A500094F81380CDF8188094F81280CDF8148053
:105A6000247C0093CDE903041A4B1B48CDE901CEF9
:105A7000002D18BF0346194803F0BCFE184D76B13F
:105A80002B7813B117480EF03FF8DFF86880002438
:105A9000A7422B7810DCB3B17D200EF04DF82B78A7
:105AA0008BB1114809B0BDE8F0430EF0B5B83946E6
:105AB0000E4803F09FFEE1E71BB1315D40460EF05A
:105AC00023F80134E4E709B0BDE8F083A07A0100CF
:105AD000557901009B7A0100967A0100A67A0100AF
